{"contracts/battleHelper.sol":{"BattleHelper":{"abi":[{"inputs":[{"internalType":"address","name":"sender","type":"address"},{"internalType":"uint256","name":"balance","type":"uint256"},{"internalType":"uint256","name":"needed","type":"uint256"},{"internalType":"uint256","name":"tokenId","type":"uint256"}],"name":"ERC1155InsufficientBalance","type":"error"},{"inputs":[{"internalType":"address","name":"approver","type":"address"}],"name":"ERC1155InvalidApprover","type":"error"},{"inputs":[{"internalType":"uint256","name":"idsLength","type":"uint256"},{"internalType":"uint256","name":"valuesLength","type":"uint256"}],"name":"ERC1155InvalidArrayLength","type":"error"},{"inputs":[{"internalType":"address","name":"operator","type":"address"}],"name":"ERC1155InvalidOperator","type":"error"},{"inputs":[{"internalType":"address","name":"receiver","type":"address"}],"name":"ERC1155InvalidReceiver","type":"error"},{"inputs":[{"internalType":"address","name":"sender","type":"address"}],"name":"ERC1155InvalidSender","type":"error"},{"inputs":[{"internalType":"address","name":"operator","type":"address"},{"internalType":"address","name":"owner","type":"address"}],"name":"ERC1155MissingApprovalForAll","type":"error"},{"inputs":[{"internalType":"address","name":"owner","type":"address"}],"name":"OwnableInvalidOwner","type":"error"},{"inputs":[{"internalType":"address","name":"account","type":"address"}],"name":"OwnableUnauthorizedAccount","type":"error"},{"anonymous":false,"inputs":[{"indexed":true,"internalType":"address","name":"account","type":"address"},{"indexed":true,"internalType":"address","name":"operator","type":"address"},{"indexed":false,"internalType":"bool","name":"approved","type":"bool"}],"name":"ApprovalForAll","type":"event"},{"anonymous":false,"inputs":[{"indexed":false,"internalType":"address","name":"_winner","type":"address"},{"indexed":false,"internalType":"address","name":"_loser","type":"address"},{"indexed":true,"internalType":"uint256","name":"_battleId","type":"uint256"},{"indexed":false,"internalType":"bool","name":"_res","type":"bool"}],"name":"BattleDone","type":"event"},{"anonymous":false,"inputs":[{"indexed":true,"internalType":"uint256","name":"_battleId","type":"uint256"},{"indexed":false,"internalType":"bool","name":"_res","type":"bool"}],"name":"BattleDoneDraw","type":"event"},{"anonymous":false,"inputs":[{"indexed":true,"internalType":"address","name":"_from","type":"address"},{"indexed":true,"internalType":"uint256","name":"_cardId","type":"uint256"},{"indexed":true,"internalType":"uint256","name":"_battleId","type":"uint256"}],"name":"BattleInitiated","type":"event"},{"anonymous":false,"inputs":[{"indexed":true,"internalType":"address","name":"_from","type":"address"},{"indexed":true,"internalType":"uint256","name":"_cardId","type":"uint256"},{"indexed":true,"internalType":"uint256","name":"_battleId","type":"uint256"},{"indexed":false,"internalType":"bool","name":"_res","type":"bool"}],"name":"BattleSelected","type":"event"},{"anonymous":false,"inputs":[{"indexed":false,"internalType":"uint256","name":"newCardIdMax","type":"uint256"}],"name":"CardIdMaxChanged","type":"event"},{"anonymous":false,"inputs":[{"indexed":true,"internalType":"address","name":"previousOwner","type":"address"},{"indexed":true,"internalType":"address","name":"newOwner","type":"address"}],"name":"OwnershipTransferred","type":"event"},{"anonymous":false,"inputs":[{"indexed":true,"internalType":"address","name":"operator","type":"address"},{"indexed":true,"internalType":"address","name":"from","type":"address"},{"indexed":true,"internalType":"address","name":"to","type":"address"},{"indexed":false,"internalType":"uint256[]","name":"ids","type":"uint256[]"},{"indexed":false,"internalType":"uint256[]","name":"values","type":"uint256[]"}],"name":"TransferBatch","type":"event"},{"anonymous":false,"inputs":[{"indexed":true,"internalType":"address","name":"operator","type":"address"},{"indexed":true,"internalType":"address","name":"from","type":"address"},{"indexed":true,"internalType":"address","name":"to","type":"address"},{"indexed":false,"internalType":"uint256","name":"id","type":"uint256"},{"indexed":false,"internalType":"uint256","name":"value","type":"uint256"}],"name":"TransferSingle","type":"event"},{"anonymous":false,"inputs":[{"indexed":false,"internalType":"string","name":"value","type":"string"},{"indexed":true,"internalType":"uint256","name":"id","type":"uint256"}],"name":"URI","type":"event"},{"inputs":[{"internalType":"address","name":"","type":"address"},{"internalType":"uint256","name":"","type":"uint256"}],"name":"addressToCardInBattle","outputs":[{"internalType":"uint256","name":"","type":"uint256"}],"stateMutability":"view","type":"function"},{"inputs":[{"internalType":"address","name":"account","type":"address"},{"internalType":"uint256","name":"id","type":"uint256"}],"name":"balanceOf","outputs":[{"internalType":"uint256","name":"","type":"uint256"}],"stateMutability":"view","type":"function"},{"inputs":[{"internalType":"address[]","name":"accounts","type":"address[]"},{"internalType":"uint256[]","name":"ids","type":"uint256[]"}],"name":"balanceOfBatch","outputs":[{"internalType":"uint256[]","name":"","type":"uint256[]"}],"stateMutability":"view","type":"function"},{"inputs":[{"internalType":"uint256","name":"","type":"uint256"}],"name":"battles","outputs":[{"internalType":"uint256","name":"battleId","type":"uint256"},{"internalType":"address","name":"player1","type":"address"},{"internalType":"address","name":"player2","type":"address"},{"internalType":"uint256","name":"cardIdPlayer1","type":"uint256"},{"internalType":"uint256","name":"cardIdPlayer2","type":"uint256"},{"internalType":"uint256","name":"amountPlayer1","type":"uint256"},{"internalType":"uint256","name":"amountPlayer2","type":"uint256"},{"internalType":"address","name":"winner","type":"address"},{"internalType":"address","name":"loser","type":"address"},{"internalType":"bool","name":"draw","type":"bool"},{"internalType":"string","name":"status","type":"string"}],"stateMutability":"view","type":"function"},{"inputs":[{"internalType":"address","name":"_from","type":"address"},{"internalType":"uint256","name":"_id","type":"uint256"},{"internalType":"uint256","name":"_value","type":"uint256"}],"name":"burn","outputs":[],"stateMutability":"nonpayable","type":"function"},{"inputs":[{"internalType":"uint256","name":"_battleId","type":"uint256"}],"name":"cancelBattle","outputs":[],"stateMutability":"nonpayable","type":"function"},{"inputs":[],"name":"cardIdMax","outputs":[{"internalType":"uint256","name":"","type":"uint256"}],"stateMutability":"view","type":"function"},{"inputs":[{"internalType":"uint256","name":"","type":"uint256"},{"internalType":"address","name":"","type":"address"}],"name":"cardIdToOwnerToAmount","outputs":[{"internalType":"uint256","name":"","type":"uint256"}],"stateMutability":"view","type":"function"},{"inputs":[{"internalType":"uint256","name":"","type":"uint256"},{"internalType":"uint256","name":"","type":"uint256"}],"name":"cardIdToOwners","outputs":[{"internalType":"address","name":"","type":"address"}],"stateMutability":"view","type":"function"},{"inputs":[{"internalType":"uint256","name":"_cardIdMax","type":"uint256"}],"name":"changeCardIdMax","outputs":[],"stateMutability":"nonpayable","type":"function"},{"inputs":[{"internalType":"uint256","name":"_battleId","type":"uint256"},{"internalType":"uint256[]","name":"_stats","type":"uint256[]"}],"name":"confirmBattle","outputs":[],"stateMutability":"nonpayable","type":"function"},{"inputs":[{"internalType":"uint256","name":"id","type":"uint256"}],"name":"exists","outputs":[{"internalType":"bool","name":"","type":"bool"}],"stateMutability":"view","type":"function"},{"inputs":[{"internalType":"address","name":"_from","type":"address"}],"name":"getAllBalance","outputs":[{"internalType":"uint256[]","name":"","type":"uint256[]"}],"stateMutability":"view","type":"function"},{"inputs":[],"name":"getAllBattle","outputs":[{"components":[{"internalType":"uint256","name":"battleId","type":"uint256"},{"internalType":"address","name":"player1","type":"address"},{"internalType":"address","name":"player2","type":"address"},{"internalType":"uint256","name":"cardIdPlayer1","type":"uint256"},{"internalType":"uint256","name":"cardIdPlayer2","type":"uint256"},{"internalType":"uint256","name":"amountPlayer1","type":"uint256"},{"internalType":"uint256","name":"amountPlayer2","type":"uint256"},{"internalType":"uint256[]","name":"statsPlayer1","type":"uint256[]"},{"internalType":"uint256[]","name":"statsPlayer2","type":"uint256[]"},{"internalType":"address","name":"winner","type":"address"},{"internalType":"address","name":"loser","type":"address"},{"internalType":"bool","name":"draw","type":"bool"},{"internalType":"string","name":"status","type":"string"}],"internalType":"struct Battle.BattleData[]","name":"","type":"tuple[]"}],"stateMutability":"view","type":"function"},{"inputs":[],"name":"getAllBattleUser","outputs":[{"components":[{"internalType":"uint256","name":"battleId","type":"uint256"},{"internalType":"address","name":"player1","type":"address"},{"internalType":"address","name":"player2","type":"address"},{"internalType":"uint256","name":"cardIdPlayer1","type":"uint256"},{"internalType":"uint256","name":"cardIdPlayer2","type":"uint256"},{"internalType":"uint256","name":"amountPlayer1","type":"uint256"},{"internalType":"uint256","name":"amountPlayer2","type":"uint256"},{"internalType":"uint256[]","name":"statsPlayer1","type":"uint256[]"},{"internalType":"uint256[]","name":"statsPlayer2","type":"uint256[]"},{"internalType":"address","name":"winner","type":"address"},{"internalType":"address","name":"loser","type":"address"},{"internalType":"bool","name":"draw","type":"bool"},{"internalType":"string","name":"status","type":"string"}],"internalType":"struct Battle.BattleData[]","name":"","type":"tuple[]"}],"stateMutability":"view","type":"function"},{"inputs":[{"internalType":"uint256","name":"_id","type":"uint256"},{"internalType":"address","name":"_from","type":"address"}],"name":"getBalanceOf","outputs":[{"internalType":"uint256","name":"","type":"uint256"}],"stateMutability":"view","type":"function"},{"inputs":[{"internalType":"uint256","name":"_battleId","type":"uint256"}],"name":"getBattle","outputs":[{"components":[{"internalType":"uint256","name":"battleId","type":"uint256"},{"internalType":"address","name":"player1","type":"address"},{"internalType":"address","name":"player2","type":"address"},{"internalType":"uint256","name":"cardIdPlayer1","type":"uint256"},{"internalType":"uint256","name":"cardIdPlayer2","type":"uint256"},{"internalType":"uint256","name":"amountPlayer1","type":"uint256"},{"internalType":"uint256","name":"amountPlayer2","type":"uint256"},{"internalType":"uint256[]","name":"statsPlayer1","type":"uint256[]"},{"internalType":"uint256[]","name":"statsPlayer2","type":"uint256[]"},{"internalType":"address","name":"winner","type":"address"},{"internalType":"address","name":"loser","type":"address"},{"internalType":"bool","name":"draw","type":"bool"},{"internalType":"string","name":"status","type":"string"}],"internalType":"struct Battle.BattleData","name":"","type":"tuple"}],"stateMutability":"view","type":"function"},{"inputs":[],"name":"getCardIdMax","outputs":[{"internalType":"uint256","name":"","type":"uint256"}],"stateMutability":"view","type":"function"},{"inputs":[{"internalType":"uint256","name":"_cardId","type":"uint256"}],"name":"initBattle","outputs":[],"stateMutability":"payable","type":"function"},{"inputs":[{"internalType":"address","name":"account","type":"address"},{"internalType":"address","name":"operator","type":"address"}],"name":"isApprovedForAll","outputs":[{"internalType":"bool","name":"","type":"bool"}],"stateMutability":"view","type":"function"},{"inputs":[{"internalType":"address","name":"_account","type":"address"},{"internalType":"uint256","name":"_id","type":"uint256"},{"internalType":"uint256","name":"_amount","type":"uint256"},{"internalType":"bytes","name":"_data","type":"bytes"}],"name":"mint","outputs":[],"stateMutability":"nonpayable","type":"function"},{"inputs":[{"internalType":"address","name":"_to","type":"address"},{"internalType":"uint256[]","name":"_ids","type":"uint256[]"},{"internalType":"uint256[]","name":"_amounts","type":"uint256[]"},{"internalType":"bytes","name":"_data","type":"bytes"}],"name":"mintBatch","outputs":[],"stateMutability":"nonpayable","type":"function"},{"inputs":[],"name":"nonce","outputs":[{"internalType":"uint256","name":"","type":"uint256"}],"stateMutability":"view","type":"function"},{"inputs":[],"name":"openPack","outputs":[],"stateMutability":"payable","type":"function"},{"inputs":[],"name":"owner","outputs":[{"internalType":"address","name":"","type":"address"}],"stateMutability":"view","type":"function"},{"inputs":[],"name":"renounceOwnership","outputs":[],"stateMutability":"nonpayable","type":"function"},{"inputs":[{"internalType":"address","name":"from","type":"address"},{"internalType":"address","name":"to","type":"address"},{"internalType":"uint256[]","name":"ids","type":"uint256[]"},{"internalType":"uint256[]","name":"values","type":"uint256[]"},{"internalType":"bytes","name":"data","type":"bytes"}],"name":"safeBatchTransferFrom","outputs":[],"stateMutability":"nonpayable","type":"function"},{"inputs":[{"internalType":"address","name":"from","type":"address"},{"internalType":"address","name":"to","type":"address"},{"internalType":"uint256","name":"id","type":"uint256"},{"internalType":"uint256","name":"value","type":"uint256"},{"internalType":"bytes","name":"data","type":"bytes"}],"name":"safeTransferFrom","outputs":[],"stateMutability":"nonpayable","type":"function"},{"inputs":[{"internalType":"uint256","name":"_cardId","type":"uint256"},{"internalType":"uint256","name":"_battleId","type":"uint256"},{"internalType":"uint256[]","name":"_stats","type":"uint256[]"}],"name":"selectBattle","outputs":[],"stateMutability":"payable","type":"function"},{"inputs":[{"internalType":"address","name":"operator","type":"address"},{"internalType":"bool","name":"approved","type":"bool"}],"name":"setApprovalForAll","outputs":[],"stateMutability":"nonpayable","type":"function"},{"inputs":[{"internalType":"string","name":"_newuri","type":"string"}],"name":"setURI","outputs":[],"stateMutability":"nonpayable","type":"function"},{"inputs":[{"internalType":"bytes4","name":"interfaceId","type":"bytes4"}],"name":"supportsInterface","outputs":[{"internalType":"bool","name":"","type":"bool"}],"stateMutability":"view","type":"function"},{"inputs":[{"internalType":"uint256","name":"_tokenId","type":"uint256"}],"name":"tokenURI","outputs":[{"internalType":"string","name":"","type":"string"}],"stateMutability":"pure","type":"function"},{"inputs":[],"name":"totalSupply","outputs":[{"internalType":"uint256","name":"","type":"uint256"}],"stateMutability":"view","type":"function"},{"inputs":[{"internalType":"uint256","name":"id","type":"uint256"}],"name":"totalSupply","outputs":[{"internalType":"uint256","name":"","type":"uint256"}],"stateMutability":"view","type":"function"},{"inputs":[{"internalType":"address","name":"newOwner","type":"address"}],"name":"transferOwnership","outputs":[],"stateMutability":"nonpayable","type":"function"},{"inputs":[{"internalType":"uint256","name":"","type":"uint256"}],"name":"uri","outputs":[{"internalType":"string","name":"","type":"string"}],"stateMutability":"view","type":"function"}],"evm":{"bytecode":{"linkReferences":{},"object":"6080604052600960065560006007553480156200001b57600080fd5b50336040518060600160405280602981526020016200621660299139620000428162000084565b506001600160a01b0381166200007257604051631e4fbdf760e01b81526000600482015260240160405180910390fd5b6200007d8162000096565b5062000259565b60026200009282826200018d565b5050565b600580546001600160a01b038381166001600160a01b0319831681179093556040519116919082907f8be0079c531659141344cd1fd0a4f28419497f9722a3daafe3b4186f6b6457e090600090a35050565b634e487b7160e01b600052604160045260246000fd5b600181811c908216806200011357607f821691505b6020821081036200013457634e487b7160e01b600052602260045260246000fd5b50919050565b601f8211156200018857600081815260208120601f850160051c81016020861015620001635750805b601f850160051c820191505b8181101562000184578281556001016200016f565b5050505b505050565b81516001600160401b03811115620001a957620001a9620000e8565b620001c181620001ba8454620000fe565b846200013a565b602080601f831160018114620001f95760008415620001e05750858301515b600019600386901b1c1916600185901b17855562000184565b600085815260208120601f198616915b828110156200022a5788860151825594840194600190910190840162000209565b5085821015620002495787850151600019600388901b60f8161c191681555b5050505050600190811b01905550565b615fad80620002696000396000f3fe6080604052600436106102685760003560e01c80636dd0ce7a11610153578063bd85b039116100cb578063efefb0dd1161007f578063f242432a11610064578063f242432a1461072b578063f2fde38b1461074b578063f5298aca1461076b57600080fd5b8063efefb0dd146106e0578063f1632cd11461071857600080fd5b8063c87b56dd116100b0578063c87b56dd1461063f578063e985e9c51461065f578063e9994267146106a857600080fd5b8063bd85b039146105f2578063bfa0af6d1461061f57600080fd5b80638da7722a11610122578063a22cb46511610107578063a22cb465146105a7578063affed0e0146105c7578063b24a97c3146105dd57600080fd5b80638da7722a146105715780639347fb3d1461058757600080fd5b80636dd0ce7a146104f1578063715018a61461051e578063731133e9146105335780638da5cb5b1461055357600080fd5b806334303187116101e65780634e1273f4116101b55780634f558e791161019a5780634f558e7914610478578063606d2e96146104a757806365a41521146104de57600080fd5b80634e1273f4146104295780634f1b92fb1461045657600080fd5b806334303187146103b45780633c4ea385146103ec5780634673f332146103f45780634c4c447e1461040957600080fd5b80630e89341c1161023d5780631f7fdffa116102225780631f7fdffa1461035457806327343190146103745780632eb2c2d61461039457600080fd5b80630e89341c1461031257806318160ddd1461033f57600080fd5b806266fd0d1461026d578062fdd58e1461028f57806301ffc9a7146102c257806302fe5305146102f2575b600080fd5b34801561027957600080fd5b5061028d610288366004615289565b61078b565b005b34801561029b57600080fd5b506102af6102aa3660046152b9565b6107ce565b6040519081526020015b60405180910390f35b3480156102ce57600080fd5b506102e26102dd3660046152f9565b6107f6565b60405190151581526020016102b9565b3480156102fe57600080fd5b5061028d61030d3660046153b5565b610891565b34801561031e57600080fd5b5061033261032d366004615289565b6108a5565b6040516102b9919061544e565b34801561034b57600080fd5b506004546102af565b34801561036057600080fd5b5061028d61036f366004615510565b610939565b34801561038057600080fd5b5061028d61038f3660046155a9565b610953565b3480156103a057600080fd5b5061028d6103af3660046155f0565b610c12565b3480156103c057600080fd5b506103d46103cf36600461569a565b610c98565b6040516001600160a01b0390911681526020016102b9565b61028d610cd0565b34801561040057600080fd5b506006546102af565b34801561041557600080fd5b5061028d610424366004615289565b610cda565b34801561043557600080fd5b506104496104443660046156bc565b610fc1565b6040516102b991906157ad565b34801561046257600080fd5b5061046b611096565b6040516102b991906158bd565b34801561048457600080fd5b506102e2610493366004615289565b600090815260036020526040902054151590565b3480156104b357600080fd5b506104c76104c2366004615289565b6110a5565b6040516102b99b9a9998979695949392919061591f565b61028d6104ec366004615997565b6111b1565b3480156104fd57600080fd5b5061051161050c366004615289565b611522565b6040516102b991906159e7565b34801561052a57600080fd5b5061028d611815565b34801561053f57600080fd5b5061028d61054e3660046159fa565b611827565b34801561055f57600080fd5b506005546001600160a01b03166103d4565b34801561057d57600080fd5b506102af60065481565b34801561059357600080fd5b506104496105a2366004615a4f565b61183b565b3480156105b357600080fd5b5061028d6105c2366004615a6a565b6118f0565b3480156105d357600080fd5b506102af60075481565b3480156105e957600080fd5b5061046b6118fb565b3480156105fe57600080fd5b506102af61060d366004615289565b60009081526003602052604090205490565b34801561062b57600080fd5b506102af61063a366004615aa6565b611b1e565b34801561064b57600080fd5b5061033261065a366004615289565b611b31565b34801561066b57600080fd5b506102e261067a366004615ad2565b6001600160a01b03918216600090815260016020908152604080832093909416825291909152205460ff1690565b3480156106b457600080fd5b506102af6106c3366004615aa6565b600860209081526000928352604080842090915290825290205481565b3480156106ec57600080fd5b506102af6106fb3660046152b9565b600a60209081526000928352604080842090915290825290205481565b61028d610726366004615289565b611b62565b34801561073757600080fd5b5061028d610746366004615afc565b611ca2565b34801561075757600080fd5b5061028d610766366004615a4f565b611d20565b34801561077757600080fd5b5061028d610786366004615b61565b611d74565b610793611d7f565b60068190556040518181527f2ca7491c41b198f60823c9da02ca440dca6bfb5d6cd4ae0df705cc35de252fb39060200160405180910390a150565b6000818152602081815260408083206001600160a01b03861684529091529020545b92915050565b60006001600160e01b031982167fd9b67a2600000000000000000000000000000000000000000000000000000000148061085957506001600160e01b031982167f0e89341c00000000000000000000000000000000000000000000000000000000145b806107f057507f01ffc9a7000000000000000000000000000000000000000000000000000000006001600160e01b03198316146107f0565b610899611d7f565b6108a281611dc5565b50565b6060600280546108b490615b94565b80601f01602080910402602001604051908101604052809291908181526020018280546108e090615b94565b801561092d5780601f106109025761010080835404028352916020019161092d565b820191906000526020600020905b81548152906001019060200180831161091057829003601f168201915b50505050509050919050565b610941611d7f565b61094d84848484611dd1565b50505050565b6000821180156109655750600b548211155b6109b65760405162461bcd60e51b815260206004820152601960248201527f5468697320626174746c6520646f65736e27742065786973740000000000000060448201526064015b60405180910390fd5b33600b6109c4600185615be4565b815481106109d4576109d4615bf7565b600091825260209091206001600c9092020101546001600160a01b031614610a3e5760405162461bcd60e51b815260206004820152601f60248201527f596f7520617265206e6f742070617274206f66207468697320626174746c650060448201526064016109ad565b6040516577616974503160d01b602082015260260160405160208183030381529060405280519060200120600b600184610a789190615be4565b81548110610a8857610a88615bf7565b90600052602060002090600c0201600b01604051602001610aa99190615c0d565b6040516020818303038152906040528051906020012014610b325760405162461bcd60e51b815260206004820152602960248201527f5468697320626174746c65206973206e6f742077616974696e6720666f72206160448201527f20706c617965722031000000000000000000000000000000000000000000000060648201526084016109ad565b8051600314610b835760405162461bcd60e51b815260206004820152601860248201527f596f75206e65656420746f2073656e642033207374617473000000000000000060448201526064016109ad565b6000610b8f8383611e09565b905080610c045760405162461bcd60e51b815260206004820152603360248201527f536f6d657468696e672077656e742077726f6e6720647572696e67207468652060448201527f626174746c6520636f6e6669726d6174696f6e0000000000000000000000000060648201526084016109ad565b610c0d83612182565b505050565b336001600160a01b0386168114801590610c5257506001600160a01b0380871660009081526001602090815260408083209385168352929052205460ff16155b15610c835760405163711bec9160e11b81526001600160a01b038083166004830152871660248201526044016109ad565b610c9086868686866126e0565b505050505050565b60096020528160005260406000208181548110610cb457600080fd5b6000918252602090912001546001600160a01b03169150829050565b610cd8612747565b565b600081118015610cec5750600b548111155b610d385760405162461bcd60e51b815260206004820152601960248201527f5468697320626174746c6520646f65736e27742065786973740000000000000060448201526064016109ad565b33600b610d46600184615be4565b81548110610d5657610d56615bf7565b600091825260209091206001600c9092020101546001600160a01b031614610dc05760405162461bcd60e51b815260206004820152601f60248201527f596f7520617265206e6f742070617274206f66207468697320626174746c650060448201526064016109ad565b6040516577616974503160d01b602082015260260160405160208183030381529060405280519060200120600b600183610dfa9190615be4565b81548110610e0a57610e0a615bf7565b90600052602060002090600c0201600b01604051602001610e2b9190615c0d565b604051602081830303815290604052805190602001201480610ecb5750604051653bb0b4ba281960d11b602082015260260160405160208183030381529060405280519060200120600b600183610e829190615be4565b81548110610e9257610e92615bf7565b90600052602060002090600c0201600b01604051602001610eb39190615c0d565b60405160208183030381529060405280519060200120145b610f3d5760405162461bcd60e51b815260206004820152603560248201527f43616e742063616e63656c206120626174746c652074686174206973206e6f7460448201527f2077616974696e6720666f72206120706c61796572000000000000000000000060648201526084016109ad565b6000610f488261280a565b905080610fbd5760405162461bcd60e51b815260206004820152603360248201527f536f6d657468696e672077656e742077726f6e6720647572696e67207468652060448201527f626174746c652063616e63656c6c6174696f6e0000000000000000000000000060648201526084016109ad565b5050565b60608151835114610ff25781518351604051635b05999160e01b8152600481019290925260248201526044016109ad565b6000835167ffffffffffffffff81111561100e5761100e615316565b604051908082528060200260200182016040528015611037578160200160208202803683370190505b50905060005b845181101561108e57602080820286010151611061906020808402870101516107ce565b82828151811061107357611073615bf7565b602090810291909101015261108781615c83565b905061103d565b509392505050565b60606110a0612ccc565b905090565b600b81815481106110b557600080fd5b60009182526020909120600c9091020180546001820154600283015460038401546004850154600586015460068701546009880154600a890154600b8a018054999b506001600160a01b039889169a9789169996989597949693959283169492821693600160a01b90920460ff16929161112e90615b94565b80601f016020809104026020016040519081016040528092919081815260200182805461115a90615b94565b80156111a75780601f1061117c576101008083540402835291602001916111a7565b820191906000526020600020905b81548152906001019060200180831161118a57829003601f168201915b505050505090508b565b600034116112015760405162461bcd60e51b815260206004820152601660248201527f596f75206e65656420746f2073656e642065746865720000000000000000000060448201526064016109ad565b60008311801561121357506006548311155b61121c57600080fd5b336000818152600a60209081526040808320878452909152812054909161124390866107ce565b61124d9190615be4565b116112b05760405162461bcd60e51b815260206004820152602d60248201527f596f7520646f6e2774206861766520656e6f75677468206f662074686973206360448201526c61726420617661696c61626c6560981b60648201526084016109ad565b6000821180156112c25750600b548211155b61130e5760405162461bcd60e51b815260206004820152601960248201527f5468697320626174746c6520646f65736e27742065786973740000000000000060448201526064016109ad565b604051653bb0b4ba281960d11b602082015260260160405160208183030381529060405280519060200120600b6001846113489190615be4565b8154811061135857611358615bf7565b90600052602060002090600c0201600b016040516020016113799190615c0d565b60405160208183030381529060405280519060200120146114025760405162461bcd60e51b815260206004820152602960248201527f5468697320626174746c65206973206e6f742077616974696e6720666f72206160448201527f20706c617965722032000000000000000000000000000000000000000000000060648201526084016109ad565b80516003146114535760405162461bcd60e51b815260206004820152601860248201527f596f75206e65656420746f2073656e642033207374617473000000000000000060448201526064016109ad565b600061146084848461307b565b9050806114d55760405162461bcd60e51b815260206004820152603060248201527f536f6d657468696e672077656e742077726f6e6720647572696e67207468652060448201527f626174746c652073656c656374696f6e0000000000000000000000000000000060648201526084016109ad565b8284336001600160a01b03167fc559b3ccc5ecb04f988f93dc34629f418006013c2e2d95352ea77e50c3f21f7684604051611514911515815260200190565b60405180910390a450505050565b6115b3604051806101a001604052806000815260200160006001600160a01b0316815260200160006001600160a01b0316815260200160008152602001600081526020016000815260200160008152602001606081526020016060815260200160006001600160a01b0316815260200160006001600160a01b03168152602001600015158152602001606081525090565b6000821180156115c55750600b548211155b6116115760405162461bcd60e51b815260206004820152601960248201527f5468697320626174746c6520646f65736e27742065786973740000000000000060448201526064016109ad565b600b61161e600184615be4565b8154811061162e5761162e615bf7565b6000918252602091829020604080516101a081018252600c9093029091018054835260018101546001600160a01b0390811684860152600282015416838301526003810154606084015260048101546080840152600581015460a0840152600681015460c08401526007810180548351818702810187019094528084529394919360e0860193928301828280156116e457602002820191906000526020600020905b8154815260200190600101908083116116d0575b505050505081526020016008820180548060200260200160405190810160405280929190818152602001828054801561173c57602002820191906000526020600020905b815481526020019060010190808311611728575b505050918352505060098201546001600160a01b039081166020830152600a8301549081166040830152600160a01b900460ff1615156060820152600b8201805460809092019161178c90615b94565b80601f01602080910402602001604051908101604052809291908181526020018280546117b890615b94565b80156118055780601f106117da57610100808354040283529160200191611805565b820191906000526020600020905b8154815290600101906020018083116117e857829003601f168201915b5050505050815250509050919050565b61181d611d7f565b610cd86000613449565b61182f611d7f565b61094d8484848461349b565b6060600060065467ffffffffffffffff81111561185a5761185a615316565b604051908082528060200260200182016040528015611883578160200160208202803683370190505b50905060015b60065481116118e957600061189e85836107ce565b11156118d7576118ae84826107ce565b826118ba600184615be4565b815181106118ca576118ca615bf7565b6020026020010181815250505b806118e181615c83565b915050611889565b5092915050565b610fbd3383836134f8565b6060600b805480602002602001604051908101604052809291908181526020016000905b82821015611b15576000848152602090819020604080516101a081018252600c86029092018054835260018101546001600160a01b0390811684860152600282015416838301526003810154606084015260048101546080840152600581015460a0840152600681015460c08401526007810180548351818702810187019094528084529394919360e0860193928301828280156119dc57602002820191906000526020600020905b8154815260200190600101908083116119c8575b5050505050815260200160088201805480602002602001604051908101604052809291908181526020018280548015611a3457602002820191906000526020600020905b815481526020019060010190808311611a20575b505050918352505060098201546001600160a01b039081166020830152600a8301549081166040830152600160a01b900460ff1615156060820152600b82018054608090920191611a8490615b94565b80601f0160208091040260200160405190810160405280929190818152602001828054611ab090615b94565b8015611afd5780601f10611ad257610100808354040283529160200191611afd565b820191906000526020600020905b815481529060010190602001808311611ae057829003601f168201915b5050505050815250508152602001906001019061191f565b50505050905090565b6000611b2a82846107ce565b9392505050565b6060611b3c826135a8565b604051602001611b4c9190615c9c565b6040516020818303038152906040529050919050565b60003411611bb25760405162461bcd60e51b815260206004820152601660248201527f596f75206e65656420746f2073656e642065746865720000000000000000000060448201526064016109ad565b600081118015611bc457506006548111155b611bcd57600080fd5b336000818152600a602090815260408083208584529091528120549091611bf490846107ce565b611bfe9190615be4565b11611c615760405162461bcd60e51b815260206004820152602d60248201527f596f7520646f6e2774206861766520656e6f75677468206f662074686973206360448201526c61726420617661696c61626c6560981b60648201526084016109ad565b6000611c6c82613648565b6040519091508190839033907f7d449fa6e54154e0708080fd25570c187f5f5a38662c42a2324d966ec07b926f90600090a45050565b336001600160a01b0386168114801590611ce257506001600160a01b0380871660009081526001602090815260408083209385168352929052205460ff16155b15611d135760405163711bec9160e11b81526001600160a01b038083166004830152871660248201526044016109ad565b610c90868686868661395e565b611d28611d7f565b6001600160a01b038116611d6b576040517f1e4fbdf7000000000000000000000000000000000000000000000000000000008152600060048201526024016109ad565b6108a281613449565b610c0d8383836139ec565b6005546001600160a01b03163314610cd8576040517f118cdaa70000000000000000000000000000000000000000000000000000000081523360048201526024016109ad565b6002610fbd8282615d4d565b6001600160a01b038416611dfb57604051632bfa23e760e11b8152600060048201526024016109ad565b61094d6000858585856139f7565b600080600b611e19600186615be4565b81548110611e2957611e29615bf7565b6000918252602091829020604080516101a081018252600c9093029091018054835260018101546001600160a01b0390811684860152600282015416838301526003810154606084015260048101546080840152600581015460a0840152600681015460c08401526007810180548351818702810187019094528084529394919360e086019392830182828015611edf57602002820191906000526020600020905b815481526020019060010190808311611ecb575b5050505050815260200160088201805480602002602001604051908101604052809291908181526020018280548015611f3757602002820191906000526020600020905b815481526020019060010190808311611f23575b505050918352505060098201546001600160a01b039081166020830152600a8301549081166040830152600160a01b900460ff1615156060820152600b82018054608090920191611f8790615b94565b80601f0160208091040260200160405190810160405280929190818152602001828054611fb390615b94565b80156120005780601f10611fd557610100808354040283529160200191612000565b820191906000526020600020905b815481529060010190602001808311611fe357829003601f168201915b5050509190925250505060e0810184905260408051808201909152600981526818dbdb999a5c9b595960ba1b6020820152610180820152905080600b612047600187615be4565b8154811061205757612057615bf7565b60009182526020918290208351600c90920201908155828201516001820180546001600160a01b039283166001600160a01b0319918216179091556040850151600284018054919093169116179055606083015160038201556080830151600482015560a0830151600582015560c0830151600682015560e0830151805191926120e992600785019290910190615229565b506101008201518051612106916008840191602090910190615229565b506101208201516009820180546001600160a01b0319166001600160a01b03928316179055610140830151600a83018054610160860151929093166001600160a81b031990931692909217600160a01b91151591909102179055610180820151600b8201906121759082615d4d565b5060019695505050505050565b6000811180156121945750600b548111155b6121e05760405162461bcd60e51b815260206004820152601960248201527f5468697320626174746c6520646f65736e27742065786973740000000000000060448201526064016109ad565b33600b6121ee600184615be4565b815481106121fe576121fe615bf7565b600091825260209091206001600c9092020101546001600160a01b0316146122685760405162461bcd60e51b815260206004820152601f60248201527f596f7520617265206e6f742070617274206f66207468697320626174746c650060448201526064016109ad565b6040516818dbdb999a5c9b595960ba1b602082015260290160405160208183030381529060405280519060200120600b6001836122a59190615be4565b815481106122b5576122b5615bf7565b90600052602060002090600c0201600b016040516020016122d69190615c0d565b60405160208183030381529060405280519060200120146123395760405162461bcd60e51b815260206004820152601c60248201527f5468697320626174746c65206973206e6f7420636f6e6669726d65640000000060448201526064016109ad565b600061234482613a4a565b9050806123b95760405162461bcd60e51b815260206004820152602660248201527f536f6d657468696e672077656e742077726f6e6720647572696e67207468652060448201527f626174746c65000000000000000000000000000000000000000000000000000060648201526084016109ad565b6000600b6123c8600185615be4565b815481106123d8576123d8615bf7565b6000918252602091829020604080516101a081018252600c9093029091018054835260018101546001600160a01b0390811684860152600282015416838301526003810154606084015260048101546080840152600581015460a0840152600681015460c08401526007810180548351818702810187019094528084529394919360e08601939283018282801561248e57602002820191906000526020600020905b81548152602001906001019080831161247a575b50505050508152602001600882018054806020026020016040519081016040528092919081815260200182805480156124e657602002820191906000526020600020905b8154815260200190600101908083116124d2575b505050918352505060098201546001600160a01b039081166020830152600a8301549081166040830152600160a01b900460ff1615156060820152600b8201805460809092019161253690615b94565b80601f016020809104026020016040519081016040528092919081815260200182805461256290615b94565b80156125af5780601f10612584576101008083540402835291602001916125af565b820191906000526020600020905b81548152906001019060200180831161259257829003601f168201915b50505050508152505090508061016001511561260657827f89aca0360a8e6579f9b4a53b0406d026b2f7a9e5b0bc133d2c1013f220d696f8836040516125f9911515815260200190565b60405180910390a2505050565b6101208101516001600160a01b03166126875760405162461bcd60e51b815260206004820152603f60248201527f536f6d657468696e672077656e742077726f6e6720647572696e67207468652060448201527f626174746c6520286e6f74206472617720616e64206e6f2077696e6e6572290060648201526084016109ad565b610120810151610140820151604080516001600160a01b0393841681529290911660208301528315159082015283907f73b75fe4a38b6c1172654d3174302c242d6b3d69c0d892d7f27a7934d6d9794a906060016125f9565b6001600160a01b03841661270a57604051632bfa23e760e11b8152600060048201526024016109ad565b6001600160a01b03851661273357604051626a0d4560e21b8152600060048201526024016109ad565b61274085858585856139f7565b5050505050565b3464e8d4a51000146127c15760405162461bcd60e51b815260206004820152602d60248201527f596f75206e65656420746f2070617920302e303030303031206574686572207460448201527f6f206f70656e2061207061636b0000000000000000000000000000000000000060648201526084016109ad565b60006127cb61433e565b905060006127d88261438f565b905060006127e46143d4565b905060006127f182614424565b905060006127ff8483615e0d565b905061274081614461565b600080600b61281a600185615be4565b8154811061282a5761282a615bf7565b6000918252602091829020604080516101a081018252600c9093029091018054835260018101546001600160a01b0390811684860152600282015416838301526003810154606084015260048101546080840152600581015460a0840152600681015460c08401526007810180548351818702810187019094528084529394919360e0860193928301828280156128e057602002820191906000526020600020905b8154815260200190600101908083116128cc575b505050505081526020016008820180548060200260200160405190810160405280929190818152602001828054801561293857602002820191906000526020600020905b815481526020019060010190808311612924575b505050918352505060098201546001600160a01b039081166020830152600a8301549081166040830152600160a01b900460ff1615156060820152600b8201805460809092019161298890615b94565b80601f01602080910402602001604051908101604052809291908181526020018280546129b490615b94565b8015612a015780601f106129d657610100808354040283529160200191612a01565b820191906000526020600020905b8154815290600101906020018083116129e457829003601f168201915b505050505081525050905080602001516001600160a01b03166108fc8260a001519081150290604051600060405180830381858888f19350505050158015612a4d573d6000803e3d6000fd5b506020808201516001600160a01b03166000908152600a82526040808220606085015183529092522054612a8290600161455a565b6020808301516001600160a01b039081166000908152600a8352604080822060608701518352909352828120939093558184015160c0850151925191169282156108fc02929190818181858888f19350505050158015612ae6573d6000803e3d6000fd5b506040808201516001600160a01b03166000908152600a60209081528282206080850151835290522054612b1b90600161455a565b6040808301516001600160a01b03166000908152600a602090815282822060808601518352815290829020929092558051808201909152600881527f63616e63656c65640000000000000000000000000000000000000000000000009181019190915261018082015280600b612b92600186615be4565b81548110612ba257612ba2615bf7565b60009182526020918290208351600c90920201908155828201516001820180546001600160a01b039283166001600160a01b0319918216179091556040850151600284018054919093169116179055606083015160038201556080830151600482015560a0830151600582015560c0830151600682015560e083015180519192612c3492600785019290910190615229565b506101008201518051612c51916008840191602090910190615229565b506101208201516009820180546001600160a01b0319166001600160a01b03928316179055610140830151600a83018054610160860151929093166001600160a81b031990931692909217600160a01b91151591909102179055610180820151600b820190612cc09082615d4d565b50600195945050505050565b600b5460609060009067ffffffffffffffff811115612ced57612ced615316565b604051908082528060200260200182016040528015612daf57816020015b612d9c604051806101a001604052806000815260200160006001600160a01b0316815260200160006001600160a01b0316815260200160008152602001600081526020016000815260200160008152602001606081526020016060815260200160006001600160a01b0316815260200160006001600160a01b03168152602001600015158152602001606081525090565b815260200190600190039081612d0b5790505b5090506000805b600b5481101561307357336001600160a01b0316600b8281548110612ddd57612ddd615bf7565b600091825260209091206001600c9092020101546001600160a01b03161480612e3d5750336001600160a01b0316600b8281548110612e1e57612e1e615bf7565b600091825260209091206002600c9092020101546001600160a01b0316145b1561306157600b8181548110612e5557612e55615bf7565b6000918252602091829020604080516101a081018252600c9093029091018054835260018101546001600160a01b0390811684860152600282015416838301526003810154606084015260048101546080840152600581015460a0840152600681015460c08401526007810180548351818702810187019094528084529394919360e086019392830182828015612f0b57602002820191906000526020600020905b815481526020019060010190808311612ef7575b5050505050815260200160088201805480602002602001604051908101604052809291908181526020018280548015612f6357602002820191906000526020600020905b815481526020019060010190808311612f4f575b505050918352505060098201546001600160a01b039081166020830152600a8301549081166040830152600160a01b900460ff1615156060820152600b82018054608090920191612fb390615b94565b80601f0160208091040260200160405190810160405280929190818152602001828054612fdf90615b94565b801561302c5780601f106130015761010080835404028352916020019161302c565b820191906000526020600020905b81548152906001019060200180831161300f57829003601f168201915b50505050508152505083838151811061304757613047615bf7565b6020026020010181905250818061305d90615c83565b9250505b8061306b81615c83565b915050612db6565b509092915050565b336000908152600a602090815260408083208684529091528120546130a1906001614576565b336000908152600a60209081526040808320888452909152812091909155600b6130cc600186615be4565b815481106130dc576130dc615bf7565b6000918252602091829020604080516101a081018252600c9093029091018054835260018101546001600160a01b0390811684860152600282015416838301526003810154606084015260048101546080840152600581015460a0840152600681015460c08401526007810180548351818702810187019094528084529394919360e08601939283018282801561319257602002820191906000526020600020905b81548152602001906001019080831161317e575b50505050508152602001600882018054806020026020016040519081016040528092919081815260200182805480156131ea57602002820191906000526020600020905b8154815260200190600101908083116131d6575b505050918352505060098201546001600160a01b039081166020830152600a8301549081166040830152600160a01b900460ff1615156060820152600b8201805460809092019161323a90615b94565b80601f016020809104026020016040519081016040528092919081815260200182805461326690615b94565b80156132b35780601f10613288576101008083540402835291602001916132b3565b820191906000526020600020905b81548152906001019060200180831161329657829003601f168201915b50505091909252505033604080840191909152608083018890523460c084015261010083018690528051808201909152600681526577616974503160d01b602082015261018083015250905080600b61330d600187615be4565b8154811061331d5761331d615bf7565b60009182526020918290208351600c90920201908155828201516001820180546001600160a01b039283166001600160a01b0319918216179091556040850151600284018054919093169116179055606083015160038201556080830151600482015560a0830151600582015560c0830151600682015560e0830151805191926133af92600785019290910190615229565b5061010082015180516133cc916008840191602090910190615229565b506101208201516009820180546001600160a01b0319166001600160a01b03928316179055610140830151600a83018054610160860151929093166001600160a81b031990931692909217600160a01b91151591909102179055610180820151600b82019061343b9082615d4d565b506001979650505050505050565b600580546001600160a01b038381166001600160a01b0319831681179093556040519116919082907f8be0079c531659141344cd1fd0a4f28419497f9722a3daafe3b4186f6b6457e090600090a35050565b6001600160a01b0384166134c557604051632bfa23e760e11b8152600060048201526024016109ad565b60408051600180825260208201869052818301908152606082018590526080820190925290610c906000878484876139f7565b6001600160a01b03821661353b576040517fced3e100000000000000000000000000000000000000000000000000000000008152600060048201526024016109ad565b6001600160a01b03838116600081815260016020908152604080832094871680845294825291829020805460ff191686151590811790915591519182527f17307eab39ab6107e8899845ad3d59bd9653f200f220920489ca2b5937696c31910160405180910390a3505050565b606060006135b583614595565b600101905060008167ffffffffffffffff8111156135d5576135d5615316565b6040519080825280601f01601f1916602001820160405280156135ff576020820181803683370190505b5090508181016020015b600019017f3031323334353637383961626364656600000000000000000000000000000000600a86061a8153600a850494508461360957509392505050565b336000908152600a6020908152604080832084845290915281205461366e906001614576565b336000908152600a602090815260408083208684529091528082209290925581516101a08101909252600b5490919081906136aa906001615e0d565b8152336020808301919091526000604080840182905260608401889052608084018290523460a085015260c084018290528051828152808401825260e0850152805182815292830190526101009092019150815260006020808301829052604080840183905260608085018490528151808301835260068152653bb0b4ba281960d11b81850152608095860152600b8054600181018255945285517f0175b7a638427703f0dbe7bb9bbf987a2551717b34e79f33b5b1008d1fa01db9600c909502948501908155868401517f0175b7a638427703f0dbe7bb9bbf987a2551717b34e79f33b5b1008d1fa01dba860180546001600160a01b03199081166001600160a01b0393841617909155938801517f0175b7a638427703f0dbe7bb9bbf987a2551717b34e79f33b5b1008d1fa01dbb870180549095169116179092558501517f0175b7a638427703f0dbe7bb9bbf987a2551717b34e79f33b5b1008d1fa01dbc840155928401517f0175b7a638427703f0dbe7bb9bbf987a2551717b34e79f33b5b1008d1fa01dbd83015560a08401517f0175b7a638427703f0dbe7bb9bbf987a2551717b34e79f33b5b1008d1fa01dbe83015560c08401517f0175b7a638427703f0dbe7bb9bbf987a2551717b34e79f33b5b1008d1fa01dbf83015560e0840151805194955085946138c5937f0175b7a638427703f0dbe7bb9bbf987a2551717b34e79f33b5b1008d1fa01dc001929190910190615229565b5061010082015180516138e2916008840191602090910190615229565b506101208201516009820180546001600160a01b0319166001600160a01b03928316179055610140830151600a83018054610160860151929093166001600160a81b031990931692909217600160a01b91151591909102179055610180820151600b8201906139519082615d4d565b5050600b54949350505050565b6001600160a01b03841661398857604051632bfa23e760e11b8152600060048201526024016109ad565b6001600160a01b0385166139b157604051626a0d4560e21b8152600060048201526024016109ad565b604080516001808252602082018690528183019081526060820185905260808201909252906139e387878484876139f7565b50505050505050565b610c0d838383614677565b613a03858585856146df565b6001600160a01b038416156127405782513390600103613a3c5760208481015190840151613a358389898585896146eb565b5050610c90565b610c9081878787878761480f565b600080600b613a5a600185615be4565b81548110613a6a57613a6a615bf7565b6000918252602091829020604080516101a081018252600c9093029091018054835260018101546001600160a01b0390811684860152600282015416838301526003810154606084015260048101546080840152600581015460a0840152600681015460c08401526007810180548351818702810187019094528084529394919360e086019392830182828015613b2057602002820191906000526020600020905b815481526020019060010190808311613b0c575b5050505050815260200160088201805480602002602001604051908101604052809291908181526020018280548015613b7857602002820191906000526020600020905b815481526020019060010190808311613b64575b505050918352505060098201546001600160a01b039081166020830152600a8301549081166040830152600160a01b900460ff1615156060820152600b82018054608090920191613bc890615b94565b80601f0160208091040260200160405190810160405280929190818152602001828054613bf490615b94565b8015613c415780601f10613c1657610100808354040283529160200191613c41565b820191906000526020600020905b815481529060010190602001808311613c2457829003601f168201915b5050509190925250505060e08101516101008201516060830151608084015160a085015160c086015195965093949293919290919060008080805b6003811015613d2b57888181518110613c9757613c97615bf7565b60200260200101518a8281518110613cb157613cb1615bf7565b60200260200101511115613cd15783613cc981615c83565b945050613d19565b888181518110613ce357613ce3615bf7565b60200260200101518a8281518110613cfd57613cfd615bf7565b60200260200101511015613d195782613d1581615c83565b9350505b80613d2381615c83565b915050613c7c565b5081831115613d5d575060208901516001600160a01b039081166101208b015260408a0151166101408a0152856140a7565b81831015613d8e575060408901516001600160a01b039081166101208b015260208a0151166101408a0152846140a7565b60006101208b018190526101408b0181905260016101608c0152604080518082018252600481527f64726177000000000000000000000000000000000000000000000000000000006020808301919091526101808e01919091528c015190516001600160a01b03909116916108fc881502918891818181858888f19350505050158015613e1f573d6000803e3d6000fd5b5089604001516001600160a01b03166108fc859081150290604051600060405180830381858888f19350505050158015613e5d573d6000803e3d6000fd5b5089600b613e6c60018f615be4565b81548110613e7c57613e7c615bf7565b60009182526020918290208351600c90920201908155828201516001820180546001600160a01b039283166001600160a01b0319918216179091556040850151600284018054919093169116179055606083015160038201556080830151600482015560a0830151600582015560c0830151600682015560e083015180519192613f0e92600785019290910190615229565b506101008201518051613f2b916008840191602090910190615229565b506101208201516009820180546001600160a01b0319166001600160a01b03928316179055610140830151600a83018054610160860151929093166001600160a81b031990931692909217600160a01b91151591909102179055610180820151600b820190613f9a9082615d4d565b5050506020808b01516001600160a01b03166000908152600a8252604080822060608e015183529092522054613fd190600161455a565b600a60008c602001516001600160a01b03166001600160a01b0316815260200190815260200160002060008c606001518152602001908152602001600020819055506140656001600a60008d604001516001600160a01b03166001600160a01b0316815260200190815260200160002060008d6080015181526020019081526020016000205461455a90919063ffffffff16565b6040808c01516001600160a01b03166000908152600a60209081528282206080909e015182529c909c52909a20999099555060019a9950505050505050505050565b60408051808201909152600481527f646f6e650000000000000000000000000000000000000000000000000000000060208201526101808b015289600b6140ef60018f615be4565b815481106140ff576140ff615bf7565b60009182526020918290208351600c90920201908155828201516001820180546001600160a01b039283166001600160a01b0319918216179091556040850151600284018054919093169116179055606083015160038201556080830151600482015560a0830151600582015560c0830151600682015560e08301518051919261419192600785019290910190615229565b5061010082015180516141ae916008840191602090910190615229565b506101208201516009820180546001600160a01b0319166001600160a01b03928316179055610140830151600a83018054610160860151929093166001600160a81b031990931692909217600160a01b91151591909102179055610180820151600b82019061421d9082615d4d565b5050506020808b01516001600160a01b03166000908152600a8252604080822060608e01518352909252205461425490600161455a565b600a60008c602001516001600160a01b03166001600160a01b0316815260200190815260200160002060008c606001518152602001908152602001600020819055506142e86001600a60008d604001516001600160a01b03166001600160a01b0316815260200190815260200160002060008d6080015181526020019081526020016000205461455a90919063ffffffff16565b6040808c01516001600160a01b03166000908152600a602090815282822060808f015183529052908120919091556143208686614576565b905061432d8d82846148f8565b9d9c50505050505050505050505050565b604080514260208201526bffffffffffffffffffffffff193360601b169181019190915244605482015260009081906074015b60408051601f19818403018152919052805160209091012092915050565b6000601461439e606484615e36565b10156143ac57506002919050565b60326143b9606484615e36565b10156143c757506001919050565b506000919050565b919050565b60078054600091826143e583615c83565b9091555050600754604080514260208201526bffffffffffffffffffffffff193360601b16918101919091526054810191909152600090607401614371565b6000600260036006546144379190615e4a565b6144419084615e36565b61444c906001615e0d565b614457906003615e5e565b6107f09190615be4565b61447d338260016040518060200160405280600081525061349b565b60008181526008602090815260408083203384529091529020546144a2906001614576565b60008281526008602090815260408083203384529091528120919091555b6000828152600960205260409020548110156145295760008281526009602052604090208054339190839081106144f9576144f9615bf7565b6000918252602090912001546001600160a01b031603614517575050565b8061452181615c83565b9150506144c0565b5060009081526009602090815260408220805460018101825590835291200180546001600160a01b03191633179055565b60008282111561456c5761456c615e75565b611b2a8284615be4565b6000806145838385615e0d565b905083811015611b2a57611b2a615e75565b6000807a184f03e93ff9f4daa797ed6e38ed64bf6a1f01000000000000000083106145de577a184f03e93ff9f4daa797ed6e38ed64bf6a1f010000000000000000830492506040015b6d04ee2d6d415b85acef8100000000831061460a576d04ee2d6d415b85acef8100000000830492506020015b662386f26fc10000831061462857662386f26fc10000830492506010015b6305f5e1008310614640576305f5e100830492506008015b612710831061465457612710830492506004015b60648310614666576064830492506002015b600a83106107f05760010192915050565b6001600160a01b0383166146a057604051626a0d4560e21b8152600060048201526024016109ad565b604080516001808252602082018590528183019081526060820184905260a08201909252600060808201818152919291612740918791859085906139f7565b61094d84848484614e4c565b6001600160a01b0384163b15610c905760405163f23a6e6160e01b81526001600160a01b0385169063f23a6e619061472f9089908990889088908890600401615e8b565b6020604051808303816000875af192505050801561476a575060408051601f3d908101601f1916820190925261476791810190615ece565b60015b6147d3573d808015614798576040519150601f19603f3d011682016040523d82523d6000602084013e61479d565b606091505b5080516000036147cb57604051632bfa23e760e11b81526001600160a01b03861660048201526024016109ad565b805181602001fd5b6001600160e01b0319811663f23a6e6160e01b146139e357604051632bfa23e760e11b81526001600160a01b03861660048201526024016109ad565b6001600160a01b0384163b15610c905760405163bc197c8160e01b81526001600160a01b0385169063bc197c81906148539089908990889088908890600401615eeb565b6020604051808303816000875af192505050801561488e575060408051601f3d908101601f1916820190925261488b91810190615ece565b60015b6148bc573d808015614798576040519150601f19603f3d011682016040523d82523d6000602084013e61479d565b6001600160e01b0319811663bc197c8160e01b146139e357604051632bfa23e760e11b81526001600160a01b03861660048201526024016109ad565b600080600b614908600187615be4565b8154811061491857614918615bf7565b6000918252602091829020604080516101a081018252600c9093029091018054835260018101546001600160a01b0390811684860152600282015416838301526003810154606084015260048101546080840152600581015460a0840152600681015460c08401526007810180548351818702810187019094528084529394919360e0860193928301828280156149ce57602002820191906000526020600020905b8154815260200190600101908083116149ba575b5050505050815260200160088201805480602002602001604051908101604052809291908181526020018280548015614a2657602002820191906000526020600020905b815481526020019060010190808311614a12575b505050918352505060098201546001600160a01b039081166020830152600a8301549081166040830152600160a01b900460ff1615156060820152600b82018054608090920191614a7690615b94565b80601f0160208091040260200160405190810160405280929190818152602001828054614aa290615b94565b8015614aef5780601f10614ac457610100808354040283529160200191614aef565b820191906000526020600020905b815481529060010190602001808311614ad257829003601f168201915b50505050508152505090506000614b1b6064614b15600a88614fa690919063ffffffff16565b90614fde565b90506000805b600086815260096020526040902054811015614bab57600086815260086020908152604080832060099092528220805483919085908110614b6457614b64615bf7565b60009182526020808320909101546001600160a01b031683528201929092526040019020549050614b958382614576565b9250508080614ba390615c83565b915050614b21565b508015614cb4576000614bbe8383614fde565b905060005b600087815260096020526040902054811015614cb157600087815260086020908152604080832060099092528220805483919085908110614c0657614c06615bf7565b60009182526020808320909101546001600160a01b031683528201929092526040018120549150614c378483614fa6565b60008a815260096020526040902080549192509084908110614c5b57614c5b615bf7565b60009182526020822001546040516001600160a01b039091169183156108fc02918491818181858888f19350505050158015614c9b573d6000803e3d6000fd5b5050508080614ca990615c83565b915050614bc3565b50505b6000614cc0878461455a565b6101208501516040519192506001600160a01b03169082156108fc029083906000818181858888f19350505050158015614cfe573d6000803e3d6000fd5b5083600b614d0d60018b615be4565b81548110614d1d57614d1d615bf7565b60009182526020918290208351600c90920201908155828201516001820180546001600160a01b039283166001600160a01b0319918216179091556040850151600284018054919093169116179055606083015160038201556080830151600482015560a0830151600582015560c0830151600682015560e083015180519192614daf92600785019290910190615229565b506101008201518051614dcc916008840191602090910190615229565b506101208201516009820180546001600160a01b0319166001600160a01b03928316179055610140830151600a83018054610160860151929093166001600160a81b031990931692909217600160a01b91151591909102179055610180820151600b820190614e3b9082615d4d565b5060019a9950505050505050505050565b614e5884848484614ff3565b6001600160a01b038416614f0b576000805b8351811015614ef1576000838281518110614e8757614e87615bf7565b602002602001015190508060036000878581518110614ea857614ea8615bf7565b602002602001015181526020019081526020016000206000828254614ecd9190615e0d565b90915550614edd90508184615e0d565b92505080614eea90615c83565b9050614e6a565b508060046000828254614f049190615e0d565b9091555050505b6001600160a01b03831661094d576000805b8351811015614f95576000838281518110614f3a57614f3a615bf7565b602002602001015190508060036000878581518110614f5b57614f5b615bf7565b602002602001015181526020019081526020016000206000828254039250508190555080830192505080614f8e90615c83565b9050614f1d565b506004805491909103905550505050565b600082600003614fb8575060006107f0565b6000614fc48385615e5e565b905082614fd18583615e4a565b14611b2a57611b2a615e75565b600080614feb8385615e4a565b949350505050565b80518251146150225781518151604051635b05999160e01b8152600481019290925260248201526044016109ad565b3360005b835181101561514a576020818102858101820151908501909101516001600160a01b038816156150f2576000828152602081815260408083206001600160a01b038c168452909152902054818110156150cb576040517f03dee4c50000000000000000000000000000000000000000000000000000000081526001600160a01b038a1660048201526024810182905260448101839052606481018490526084016109ad565b6000838152602081815260408083206001600160a01b038d16845290915290209082900390555b6001600160a01b03871615615137576000828152602081815260408083206001600160a01b038b16845290915281208054839290615131908490615e0d565b90915550505b50508061514390615c83565b9050615026565b5082516001036151cb5760208301516000906020840151909150856001600160a01b0316876001600160a01b0316846001600160a01b03167fc3d58168c5ae7397731d063d5bbf3d657854427343f4c083240f7aacaa2d0f6285856040516151bc929190918252602082015260400190565b60405180910390a45050612740565b836001600160a01b0316856001600160a01b0316826001600160a01b03167f4a39dc06d4c0dbc64b70af90fd698a233a518aa5d07e595d983b8c0526c8f7fb868660405161521a929190615f49565b60405180910390a45050505050565b828054828255906000526020600020908101928215615264579160200282015b82811115615264578251825591602001919060010190615249565b50615270929150615274565b5090565b5b808211156152705760008155600101615275565b60006020828403121561529b57600080fd5b5035919050565b80356001600160a01b03811681146143cf57600080fd5b600080604083850312156152cc57600080fd5b6152d5836152a2565b946020939093013593505050565b6001600160e01b0319811681146108a257600080fd5b60006020828403121561530b57600080fd5b8135611b2a816152e3565b634e487b7160e01b600052604160045260246000fd5b604051601f8201601f1916810167ffffffffffffffff8111828210171561535557615355615316565b604052919050565b600067ffffffffffffffff83111561537757615377615316565b61538a601f8401601f191660200161532c565b905082815283838301111561539e57600080fd5b828260208301376000602084830101529392505050565b6000602082840312156153c757600080fd5b813567ffffffffffffffff8111156153de57600080fd5b8201601f810184136153ef57600080fd5b614feb8482356020840161535d565b60005b83811015615419578181015183820152602001615401565b50506000910152565b6000815180845261543a8160208601602086016153fe565b601f01601f19169290920160200192915050565b602081526000611b2a6020830184615422565b600067ffffffffffffffff82111561547b5761547b615316565b5060051b60200190565b600082601f83011261549657600080fd5b813560206154ab6154a683615461565b61532c565b82815260059290921b840181019181810190868411156154ca57600080fd5b8286015b848110156154e557803583529183019183016154ce565b509695505050505050565b600082601f83011261550157600080fd5b611b2a8383356020850161535d565b6000806000806080858703121561552657600080fd5b61552f856152a2565b9350602085013567ffffffffffffffff8082111561554c57600080fd5b61555888838901615485565b9450604087013591508082111561556e57600080fd5b61557a88838901615485565b9350606087013591508082111561559057600080fd5b5061559d878288016154f0565b91505092959194509250565b600080604083850312156155bc57600080fd5b82359150602083013567ffffffffffffffff8111156155da57600080fd5b6155e685828601615485565b9150509250929050565b600080600080600060a0868803121561560857600080fd5b615611866152a2565b945061561f602087016152a2565b9350604086013567ffffffffffffffff8082111561563c57600080fd5b61564889838a01615485565b9450606088013591508082111561565e57600080fd5b61566a89838a01615485565b9350608088013591508082111561568057600080fd5b5061568d888289016154f0565b9150509295509295909350565b600080604083850312156156ad57600080fd5b50508035926020909101359150565b600080604083850312156156cf57600080fd5b823567ffffffffffffffff808211156156e757600080fd5b818501915085601f8301126156fb57600080fd5b8135602061570b6154a683615461565b82815260059290921b8401810191818101908984111561572a57600080fd5b948201945b8386101561574f57615740866152a2565b8252948201949082019061572f565b9650508601359250508082111561576557600080fd5b506155e685828601615485565b600081518084526020808501945080840160005b838110156157a257815187529582019590820190600101615786565b509495945050505050565b602081526000611b2a6020830184615772565b60006101a08251845260208301516157e360208601826001600160a01b03169052565b5060408301516157fe60408601826001600160a01b03169052565b50606083015160608501526080830151608085015260a083015160a085015260c083015160c085015260e08301518160e086015261583e82860182615772565b91505061010080840151858303828701526158598382615772565b9250505061012080840151615878828701826001600160a01b03169052565b5050610140838101516001600160a01b0316908501526101608084015115159085015261018080840151858303828701526158b38382615422565b9695505050505050565b6000602080830181845280855180835260408601915060408160051b870101925083870160005b8281101561591257603f198886030184526159008583516157c0565b945092850192908501906001016158e4565b5092979650505050505050565b60006101608d83526001600160a01b03808e166020850152808d1660408501528b60608501528a60808501528960a08501528860c085015280881660e0850152808716610100850152508415156101208401528061014084015261598581840185615422565b9e9d5050505050505050505050505050565b6000806000606084860312156159ac57600080fd5b8335925060208401359150604084013567ffffffffffffffff8111156159d157600080fd5b6159dd86828701615485565b9150509250925092565b602081526000611b2a60208301846157c0565b60008060008060808587031215615a1057600080fd5b615a19856152a2565b93506020850135925060408501359150606085013567ffffffffffffffff811115615a4357600080fd5b61559d878288016154f0565b600060208284031215615a6157600080fd5b611b2a826152a2565b60008060408385031215615a7d57600080fd5b615a86836152a2565b915060208301358015158114615a9b57600080fd5b809150509250929050565b60008060408385031215615ab957600080fd5b82359150615ac9602084016152a2565b90509250929050565b60008060408385031215615ae557600080fd5b615aee836152a2565b9150615ac9602084016152a2565b600080600080600060a08688031215615b1457600080fd5b615b1d866152a2565b9450615b2b602087016152a2565b93506040860135925060608601359150608086013567ffffffffffffffff811115615b5557600080fd5b61568d888289016154f0565b600080600060608486031215615b7657600080fd5b615b7f846152a2565b95602085013595506040909401359392505050565b600181811c90821680615ba857607f821691505b602082108103615bc857634e487b7160e01b600052602260045260246000fd5b50919050565b634e487b7160e01b600052601160045260246000fd5b818103818111156107f0576107f0615bce565b634e487b7160e01b600052603260045260246000fd5b6000808354615c1b81615b94565b60018281168015615c335760018114615c4857615c77565b60ff1984168752821515830287019450615c77565b8760005260208060002060005b85811015615c6e5781548a820152908401908201615c55565b50505082870194505b50929695505050505050565b600060018201615c9557615c95615bce565b5060010190565b7f687474703a2f2f35312e33382e3139302e3133343a313135362f6170692f636181527f7264732f00000000000000000000000000000000000000000000000000000000602082015260008251615cfa8160248501602087016153fe565b9190910160240192915050565b601f821115610c0d57600081815260208120601f850160051c81016020861015615d2e5750805b601f850160051c820191505b81811015610c9057828155600101615d3a565b815167ffffffffffffffff811115615d6757615d67615316565b615d7b81615d758454615b94565b84615d07565b602080601f831160018114615db05760008415615d985750858301515b600019600386901b1c1916600185901b178555610c90565b600085815260208120601f198616915b82811015615ddf57888601518255948401946001909101908401615dc0565b5085821015615dfd5787850151600019600388901b60f8161c191681555b5050505050600190811b01905550565b808201808211156107f0576107f0615bce565b634e487b7160e01b600052601260045260246000fd5b600082615e4557615e45615e20565b500690565b600082615e5957615e59615e20565b500490565b80820281158282048414176107f0576107f0615bce565b634e487b7160e01b600052600160045260246000fd5b60006001600160a01b03808816835280871660208401525084604083015283606083015260a06080830152615ec360a0830184615422565b979650505050505050565b600060208284031215615ee057600080fd5b8151611b2a816152e3565b60006001600160a01b03808816835280871660208401525060a06040830152615f1760a0830186615772565b8281036060840152615f298186615772565b90508281036080840152615f3d8185615422565b98975050505050505050565b604081526000615f5c6040830185615772565b8281036020840152615f6e8185615772565b9594505050505056fea26469706673582212201b99f9dba3dd44ce4b12fc31754787efbdfb8ad5abafc1339cd6e82e3368347e64736f6c63430008140033687474703a2f2f35312e33382e3139302e3133343a313135352f63617264732f7b69647d2e6a736f6e","opcodes":"PUSH1 0x80 PUSH1 0x40 MSTORE PUSH1 0x9 PUSH1 0x6 SSTORE PUSH1 0x0 PUSH1 0x7 SSTORE CALLVALUE DUP1 ISZERO PUSH3 0x1B JUMPI PUSH1 0x0 DUP1 REVERT JUMPDEST POP CALLER PUSH1 0x40 MLOAD DUP1 PUSH1 0x60 ADD PUSH1 0x40 MSTORE DUP1 PUSH1 0x29 DUP2 MSTORE PUSH1 0x20 ADD PUSH3 0x6216 PUSH1 0x29 SWAP2 CODECOPY PUSH3 0x42 DUP2 PUSH3 0x84 JUMP JUMPDEST POP PUSH1 0x1 PUSH1 0x1 PUSH1 0xA0 SHL SUB DUP2 AND PUSH3 0x72 JUMPI PUSH1 0x40 MLOAD PUSH4 0x1E4FBDF7 PUSH1 0xE0 SHL DUP2 MSTORE PUSH1 0x0 PUSH1 0x4 DUP3 ADD MSTORE PUSH1 0x24 ADD PUSH1 0x40 MLOAD DUP1 SWAP2 SUB SWAP1 REVERT JUMPDEST PUSH3 0x7D DUP2 PUSH3 0x96 JUMP JUMPDEST POP PUSH3 0x259 JUMP JUMPDEST PUSH1 0x2 PUSH3 0x92 DUP3 DUP3 PUSH3 0x18D JUMP JUMPDEST POP POP JUMP JUMPDEST PUSH1 0x5 DUP1 SLOAD PUSH1 0x1 PUSH1 0x1 PUSH1 0xA0 SHL SUB DUP4 DUP2 AND PUSH1 0x1 PUSH1 0x1 PUSH1 0xA0 SHL SUB NOT DUP4 AND DUP2 OR SWAP1 SWAP4 SSTORE PUSH1 0x40 MLOAD SWAP2 AND SWAP2 SWAP1 DUP3 SWAP1 PUSH32 0x8BE0079C531659141344CD1FD0A4F28419497F9722A3DAAFE3B4186F6B6457E0 SWAP1 PUSH1 0x0 SWAP1 LOG3 POP POP JUMP JUMPDEST PUSH4 0x4E487B71 PUSH1 0xE0 SHL PUSH1 0x0 MSTORE PUSH1 0x41 PUSH1 0x4 MSTORE PUSH1 0x24 PUSH1 0x0 REVERT JUMPDEST PUSH1 0x1 DUP2 DUP2 SHR SWAP1 DUP3 AND DUP1 PUSH3 0x113 JUMPI PUSH1 0x7F DUP3 AND SWAP2 POP JUMPDEST PUSH1 0x20 DUP3 LT DUP2 SUB PUSH3 0x134 JUMPI PUSH4 0x4E487B71 PUSH1 0xE0 SHL PUSH1 0x0 MSTORE PUSH1 0x22 PUSH1 0x4 MSTORE PUSH1 0x24 PUSH1 0x0 REVERT JUMPDEST POP SWAP2 SWAP1 POP JUMP JUMPDEST PUSH1 0x1F DUP3 GT ISZERO PUSH3 0x188 JUMPI PUSH1 0x0 DUP2 DUP2 MSTORE PUSH1 0x20 DUP2 KECCAK256 PUSH1 0x1F DUP6 ADD PUSH1 0x5 SHR DUP2 ADD PUSH1 0x20 DUP7 LT ISZERO PUSH3 0x163 JUMPI POP DUP1 JUMPDEST PUSH1 0x1F DUP6 ADD PUSH1 0x5 SHR DUP3 ADD SWAP2 POP JUMPDEST DUP2 DUP2 LT ISZERO PUSH3 0x184 JUMPI DUP3 DUP2 SSTORE PUSH1 0x1 ADD PUSH3 0x16F JUMP JUMPDEST POP POP POP JUMPDEST POP POP POP JUMP JUMPDEST DUP2 MLOAD PUSH1 0x1 PUSH1 0x1 PUSH1 0x40 SHL SUB DUP2 GT ISZERO PUSH3 0x1A9 JUMPI PUSH3 0x1A9 PUSH3 0xE8 JUMP JUMPDEST PUSH3 0x1C1 DUP2 PUSH3 0x1BA DUP5 SLOAD PUSH3 0xFE JUMP JUMPDEST DUP5 PUSH3 0x13A JUMP JUMPDEST PUSH1 0x20 DUP1 PUSH1 0x1F DUP4 GT PUSH1 0x1 DUP2 EQ PUSH3 0x1F9 JUMPI PUSH1 0x0 DUP5 ISZERO PUSH3 0x1E0 JUMPI POP DUP6 DUP4 ADD MLOAD JUMPDEST PUSH1 0x0 NOT PUSH1 0x3 DUP7 SWAP1 SHL SHR NOT AND PUSH1 0x1 DUP6 SWAP1 SHL OR DUP6 SSTORE PUSH3 0x184 JUMP JUMPDEST PUSH1 0x0 DUP6 DUP2 MSTORE PUSH1 0x20 DUP2 KECCAK256 PUSH1 0x1F NOT DUP7 AND SWAP2 JUMPDEST DUP3 DUP2 LT ISZERO PUSH3 0x22A JUMPI DUP9 DUP7 ADD MLOAD DUP3 SSTORE SWAP5 DUP5 ADD SWAP5 PUSH1 0x1 SWAP1 SWAP2 ADD SWAP1 DUP5 ADD PUSH3 0x209 JUMP JUMPDEST POP DUP6 DUP3 LT ISZERO PUSH3 0x249 JUMPI DUP8 DUP6 ADD MLOAD PUSH1 0x0 NOT PUSH1 0x3 DUP9 SWAP1 SHL PUSH1 0xF8 AND SHR NOT AND DUP2 SSTORE JUMPDEST POP POP POP POP POP PUSH1 0x1 SWAP1 DUP2 SHL ADD SWAP1 SSTORE POP JUMP JUMPDEST PUSH2 0x5FAD DUP1 PUSH3 0x269 PUSH1 0x0 CODECOPY PUSH1 0x0 RETURN INVALID PUSH1 0x80 PUSH1 0x40 MSTORE PUSH1 0x4 CALLDATASIZE LT PUSH2 0x268 JUMPI PUSH1 0x0 CALLDATALOAD PUSH1 0xE0 SHR DUP1 PUSH4 0x6DD0CE7A GT PUSH2 0x153 JUMPI DUP1 PUSH4 0xBD85B039 GT PUSH2 0xCB JUMPI DUP1 PUSH4 0xEFEFB0DD GT PUSH2 0x7F JUMPI DUP1 PUSH4 0xF242432A GT PUSH2 0x64 JUMPI DUP1 PUSH4 0xF242432A EQ PUSH2 0x72B JUMPI DUP1 PUSH4 0xF2FDE38B EQ PUSH2 0x74B JUMPI DUP1 PUSH4 0xF5298ACA EQ PUSH2 0x76B JUMPI PUSH1 0x0 DUP1 REVERT JUMPDEST DUP1 PUSH4 0xEFEFB0DD EQ PUSH2 0x6E0 JUMPI DUP1 PUSH4 0xF1632CD1 EQ PUSH2 0x718 JUMPI PUSH1 0x0 DUP1 REVERT JUMPDEST DUP1 PUSH4 0xC87B56DD GT PUSH2 0xB0 JUMPI DUP1 PUSH4 0xC87B56DD EQ PUSH2 0x63F JUMPI DUP1 PUSH4 0xE985E9C5 EQ PUSH2 0x65F JUMPI DUP1 PUSH4 0xE9994267 EQ PUSH2 0x6A8 JUMPI PUSH1 0x0 DUP1 REVERT JUMPDEST DUP1 PUSH4 0xBD85B039 EQ PUSH2 0x5F2 JUMPI DUP1 PUSH4 0xBFA0AF6D EQ PUSH2 0x61F JUMPI PUSH1 0x0 DUP1 REVERT JUMPDEST DUP1 PUSH4 0x8DA7722A GT PUSH2 0x122 JUMPI DUP1 PUSH4 0xA22CB465 GT PUSH2 0x107 JUMPI DUP1 PUSH4 0xA22CB465 EQ PUSH2 0x5A7 JUMPI DUP1 PUSH4 0xAFFED0E0 EQ PUSH2 0x5C7 JUMPI DUP1 PUSH4 0xB24A97C3 EQ PUSH2 0x5DD JUMPI PUSH1 0x0 DUP1 REVERT JUMPDEST DUP1 PUSH4 0x8DA7722A EQ PUSH2 0x571 JUMPI DUP1 PUSH4 0x9347FB3D EQ PUSH2 0x587 JUMPI PUSH1 0x0 DUP1 REVERT JUMPDEST DUP1 PUSH4 0x6DD0CE7A EQ PUSH2 0x4F1 JUMPI DUP1 PUSH4 0x715018A6 EQ PUSH2 0x51E JUMPI DUP1 PUSH4 0x731133E9 EQ PUSH2 0x533 JUMPI DUP1 PUSH4 0x8DA5CB5B EQ PUSH2 0x553 JUMPI PUSH1 0x0 DUP1 REVERT JUMPDEST DUP1 PUSH4 0x34303187 GT PUSH2 0x1E6 JUMPI DUP1 PUSH4 0x4E1273F4 GT PUSH2 0x1B5 JUMPI DUP1 PUSH4 0x4F558E79 GT PUSH2 0x19A JUMPI DUP1 PUSH4 0x4F558E79 EQ PUSH2 0x478 JUMPI DUP1 PUSH4 0x606D2E96 EQ PUSH2 0x4A7 JUMPI DUP1 PUSH4 0x65A41521 EQ PUSH2 0x4DE JUMPI PUSH1 0x0 DUP1 REVERT JUMPDEST DUP1 PUSH4 0x4E1273F4 EQ PUSH2 0x429 JUMPI DUP1 PUSH4 0x4F1B92FB EQ PUSH2 0x456 JUMPI PUSH1 0x0 DUP1 REVERT JUMPDEST DUP1 PUSH4 0x34303187 EQ PUSH2 0x3B4 JUMPI DUP1 PUSH4 0x3C4EA385 EQ PUSH2 0x3EC JUMPI DUP1 PUSH4 0x4673F332 EQ PUSH2 0x3F4 JUMPI DUP1 PUSH4 0x4C4C447E EQ PUSH2 0x409 JUMPI PUSH1 0x0 DUP1 REVERT JUMPDEST DUP1 PUSH4 0xE89341C GT PUSH2 0x23D JUMPI DUP1 PUSH4 0x1F7FDFFA GT PUSH2 0x222 JUMPI DUP1 PUSH4 0x1F7FDFFA EQ PUSH2 0x354 JUMPI DUP1 PUSH4 0x27343190 EQ PUSH2 0x374 JUMPI DUP1 PUSH4 0x2EB2C2D6 EQ PUSH2 0x394 JUMPI PUSH1 0x0 DUP1 REVERT JUMPDEST DUP1 PUSH4 0xE89341C EQ PUSH2 0x312 JUMPI DUP1 PUSH4 0x18160DDD EQ PUSH2 0x33F JUMPI PUSH1 0x0 DUP1 REVERT JUMPDEST DUP1 PUSH3 0x66FD0D EQ PUSH2 0x26D JUMPI DUP1 PUSH3 0xFDD58E EQ PUSH2 0x28F JUMPI DUP1 PUSH4 0x1FFC9A7 EQ PUSH2 0x2C2 JUMPI DUP1 PUSH4 0x2FE5305 EQ PUSH2 0x2F2 JUMPI JUMPDEST PUSH1 0x0 DUP1 REVERT JUMPDEST CALLVALUE DUP1 ISZERO PUSH2 0x279 JUMPI PUSH1 0x0 DUP1 REVERT JUMPDEST POP PUSH2 0x28D PUSH2 0x288 CALLDATASIZE PUSH1 0x4 PUSH2 0x5289 JUMP JUMPDEST PUSH2 0x78B JUMP JUMPDEST STOP JUMPDEST CALLVALUE DUP1 ISZERO PUSH2 0x29B JUMPI PUSH1 0x0 DUP1 REVERT JUMPDEST POP PUSH2 0x2AF PUSH2 0x2AA CALLDATASIZE PUSH1 0x4 PUSH2 0x52B9 JUMP JUMPDEST PUSH2 0x7CE JUMP JUMPDEST PUSH1 0x40 MLOAD SWAP1 DUP2 MSTORE PUSH1 0x20 ADD JUMPDEST PUSH1 0x40 MLOAD DUP1 SWAP2 SUB SWAP1 RETURN JUMPDEST CALLVALUE DUP1 ISZERO PUSH2 0x2CE JUMPI PUSH1 0x0 DUP1 REVERT JUMPDEST POP PUSH2 0x2E2 PUSH2 0x2DD CALLDATASIZE PUSH1 0x4 PUSH2 0x52F9 JUMP JUMPDEST PUSH2 0x7F6 JUMP JUMPDEST PUSH1 0x40 MLOAD SWAP1 ISZERO ISZERO DUP2 MSTORE PUSH1 0x20 ADD PUSH2 0x2B9 JUMP JUMPDEST CALLVALUE DUP1 ISZERO PUSH2 0x2FE JUMPI PUSH1 0x0 DUP1 REVERT JUMPDEST POP PUSH2 0x28D PUSH2 0x30D CALLDATASIZE PUSH1 0x4 PUSH2 0x53B5 JUMP JUMPDEST PUSH2 0x891 JUMP JUMPDEST CALLVALUE DUP1 ISZERO PUSH2 0x31E JUMPI PUSH1 0x0 DUP1 REVERT JUMPDEST POP PUSH2 0x332 PUSH2 0x32D CALLDATASIZE PUSH1 0x4 PUSH2 0x5289 JUMP JUMPDEST PUSH2 0x8A5 JUMP JUMPDEST PUSH1 0x40 MLOAD PUSH2 0x2B9 SWAP2 SWAP1 PUSH2 0x544E JUMP JUMPDEST CALLVALUE DUP1 ISZERO PUSH2 0x34B JUMPI PUSH1 0x0 DUP1 REVERT JUMPDEST POP PUSH1 0x4 SLOAD PUSH2 0x2AF JUMP JUMPDEST CALLVALUE DUP1 ISZERO PUSH2 0x360 JUMPI PUSH1 0x0 DUP1 REVERT JUMPDEST POP PUSH2 0x28D PUSH2 0x36F CALLDATASIZE PUSH1 0x4 PUSH2 0x5510 JUMP JUMPDEST PUSH2 0x939 JUMP JUMPDEST CALLVALUE DUP1 ISZERO PUSH2 0x380 JUMPI PUSH1 0x0 DUP1 REVERT JUMPDEST POP PUSH2 0x28D PUSH2 0x38F CALLDATASIZE PUSH1 0x4 PUSH2 0x55A9 JUMP JUMPDEST PUSH2 0x953 JUMP JUMPDEST CALLVALUE DUP1 ISZERO PUSH2 0x3A0 JUMPI PUSH1 0x0 DUP1 REVERT JUMPDEST POP PUSH2 0x28D PUSH2 0x3AF CALLDATASIZE PUSH1 0x4 PUSH2 0x55F0 JUMP JUMPDEST PUSH2 0xC12 JUMP JUMPDEST CALLVALUE DUP1 ISZERO PUSH2 0x3C0 JUMPI PUSH1 0x0 DUP1 REVERT JUMPDEST POP PUSH2 0x3D4 PUSH2 0x3CF CALLDATASIZE PUSH1 0x4 PUSH2 0x569A JUMP JUMPDEST PUSH2 0xC98 JUMP JUMPDEST PUSH1 0x40 MLOAD PUSH1 0x1 PUSH1 0x1 PUSH1 0xA0 SHL SUB SWAP1 SWAP2 AND DUP2 MSTORE PUSH1 0x20 ADD PUSH2 0x2B9 JUMP JUMPDEST PUSH2 0x28D PUSH2 0xCD0 JUMP JUMPDEST CALLVALUE DUP1 ISZERO PUSH2 0x400 JUMPI PUSH1 0x0 DUP1 REVERT JUMPDEST POP PUSH1 0x6 SLOAD PUSH2 0x2AF JUMP JUMPDEST CALLVALUE DUP1 ISZERO PUSH2 0x415 JUMPI PUSH1 0x0 DUP1 REVERT JUMPDEST POP PUSH2 0x28D PUSH2 0x424 CALLDATASIZE PUSH1 0x4 PUSH2 0x5289 JUMP JUMPDEST PUSH2 0xCDA JUMP JUMPDEST CALLVALUE DUP1 ISZERO PUSH2 0x435 JUMPI PUSH1 0x0 DUP1 REVERT JUMPDEST POP PUSH2 0x449 PUSH2 0x444 CALLDATASIZE PUSH1 0x4 PUSH2 0x56BC JUMP JUMPDEST PUSH2 0xFC1 JUMP JUMPDEST PUSH1 0x40 MLOAD PUSH2 0x2B9 SWAP2 SWAP1 PUSH2 0x57AD JUMP JUMPDEST CALLVALUE DUP1 ISZERO PUSH2 0x462 JUMPI PUSH1 0x0 DUP1 REVERT JUMPDEST POP PUSH2 0x46B PUSH2 0x1096 JUMP JUMPDEST PUSH1 0x40 MLOAD PUSH2 0x2B9 SWAP2 SWAP1 PUSH2 0x58BD JUMP JUMPDEST CALLVALUE DUP1 ISZERO PUSH2 0x484 JUMPI PUSH1 0x0 DUP1 REVERT JUMPDEST POP PUSH2 0x2E2 PUSH2 0x493 CALLDATASIZE PUSH1 0x4 PUSH2 0x5289 JUMP JUMPDEST PUSH1 0x0 SWAP1 DUP2 MSTORE PUSH1 0x3 PUSH1 0x20 MSTORE PUSH1 0x40 SWAP1 KECCAK256 SLOAD ISZERO ISZERO SWAP1 JUMP JUMPDEST CALLVALUE DUP1 ISZERO PUSH2 0x4B3 JUMPI PUSH1 0x0 DUP1 REVERT JUMPDEST POP PUSH2 0x4C7 PUSH2 0x4C2 CALLDATASIZE PUSH1 0x4 PUSH2 0x5289 JUMP JUMPDEST PUSH2 0x10A5 JUMP JUMPDEST PUSH1 0x40 MLOAD PUSH2 0x2B9 SWAP12 SWAP11 SWAP10 SWAP9 SWAP8 SWAP7 SWAP6 SWAP5 SWAP4 SWAP3 SWAP2 SWAP1 PUSH2 0x591F JUMP JUMPDEST PUSH2 0x28D PUSH2 0x4EC CALLDATASIZE PUSH1 0x4 PUSH2 0x5997 JUMP JUMPDEST PUSH2 0x11B1 JUMP JUMPDEST CALLVALUE DUP1 ISZERO PUSH2 0x4FD JUMPI PUSH1 0x0 DUP1 REVERT JUMPDEST POP PUSH2 0x511 PUSH2 0x50C CALLDATASIZE PUSH1 0x4 PUSH2 0x5289 JUMP JUMPDEST PUSH2 0x1522 JUMP JUMPDEST PUSH1 0x40 MLOAD PUSH2 0x2B9 SWAP2 SWAP1 PUSH2 0x59E7 JUMP JUMPDEST CALLVALUE DUP1 ISZERO PUSH2 0x52A JUMPI PUSH1 0x0 DUP1 REVERT JUMPDEST POP PUSH2 0x28D PUSH2 0x1815 JUMP JUMPDEST CALLVALUE DUP1 ISZERO PUSH2 0x53F JUMPI PUSH1 0x0 DUP1 REVERT JUMPDEST POP PUSH2 0x28D PUSH2 0x54E CALLDATASIZE PUSH1 0x4 PUSH2 0x59FA JUMP JUMPDEST PUSH2 0x1827 JUMP JUMPDEST CALLVALUE DUP1 ISZERO PUSH2 0x55F JUMPI PUSH1 0x0 DUP1 REVERT JUMPDEST POP PUSH1 0x5 SLOAD PUSH1 0x1 PUSH1 0x1 PUSH1 0xA0 SHL SUB AND PUSH2 0x3D4 JUMP JUMPDEST CALLVALUE DUP1 ISZERO PUSH2 0x57D JUMPI PUSH1 0x0 DUP1 REVERT JUMPDEST POP PUSH2 0x2AF PUSH1 0x6 SLOAD DUP2 JUMP JUMPDEST CALLVALUE DUP1 ISZERO PUSH2 0x593 JUMPI PUSH1 0x0 DUP1 REVERT JUMPDEST POP PUSH2 0x449 PUSH2 0x5A2 CALLDATASIZE PUSH1 0x4 PUSH2 0x5A4F JUMP JUMPDEST PUSH2 0x183B JUMP JUMPDEST CALLVALUE DUP1 ISZERO PUSH2 0x5B3 JUMPI PUSH1 0x0 DUP1 REVERT JUMPDEST POP PUSH2 0x28D PUSH2 0x5C2 CALLDATASIZE PUSH1 0x4 PUSH2 0x5A6A JUMP JUMPDEST PUSH2 0x18F0 JUMP JUMPDEST CALLVALUE DUP1 ISZERO PUSH2 0x5D3 JUMPI PUSH1 0x0 DUP1 REVERT JUMPDEST POP PUSH2 0x2AF PUSH1 0x7 SLOAD DUP2 JUMP JUMPDEST CALLVALUE DUP1 ISZERO PUSH2 0x5E9 JUMPI PUSH1 0x0 DUP1 REVERT JUMPDEST POP PUSH2 0x46B PUSH2 0x18FB JUMP JUMPDEST CALLVALUE DUP1 ISZERO PUSH2 0x5FE JUMPI PUSH1 0x0 DUP1 REVERT JUMPDEST POP PUSH2 0x2AF PUSH2 0x60D CALLDATASIZE PUSH1 0x4 PUSH2 0x5289 JUMP JUMPDEST PUSH1 0x0 SWAP1 DUP2 MSTORE PUSH1 0x3 PUSH1 0x20 MSTORE PUSH1 0x40 SWAP1 KECCAK256 SLOAD SWAP1 JUMP JUMPDEST CALLVALUE DUP1 ISZERO PUSH2 0x62B JUMPI PUSH1 0x0 DUP1 REVERT JUMPDEST POP PUSH2 0x2AF PUSH2 0x63A CALLDATASIZE PUSH1 0x4 PUSH2 0x5AA6 JUMP JUMPDEST PUSH2 0x1B1E JUMP JUMPDEST CALLVALUE DUP1 ISZERO PUSH2 0x64B JUMPI PUSH1 0x0 DUP1 REVERT JUMPDEST POP PUSH2 0x332 PUSH2 0x65A CALLDATASIZE PUSH1 0x4 PUSH2 0x5289 JUMP JUMPDEST PUSH2 0x1B31 JUMP JUMPDEST CALLVALUE DUP1 ISZERO PUSH2 0x66B JUMPI PUSH1 0x0 DUP1 REVERT JUMPDEST POP PUSH2 0x2E2 PUSH2 0x67A CALLDATASIZE PUSH1 0x4 PUSH2 0x5AD2 JUMP JUMPDEST PUSH1 0x1 PUSH1 0x1 PUSH1 0xA0 SHL SUB SWAP2 DUP3 AND PUSH1 0x0 SWAP1 DUP2 MSTORE PUSH1 0x1 PUSH1 0x20 SWAP1 DUP2 MSTORE PUSH1 0x40 DUP1 DUP4 KECCAK256 SWAP4 SWAP1 SWAP5 AND DUP3 MSTORE SWAP2 SWAP1 SWAP2 MSTORE KECCAK256 SLOAD PUSH1 0xFF AND SWAP1 JUMP JUMPDEST CALLVALUE DUP1 ISZERO PUSH2 0x6B4 JUMPI PUSH1 0x0 DUP1 REVERT JUMPDEST POP PUSH2 0x2AF PUSH2 0x6C3 CALLDATASIZE PUSH1 0x4 PUSH2 0x5AA6 JUMP JUMPDEST PUSH1 0x8 PUSH1 0x20 SWAP1 DUP2 MSTORE PUSH1 0x0 SWAP3 DUP4 MSTORE PUSH1 0x40 DUP1 DUP5 KECCAK256 SWAP1 SWAP2 MSTORE SWAP1 DUP3 MSTORE SWAP1 KECCAK256 SLOAD DUP2 JUMP JUMPDEST CALLVALUE DUP1 ISZERO PUSH2 0x6EC JUMPI PUSH1 0x0 DUP1 REVERT JUMPDEST POP PUSH2 0x2AF PUSH2 0x6FB CALLDATASIZE PUSH1 0x4 PUSH2 0x52B9 JUMP JUMPDEST PUSH1 0xA PUSH1 0x20 SWAP1 DUP2 MSTORE PUSH1 0x0 SWAP3 DUP4 MSTORE PUSH1 0x40 DUP1 DUP5 KECCAK256 SWAP1 SWAP2 MSTORE SWAP1 DUP3 MSTORE SWAP1 KECCAK256 SLOAD DUP2 JUMP JUMPDEST PUSH2 0x28D PUSH2 0x726 CALLDATASIZE PUSH1 0x4 PUSH2 0x5289 JUMP JUMPDEST PUSH2 0x1B62 JUMP JUMPDEST CALLVALUE DUP1 ISZERO PUSH2 0x737 JUMPI PUSH1 0x0 DUP1 REVERT JUMPDEST POP PUSH2 0x28D PUSH2 0x746 CALLDATASIZE PUSH1 0x4 PUSH2 0x5AFC JUMP JUMPDEST PUSH2 0x1CA2 JUMP JUMPDEST CALLVALUE DUP1 ISZERO PUSH2 0x757 JUMPI PUSH1 0x0 DUP1 REVERT JUMPDEST POP PUSH2 0x28D PUSH2 0x766 CALLDATASIZE PUSH1 0x4 PUSH2 0x5A4F JUMP JUMPDEST PUSH2 0x1D20 JUMP JUMPDEST CALLVALUE DUP1 ISZERO PUSH2 0x777 JUMPI PUSH1 0x0 DUP1 REVERT JUMPDEST POP PUSH2 0x28D PUSH2 0x786 CALLDATASIZE PUSH1 0x4 PUSH2 0x5B61 JUMP JUMPDEST PUSH2 0x1D74 JUMP JUMPDEST PUSH2 0x793 PUSH2 0x1D7F JUMP JUMPDEST PUSH1 0x6 DUP2 SWAP1 SSTORE PUSH1 0x40 MLOAD DUP2 DUP2 MSTORE PUSH32 0x2CA7491C41B198F60823C9DA02CA440DCA6BFB5D6CD4AE0DF705CC35DE252FB3 SWAP1 PUSH1 0x20 ADD PUSH1 0x40 MLOAD DUP1 SWAP2 SUB SWAP1 LOG1 POP JUMP JUMPDEST PUSH1 0x0 DUP2 DUP2 MSTORE PUSH1 0x20 DUP2 DUP2 MSTORE PUSH1 0x40 DUP1 DUP4 KECCAK256 PUSH1 0x1 PUSH1 0x1 PUSH1 0xA0 SHL SUB DUP7 AND DUP5 MSTORE SWAP1 SWAP2 MSTORE SWAP1 KECCAK256 SLOAD JUMPDEST SWAP3 SWAP2 POP POP JUMP JUMPDEST PUSH1 0x0 PUSH1 0x1 PUSH1 0x1 PUSH1 0xE0 SHL SUB NOT DUP3 AND PUSH32 0xD9B67A2600000000000000000000000000000000000000000000000000000000 EQ DUP1 PUSH2 0x859 JUMPI POP PUSH1 0x1 PUSH1 0x1 PUSH1 0xE0 SHL SUB NOT DUP3 AND PUSH32 0xE89341C00000000000000000000000000000000000000000000000000000000 EQ JUMPDEST DUP1 PUSH2 0x7F0 JUMPI POP PUSH32 0x1FFC9A700000000000000000000000000000000000000000000000000000000 PUSH1 0x1 PUSH1 0x1 PUSH1 0xE0 SHL SUB NOT DUP4 AND EQ PUSH2 0x7F0 JUMP JUMPDEST PUSH2 0x899 PUSH2 0x1D7F JUMP JUMPDEST PUSH2 0x8A2 DUP2 PUSH2 0x1DC5 JUMP JUMPDEST POP JUMP JUMPDEST PUSH1 0x60 PUSH1 0x2 DUP1 SLOAD PUSH2 0x8B4 SWAP1 PUSH2 0x5B94 JUMP JUMPDEST DUP1 PUSH1 0x1F ADD PUSH1 0x20 DUP1 SWAP2 DIV MUL PUSH1 0x20 ADD PUSH1 0x40 MLOAD SWAP1 DUP2 ADD PUSH1 0x40 MSTORE DUP1 SWAP3 SWAP2 SWAP1 DUP2 DUP2 MSTORE PUSH1 0x20 ADD DUP3 DUP1 SLOAD PUSH2 0x8E0 SWAP1 PUSH2 0x5B94 JUMP JUMPDEST DUP1 ISZERO PUSH2 0x92D JUMPI DUP1 PUSH1 0x1F LT PUSH2 0x902 JUMPI PUSH2 0x100 DUP1 DUP4 SLOAD DIV MUL DUP4 MSTORE SWAP2 PUSH1 0x20 ADD SWAP2 PUSH2 0x92D JUMP JUMPDEST DUP3 ADD SWAP2 SWAP1 PUSH1 0x0 MSTORE PUSH1 0x20 PUSH1 0x0 KECCAK256 SWAP1 JUMPDEST DUP2 SLOAD DUP2 MSTORE SWAP1 PUSH1 0x1 ADD SWAP1 PUSH1 0x20 ADD DUP1 DUP4 GT PUSH2 0x910 JUMPI DUP3 SWAP1 SUB PUSH1 0x1F AND DUP3 ADD SWAP2 JUMPDEST POP POP POP POP POP SWAP1 POP SWAP2 SWAP1 POP JUMP JUMPDEST PUSH2 0x941 PUSH2 0x1D7F JUMP JUMPDEST PUSH2 0x94D DUP5 DUP5 DUP5 DUP5 PUSH2 0x1DD1 JUMP JUMPDEST POP POP POP POP JUMP JUMPDEST PUSH1 0x0 DUP3 GT DUP1 ISZERO PUSH2 0x965 JUMPI POP PUSH1 0xB SLOAD DUP3 GT ISZERO JUMPDEST PUSH2 0x9B6 JUMPI PUSH1 0x40 MLOAD PUSH3 0x461BCD PUSH1 0xE5 SHL DUP2 MSTORE PUSH1 0x20 PUSH1 0x4 DUP3 ADD MSTORE PUSH1 0x19 PUSH1 0x24 DUP3 ADD MSTORE PUSH32 0x5468697320626174746C6520646F65736E277420657869737400000000000000 PUSH1 0x44 DUP3 ADD MSTORE PUSH1 0x64 ADD JUMPDEST PUSH1 0x40 MLOAD DUP1 SWAP2 SUB SWAP1 REVERT JUMPDEST CALLER PUSH1 0xB PUSH2 0x9C4 PUSH1 0x1 DUP6 PUSH2 0x5BE4 JUMP JUMPDEST DUP2 SLOAD DUP2 LT PUSH2 0x9D4 JUMPI PUSH2 0x9D4 PUSH2 0x5BF7 JUMP JUMPDEST PUSH1 0x0 SWAP2 DUP3 MSTORE PUSH1 0x20 SWAP1 SWAP2 KECCAK256 PUSH1 0x1 PUSH1 0xC SWAP1 SWAP3 MUL ADD ADD SLOAD PUSH1 0x1 PUSH1 0x1 PUSH1 0xA0 SHL SUB AND EQ PUSH2 0xA3E JUMPI PUSH1 0x40 MLOAD PUSH3 0x461BCD PUSH1 0xE5 SHL DUP2 MSTORE PUSH1 0x20 PUSH1 0x4 DUP3 ADD MSTORE PUSH1 0x1F PUSH1 0x24 DUP3 ADD MSTORE PUSH32 0x596F7520617265206E6F742070617274206F66207468697320626174746C6500 PUSH1 0x44 DUP3 ADD MSTORE PUSH1 0x64 ADD PUSH2 0x9AD JUMP JUMPDEST PUSH1 0x40 MLOAD PUSH6 0x776169745031 PUSH1 0xD0 SHL PUSH1 0x20 DUP3 ADD MSTORE PUSH1 0x26 ADD PUSH1 0x40 MLOAD PUSH1 0x20 DUP2 DUP4 SUB SUB DUP2 MSTORE SWAP1 PUSH1 0x40 MSTORE DUP1 MLOAD SWAP1 PUSH1 0x20 ADD KECCAK256 PUSH1 0xB PUSH1 0x1 DUP5 PUSH2 0xA78 SWAP2 SWAP1 PUSH2 0x5BE4 JUMP JUMPDEST DUP2 SLOAD DUP2 LT PUSH2 0xA88 JUMPI PUSH2 0xA88 PUSH2 0x5BF7 JUMP JUMPDEST SWAP1 PUSH1 0x0 MSTORE PUSH1 0x20 PUSH1 0x0 KECCAK256 SWAP1 PUSH1 0xC MUL ADD PUSH1 0xB ADD PUSH1 0x40 MLOAD PUSH1 0x20 ADD PUSH2 0xAA9 SWAP2 SWAP1 PUSH2 0x5C0D JUMP JUMPDEST PUSH1 0x40 MLOAD PUSH1 0x20 DUP2 DUP4 SUB SUB DUP2 MSTORE SWAP1 PUSH1 0x40 MSTORE DUP1 MLOAD SWAP1 PUSH1 0x20 ADD KECCAK256 EQ PUSH2 0xB32 JUMPI PUSH1 0x40 MLOAD PUSH3 0x461BCD PUSH1 0xE5 SHL DUP2 MSTORE PUSH1 0x20 PUSH1 0x4 DUP3 ADD MSTORE PUSH1 0x29 PUSH1 0x24 DUP3 ADD MSTORE PUSH32 0x5468697320626174746C65206973206E6F742077616974696E6720666F722061 PUSH1 0x44 DUP3 ADD MSTORE PUSH32 0x20706C6179657220310000000000000000000000000000000000000000000000 PUSH1 0x64 DUP3 ADD MSTORE PUSH1 0x84 ADD PUSH2 0x9AD JUMP JUMPDEST DUP1 MLOAD PUSH1 0x3 EQ PUSH2 0xB83 JUMPI PUSH1 0x40 MLOAD PUSH3 0x461BCD PUSH1 0xE5 SHL DUP2 MSTORE PUSH1 0x20 PUSH1 0x4 DUP3 ADD MSTORE PUSH1 0x18 PUSH1 0x24 DUP3 ADD MSTORE PUSH32 0x596F75206E65656420746F2073656E6420332073746174730000000000000000 PUSH1 0x44 DUP3 ADD MSTORE PUSH1 0x64 ADD PUSH2 0x9AD JUMP JUMPDEST PUSH1 0x0 PUSH2 0xB8F DUP4 DUP4 PUSH2 0x1E09 JUMP JUMPDEST SWAP1 POP DUP1 PUSH2 0xC04 JUMPI PUSH1 0x40 MLOAD PUSH3 0x461BCD PUSH1 0xE5 SHL DUP2 MSTORE PUSH1 0x20 PUSH1 0x4 DUP3 ADD MSTORE PUSH1 0x33 PUSH1 0x24 DUP3 ADD MSTORE PUSH32 0x536F6D657468696E672077656E742077726F6E6720647572696E672074686520 PUSH1 0x44 DUP3 ADD MSTORE PUSH32 0x626174746C6520636F6E6669726D6174696F6E00000000000000000000000000 PUSH1 0x64 DUP3 ADD MSTORE PUSH1 0x84 ADD PUSH2 0x9AD JUMP JUMPDEST PUSH2 0xC0D DUP4 PUSH2 0x2182 JUMP JUMPDEST POP POP POP JUMP JUMPDEST CALLER PUSH1 0x1 PUSH1 0x1 PUSH1 0xA0 SHL SUB DUP7 AND DUP2 EQ DUP1 ISZERO SWAP1 PUSH2 0xC52 JUMPI POP PUSH1 0x1 PUSH1 0x1 PUSH1 0xA0 SHL SUB DUP1 DUP8 AND PUSH1 0x0 SWAP1 DUP2 MSTORE PUSH1 0x1 PUSH1 0x20 SWAP1 DUP2 MSTORE PUSH1 0x40 DUP1 DUP4 KECCAK256 SWAP4 DUP6 AND DUP4 MSTORE SWAP3 SWAP1 MSTORE KECCAK256 SLOAD PUSH1 0xFF AND ISZERO JUMPDEST ISZERO PUSH2 0xC83 JUMPI PUSH1 0x40 MLOAD PUSH4 0x711BEC91 PUSH1 0xE1 SHL DUP2 MSTORE PUSH1 0x1 PUSH1 0x1 PUSH1 0xA0 SHL SUB DUP1 DUP4 AND PUSH1 0x4 DUP4 ADD MSTORE DUP8 AND PUSH1 0x24 DUP3 ADD MSTORE PUSH1 0x44 ADD PUSH2 0x9AD JUMP JUMPDEST PUSH2 0xC90 DUP7 DUP7 DUP7 DUP7 DUP7 PUSH2 0x26E0 JUMP JUMPDEST POP POP POP POP POP POP JUMP JUMPDEST PUSH1 0x9 PUSH1 0x20 MSTORE DUP2 PUSH1 0x0 MSTORE PUSH1 0x40 PUSH1 0x0 KECCAK256 DUP2 DUP2 SLOAD DUP2 LT PUSH2 0xCB4 JUMPI PUSH1 0x0 DUP1 REVERT JUMPDEST PUSH1 0x0 SWAP2 DUP3 MSTORE PUSH1 0x20 SWAP1 SWAP2 KECCAK256 ADD SLOAD PUSH1 0x1 PUSH1 0x1 PUSH1 0xA0 SHL SUB AND SWAP2 POP DUP3 SWAP1 POP JUMP JUMPDEST PUSH2 0xCD8 PUSH2 0x2747 JUMP JUMPDEST JUMP JUMPDEST PUSH1 0x0 DUP2 GT DUP1 ISZERO PUSH2 0xCEC JUMPI POP PUSH1 0xB SLOAD DUP2 GT ISZERO JUMPDEST PUSH2 0xD38 JUMPI PUSH1 0x40 MLOAD PUSH3 0x461BCD PUSH1 0xE5 SHL DUP2 MSTORE PUSH1 0x20 PUSH1 0x4 DUP3 ADD MSTORE PUSH1 0x19 PUSH1 0x24 DUP3 ADD MSTORE PUSH32 0x5468697320626174746C6520646F65736E277420657869737400000000000000 PUSH1 0x44 DUP3 ADD MSTORE PUSH1 0x64 ADD PUSH2 0x9AD JUMP JUMPDEST CALLER PUSH1 0xB PUSH2 0xD46 PUSH1 0x1 DUP5 PUSH2 0x5BE4 JUMP JUMPDEST DUP2 SLOAD DUP2 LT PUSH2 0xD56 JUMPI PUSH2 0xD56 PUSH2 0x5BF7 JUMP JUMPDEST PUSH1 0x0 SWAP2 DUP3 MSTORE PUSH1 0x20 SWAP1 SWAP2 KECCAK256 PUSH1 0x1 PUSH1 0xC SWAP1 SWAP3 MUL ADD ADD SLOAD PUSH1 0x1 PUSH1 0x1 PUSH1 0xA0 SHL SUB AND EQ PUSH2 0xDC0 JUMPI PUSH1 0x40 MLOAD PUSH3 0x461BCD PUSH1 0xE5 SHL DUP2 MSTORE PUSH1 0x20 PUSH1 0x4 DUP3 ADD MSTORE PUSH1 0x1F PUSH1 0x24 DUP3 ADD MSTORE PUSH32 0x596F7520617265206E6F742070617274206F66207468697320626174746C6500 PUSH1 0x44 DUP3 ADD MSTORE PUSH1 0x64 ADD PUSH2 0x9AD JUMP JUMPDEST PUSH1 0x40 MLOAD PUSH6 0x776169745031 PUSH1 0xD0 SHL PUSH1 0x20 DUP3 ADD MSTORE PUSH1 0x26 ADD PUSH1 0x40 MLOAD PUSH1 0x20 DUP2 DUP4 SUB SUB DUP2 MSTORE SWAP1 PUSH1 0x40 MSTORE DUP1 MLOAD SWAP1 PUSH1 0x20 ADD KECCAK256 PUSH1 0xB PUSH1 0x1 DUP4 PUSH2 0xDFA SWAP2 SWAP1 PUSH2 0x5BE4 JUMP JUMPDEST DUP2 SLOAD DUP2 LT PUSH2 0xE0A JUMPI PUSH2 0xE0A PUSH2 0x5BF7 JUMP JUMPDEST SWAP1 PUSH1 0x0 MSTORE PUSH1 0x20 PUSH1 0x0 KECCAK256 SWAP1 PUSH1 0xC MUL ADD PUSH1 0xB ADD PUSH1 0x40 MLOAD PUSH1 0x20 ADD PUSH2 0xE2B SWAP2 SWAP1 PUSH2 0x5C0D JUMP JUMPDEST PUSH1 0x40 MLOAD PUSH1 0x20 DUP2 DUP4 SUB SUB DUP2 MSTORE SWAP1 PUSH1 0x40 MSTORE DUP1 MLOAD SWAP1 PUSH1 0x20 ADD KECCAK256 EQ DUP1 PUSH2 0xECB JUMPI POP PUSH1 0x40 MLOAD PUSH6 0x3BB0B4BA2819 PUSH1 0xD1 SHL PUSH1 0x20 DUP3 ADD MSTORE PUSH1 0x26 ADD PUSH1 0x40 MLOAD PUSH1 0x20 DUP2 DUP4 SUB SUB DUP2 MSTORE SWAP1 PUSH1 0x40 MSTORE DUP1 MLOAD SWAP1 PUSH1 0x20 ADD KECCAK256 PUSH1 0xB PUSH1 0x1 DUP4 PUSH2 0xE82 SWAP2 SWAP1 PUSH2 0x5BE4 JUMP JUMPDEST DUP2 SLOAD DUP2 LT PUSH2 0xE92 JUMPI PUSH2 0xE92 PUSH2 0x5BF7 JUMP JUMPDEST SWAP1 PUSH1 0x0 MSTORE PUSH1 0x20 PUSH1 0x0 KECCAK256 SWAP1 PUSH1 0xC MUL ADD PUSH1 0xB ADD PUSH1 0x40 MLOAD PUSH1 0x20 ADD PUSH2 0xEB3 SWAP2 SWAP1 PUSH2 0x5C0D JUMP JUMPDEST PUSH1 0x40 MLOAD PUSH1 0x20 DUP2 DUP4 SUB SUB DUP2 MSTORE SWAP1 PUSH1 0x40 MSTORE DUP1 MLOAD SWAP1 PUSH1 0x20 ADD KECCAK256 EQ JUMPDEST PUSH2 0xF3D JUMPI PUSH1 0x40 MLOAD PUSH3 0x461BCD PUSH1 0xE5 SHL DUP2 MSTORE PUSH1 0x20 PUSH1 0x4 DUP3 ADD MSTORE PUSH1 0x35 PUSH1 0x24 DUP3 ADD MSTORE PUSH32 0x43616E742063616E63656C206120626174746C652074686174206973206E6F74 PUSH1 0x44 DUP3 ADD MSTORE PUSH32 0x2077616974696E6720666F72206120706C617965720000000000000000000000 PUSH1 0x64 DUP3 ADD MSTORE PUSH1 0x84 ADD PUSH2 0x9AD JUMP JUMPDEST PUSH1 0x0 PUSH2 0xF48 DUP3 PUSH2 0x280A JUMP JUMPDEST SWAP1 POP DUP1 PUSH2 0xFBD JUMPI PUSH1 0x40 MLOAD PUSH3 0x461BCD PUSH1 0xE5 SHL DUP2 MSTORE PUSH1 0x20 PUSH1 0x4 DUP3 ADD MSTORE PUSH1 0x33 PUSH1 0x24 DUP3 ADD MSTORE PUSH32 0x536F6D657468696E672077656E742077726F6E6720647572696E672074686520 PUSH1 0x44 DUP3 ADD MSTORE PUSH32 0x626174746C652063616E63656C6C6174696F6E00000000000000000000000000 PUSH1 0x64 DUP3 ADD MSTORE PUSH1 0x84 ADD PUSH2 0x9AD JUMP JUMPDEST POP POP JUMP JUMPDEST PUSH1 0x60 DUP2 MLOAD DUP4 MLOAD EQ PUSH2 0xFF2 JUMPI DUP2 MLOAD DUP4 MLOAD PUSH1 0x40 MLOAD PUSH4 0x5B059991 PUSH1 0xE0 SHL DUP2 MSTORE PUSH1 0x4 DUP2 ADD SWAP3 SWAP1 SWAP3 MSTORE PUSH1 0x24 DUP3 ADD MSTORE PUSH1 0x44 ADD PUSH2 0x9AD JUMP JUMPDEST PUSH1 0x0 DUP4 MLOAD PUSH8 0xFFFFFFFFFFFFFFFF DUP2 GT ISZERO PUSH2 0x100E JUMPI PUSH2 0x100E PUSH2 0x5316 JUMP JUMPDEST PUSH1 0x40 MLOAD SWAP1 DUP1 DUP3 MSTORE DUP1 PUSH1 0x20 MUL PUSH1 0x20 ADD DUP3 ADD PUSH1 0x40 MSTORE DUP1 ISZERO PUSH2 0x1037 JUMPI DUP2 PUSH1 0x20 ADD PUSH1 0x20 DUP3 MUL DUP1 CALLDATASIZE DUP4 CALLDATACOPY ADD SWAP1 POP JUMPDEST POP SWAP1 POP PUSH1 0x0 JUMPDEST DUP5 MLOAD DUP2 LT ISZERO PUSH2 0x108E JUMPI PUSH1 0x20 DUP1 DUP3 MUL DUP7 ADD ADD MLOAD PUSH2 0x1061 SWAP1 PUSH1 0x20 DUP1 DUP5 MUL DUP8 ADD ADD MLOAD PUSH2 0x7CE JUMP JUMPDEST DUP3 DUP3 DUP2 MLOAD DUP2 LT PUSH2 0x1073 JUMPI PUSH2 0x1073 PUSH2 0x5BF7 JUMP JUMPDEST PUSH1 0x20 SWAP1 DUP2 MUL SWAP2 SWAP1 SWAP2 ADD ADD MSTORE PUSH2 0x1087 DUP2 PUSH2 0x5C83 JUMP JUMPDEST SWAP1 POP PUSH2 0x103D JUMP JUMPDEST POP SWAP4 SWAP3 POP POP POP JUMP JUMPDEST PUSH1 0x60 PUSH2 0x10A0 PUSH2 0x2CCC JUMP JUMPDEST SWAP1 POP SWAP1 JUMP JUMPDEST PUSH1 0xB DUP2 DUP2 SLOAD DUP2 LT PUSH2 0x10B5 JUMPI PUSH1 0x0 DUP1 REVERT JUMPDEST PUSH1 0x0 SWAP2 DUP3 MSTORE PUSH1 0x20 SWAP1 SWAP2 KECCAK256 PUSH1 0xC SWAP1 SWAP2 MUL ADD DUP1 SLOAD PUSH1 0x1 DUP3 ADD SLOAD PUSH1 0x2 DUP4 ADD SLOAD PUSH1 0x3 DUP5 ADD SLOAD PUSH1 0x4 DUP6 ADD SLOAD PUSH1 0x5 DUP7 ADD SLOAD PUSH1 0x6 DUP8 ADD SLOAD PUSH1 0x9 DUP9 ADD SLOAD PUSH1 0xA DUP10 ADD SLOAD PUSH1 0xB DUP11 ADD DUP1 SLOAD SWAP10 SWAP12 POP PUSH1 0x1 PUSH1 0x1 PUSH1 0xA0 SHL SUB SWAP9 DUP10 AND SWAP11 SWAP8 DUP10 AND SWAP10 SWAP7 SWAP9 SWAP6 SWAP8 SWAP5 SWAP7 SWAP4 SWAP6 SWAP3 DUP4 AND SWAP5 SWAP3 DUP3 AND SWAP4 PUSH1 0x1 PUSH1 0xA0 SHL SWAP1 SWAP3 DIV PUSH1 0xFF AND SWAP3 SWAP2 PUSH2 0x112E SWAP1 PUSH2 0x5B94 JUMP JUMPDEST DUP1 PUSH1 0x1F ADD PUSH1 0x20 DUP1 SWAP2 DIV MUL PUSH1 0x20 ADD PUSH1 0x40 MLOAD SWAP1 DUP2 ADD PUSH1 0x40 MSTORE DUP1 SWAP3 SWAP2 SWAP1 DUP2 DUP2 MSTORE PUSH1 0x20 ADD DUP3 DUP1 SLOAD PUSH2 0x115A SWAP1 PUSH2 0x5B94 JUMP JUMPDEST DUP1 ISZERO PUSH2 0x11A7 JUMPI DUP1 PUSH1 0x1F LT PUSH2 0x117C JUMPI PUSH2 0x100 DUP1 DUP4 SLOAD DIV MUL DUP4 MSTORE SWAP2 PUSH1 0x20 ADD SWAP2 PUSH2 0x11A7 JUMP JUMPDEST DUP3 ADD SWAP2 SWAP1 PUSH1 0x0 MSTORE PUSH1 0x20 PUSH1 0x0 KECCAK256 SWAP1 JUMPDEST DUP2 SLOAD DUP2 MSTORE SWAP1 PUSH1 0x1 ADD SWAP1 PUSH1 0x20 ADD DUP1 DUP4 GT PUSH2 0x118A JUMPI DUP3 SWAP1 SUB PUSH1 0x1F AND DUP3 ADD SWAP2 JUMPDEST POP POP POP POP POP SWAP1 POP DUP12 JUMP JUMPDEST PUSH1 0x0 CALLVALUE GT PUSH2 0x1201 JUMPI PUSH1 0x40 MLOAD PUSH3 0x461BCD PUSH1 0xE5 SHL DUP2 MSTORE PUSH1 0x20 PUSH1 0x4 DUP3 ADD MSTORE PUSH1 0x16 PUSH1 0x24 DUP3 ADD MSTORE PUSH32 0x596F75206E65656420746F2073656E6420657468657200000000000000000000 PUSH1 0x44 DUP3 ADD MSTORE PUSH1 0x64 ADD PUSH2 0x9AD JUMP JUMPDEST PUSH1 0x0 DUP4 GT DUP1 ISZERO PUSH2 0x1213 JUMPI POP PUSH1 0x6 SLOAD DUP4 GT ISZERO JUMPDEST PUSH2 0x121C JUMPI PUSH1 0x0 DUP1 REVERT JUMPDEST CALLER PUSH1 0x0 DUP2 DUP2 MSTORE PUSH1 0xA PUSH1 0x20 SWAP1 DUP2 MSTORE PUSH1 0x40 DUP1 DUP4 KECCAK256 DUP8 DUP5 MSTORE SWAP1 SWAP2 MSTORE DUP2 KECCAK256 SLOAD SWAP1 SWAP2 PUSH2 0x1243 SWAP1 DUP7 PUSH2 0x7CE JUMP JUMPDEST PUSH2 0x124D SWAP2 SWAP1 PUSH2 0x5BE4 JUMP JUMPDEST GT PUSH2 0x12B0 JUMPI PUSH1 0x40 MLOAD PUSH3 0x461BCD PUSH1 0xE5 SHL DUP2 MSTORE PUSH1 0x20 PUSH1 0x4 DUP3 ADD MSTORE PUSH1 0x2D PUSH1 0x24 DUP3 ADD MSTORE PUSH32 0x596F7520646F6E2774206861766520656E6F75677468206F6620746869732063 PUSH1 0x44 DUP3 ADD MSTORE PUSH13 0x61726420617661696C61626C65 PUSH1 0x98 SHL PUSH1 0x64 DUP3 ADD MSTORE PUSH1 0x84 ADD PUSH2 0x9AD JUMP JUMPDEST PUSH1 0x0 DUP3 GT DUP1 ISZERO PUSH2 0x12C2 JUMPI POP PUSH1 0xB SLOAD DUP3 GT ISZERO JUMPDEST PUSH2 0x130E JUMPI PUSH1 0x40 MLOAD PUSH3 0x461BCD PUSH1 0xE5 SHL DUP2 MSTORE PUSH1 0x20 PUSH1 0x4 DUP3 ADD MSTORE PUSH1 0x19 PUSH1 0x24 DUP3 ADD MSTORE PUSH32 0x5468697320626174746C6520646F65736E277420657869737400000000000000 PUSH1 0x44 DUP3 ADD MSTORE PUSH1 0x64 ADD PUSH2 0x9AD JUMP JUMPDEST PUSH1 0x40 MLOAD PUSH6 0x3BB0B4BA2819 PUSH1 0xD1 SHL PUSH1 0x20 DUP3 ADD MSTORE PUSH1 0x26 ADD PUSH1 0x40 MLOAD PUSH1 0x20 DUP2 DUP4 SUB SUB DUP2 MSTORE SWAP1 PUSH1 0x40 MSTORE DUP1 MLOAD SWAP1 PUSH1 0x20 ADD KECCAK256 PUSH1 0xB PUSH1 0x1 DUP5 PUSH2 0x1348 SWAP2 SWAP1 PUSH2 0x5BE4 JUMP JUMPDEST DUP2 SLOAD DUP2 LT PUSH2 0x1358 JUMPI PUSH2 0x1358 PUSH2 0x5BF7 JUMP JUMPDEST SWAP1 PUSH1 0x0 MSTORE PUSH1 0x20 PUSH1 0x0 KECCAK256 SWAP1 PUSH1 0xC MUL ADD PUSH1 0xB ADD PUSH1 0x40 MLOAD PUSH1 0x20 ADD PUSH2 0x1379 SWAP2 SWAP1 PUSH2 0x5C0D JUMP JUMPDEST PUSH1 0x40 MLOAD PUSH1 0x20 DUP2 DUP4 SUB SUB DUP2 MSTORE SWAP1 PUSH1 0x40 MSTORE DUP1 MLOAD SWAP1 PUSH1 0x20 ADD KECCAK256 EQ PUSH2 0x1402 JUMPI PUSH1 0x40 MLOAD PUSH3 0x461BCD PUSH1 0xE5 SHL DUP2 MSTORE PUSH1 0x20 PUSH1 0x4 DUP3 ADD MSTORE PUSH1 0x29 PUSH1 0x24 DUP3 ADD MSTORE PUSH32 0x5468697320626174746C65206973206E6F742077616974696E6720666F722061 PUSH1 0x44 DUP3 ADD MSTORE PUSH32 0x20706C6179657220320000000000000000000000000000000000000000000000 PUSH1 0x64 DUP3 ADD MSTORE PUSH1 0x84 ADD PUSH2 0x9AD JUMP JUMPDEST DUP1 MLOAD PUSH1 0x3 EQ PUSH2 0x1453 JUMPI PUSH1 0x40 MLOAD PUSH3 0x461BCD PUSH1 0xE5 SHL DUP2 MSTORE PUSH1 0x20 PUSH1 0x4 DUP3 ADD MSTORE PUSH1 0x18 PUSH1 0x24 DUP3 ADD MSTORE PUSH32 0x596F75206E65656420746F2073656E6420332073746174730000000000000000 PUSH1 0x44 DUP3 ADD MSTORE PUSH1 0x64 ADD PUSH2 0x9AD JUMP JUMPDEST PUSH1 0x0 PUSH2 0x1460 DUP5 DUP5 DUP5 PUSH2 0x307B JUMP JUMPDEST SWAP1 POP DUP1 PUSH2 0x14D5 JUMPI PUSH1 0x40 MLOAD PUSH3 0x461BCD PUSH1 0xE5 SHL DUP2 MSTORE PUSH1 0x20 PUSH1 0x4 DUP3 ADD MSTORE PUSH1 0x30 PUSH1 0x24 DUP3 ADD MSTORE PUSH32 0x536F6D657468696E672077656E742077726F6E6720647572696E672074686520 PUSH1 0x44 DUP3 ADD MSTORE PUSH32 0x626174746C652073656C656374696F6E00000000000000000000000000000000 PUSH1 0x64 DUP3 ADD MSTORE PUSH1 0x84 ADD PUSH2 0x9AD JUMP JUMPDEST DUP3 DUP5 CALLER PUSH1 0x1 PUSH1 0x1 PUSH1 0xA0 SHL SUB AND PUSH32 0xC559B3CCC5ECB04F988F93DC34629F418006013C2E2D95352EA77E50C3F21F76 DUP5 PUSH1 0x40 MLOAD PUSH2 0x1514 SWAP2 ISZERO ISZERO DUP2 MSTORE PUSH1 0x20 ADD SWAP1 JUMP JUMPDEST PUSH1 0x40 MLOAD DUP1 SWAP2 SUB SWAP1 LOG4 POP POP POP POP JUMP JUMPDEST PUSH2 0x15B3 PUSH1 0x40 MLOAD DUP1 PUSH2 0x1A0 ADD PUSH1 0x40 MSTORE DUP1 PUSH1 0x0 DUP2 MSTORE PUSH1 0x20 ADD PUSH1 0x0 PUSH1 0x1 PUSH1 0x1 PUSH1 0xA0 SHL SUB AND DUP2 MSTORE PUSH1 0x20 ADD PUSH1 0x0 PUSH1 0x1 PUSH1 0x1 PUSH1 0xA0 SHL SUB AND DUP2 MSTORE PUSH1 0x20 ADD PUSH1 0x0 DUP2 MSTORE PUSH1 0x20 ADD PUSH1 0x0 DUP2 MSTORE PUSH1 0x20 ADD PUSH1 0x0 DUP2 MSTORE PUSH1 0x20 ADD PUSH1 0x0 DUP2 MSTORE PUSH1 0x20 ADD PUSH1 0x60 DUP2 MSTORE PUSH1 0x20 ADD PUSH1 0x60 DUP2 MSTORE PUSH1 0x20 ADD PUSH1 0x0 PUSH1 0x1 PUSH1 0x1 PUSH1 0xA0 SHL SUB AND DUP2 MSTORE PUSH1 0x20 ADD PUSH1 0x0 PUSH1 0x1 PUSH1 0x1 PUSH1 0xA0 SHL SUB AND DUP2 MSTORE PUSH1 0x20 ADD PUSH1 0x0 ISZERO ISZERO DUP2 MSTORE PUSH1 0x20 ADD PUSH1 0x60 DUP2 MSTORE POP SWAP1 JUMP JUMPDEST PUSH1 0x0 DUP3 GT DUP1 ISZERO PUSH2 0x15C5 JUMPI POP PUSH1 0xB SLOAD DUP3 GT ISZERO JUMPDEST PUSH2 0x1611 JUMPI PUSH1 0x40 MLOAD PUSH3 0x461BCD PUSH1 0xE5 SHL DUP2 MSTORE PUSH1 0x20 PUSH1 0x4 DUP3 ADD MSTORE PUSH1 0x19 PUSH1 0x24 DUP3 ADD MSTORE PUSH32 0x5468697320626174746C6520646F65736E277420657869737400000000000000 PUSH1 0x44 DUP3 ADD MSTORE PUSH1 0x64 ADD PUSH2 0x9AD JUMP JUMPDEST PUSH1 0xB PUSH2 0x161E PUSH1 0x1 DUP5 PUSH2 0x5BE4 JUMP JUMPDEST DUP2 SLOAD DUP2 LT PUSH2 0x162E JUMPI PUSH2 0x162E PUSH2 0x5BF7 JUMP JUMPDEST PUSH1 0x0 SWAP2 DUP3 MSTORE PUSH1 0x20 SWAP2 DUP3 SWAP1 KECCAK256 PUSH1 0x40 DUP1 MLOAD PUSH2 0x1A0 DUP2 ADD DUP3 MSTORE PUSH1 0xC SWAP1 SWAP4 MUL SWAP1 SWAP2 ADD DUP1 SLOAD DUP4 MSTORE PUSH1 0x1 DUP2 ADD SLOAD PUSH1 0x1 PUSH1 0x1 PUSH1 0xA0 SHL SUB SWAP1 DUP2 AND DUP5 DUP7 ADD MSTORE PUSH1 0x2 DUP3 ADD SLOAD AND DUP4 DUP4 ADD MSTORE PUSH1 0x3 DUP2 ADD SLOAD PUSH1 0x60 DUP5 ADD MSTORE PUSH1 0x4 DUP2 ADD SLOAD PUSH1 0x80 DUP5 ADD MSTORE PUSH1 0x5 DUP2 ADD SLOAD PUSH1 0xA0 DUP5 ADD MSTORE PUSH1 0x6 DUP2 ADD SLOAD PUSH1 0xC0 DUP5 ADD MSTORE PUSH1 0x7 DUP2 ADD DUP1 SLOAD DUP4 MLOAD DUP2 DUP8 MUL DUP2 ADD DUP8 ADD SWAP1 SWAP5 MSTORE DUP1 DUP5 MSTORE SWAP4 SWAP5 SWAP2 SWAP4 PUSH1 0xE0 DUP7 ADD SWAP4 SWAP3 DUP4 ADD DUP3 DUP3 DUP1 ISZERO PUSH2 0x16E4 JUMPI PUSH1 0x20 MUL DUP3 ADD SWAP2 SWAP1 PUSH1 0x0 MSTORE PUSH1 0x20 PUSH1 0x0 KECCAK256 SWAP1 JUMPDEST DUP2 SLOAD DUP2 MSTORE PUSH1 0x20 ADD SWAP1 PUSH1 0x1 ADD SWAP1 DUP1 DUP4 GT PUSH2 0x16D0 JUMPI JUMPDEST POP POP POP POP POP DUP2 MSTORE PUSH1 0x20 ADD PUSH1 0x8 DUP3 ADD DUP1 SLOAD DUP1 PUSH1 0x20 MUL PUSH1 0x20 ADD PUSH1 0x40 MLOAD SWAP1 DUP2 ADD PUSH1 0x40 MSTORE DUP1 SWAP3 SWAP2 SWAP1 DUP2 DUP2 MSTORE PUSH1 0x20 ADD DUP3 DUP1 SLOAD DUP1 ISZERO PUSH2 0x173C JUMPI PUSH1 0x20 MUL DUP3 ADD SWAP2 SWAP1 PUSH1 0x0 MSTORE PUSH1 0x20 PUSH1 0x0 KECCAK256 SWAP1 JUMPDEST DUP2 SLOAD DUP2 MSTORE PUSH1 0x20 ADD SWAP1 PUSH1 0x1 ADD SWAP1 DUP1 DUP4 GT PUSH2 0x1728 JUMPI JUMPDEST POP POP POP SWAP2 DUP4 MSTORE POP POP PUSH1 0x9 DUP3 ADD SLOAD PUSH1 0x1 PUSH1 0x1 PUSH1 0xA0 SHL SUB SWAP1 DUP2 AND PUSH1 0x20 DUP4 ADD MSTORE PUSH1 0xA DUP4 ADD SLOAD SWAP1 DUP2 AND PUSH1 0x40 DUP4 ADD MSTORE PUSH1 0x1 PUSH1 0xA0 SHL SWAP1 DIV PUSH1 0xFF AND ISZERO ISZERO PUSH1 0x60 DUP3 ADD MSTORE PUSH1 0xB DUP3 ADD DUP1 SLOAD PUSH1 0x80 SWAP1 SWAP3 ADD SWAP2 PUSH2 0x178C SWAP1 PUSH2 0x5B94 JUMP JUMPDEST DUP1 PUSH1 0x1F ADD PUSH1 0x20 DUP1 SWAP2 DIV MUL PUSH1 0x20 ADD PUSH1 0x40 MLOAD SWAP1 DUP2 ADD PUSH1 0x40 MSTORE DUP1 SWAP3 SWAP2 SWAP1 DUP2 DUP2 MSTORE PUSH1 0x20 ADD DUP3 DUP1 SLOAD PUSH2 0x17B8 SWAP1 PUSH2 0x5B94 JUMP JUMPDEST DUP1 ISZERO PUSH2 0x1805 JUMPI DUP1 PUSH1 0x1F LT PUSH2 0x17DA JUMPI PUSH2 0x100 DUP1 DUP4 SLOAD DIV MUL DUP4 MSTORE SWAP2 PUSH1 0x20 ADD SWAP2 PUSH2 0x1805 JUMP JUMPDEST DUP3 ADD SWAP2 SWAP1 PUSH1 0x0 MSTORE PUSH1 0x20 PUSH1 0x0 KECCAK256 SWAP1 JUMPDEST DUP2 SLOAD DUP2 MSTORE SWAP1 PUSH1 0x1 ADD SWAP1 PUSH1 0x20 ADD DUP1 DUP4 GT PUSH2 0x17E8 JUMPI DUP3 SWAP1 SUB PUSH1 0x1F AND DUP3 ADD SWAP2 JUMPDEST POP POP POP POP POP DUP2 MSTORE POP POP SWAP1 POP SWAP2 SWAP1 POP JUMP JUMPDEST PUSH2 0x181D PUSH2 0x1D7F JUMP JUMPDEST PUSH2 0xCD8 PUSH1 0x0 PUSH2 0x3449 JUMP JUMPDEST PUSH2 0x182F PUSH2 0x1D7F JUMP JUMPDEST PUSH2 0x94D DUP5 DUP5 DUP5 DUP5 PUSH2 0x349B JUMP JUMPDEST PUSH1 0x60 PUSH1 0x0 PUSH1 0x6 SLOAD PUSH8 0xFFFFFFFFFFFFFFFF DUP2 GT ISZERO PUSH2 0x185A JUMPI PUSH2 0x185A PUSH2 0x5316 JUMP JUMPDEST PUSH1 0x40 MLOAD SWAP1 DUP1 DUP3 MSTORE DUP1 PUSH1 0x20 MUL PUSH1 0x20 ADD DUP3 ADD PUSH1 0x40 MSTORE DUP1 ISZERO PUSH2 0x1883 JUMPI DUP2 PUSH1 0x20 ADD PUSH1 0x20 DUP3 MUL DUP1 CALLDATASIZE DUP4 CALLDATACOPY ADD SWAP1 POP JUMPDEST POP SWAP1 POP PUSH1 0x1 JUMPDEST PUSH1 0x6 SLOAD DUP2 GT PUSH2 0x18E9 JUMPI PUSH1 0x0 PUSH2 0x189E DUP6 DUP4 PUSH2 0x7CE JUMP JUMPDEST GT ISZERO PUSH2 0x18D7 JUMPI PUSH2 0x18AE DUP5 DUP3 PUSH2 0x7CE JUMP JUMPDEST DUP3 PUSH2 0x18BA PUSH1 0x1 DUP5 PUSH2 0x5BE4 JUMP JUMPDEST DUP2 MLOAD DUP2 LT PUSH2 0x18CA JUMPI PUSH2 0x18CA PUSH2 0x5BF7 JUMP JUMPDEST PUSH1 0x20 MUL PUSH1 0x20 ADD ADD DUP2 DUP2 MSTORE POP POP JUMPDEST DUP1 PUSH2 0x18E1 DUP2 PUSH2 0x5C83 JUMP JUMPDEST SWAP2 POP POP PUSH2 0x1889 JUMP JUMPDEST POP SWAP3 SWAP2 POP POP JUMP JUMPDEST PUSH2 0xFBD CALLER DUP4 DUP4 PUSH2 0x34F8 JUMP JUMPDEST PUSH1 0x60 PUSH1 0xB DUP1 SLOAD DUP1 PUSH1 0x20 MUL PUSH1 0x20 ADD PUSH1 0x40 MLOAD SWAP1 DUP2 ADD PUSH1 0x40 MSTORE DUP1 SWAP3 SWAP2 SWAP1 DUP2 DUP2 MSTORE PUSH1 0x20 ADD PUSH1 0x0 SWAP1 JUMPDEST DUP3 DUP3 LT ISZERO PUSH2 0x1B15 JUMPI PUSH1 0x0 DUP5 DUP2 MSTORE PUSH1 0x20 SWAP1 DUP2 SWAP1 KECCAK256 PUSH1 0x40 DUP1 MLOAD PUSH2 0x1A0 DUP2 ADD DUP3 MSTORE PUSH1 0xC DUP7 MUL SWAP1 SWAP3 ADD DUP1 SLOAD DUP4 MSTORE PUSH1 0x1 DUP2 ADD SLOAD PUSH1 0x1 PUSH1 0x1 PUSH1 0xA0 SHL SUB SWAP1 DUP2 AND DUP5 DUP7 ADD MSTORE PUSH1 0x2 DUP3 ADD SLOAD AND DUP4 DUP4 ADD MSTORE PUSH1 0x3 DUP2 ADD SLOAD PUSH1 0x60 DUP5 ADD MSTORE PUSH1 0x4 DUP2 ADD SLOAD PUSH1 0x80 DUP5 ADD MSTORE PUSH1 0x5 DUP2 ADD SLOAD PUSH1 0xA0 DUP5 ADD MSTORE PUSH1 0x6 DUP2 ADD SLOAD PUSH1 0xC0 DUP5 ADD MSTORE PUSH1 0x7 DUP2 ADD DUP1 SLOAD DUP4 MLOAD DUP2 DUP8 MUL DUP2 ADD DUP8 ADD SWAP1 SWAP5 MSTORE DUP1 DUP5 MSTORE SWAP4 SWAP5 SWAP2 SWAP4 PUSH1 0xE0 DUP7 ADD SWAP4 SWAP3 DUP4 ADD DUP3 DUP3 DUP1 ISZERO PUSH2 0x19DC JUMPI PUSH1 0x20 MUL DUP3 ADD SWAP2 SWAP1 PUSH1 0x0 MSTORE PUSH1 0x20 PUSH1 0x0 KECCAK256 SWAP1 JUMPDEST DUP2 SLOAD DUP2 MSTORE PUSH1 0x20 ADD SWAP1 PUSH1 0x1 ADD SWAP1 DUP1 DUP4 GT PUSH2 0x19C8 JUMPI JUMPDEST POP POP POP POP POP DUP2 MSTORE PUSH1 0x20 ADD PUSH1 0x8 DUP3 ADD DUP1 SLOAD DUP1 PUSH1 0x20 MUL PUSH1 0x20 ADD PUSH1 0x40 MLOAD SWAP1 DUP2 ADD PUSH1 0x40 MSTORE DUP1 SWAP3 SWAP2 SWAP1 DUP2 DUP2 MSTORE PUSH1 0x20 ADD DUP3 DUP1 SLOAD DUP1 ISZERO PUSH2 0x1A34 JUMPI PUSH1 0x20 MUL DUP3 ADD SWAP2 SWAP1 PUSH1 0x0 MSTORE PUSH1 0x20 PUSH1 0x0 KECCAK256 SWAP1 JUMPDEST DUP2 SLOAD DUP2 MSTORE PUSH1 0x20 ADD SWAP1 PUSH1 0x1 ADD SWAP1 DUP1 DUP4 GT PUSH2 0x1A20 JUMPI JUMPDEST POP POP POP SWAP2 DUP4 MSTORE POP POP PUSH1 0x9 DUP3 ADD SLOAD PUSH1 0x1 PUSH1 0x1 PUSH1 0xA0 SHL SUB SWAP1 DUP2 AND PUSH1 0x20 DUP4 ADD MSTORE PUSH1 0xA DUP4 ADD SLOAD SWAP1 DUP2 AND PUSH1 0x40 DUP4 ADD MSTORE PUSH1 0x1 PUSH1 0xA0 SHL SWAP1 DIV PUSH1 0xFF AND ISZERO ISZERO PUSH1 0x60 DUP3 ADD MSTORE PUSH1 0xB DUP3 ADD DUP1 SLOAD PUSH1 0x80 SWAP1 SWAP3 ADD SWAP2 PUSH2 0x1A84 SWAP1 PUSH2 0x5B94 JUMP JUMPDEST DUP1 PUSH1 0x1F ADD PUSH1 0x20 DUP1 SWAP2 DIV MUL PUSH1 0x20 ADD PUSH1 0x40 MLOAD SWAP1 DUP2 ADD PUSH1 0x40 MSTORE DUP1 SWAP3 SWAP2 SWAP1 DUP2 DUP2 MSTORE PUSH1 0x20 ADD DUP3 DUP1 SLOAD PUSH2 0x1AB0 SWAP1 PUSH2 0x5B94 JUMP JUMPDEST DUP1 ISZERO PUSH2 0x1AFD JUMPI DUP1 PUSH1 0x1F LT PUSH2 0x1AD2 JUMPI PUSH2 0x100 DUP1 DUP4 SLOAD DIV MUL DUP4 MSTORE SWAP2 PUSH1 0x20 ADD SWAP2 PUSH2 0x1AFD JUMP JUMPDEST DUP3 ADD SWAP2 SWAP1 PUSH1 0x0 MSTORE PUSH1 0x20 PUSH1 0x0 KECCAK256 SWAP1 JUMPDEST DUP2 SLOAD DUP2 MSTORE SWAP1 PUSH1 0x1 ADD SWAP1 PUSH1 0x20 ADD DUP1 DUP4 GT PUSH2 0x1AE0 JUMPI DUP3 SWAP1 SUB PUSH1 0x1F AND DUP3 ADD SWAP2 JUMPDEST POP POP POP POP POP DUP2 MSTORE POP POP DUP2 MSTORE PUSH1 0x20 ADD SWAP1 PUSH1 0x1 ADD SWAP1 PUSH2 0x191F JUMP JUMPDEST POP POP POP POP SWAP1 POP SWAP1 JUMP JUMPDEST PUSH1 0x0 PUSH2 0x1B2A DUP3 DUP5 PUSH2 0x7CE JUMP JUMPDEST SWAP4 SWAP3 POP POP POP JUMP JUMPDEST PUSH1 0x60 PUSH2 0x1B3C DUP3 PUSH2 0x35A8 JUMP JUMPDEST PUSH1 0x40 MLOAD PUSH1 0x20 ADD PUSH2 0x1B4C SWAP2 SWAP1 PUSH2 0x5C9C JUMP JUMPDEST PUSH1 0x40 MLOAD PUSH1 0x20 DUP2 DUP4 SUB SUB DUP2 MSTORE SWAP1 PUSH1 0x40 MSTORE SWAP1 POP SWAP2 SWAP1 POP JUMP JUMPDEST PUSH1 0x0 CALLVALUE GT PUSH2 0x1BB2 JUMPI PUSH1 0x40 MLOAD PUSH3 0x461BCD PUSH1 0xE5 SHL DUP2 MSTORE PUSH1 0x20 PUSH1 0x4 DUP3 ADD MSTORE PUSH1 0x16 PUSH1 0x24 DUP3 ADD MSTORE PUSH32 0x596F75206E65656420746F2073656E6420657468657200000000000000000000 PUSH1 0x44 DUP3 ADD MSTORE PUSH1 0x64 ADD PUSH2 0x9AD JUMP JUMPDEST PUSH1 0x0 DUP2 GT DUP1 ISZERO PUSH2 0x1BC4 JUMPI POP PUSH1 0x6 SLOAD DUP2 GT ISZERO JUMPDEST PUSH2 0x1BCD JUMPI PUSH1 0x0 DUP1 REVERT JUMPDEST CALLER PUSH1 0x0 DUP2 DUP2 MSTORE PUSH1 0xA PUSH1 0x20 SWAP1 DUP2 MSTORE PUSH1 0x40 DUP1 DUP4 KECCAK256 DUP6 DUP5 MSTORE SWAP1 SWAP2 MSTORE DUP2 KECCAK256 SLOAD SWAP1 SWAP2 PUSH2 0x1BF4 SWAP1 DUP5 PUSH2 0x7CE JUMP JUMPDEST PUSH2 0x1BFE SWAP2 SWAP1 PUSH2 0x5BE4 JUMP JUMPDEST GT PUSH2 0x1C61 JUMPI PUSH1 0x40 MLOAD PUSH3 0x461BCD PUSH1 0xE5 SHL DUP2 MSTORE PUSH1 0x20 PUSH1 0x4 DUP3 ADD MSTORE PUSH1 0x2D PUSH1 0x24 DUP3 ADD MSTORE PUSH32 0x596F7520646F6E2774206861766520656E6F75677468206F6620746869732063 PUSH1 0x44 DUP3 ADD MSTORE PUSH13 0x61726420617661696C61626C65 PUSH1 0x98 SHL PUSH1 0x64 DUP3 ADD MSTORE PUSH1 0x84 ADD PUSH2 0x9AD JUMP JUMPDEST PUSH1 0x0 PUSH2 0x1C6C DUP3 PUSH2 0x3648 JUMP JUMPDEST PUSH1 0x40 MLOAD SWAP1 SWAP2 POP DUP2 SWAP1 DUP4 SWAP1 CALLER SWAP1 PUSH32 0x7D449FA6E54154E0708080FD25570C187F5F5A38662C42A2324D966EC07B926F SWAP1 PUSH1 0x0 SWAP1 LOG4 POP POP JUMP JUMPDEST CALLER PUSH1 0x1 PUSH1 0x1 PUSH1 0xA0 SHL SUB DUP7 AND DUP2 EQ DUP1 ISZERO SWAP1 PUSH2 0x1CE2 JUMPI POP PUSH1 0x1 PUSH1 0x1 PUSH1 0xA0 SHL SUB DUP1 DUP8 AND PUSH1 0x0 SWAP1 DUP2 MSTORE PUSH1 0x1 PUSH1 0x20 SWAP1 DUP2 MSTORE PUSH1 0x40 DUP1 DUP4 KECCAK256 SWAP4 DUP6 AND DUP4 MSTORE SWAP3 SWAP1 MSTORE KECCAK256 SLOAD PUSH1 0xFF AND ISZERO JUMPDEST ISZERO PUSH2 0x1D13 JUMPI PUSH1 0x40 MLOAD PUSH4 0x711BEC91 PUSH1 0xE1 SHL DUP2 MSTORE PUSH1 0x1 PUSH1 0x1 PUSH1 0xA0 SHL SUB DUP1 DUP4 AND PUSH1 0x4 DUP4 ADD MSTORE DUP8 AND PUSH1 0x24 DUP3 ADD MSTORE PUSH1 0x44 ADD PUSH2 0x9AD JUMP JUMPDEST PUSH2 0xC90 DUP7 DUP7 DUP7 DUP7 DUP7 PUSH2 0x395E JUMP JUMPDEST PUSH2 0x1D28 PUSH2 0x1D7F JUMP JUMPDEST PUSH1 0x1 PUSH1 0x1 PUSH1 0xA0 SHL SUB DUP2 AND PUSH2 0x1D6B JUMPI PUSH1 0x40 MLOAD PUSH32 0x1E4FBDF700000000000000000000000000000000000000000000000000000000 DUP2 MSTORE PUSH1 0x0 PUSH1 0x4 DUP3 ADD MSTORE PUSH1 0x24 ADD PUSH2 0x9AD JUMP JUMPDEST PUSH2 0x8A2 DUP2 PUSH2 0x3449 JUMP JUMPDEST PUSH2 0xC0D DUP4 DUP4 DUP4 PUSH2 0x39EC JUMP JUMPDEST PUSH1 0x5 SLOAD PUSH1 0x1 PUSH1 0x1 PUSH1 0xA0 SHL SUB AND CALLER EQ PUSH2 0xCD8 JUMPI PUSH1 0x40 MLOAD PUSH32 0x118CDAA700000000000000000000000000000000000000000000000000000000 DUP2 MSTORE CALLER PUSH1 0x4 DUP3 ADD MSTORE PUSH1 0x24 ADD PUSH2 0x9AD JUMP JUMPDEST PUSH1 0x2 PUSH2 0xFBD DUP3 DUP3 PUSH2 0x5D4D JUMP JUMPDEST PUSH1 0x1 PUSH1 0x1 PUSH1 0xA0 SHL SUB DUP5 AND PUSH2 0x1DFB JUMPI PUSH1 0x40 MLOAD PUSH4 0x2BFA23E7 PUSH1 0xE1 SHL DUP2 MSTORE PUSH1 0x0 PUSH1 0x4 DUP3 ADD MSTORE PUSH1 0x24 ADD PUSH2 0x9AD JUMP JUMPDEST PUSH2 0x94D PUSH1 0x0 DUP6 DUP6 DUP6 DUP6 PUSH2 0x39F7 JUMP JUMPDEST PUSH1 0x0 DUP1 PUSH1 0xB PUSH2 0x1E19 PUSH1 0x1 DUP7 PUSH2 0x5BE4 JUMP JUMPDEST DUP2 SLOAD DUP2 LT PUSH2 0x1E29 JUMPI PUSH2 0x1E29 PUSH2 0x5BF7 JUMP JUMPDEST PUSH1 0x0 SWAP2 DUP3 MSTORE PUSH1 0x20 SWAP2 DUP3 SWAP1 KECCAK256 PUSH1 0x40 DUP1 MLOAD PUSH2 0x1A0 DUP2 ADD DUP3 MSTORE PUSH1 0xC SWAP1 SWAP4 MUL SWAP1 SWAP2 ADD DUP1 SLOAD DUP4 MSTORE PUSH1 0x1 DUP2 ADD SLOAD PUSH1 0x1 PUSH1 0x1 PUSH1 0xA0 SHL SUB SWAP1 DUP2 AND DUP5 DUP7 ADD MSTORE PUSH1 0x2 DUP3 ADD SLOAD AND DUP4 DUP4 ADD MSTORE PUSH1 0x3 DUP2 ADD SLOAD PUSH1 0x60 DUP5 ADD MSTORE PUSH1 0x4 DUP2 ADD SLOAD PUSH1 0x80 DUP5 ADD MSTORE PUSH1 0x5 DUP2 ADD SLOAD PUSH1 0xA0 DUP5 ADD MSTORE PUSH1 0x6 DUP2 ADD SLOAD PUSH1 0xC0 DUP5 ADD MSTORE PUSH1 0x7 DUP2 ADD DUP1 SLOAD DUP4 MLOAD DUP2 DUP8 MUL DUP2 ADD DUP8 ADD SWAP1 SWAP5 MSTORE DUP1 DUP5 MSTORE SWAP4 SWAP5 SWAP2 SWAP4 PUSH1 0xE0 DUP7 ADD SWAP4 SWAP3 DUP4 ADD DUP3 DUP3 DUP1 ISZERO PUSH2 0x1EDF JUMPI PUSH1 0x20 MUL DUP3 ADD SWAP2 SWAP1 PUSH1 0x0 MSTORE PUSH1 0x20 PUSH1 0x0 KECCAK256 SWAP1 JUMPDEST DUP2 SLOAD DUP2 MSTORE PUSH1 0x20 ADD SWAP1 PUSH1 0x1 ADD SWAP1 DUP1 DUP4 GT PUSH2 0x1ECB JUMPI JUMPDEST POP POP POP POP POP DUP2 MSTORE PUSH1 0x20 ADD PUSH1 0x8 DUP3 ADD DUP1 SLOAD DUP1 PUSH1 0x20 MUL PUSH1 0x20 ADD PUSH1 0x40 MLOAD SWAP1 DUP2 ADD PUSH1 0x40 MSTORE DUP1 SWAP3 SWAP2 SWAP1 DUP2 DUP2 MSTORE PUSH1 0x20 ADD DUP3 DUP1 SLOAD DUP1 ISZERO PUSH2 0x1F37 JUMPI PUSH1 0x20 MUL DUP3 ADD SWAP2 SWAP1 PUSH1 0x0 MSTORE PUSH1 0x20 PUSH1 0x0 KECCAK256 SWAP1 JUMPDEST DUP2 SLOAD DUP2 MSTORE PUSH1 0x20 ADD SWAP1 PUSH1 0x1 ADD SWAP1 DUP1 DUP4 GT PUSH2 0x1F23 JUMPI JUMPDEST POP POP POP SWAP2 DUP4 MSTORE POP POP PUSH1 0x9 DUP3 ADD SLOAD PUSH1 0x1 PUSH1 0x1 PUSH1 0xA0 SHL SUB SWAP1 DUP2 AND PUSH1 0x20 DUP4 ADD MSTORE PUSH1 0xA DUP4 ADD SLOAD SWAP1 DUP2 AND PUSH1 0x40 DUP4 ADD MSTORE PUSH1 0x1 PUSH1 0xA0 SHL SWAP1 DIV PUSH1 0xFF AND ISZERO ISZERO PUSH1 0x60 DUP3 ADD MSTORE PUSH1 0xB DUP3 ADD DUP1 SLOAD PUSH1 0x80 SWAP1 SWAP3 ADD SWAP2 PUSH2 0x1F87 SWAP1 PUSH2 0x5B94 JUMP JUMPDEST DUP1 PUSH1 0x1F ADD PUSH1 0x20 DUP1 SWAP2 DIV MUL PUSH1 0x20 ADD PUSH1 0x40 MLOAD SWAP1 DUP2 ADD PUSH1 0x40 MSTORE DUP1 SWAP3 SWAP2 SWAP1 DUP2 DUP2 MSTORE PUSH1 0x20 ADD DUP3 DUP1 SLOAD PUSH2 0x1FB3 SWAP1 PUSH2 0x5B94 JUMP JUMPDEST DUP1 ISZERO PUSH2 0x2000 JUMPI DUP1 PUSH1 0x1F LT PUSH2 0x1FD5 JUMPI PUSH2 0x100 DUP1 DUP4 SLOAD DIV MUL DUP4 MSTORE SWAP2 PUSH1 0x20 ADD SWAP2 PUSH2 0x2000 JUMP JUMPDEST DUP3 ADD SWAP2 SWAP1 PUSH1 0x0 MSTORE PUSH1 0x20 PUSH1 0x0 KECCAK256 SWAP1 JUMPDEST DUP2 SLOAD DUP2 MSTORE SWAP1 PUSH1 0x1 ADD SWAP1 PUSH1 0x20 ADD DUP1 DUP4 GT PUSH2 0x1FE3 JUMPI DUP3 SWAP1 SUB PUSH1 0x1F AND DUP3 ADD SWAP2 JUMPDEST POP POP POP SWAP2 SWAP1 SWAP3 MSTORE POP POP POP PUSH1 0xE0 DUP2 ADD DUP5 SWAP1 MSTORE PUSH1 0x40 DUP1 MLOAD DUP1 DUP3 ADD SWAP1 SWAP2 MSTORE PUSH1 0x9 DUP2 MSTORE PUSH9 0x18DBDB999A5C9B5959 PUSH1 0xBA SHL PUSH1 0x20 DUP3 ADD MSTORE PUSH2 0x180 DUP3 ADD MSTORE SWAP1 POP DUP1 PUSH1 0xB PUSH2 0x2047 PUSH1 0x1 DUP8 PUSH2 0x5BE4 JUMP JUMPDEST DUP2 SLOAD DUP2 LT PUSH2 0x2057 JUMPI PUSH2 0x2057 PUSH2 0x5BF7 JUMP JUMPDEST PUSH1 0x0 SWAP2 DUP3 MSTORE PUSH1 0x20 SWAP2 DUP3 SWAP1 KECCAK256 DUP4 MLOAD PUSH1 0xC SWAP1 SWAP3 MUL ADD SWAP1 DUP2 SSTORE DUP3 DUP3 ADD MLOAD PUSH1 0x1 DUP3 ADD DUP1 SLOAD PUSH1 0x1 PUSH1 0x1 PUSH1 0xA0 SHL SUB SWAP3 DUP4 AND PUSH1 0x1 PUSH1 0x1 PUSH1 0xA0 SHL SUB NOT SWAP2 DUP3 AND OR SWAP1 SWAP2 SSTORE PUSH1 0x40 DUP6 ADD MLOAD PUSH1 0x2 DUP5 ADD DUP1 SLOAD SWAP2 SWAP1 SWAP4 AND SWAP2 AND OR SWAP1 SSTORE PUSH1 0x60 DUP4 ADD MLOAD PUSH1 0x3 DUP3 ADD SSTORE PUSH1 0x80 DUP4 ADD MLOAD PUSH1 0x4 DUP3 ADD SSTORE PUSH1 0xA0 DUP4 ADD MLOAD PUSH1 0x5 DUP3 ADD SSTORE PUSH1 0xC0 DUP4 ADD MLOAD PUSH1 0x6 DUP3 ADD SSTORE PUSH1 0xE0 DUP4 ADD MLOAD DUP1 MLOAD SWAP2 SWAP3 PUSH2 0x20E9 SWAP3 PUSH1 0x7 DUP6 ADD SWAP3 SWAP1 SWAP2 ADD SWAP1 PUSH2 0x5229 JUMP JUMPDEST POP PUSH2 0x100 DUP3 ADD MLOAD DUP1 MLOAD PUSH2 0x2106 SWAP2 PUSH1 0x8 DUP5 ADD SWAP2 PUSH1 0x20 SWAP1 SWAP2 ADD SWAP1 PUSH2 0x5229 JUMP JUMPDEST POP PUSH2 0x120 DUP3 ADD MLOAD PUSH1 0x9 DUP3 ADD DUP1 SLOAD PUSH1 0x1 PUSH1 0x1 PUSH1 0xA0 SHL SUB NOT AND PUSH1 0x1 PUSH1 0x1 PUSH1 0xA0 SHL SUB SWAP3 DUP4 AND OR SWAP1 SSTORE PUSH2 0x140 DUP4 ADD MLOAD PUSH1 0xA DUP4 ADD DUP1 SLOAD PUSH2 0x160 DUP7 ADD MLOAD SWAP3 SWAP1 SWAP4 AND PUSH1 0x1 PUSH1 0x1 PUSH1 0xA8 SHL SUB NOT SWAP1 SWAP4 AND SWAP3 SWAP1 SWAP3 OR PUSH1 0x1 PUSH1 0xA0 SHL SWAP2 ISZERO ISZERO SWAP2 SWAP1 SWAP2 MUL OR SWAP1 SSTORE PUSH2 0x180 DUP3 ADD MLOAD PUSH1 0xB DUP3 ADD SWAP1 PUSH2 0x2175 SWAP1 DUP3 PUSH2 0x5D4D JUMP JUMPDEST POP PUSH1 0x1 SWAP7 SWAP6 POP POP POP POP POP POP JUMP JUMPDEST PUSH1 0x0 DUP2 GT DUP1 ISZERO PUSH2 0x2194 JUMPI POP PUSH1 0xB SLOAD DUP2 GT ISZERO JUMPDEST PUSH2 0x21E0 JUMPI PUSH1 0x40 MLOAD PUSH3 0x461BCD PUSH1 0xE5 SHL DUP2 MSTORE PUSH1 0x20 PUSH1 0x4 DUP3 ADD MSTORE PUSH1 0x19 PUSH1 0x24 DUP3 ADD MSTORE PUSH32 0x5468697320626174746C6520646F65736E277420657869737400000000000000 PUSH1 0x44 DUP3 ADD MSTORE PUSH1 0x64 ADD PUSH2 0x9AD JUMP JUMPDEST CALLER PUSH1 0xB PUSH2 0x21EE PUSH1 0x1 DUP5 PUSH2 0x5BE4 JUMP JUMPDEST DUP2 SLOAD DUP2 LT PUSH2 0x21FE JUMPI PUSH2 0x21FE PUSH2 0x5BF7 JUMP JUMPDEST PUSH1 0x0 SWAP2 DUP3 MSTORE PUSH1 0x20 SWAP1 SWAP2 KECCAK256 PUSH1 0x1 PUSH1 0xC SWAP1 SWAP3 MUL ADD ADD SLOAD PUSH1 0x1 PUSH1 0x1 PUSH1 0xA0 SHL SUB AND EQ PUSH2 0x2268 JUMPI PUSH1 0x40 MLOAD PUSH3 0x461BCD PUSH1 0xE5 SHL DUP2 MSTORE PUSH1 0x20 PUSH1 0x4 DUP3 ADD MSTORE PUSH1 0x1F PUSH1 0x24 DUP3 ADD MSTORE PUSH32 0x596F7520617265206E6F742070617274206F66207468697320626174746C6500 PUSH1 0x44 DUP3 ADD MSTORE PUSH1 0x64 ADD PUSH2 0x9AD JUMP JUMPDEST PUSH1 0x40 MLOAD PUSH9 0x18DBDB999A5C9B5959 PUSH1 0xBA SHL PUSH1 0x20 DUP3 ADD MSTORE PUSH1 0x29 ADD PUSH1 0x40 MLOAD PUSH1 0x20 DUP2 DUP4 SUB SUB DUP2 MSTORE SWAP1 PUSH1 0x40 MSTORE DUP1 MLOAD SWAP1 PUSH1 0x20 ADD KECCAK256 PUSH1 0xB PUSH1 0x1 DUP4 PUSH2 0x22A5 SWAP2 SWAP1 PUSH2 0x5BE4 JUMP JUMPDEST DUP2 SLOAD DUP2 LT PUSH2 0x22B5 JUMPI PUSH2 0x22B5 PUSH2 0x5BF7 JUMP JUMPDEST SWAP1 PUSH1 0x0 MSTORE PUSH1 0x20 PUSH1 0x0 KECCAK256 SWAP1 PUSH1 0xC MUL ADD PUSH1 0xB ADD PUSH1 0x40 MLOAD PUSH1 0x20 ADD PUSH2 0x22D6 SWAP2 SWAP1 PUSH2 0x5C0D JUMP JUMPDEST PUSH1 0x40 MLOAD PUSH1 0x20 DUP2 DUP4 SUB SUB DUP2 MSTORE SWAP1 PUSH1 0x40 MSTORE DUP1 MLOAD SWAP1 PUSH1 0x20 ADD KECCAK256 EQ PUSH2 0x2339 JUMPI PUSH1 0x40 MLOAD PUSH3 0x461BCD PUSH1 0xE5 SHL DUP2 MSTORE PUSH1 0x20 PUSH1 0x4 DUP3 ADD MSTORE PUSH1 0x1C PUSH1 0x24 DUP3 ADD MSTORE PUSH32 0x5468697320626174746C65206973206E6F7420636F6E6669726D656400000000 PUSH1 0x44 DUP3 ADD MSTORE PUSH1 0x64 ADD PUSH2 0x9AD JUMP JUMPDEST PUSH1 0x0 PUSH2 0x2344 DUP3 PUSH2 0x3A4A JUMP JUMPDEST SWAP1 POP DUP1 PUSH2 0x23B9 JUMPI PUSH1 0x40 MLOAD PUSH3 0x461BCD PUSH1 0xE5 SHL DUP2 MSTORE PUSH1 0x20 PUSH1 0x4 DUP3 ADD MSTORE PUSH1 0x26 PUSH1 0x24 DUP3 ADD MSTORE PUSH32 0x536F6D657468696E672077656E742077726F6E6720647572696E672074686520 PUSH1 0x44 DUP3 ADD MSTORE PUSH32 0x626174746C650000000000000000000000000000000000000000000000000000 PUSH1 0x64 DUP3 ADD MSTORE PUSH1 0x84 ADD PUSH2 0x9AD JUMP JUMPDEST PUSH1 0x0 PUSH1 0xB PUSH2 0x23C8 PUSH1 0x1 DUP6 PUSH2 0x5BE4 JUMP JUMPDEST DUP2 SLOAD DUP2 LT PUSH2 0x23D8 JUMPI PUSH2 0x23D8 PUSH2 0x5BF7 JUMP JUMPDEST PUSH1 0x0 SWAP2 DUP3 MSTORE PUSH1 0x20 SWAP2 DUP3 SWAP1 KECCAK256 PUSH1 0x40 DUP1 MLOAD PUSH2 0x1A0 DUP2 ADD DUP3 MSTORE PUSH1 0xC SWAP1 SWAP4 MUL SWAP1 SWAP2 ADD DUP1 SLOAD DUP4 MSTORE PUSH1 0x1 DUP2 ADD SLOAD PUSH1 0x1 PUSH1 0x1 PUSH1 0xA0 SHL SUB SWAP1 DUP2 AND DUP5 DUP7 ADD MSTORE PUSH1 0x2 DUP3 ADD SLOAD AND DUP4 DUP4 ADD MSTORE PUSH1 0x3 DUP2 ADD SLOAD PUSH1 0x60 DUP5 ADD MSTORE PUSH1 0x4 DUP2 ADD SLOAD PUSH1 0x80 DUP5 ADD MSTORE PUSH1 0x5 DUP2 ADD SLOAD PUSH1 0xA0 DUP5 ADD MSTORE PUSH1 0x6 DUP2 ADD SLOAD PUSH1 0xC0 DUP5 ADD MSTORE PUSH1 0x7 DUP2 ADD DUP1 SLOAD DUP4 MLOAD DUP2 DUP8 MUL DUP2 ADD DUP8 ADD SWAP1 SWAP5 MSTORE DUP1 DUP5 MSTORE SWAP4 SWAP5 SWAP2 SWAP4 PUSH1 0xE0 DUP7 ADD SWAP4 SWAP3 DUP4 ADD DUP3 DUP3 DUP1 ISZERO PUSH2 0x248E JUMPI PUSH1 0x20 MUL DUP3 ADD SWAP2 SWAP1 PUSH1 0x0 MSTORE PUSH1 0x20 PUSH1 0x0 KECCAK256 SWAP1 JUMPDEST DUP2 SLOAD DUP2 MSTORE PUSH1 0x20 ADD SWAP1 PUSH1 0x1 ADD SWAP1 DUP1 DUP4 GT PUSH2 0x247A JUMPI JUMPDEST POP POP POP POP POP DUP2 MSTORE PUSH1 0x20 ADD PUSH1 0x8 DUP3 ADD DUP1 SLOAD DUP1 PUSH1 0x20 MUL PUSH1 0x20 ADD PUSH1 0x40 MLOAD SWAP1 DUP2 ADD PUSH1 0x40 MSTORE DUP1 SWAP3 SWAP2 SWAP1 DUP2 DUP2 MSTORE PUSH1 0x20 ADD DUP3 DUP1 SLOAD DUP1 ISZERO PUSH2 0x24E6 JUMPI PUSH1 0x20 MUL DUP3 ADD SWAP2 SWAP1 PUSH1 0x0 MSTORE PUSH1 0x20 PUSH1 0x0 KECCAK256 SWAP1 JUMPDEST DUP2 SLOAD DUP2 MSTORE PUSH1 0x20 ADD SWAP1 PUSH1 0x1 ADD SWAP1 DUP1 DUP4 GT PUSH2 0x24D2 JUMPI JUMPDEST POP POP POP SWAP2 DUP4 MSTORE POP POP PUSH1 0x9 DUP3 ADD SLOAD PUSH1 0x1 PUSH1 0x1 PUSH1 0xA0 SHL SUB SWAP1 DUP2 AND PUSH1 0x20 DUP4 ADD MSTORE PUSH1 0xA DUP4 ADD SLOAD SWAP1 DUP2 AND PUSH1 0x40 DUP4 ADD MSTORE PUSH1 0x1 PUSH1 0xA0 SHL SWAP1 DIV PUSH1 0xFF AND ISZERO ISZERO PUSH1 0x60 DUP3 ADD MSTORE PUSH1 0xB DUP3 ADD DUP1 SLOAD PUSH1 0x80 SWAP1 SWAP3 ADD SWAP2 PUSH2 0x2536 SWAP1 PUSH2 0x5B94 JUMP JUMPDEST DUP1 PUSH1 0x1F ADD PUSH1 0x20 DUP1 SWAP2 DIV MUL PUSH1 0x20 ADD PUSH1 0x40 MLOAD SWAP1 DUP2 ADD PUSH1 0x40 MSTORE DUP1 SWAP3 SWAP2 SWAP1 DUP2 DUP2 MSTORE PUSH1 0x20 ADD DUP3 DUP1 SLOAD PUSH2 0x2562 SWAP1 PUSH2 0x5B94 JUMP JUMPDEST DUP1 ISZERO PUSH2 0x25AF JUMPI DUP1 PUSH1 0x1F LT PUSH2 0x2584 JUMPI PUSH2 0x100 DUP1 DUP4 SLOAD DIV MUL DUP4 MSTORE SWAP2 PUSH1 0x20 ADD SWAP2 PUSH2 0x25AF JUMP JUMPDEST DUP3 ADD SWAP2 SWAP1 PUSH1 0x0 MSTORE PUSH1 0x20 PUSH1 0x0 KECCAK256 SWAP1 JUMPDEST DUP2 SLOAD DUP2 MSTORE SWAP1 PUSH1 0x1 ADD SWAP1 PUSH1 0x20 ADD DUP1 DUP4 GT PUSH2 0x2592 JUMPI DUP3 SWAP1 SUB PUSH1 0x1F AND DUP3 ADD SWAP2 JUMPDEST POP POP POP POP POP DUP2 MSTORE POP POP SWAP1 POP DUP1 PUSH2 0x160 ADD MLOAD ISZERO PUSH2 0x2606 JUMPI DUP3 PUSH32 0x89ACA0360A8E6579F9B4A53B0406D026B2F7A9E5B0BC133D2C1013F220D696F8 DUP4 PUSH1 0x40 MLOAD PUSH2 0x25F9 SWAP2 ISZERO ISZERO DUP2 MSTORE PUSH1 0x20 ADD SWAP1 JUMP JUMPDEST PUSH1 0x40 MLOAD DUP1 SWAP2 SUB SWAP1 LOG2 POP POP POP JUMP JUMPDEST PUSH2 0x120 DUP2 ADD MLOAD PUSH1 0x1 PUSH1 0x1 PUSH1 0xA0 SHL SUB AND PUSH2 0x2687 JUMPI PUSH1 0x40 MLOAD PUSH3 0x461BCD PUSH1 0xE5 SHL DUP2 MSTORE PUSH1 0x20 PUSH1 0x4 DUP3 ADD MSTORE PUSH1 0x3F PUSH1 0x24 DUP3 ADD MSTORE PUSH32 0x536F6D657468696E672077656E742077726F6E6720647572696E672074686520 PUSH1 0x44 DUP3 ADD MSTORE PUSH32 0x626174746C6520286E6F74206472617720616E64206E6F2077696E6E65722900 PUSH1 0x64 DUP3 ADD MSTORE PUSH1 0x84 ADD PUSH2 0x9AD JUMP JUMPDEST PUSH2 0x120 DUP2 ADD MLOAD PUSH2 0x140 DUP3 ADD MLOAD PUSH1 0x40 DUP1 MLOAD PUSH1 0x1 PUSH1 0x1 PUSH1 0xA0 SHL SUB SWAP4 DUP5 AND DUP2 MSTORE SWAP3 SWAP1 SWAP2 AND PUSH1 0x20 DUP4 ADD MSTORE DUP4 ISZERO ISZERO SWAP1 DUP3 ADD MSTORE DUP4 SWAP1 PUSH32 0x73B75FE4A38B6C1172654D3174302C242D6B3D69C0D892D7F27A7934D6D9794A SWAP1 PUSH1 0x60 ADD PUSH2 0x25F9 JUMP JUMPDEST PUSH1 0x1 PUSH1 0x1 PUSH1 0xA0 SHL SUB DUP5 AND PUSH2 0x270A JUMPI PUSH1 0x40 MLOAD PUSH4 0x2BFA23E7 PUSH1 0xE1 SHL DUP2 MSTORE PUSH1 0x0 PUSH1 0x4 DUP3 ADD MSTORE PUSH1 0x24 ADD PUSH2 0x9AD JUMP JUMPDEST PUSH1 0x1 PUSH1 0x1 PUSH1 0xA0 SHL SUB DUP6 AND PUSH2 0x2733 JUMPI PUSH1 0x40 MLOAD PUSH3 0x6A0D45 PUSH1 0xE2 SHL DUP2 MSTORE PUSH1 0x0 PUSH1 0x4 DUP3 ADD MSTORE PUSH1 0x24 ADD PUSH2 0x9AD JUMP JUMPDEST PUSH2 0x2740 DUP6 DUP6 DUP6 DUP6 DUP6 PUSH2 0x39F7 JUMP JUMPDEST POP POP POP POP POP JUMP JUMPDEST CALLVALUE PUSH5 0xE8D4A51000 EQ PUSH2 0x27C1 JUMPI PUSH1 0x40 MLOAD PUSH3 0x461BCD PUSH1 0xE5 SHL DUP2 MSTORE PUSH1 0x20 PUSH1 0x4 DUP3 ADD MSTORE PUSH1 0x2D PUSH1 0x24 DUP3 ADD MSTORE PUSH32 0x596F75206E65656420746F2070617920302E3030303030312065746865722074 PUSH1 0x44 DUP3 ADD MSTORE PUSH32 0x6F206F70656E2061207061636B00000000000000000000000000000000000000 PUSH1 0x64 DUP3 ADD MSTORE PUSH1 0x84 ADD PUSH2 0x9AD JUMP JUMPDEST PUSH1 0x0 PUSH2 0x27CB PUSH2 0x433E JUMP JUMPDEST SWAP1 POP PUSH1 0x0 PUSH2 0x27D8 DUP3 PUSH2 0x438F JUMP JUMPDEST SWAP1 POP PUSH1 0x0 PUSH2 0x27E4 PUSH2 0x43D4 JUMP JUMPDEST SWAP1 POP PUSH1 0x0 PUSH2 0x27F1 DUP3 PUSH2 0x4424 JUMP JUMPDEST SWAP1 POP PUSH1 0x0 PUSH2 0x27FF DUP5 DUP4 PUSH2 0x5E0D JUMP JUMPDEST SWAP1 POP PUSH2 0x2740 DUP2 PUSH2 0x4461 JUMP JUMPDEST PUSH1 0x0 DUP1 PUSH1 0xB PUSH2 0x281A PUSH1 0x1 DUP6 PUSH2 0x5BE4 JUMP JUMPDEST DUP2 SLOAD DUP2 LT PUSH2 0x282A JUMPI PUSH2 0x282A PUSH2 0x5BF7 JUMP JUMPDEST PUSH1 0x0 SWAP2 DUP3 MSTORE PUSH1 0x20 SWAP2 DUP3 SWAP1 KECCAK256 PUSH1 0x40 DUP1 MLOAD PUSH2 0x1A0 DUP2 ADD DUP3 MSTORE PUSH1 0xC SWAP1 SWAP4 MUL SWAP1 SWAP2 ADD DUP1 SLOAD DUP4 MSTORE PUSH1 0x1 DUP2 ADD SLOAD PUSH1 0x1 PUSH1 0x1 PUSH1 0xA0 SHL SUB SWAP1 DUP2 AND DUP5 DUP7 ADD MSTORE PUSH1 0x2 DUP3 ADD SLOAD AND DUP4 DUP4 ADD MSTORE PUSH1 0x3 DUP2 ADD SLOAD PUSH1 0x60 DUP5 ADD MSTORE PUSH1 0x4 DUP2 ADD SLOAD PUSH1 0x80 DUP5 ADD MSTORE PUSH1 0x5 DUP2 ADD SLOAD PUSH1 0xA0 DUP5 ADD MSTORE PUSH1 0x6 DUP2 ADD SLOAD PUSH1 0xC0 DUP5 ADD MSTORE PUSH1 0x7 DUP2 ADD DUP1 SLOAD DUP4 MLOAD DUP2 DUP8 MUL DUP2 ADD DUP8 ADD SWAP1 SWAP5 MSTORE DUP1 DUP5 MSTORE SWAP4 SWAP5 SWAP2 SWAP4 PUSH1 0xE0 DUP7 ADD SWAP4 SWAP3 DUP4 ADD DUP3 DUP3 DUP1 ISZERO PUSH2 0x28E0 JUMPI PUSH1 0x20 MUL DUP3 ADD SWAP2 SWAP1 PUSH1 0x0 MSTORE PUSH1 0x20 PUSH1 0x0 KECCAK256 SWAP1 JUMPDEST DUP2 SLOAD DUP2 MSTORE PUSH1 0x20 ADD SWAP1 PUSH1 0x1 ADD SWAP1 DUP1 DUP4 GT PUSH2 0x28CC JUMPI JUMPDEST POP POP POP POP POP DUP2 MSTORE PUSH1 0x20 ADD PUSH1 0x8 DUP3 ADD DUP1 SLOAD DUP1 PUSH1 0x20 MUL PUSH1 0x20 ADD PUSH1 0x40 MLOAD SWAP1 DUP2 ADD PUSH1 0x40 MSTORE DUP1 SWAP3 SWAP2 SWAP1 DUP2 DUP2 MSTORE PUSH1 0x20 ADD DUP3 DUP1 SLOAD DUP1 ISZERO PUSH2 0x2938 JUMPI PUSH1 0x20 MUL DUP3 ADD SWAP2 SWAP1 PUSH1 0x0 MSTORE PUSH1 0x20 PUSH1 0x0 KECCAK256 SWAP1 JUMPDEST DUP2 SLOAD DUP2 MSTORE PUSH1 0x20 ADD SWAP1 PUSH1 0x1 ADD SWAP1 DUP1 DUP4 GT PUSH2 0x2924 JUMPI JUMPDEST POP POP POP SWAP2 DUP4 MSTORE POP POP PUSH1 0x9 DUP3 ADD SLOAD PUSH1 0x1 PUSH1 0x1 PUSH1 0xA0 SHL SUB SWAP1 DUP2 AND PUSH1 0x20 DUP4 ADD MSTORE PUSH1 0xA DUP4 ADD SLOAD SWAP1 DUP2 AND PUSH1 0x40 DUP4 ADD MSTORE PUSH1 0x1 PUSH1 0xA0 SHL SWAP1 DIV PUSH1 0xFF AND ISZERO ISZERO PUSH1 0x60 DUP3 ADD MSTORE PUSH1 0xB DUP3 ADD DUP1 SLOAD PUSH1 0x80 SWAP1 SWAP3 ADD SWAP2 PUSH2 0x2988 SWAP1 PUSH2 0x5B94 JUMP JUMPDEST DUP1 PUSH1 0x1F ADD PUSH1 0x20 DUP1 SWAP2 DIV MUL PUSH1 0x20 ADD PUSH1 0x40 MLOAD SWAP1 DUP2 ADD PUSH1 0x40 MSTORE DUP1 SWAP3 SWAP2 SWAP1 DUP2 DUP2 MSTORE PUSH1 0x20 ADD DUP3 DUP1 SLOAD PUSH2 0x29B4 SWAP1 PUSH2 0x5B94 JUMP JUMPDEST DUP1 ISZERO PUSH2 0x2A01 JUMPI DUP1 PUSH1 0x1F LT PUSH2 0x29D6 JUMPI PUSH2 0x100 DUP1 DUP4 SLOAD DIV MUL DUP4 MSTORE SWAP2 PUSH1 0x20 ADD SWAP2 PUSH2 0x2A01 JUMP JUMPDEST DUP3 ADD SWAP2 SWAP1 PUSH1 0x0 MSTORE PUSH1 0x20 PUSH1 0x0 KECCAK256 SWAP1 JUMPDEST DUP2 SLOAD DUP2 MSTORE SWAP1 PUSH1 0x1 ADD SWAP1 PUSH1 0x20 ADD DUP1 DUP4 GT PUSH2 0x29E4 JUMPI DUP3 SWAP1 SUB PUSH1 0x1F AND DUP3 ADD SWAP2 JUMPDEST POP POP POP POP POP DUP2 MSTORE POP POP SWAP1 POP DUP1 PUSH1 0x20 ADD MLOAD PUSH1 0x1 PUSH1 0x1 PUSH1 0xA0 SHL SUB AND PUSH2 0x8FC DUP3 PUSH1 0xA0 ADD MLOAD SWAP1 DUP2 ISZERO MUL SWAP1 PUSH1 0x40 MLOAD PUSH1 0x0 PUSH1 0x40 MLOAD DUP1 DUP4 SUB DUP2 DUP6 DUP9 DUP9 CALL SWAP4 POP POP POP POP ISZERO DUP1 ISZERO PUSH2 0x2A4D JUMPI RETURNDATASIZE PUSH1 0x0 DUP1 RETURNDATACOPY RETURNDATASIZE PUSH1 0x0 REVERT JUMPDEST POP PUSH1 0x20 DUP1 DUP3 ADD MLOAD PUSH1 0x1 PUSH1 0x1 PUSH1 0xA0 SHL SUB AND PUSH1 0x0 SWAP1 DUP2 MSTORE PUSH1 0xA DUP3 MSTORE PUSH1 0x40 DUP1 DUP3 KECCAK256 PUSH1 0x60 DUP6 ADD MLOAD DUP4 MSTORE SWAP1 SWAP3 MSTORE KECCAK256 SLOAD PUSH2 0x2A82 SWAP1 PUSH1 0x1 PUSH2 0x455A JUMP JUMPDEST PUSH1 0x20 DUP1 DUP4 ADD MLOAD PUSH1 0x1 PUSH1 0x1 PUSH1 0xA0 SHL SUB SWAP1 DUP2 AND PUSH1 0x0 SWAP1 DUP2 MSTORE PUSH1 0xA DUP4 MSTORE PUSH1 0x40 DUP1 DUP3 KECCAK256 PUSH1 0x60 DUP8 ADD MLOAD DUP4 MSTORE SWAP1 SWAP4 MSTORE DUP3 DUP2 KECCAK256 SWAP4 SWAP1 SWAP4 SSTORE DUP2 DUP5 ADD MLOAD PUSH1 0xC0 DUP6 ADD MLOAD SWAP3 MLOAD SWAP2 AND SWAP3 DUP3 ISZERO PUSH2 0x8FC MUL SWAP3 SWAP2 SWAP1 DUP2 DUP2 DUP2 DUP6 DUP9 DUP9 CALL SWAP4 POP POP POP POP ISZERO DUP1 ISZERO PUSH2 0x2AE6 JUMPI RETURNDATASIZE PUSH1 0x0 DUP1 RETURNDATACOPY RETURNDATASIZE PUSH1 0x0 REVERT JUMPDEST POP PUSH1 0x40 DUP1 DUP3 ADD MLOAD PUSH1 0x1 PUSH1 0x1 PUSH1 0xA0 SHL SUB AND PUSH1 0x0 SWAP1 DUP2 MSTORE PUSH1 0xA PUSH1 0x20 SWAP1 DUP2 MSTORE DUP3 DUP3 KECCAK256 PUSH1 0x80 DUP6 ADD MLOAD DUP4 MSTORE SWAP1 MSTORE KECCAK256 SLOAD PUSH2 0x2B1B SWAP1 PUSH1 0x1 PUSH2 0x455A JUMP JUMPDEST PUSH1 0x40 DUP1 DUP4 ADD MLOAD PUSH1 0x1 PUSH1 0x1 PUSH1 0xA0 SHL SUB AND PUSH1 0x0 SWAP1 DUP2 MSTORE PUSH1 0xA PUSH1 0x20 SWAP1 DUP2 MSTORE DUP3 DUP3 KECCAK256 PUSH1 0x80 DUP7 ADD MLOAD DUP4 MSTORE DUP2 MSTORE SWAP1 DUP3 SWAP1 KECCAK256 SWAP3 SWAP1 SWAP3 SSTORE DUP1 MLOAD DUP1 DUP3 ADD SWAP1 SWAP2 MSTORE PUSH1 0x8 DUP2 MSTORE PUSH32 0x63616E63656C6564000000000000000000000000000000000000000000000000 SWAP2 DUP2 ADD SWAP2 SWAP1 SWAP2 MSTORE PUSH2 0x180 DUP3 ADD MSTORE DUP1 PUSH1 0xB PUSH2 0x2B92 PUSH1 0x1 DUP7 PUSH2 0x5BE4 JUMP JUMPDEST DUP2 SLOAD DUP2 LT PUSH2 0x2BA2 JUMPI PUSH2 0x2BA2 PUSH2 0x5BF7 JUMP JUMPDEST PUSH1 0x0 SWAP2 DUP3 MSTORE PUSH1 0x20 SWAP2 DUP3 SWAP1 KECCAK256 DUP4 MLOAD PUSH1 0xC SWAP1 SWAP3 MUL ADD SWAP1 DUP2 SSTORE DUP3 DUP3 ADD MLOAD PUSH1 0x1 DUP3 ADD DUP1 SLOAD PUSH1 0x1 PUSH1 0x1 PUSH1 0xA0 SHL SUB SWAP3 DUP4 AND PUSH1 0x1 PUSH1 0x1 PUSH1 0xA0 SHL SUB NOT SWAP2 DUP3 AND OR SWAP1 SWAP2 SSTORE PUSH1 0x40 DUP6 ADD MLOAD PUSH1 0x2 DUP5 ADD DUP1 SLOAD SWAP2 SWAP1 SWAP4 AND SWAP2 AND OR SWAP1 SSTORE PUSH1 0x60 DUP4 ADD MLOAD PUSH1 0x3 DUP3 ADD SSTORE PUSH1 0x80 DUP4 ADD MLOAD PUSH1 0x4 DUP3 ADD SSTORE PUSH1 0xA0 DUP4 ADD MLOAD PUSH1 0x5 DUP3 ADD SSTORE PUSH1 0xC0 DUP4 ADD MLOAD PUSH1 0x6 DUP3 ADD SSTORE PUSH1 0xE0 DUP4 ADD MLOAD DUP1 MLOAD SWAP2 SWAP3 PUSH2 0x2C34 SWAP3 PUSH1 0x7 DUP6 ADD SWAP3 SWAP1 SWAP2 ADD SWAP1 PUSH2 0x5229 JUMP JUMPDEST POP PUSH2 0x100 DUP3 ADD MLOAD DUP1 MLOAD PUSH2 0x2C51 SWAP2 PUSH1 0x8 DUP5 ADD SWAP2 PUSH1 0x20 SWAP1 SWAP2 ADD SWAP1 PUSH2 0x5229 JUMP JUMPDEST POP PUSH2 0x120 DUP3 ADD MLOAD PUSH1 0x9 DUP3 ADD DUP1 SLOAD PUSH1 0x1 PUSH1 0x1 PUSH1 0xA0 SHL SUB NOT AND PUSH1 0x1 PUSH1 0x1 PUSH1 0xA0 SHL SUB SWAP3 DUP4 AND OR SWAP1 SSTORE PUSH2 0x140 DUP4 ADD MLOAD PUSH1 0xA DUP4 ADD DUP1 SLOAD PUSH2 0x160 DUP7 ADD MLOAD SWAP3 SWAP1 SWAP4 AND PUSH1 0x1 PUSH1 0x1 PUSH1 0xA8 SHL SUB NOT SWAP1 SWAP4 AND SWAP3 SWAP1 SWAP3 OR PUSH1 0x1 PUSH1 0xA0 SHL SWAP2 ISZERO ISZERO SWAP2 SWAP1 SWAP2 MUL OR SWAP1 SSTORE PUSH2 0x180 DUP3 ADD MLOAD PUSH1 0xB DUP3 ADD SWAP1 PUSH2 0x2CC0 SWAP1 DUP3 PUSH2 0x5D4D JUMP JUMPDEST POP PUSH1 0x1 SWAP6 SWAP5 POP POP POP POP POP JUMP JUMPDEST PUSH1 0xB SLOAD PUSH1 0x60 SWAP1 PUSH1 0x0 SWAP1 PUSH8 0xFFFFFFFFFFFFFFFF DUP2 GT ISZERO PUSH2 0x2CED JUMPI PUSH2 0x2CED PUSH2 0x5316 JUMP JUMPDEST PUSH1 0x40 MLOAD SWAP1 DUP1 DUP3 MSTORE DUP1 PUSH1 0x20 MUL PUSH1 0x20 ADD DUP3 ADD PUSH1 0x40 MSTORE DUP1 ISZERO PUSH2 0x2DAF JUMPI DUP2 PUSH1 0x20 ADD JUMPDEST PUSH2 0x2D9C PUSH1 0x40 MLOAD DUP1 PUSH2 0x1A0 ADD PUSH1 0x40 MSTORE DUP1 PUSH1 0x0 DUP2 MSTORE PUSH1 0x20 ADD PUSH1 0x0 PUSH1 0x1 PUSH1 0x1 PUSH1 0xA0 SHL SUB AND DUP2 MSTORE PUSH1 0x20 ADD PUSH1 0x0 PUSH1 0x1 PUSH1 0x1 PUSH1 0xA0 SHL SUB AND DUP2 MSTORE PUSH1 0x20 ADD PUSH1 0x0 DUP2 MSTORE PUSH1 0x20 ADD PUSH1 0x0 DUP2 MSTORE PUSH1 0x20 ADD PUSH1 0x0 DUP2 MSTORE PUSH1 0x20 ADD PUSH1 0x0 DUP2 MSTORE PUSH1 0x20 ADD PUSH1 0x60 DUP2 MSTORE PUSH1 0x20 ADD PUSH1 0x60 DUP2 MSTORE PUSH1 0x20 ADD PUSH1 0x0 PUSH1 0x1 PUSH1 0x1 PUSH1 0xA0 SHL SUB AND DUP2 MSTORE PUSH1 0x20 ADD PUSH1 0x0 PUSH1 0x1 PUSH1 0x1 PUSH1 0xA0 SHL SUB AND DUP2 MSTORE PUSH1 0x20 ADD PUSH1 0x0 ISZERO ISZERO DUP2 MSTORE PUSH1 0x20 ADD PUSH1 0x60 DUP2 MSTORE POP SWAP1 JUMP JUMPDEST DUP2 MSTORE PUSH1 0x20 ADD SWAP1 PUSH1 0x1 SWAP1 SUB SWAP1 DUP2 PUSH2 0x2D0B JUMPI SWAP1 POP JUMPDEST POP SWAP1 POP PUSH1 0x0 DUP1 JUMPDEST PUSH1 0xB SLOAD DUP2 LT ISZERO PUSH2 0x3073 JUMPI CALLER PUSH1 0x1 PUSH1 0x1 PUSH1 0xA0 SHL SUB AND PUSH1 0xB DUP3 DUP2 SLOAD DUP2 LT PUSH2 0x2DDD JUMPI PUSH2 0x2DDD PUSH2 0x5BF7 JUMP JUMPDEST PUSH1 0x0 SWAP2 DUP3 MSTORE PUSH1 0x20 SWAP1 SWAP2 KECCAK256 PUSH1 0x1 PUSH1 0xC SWAP1 SWAP3 MUL ADD ADD SLOAD PUSH1 0x1 PUSH1 0x1 PUSH1 0xA0 SHL SUB AND EQ DUP1 PUSH2 0x2E3D JUMPI POP CALLER PUSH1 0x1 PUSH1 0x1 PUSH1 0xA0 SHL SUB AND PUSH1 0xB DUP3 DUP2 SLOAD DUP2 LT PUSH2 0x2E1E JUMPI PUSH2 0x2E1E PUSH2 0x5BF7 JUMP JUMPDEST PUSH1 0x0 SWAP2 DUP3 MSTORE PUSH1 0x20 SWAP1 SWAP2 KECCAK256 PUSH1 0x2 PUSH1 0xC SWAP1 SWAP3 MUL ADD ADD SLOAD PUSH1 0x1 PUSH1 0x1 PUSH1 0xA0 SHL SUB AND EQ JUMPDEST ISZERO PUSH2 0x3061 JUMPI PUSH1 0xB DUP2 DUP2 SLOAD DUP2 LT PUSH2 0x2E55 JUMPI PUSH2 0x2E55 PUSH2 0x5BF7 JUMP JUMPDEST PUSH1 0x0 SWAP2 DUP3 MSTORE PUSH1 0x20 SWAP2 DUP3 SWAP1 KECCAK256 PUSH1 0x40 DUP1 MLOAD PUSH2 0x1A0 DUP2 ADD DUP3 MSTORE PUSH1 0xC SWAP1 SWAP4 MUL SWAP1 SWAP2 ADD DUP1 SLOAD DUP4 MSTORE PUSH1 0x1 DUP2 ADD SLOAD PUSH1 0x1 PUSH1 0x1 PUSH1 0xA0 SHL SUB SWAP1 DUP2 AND DUP5 DUP7 ADD MSTORE PUSH1 0x2 DUP3 ADD SLOAD AND DUP4 DUP4 ADD MSTORE PUSH1 0x3 DUP2 ADD SLOAD PUSH1 0x60 DUP5 ADD MSTORE PUSH1 0x4 DUP2 ADD SLOAD PUSH1 0x80 DUP5 ADD MSTORE PUSH1 0x5 DUP2 ADD SLOAD PUSH1 0xA0 DUP5 ADD MSTORE PUSH1 0x6 DUP2 ADD SLOAD PUSH1 0xC0 DUP5 ADD MSTORE PUSH1 0x7 DUP2 ADD DUP1 SLOAD DUP4 MLOAD DUP2 DUP8 MUL DUP2 ADD DUP8 ADD SWAP1 SWAP5 MSTORE DUP1 DUP5 MSTORE SWAP4 SWAP5 SWAP2 SWAP4 PUSH1 0xE0 DUP7 ADD SWAP4 SWAP3 DUP4 ADD DUP3 DUP3 DUP1 ISZERO PUSH2 0x2F0B JUMPI PUSH1 0x20 MUL DUP3 ADD SWAP2 SWAP1 PUSH1 0x0 MSTORE PUSH1 0x20 PUSH1 0x0 KECCAK256 SWAP1 JUMPDEST DUP2 SLOAD DUP2 MSTORE PUSH1 0x20 ADD SWAP1 PUSH1 0x1 ADD SWAP1 DUP1 DUP4 GT PUSH2 0x2EF7 JUMPI JUMPDEST POP POP POP POP POP DUP2 MSTORE PUSH1 0x20 ADD PUSH1 0x8 DUP3 ADD DUP1 SLOAD DUP1 PUSH1 0x20 MUL PUSH1 0x20 ADD PUSH1 0x40 MLOAD SWAP1 DUP2 ADD PUSH1 0x40 MSTORE DUP1 SWAP3 SWAP2 SWAP1 DUP2 DUP2 MSTORE PUSH1 0x20 ADD DUP3 DUP1 SLOAD DUP1 ISZERO PUSH2 0x2F63 JUMPI PUSH1 0x20 MUL DUP3 ADD SWAP2 SWAP1 PUSH1 0x0 MSTORE PUSH1 0x20 PUSH1 0x0 KECCAK256 SWAP1 JUMPDEST DUP2 SLOAD DUP2 MSTORE PUSH1 0x20 ADD SWAP1 PUSH1 0x1 ADD SWAP1 DUP1 DUP4 GT PUSH2 0x2F4F JUMPI JUMPDEST POP POP POP SWAP2 DUP4 MSTORE POP POP PUSH1 0x9 DUP3 ADD SLOAD PUSH1 0x1 PUSH1 0x1 PUSH1 0xA0 SHL SUB SWAP1 DUP2 AND PUSH1 0x20 DUP4 ADD MSTORE PUSH1 0xA DUP4 ADD SLOAD SWAP1 DUP2 AND PUSH1 0x40 DUP4 ADD MSTORE PUSH1 0x1 PUSH1 0xA0 SHL SWAP1 DIV PUSH1 0xFF AND ISZERO ISZERO PUSH1 0x60 DUP3 ADD MSTORE PUSH1 0xB DUP3 ADD DUP1 SLOAD PUSH1 0x80 SWAP1 SWAP3 ADD SWAP2 PUSH2 0x2FB3 SWAP1 PUSH2 0x5B94 JUMP JUMPDEST DUP1 PUSH1 0x1F ADD PUSH1 0x20 DUP1 SWAP2 DIV MUL PUSH1 0x20 ADD PUSH1 0x40 MLOAD SWAP1 DUP2 ADD PUSH1 0x40 MSTORE DUP1 SWAP3 SWAP2 SWAP1 DUP2 DUP2 MSTORE PUSH1 0x20 ADD DUP3 DUP1 SLOAD PUSH2 0x2FDF SWAP1 PUSH2 0x5B94 JUMP JUMPDEST DUP1 ISZERO PUSH2 0x302C JUMPI DUP1 PUSH1 0x1F LT PUSH2 0x3001 JUMPI PUSH2 0x100 DUP1 DUP4 SLOAD DIV MUL DUP4 MSTORE SWAP2 PUSH1 0x20 ADD SWAP2 PUSH2 0x302C JUMP JUMPDEST DUP3 ADD SWAP2 SWAP1 PUSH1 0x0 MSTORE PUSH1 0x20 PUSH1 0x0 KECCAK256 SWAP1 JUMPDEST DUP2 SLOAD DUP2 MSTORE SWAP1 PUSH1 0x1 ADD SWAP1 PUSH1 0x20 ADD DUP1 DUP4 GT PUSH2 0x300F JUMPI DUP3 SWAP1 SUB PUSH1 0x1F AND DUP3 ADD SWAP2 JUMPDEST POP POP POP POP POP DUP2 MSTORE POP POP DUP4 DUP4 DUP2 MLOAD DUP2 LT PUSH2 0x3047 JUMPI PUSH2 0x3047 PUSH2 0x5BF7 JUMP JUMPDEST PUSH1 0x20 MUL PUSH1 0x20 ADD ADD DUP2 SWAP1 MSTORE POP DUP2 DUP1 PUSH2 0x305D SWAP1 PUSH2 0x5C83 JUMP JUMPDEST SWAP3 POP POP JUMPDEST DUP1 PUSH2 0x306B DUP2 PUSH2 0x5C83 JUMP JUMPDEST SWAP2 POP POP PUSH2 0x2DB6 JUMP JUMPDEST POP SWAP1 SWAP3 SWAP2 POP POP JUMP JUMPDEST CALLER PUSH1 0x0 SWAP1 DUP2 MSTORE PUSH1 0xA PUSH1 0x20 SWAP1 DUP2 MSTORE PUSH1 0x40 DUP1 DUP4 KECCAK256 DUP7 DUP5 MSTORE SWAP1 SWAP2 MSTORE DUP2 KECCAK256 SLOAD PUSH2 0x30A1 SWAP1 PUSH1 0x1 PUSH2 0x4576 JUMP JUMPDEST CALLER PUSH1 0x0 SWAP1 DUP2 MSTORE PUSH1 0xA PUSH1 0x20 SWAP1 DUP2 MSTORE PUSH1 0x40 DUP1 DUP4 KECCAK256 DUP9 DUP5 MSTORE SWAP1 SWAP2 MSTORE DUP2 KECCAK256 SWAP2 SWAP1 SWAP2 SSTORE PUSH1 0xB PUSH2 0x30CC PUSH1 0x1 DUP7 PUSH2 0x5BE4 JUMP JUMPDEST DUP2 SLOAD DUP2 LT PUSH2 0x30DC JUMPI PUSH2 0x30DC PUSH2 0x5BF7 JUMP JUMPDEST PUSH1 0x0 SWAP2 DUP3 MSTORE PUSH1 0x20 SWAP2 DUP3 SWAP1 KECCAK256 PUSH1 0x40 DUP1 MLOAD PUSH2 0x1A0 DUP2 ADD DUP3 MSTORE PUSH1 0xC SWAP1 SWAP4 MUL SWAP1 SWAP2 ADD DUP1 SLOAD DUP4 MSTORE PUSH1 0x1 DUP2 ADD SLOAD PUSH1 0x1 PUSH1 0x1 PUSH1 0xA0 SHL SUB SWAP1 DUP2 AND DUP5 DUP7 ADD MSTORE PUSH1 0x2 DUP3 ADD SLOAD AND DUP4 DUP4 ADD MSTORE PUSH1 0x3 DUP2 ADD SLOAD PUSH1 0x60 DUP5 ADD MSTORE PUSH1 0x4 DUP2 ADD SLOAD PUSH1 0x80 DUP5 ADD MSTORE PUSH1 0x5 DUP2 ADD SLOAD PUSH1 0xA0 DUP5 ADD MSTORE PUSH1 0x6 DUP2 ADD SLOAD PUSH1 0xC0 DUP5 ADD MSTORE PUSH1 0x7 DUP2 ADD DUP1 SLOAD DUP4 MLOAD DUP2 DUP8 MUL DUP2 ADD DUP8 ADD SWAP1 SWAP5 MSTORE DUP1 DUP5 MSTORE SWAP4 SWAP5 SWAP2 SWAP4 PUSH1 0xE0 DUP7 ADD SWAP4 SWAP3 DUP4 ADD DUP3 DUP3 DUP1 ISZERO PUSH2 0x3192 JUMPI PUSH1 0x20 MUL DUP3 ADD SWAP2 SWAP1 PUSH1 0x0 MSTORE PUSH1 0x20 PUSH1 0x0 KECCAK256 SWAP1 JUMPDEST DUP2 SLOAD DUP2 MSTORE PUSH1 0x20 ADD SWAP1 PUSH1 0x1 ADD SWAP1 DUP1 DUP4 GT PUSH2 0x317E JUMPI JUMPDEST POP POP POP POP POP DUP2 MSTORE PUSH1 0x20 ADD PUSH1 0x8 DUP3 ADD DUP1 SLOAD DUP1 PUSH1 0x20 MUL PUSH1 0x20 ADD PUSH1 0x40 MLOAD SWAP1 DUP2 ADD PUSH1 0x40 MSTORE DUP1 SWAP3 SWAP2 SWAP1 DUP2 DUP2 MSTORE PUSH1 0x20 ADD DUP3 DUP1 SLOAD DUP1 ISZERO PUSH2 0x31EA JUMPI PUSH1 0x20 MUL DUP3 ADD SWAP2 SWAP1 PUSH1 0x0 MSTORE PUSH1 0x20 PUSH1 0x0 KECCAK256 SWAP1 JUMPDEST DUP2 SLOAD DUP2 MSTORE PUSH1 0x20 ADD SWAP1 PUSH1 0x1 ADD SWAP1 DUP1 DUP4 GT PUSH2 0x31D6 JUMPI JUMPDEST POP POP POP SWAP2 DUP4 MSTORE POP POP PUSH1 0x9 DUP3 ADD SLOAD PUSH1 0x1 PUSH1 0x1 PUSH1 0xA0 SHL SUB SWAP1 DUP2 AND PUSH1 0x20 DUP4 ADD MSTORE PUSH1 0xA DUP4 ADD SLOAD SWAP1 DUP2 AND PUSH1 0x40 DUP4 ADD MSTORE PUSH1 0x1 PUSH1 0xA0 SHL SWAP1 DIV PUSH1 0xFF AND ISZERO ISZERO PUSH1 0x60 DUP3 ADD MSTORE PUSH1 0xB DUP3 ADD DUP1 SLOAD PUSH1 0x80 SWAP1 SWAP3 ADD SWAP2 PUSH2 0x323A SWAP1 PUSH2 0x5B94 JUMP JUMPDEST DUP1 PUSH1 0x1F ADD PUSH1 0x20 DUP1 SWAP2 DIV MUL PUSH1 0x20 ADD PUSH1 0x40 MLOAD SWAP1 DUP2 ADD PUSH1 0x40 MSTORE DUP1 SWAP3 SWAP2 SWAP1 DUP2 DUP2 MSTORE PUSH1 0x20 ADD DUP3 DUP1 SLOAD PUSH2 0x3266 SWAP1 PUSH2 0x5B94 JUMP JUMPDEST DUP1 ISZERO PUSH2 0x32B3 JUMPI DUP1 PUSH1 0x1F LT PUSH2 0x3288 JUMPI PUSH2 0x100 DUP1 DUP4 SLOAD DIV MUL DUP4 MSTORE SWAP2 PUSH1 0x20 ADD SWAP2 PUSH2 0x32B3 JUMP JUMPDEST DUP3 ADD SWAP2 SWAP1 PUSH1 0x0 MSTORE PUSH1 0x20 PUSH1 0x0 KECCAK256 SWAP1 JUMPDEST DUP2 SLOAD DUP2 MSTORE SWAP1 PUSH1 0x1 ADD SWAP1 PUSH1 0x20 ADD DUP1 DUP4 GT PUSH2 0x3296 JUMPI DUP3 SWAP1 SUB PUSH1 0x1F AND DUP3 ADD SWAP2 JUMPDEST POP POP POP SWAP2 SWAP1 SWAP3 MSTORE POP POP CALLER PUSH1 0x40 DUP1 DUP5 ADD SWAP2 SWAP1 SWAP2 MSTORE PUSH1 0x80 DUP4 ADD DUP9 SWAP1 MSTORE CALLVALUE PUSH1 0xC0 DUP5 ADD MSTORE PUSH2 0x100 DUP4 ADD DUP7 SWAP1 MSTORE DUP1 MLOAD DUP1 DUP3 ADD SWAP1 SWAP2 MSTORE PUSH1 0x6 DUP2 MSTORE PUSH6 0x776169745031 PUSH1 0xD0 SHL PUSH1 0x20 DUP3 ADD MSTORE PUSH2 0x180 DUP4 ADD MSTORE POP SWAP1 POP DUP1 PUSH1 0xB PUSH2 0x330D PUSH1 0x1 DUP8 PUSH2 0x5BE4 JUMP JUMPDEST DUP2 SLOAD DUP2 LT PUSH2 0x331D JUMPI PUSH2 0x331D PUSH2 0x5BF7 JUMP JUMPDEST PUSH1 0x0 SWAP2 DUP3 MSTORE PUSH1 0x20 SWAP2 DUP3 SWAP1 KECCAK256 DUP4 MLOAD PUSH1 0xC SWAP1 SWAP3 MUL ADD SWAP1 DUP2 SSTORE DUP3 DUP3 ADD MLOAD PUSH1 0x1 DUP3 ADD DUP1 SLOAD PUSH1 0x1 PUSH1 0x1 PUSH1 0xA0 SHL SUB SWAP3 DUP4 AND PUSH1 0x1 PUSH1 0x1 PUSH1 0xA0 SHL SUB NOT SWAP2 DUP3 AND OR SWAP1 SWAP2 SSTORE PUSH1 0x40 DUP6 ADD MLOAD PUSH1 0x2 DUP5 ADD DUP1 SLOAD SWAP2 SWAP1 SWAP4 AND SWAP2 AND OR SWAP1 SSTORE PUSH1 0x60 DUP4 ADD MLOAD PUSH1 0x3 DUP3 ADD SSTORE PUSH1 0x80 DUP4 ADD MLOAD PUSH1 0x4 DUP3 ADD SSTORE PUSH1 0xA0 DUP4 ADD MLOAD PUSH1 0x5 DUP3 ADD SSTORE PUSH1 0xC0 DUP4 ADD MLOAD PUSH1 0x6 DUP3 ADD SSTORE PUSH1 0xE0 DUP4 ADD MLOAD DUP1 MLOAD SWAP2 SWAP3 PUSH2 0x33AF SWAP3 PUSH1 0x7 DUP6 ADD SWAP3 SWAP1 SWAP2 ADD SWAP1 PUSH2 0x5229 JUMP JUMPDEST POP PUSH2 0x100 DUP3 ADD MLOAD DUP1 MLOAD PUSH2 0x33CC SWAP2 PUSH1 0x8 DUP5 ADD SWAP2 PUSH1 0x20 SWAP1 SWAP2 ADD SWAP1 PUSH2 0x5229 JUMP JUMPDEST POP PUSH2 0x120 DUP3 ADD MLOAD PUSH1 0x9 DUP3 ADD DUP1 SLOAD PUSH1 0x1 PUSH1 0x1 PUSH1 0xA0 SHL SUB NOT AND PUSH1 0x1 PUSH1 0x1 PUSH1 0xA0 SHL SUB SWAP3 DUP4 AND OR SWAP1 SSTORE PUSH2 0x140 DUP4 ADD MLOAD PUSH1 0xA DUP4 ADD DUP1 SLOAD PUSH2 0x160 DUP7 ADD MLOAD SWAP3 SWAP1 SWAP4 AND PUSH1 0x1 PUSH1 0x1 PUSH1 0xA8 SHL SUB NOT SWAP1 SWAP4 AND SWAP3 SWAP1 SWAP3 OR PUSH1 0x1 PUSH1 0xA0 SHL SWAP2 ISZERO ISZERO SWAP2 SWAP1 SWAP2 MUL OR SWAP1 SSTORE PUSH2 0x180 DUP3 ADD MLOAD PUSH1 0xB DUP3 ADD SWAP1 PUSH2 0x343B SWAP1 DUP3 PUSH2 0x5D4D JUMP JUMPDEST POP PUSH1 0x1 SWAP8 SWAP7 POP POP POP POP POP POP POP JUMP JUMPDEST PUSH1 0x5 DUP1 SLOAD PUSH1 0x1 PUSH1 0x1 PUSH1 0xA0 SHL SUB DUP4 DUP2 AND PUSH1 0x1 PUSH1 0x1 PUSH1 0xA0 SHL SUB NOT DUP4 AND DUP2 OR SWAP1 SWAP4 SSTORE PUSH1 0x40 MLOAD SWAP2 AND SWAP2 SWAP1 DUP3 SWAP1 PUSH32 0x8BE0079C531659141344CD1FD0A4F28419497F9722A3DAAFE3B4186F6B6457E0 SWAP1 PUSH1 0x0 SWAP1 LOG3 POP POP JUMP JUMPDEST PUSH1 0x1 PUSH1 0x1 PUSH1 0xA0 SHL SUB DUP5 AND PUSH2 0x34C5 JUMPI PUSH1 0x40 MLOAD PUSH4 0x2BFA23E7 PUSH1 0xE1 SHL DUP2 MSTORE PUSH1 0x0 PUSH1 0x4 DUP3 ADD MSTORE PUSH1 0x24 ADD PUSH2 0x9AD JUMP JUMPDEST PUSH1 0x40 DUP1 MLOAD PUSH1 0x1 DUP1 DUP3 MSTORE PUSH1 0x20 DUP3 ADD DUP7 SWAP1 MSTORE DUP2 DUP4 ADD SWAP1 DUP2 MSTORE PUSH1 0x60 DUP3 ADD DUP6 SWAP1 MSTORE PUSH1 0x80 DUP3 ADD SWAP1 SWAP3 MSTORE SWAP1 PUSH2 0xC90 PUSH1 0x0 DUP8 DUP5 DUP5 DUP8 PUSH2 0x39F7 JUMP JUMPDEST PUSH1 0x1 PUSH1 0x1 PUSH1 0xA0 SHL SUB DUP3 AND PUSH2 0x353B JUMPI PUSH1 0x40 MLOAD PUSH32 0xCED3E10000000000000000000000000000000000000000000000000000000000 DUP2 MSTORE PUSH1 0x0 PUSH1 0x4 DUP3 ADD MSTORE PUSH1 0x24 ADD PUSH2 0x9AD JUMP JUMPDEST PUSH1 0x1 PUSH1 0x1 PUSH1 0xA0 SHL SUB DUP4 DUP2 AND PUSH1 0x0 DUP2 DUP2 MSTORE PUSH1 0x1 PUSH1 0x20 SWAP1 DUP2 MSTORE PUSH1 0x40 DUP1 DUP4 KECCAK256 SWAP5 DUP8 AND DUP1 DUP5 MSTORE SWAP5 DUP3 MSTORE SWAP2 DUP3 SWAP1 KECCAK256 DUP1 SLOAD PUSH1 0xFF NOT AND DUP7 ISZERO ISZERO SWAP1 DUP2 OR SWAP1 SWAP2 SSTORE SWAP2 MLOAD SWAP2 DUP3 MSTORE PUSH32 0x17307EAB39AB6107E8899845AD3D59BD9653F200F220920489CA2B5937696C31 SWAP2 ADD PUSH1 0x40 MLOAD DUP1 SWAP2 SUB SWAP1 LOG3 POP POP POP JUMP JUMPDEST PUSH1 0x60 PUSH1 0x0 PUSH2 0x35B5 DUP4 PUSH2 0x4595 JUMP JUMPDEST PUSH1 0x1 ADD SWAP1 POP PUSH1 0x0 DUP2 PUSH8 0xFFFFFFFFFFFFFFFF DUP2 GT ISZERO PUSH2 0x35D5 JUMPI PUSH2 0x35D5 PUSH2 0x5316 JUMP JUMPDEST PUSH1 0x40 MLOAD SWAP1 DUP1 DUP3 MSTORE DUP1 PUSH1 0x1F ADD PUSH1 0x1F NOT AND PUSH1 0x20 ADD DUP3 ADD PUSH1 0x40 MSTORE DUP1 ISZERO PUSH2 0x35FF JUMPI PUSH1 0x20 DUP3 ADD DUP2 DUP1 CALLDATASIZE DUP4 CALLDATACOPY ADD SWAP1 POP JUMPDEST POP SWAP1 POP DUP2 DUP2 ADD PUSH1 0x20 ADD JUMPDEST PUSH1 0x0 NOT ADD PUSH32 0x3031323334353637383961626364656600000000000000000000000000000000 PUSH1 0xA DUP7 MOD BYTE DUP2 MSTORE8 PUSH1 0xA DUP6 DIV SWAP5 POP DUP5 PUSH2 0x3609 JUMPI POP SWAP4 SWAP3 POP POP POP JUMP JUMPDEST CALLER PUSH1 0x0 SWAP1 DUP2 MSTORE PUSH1 0xA PUSH1 0x20 SWAP1 DUP2 MSTORE PUSH1 0x40 DUP1 DUP4 KECCAK256 DUP5 DUP5 MSTORE SWAP1 SWAP2 MSTORE DUP2 KECCAK256 SLOAD PUSH2 0x366E SWAP1 PUSH1 0x1 PUSH2 0x4576 JUMP JUMPDEST CALLER PUSH1 0x0 SWAP1 DUP2 MSTORE PUSH1 0xA PUSH1 0x20 SWAP1 DUP2 MSTORE PUSH1 0x40 DUP1 DUP4 KECCAK256 DUP7 DUP5 MSTORE SWAP1 SWAP2 MSTORE DUP1 DUP3 KECCAK256 SWAP3 SWAP1 SWAP3 SSTORE DUP2 MLOAD PUSH2 0x1A0 DUP2 ADD SWAP1 SWAP3 MSTORE PUSH1 0xB SLOAD SWAP1 SWAP2 SWAP1 DUP2 SWAP1 PUSH2 0x36AA SWAP1 PUSH1 0x1 PUSH2 0x5E0D JUMP JUMPDEST DUP2 MSTORE CALLER PUSH1 0x20 DUP1 DUP4 ADD SWAP2 SWAP1 SWAP2 MSTORE PUSH1 0x0 PUSH1 0x40 DUP1 DUP5 ADD DUP3 SWAP1 MSTORE PUSH1 0x60 DUP5 ADD DUP9 SWAP1 MSTORE PUSH1 0x80 DUP5 ADD DUP3 SWAP1 MSTORE CALLVALUE PUSH1 0xA0 DUP6 ADD MSTORE PUSH1 0xC0 DUP5 ADD DUP3 SWAP1 MSTORE DUP1 MLOAD DUP3 DUP2 MSTORE DUP1 DUP5 ADD DUP3 MSTORE PUSH1 0xE0 DUP6 ADD MSTORE DUP1 MLOAD DUP3 DUP2 MSTORE SWAP3 DUP4 ADD SWAP1 MSTORE PUSH2 0x100 SWAP1 SWAP3 ADD SWAP2 POP DUP2 MSTORE PUSH1 0x0 PUSH1 0x20 DUP1 DUP4 ADD DUP3 SWAP1 MSTORE PUSH1 0x40 DUP1 DUP5 ADD DUP4 SWAP1 MSTORE PUSH1 0x60 DUP1 DUP6 ADD DUP5 SWAP1 MSTORE DUP2 MLOAD DUP1 DUP4 ADD DUP4 MSTORE PUSH1 0x6 DUP2 MSTORE PUSH6 0x3BB0B4BA2819 PUSH1 0xD1 SHL DUP2 DUP6 ADD MSTORE PUSH1 0x80 SWAP6 DUP7 ADD MSTORE PUSH1 0xB DUP1 SLOAD PUSH1 0x1 DUP2 ADD DUP3 SSTORE SWAP5 MSTORE DUP6 MLOAD PUSH32 0x175B7A638427703F0DBE7BB9BBF987A2551717B34E79F33B5B1008D1FA01DB9 PUSH1 0xC SWAP1 SWAP6 MUL SWAP5 DUP6 ADD SWAP1 DUP2 SSTORE DUP7 DUP5 ADD MLOAD PUSH32 0x175B7A638427703F0DBE7BB9BBF987A2551717B34E79F33B5B1008D1FA01DBA DUP7 ADD DUP1 SLOAD PUSH1 0x1 PUSH1 0x1 PUSH1 0xA0 SHL SUB NOT SWAP1 DUP2 AND PUSH1 0x1 PUSH1 0x1 PUSH1 0xA0 SHL SUB SWAP4 DUP5 AND OR SWAP1 SWAP2 SSTORE SWAP4 DUP9 ADD MLOAD PUSH32 0x175B7A638427703F0DBE7BB9BBF987A2551717B34E79F33B5B1008D1FA01DBB DUP8 ADD DUP1 SLOAD SWAP1 SWAP6 AND SWAP2 AND OR SWAP1 SWAP3 SSTORE DUP6 ADD MLOAD PUSH32 0x175B7A638427703F0DBE7BB9BBF987A2551717B34E79F33B5B1008D1FA01DBC DUP5 ADD SSTORE SWAP3 DUP5 ADD MLOAD PUSH32 0x175B7A638427703F0DBE7BB9BBF987A2551717B34E79F33B5B1008D1FA01DBD DUP4 ADD SSTORE PUSH1 0xA0 DUP5 ADD MLOAD PUSH32 0x175B7A638427703F0DBE7BB9BBF987A2551717B34E79F33B5B1008D1FA01DBE DUP4 ADD SSTORE PUSH1 0xC0 DUP5 ADD MLOAD PUSH32 0x175B7A638427703F0DBE7BB9BBF987A2551717B34E79F33B5B1008D1FA01DBF DUP4 ADD SSTORE PUSH1 0xE0 DUP5 ADD MLOAD DUP1 MLOAD SWAP5 SWAP6 POP DUP6 SWAP5 PUSH2 0x38C5 SWAP4 PUSH32 0x175B7A638427703F0DBE7BB9BBF987A2551717B34E79F33B5B1008D1FA01DC0 ADD SWAP3 SWAP2 SWAP1 SWAP2 ADD SWAP1 PUSH2 0x5229 JUMP JUMPDEST POP PUSH2 0x100 DUP3 ADD MLOAD DUP1 MLOAD PUSH2 0x38E2 SWAP2 PUSH1 0x8 DUP5 ADD SWAP2 PUSH1 0x20 SWAP1 SWAP2 ADD SWAP1 PUSH2 0x5229 JUMP JUMPDEST POP PUSH2 0x120 DUP3 ADD MLOAD PUSH1 0x9 DUP3 ADD DUP1 SLOAD PUSH1 0x1 PUSH1 0x1 PUSH1 0xA0 SHL SUB NOT AND PUSH1 0x1 PUSH1 0x1 PUSH1 0xA0 SHL SUB SWAP3 DUP4 AND OR SWAP1 SSTORE PUSH2 0x140 DUP4 ADD MLOAD PUSH1 0xA DUP4 ADD DUP1 SLOAD PUSH2 0x160 DUP7 ADD MLOAD SWAP3 SWAP1 SWAP4 AND PUSH1 0x1 PUSH1 0x1 PUSH1 0xA8 SHL SUB NOT SWAP1 SWAP4 AND SWAP3 SWAP1 SWAP3 OR PUSH1 0x1 PUSH1 0xA0 SHL SWAP2 ISZERO ISZERO SWAP2 SWAP1 SWAP2 MUL OR SWAP1 SSTORE PUSH2 0x180 DUP3 ADD MLOAD PUSH1 0xB DUP3 ADD SWAP1 PUSH2 0x3951 SWAP1 DUP3 PUSH2 0x5D4D JUMP JUMPDEST POP POP PUSH1 0xB SLOAD SWAP5 SWAP4 POP POP POP POP JUMP JUMPDEST PUSH1 0x1 PUSH1 0x1 PUSH1 0xA0 SHL SUB DUP5 AND PUSH2 0x3988 JUMPI PUSH1 0x40 MLOAD PUSH4 0x2BFA23E7 PUSH1 0xE1 SHL DUP2 MSTORE PUSH1 0x0 PUSH1 0x4 DUP3 ADD MSTORE PUSH1 0x24 ADD PUSH2 0x9AD JUMP JUMPDEST PUSH1 0x1 PUSH1 0x1 PUSH1 0xA0 SHL SUB DUP6 AND PUSH2 0x39B1 JUMPI PUSH1 0x40 MLOAD PUSH3 0x6A0D45 PUSH1 0xE2 SHL DUP2 MSTORE PUSH1 0x0 PUSH1 0x4 DUP3 ADD MSTORE PUSH1 0x24 ADD PUSH2 0x9AD JUMP JUMPDEST PUSH1 0x40 DUP1 MLOAD PUSH1 0x1 DUP1 DUP3 MSTORE PUSH1 0x20 DUP3 ADD DUP7 SWAP1 MSTORE DUP2 DUP4 ADD SWAP1 DUP2 MSTORE PUSH1 0x60 DUP3 ADD DUP6 SWAP1 MSTORE PUSH1 0x80 DUP3 ADD SWAP1 SWAP3 MSTORE SWAP1 PUSH2 0x39E3 DUP8 DUP8 DUP5 DUP5 DUP8 PUSH2 0x39F7 JUMP JUMPDEST POP POP POP POP POP POP POP JUMP JUMPDEST PUSH2 0xC0D DUP4 DUP4 DUP4 PUSH2 0x4677 JUMP JUMPDEST PUSH2 0x3A03 DUP6 DUP6 DUP6 DUP6 PUSH2 0x46DF JUMP JUMPDEST PUSH1 0x1 PUSH1 0x1 PUSH1 0xA0 SHL SUB DUP5 AND ISZERO PUSH2 0x2740 JUMPI DUP3 MLOAD CALLER SWAP1 PUSH1 0x1 SUB PUSH2 0x3A3C JUMPI PUSH1 0x20 DUP5 DUP2 ADD MLOAD SWAP1 DUP5 ADD MLOAD PUSH2 0x3A35 DUP4 DUP10 DUP10 DUP6 DUP6 DUP10 PUSH2 0x46EB JUMP JUMPDEST POP POP PUSH2 0xC90 JUMP JUMPDEST PUSH2 0xC90 DUP2 DUP8 DUP8 DUP8 DUP8 DUP8 PUSH2 0x480F JUMP JUMPDEST PUSH1 0x0 DUP1 PUSH1 0xB PUSH2 0x3A5A PUSH1 0x1 DUP6 PUSH2 0x5BE4 JUMP JUMPDEST DUP2 SLOAD DUP2 LT PUSH2 0x3A6A JUMPI PUSH2 0x3A6A PUSH2 0x5BF7 JUMP JUMPDEST PUSH1 0x0 SWAP2 DUP3 MSTORE PUSH1 0x20 SWAP2 DUP3 SWAP1 KECCAK256 PUSH1 0x40 DUP1 MLOAD PUSH2 0x1A0 DUP2 ADD DUP3 MSTORE PUSH1 0xC SWAP1 SWAP4 MUL SWAP1 SWAP2 ADD DUP1 SLOAD DUP4 MSTORE PUSH1 0x1 DUP2 ADD SLOAD PUSH1 0x1 PUSH1 0x1 PUSH1 0xA0 SHL SUB SWAP1 DUP2 AND DUP5 DUP7 ADD MSTORE PUSH1 0x2 DUP3 ADD SLOAD AND DUP4 DUP4 ADD MSTORE PUSH1 0x3 DUP2 ADD SLOAD PUSH1 0x60 DUP5 ADD MSTORE PUSH1 0x4 DUP2 ADD SLOAD PUSH1 0x80 DUP5 ADD MSTORE PUSH1 0x5 DUP2 ADD SLOAD PUSH1 0xA0 DUP5 ADD MSTORE PUSH1 0x6 DUP2 ADD SLOAD PUSH1 0xC0 DUP5 ADD MSTORE PUSH1 0x7 DUP2 ADD DUP1 SLOAD DUP4 MLOAD DUP2 DUP8 MUL DUP2 ADD DUP8 ADD SWAP1 SWAP5 MSTORE DUP1 DUP5 MSTORE SWAP4 SWAP5 SWAP2 SWAP4 PUSH1 0xE0 DUP7 ADD SWAP4 SWAP3 DUP4 ADD DUP3 DUP3 DUP1 ISZERO PUSH2 0x3B20 JUMPI PUSH1 0x20 MUL DUP3 ADD SWAP2 SWAP1 PUSH1 0x0 MSTORE PUSH1 0x20 PUSH1 0x0 KECCAK256 SWAP1 JUMPDEST DUP2 SLOAD DUP2 MSTORE PUSH1 0x20 ADD SWAP1 PUSH1 0x1 ADD SWAP1 DUP1 DUP4 GT PUSH2 0x3B0C JUMPI JUMPDEST POP POP POP POP POP DUP2 MSTORE PUSH1 0x20 ADD PUSH1 0x8 DUP3 ADD DUP1 SLOAD DUP1 PUSH1 0x20 MUL PUSH1 0x20 ADD PUSH1 0x40 MLOAD SWAP1 DUP2 ADD PUSH1 0x40 MSTORE DUP1 SWAP3 SWAP2 SWAP1 DUP2 DUP2 MSTORE PUSH1 0x20 ADD DUP3 DUP1 SLOAD DUP1 ISZERO PUSH2 0x3B78 JUMPI PUSH1 0x20 MUL DUP3 ADD SWAP2 SWAP1 PUSH1 0x0 MSTORE PUSH1 0x20 PUSH1 0x0 KECCAK256 SWAP1 JUMPDEST DUP2 SLOAD DUP2 MSTORE PUSH1 0x20 ADD SWAP1 PUSH1 0x1 ADD SWAP1 DUP1 DUP4 GT PUSH2 0x3B64 JUMPI JUMPDEST POP POP POP SWAP2 DUP4 MSTORE POP POP PUSH1 0x9 DUP3 ADD SLOAD PUSH1 0x1 PUSH1 0x1 PUSH1 0xA0 SHL SUB SWAP1 DUP2 AND PUSH1 0x20 DUP4 ADD MSTORE PUSH1 0xA DUP4 ADD SLOAD SWAP1 DUP2 AND PUSH1 0x40 DUP4 ADD MSTORE PUSH1 0x1 PUSH1 0xA0 SHL SWAP1 DIV PUSH1 0xFF AND ISZERO ISZERO PUSH1 0x60 DUP3 ADD MSTORE PUSH1 0xB DUP3 ADD DUP1 SLOAD PUSH1 0x80 SWAP1 SWAP3 ADD SWAP2 PUSH2 0x3BC8 SWAP1 PUSH2 0x5B94 JUMP JUMPDEST DUP1 PUSH1 0x1F ADD PUSH1 0x20 DUP1 SWAP2 DIV MUL PUSH1 0x20 ADD PUSH1 0x40 MLOAD SWAP1 DUP2 ADD PUSH1 0x40 MSTORE DUP1 SWAP3 SWAP2 SWAP1 DUP2 DUP2 MSTORE PUSH1 0x20 ADD DUP3 DUP1 SLOAD PUSH2 0x3BF4 SWAP1 PUSH2 0x5B94 JUMP JUMPDEST DUP1 ISZERO PUSH2 0x3C41 JUMPI DUP1 PUSH1 0x1F LT PUSH2 0x3C16 JUMPI PUSH2 0x100 DUP1 DUP4 SLOAD DIV MUL DUP4 MSTORE SWAP2 PUSH1 0x20 ADD SWAP2 PUSH2 0x3C41 JUMP JUMPDEST DUP3 ADD SWAP2 SWAP1 PUSH1 0x0 MSTORE PUSH1 0x20 PUSH1 0x0 KECCAK256 SWAP1 JUMPDEST DUP2 SLOAD DUP2 MSTORE SWAP1 PUSH1 0x1 ADD SWAP1 PUSH1 0x20 ADD DUP1 DUP4 GT PUSH2 0x3C24 JUMPI DUP3 SWAP1 SUB PUSH1 0x1F AND DUP3 ADD SWAP2 JUMPDEST POP POP POP SWAP2 SWAP1 SWAP3 MSTORE POP POP POP PUSH1 0xE0 DUP2 ADD MLOAD PUSH2 0x100 DUP3 ADD MLOAD PUSH1 0x60 DUP4 ADD MLOAD PUSH1 0x80 DUP5 ADD MLOAD PUSH1 0xA0 DUP6 ADD MLOAD PUSH1 0xC0 DUP7 ADD MLOAD SWAP6 SWAP7 POP SWAP4 SWAP5 SWAP3 SWAP4 SWAP2 SWAP3 SWAP1 SWAP2 SWAP1 PUSH1 0x0 DUP1 DUP1 DUP1 JUMPDEST PUSH1 0x3 DUP2 LT ISZERO PUSH2 0x3D2B JUMPI DUP9 DUP2 DUP2 MLOAD DUP2 LT PUSH2 0x3C97 JUMPI PUSH2 0x3C97 PUSH2 0x5BF7 JUMP JUMPDEST PUSH1 0x20 MUL PUSH1 0x20 ADD ADD MLOAD DUP11 DUP3 DUP2 MLOAD DUP2 LT PUSH2 0x3CB1 JUMPI PUSH2 0x3CB1 PUSH2 0x5BF7 JUMP JUMPDEST PUSH1 0x20 MUL PUSH1 0x20 ADD ADD MLOAD GT ISZERO PUSH2 0x3CD1 JUMPI DUP4 PUSH2 0x3CC9 DUP2 PUSH2 0x5C83 JUMP JUMPDEST SWAP5 POP POP PUSH2 0x3D19 JUMP JUMPDEST DUP9 DUP2 DUP2 MLOAD DUP2 LT PUSH2 0x3CE3 JUMPI PUSH2 0x3CE3 PUSH2 0x5BF7 JUMP JUMPDEST PUSH1 0x20 MUL PUSH1 0x20 ADD ADD MLOAD DUP11 DUP3 DUP2 MLOAD DUP2 LT PUSH2 0x3CFD JUMPI PUSH2 0x3CFD PUSH2 0x5BF7 JUMP JUMPDEST PUSH1 0x20 MUL PUSH1 0x20 ADD ADD MLOAD LT ISZERO PUSH2 0x3D19 JUMPI DUP3 PUSH2 0x3D15 DUP2 PUSH2 0x5C83 JUMP JUMPDEST SWAP4 POP POP JUMPDEST DUP1 PUSH2 0x3D23 DUP2 PUSH2 0x5C83 JUMP JUMPDEST SWAP2 POP POP PUSH2 0x3C7C JUMP JUMPDEST POP DUP2 DUP4 GT ISZERO PUSH2 0x3D5D JUMPI POP PUSH1 0x20 DUP10 ADD MLOAD PUSH1 0x1 PUSH1 0x1 PUSH1 0xA0 SHL SUB SWAP1 DUP2 AND PUSH2 0x120 DUP12 ADD MSTORE PUSH1 0x40 DUP11 ADD MLOAD AND PUSH2 0x140 DUP11 ADD MSTORE DUP6 PUSH2 0x40A7 JUMP JUMPDEST DUP2 DUP4 LT ISZERO PUSH2 0x3D8E JUMPI POP PUSH1 0x40 DUP10 ADD MLOAD PUSH1 0x1 PUSH1 0x1 PUSH1 0xA0 SHL SUB SWAP1 DUP2 AND PUSH2 0x120 DUP12 ADD MSTORE PUSH1 0x20 DUP11 ADD MLOAD AND PUSH2 0x140 DUP11 ADD MSTORE DUP5 PUSH2 0x40A7 JUMP JUMPDEST PUSH1 0x0 PUSH2 0x120 DUP12 ADD DUP2 SWAP1 MSTORE PUSH2 0x140 DUP12 ADD DUP2 SWAP1 MSTORE PUSH1 0x1 PUSH2 0x160 DUP13 ADD MSTORE PUSH1 0x40 DUP1 MLOAD DUP1 DUP3 ADD DUP3 MSTORE PUSH1 0x4 DUP2 MSTORE PUSH32 0x6472617700000000000000000000000000000000000000000000000000000000 PUSH1 0x20 DUP1 DUP4 ADD SWAP2 SWAP1 SWAP2 MSTORE PUSH2 0x180 DUP15 ADD SWAP2 SWAP1 SWAP2 MSTORE DUP13 ADD MLOAD SWAP1 MLOAD PUSH1 0x1 PUSH1 0x1 PUSH1 0xA0 SHL SUB SWAP1 SWAP2 AND SWAP2 PUSH2 0x8FC DUP9 ISZERO MUL SWAP2 DUP9 SWAP2 DUP2 DUP2 DUP2 DUP6 DUP9 DUP9 CALL SWAP4 POP POP POP POP ISZERO DUP1 ISZERO PUSH2 0x3E1F JUMPI RETURNDATASIZE PUSH1 0x0 DUP1 RETURNDATACOPY RETURNDATASIZE PUSH1 0x0 REVERT JUMPDEST POP DUP10 PUSH1 0x40 ADD MLOAD PUSH1 0x1 PUSH1 0x1 PUSH1 0xA0 SHL SUB AND PUSH2 0x8FC DUP6 SWAP1 DUP2 ISZERO MUL SWAP1 PUSH1 0x40 MLOAD PUSH1 0x0 PUSH1 0x40 MLOAD DUP1 DUP4 SUB DUP2 DUP6 DUP9 DUP9 CALL SWAP4 POP POP POP POP ISZERO DUP1 ISZERO PUSH2 0x3E5D JUMPI RETURNDATASIZE PUSH1 0x0 DUP1 RETURNDATACOPY RETURNDATASIZE PUSH1 0x0 REVERT JUMPDEST POP DUP10 PUSH1 0xB PUSH2 0x3E6C PUSH1 0x1 DUP16 PUSH2 0x5BE4 JUMP JUMPDEST DUP2 SLOAD DUP2 LT PUSH2 0x3E7C JUMPI PUSH2 0x3E7C PUSH2 0x5BF7 JUMP JUMPDEST PUSH1 0x0 SWAP2 DUP3 MSTORE PUSH1 0x20 SWAP2 DUP3 SWAP1 KECCAK256 DUP4 MLOAD PUSH1 0xC SWAP1 SWAP3 MUL ADD SWAP1 DUP2 SSTORE DUP3 DUP3 ADD MLOAD PUSH1 0x1 DUP3 ADD DUP1 SLOAD PUSH1 0x1 PUSH1 0x1 PUSH1 0xA0 SHL SUB SWAP3 DUP4 AND PUSH1 0x1 PUSH1 0x1 PUSH1 0xA0 SHL SUB NOT SWAP2 DUP3 AND OR SWAP1 SWAP2 SSTORE PUSH1 0x40 DUP6 ADD MLOAD PUSH1 0x2 DUP5 ADD DUP1 SLOAD SWAP2 SWAP1 SWAP4 AND SWAP2 AND OR SWAP1 SSTORE PUSH1 0x60 DUP4 ADD MLOAD PUSH1 0x3 DUP3 ADD SSTORE PUSH1 0x80 DUP4 ADD MLOAD PUSH1 0x4 DUP3 ADD SSTORE PUSH1 0xA0 DUP4 ADD MLOAD PUSH1 0x5 DUP3 ADD SSTORE PUSH1 0xC0 DUP4 ADD MLOAD PUSH1 0x6 DUP3 ADD SSTORE PUSH1 0xE0 DUP4 ADD MLOAD DUP1 MLOAD SWAP2 SWAP3 PUSH2 0x3F0E SWAP3 PUSH1 0x7 DUP6 ADD SWAP3 SWAP1 SWAP2 ADD SWAP1 PUSH2 0x5229 JUMP JUMPDEST POP PUSH2 0x100 DUP3 ADD MLOAD DUP1 MLOAD PUSH2 0x3F2B SWAP2 PUSH1 0x8 DUP5 ADD SWAP2 PUSH1 0x20 SWAP1 SWAP2 ADD SWAP1 PUSH2 0x5229 JUMP JUMPDEST POP PUSH2 0x120 DUP3 ADD MLOAD PUSH1 0x9 DUP3 ADD DUP1 SLOAD PUSH1 0x1 PUSH1 0x1 PUSH1 0xA0 SHL SUB NOT AND PUSH1 0x1 PUSH1 0x1 PUSH1 0xA0 SHL SUB SWAP3 DUP4 AND OR SWAP1 SSTORE PUSH2 0x140 DUP4 ADD MLOAD PUSH1 0xA DUP4 ADD DUP1 SLOAD PUSH2 0x160 DUP7 ADD MLOAD SWAP3 SWAP1 SWAP4 AND PUSH1 0x1 PUSH1 0x1 PUSH1 0xA8 SHL SUB NOT SWAP1 SWAP4 AND SWAP3 SWAP1 SWAP3 OR PUSH1 0x1 PUSH1 0xA0 SHL SWAP2 ISZERO ISZERO SWAP2 SWAP1 SWAP2 MUL OR SWAP1 SSTORE PUSH2 0x180 DUP3 ADD MLOAD PUSH1 0xB DUP3 ADD SWAP1 PUSH2 0x3F9A SWAP1 DUP3 PUSH2 0x5D4D JUMP JUMPDEST POP POP POP PUSH1 0x20 DUP1 DUP12 ADD MLOAD PUSH1 0x1 PUSH1 0x1 PUSH1 0xA0 SHL SUB AND PUSH1 0x0 SWAP1 DUP2 MSTORE PUSH1 0xA DUP3 MSTORE PUSH1 0x40 DUP1 DUP3 KECCAK256 PUSH1 0x60 DUP15 ADD MLOAD DUP4 MSTORE SWAP1 SWAP3 MSTORE KECCAK256 SLOAD PUSH2 0x3FD1 SWAP1 PUSH1 0x1 PUSH2 0x455A JUMP JUMPDEST PUSH1 0xA PUSH1 0x0 DUP13 PUSH1 0x20 ADD MLOAD PUSH1 0x1 PUSH1 0x1 PUSH1 0xA0 SHL SUB AND PUSH1 0x1 PUSH1 0x1 PUSH1 0xA0 SHL SUB AND DUP2 MSTORE PUSH1 0x20 ADD SWAP1 DUP2 MSTORE PUSH1 0x20 ADD PUSH1 0x0 KECCAK256 PUSH1 0x0 DUP13 PUSH1 0x60 ADD MLOAD DUP2 MSTORE PUSH1 0x20 ADD SWAP1 DUP2 MSTORE PUSH1 0x20 ADD PUSH1 0x0 KECCAK256 DUP2 SWAP1 SSTORE POP PUSH2 0x4065 PUSH1 0x1 PUSH1 0xA PUSH1 0x0 DUP14 PUSH1 0x40 ADD MLOAD PUSH1 0x1 PUSH1 0x1 PUSH1 0xA0 SHL SUB AND PUSH1 0x1 PUSH1 0x1 PUSH1 0xA0 SHL SUB AND DUP2 MSTORE PUSH1 0x20 ADD SWAP1 DUP2 MSTORE PUSH1 0x20 ADD PUSH1 0x0 KECCAK256 PUSH1 0x0 DUP14 PUSH1 0x80 ADD MLOAD DUP2 MSTORE PUSH1 0x20 ADD SWAP1 DUP2 MSTORE PUSH1 0x20 ADD PUSH1 0x0 KECCAK256 SLOAD PUSH2 0x455A SWAP1 SWAP2 SWAP1 PUSH4 0xFFFFFFFF AND JUMP JUMPDEST PUSH1 0x40 DUP1 DUP13 ADD MLOAD PUSH1 0x1 PUSH1 0x1 PUSH1 0xA0 SHL SUB AND PUSH1 0x0 SWAP1 DUP2 MSTORE PUSH1 0xA PUSH1 0x20 SWAP1 DUP2 MSTORE DUP3 DUP3 KECCAK256 PUSH1 0x80 SWAP1 SWAP15 ADD MLOAD DUP3 MSTORE SWAP13 SWAP1 SWAP13 MSTORE SWAP1 SWAP11 KECCAK256 SWAP10 SWAP1 SWAP10 SSTORE POP PUSH1 0x1 SWAP11 SWAP10 POP POP POP POP POP POP POP POP POP POP JUMP JUMPDEST PUSH1 0x40 DUP1 MLOAD DUP1 DUP3 ADD SWAP1 SWAP2 MSTORE PUSH1 0x4 DUP2 MSTORE PUSH32 0x646F6E6500000000000000000000000000000000000000000000000000000000 PUSH1 0x20 DUP3 ADD MSTORE PUSH2 0x180 DUP12 ADD MSTORE DUP10 PUSH1 0xB PUSH2 0x40EF PUSH1 0x1 DUP16 PUSH2 0x5BE4 JUMP JUMPDEST DUP2 SLOAD DUP2 LT PUSH2 0x40FF JUMPI PUSH2 0x40FF PUSH2 0x5BF7 JUMP JUMPDEST PUSH1 0x0 SWAP2 DUP3 MSTORE PUSH1 0x20 SWAP2 DUP3 SWAP1 KECCAK256 DUP4 MLOAD PUSH1 0xC SWAP1 SWAP3 MUL ADD SWAP1 DUP2 SSTORE DUP3 DUP3 ADD MLOAD PUSH1 0x1 DUP3 ADD DUP1 SLOAD PUSH1 0x1 PUSH1 0x1 PUSH1 0xA0 SHL SUB SWAP3 DUP4 AND PUSH1 0x1 PUSH1 0x1 PUSH1 0xA0 SHL SUB NOT SWAP2 DUP3 AND OR SWAP1 SWAP2 SSTORE PUSH1 0x40 DUP6 ADD MLOAD PUSH1 0x2 DUP5 ADD DUP1 SLOAD SWAP2 SWAP1 SWAP4 AND SWAP2 AND OR SWAP1 SSTORE PUSH1 0x60 DUP4 ADD MLOAD PUSH1 0x3 DUP3 ADD SSTORE PUSH1 0x80 DUP4 ADD MLOAD PUSH1 0x4 DUP3 ADD SSTORE PUSH1 0xA0 DUP4 ADD MLOAD PUSH1 0x5 DUP3 ADD SSTORE PUSH1 0xC0 DUP4 ADD MLOAD PUSH1 0x6 DUP3 ADD SSTORE PUSH1 0xE0 DUP4 ADD MLOAD DUP1 MLOAD SWAP2 SWAP3 PUSH2 0x4191 SWAP3 PUSH1 0x7 DUP6 ADD SWAP3 SWAP1 SWAP2 ADD SWAP1 PUSH2 0x5229 JUMP JUMPDEST POP PUSH2 0x100 DUP3 ADD MLOAD DUP1 MLOAD PUSH2 0x41AE SWAP2 PUSH1 0x8 DUP5 ADD SWAP2 PUSH1 0x20 SWAP1 SWAP2 ADD SWAP1 PUSH2 0x5229 JUMP JUMPDEST POP PUSH2 0x120 DUP3 ADD MLOAD PUSH1 0x9 DUP3 ADD DUP1 SLOAD PUSH1 0x1 PUSH1 0x1 PUSH1 0xA0 SHL SUB NOT AND PUSH1 0x1 PUSH1 0x1 PUSH1 0xA0 SHL SUB SWAP3 DUP4 AND OR SWAP1 SSTORE PUSH2 0x140 DUP4 ADD MLOAD PUSH1 0xA DUP4 ADD DUP1 SLOAD PUSH2 0x160 DUP7 ADD MLOAD SWAP3 SWAP1 SWAP4 AND PUSH1 0x1 PUSH1 0x1 PUSH1 0xA8 SHL SUB NOT SWAP1 SWAP4 AND SWAP3 SWAP1 SWAP3 OR PUSH1 0x1 PUSH1 0xA0 SHL SWAP2 ISZERO ISZERO SWAP2 SWAP1 SWAP2 MUL OR SWAP1 SSTORE PUSH2 0x180 DUP3 ADD MLOAD PUSH1 0xB DUP3 ADD SWAP1 PUSH2 0x421D SWAP1 DUP3 PUSH2 0x5D4D JUMP JUMPDEST POP POP POP PUSH1 0x20 DUP1 DUP12 ADD MLOAD PUSH1 0x1 PUSH1 0x1 PUSH1 0xA0 SHL SUB AND PUSH1 0x0 SWAP1 DUP2 MSTORE PUSH1 0xA DUP3 MSTORE PUSH1 0x40 DUP1 DUP3 KECCAK256 PUSH1 0x60 DUP15 ADD MLOAD DUP4 MSTORE SWAP1 SWAP3 MSTORE KECCAK256 SLOAD PUSH2 0x4254 SWAP1 PUSH1 0x1 PUSH2 0x455A JUMP JUMPDEST PUSH1 0xA PUSH1 0x0 DUP13 PUSH1 0x20 ADD MLOAD PUSH1 0x1 PUSH1 0x1 PUSH1 0xA0 SHL SUB AND PUSH1 0x1 PUSH1 0x1 PUSH1 0xA0 SHL SUB AND DUP2 MSTORE PUSH1 0x20 ADD SWAP1 DUP2 MSTORE PUSH1 0x20 ADD PUSH1 0x0 KECCAK256 PUSH1 0x0 DUP13 PUSH1 0x60 ADD MLOAD DUP2 MSTORE PUSH1 0x20 ADD SWAP1 DUP2 MSTORE PUSH1 0x20 ADD PUSH1 0x0 KECCAK256 DUP2 SWAP1 SSTORE POP PUSH2 0x42E8 PUSH1 0x1 PUSH1 0xA PUSH1 0x0 DUP14 PUSH1 0x40 ADD MLOAD PUSH1 0x1 PUSH1 0x1 PUSH1 0xA0 SHL SUB AND PUSH1 0x1 PUSH1 0x1 PUSH1 0xA0 SHL SUB AND DUP2 MSTORE PUSH1 0x20 ADD SWAP1 DUP2 MSTORE PUSH1 0x20 ADD PUSH1 0x0 KECCAK256 PUSH1 0x0 DUP14 PUSH1 0x80 ADD MLOAD DUP2 MSTORE PUSH1 0x20 ADD SWAP1 DUP2 MSTORE PUSH1 0x20 ADD PUSH1 0x0 KECCAK256 SLOAD PUSH2 0x455A SWAP1 SWAP2 SWAP1 PUSH4 0xFFFFFFFF AND JUMP JUMPDEST PUSH1 0x40 DUP1 DUP13 ADD MLOAD PUSH1 0x1 PUSH1 0x1 PUSH1 0xA0 SHL SUB AND PUSH1 0x0 SWAP1 DUP2 MSTORE PUSH1 0xA PUSH1 0x20 SWAP1 DUP2 MSTORE DUP3 DUP3 KECCAK256 PUSH1 0x80 DUP16 ADD MLOAD DUP4 MSTORE SWAP1 MSTORE SWAP1 DUP2 KECCAK256 SWAP2 SWAP1 SWAP2 SSTORE PUSH2 0x4320 DUP7 DUP7 PUSH2 0x4576 JUMP JUMPDEST SWAP1 POP PUSH2 0x432D DUP14 DUP3 DUP5 PUSH2 0x48F8 JUMP JUMPDEST SWAP14 SWAP13 POP POP POP POP POP POP POP POP POP POP POP POP POP JUMP JUMPDEST PUSH1 0x40 DUP1 MLOAD TIMESTAMP PUSH1 0x20 DUP3 ADD MSTORE PUSH12 0xFFFFFFFFFFFFFFFFFFFFFFFF NOT CALLER PUSH1 0x60 SHL AND SWAP2 DUP2 ADD SWAP2 SWAP1 SWAP2 MSTORE PREVRANDAO PUSH1 0x54 DUP3 ADD MSTORE PUSH1 0x0 SWAP1 DUP2 SWAP1 PUSH1 0x74 ADD JUMPDEST PUSH1 0x40 DUP1 MLOAD PUSH1 0x1F NOT DUP2 DUP5 SUB ADD DUP2 MSTORE SWAP2 SWAP1 MSTORE DUP1 MLOAD PUSH1 0x20 SWAP1 SWAP2 ADD KECCAK256 SWAP3 SWAP2 POP POP JUMP JUMPDEST PUSH1 0x0 PUSH1 0x14 PUSH2 0x439E PUSH1 0x64 DUP5 PUSH2 0x5E36 JUMP JUMPDEST LT ISZERO PUSH2 0x43AC JUMPI POP PUSH1 0x2 SWAP2 SWAP1 POP JUMP JUMPDEST PUSH1 0x32 PUSH2 0x43B9 PUSH1 0x64 DUP5 PUSH2 0x5E36 JUMP JUMPDEST LT ISZERO PUSH2 0x43C7 JUMPI POP PUSH1 0x1 SWAP2 SWAP1 POP JUMP JUMPDEST POP PUSH1 0x0 SWAP2 SWAP1 POP JUMP JUMPDEST SWAP2 SWAP1 POP JUMP JUMPDEST PUSH1 0x7 DUP1 SLOAD PUSH1 0x0 SWAP2 DUP3 PUSH2 0x43E5 DUP4 PUSH2 0x5C83 JUMP JUMPDEST SWAP1 SWAP2 SSTORE POP POP PUSH1 0x7 SLOAD PUSH1 0x40 DUP1 MLOAD TIMESTAMP PUSH1 0x20 DUP3 ADD MSTORE PUSH12 0xFFFFFFFFFFFFFFFFFFFFFFFF NOT CALLER PUSH1 0x60 SHL AND SWAP2 DUP2 ADD SWAP2 SWAP1 SWAP2 MSTORE PUSH1 0x54 DUP2 ADD SWAP2 SWAP1 SWAP2 MSTORE PUSH1 0x0 SWAP1 PUSH1 0x74 ADD PUSH2 0x4371 JUMP JUMPDEST PUSH1 0x0 PUSH1 0x2 PUSH1 0x3 PUSH1 0x6 SLOAD PUSH2 0x4437 SWAP2 SWAP1 PUSH2 0x5E4A JUMP JUMPDEST PUSH2 0x4441 SWAP1 DUP5 PUSH2 0x5E36 JUMP JUMPDEST PUSH2 0x444C SWAP1 PUSH1 0x1 PUSH2 0x5E0D JUMP JUMPDEST PUSH2 0x4457 SWAP1 PUSH1 0x3 PUSH2 0x5E5E JUMP JUMPDEST PUSH2 0x7F0 SWAP2 SWAP1 PUSH2 0x5BE4 JUMP JUMPDEST PUSH2 0x447D CALLER DUP3 PUSH1 0x1 PUSH1 0x40 MLOAD DUP1 PUSH1 0x20 ADD PUSH1 0x40 MSTORE DUP1 PUSH1 0x0 DUP2 MSTORE POP PUSH2 0x349B JUMP JUMPDEST PUSH1 0x0 DUP2 DUP2 MSTORE PUSH1 0x8 PUSH1 0x20 SWAP1 DUP2 MSTORE PUSH1 0x40 DUP1 DUP4 KECCAK256 CALLER DUP5 MSTORE SWAP1 SWAP2 MSTORE SWAP1 KECCAK256 SLOAD PUSH2 0x44A2 SWAP1 PUSH1 0x1 PUSH2 0x4576 JUMP JUMPDEST PUSH1 0x0 DUP3 DUP2 MSTORE PUSH1 0x8 PUSH1 0x20 SWAP1 DUP2 MSTORE PUSH1 0x40 DUP1 DUP4 KECCAK256 CALLER DUP5 MSTORE SWAP1 SWAP2 MSTORE DUP2 KECCAK256 SWAP2 SWAP1 SWAP2 SSTORE JUMPDEST PUSH1 0x0 DUP3 DUP2 MSTORE PUSH1 0x9 PUSH1 0x20 MSTORE PUSH1 0x40 SWAP1 KECCAK256 SLOAD DUP2 LT ISZERO PUSH2 0x4529 JUMPI PUSH1 0x0 DUP3 DUP2 MSTORE PUSH1 0x9 PUSH1 0x20 MSTORE PUSH1 0x40 SWAP1 KECCAK256 DUP1 SLOAD CALLER SWAP2 SWAP1 DUP4 SWAP1 DUP2 LT PUSH2 0x44F9 JUMPI PUSH2 0x44F9 PUSH2 0x5BF7 JUMP JUMPDEST PUSH1 0x0 SWAP2 DUP3 MSTORE PUSH1 0x20 SWAP1 SWAP2 KECCAK256 ADD SLOAD PUSH1 0x1 PUSH1 0x1 PUSH1 0xA0 SHL SUB AND SUB PUSH2 0x4517 JUMPI POP POP JUMP JUMPDEST DUP1 PUSH2 0x4521 DUP2 PUSH2 0x5C83 JUMP JUMPDEST SWAP2 POP POP PUSH2 0x44C0 JUMP JUMPDEST POP PUSH1 0x0 SWAP1 DUP2 MSTORE PUSH1 0x9 PUSH1 0x20 SWAP1 DUP2 MSTORE PUSH1 0x40 DUP3 KECCAK256 DUP1 SLOAD PUSH1 0x1 DUP2 ADD DUP3 SSTORE SWAP1 DUP4 MSTORE SWAP2 KECCAK256 ADD DUP1 SLOAD PUSH1 0x1 PUSH1 0x1 PUSH1 0xA0 SHL SUB NOT AND CALLER OR SWAP1 SSTORE JUMP JUMPDEST PUSH1 0x0 DUP3 DUP3 GT ISZERO PUSH2 0x456C JUMPI PUSH2 0x456C PUSH2 0x5E75 JUMP JUMPDEST PUSH2 0x1B2A DUP3 DUP5 PUSH2 0x5BE4 JUMP JUMPDEST PUSH1 0x0 DUP1 PUSH2 0x4583 DUP4 DUP6 PUSH2 0x5E0D JUMP JUMPDEST SWAP1 POP DUP4 DUP2 LT ISZERO PUSH2 0x1B2A JUMPI PUSH2 0x1B2A PUSH2 0x5E75 JUMP JUMPDEST PUSH1 0x0 DUP1 PUSH27 0x184F03E93FF9F4DAA797ED6E38ED64BF6A1F010000000000000000 DUP4 LT PUSH2 0x45DE JUMPI PUSH27 0x184F03E93FF9F4DAA797ED6E38ED64BF6A1F010000000000000000 DUP4 DIV SWAP3 POP PUSH1 0x40 ADD JUMPDEST PUSH14 0x4EE2D6D415B85ACEF8100000000 DUP4 LT PUSH2 0x460A JUMPI PUSH14 0x4EE2D6D415B85ACEF8100000000 DUP4 DIV SWAP3 POP PUSH1 0x20 ADD JUMPDEST PUSH7 0x2386F26FC10000 DUP4 LT PUSH2 0x4628 JUMPI PUSH7 0x2386F26FC10000 DUP4 DIV SWAP3 POP PUSH1 0x10 ADD JUMPDEST PUSH4 0x5F5E100 DUP4 LT PUSH2 0x4640 JUMPI PUSH4 0x5F5E100 DUP4 DIV SWAP3 POP PUSH1 0x8 ADD JUMPDEST PUSH2 0x2710 DUP4 LT PUSH2 0x4654 JUMPI PUSH2 0x2710 DUP4 DIV SWAP3 POP PUSH1 0x4 ADD JUMPDEST PUSH1 0x64 DUP4 LT PUSH2 0x4666 JUMPI PUSH1 0x64 DUP4 DIV SWAP3 POP PUSH1 0x2 ADD JUMPDEST PUSH1 0xA DUP4 LT PUSH2 0x7F0 JUMPI PUSH1 0x1 ADD SWAP3 SWAP2 POP POP JUMP JUMPDEST PUSH1 0x1 PUSH1 0x1 PUSH1 0xA0 SHL SUB DUP4 AND PUSH2 0x46A0 JUMPI PUSH1 0x40 MLOAD PUSH3 0x6A0D45 PUSH1 0xE2 SHL DUP2 MSTORE PUSH1 0x0 PUSH1 0x4 DUP3 ADD MSTORE PUSH1 0x24 ADD PUSH2 0x9AD JUMP JUMPDEST PUSH1 0x40 DUP1 MLOAD PUSH1 0x1 DUP1 DUP3 MSTORE PUSH1 0x20 DUP3 ADD DUP6 SWAP1 MSTORE DUP2 DUP4 ADD SWAP1 DUP2 MSTORE PUSH1 0x60 DUP3 ADD DUP5 SWAP1 MSTORE PUSH1 0xA0 DUP3 ADD SWAP1 SWAP3 MSTORE PUSH1 0x0 PUSH1 0x80 DUP3 ADD DUP2 DUP2 MSTORE SWAP2 SWAP3 SWAP2 PUSH2 0x2740 SWAP2 DUP8 SWAP2 DUP6 SWAP1 DUP6 SWAP1 PUSH2 0x39F7 JUMP JUMPDEST PUSH2 0x94D DUP5 DUP5 DUP5 DUP5 PUSH2 0x4E4C JUMP JUMPDEST PUSH1 0x1 PUSH1 0x1 PUSH1 0xA0 SHL SUB DUP5 AND EXTCODESIZE ISZERO PUSH2 0xC90 JUMPI PUSH1 0x40 MLOAD PUSH4 0xF23A6E61 PUSH1 0xE0 SHL DUP2 MSTORE PUSH1 0x1 PUSH1 0x1 PUSH1 0xA0 SHL SUB DUP6 AND SWAP1 PUSH4 0xF23A6E61 SWAP1 PUSH2 0x472F SWAP1 DUP10 SWAP1 DUP10 SWAP1 DUP9 SWAP1 DUP9 SWAP1 DUP9 SWAP1 PUSH1 0x4 ADD PUSH2 0x5E8B JUMP JUMPDEST PUSH1 0x20 PUSH1 0x40 MLOAD DUP1 DUP4 SUB DUP2 PUSH1 0x0 DUP8 GAS CALL SWAP3 POP POP POP DUP1 ISZERO PUSH2 0x476A JUMPI POP PUSH1 0x40 DUP1 MLOAD PUSH1 0x1F RETURNDATASIZE SWAP1 DUP2 ADD PUSH1 0x1F NOT AND DUP3 ADD SWAP1 SWAP3 MSTORE PUSH2 0x4767 SWAP2 DUP2 ADD SWAP1 PUSH2 0x5ECE JUMP JUMPDEST PUSH1 0x1 JUMPDEST PUSH2 0x47D3 JUMPI RETURNDATASIZE DUP1 DUP1 ISZERO PUSH2 0x4798 JUMPI PUSH1 0x40 MLOAD SWAP2 POP PUSH1 0x1F NOT PUSH1 0x3F RETURNDATASIZE ADD AND DUP3 ADD PUSH1 0x40 MSTORE RETURNDATASIZE DUP3 MSTORE RETURNDATASIZE PUSH1 0x0 PUSH1 0x20 DUP5 ADD RETURNDATACOPY PUSH2 0x479D JUMP JUMPDEST PUSH1 0x60 SWAP2 POP JUMPDEST POP DUP1 MLOAD PUSH1 0x0 SUB PUSH2 0x47CB JUMPI PUSH1 0x40 MLOAD PUSH4 0x2BFA23E7 PUSH1 0xE1 SHL DUP2 MSTORE PUSH1 0x1 PUSH1 0x1 PUSH1 0xA0 SHL SUB DUP7 AND PUSH1 0x4 DUP3 ADD MSTORE PUSH1 0x24 ADD PUSH2 0x9AD JUMP JUMPDEST DUP1 MLOAD DUP2 PUSH1 0x20 ADD REVERT JUMPDEST PUSH1 0x1 PUSH1 0x1 PUSH1 0xE0 SHL SUB NOT DUP2 AND PUSH4 0xF23A6E61 PUSH1 0xE0 SHL EQ PUSH2 0x39E3 JUMPI PUSH1 0x40 MLOAD PUSH4 0x2BFA23E7 PUSH1 0xE1 SHL DUP2 MSTORE PUSH1 0x1 PUSH1 0x1 PUSH1 0xA0 SHL SUB DUP7 AND PUSH1 0x4 DUP3 ADD MSTORE PUSH1 0x24 ADD PUSH2 0x9AD JUMP JUMPDEST PUSH1 0x1 PUSH1 0x1 PUSH1 0xA0 SHL SUB DUP5 AND EXTCODESIZE ISZERO PUSH2 0xC90 JUMPI PUSH1 0x40 MLOAD PUSH4 0xBC197C81 PUSH1 0xE0 SHL DUP2 MSTORE PUSH1 0x1 PUSH1 0x1 PUSH1 0xA0 SHL SUB DUP6 AND SWAP1 PUSH4 0xBC197C81 SWAP1 PUSH2 0x4853 SWAP1 DUP10 SWAP1 DUP10 SWAP1 DUP9 SWAP1 DUP9 SWAP1 DUP9 SWAP1 PUSH1 0x4 ADD PUSH2 0x5EEB JUMP JUMPDEST PUSH1 0x20 PUSH1 0x40 MLOAD DUP1 DUP4 SUB DUP2 PUSH1 0x0 DUP8 GAS CALL SWAP3 POP POP POP DUP1 ISZERO PUSH2 0x488E JUMPI POP PUSH1 0x40 DUP1 MLOAD PUSH1 0x1F RETURNDATASIZE SWAP1 DUP2 ADD PUSH1 0x1F NOT AND DUP3 ADD SWAP1 SWAP3 MSTORE PUSH2 0x488B SWAP2 DUP2 ADD SWAP1 PUSH2 0x5ECE JUMP JUMPDEST PUSH1 0x1 JUMPDEST PUSH2 0x48BC JUMPI RETURNDATASIZE DUP1 DUP1 ISZERO PUSH2 0x4798 JUMPI PUSH1 0x40 MLOAD SWAP2 POP PUSH1 0x1F NOT PUSH1 0x3F RETURNDATASIZE ADD AND DUP3 ADD PUSH1 0x40 MSTORE RETURNDATASIZE DUP3 MSTORE RETURNDATASIZE PUSH1 0x0 PUSH1 0x20 DUP5 ADD RETURNDATACOPY PUSH2 0x479D JUMP JUMPDEST PUSH1 0x1 PUSH1 0x1 PUSH1 0xE0 SHL SUB NOT DUP2 AND PUSH4 0xBC197C81 PUSH1 0xE0 SHL EQ PUSH2 0x39E3 JUMPI PUSH1 0x40 MLOAD PUSH4 0x2BFA23E7 PUSH1 0xE1 SHL DUP2 MSTORE PUSH1 0x1 PUSH1 0x1 PUSH1 0xA0 SHL SUB DUP7 AND PUSH1 0x4 DUP3 ADD MSTORE PUSH1 0x24 ADD PUSH2 0x9AD JUMP JUMPDEST PUSH1 0x0 DUP1 PUSH1 0xB PUSH2 0x4908 PUSH1 0x1 DUP8 PUSH2 0x5BE4 JUMP JUMPDEST DUP2 SLOAD DUP2 LT PUSH2 0x4918 JUMPI PUSH2 0x4918 PUSH2 0x5BF7 JUMP JUMPDEST PUSH1 0x0 SWAP2 DUP3 MSTORE PUSH1 0x20 SWAP2 DUP3 SWAP1 KECCAK256 PUSH1 0x40 DUP1 MLOAD PUSH2 0x1A0 DUP2 ADD DUP3 MSTORE PUSH1 0xC SWAP1 SWAP4 MUL SWAP1 SWAP2 ADD DUP1 SLOAD DUP4 MSTORE PUSH1 0x1 DUP2 ADD SLOAD PUSH1 0x1 PUSH1 0x1 PUSH1 0xA0 SHL SUB SWAP1 DUP2 AND DUP5 DUP7 ADD MSTORE PUSH1 0x2 DUP3 ADD SLOAD AND DUP4 DUP4 ADD MSTORE PUSH1 0x3 DUP2 ADD SLOAD PUSH1 0x60 DUP5 ADD MSTORE PUSH1 0x4 DUP2 ADD SLOAD PUSH1 0x80 DUP5 ADD MSTORE PUSH1 0x5 DUP2 ADD SLOAD PUSH1 0xA0 DUP5 ADD MSTORE PUSH1 0x6 DUP2 ADD SLOAD PUSH1 0xC0 DUP5 ADD MSTORE PUSH1 0x7 DUP2 ADD DUP1 SLOAD DUP4 MLOAD DUP2 DUP8 MUL DUP2 ADD DUP8 ADD SWAP1 SWAP5 MSTORE DUP1 DUP5 MSTORE SWAP4 SWAP5 SWAP2 SWAP4 PUSH1 0xE0 DUP7 ADD SWAP4 SWAP3 DUP4 ADD DUP3 DUP3 DUP1 ISZERO PUSH2 0x49CE JUMPI PUSH1 0x20 MUL DUP3 ADD SWAP2 SWAP1 PUSH1 0x0 MSTORE PUSH1 0x20 PUSH1 0x0 KECCAK256 SWAP1 JUMPDEST DUP2 SLOAD DUP2 MSTORE PUSH1 0x20 ADD SWAP1 PUSH1 0x1 ADD SWAP1 DUP1 DUP4 GT PUSH2 0x49BA JUMPI JUMPDEST POP POP POP POP POP DUP2 MSTORE PUSH1 0x20 ADD PUSH1 0x8 DUP3 ADD DUP1 SLOAD DUP1 PUSH1 0x20 MUL PUSH1 0x20 ADD PUSH1 0x40 MLOAD SWAP1 DUP2 ADD PUSH1 0x40 MSTORE DUP1 SWAP3 SWAP2 SWAP1 DUP2 DUP2 MSTORE PUSH1 0x20 ADD DUP3 DUP1 SLOAD DUP1 ISZERO PUSH2 0x4A26 JUMPI PUSH1 0x20 MUL DUP3 ADD SWAP2 SWAP1 PUSH1 0x0 MSTORE PUSH1 0x20 PUSH1 0x0 KECCAK256 SWAP1 JUMPDEST DUP2 SLOAD DUP2 MSTORE PUSH1 0x20 ADD SWAP1 PUSH1 0x1 ADD SWAP1 DUP1 DUP4 GT PUSH2 0x4A12 JUMPI JUMPDEST POP POP POP SWAP2 DUP4 MSTORE POP POP PUSH1 0x9 DUP3 ADD SLOAD PUSH1 0x1 PUSH1 0x1 PUSH1 0xA0 SHL SUB SWAP1 DUP2 AND PUSH1 0x20 DUP4 ADD MSTORE PUSH1 0xA DUP4 ADD SLOAD SWAP1 DUP2 AND PUSH1 0x40 DUP4 ADD MSTORE PUSH1 0x1 PUSH1 0xA0 SHL SWAP1 DIV PUSH1 0xFF AND ISZERO ISZERO PUSH1 0x60 DUP3 ADD MSTORE PUSH1 0xB DUP3 ADD DUP1 SLOAD PUSH1 0x80 SWAP1 SWAP3 ADD SWAP2 PUSH2 0x4A76 SWAP1 PUSH2 0x5B94 JUMP JUMPDEST DUP1 PUSH1 0x1F ADD PUSH1 0x20 DUP1 SWAP2 DIV MUL PUSH1 0x20 ADD PUSH1 0x40 MLOAD SWAP1 DUP2 ADD PUSH1 0x40 MSTORE DUP1 SWAP3 SWAP2 SWAP1 DUP2 DUP2 MSTORE PUSH1 0x20 ADD DUP3 DUP1 SLOAD PUSH2 0x4AA2 SWAP1 PUSH2 0x5B94 JUMP JUMPDEST DUP1 ISZERO PUSH2 0x4AEF JUMPI DUP1 PUSH1 0x1F LT PUSH2 0x4AC4 JUMPI PUSH2 0x100 DUP1 DUP4 SLOAD DIV MUL DUP4 MSTORE SWAP2 PUSH1 0x20 ADD SWAP2 PUSH2 0x4AEF JUMP JUMPDEST DUP3 ADD SWAP2 SWAP1 PUSH1 0x0 MSTORE PUSH1 0x20 PUSH1 0x0 KECCAK256 SWAP1 JUMPDEST DUP2 SLOAD DUP2 MSTORE SWAP1 PUSH1 0x1 ADD SWAP1 PUSH1 0x20 ADD DUP1 DUP4 GT PUSH2 0x4AD2 JUMPI DUP3 SWAP1 SUB PUSH1 0x1F AND DUP3 ADD SWAP2 JUMPDEST POP POP POP POP POP DUP2 MSTORE POP POP SWAP1 POP PUSH1 0x0 PUSH2 0x4B1B PUSH1 0x64 PUSH2 0x4B15 PUSH1 0xA DUP9 PUSH2 0x4FA6 SWAP1 SWAP2 SWAP1 PUSH4 0xFFFFFFFF AND JUMP JUMPDEST SWAP1 PUSH2 0x4FDE JUMP JUMPDEST SWAP1 POP PUSH1 0x0 DUP1 JUMPDEST PUSH1 0x0 DUP7 DUP2 MSTORE PUSH1 0x9 PUSH1 0x20 MSTORE PUSH1 0x40 SWAP1 KECCAK256 SLOAD DUP2 LT ISZERO PUSH2 0x4BAB JUMPI PUSH1 0x0 DUP7 DUP2 MSTORE PUSH1 0x8 PUSH1 0x20 SWAP1 DUP2 MSTORE PUSH1 0x40 DUP1 DUP4 KECCAK256 PUSH1 0x9 SWAP1 SWAP3 MSTORE DUP3 KECCAK256 DUP1 SLOAD DUP4 SWAP2 SWAP1 DUP6 SWAP1 DUP2 LT PUSH2 0x4B64 JUMPI PUSH2 0x4B64 PUSH2 0x5BF7 JUMP JUMPDEST PUSH1 0x0 SWAP2 DUP3 MSTORE PUSH1 0x20 DUP1 DUP4 KECCAK256 SWAP1 SWAP2 ADD SLOAD PUSH1 0x1 PUSH1 0x1 PUSH1 0xA0 SHL SUB AND DUP4 MSTORE DUP3 ADD SWAP3 SWAP1 SWAP3 MSTORE PUSH1 0x40 ADD SWAP1 KECCAK256 SLOAD SWAP1 POP PUSH2 0x4B95 DUP4 DUP3 PUSH2 0x4576 JUMP JUMPDEST SWAP3 POP POP DUP1 DUP1 PUSH2 0x4BA3 SWAP1 PUSH2 0x5C83 JUMP JUMPDEST SWAP2 POP POP PUSH2 0x4B21 JUMP JUMPDEST POP DUP1 ISZERO PUSH2 0x4CB4 JUMPI PUSH1 0x0 PUSH2 0x4BBE DUP4 DUP4 PUSH2 0x4FDE JUMP JUMPDEST SWAP1 POP PUSH1 0x0 JUMPDEST PUSH1 0x0 DUP8 DUP2 MSTORE PUSH1 0x9 PUSH1 0x20 MSTORE PUSH1 0x40 SWAP1 KECCAK256 SLOAD DUP2 LT ISZERO PUSH2 0x4CB1 JUMPI PUSH1 0x0 DUP8 DUP2 MSTORE PUSH1 0x8 PUSH1 0x20 SWAP1 DUP2 MSTORE PUSH1 0x40 DUP1 DUP4 KECCAK256 PUSH1 0x9 SWAP1 SWAP3 MSTORE DUP3 KECCAK256 DUP1 SLOAD DUP4 SWAP2 SWAP1 DUP6 SWAP1 DUP2 LT PUSH2 0x4C06 JUMPI PUSH2 0x4C06 PUSH2 0x5BF7 JUMP JUMPDEST PUSH1 0x0 SWAP2 DUP3 MSTORE PUSH1 0x20 DUP1 DUP4 KECCAK256 SWAP1 SWAP2 ADD SLOAD PUSH1 0x1 PUSH1 0x1 PUSH1 0xA0 SHL SUB AND DUP4 MSTORE DUP3 ADD SWAP3 SWAP1 SWAP3 MSTORE PUSH1 0x40 ADD DUP2 KECCAK256 SLOAD SWAP2 POP PUSH2 0x4C37 DUP5 DUP4 PUSH2 0x4FA6 JUMP JUMPDEST PUSH1 0x0 DUP11 DUP2 MSTORE PUSH1 0x9 PUSH1 0x20 MSTORE PUSH1 0x40 SWAP1 KECCAK256 DUP1 SLOAD SWAP2 SWAP3 POP SWAP1 DUP5 SWAP1 DUP2 LT PUSH2 0x4C5B JUMPI PUSH2 0x4C5B PUSH2 0x5BF7 JUMP JUMPDEST PUSH1 0x0 SWAP2 DUP3 MSTORE PUSH1 0x20 DUP3 KECCAK256 ADD SLOAD PUSH1 0x40 MLOAD PUSH1 0x1 PUSH1 0x1 PUSH1 0xA0 SHL SUB SWAP1 SWAP2 AND SWAP2 DUP4 ISZERO PUSH2 0x8FC MUL SWAP2 DUP5 SWAP2 DUP2 DUP2 DUP2 DUP6 DUP9 DUP9 CALL SWAP4 POP POP POP POP ISZERO DUP1 ISZERO PUSH2 0x4C9B JUMPI RETURNDATASIZE PUSH1 0x0 DUP1 RETURNDATACOPY RETURNDATASIZE PUSH1 0x0 REVERT JUMPDEST POP POP POP DUP1 DUP1 PUSH2 0x4CA9 SWAP1 PUSH2 0x5C83 JUMP JUMPDEST SWAP2 POP POP PUSH2 0x4BC3 JUMP JUMPDEST POP POP JUMPDEST PUSH1 0x0 PUSH2 0x4CC0 DUP8 DUP5 PUSH2 0x455A JUMP JUMPDEST PUSH2 0x120 DUP6 ADD MLOAD PUSH1 0x40 MLOAD SWAP2 SWAP3 POP PUSH1 0x1 PUSH1 0x1 PUSH1 0xA0 SHL SUB AND SWAP1 DUP3 ISZERO PUSH2 0x8FC MUL SWAP1 DUP4 SWAP1 PUSH1 0x0 DUP2 DUP2 DUP2 DUP6 DUP9 DUP9 CALL SWAP4 POP POP POP POP ISZERO DUP1 ISZERO PUSH2 0x4CFE JUMPI RETURNDATASIZE PUSH1 0x0 DUP1 RETURNDATACOPY RETURNDATASIZE PUSH1 0x0 REVERT JUMPDEST POP DUP4 PUSH1 0xB PUSH2 0x4D0D PUSH1 0x1 DUP12 PUSH2 0x5BE4 JUMP JUMPDEST DUP2 SLOAD DUP2 LT PUSH2 0x4D1D JUMPI PUSH2 0x4D1D PUSH2 0x5BF7 JUMP JUMPDEST PUSH1 0x0 SWAP2 DUP3 MSTORE PUSH1 0x20 SWAP2 DUP3 SWAP1 KECCAK256 DUP4 MLOAD PUSH1 0xC SWAP1 SWAP3 MUL ADD SWAP1 DUP2 SSTORE DUP3 DUP3 ADD MLOAD PUSH1 0x1 DUP3 ADD DUP1 SLOAD PUSH1 0x1 PUSH1 0x1 PUSH1 0xA0 SHL SUB SWAP3 DUP4 AND PUSH1 0x1 PUSH1 0x1 PUSH1 0xA0 SHL SUB NOT SWAP2 DUP3 AND OR SWAP1 SWAP2 SSTORE PUSH1 0x40 DUP6 ADD MLOAD PUSH1 0x2 DUP5 ADD DUP1 SLOAD SWAP2 SWAP1 SWAP4 AND SWAP2 AND OR SWAP1 SSTORE PUSH1 0x60 DUP4 ADD MLOAD PUSH1 0x3 DUP3 ADD SSTORE PUSH1 0x80 DUP4 ADD MLOAD PUSH1 0x4 DUP3 ADD SSTORE PUSH1 0xA0 DUP4 ADD MLOAD PUSH1 0x5 DUP3 ADD SSTORE PUSH1 0xC0 DUP4 ADD MLOAD PUSH1 0x6 DUP3 ADD SSTORE PUSH1 0xE0 DUP4 ADD MLOAD DUP1 MLOAD SWAP2 SWAP3 PUSH2 0x4DAF SWAP3 PUSH1 0x7 DUP6 ADD SWAP3 SWAP1 SWAP2 ADD SWAP1 PUSH2 0x5229 JUMP JUMPDEST POP PUSH2 0x100 DUP3 ADD MLOAD DUP1 MLOAD PUSH2 0x4DCC SWAP2 PUSH1 0x8 DUP5 ADD SWAP2 PUSH1 0x20 SWAP1 SWAP2 ADD SWAP1 PUSH2 0x5229 JUMP JUMPDEST POP PUSH2 0x120 DUP3 ADD MLOAD PUSH1 0x9 DUP3 ADD DUP1 SLOAD PUSH1 0x1 PUSH1 0x1 PUSH1 0xA0 SHL SUB NOT AND PUSH1 0x1 PUSH1 0x1 PUSH1 0xA0 SHL SUB SWAP3 DUP4 AND OR SWAP1 SSTORE PUSH2 0x140 DUP4 ADD MLOAD PUSH1 0xA DUP4 ADD DUP1 SLOAD PUSH2 0x160 DUP7 ADD MLOAD SWAP3 SWAP1 SWAP4 AND PUSH1 0x1 PUSH1 0x1 PUSH1 0xA8 SHL SUB NOT SWAP1 SWAP4 AND SWAP3 SWAP1 SWAP3 OR PUSH1 0x1 PUSH1 0xA0 SHL SWAP2 ISZERO ISZERO SWAP2 SWAP1 SWAP2 MUL OR SWAP1 SSTORE PUSH2 0x180 DUP3 ADD MLOAD PUSH1 0xB DUP3 ADD SWAP1 PUSH2 0x4E3B SWAP1 DUP3 PUSH2 0x5D4D JUMP JUMPDEST POP PUSH1 0x1 SWAP11 SWAP10 POP POP POP POP POP POP POP POP POP POP JUMP JUMPDEST PUSH2 0x4E58 DUP5 DUP5 DUP5 DUP5 PUSH2 0x4FF3 JUMP JUMPDEST PUSH1 0x1 PUSH1 0x1 PUSH1 0xA0 SHL SUB DUP5 AND PUSH2 0x4F0B JUMPI PUSH1 0x0 DUP1 JUMPDEST DUP4 MLOAD DUP2 LT ISZERO PUSH2 0x4EF1 JUMPI PUSH1 0x0 DUP4 DUP3 DUP2 MLOAD DUP2 LT PUSH2 0x4E87 JUMPI PUSH2 0x4E87 PUSH2 0x5BF7 JUMP JUMPDEST PUSH1 0x20 MUL PUSH1 0x20 ADD ADD MLOAD SWAP1 POP DUP1 PUSH1 0x3 PUSH1 0x0 DUP8 DUP6 DUP2 MLOAD DUP2 LT PUSH2 0x4EA8 JUMPI PUSH2 0x4EA8 PUSH2 0x5BF7 JUMP JUMPDEST PUSH1 0x20 MUL PUSH1 0x20 ADD ADD MLOAD DUP2 MSTORE PUSH1 0x20 ADD SWAP1 DUP2 MSTORE PUSH1 0x20 ADD PUSH1 0x0 KECCAK256 PUSH1 0x0 DUP3 DUP3 SLOAD PUSH2 0x4ECD SWAP2 SWAP1 PUSH2 0x5E0D JUMP JUMPDEST SWAP1 SWAP2 SSTORE POP PUSH2 0x4EDD SWAP1 POP DUP2 DUP5 PUSH2 0x5E0D JUMP JUMPDEST SWAP3 POP POP DUP1 PUSH2 0x4EEA SWAP1 PUSH2 0x5C83 JUMP JUMPDEST SWAP1 POP PUSH2 0x4E6A JUMP JUMPDEST POP DUP1 PUSH1 0x4 PUSH1 0x0 DUP3 DUP3 SLOAD PUSH2 0x4F04 SWAP2 SWAP1 PUSH2 0x5E0D JUMP JUMPDEST SWAP1 SWAP2 SSTORE POP POP POP JUMPDEST PUSH1 0x1 PUSH1 0x1 PUSH1 0xA0 SHL SUB DUP4 AND PUSH2 0x94D JUMPI PUSH1 0x0 DUP1 JUMPDEST DUP4 MLOAD DUP2 LT ISZERO PUSH2 0x4F95 JUMPI PUSH1 0x0 DUP4 DUP3 DUP2 MLOAD DUP2 LT PUSH2 0x4F3A JUMPI PUSH2 0x4F3A PUSH2 0x5BF7 JUMP JUMPDEST PUSH1 0x20 MUL PUSH1 0x20 ADD ADD MLOAD SWAP1 POP DUP1 PUSH1 0x3 PUSH1 0x0 DUP8 DUP6 DUP2 MLOAD DUP2 LT PUSH2 0x4F5B JUMPI PUSH2 0x4F5B PUSH2 0x5BF7 JUMP JUMPDEST PUSH1 0x20 MUL PUSH1 0x20 ADD ADD MLOAD DUP2 MSTORE PUSH1 0x20 ADD SWAP1 DUP2 MSTORE PUSH1 0x20 ADD PUSH1 0x0 KECCAK256 PUSH1 0x0 DUP3 DUP3 SLOAD SUB SWAP3 POP POP DUP2 SWAP1 SSTORE POP DUP1 DUP4 ADD SWAP3 POP POP DUP1 PUSH2 0x4F8E SWAP1 PUSH2 0x5C83 JUMP JUMPDEST SWAP1 POP PUSH2 0x4F1D JUMP JUMPDEST POP PUSH1 0x4 DUP1 SLOAD SWAP2 SWAP1 SWAP2 SUB SWAP1 SSTORE POP POP POP POP JUMP JUMPDEST PUSH1 0x0 DUP3 PUSH1 0x0 SUB PUSH2 0x4FB8 JUMPI POP PUSH1 0x0 PUSH2 0x7F0 JUMP JUMPDEST PUSH1 0x0 PUSH2 0x4FC4 DUP4 DUP6 PUSH2 0x5E5E JUMP JUMPDEST SWAP1 POP DUP3 PUSH2 0x4FD1 DUP6 DUP4 PUSH2 0x5E4A JUMP JUMPDEST EQ PUSH2 0x1B2A JUMPI PUSH2 0x1B2A PUSH2 0x5E75 JUMP JUMPDEST PUSH1 0x0 DUP1 PUSH2 0x4FEB DUP4 DUP6 PUSH2 0x5E4A JUMP JUMPDEST SWAP5 SWAP4 POP POP POP POP JUMP JUMPDEST DUP1 MLOAD DUP3 MLOAD EQ PUSH2 0x5022 JUMPI DUP2 MLOAD DUP2 MLOAD PUSH1 0x40 MLOAD PUSH4 0x5B059991 PUSH1 0xE0 SHL DUP2 MSTORE PUSH1 0x4 DUP2 ADD SWAP3 SWAP1 SWAP3 MSTORE PUSH1 0x24 DUP3 ADD MSTORE PUSH1 0x44 ADD PUSH2 0x9AD JUMP JUMPDEST CALLER PUSH1 0x0 JUMPDEST DUP4 MLOAD DUP2 LT ISZERO PUSH2 0x514A JUMPI PUSH1 0x20 DUP2 DUP2 MUL DUP6 DUP2 ADD DUP3 ADD MLOAD SWAP1 DUP6 ADD SWAP1 SWAP2 ADD MLOAD PUSH1 0x1 PUSH1 0x1 PUSH1 0xA0 SHL SUB DUP9 AND ISZERO PUSH2 0x50F2 JUMPI PUSH1 0x0 DUP3 DUP2 MSTORE PUSH1 0x20 DUP2 DUP2 MSTORE PUSH1 0x40 DUP1 DUP4 KECCAK256 PUSH1 0x1 PUSH1 0x1 PUSH1 0xA0 SHL SUB DUP13 AND DUP5 MSTORE SWAP1 SWAP2 MSTORE SWAP1 KECCAK256 SLOAD DUP2 DUP2 LT ISZERO PUSH2 0x50CB JUMPI PUSH1 0x40 MLOAD PUSH32 0x3DEE4C500000000000000000000000000000000000000000000000000000000 DUP2 MSTORE PUSH1 0x1 PUSH1 0x1 PUSH1 0xA0 SHL SUB DUP11 AND PUSH1 0x4 DUP3 ADD MSTORE PUSH1 0x24 DUP2 ADD DUP3 SWAP1 MSTORE PUSH1 0x44 DUP2 ADD DUP4 SWAP1 MSTORE PUSH1 0x64 DUP2 ADD DUP5 SWAP1 MSTORE PUSH1 0x84 ADD PUSH2 0x9AD JUMP JUMPDEST PUSH1 0x0 DUP4 DUP2 MSTORE PUSH1 0x20 DUP2 DUP2 MSTORE PUSH1 0x40 DUP1 DUP4 KECCAK256 PUSH1 0x1 PUSH1 0x1 PUSH1 0xA0 SHL SUB DUP14 AND DUP5 MSTORE SWAP1 SWAP2 MSTORE SWAP1 KECCAK256 SWAP1 DUP3 SWAP1 SUB SWAP1 SSTORE JUMPDEST PUSH1 0x1 PUSH1 0x1 PUSH1 0xA0 SHL SUB DUP8 AND ISZERO PUSH2 0x5137 JUMPI PUSH1 0x0 DUP3 DUP2 MSTORE PUSH1 0x20 DUP2 DUP2 MSTORE PUSH1 0x40 DUP1 DUP4 KECCAK256 PUSH1 0x1 PUSH1 0x1 PUSH1 0xA0 SHL SUB DUP12 AND DUP5 MSTORE SWAP1 SWAP2 MSTORE DUP2 KECCAK256 DUP1 SLOAD DUP4 SWAP3 SWAP1 PUSH2 0x5131 SWAP1 DUP5 SWAP1 PUSH2 0x5E0D JUMP JUMPDEST SWAP1 SWAP2 SSTORE POP POP JUMPDEST POP POP DUP1 PUSH2 0x5143 SWAP1 PUSH2 0x5C83 JUMP JUMPDEST SWAP1 POP PUSH2 0x5026 JUMP JUMPDEST POP DUP3 MLOAD PUSH1 0x1 SUB PUSH2 0x51CB JUMPI PUSH1 0x20 DUP4 ADD MLOAD PUSH1 0x0 SWAP1 PUSH1 0x20 DUP5 ADD MLOAD SWAP1 SWAP2 POP DUP6 PUSH1 0x1 PUSH1 0x1 PUSH1 0xA0 SHL SUB AND DUP8 PUSH1 0x1 PUSH1 0x1 PUSH1 0xA0 SHL SUB AND DUP5 PUSH1 0x1 PUSH1 0x1 PUSH1 0xA0 SHL SUB AND PUSH32 0xC3D58168C5AE7397731D063D5BBF3D657854427343F4C083240F7AACAA2D0F62 DUP6 DUP6 PUSH1 0x40 MLOAD PUSH2 0x51BC SWAP3 SWAP2 SWAP1 SWAP2 DUP3 MSTORE PUSH1 0x20 DUP3 ADD MSTORE PUSH1 0x40 ADD SWAP1 JUMP JUMPDEST PUSH1 0x40 MLOAD DUP1 SWAP2 SUB SWAP1 LOG4 POP POP PUSH2 0x2740 JUMP JUMPDEST DUP4 PUSH1 0x1 PUSH1 0x1 PUSH1 0xA0 SHL SUB AND DUP6 PUSH1 0x1 PUSH1 0x1 PUSH1 0xA0 SHL SUB AND DUP3 PUSH1 0x1 PUSH1 0x1 PUSH1 0xA0 SHL SUB AND PUSH32 0x4A39DC06D4C0DBC64B70AF90FD698A233A518AA5D07E595D983B8C0526C8F7FB DUP7 DUP7 PUSH1 0x40 MLOAD PUSH2 0x521A SWAP3 SWAP2 SWAP1 PUSH2 0x5F49 JUMP JUMPDEST PUSH1 0x40 MLOAD DUP1 SWAP2 SUB SWAP1 LOG4 POP POP POP POP POP JUMP JUMPDEST DUP3 DUP1 SLOAD DUP3 DUP3 SSTORE SWAP1 PUSH1 0x0 MSTORE PUSH1 0x20 PUSH1 0x0 KECCAK256 SWAP1 DUP2 ADD SWAP3 DUP3 ISZERO PUSH2 0x5264 JUMPI SWAP2 PUSH1 0x20 MUL DUP3 ADD JUMPDEST DUP3 DUP2 GT ISZERO PUSH2 0x5264 JUMPI DUP3 MLOAD DUP3 SSTORE SWAP2 PUSH1 0x20 ADD SWAP2 SWAP1 PUSH1 0x1 ADD SWAP1 PUSH2 0x5249 JUMP JUMPDEST POP PUSH2 0x5270 SWAP3 SWAP2 POP PUSH2 0x5274 JUMP JUMPDEST POP SWAP1 JUMP JUMPDEST JUMPDEST DUP1 DUP3 GT ISZERO PUSH2 0x5270 JUMPI PUSH1 0x0 DUP2 SSTORE PUSH1 0x1 ADD PUSH2 0x5275 JUMP JUMPDEST PUSH1 0x0 PUSH1 0x20 DUP3 DUP5 SUB SLT ISZERO PUSH2 0x529B JUMPI PUSH1 0x0 DUP1 REVERT JUMPDEST POP CALLDATALOAD SWAP2 SWAP1 POP JUMP JUMPDEST DUP1 CALLDATALOAD PUSH1 0x1 PUSH1 0x1 PUSH1 0xA0 SHL SUB DUP2 AND DUP2 EQ PUSH2 0x43CF JUMPI PUSH1 0x0 DUP1 REVERT JUMPDEST PUSH1 0x0 DUP1 PUSH1 0x40 DUP4 DUP6 SUB SLT ISZERO PUSH2 0x52CC JUMPI PUSH1 0x0 DUP1 REVERT JUMPDEST PUSH2 0x52D5 DUP4 PUSH2 0x52A2 JUMP JUMPDEST SWAP5 PUSH1 0x20 SWAP4 SWAP1 SWAP4 ADD CALLDATALOAD SWAP4 POP POP POP JUMP JUMPDEST PUSH1 0x1 PUSH1 0x1 PUSH1 0xE0 SHL SUB NOT DUP2 AND DUP2 EQ PUSH2 0x8A2 JUMPI PUSH1 0x0 DUP1 REVERT JUMPDEST PUSH1 0x0 PUSH1 0x20 DUP3 DUP5 SUB SLT ISZERO PUSH2 0x530B JUMPI PUSH1 0x0 DUP1 REVERT JUMPDEST DUP2 CALLDATALOAD PUSH2 0x1B2A DUP2 PUSH2 0x52E3 JUMP JUMPDEST PUSH4 0x4E487B71 PUSH1 0xE0 SHL PUSH1 0x0 MSTORE PUSH1 0x41 PUSH1 0x4 MSTORE PUSH1 0x24 PUSH1 0x0 REVERT JUMPDEST PUSH1 0x40 MLOAD PUSH1 0x1F DUP3 ADD PUSH1 0x1F NOT AND DUP2 ADD PUSH8 0xFFFFFFFFFFFFFFFF DUP2 GT DUP3 DUP3 LT OR ISZERO PUSH2 0x5355 JUMPI PUSH2 0x5355 PUSH2 0x5316 JUMP JUMPDEST PUSH1 0x40 MSTORE SWAP2 SWAP1 POP JUMP JUMPDEST PUSH1 0x0 PUSH8 0xFFFFFFFFFFFFFFFF DUP4 GT ISZERO PUSH2 0x5377 JUMPI PUSH2 0x5377 PUSH2 0x5316 JUMP JUMPDEST PUSH2 0x538A PUSH1 0x1F DUP5 ADD PUSH1 0x1F NOT AND PUSH1 0x20 ADD PUSH2 0x532C JUMP JUMPDEST SWAP1 POP DUP3 DUP2 MSTORE DUP4 DUP4 DUP4 ADD GT ISZERO PUSH2 0x539E JUMPI PUSH1 0x0 DUP1 REVERT JUMPDEST DUP3 DUP3 PUSH1 0x20 DUP4 ADD CALLDATACOPY PUSH1 0x0 PUSH1 0x20 DUP5 DUP4 ADD ADD MSTORE SWAP4 SWAP3 POP POP POP JUMP JUMPDEST PUSH1 0x0 PUSH1 0x20 DUP3 DUP5 SUB SLT ISZERO PUSH2 0x53C7 JUMPI PUSH1 0x0 DUP1 REVERT JUMPDEST DUP2 CALLDATALOAD PUSH8 0xFFFFFFFFFFFFFFFF DUP2 GT ISZERO PUSH2 0x53DE JUMPI PUSH1 0x0 DUP1 REVERT JUMPDEST DUP3 ADD PUSH1 0x1F DUP2 ADD DUP5 SGT PUSH2 0x53EF JUMPI PUSH1 0x0 DUP1 REVERT JUMPDEST PUSH2 0x4FEB DUP5 DUP3 CALLDATALOAD PUSH1 0x20 DUP5 ADD PUSH2 0x535D JUMP JUMPDEST PUSH1 0x0 JUMPDEST DUP4 DUP2 LT ISZERO PUSH2 0x5419 JUMPI DUP2 DUP2 ADD MLOAD DUP4 DUP3 ADD MSTORE PUSH1 0x20 ADD PUSH2 0x5401 JUMP JUMPDEST POP POP PUSH1 0x0 SWAP2 ADD MSTORE JUMP JUMPDEST PUSH1 0x0 DUP2 MLOAD DUP1 DUP5 MSTORE PUSH2 0x543A DUP2 PUSH1 0x20 DUP7 ADD PUSH1 0x20 DUP7 ADD PUSH2 0x53FE JUMP JUMPDEST PUSH1 0x1F ADD PUSH1 0x1F NOT AND SWAP3 SWAP1 SWAP3 ADD PUSH1 0x20 ADD SWAP3 SWAP2 POP POP JUMP JUMPDEST PUSH1 0x20 DUP2 MSTORE PUSH1 0x0 PUSH2 0x1B2A PUSH1 0x20 DUP4 ADD DUP5 PUSH2 0x5422 JUMP JUMPDEST PUSH1 0x0 PUSH8 0xFFFFFFFFFFFFFFFF DUP3 GT ISZERO PUSH2 0x547B JUMPI PUSH2 0x547B PUSH2 0x5316 JUMP JUMPDEST POP PUSH1 0x5 SHL PUSH1 0x20 ADD SWAP1 JUMP JUMPDEST PUSH1 0x0 DUP3 PUSH1 0x1F DUP4 ADD SLT PUSH2 0x5496 JUMPI PUSH1 0x0 DUP1 REVERT JUMPDEST DUP2 CALLDATALOAD PUSH1 0x20 PUSH2 0x54AB PUSH2 0x54A6 DUP4 PUSH2 0x5461 JUMP JUMPDEST PUSH2 0x532C JUMP JUMPDEST DUP3 DUP2 MSTORE PUSH1 0x5 SWAP3 SWAP1 SWAP3 SHL DUP5 ADD DUP2 ADD SWAP2 DUP2 DUP2 ADD SWAP1 DUP7 DUP5 GT ISZERO PUSH2 0x54CA JUMPI PUSH1 0x0 DUP1 REVERT JUMPDEST DUP3 DUP7 ADD JUMPDEST DUP5 DUP2 LT ISZERO PUSH2 0x54E5 JUMPI DUP1 CALLDATALOAD DUP4 MSTORE SWAP2 DUP4 ADD SWAP2 DUP4 ADD PUSH2 0x54CE JUMP JUMPDEST POP SWAP7 SWAP6 POP POP POP POP POP POP JUMP JUMPDEST PUSH1 0x0 DUP3 PUSH1 0x1F DUP4 ADD SLT PUSH2 0x5501 JUMPI PUSH1 0x0 DUP1 REVERT JUMPDEST PUSH2 0x1B2A DUP4 DUP4 CALLDATALOAD PUSH1 0x20 DUP6 ADD PUSH2 0x535D JUMP JUMPDEST PUSH1 0x0 DUP1 PUSH1 0x0 DUP1 PUSH1 0x80 DUP6 DUP8 SUB SLT ISZERO PUSH2 0x5526 JUMPI PUSH1 0x0 DUP1 REVERT JUMPDEST PUSH2 0x552F DUP6 PUSH2 0x52A2 JUMP JUMPDEST SWAP4 POP PUSH1 0x20 DUP6 ADD CALLDATALOAD PUSH8 0xFFFFFFFFFFFFFFFF DUP1 DUP3 GT ISZERO PUSH2 0x554C JUMPI PUSH1 0x0 DUP1 REVERT JUMPDEST PUSH2 0x5558 DUP9 DUP4 DUP10 ADD PUSH2 0x5485 JUMP JUMPDEST SWAP5 POP PUSH1 0x40 DUP8 ADD CALLDATALOAD SWAP2 POP DUP1 DUP3 GT ISZERO PUSH2 0x556E JUMPI PUSH1 0x0 DUP1 REVERT JUMPDEST PUSH2 0x557A DUP9 DUP4 DUP10 ADD PUSH2 0x5485 JUMP JUMPDEST SWAP4 POP PUSH1 0x60 DUP8 ADD CALLDATALOAD SWAP2 POP DUP1 DUP3 GT ISZERO PUSH2 0x5590 JUMPI PUSH1 0x0 DUP1 REVERT JUMPDEST POP PUSH2 0x559D DUP8 DUP3 DUP9 ADD PUSH2 0x54F0 JUMP JUMPDEST SWAP2 POP POP SWAP3 SWAP6 SWAP2 SWAP5 POP SWAP3 POP JUMP JUMPDEST PUSH1 0x0 DUP1 PUSH1 0x40 DUP4 DUP6 SUB SLT ISZERO PUSH2 0x55BC JUMPI PUSH1 0x0 DUP1 REVERT JUMPDEST DUP3 CALLDATALOAD SWAP2 POP PUSH1 0x20 DUP4 ADD CALLDATALOAD PUSH8 0xFFFFFFFFFFFFFFFF DUP2 GT ISZERO PUSH2 0x55DA JUMPI PUSH1 0x0 DUP1 REVERT JUMPDEST PUSH2 0x55E6 DUP6 DUP3 DUP7 ADD PUSH2 0x5485 JUMP JUMPDEST SWAP2 POP POP SWAP3 POP SWAP3 SWAP1 POP JUMP JUMPDEST PUSH1 0x0 DUP1 PUSH1 0x0 DUP1 PUSH1 0x0 PUSH1 0xA0 DUP7 DUP9 SUB SLT ISZERO PUSH2 0x5608 JUMPI PUSH1 0x0 DUP1 REVERT JUMPDEST PUSH2 0x5611 DUP7 PUSH2 0x52A2 JUMP JUMPDEST SWAP5 POP PUSH2 0x561F PUSH1 0x20 DUP8 ADD PUSH2 0x52A2 JUMP JUMPDEST SWAP4 POP PUSH1 0x40 DUP7 ADD CALLDATALOAD PUSH8 0xFFFFFFFFFFFFFFFF DUP1 DUP3 GT ISZERO PUSH2 0x563C JUMPI PUSH1 0x0 DUP1 REVERT JUMPDEST PUSH2 0x5648 DUP10 DUP4 DUP11 ADD PUSH2 0x5485 JUMP JUMPDEST SWAP5 POP PUSH1 0x60 DUP9 ADD CALLDATALOAD SWAP2 POP DUP1 DUP3 GT ISZERO PUSH2 0x565E JUMPI PUSH1 0x0 DUP1 REVERT JUMPDEST PUSH2 0x566A DUP10 DUP4 DUP11 ADD PUSH2 0x5485 JUMP JUMPDEST SWAP4 POP PUSH1 0x80 DUP9 ADD CALLDATALOAD SWAP2 POP DUP1 DUP3 GT ISZERO PUSH2 0x5680 JUMPI PUSH1 0x0 DUP1 REVERT JUMPDEST POP PUSH2 0x568D DUP9 DUP3 DUP10 ADD PUSH2 0x54F0 JUMP JUMPDEST SWAP2 POP POP SWAP3 SWAP6 POP SWAP3 SWAP6 SWAP1 SWAP4 POP JUMP JUMPDEST PUSH1 0x0 DUP1 PUSH1 0x40 DUP4 DUP6 SUB SLT ISZERO PUSH2 0x56AD JUMPI PUSH1 0x0 DUP1 REVERT JUMPDEST POP POP DUP1 CALLDATALOAD SWAP3 PUSH1 0x20 SWAP1 SWAP2 ADD CALLDATALOAD SWAP2 POP JUMP JUMPDEST PUSH1 0x0 DUP1 PUSH1 0x40 DUP4 DUP6 SUB SLT ISZERO PUSH2 0x56CF JUMPI PUSH1 0x0 DUP1 REVERT JUMPDEST DUP3 CALLDATALOAD PUSH8 0xFFFFFFFFFFFFFFFF DUP1 DUP3 GT ISZERO PUSH2 0x56E7 JUMPI PUSH1 0x0 DUP1 REVERT JUMPDEST DUP2 DUP6 ADD SWAP2 POP DUP6 PUSH1 0x1F DUP4 ADD SLT PUSH2 0x56FB JUMPI PUSH1 0x0 DUP1 REVERT JUMPDEST DUP2 CALLDATALOAD PUSH1 0x20 PUSH2 0x570B PUSH2 0x54A6 DUP4 PUSH2 0x5461 JUMP JUMPDEST DUP3 DUP2 MSTORE PUSH1 0x5 SWAP3 SWAP1 SWAP3 SHL DUP5 ADD DUP2 ADD SWAP2 DUP2 DUP2 ADD SWAP1 DUP10 DUP5 GT ISZERO PUSH2 0x572A JUMPI PUSH1 0x0 DUP1 REVERT JUMPDEST SWAP5 DUP3 ADD SWAP5 JUMPDEST DUP4 DUP7 LT ISZERO PUSH2 0x574F JUMPI PUSH2 0x5740 DUP7 PUSH2 0x52A2 JUMP JUMPDEST DUP3 MSTORE SWAP5 DUP3 ADD SWAP5 SWAP1 DUP3 ADD SWAP1 PUSH2 0x572F JUMP JUMPDEST SWAP7 POP POP DUP7 ADD CALLDATALOAD SWAP3 POP POP DUP1 DUP3 GT ISZERO PUSH2 0x5765 JUMPI PUSH1 0x0 DUP1 REVERT JUMPDEST POP PUSH2 0x55E6 DUP6 DUP3 DUP7 ADD PUSH2 0x5485 JUMP JUMPDEST PUSH1 0x0 DUP2 MLOAD DUP1 DUP5 MSTORE PUSH1 0x20 DUP1 DUP6 ADD SWAP5 POP DUP1 DUP5 ADD PUSH1 0x0 JUMPDEST DUP4 DUP2 LT ISZERO PUSH2 0x57A2 JUMPI DUP2 MLOAD DUP8 MSTORE SWAP6 DUP3 ADD SWAP6 SWAP1 DUP3 ADD SWAP1 PUSH1 0x1 ADD PUSH2 0x5786 JUMP JUMPDEST POP SWAP5 SWAP6 SWAP5 POP POP POP POP POP JUMP JUMPDEST PUSH1 0x20 DUP2 MSTORE PUSH1 0x0 PUSH2 0x1B2A PUSH1 0x20 DUP4 ADD DUP5 PUSH2 0x5772 JUMP JUMPDEST PUSH1 0x0 PUSH2 0x1A0 DUP3 MLOAD DUP5 MSTORE PUSH1 0x20 DUP4 ADD MLOAD PUSH2 0x57E3 PUSH1 0x20 DUP7 ADD DUP3 PUSH1 0x1 PUSH1 0x1 PUSH1 0xA0 SHL SUB AND SWAP1 MSTORE JUMP JUMPDEST POP PUSH1 0x40 DUP4 ADD MLOAD PUSH2 0x57FE PUSH1 0x40 DUP7 ADD DUP3 PUSH1 0x1 PUSH1 0x1 PUSH1 0xA0 SHL SUB AND SWAP1 MSTORE JUMP JUMPDEST POP PUSH1 0x60 DUP4 ADD MLOAD PUSH1 0x60 DUP6 ADD MSTORE PUSH1 0x80 DUP4 ADD MLOAD PUSH1 0x80 DUP6 ADD MSTORE PUSH1 0xA0 DUP4 ADD MLOAD PUSH1 0xA0 DUP6 ADD MSTORE PUSH1 0xC0 DUP4 ADD MLOAD PUSH1 0xC0 DUP6 ADD MSTORE PUSH1 0xE0 DUP4 ADD MLOAD DUP2 PUSH1 0xE0 DUP7 ADD MSTORE PUSH2 0x583E DUP3 DUP7 ADD DUP3 PUSH2 0x5772 JUMP JUMPDEST SWAP2 POP POP PUSH2 0x100 DUP1 DUP5 ADD MLOAD DUP6 DUP4 SUB DUP3 DUP8 ADD MSTORE PUSH2 0x5859 DUP4 DUP3 PUSH2 0x5772 JUMP JUMPDEST SWAP3 POP POP POP PUSH2 0x120 DUP1 DUP5 ADD MLOAD PUSH2 0x5878 DUP3 DUP8 ADD DUP3 PUSH1 0x1 PUSH1 0x1 PUSH1 0xA0 SHL SUB AND SWAP1 MSTORE JUMP JUMPDEST POP POP PUSH2 0x140 DUP4 DUP2 ADD MLOAD PUSH1 0x1 PUSH1 0x1 PUSH1 0xA0 SHL SUB AND SWAP1 DUP6 ADD MSTORE PUSH2 0x160 DUP1 DUP5 ADD MLOAD ISZERO ISZERO SWAP1 DUP6 ADD MSTORE PUSH2 0x180 DUP1 DUP5 ADD MLOAD DUP6 DUP4 SUB DUP3 DUP8 ADD MSTORE PUSH2 0x58B3 DUP4 DUP3 PUSH2 0x5422 JUMP JUMPDEST SWAP7 SWAP6 POP POP POP POP POP POP JUMP JUMPDEST PUSH1 0x0 PUSH1 0x20 DUP1 DUP4 ADD DUP2 DUP5 MSTORE DUP1 DUP6 MLOAD DUP1 DUP4 MSTORE PUSH1 0x40 DUP7 ADD SWAP2 POP PUSH1 0x40 DUP2 PUSH1 0x5 SHL DUP8 ADD ADD SWAP3 POP DUP4 DUP8 ADD PUSH1 0x0 JUMPDEST DUP3 DUP2 LT ISZERO PUSH2 0x5912 JUMPI PUSH1 0x3F NOT DUP9 DUP7 SUB ADD DUP5 MSTORE PUSH2 0x5900 DUP6 DUP4 MLOAD PUSH2 0x57C0 JUMP JUMPDEST SWAP5 POP SWAP3 DUP6 ADD SWAP3 SWAP1 DUP6 ADD SWAP1 PUSH1 0x1 ADD PUSH2 0x58E4 JUMP JUMPDEST POP SWAP3 SWAP8 SWAP7 POP POP POP POP POP POP POP JUMP JUMPDEST PUSH1 0x0 PUSH2 0x160 DUP14 DUP4 MSTORE PUSH1 0x1 PUSH1 0x1 PUSH1 0xA0 SHL SUB DUP1 DUP15 AND PUSH1 0x20 DUP6 ADD MSTORE DUP1 DUP14 AND PUSH1 0x40 DUP6 ADD MSTORE DUP12 PUSH1 0x60 DUP6 ADD MSTORE DUP11 PUSH1 0x80 DUP6 ADD MSTORE DUP10 PUSH1 0xA0 DUP6 ADD MSTORE DUP9 PUSH1 0xC0 DUP6 ADD MSTORE DUP1 DUP9 AND PUSH1 0xE0 DUP6 ADD MSTORE DUP1 DUP8 AND PUSH2 0x100 DUP6 ADD MSTORE POP DUP5 ISZERO ISZERO PUSH2 0x120 DUP5 ADD MSTORE DUP1 PUSH2 0x140 DUP5 ADD MSTORE PUSH2 0x5985 DUP2 DUP5 ADD DUP6 PUSH2 0x5422 JUMP JUMPDEST SWAP15 SWAP14 POP POP POP POP POP POP POP POP POP POP POP POP POP POP JUMP JUMPDEST PUSH1 0x0 DUP1 PUSH1 0x0 PUSH1 0x60 DUP5 DUP7 SUB SLT ISZERO PUSH2 0x59AC JUMPI PUSH1 0x0 DUP1 REVERT JUMPDEST DUP4 CALLDATALOAD SWAP3 POP PUSH1 0x20 DUP5 ADD CALLDATALOAD SWAP2 POP PUSH1 0x40 DUP5 ADD CALLDATALOAD PUSH8 0xFFFFFFFFFFFFFFFF DUP2 GT ISZERO PUSH2 0x59D1 JUMPI PUSH1 0x0 DUP1 REVERT JUMPDEST PUSH2 0x59DD DUP7 DUP3 DUP8 ADD PUSH2 0x5485 JUMP JUMPDEST SWAP2 POP POP SWAP3 POP SWAP3 POP SWAP3 JUMP JUMPDEST PUSH1 0x20 DUP2 MSTORE PUSH1 0x0 PUSH2 0x1B2A PUSH1 0x20 DUP4 ADD DUP5 PUSH2 0x57C0 JUMP JUMPDEST PUSH1 0x0 DUP1 PUSH1 0x0 DUP1 PUSH1 0x80 DUP6 DUP8 SUB SLT ISZERO PUSH2 0x5A10 JUMPI PUSH1 0x0 DUP1 REVERT JUMPDEST PUSH2 0x5A19 DUP6 PUSH2 0x52A2 JUMP JUMPDEST SWAP4 POP PUSH1 0x20 DUP6 ADD CALLDATALOAD SWAP3 POP PUSH1 0x40 DUP6 ADD CALLDATALOAD SWAP2 POP PUSH1 0x60 DUP6 ADD CALLDATALOAD PUSH8 0xFFFFFFFFFFFFFFFF DUP2 GT ISZERO PUSH2 0x5A43 JUMPI PUSH1 0x0 DUP1 REVERT JUMPDEST PUSH2 0x559D DUP8 DUP3 DUP9 ADD PUSH2 0x54F0 JUMP JUMPDEST PUSH1 0x0 PUSH1 0x20 DUP3 DUP5 SUB SLT ISZERO PUSH2 0x5A61 JUMPI PUSH1 0x0 DUP1 REVERT JUMPDEST PUSH2 0x1B2A DUP3 PUSH2 0x52A2 JUMP JUMPDEST PUSH1 0x0 DUP1 PUSH1 0x40 DUP4 DUP6 SUB SLT ISZERO PUSH2 0x5A7D JUMPI PUSH1 0x0 DUP1 REVERT JUMPDEST PUSH2 0x5A86 DUP4 PUSH2 0x52A2 JUMP JUMPDEST SWAP2 POP PUSH1 0x20 DUP4 ADD CALLDATALOAD DUP1 ISZERO ISZERO DUP2 EQ PUSH2 0x5A9B JUMPI PUSH1 0x0 DUP1 REVERT JUMPDEST DUP1 SWAP2 POP POP SWAP3 POP SWAP3 SWAP1 POP JUMP JUMPDEST PUSH1 0x0 DUP1 PUSH1 0x40 DUP4 DUP6 SUB SLT ISZERO PUSH2 0x5AB9 JUMPI PUSH1 0x0 DUP1 REVERT JUMPDEST DUP3 CALLDATALOAD SWAP2 POP PUSH2 0x5AC9 PUSH1 0x20 DUP5 ADD PUSH2 0x52A2 JUMP JUMPDEST SWAP1 POP SWAP3 POP SWAP3 SWAP1 POP JUMP JUMPDEST PUSH1 0x0 DUP1 PUSH1 0x40 DUP4 DUP6 SUB SLT ISZERO PUSH2 0x5AE5 JUMPI PUSH1 0x0 DUP1 REVERT JUMPDEST PUSH2 0x5AEE DUP4 PUSH2 0x52A2 JUMP JUMPDEST SWAP2 POP PUSH2 0x5AC9 PUSH1 0x20 DUP5 ADD PUSH2 0x52A2 JUMP JUMPDEST PUSH1 0x0 DUP1 PUSH1 0x0 DUP1 PUSH1 0x0 PUSH1 0xA0 DUP7 DUP9 SUB SLT ISZERO PUSH2 0x5B14 JUMPI PUSH1 0x0 DUP1 REVERT JUMPDEST PUSH2 0x5B1D DUP7 PUSH2 0x52A2 JUMP JUMPDEST SWAP5 POP PUSH2 0x5B2B PUSH1 0x20 DUP8 ADD PUSH2 0x52A2 JUMP JUMPDEST SWAP4 POP PUSH1 0x40 DUP7 ADD CALLDATALOAD SWAP3 POP PUSH1 0x60 DUP7 ADD CALLDATALOAD SWAP2 POP PUSH1 0x80 DUP7 ADD CALLDATALOAD PUSH8 0xFFFFFFFFFFFFFFFF DUP2 GT ISZERO PUSH2 0x5B55 JUMPI PUSH1 0x0 DUP1 REVERT JUMPDEST PUSH2 0x568D DUP9 DUP3 DUP10 ADD PUSH2 0x54F0 JUMP JUMPDEST PUSH1 0x0 DUP1 PUSH1 0x0 PUSH1 0x60 DUP5 DUP7 SUB SLT ISZERO PUSH2 0x5B76 JUMPI PUSH1 0x0 DUP1 REVERT JUMPDEST PUSH2 0x5B7F DUP5 PUSH2 0x52A2 JUMP JUMPDEST SWAP6 PUSH1 0x20 DUP6 ADD CALLDATALOAD SWAP6 POP PUSH1 0x40 SWAP1 SWAP5 ADD CALLDATALOAD SWAP4 SWAP3 POP POP POP JUMP JUMPDEST PUSH1 0x1 DUP2 DUP2 SHR SWAP1 DUP3 AND DUP1 PUSH2 0x5BA8 JUMPI PUSH1 0x7F DUP3 AND SWAP2 POP JUMPDEST PUSH1 0x20 DUP3 LT DUP2 SUB PUSH2 0x5BC8 JUMPI PUSH4 0x4E487B71 PUSH1 0xE0 SHL PUSH1 0x0 MSTORE PUSH1 0x22 PUSH1 0x4 MSTORE PUSH1 0x24 PUSH1 0x0 REVERT JUMPDEST POP SWAP2 SWAP1 POP JUMP JUMPDEST PUSH4 0x4E487B71 PUSH1 0xE0 SHL PUSH1 0x0 MSTORE PUSH1 0x11 PUSH1 0x4 MSTORE PUSH1 0x24 PUSH1 0x0 REVERT JUMPDEST DUP2 DUP2 SUB DUP2 DUP2 GT ISZERO PUSH2 0x7F0 JUMPI PUSH2 0x7F0 PUSH2 0x5BCE JUMP JUMPDEST PUSH4 0x4E487B71 PUSH1 0xE0 SHL PUSH1 0x0 MSTORE PUSH1 0x32 PUSH1 0x4 MSTORE PUSH1 0x24 PUSH1 0x0 REVERT JUMPDEST PUSH1 0x0 DUP1 DUP4 SLOAD PUSH2 0x5C1B DUP2 PUSH2 0x5B94 JUMP JUMPDEST PUSH1 0x1 DUP3 DUP2 AND DUP1 ISZERO PUSH2 0x5C33 JUMPI PUSH1 0x1 DUP2 EQ PUSH2 0x5C48 JUMPI PUSH2 0x5C77 JUMP JUMPDEST PUSH1 0xFF NOT DUP5 AND DUP8 MSTORE DUP3 ISZERO ISZERO DUP4 MUL DUP8 ADD SWAP5 POP PUSH2 0x5C77 JUMP JUMPDEST DUP8 PUSH1 0x0 MSTORE PUSH1 0x20 DUP1 PUSH1 0x0 KECCAK256 PUSH1 0x0 JUMPDEST DUP6 DUP2 LT ISZERO PUSH2 0x5C6E JUMPI DUP2 SLOAD DUP11 DUP3 ADD MSTORE SWAP1 DUP5 ADD SWAP1 DUP3 ADD PUSH2 0x5C55 JUMP JUMPDEST POP POP POP DUP3 DUP8 ADD SWAP5 POP JUMPDEST POP SWAP3 SWAP7 SWAP6 POP POP POP POP POP POP JUMP JUMPDEST PUSH1 0x0 PUSH1 0x1 DUP3 ADD PUSH2 0x5C95 JUMPI PUSH2 0x5C95 PUSH2 0x5BCE JUMP JUMPDEST POP PUSH1 0x1 ADD SWAP1 JUMP JUMPDEST PUSH32 0x687474703A2F2F35312E33382E3139302E3133343A313135362F6170692F6361 DUP2 MSTORE PUSH32 0x7264732F00000000000000000000000000000000000000000000000000000000 PUSH1 0x20 DUP3 ADD MSTORE PUSH1 0x0 DUP3 MLOAD PUSH2 0x5CFA DUP2 PUSH1 0x24 DUP6 ADD PUSH1 0x20 DUP8 ADD PUSH2 0x53FE JUMP JUMPDEST SWAP2 SWAP1 SWAP2 ADD PUSH1 0x24 ADD SWAP3 SWAP2 POP POP JUMP JUMPDEST PUSH1 0x1F DUP3 GT ISZERO PUSH2 0xC0D JUMPI PUSH1 0x0 DUP2 DUP2 MSTORE PUSH1 0x20 DUP2 KECCAK256 PUSH1 0x1F DUP6 ADD PUSH1 0x5 SHR DUP2 ADD PUSH1 0x20 DUP7 LT ISZERO PUSH2 0x5D2E JUMPI POP DUP1 JUMPDEST PUSH1 0x1F DUP6 ADD PUSH1 0x5 SHR DUP3 ADD SWAP2 POP JUMPDEST DUP2 DUP2 LT ISZERO PUSH2 0xC90 JUMPI DUP3 DUP2 SSTORE PUSH1 0x1 ADD PUSH2 0x5D3A JUMP JUMPDEST DUP2 MLOAD PUSH8 0xFFFFFFFFFFFFFFFF DUP2 GT ISZERO PUSH2 0x5D67 JUMPI PUSH2 0x5D67 PUSH2 0x5316 JUMP JUMPDEST PUSH2 0x5D7B DUP2 PUSH2 0x5D75 DUP5 SLOAD PUSH2 0x5B94 JUMP JUMPDEST DUP5 PUSH2 0x5D07 JUMP JUMPDEST PUSH1 0x20 DUP1 PUSH1 0x1F DUP4 GT PUSH1 0x1 DUP2 EQ PUSH2 0x5DB0 JUMPI PUSH1 0x0 DUP5 ISZERO PUSH2 0x5D98 JUMPI POP DUP6 DUP4 ADD MLOAD JUMPDEST PUSH1 0x0 NOT PUSH1 0x3 DUP7 SWAP1 SHL SHR NOT AND PUSH1 0x1 DUP6 SWAP1 SHL OR DUP6 SSTORE PUSH2 0xC90 JUMP JUMPDEST PUSH1 0x0 DUP6 DUP2 MSTORE PUSH1 0x20 DUP2 KECCAK256 PUSH1 0x1F NOT DUP7 AND SWAP2 JUMPDEST DUP3 DUP2 LT ISZERO PUSH2 0x5DDF JUMPI DUP9 DUP7 ADD MLOAD DUP3 SSTORE SWAP5 DUP5 ADD SWAP5 PUSH1 0x1 SWAP1 SWAP2 ADD SWAP1 DUP5 ADD PUSH2 0x5DC0 JUMP JUMPDEST POP DUP6 DUP3 LT ISZERO PUSH2 0x5DFD JUMPI DUP8 DUP6 ADD MLOAD PUSH1 0x0 NOT PUSH1 0x3 DUP9 SWAP1 SHL PUSH1 0xF8 AND SHR NOT AND DUP2 SSTORE JUMPDEST POP POP POP POP POP PUSH1 0x1 SWAP1 DUP2 SHL ADD SWAP1 SSTORE POP JUMP JUMPDEST DUP1 DUP3 ADD DUP1 DUP3 GT ISZERO PUSH2 0x7F0 JUMPI PUSH2 0x7F0 PUSH2 0x5BCE JUMP JUMPDEST PUSH4 0x4E487B71 PUSH1 0xE0 SHL PUSH1 0x0 MSTORE PUSH1 0x12 PUSH1 0x4 MSTORE PUSH1 0x24 PUSH1 0x0 REVERT JUMPDEST PUSH1 0x0 DUP3 PUSH2 0x5E45 JUMPI PUSH2 0x5E45 PUSH2 0x5E20 JUMP JUMPDEST POP MOD SWAP1 JUMP JUMPDEST PUSH1 0x0 DUP3 PUSH2 0x5E59 JUMPI PUSH2 0x5E59 PUSH2 0x5E20 JUMP JUMPDEST POP DIV SWAP1 JUMP JUMPDEST DUP1 DUP3 MUL DUP2 ISZERO DUP3 DUP3 DIV DUP5 EQ OR PUSH2 0x7F0 JUMPI PUSH2 0x7F0 PUSH2 0x5BCE JUMP JUMPDEST PUSH4 0x4E487B71 PUSH1 0xE0 SHL PUSH1 0x0 MSTORE PUSH1 0x1 PUSH1 0x4 MSTORE PUSH1 0x24 PUSH1 0x0 REVERT JUMPDEST PUSH1 0x0 PUSH1 0x1 PUSH1 0x1 PUSH1 0xA0 SHL SUB DUP1 DUP9 AND DUP4 MSTORE DUP1 DUP8 AND PUSH1 0x20 DUP5 ADD MSTORE POP DUP5 PUSH1 0x40 DUP4 ADD MSTORE DUP4 PUSH1 0x60 DUP4 ADD MSTORE PUSH1 0xA0 PUSH1 0x80 DUP4 ADD MSTORE PUSH2 0x5EC3 PUSH1 0xA0 DUP4 ADD DUP5 PUSH2 0x5422 JUMP JUMPDEST SWAP8 SWAP7 POP POP POP POP POP POP POP JUMP JUMPDEST PUSH1 0x0 PUSH1 0x20 DUP3 DUP5 SUB SLT ISZERO PUSH2 0x5EE0 JUMPI PUSH1 0x0 DUP1 REVERT JUMPDEST DUP2 MLOAD PUSH2 0x1B2A DUP2 PUSH2 0x52E3 JUMP JUMPDEST PUSH1 0x0 PUSH1 0x1 PUSH1 0x1 PUSH1 0xA0 SHL SUB DUP1 DUP9 AND DUP4 MSTORE DUP1 DUP8 AND PUSH1 0x20 DUP5 ADD MSTORE POP PUSH1 0xA0 PUSH1 0x40 DUP4 ADD MSTORE PUSH2 0x5F17 PUSH1 0xA0 DUP4 ADD DUP7 PUSH2 0x5772 JUMP JUMPDEST DUP3 DUP2 SUB PUSH1 0x60 DUP5 ADD MSTORE PUSH2 0x5F29 DUP2 DUP7 PUSH2 0x5772 JUMP JUMPDEST SWAP1 POP DUP3 DUP2 SUB PUSH1 0x80 DUP5 ADD MSTORE PUSH2 0x5F3D DUP2 DUP6 PUSH2 0x5422 JUMP JUMPDEST SWAP9 SWAP8 POP POP POP POP POP POP POP POP JUMP JUMPDEST PUSH1 0x40 DUP2 MSTORE PUSH1 0x0 PUSH2 0x5F5C PUSH1 0x40 DUP4 ADD DUP6 PUSH2 0x5772 JUMP JUMPDEST DUP3 DUP2 SUB PUSH1 0x20 DUP5 ADD MSTORE PUSH2 0x5F6E DUP2 DUP6 PUSH2 0x5772 JUMP JUMPDEST SWAP6 SWAP5 POP POP POP POP POP JUMP INVALID LOG2 PUSH5 0x6970667358 0x22 SLT KECCAK256 SHL SWAP10 0xF9 0xDB LOG3 0xDD PREVRANDAO 0xCE 0x4B SLT 0xFC BALANCE PUSH22 0x4787EFBDFB8AD5ABAFC1339CD6E82E3368347E64736F PUSH13 0x63430008140033687474703A2F 0x2F CALLDATALOAD BALANCE 0x2E CALLER CODESIZE 0x2E BALANCE CODECOPY ADDRESS 0x2E BALANCE CALLER CALLVALUE GASPRICE BALANCE BALANCE CALLDATALOAD CALLDATALOAD 0x2F PUSH4 0x61726473 0x2F PUSH28 0x69647D2E6A736F6E0000000000000000000000000000000000000000 "},"methodIdentifiers":{"addressToCardInBattle(address,uint256)":"efefb0dd","balanceOf(address,uint256)":"00fdd58e","balanceOfBatch(address[],uint256[])":"4e1273f4","battles(uint256)":"606d2e96","burn(address,uint256,uint256)":"f5298aca","cancelBattle(uint256)":"4c4c447e","cardIdMax()":"8da7722a","cardIdToOwnerToAmount(uint256,address)":"e9994267","cardIdToOwners(uint256,uint256)":"34303187","changeCardIdMax(uint256)":"0066fd0d","confirmBattle(uint256,uint256[])":"27343190","exists(uint256)":"4f558e79","getAllBalance(address)":"9347fb3d","getAllBattle()":"b24a97c3","getAllBattleUser()":"4f1b92fb","getBalanceOf(uint256,address)":"bfa0af6d","getBattle(uint256)":"6dd0ce7a","getCardIdMax()":"4673f332","initBattle(uint256)":"f1632cd1","isApprovedForAll(address,address)":"e985e9c5","mint(address,uint256,uint256,bytes)":"731133e9","mintBatch(address,uint256[],uint256[],bytes)":"1f7fdffa","nonce()":"affed0e0","openPack()":"3c4ea385","owner()":"8da5cb5b","renounceOwnership()":"715018a6","safeBatchTransferFrom(address,address,uint256[],uint256[],bytes)":"2eb2c2d6","safeTransferFrom(address,address,uint256,uint256,bytes)":"f242432a","selectBattle(uint256,uint256,uint256[])":"65a41521","setApprovalForAll(address,bool)":"a22cb465","setURI(string)":"02fe5305","supportsInterface(bytes4)":"01ffc9a7","tokenURI(uint256)":"c87b56dd","totalSupply()":"18160ddd","totalSupply(uint256)":"bd85b039","transferOwnership(address)":"f2fde38b","uri(uint256)":"0e89341c"}}}}}