{"contracts/betting_e_sport.sol":{"BettingESport":{"abi":[{"inputs":[],"stateMutability":"nonpayable","type":"constructor"},{"anonymous":false,"inputs":[{"indexed":true,"internalType":"address","name":"player","type":"address"},{"indexed":false,"internalType":"uint256","name":"amount","type":"uint256"},{"components":[{"internalType":"uint256","name":"id","type":"uint256"},{"internalType":"string","name":"name","type":"string"},{"internalType":"bool","name":"isFinished","type":"bool"},{"components":[{"internalType":"uint256","name":"id","type":"uint256"},{"internalType":"string","name":"name","type":"string"},{"internalType":"uint256","name":"value","type":"uint256"}],"internalType":"struct BettingESport.Team","name":"firstTeam","type":"tuple"},{"components":[{"internalType":"uint256","name":"id","type":"uint256"},{"internalType":"string","name":"name","type":"string"},{"internalType":"uint256","name":"value","type":"uint256"}],"internalType":"struct BettingESport.Team","name":"secondTeam","type":"tuple"}],"indexed":false,"internalType":"struct BettingESport.Betting","name":"betting","type":"tuple"}],"name":"BetPlaced","type":"event"},{"anonymous":false,"inputs":[{"indexed":true,"internalType":"address","name":"player","type":"address"},{"indexed":false,"internalType":"uint256","name":"amount","type":"uint256"}],"name":"BetWinner","type":"event"},{"inputs":[{"internalType":"uint256","name":"","type":"uint256"}],"name":"betCounterByBettingId","outputs":[{"internalType":"uint256","name":"","type":"uint256"}],"stateMutability":"view","type":"function"},{"inputs":[{"internalType":"uint256","name":"","type":"uint256"},{"internalType":"uint256","name":"","type":"uint256"}],"name":"bets","outputs":[{"internalType":"uint256","name":"amount","type":"uint256"},{"internalType":"uint256","name":"bettingId","type":"uint256"},{"internalType":"uint256","name":"teamId","type":"uint256"},{"internalType":"address payable","name":"player","type":"address"}],"stateMutability":"view","type":"function"},{"inputs":[{"internalType":"uint256","name":"","type":"uint256"}],"name":"betting","outputs":[{"internalType":"uint256","name":"id","type":"uint256"},{"internalType":"string","name":"name","type":"string"},{"internalType":"bool","name":"isFinished","type":"bool"},{"components":[{"internalType":"uint256","name":"id","type":"uint256"},{"internalType":"string","name":"name","type":"string"},{"internalType":"uint256","name":"value","type":"uint256"}],"internalType":"struct BettingESport.Team","name":"firstTeam","type":"tuple"},{"components":[{"internalType":"uint256","name":"id","type":"uint256"},{"internalType":"string","name":"name","type":"string"},{"internalType":"uint256","name":"value","type":"uint256"}],"internalType":"struct BettingESport.Team","name":"secondTeam","type":"tuple"}],"stateMutability":"view","type":"function"},{"inputs":[],"name":"bettingCounter","outputs":[{"internalType":"uint256","name":"","type":"uint256"}],"stateMutability":"view","type":"function"},{"inputs":[{"internalType":"uint256","name":"bettingId","type":"uint256"},{"internalType":"uint256","name":"winnerTeamId","type":"uint256"}],"name":"closeBet","outputs":[],"stateMutability":"nonpayable","type":"function"},{"inputs":[{"components":[{"internalType":"uint256","name":"amount","type":"uint256"},{"internalType":"uint256","name":"bettingId","type":"uint256"},{"internalType":"uint256","name":"teamId","type":"uint256"},{"internalType":"address payable","name":"player","type":"address"}],"internalType":"struct BettingESport.Bet","name":"bet","type":"tuple"}],"name":"createBet","outputs":[],"stateMutability":"nonpayable","type":"function"},{"inputs":[{"components":[{"internalType":"uint256","name":"id","type":"uint256"},{"internalType":"string","name":"name","type":"string"},{"internalType":"bool","name":"isFinished","type":"bool"},{"components":[{"internalType":"uint256","name":"id","type":"uint256"},{"internalType":"string","name":"name","type":"string"},{"internalType":"uint256","name":"value","type":"uint256"}],"internalType":"struct BettingESport.Team","name":"firstTeam","type":"tuple"},{"components":[{"internalType":"uint256","name":"id","type":"uint256"},{"internalType":"string","name":"name","type":"string"},{"internalType":"uint256","name":"value","type":"uint256"}],"internalType":"struct BettingESport.Team","name":"secondTeam","type":"tuple"}],"internalType":"struct BettingESport.Betting","name":"newBetting","type":"tuple"}],"name":"createBetting","outputs":[],"stateMutability":"nonpayable","type":"function"},{"inputs":[],"name":"owner","outputs":[{"internalType":"address","name":"","type":"address"}],"stateMutability":"view","type":"function"},{"inputs":[{"internalType":"uint256","name":"","type":"uint256"},{"internalType":"uint256","name":"","type":"uint256"}],"name":"winners","outputs":[{"internalType":"uint256","name":"id","type":"uint256"},{"internalType":"uint256","name":"bettingId","type":"uint256"},{"internalType":"address payable","name":"player","type":"address"},{"internalType":"uint256","name":"amount","type":"uint256"}],"stateMutability":"view","type":"function"}],"evm":{"bytecode":{"linkReferences":{},"object":"608060405234801561001057600080fd5b50600080546001600160a01b03191633179055611449806100326000396000f3fe608060405234801561001057600080fd5b50600436106100a35760003560e01c80638a38d6e91161007657806399c21d6d1161005b57806399c21d6d146101a6578063d38d75ae146101b9578063eadc56d2146101cc57600080fd5b80638a38d6e9146101665780638da5cb5b1461017b57600080fd5b80630efc8865146100a857806341ed605f146100f35780636a09f6be1461010a57806383ca33c814610146575b600080fd5b6100bb6100b6366004610d0a565b6101f0565b6040516100ea949392919093845260208401929092526001600160a01b03166040830152606082015260800190565b60405180910390f35b6100fc60045481565b6040519081526020016100ea565b61011d610118366004610d0a565b610242565b604080519485526020850193909352918301526001600160a01b031660608201526080016100ea565b6100fc610154366004610d2c565b60056020526000908152604090205481565b610179610174366004610d84565b610291565b005b60005461018e906001600160a01b031681565b6040516001600160a01b0390911681526020016100ea565b6101796101b4366004610f17565b6105ce565b6101796101c7366004610d0a565b61082c565b6101df6101da366004610d2c565b610ae7565b6040516100ea959493929190611060565b6003602052816000526040600020818154811061020c57600080fd5b6000918252602090912060049091020180546001820154600283015460039093015491945092506001600160a01b039091169084565b6002602052816000526040600020818154811061025e57600080fd5b6000918252602090912060049091020180546001820154600283015460039093015491945092506001600160a01b031684565b805161030a5760405162461bcd60e51b815260206004820152602160248201527f42657420616d6f756e74206d7573742062652067726561746572207468616e2060448201527f300000000000000000000000000000000000000000000000000000000000000060648201526084015b60405180910390fd5b80516064101561035c5760405162461bcd60e51b815260206004820181905260248201527f42657420616d6f756e74206d757374206265206c657373207468616e203130306044820152606401610301565b600081602001511180156103765750600454816020015111155b6103c25760405162461bcd60e51b815260206004820152601160248201527f426574206d7573742062652076616c69640000000000000000000000000000006044820152606401610301565b6020808201516000908152600190915260409020600281015460ff161561042b5760405162461bcd60e51b815260206004820152601060248201527f426574206d757374206265206f70656e000000000000000000000000000000006044820152606401610301565b60016005600084602001518152602001908152602001600020600082825461045391906110c9565b9091555050604080516080810182528351815260208085018051828401908152868501518486019081526060808901516001600160a01b0390811691870191825293516000908152600280875297812080546001808201835591835296909120875160049097020195865592519285019290925551948301859055516003928301805473ffffffffffffffffffffffffffffffffffffffff19169190921617905583015490910361051f5780516005830180546000906105149084906110c9565b9091555061058c9050565b60068201546040820151036105445780516008830180546000906105149084906110c9565b60405162461bcd60e51b815260206004820152601260248201527f5465616d206d7573742062652076616c696400000000000000000000000000006044820152606401610301565b805160405133917f2b13ae2cd26321180d3ef66e9a9d6518d66f1077e4fbf84bdf6bda6dc65343d1916105c1919086906111ca565b60405180910390a2505050565b6000546001600160a01b0316331461064e5760405162461bcd60e51b815260206004820152603360248201527f5365756c206c652070726f70726965746169726520706575742065666665637460448201527f756572206365747465206f7065726174696f6e000000000000000000000000006064820152608401610301565b6000816020015151116106a35760405162461bcd60e51b815260206004820152601860248201527f426574206e616d652063616e6e6f7420626520656d70747900000000000000006044820152606401610301565b6001600460008282546106b691906110c9565b90915550506004546000906106cc9060016110c9565b9050600060045460026106df91906110c9565b6040805160a08101825260045480825260208781015181840190815260008486018190528551606081810188528a8252808c01518501518286015281880183905280870191909152865190810187528781526080808c01518501518286015281880183905286015292835260019182905293909120825181559251939450909283929182019061076f908261128f565b50604082015160028201805460ff19169115159190911790556060820151805160038301908155602082015160048401906107aa908261128f565b50604091909101516002909101556080820151805160068301908155602082015160078401906107da908261128f565b5060409182015160029091015560045490513393507f2b13ae2cd26321180d3ef66e9a9d6518d66f1077e4fbf84bdf6bda6dc65343d1925061081e9190859061134f565b60405180910390a250505050565b6000546001600160a01b031633146108ac5760405162461bcd60e51b815260206004820152603360248201527f5365756c206c652070726f70726965746169726520706575742065666665637460448201527f756572206365747465206f7065726174696f6e000000000000000000000000006064820152608401610301565b6000828152600160205260409020600281015460ff161561090f5760405162461bcd60e51b815260206004820152601060248201527f426574206d757374206265206f70656e000000000000000000000000000000006044820152606401610301565b60038101548214806109245750600681015482145b6109705760405162461bcd60e51b815260206004820152601260248201527f5465616d206d7573742062652076616c696400000000000000000000000000006044820152606401610301565b60028101805460ff1916600117905560005b600084815260056020526040902054811015610ae15760008481526002602052604081208054839081106109b8576109b86113cd565b906000526020600020906004020190508481600101541480156109de5750838160020154145b15610ace578054604080516080810182528781526020810188905260038401546001600160a01b03169181019190915260009060608101610a208460026113e3565b9052600088815260036020818152604080842080546001808201835591865294839020865160049096020194855585830151908501558481015160028501805473ffffffffffffffffffffffffffffffffffffffff19166001600160a01b039283161790556060860151948401949094559187015491518681529394509116917f8d2c6d37c285a57a4ff7093110a7c5fc6fe036d276818dd21e1edf369273458d910160405180910390a250505b5080610ad9816113fa565b915050610982565b50505050565b600160208190526000918252604090912080549181018054610b08906110e2565b80601f0160208091040260200160405190810160405280929190818152602001828054610b34906110e2565b8015610b815780601f10610b5657610100808354040283529160200191610b81565b820191906000526020600020905b815481529060010190602001808311610b6457829003601f168201915b5050505050908060020160009054906101000a900460ff16908060030160405180606001604052908160008201548152602001600182018054610bc3906110e2565b80601f0160208091040260200160405190810160405280929190818152602001828054610bef906110e2565b8015610c3c5780601f10610c1157610100808354040283529160200191610c3c565b820191906000526020600020905b815481529060010190602001808311610c1f57829003601f168201915b50505050508152602001600282015481525050908060060160405180606001604052908160008201548152602001600182018054610c79906110e2565b80601f0160208091040260200160405190810160405280929190818152602001828054610ca5906110e2565b8015610cf25780601f10610cc757610100808354040283529160200191610cf2565b820191906000526020600020905b815481529060010190602001808311610cd557829003601f168201915b50505050508152602001600282015481525050905085565b60008060408385031215610d1d57600080fd5b50508035926020909101359150565b600060208284031215610d3e57600080fd5b5035919050565b634e487b7160e01b600052604160045260246000fd5b60405160a0810167ffffffffffffffff81118282101715610d7e57610d7e610d45565b60405290565b600060808284031215610d9657600080fd5b6040516080810181811067ffffffffffffffff82111715610db957610db9610d45565b806040525082358152602083013560208201526040830135604082015260608301356001600160a01b0381168114610df057600080fd5b60608201529392505050565b600082601f830112610e0d57600080fd5b813567ffffffffffffffff80821115610e2857610e28610d45565b604051601f8301601f19908116603f01168101908282118183101715610e5057610e50610d45565b81604052838152866020858801011115610e6957600080fd5b836020870160208301376000602085830101528094505050505092915050565b80358015158114610e9957600080fd5b919050565b600060608284031215610eb057600080fd5b6040516060810167ffffffffffffffff8282108183111715610ed457610ed4610d45565b81604052829350843583526020850135915080821115610ef357600080fd5b50610f0085828601610dfc565b602083015250604083013560408201525092915050565b600060208284031215610f2957600080fd5b813567ffffffffffffffff80821115610f4157600080fd5b9083019060a08286031215610f5557600080fd5b610f5d610d5b565b82358152602083013582811115610f7357600080fd5b610f7f87828601610dfc565b602083015250610f9160408401610e89565b6040820152606083013582811115610fa857600080fd5b610fb487828601610e9e565b606083015250608083013582811115610fcc57600080fd5b610fd887828601610e9e565b60808301525095945050505050565b6000815180845260005b8181101561100d57602081850181015186830182015201610ff1565b506000602082860101526020601f19601f83011685010191505092915050565b80518252600060208201516060602085015261104c6060850182610fe7565b604093840151949093019390935250919050565b85815260a06020820152600061107960a0830187610fe7565b85151560408401528281036060840152611093818661102d565b905082810360808401526110a7818561102d565b98975050505050505050565b634e487b7160e01b600052601160045260246000fd5b808201808211156110dc576110dc6110b3565b92915050565b600181811c908216806110f657607f821691505b60208210810361111657634e487b7160e01b600052602260045260246000fd5b50919050565b60008154611129816110e2565b80855260206001838116801561114657600181146111605761118e565b60ff1985168884015283151560051b88018301955061118e565b866000528260002060005b858110156111865781548a820186015290830190840161116b565b890184019650505b505050505092915050565b805482526060602083015260006111b6606084016001840161111c565b600283015460408501528091505092915050565b828152604060208201528154604082015260a0606082015260006111f460e083016001850161111c565b60ff60028501541615156080840152603f19808483030160a085015261121d8260038701611199565b9150808483030160c0850152506112378160068601611199565b95945050505050565b601f82111561128a57600081815260208120601f850160051c810160208610156112675750805b601f850160051c820191505b8181101561128657828155600101611273565b5050505b505050565b815167ffffffffffffffff8111156112a9576112a9610d45565b6112bd816112b784546110e2565b84611240565b602080601f8311600181146112f257600084156112da5750858301515b600019600386901b1c1916600185901b178555611286565b600085815260208120601f198616915b8281101561132157888601518255948401946001909101908401611302565b508582101561133f5787850151600019600388901b60f8161c191681555b5050505050600190811b01905550565b82815260406020820152815160408201526000602083015160a0606084015261137b60e0840182610fe7565b90506040840151151560808401526060840151603f19808584030160a08601526113a5838361102d565b925060808601519150808584030160c0860152506113c3828261102d565b9695505050505050565b634e487b7160e01b600052603260045260246000fd5b80820281158282048414176110dc576110dc6110b3565b60006001820161140c5761140c6110b3565b506001019056fea2646970667358221220c5fc06f29ef4e887efc2bfb224422bbdda903a7a701bcee251967a26bfa36f1164736f6c63430008140033","opcodes":"PUSH1 0x80 PUSH1 0x40 MSTORE CALLVALUE DUP1 ISZERO PUSH2 0x10 JUMPI PUSH1 0x0 DUP1 REVERT JUMPDEST POP PUSH1 0x0 DUP1 SLOAD PUSH1 0x1 PUSH1 0x1 PUSH1 0xA0 SHL SUB NOT AND CALLER OR SWAP1 SSTORE PUSH2 0x1449 DUP1 PUSH2 0x32 PUSH1 0x0 CODECOPY PUSH1 0x0 RETURN INVALID PUSH1 0x80 PUSH1 0x40 MSTORE CALLVALUE DUP1 ISZERO PUSH2 0x10 JUMPI PUSH1 0x0 DUP1 REVERT JUMPDEST POP PUSH1 0x4 CALLDATASIZE LT PUSH2 0xA3 JUMPI PUSH1 0x0 CALLDATALOAD PUSH1 0xE0 SHR DUP1 PUSH4 0x8A38D6E9 GT PUSH2 0x76 JUMPI DUP1 PUSH4 0x99C21D6D GT PUSH2 0x5B JUMPI DUP1 PUSH4 0x99C21D6D EQ PUSH2 0x1A6 JUMPI DUP1 PUSH4 0xD38D75AE EQ PUSH2 0x1B9 JUMPI DUP1 PUSH4 0xEADC56D2 EQ PUSH2 0x1CC JUMPI PUSH1 0x0 DUP1 REVERT JUMPDEST DUP1 PUSH4 0x8A38D6E9 EQ PUSH2 0x166 JUMPI DUP1 PUSH4 0x8DA5CB5B EQ PUSH2 0x17B JUMPI PUSH1 0x0 DUP1 REVERT JUMPDEST DUP1 PUSH4 0xEFC8865 EQ PUSH2 0xA8 JUMPI DUP1 PUSH4 0x41ED605F EQ PUSH2 0xF3 JUMPI DUP1 PUSH4 0x6A09F6BE EQ PUSH2 0x10A JUMPI DUP1 PUSH4 0x83CA33C8 EQ PUSH2 0x146 JUMPI JUMPDEST PUSH1 0x0 DUP1 REVERT JUMPDEST PUSH2 0xBB PUSH2 0xB6 CALLDATASIZE PUSH1 0x4 PUSH2 0xD0A JUMP JUMPDEST PUSH2 0x1F0 JUMP JUMPDEST PUSH1 0x40 MLOAD PUSH2 0xEA SWAP5 SWAP4 SWAP3 SWAP2 SWAP1 SWAP4 DUP5 MSTORE PUSH1 0x20 DUP5 ADD SWAP3 SWAP1 SWAP3 MSTORE PUSH1 0x1 PUSH1 0x1 PUSH1 0xA0 SHL SUB AND PUSH1 0x40 DUP4 ADD MSTORE PUSH1 0x60 DUP3 ADD MSTORE PUSH1 0x80 ADD SWAP1 JUMP JUMPDEST PUSH1 0x40 MLOAD DUP1 SWAP2 SUB SWAP1 RETURN JUMPDEST PUSH2 0xFC PUSH1 0x4 SLOAD DUP2 JUMP JUMPDEST PUSH1 0x40 MLOAD SWAP1 DUP2 MSTORE PUSH1 0x20 ADD PUSH2 0xEA JUMP JUMPDEST PUSH2 0x11D PUSH2 0x118 CALLDATASIZE PUSH1 0x4 PUSH2 0xD0A JUMP JUMPDEST PUSH2 0x242 JUMP JUMPDEST PUSH1 0x40 DUP1 MLOAD SWAP5 DUP6 MSTORE PUSH1 0x20 DUP6 ADD SWAP4 SWAP1 SWAP4 MSTORE SWAP2 DUP4 ADD MSTORE PUSH1 0x1 PUSH1 0x1 PUSH1 0xA0 SHL SUB AND PUSH1 0x60 DUP3 ADD MSTORE PUSH1 0x80 ADD PUSH2 0xEA JUMP JUMPDEST PUSH2 0xFC PUSH2 0x154 CALLDATASIZE PUSH1 0x4 PUSH2 0xD2C JUMP JUMPDEST PUSH1 0x5 PUSH1 0x20 MSTORE PUSH1 0x0 SWAP1 DUP2 MSTORE PUSH1 0x40 SWAP1 KECCAK256 SLOAD DUP2 JUMP JUMPDEST PUSH2 0x179 PUSH2 0x174 CALLDATASIZE PUSH1 0x4 PUSH2 0xD84 JUMP JUMPDEST PUSH2 0x291 JUMP JUMPDEST STOP JUMPDEST PUSH1 0x0 SLOAD PUSH2 0x18E SWAP1 PUSH1 0x1 PUSH1 0x1 PUSH1 0xA0 SHL SUB AND DUP2 JUMP JUMPDEST PUSH1 0x40 MLOAD PUSH1 0x1 PUSH1 0x1 PUSH1 0xA0 SHL SUB SWAP1 SWAP2 AND DUP2 MSTORE PUSH1 0x20 ADD PUSH2 0xEA JUMP JUMPDEST PUSH2 0x179 PUSH2 0x1B4 CALLDATASIZE PUSH1 0x4 PUSH2 0xF17 JUMP JUMPDEST PUSH2 0x5CE JUMP JUMPDEST PUSH2 0x179 PUSH2 0x1C7 CALLDATASIZE PUSH1 0x4 PUSH2 0xD0A JUMP JUMPDEST PUSH2 0x82C JUMP JUMPDEST PUSH2 0x1DF PUSH2 0x1DA CALLDATASIZE PUSH1 0x4 PUSH2 0xD2C JUMP JUMPDEST PUSH2 0xAE7 JUMP JUMPDEST PUSH1 0x40 MLOAD PUSH2 0xEA SWAP6 SWAP5 SWAP4 SWAP3 SWAP2 SWAP1 PUSH2 0x1060 JUMP JUMPDEST PUSH1 0x3 PUSH1 0x20 MSTORE DUP2 PUSH1 0x0 MSTORE PUSH1 0x40 PUSH1 0x0 KECCAK256 DUP2 DUP2 SLOAD DUP2 LT PUSH2 0x20C JUMPI PUSH1 0x0 DUP1 REVERT JUMPDEST PUSH1 0x0 SWAP2 DUP3 MSTORE PUSH1 0x20 SWAP1 SWAP2 KECCAK256 PUSH1 0x4 SWAP1 SWAP2 MUL ADD DUP1 SLOAD PUSH1 0x1 DUP3 ADD SLOAD PUSH1 0x2 DUP4 ADD SLOAD PUSH1 0x3 SWAP1 SWAP4 ADD SLOAD SWAP2 SWAP5 POP SWAP3 POP PUSH1 0x1 PUSH1 0x1 PUSH1 0xA0 SHL SUB SWAP1 SWAP2 AND SWAP1 DUP5 JUMP JUMPDEST PUSH1 0x2 PUSH1 0x20 MSTORE DUP2 PUSH1 0x0 MSTORE PUSH1 0x40 PUSH1 0x0 KECCAK256 DUP2 DUP2 SLOAD DUP2 LT PUSH2 0x25E JUMPI PUSH1 0x0 DUP1 REVERT JUMPDEST PUSH1 0x0 SWAP2 DUP3 MSTORE PUSH1 0x20 SWAP1 SWAP2 KECCAK256 PUSH1 0x4 SWAP1 SWAP2 MUL ADD DUP1 SLOAD PUSH1 0x1 DUP3 ADD SLOAD PUSH1 0x2 DUP4 ADD SLOAD PUSH1 0x3 SWAP1 SWAP4 ADD SLOAD SWAP2 SWAP5 POP SWAP3 POP PUSH1 0x1 PUSH1 0x1 PUSH1 0xA0 SHL SUB AND DUP5 JUMP JUMPDEST DUP1 MLOAD PUSH2 0x30A JUMPI PUSH1 0x40 MLOAD PUSH3 0x461BCD PUSH1 0xE5 SHL DUP2 MSTORE PUSH1 0x20 PUSH1 0x4 DUP3 ADD MSTORE PUSH1 0x21 PUSH1 0x24 DUP3 ADD MSTORE PUSH32 0x42657420616D6F756E74206D7573742062652067726561746572207468616E20 PUSH1 0x44 DUP3 ADD MSTORE PUSH32 0x3000000000000000000000000000000000000000000000000000000000000000 PUSH1 0x64 DUP3 ADD MSTORE PUSH1 0x84 ADD JUMPDEST PUSH1 0x40 MLOAD DUP1 SWAP2 SUB SWAP1 REVERT JUMPDEST DUP1 MLOAD PUSH1 0x64 LT ISZERO PUSH2 0x35C JUMPI PUSH1 0x40 MLOAD PUSH3 0x461BCD PUSH1 0xE5 SHL DUP2 MSTORE PUSH1 0x20 PUSH1 0x4 DUP3 ADD DUP2 SWAP1 MSTORE PUSH1 0x24 DUP3 ADD MSTORE PUSH32 0x42657420616D6F756E74206D757374206265206C657373207468616E20313030 PUSH1 0x44 DUP3 ADD MSTORE PUSH1 0x64 ADD PUSH2 0x301 JUMP JUMPDEST PUSH1 0x0 DUP2 PUSH1 0x20 ADD MLOAD GT DUP1 ISZERO PUSH2 0x376 JUMPI POP PUSH1 0x4 SLOAD DUP2 PUSH1 0x20 ADD MLOAD GT ISZERO JUMPDEST PUSH2 0x3C2 JUMPI PUSH1 0x40 MLOAD PUSH3 0x461BCD PUSH1 0xE5 SHL DUP2 MSTORE PUSH1 0x20 PUSH1 0x4 DUP3 ADD MSTORE PUSH1 0x11 PUSH1 0x24 DUP3 ADD MSTORE PUSH32 0x426574206D7573742062652076616C6964000000000000000000000000000000 PUSH1 0x44 DUP3 ADD MSTORE PUSH1 0x64 ADD PUSH2 0x301 JUMP JUMPDEST PUSH1 0x20 DUP1 DUP3 ADD MLOAD PUSH1 0x0 SWAP1 DUP2 MSTORE PUSH1 0x1 SWAP1 SWAP2 MSTORE PUSH1 0x40 SWAP1 KECCAK256 PUSH1 0x2 DUP2 ADD SLOAD PUSH1 0xFF AND ISZERO PUSH2 0x42B JUMPI PUSH1 0x40 MLOAD PUSH3 0x461BCD PUSH1 0xE5 SHL DUP2 MSTORE PUSH1 0x20 PUSH1 0x4 DUP3 ADD MSTORE PUSH1 0x10 PUSH1 0x24 DUP3 ADD MSTORE PUSH32 0x426574206D757374206265206F70656E00000000000000000000000000000000 PUSH1 0x44 DUP3 ADD MSTORE PUSH1 0x64 ADD PUSH2 0x301 JUMP JUMPDEST PUSH1 0x1 PUSH1 0x5 PUSH1 0x0 DUP5 PUSH1 0x20 ADD MLOAD DUP2 MSTORE PUSH1 0x20 ADD SWAP1 DUP2 MSTORE PUSH1 0x20 ADD PUSH1 0x0 KECCAK256 PUSH1 0x0 DUP3 DUP3 SLOAD PUSH2 0x453 SWAP2 SWAP1 PUSH2 0x10C9 JUMP JUMPDEST SWAP1 SWAP2 SSTORE POP POP PUSH1 0x40 DUP1 MLOAD PUSH1 0x80 DUP2 ADD DUP3 MSTORE DUP4 MLOAD DUP2 MSTORE PUSH1 0x20 DUP1 DUP6 ADD DUP1 MLOAD DUP3 DUP5 ADD SWAP1 DUP2 MSTORE DUP7 DUP6 ADD MLOAD DUP5 DUP7 ADD SWAP1 DUP2 MSTORE PUSH1 0x60 DUP1 DUP10 ADD MLOAD PUSH1 0x1 PUSH1 0x1 PUSH1 0xA0 SHL SUB SWAP1 DUP2 AND SWAP2 DUP8 ADD SWAP2 DUP3 MSTORE SWAP4 MLOAD PUSH1 0x0 SWAP1 DUP2 MSTORE PUSH1 0x2 DUP1 DUP8 MSTORE SWAP8 DUP2 KECCAK256 DUP1 SLOAD PUSH1 0x1 DUP1 DUP3 ADD DUP4 SSTORE SWAP2 DUP4 MSTORE SWAP7 SWAP1 SWAP2 KECCAK256 DUP8 MLOAD PUSH1 0x4 SWAP1 SWAP8 MUL ADD SWAP6 DUP7 SSTORE SWAP3 MLOAD SWAP3 DUP6 ADD SWAP3 SWAP1 SWAP3 SSTORE MLOAD SWAP5 DUP4 ADD DUP6 SWAP1 SSTORE MLOAD PUSH1 0x3 SWAP3 DUP4 ADD DUP1 SLOAD PUSH20 0xFFFFFFFFFFFFFFFFFFFFFFFFFFFFFFFFFFFFFFFF NOT AND SWAP2 SWAP1 SWAP3 AND OR SWAP1 SSTORE DUP4 ADD SLOAD SWAP1 SWAP2 SUB PUSH2 0x51F JUMPI DUP1 MLOAD PUSH1 0x5 DUP4 ADD DUP1 SLOAD PUSH1 0x0 SWAP1 PUSH2 0x514 SWAP1 DUP5 SWAP1 PUSH2 0x10C9 JUMP JUMPDEST SWAP1 SWAP2 SSTORE POP PUSH2 0x58C SWAP1 POP JUMP JUMPDEST PUSH1 0x6 DUP3 ADD SLOAD PUSH1 0x40 DUP3 ADD MLOAD SUB PUSH2 0x544 JUMPI DUP1 MLOAD PUSH1 0x8 DUP4 ADD DUP1 SLOAD PUSH1 0x0 SWAP1 PUSH2 0x514 SWAP1 DUP5 SWAP1 PUSH2 0x10C9 JUMP JUMPDEST PUSH1 0x40 MLOAD PUSH3 0x461BCD PUSH1 0xE5 SHL DUP2 MSTORE PUSH1 0x20 PUSH1 0x4 DUP3 ADD MSTORE PUSH1 0x12 PUSH1 0x24 DUP3 ADD MSTORE PUSH32 0x5465616D206D7573742062652076616C69640000000000000000000000000000 PUSH1 0x44 DUP3 ADD MSTORE PUSH1 0x64 ADD PUSH2 0x301 JUMP JUMPDEST DUP1 MLOAD PUSH1 0x40 MLOAD CALLER SWAP2 PUSH32 0x2B13AE2CD26321180D3EF66E9A9D6518D66F1077E4FBF84BDF6BDA6DC65343D1 SWAP2 PUSH2 0x5C1 SWAP2 SWAP1 DUP7 SWAP1 PUSH2 0x11CA JUMP JUMPDEST PUSH1 0x40 MLOAD DUP1 SWAP2 SUB SWAP1 LOG2 POP POP POP JUMP JUMPDEST PUSH1 0x0 SLOAD PUSH1 0x1 PUSH1 0x1 PUSH1 0xA0 SHL SUB AND CALLER EQ PUSH2 0x64E JUMPI PUSH1 0x40 MLOAD PUSH3 0x461BCD PUSH1 0xE5 SHL DUP2 MSTORE PUSH1 0x20 PUSH1 0x4 DUP3 ADD MSTORE PUSH1 0x33 PUSH1 0x24 DUP3 ADD MSTORE PUSH32 0x5365756C206C652070726F707269657461697265207065757420656666656374 PUSH1 0x44 DUP3 ADD MSTORE PUSH32 0x756572206365747465206F7065726174696F6E00000000000000000000000000 PUSH1 0x64 DUP3 ADD MSTORE PUSH1 0x84 ADD PUSH2 0x301 JUMP JUMPDEST PUSH1 0x0 DUP2 PUSH1 0x20 ADD MLOAD MLOAD GT PUSH2 0x6A3 JUMPI PUSH1 0x40 MLOAD PUSH3 0x461BCD PUSH1 0xE5 SHL DUP2 MSTORE PUSH1 0x20 PUSH1 0x4 DUP3 ADD MSTORE PUSH1 0x18 PUSH1 0x24 DUP3 ADD MSTORE PUSH32 0x426574206E616D652063616E6E6F7420626520656D7074790000000000000000 PUSH1 0x44 DUP3 ADD MSTORE PUSH1 0x64 ADD PUSH2 0x301 JUMP JUMPDEST PUSH1 0x1 PUSH1 0x4 PUSH1 0x0 DUP3 DUP3 SLOAD PUSH2 0x6B6 SWAP2 SWAP1 PUSH2 0x10C9 JUMP JUMPDEST SWAP1 SWAP2 SSTORE POP POP PUSH1 0x4 SLOAD PUSH1 0x0 SWAP1 PUSH2 0x6CC SWAP1 PUSH1 0x1 PUSH2 0x10C9 JUMP JUMPDEST SWAP1 POP PUSH1 0x0 PUSH1 0x4 SLOAD PUSH1 0x2 PUSH2 0x6DF SWAP2 SWAP1 PUSH2 0x10C9 JUMP JUMPDEST PUSH1 0x40 DUP1 MLOAD PUSH1 0xA0 DUP2 ADD DUP3 MSTORE PUSH1 0x4 SLOAD DUP1 DUP3 MSTORE PUSH1 0x20 DUP8 DUP2 ADD MLOAD DUP2 DUP5 ADD SWAP1 DUP2 MSTORE PUSH1 0x0 DUP5 DUP7 ADD DUP2 SWAP1 MSTORE DUP6 MLOAD PUSH1 0x60 DUP2 DUP2 ADD DUP9 MSTORE DUP11 DUP3 MSTORE DUP1 DUP13 ADD MLOAD DUP6 ADD MLOAD DUP3 DUP7 ADD MSTORE DUP2 DUP9 ADD DUP4 SWAP1 MSTORE DUP1 DUP8 ADD SWAP2 SWAP1 SWAP2 MSTORE DUP7 MLOAD SWAP1 DUP2 ADD DUP8 MSTORE DUP8 DUP2 MSTORE PUSH1 0x80 DUP1 DUP13 ADD MLOAD DUP6 ADD MLOAD DUP3 DUP7 ADD MSTORE DUP2 DUP9 ADD DUP4 SWAP1 MSTORE DUP7 ADD MSTORE SWAP3 DUP4 MSTORE PUSH1 0x1 SWAP2 DUP3 SWAP1 MSTORE SWAP4 SWAP1 SWAP2 KECCAK256 DUP3 MLOAD DUP2 SSTORE SWAP3 MLOAD SWAP4 SWAP5 POP SWAP1 SWAP3 DUP4 SWAP3 SWAP2 DUP3 ADD SWAP1 PUSH2 0x76F SWAP1 DUP3 PUSH2 0x128F JUMP JUMPDEST POP PUSH1 0x40 DUP3 ADD MLOAD PUSH1 0x2 DUP3 ADD DUP1 SLOAD PUSH1 0xFF NOT AND SWAP2 ISZERO ISZERO SWAP2 SWAP1 SWAP2 OR SWAP1 SSTORE PUSH1 0x60 DUP3 ADD MLOAD DUP1 MLOAD PUSH1 0x3 DUP4 ADD SWAP1 DUP2 SSTORE PUSH1 0x20 DUP3 ADD MLOAD PUSH1 0x4 DUP5 ADD SWAP1 PUSH2 0x7AA SWAP1 DUP3 PUSH2 0x128F JUMP JUMPDEST POP PUSH1 0x40 SWAP2 SWAP1 SWAP2 ADD MLOAD PUSH1 0x2 SWAP1 SWAP2 ADD SSTORE PUSH1 0x80 DUP3 ADD MLOAD DUP1 MLOAD PUSH1 0x6 DUP4 ADD SWAP1 DUP2 SSTORE PUSH1 0x20 DUP3 ADD MLOAD PUSH1 0x7 DUP5 ADD SWAP1 PUSH2 0x7DA SWAP1 DUP3 PUSH2 0x128F JUMP JUMPDEST POP PUSH1 0x40 SWAP2 DUP3 ADD MLOAD PUSH1 0x2 SWAP1 SWAP2 ADD SSTORE PUSH1 0x4 SLOAD SWAP1 MLOAD CALLER SWAP4 POP PUSH32 0x2B13AE2CD26321180D3EF66E9A9D6518D66F1077E4FBF84BDF6BDA6DC65343D1 SWAP3 POP PUSH2 0x81E SWAP2 SWAP1 DUP6 SWAP1 PUSH2 0x134F JUMP JUMPDEST PUSH1 0x40 MLOAD DUP1 SWAP2 SUB SWAP1 LOG2 POP POP POP POP JUMP JUMPDEST PUSH1 0x0 SLOAD PUSH1 0x1 PUSH1 0x1 PUSH1 0xA0 SHL SUB AND CALLER EQ PUSH2 0x8AC JUMPI PUSH1 0x40 MLOAD PUSH3 0x461BCD PUSH1 0xE5 SHL DUP2 MSTORE PUSH1 0x20 PUSH1 0x4 DUP3 ADD MSTORE PUSH1 0x33 PUSH1 0x24 DUP3 ADD MSTORE PUSH32 0x5365756C206C652070726F707269657461697265207065757420656666656374 PUSH1 0x44 DUP3 ADD MSTORE PUSH32 0x756572206365747465206F7065726174696F6E00000000000000000000000000 PUSH1 0x64 DUP3 ADD MSTORE PUSH1 0x84 ADD PUSH2 0x301 JUMP JUMPDEST PUSH1 0x0 DUP3 DUP2 MSTORE PUSH1 0x1 PUSH1 0x20 MSTORE PUSH1 0x40 SWAP1 KECCAK256 PUSH1 0x2 DUP2 ADD SLOAD PUSH1 0xFF AND ISZERO PUSH2 0x90F JUMPI PUSH1 0x40 MLOAD PUSH3 0x461BCD PUSH1 0xE5 SHL DUP2 MSTORE PUSH1 0x20 PUSH1 0x4 DUP3 ADD MSTORE PUSH1 0x10 PUSH1 0x24 DUP3 ADD MSTORE PUSH32 0x426574206D757374206265206F70656E00000000000000000000000000000000 PUSH1 0x44 DUP3 ADD MSTORE PUSH1 0x64 ADD PUSH2 0x301 JUMP JUMPDEST PUSH1 0x3 DUP2 ADD SLOAD DUP3 EQ DUP1 PUSH2 0x924 JUMPI POP PUSH1 0x6 DUP2 ADD SLOAD DUP3 EQ JUMPDEST PUSH2 0x970 JUMPI PUSH1 0x40 MLOAD PUSH3 0x461BCD PUSH1 0xE5 SHL DUP2 MSTORE PUSH1 0x20 PUSH1 0x4 DUP3 ADD MSTORE PUSH1 0x12 PUSH1 0x24 DUP3 ADD MSTORE PUSH32 0x5465616D206D7573742062652076616C69640000000000000000000000000000 PUSH1 0x44 DUP3 ADD MSTORE PUSH1 0x64 ADD PUSH2 0x301 JUMP JUMPDEST PUSH1 0x2 DUP2 ADD DUP1 SLOAD PUSH1 0xFF NOT AND PUSH1 0x1 OR SWAP1 SSTORE PUSH1 0x0 JUMPDEST PUSH1 0x0 DUP5 DUP2 MSTORE PUSH1 0x5 PUSH1 0x20 MSTORE PUSH1 0x40 SWAP1 KECCAK256 SLOAD DUP2 LT ISZERO PUSH2 0xAE1 JUMPI PUSH1 0x0 DUP5 DUP2 MSTORE PUSH1 0x2 PUSH1 0x20 MSTORE PUSH1 0x40 DUP2 KECCAK256 DUP1 SLOAD DUP4 SWAP1 DUP2 LT PUSH2 0x9B8 JUMPI PUSH2 0x9B8 PUSH2 0x13CD JUMP JUMPDEST SWAP1 PUSH1 0x0 MSTORE PUSH1 0x20 PUSH1 0x0 KECCAK256 SWAP1 PUSH1 0x4 MUL ADD SWAP1 POP DUP5 DUP2 PUSH1 0x1 ADD SLOAD EQ DUP1 ISZERO PUSH2 0x9DE JUMPI POP DUP4 DUP2 PUSH1 0x2 ADD SLOAD EQ JUMPDEST ISZERO PUSH2 0xACE JUMPI DUP1 SLOAD PUSH1 0x40 DUP1 MLOAD PUSH1 0x80 DUP2 ADD DUP3 MSTORE DUP8 DUP2 MSTORE PUSH1 0x20 DUP2 ADD DUP9 SWAP1 MSTORE PUSH1 0x3 DUP5 ADD SLOAD PUSH1 0x1 PUSH1 0x1 PUSH1 0xA0 SHL SUB AND SWAP2 DUP2 ADD SWAP2 SWAP1 SWAP2 MSTORE PUSH1 0x0 SWAP1 PUSH1 0x60 DUP2 ADD PUSH2 0xA20 DUP5 PUSH1 0x2 PUSH2 0x13E3 JUMP JUMPDEST SWAP1 MSTORE PUSH1 0x0 DUP9 DUP2 MSTORE PUSH1 0x3 PUSH1 0x20 DUP2 DUP2 MSTORE PUSH1 0x40 DUP1 DUP5 KECCAK256 DUP1 SLOAD PUSH1 0x1 DUP1 DUP3 ADD DUP4 SSTORE SWAP2 DUP7 MSTORE SWAP5 DUP4 SWAP1 KECCAK256 DUP7 MLOAD PUSH1 0x4 SWAP1 SWAP7 MUL ADD SWAP5 DUP6 SSTORE DUP6 DUP4 ADD MLOAD SWAP1 DUP6 ADD SSTORE DUP5 DUP2 ADD MLOAD PUSH1 0x2 DUP6 ADD DUP1 SLOAD PUSH20 0xFFFFFFFFFFFFFFFFFFFFFFFFFFFFFFFFFFFFFFFF NOT AND PUSH1 0x1 PUSH1 0x1 PUSH1 0xA0 SHL SUB SWAP3 DUP4 AND OR SWAP1 SSTORE PUSH1 0x60 DUP7 ADD MLOAD SWAP5 DUP5 ADD SWAP5 SWAP1 SWAP5 SSTORE SWAP2 DUP8 ADD SLOAD SWAP2 MLOAD DUP7 DUP2 MSTORE SWAP4 SWAP5 POP SWAP2 AND SWAP2 PUSH32 0x8D2C6D37C285A57A4FF7093110A7C5FC6FE036D276818DD21E1EDF369273458D SWAP2 ADD PUSH1 0x40 MLOAD DUP1 SWAP2 SUB SWAP1 LOG2 POP POP JUMPDEST POP DUP1 PUSH2 0xAD9 DUP2 PUSH2 0x13FA JUMP JUMPDEST SWAP2 POP POP PUSH2 0x982 JUMP JUMPDEST POP POP POP POP JUMP JUMPDEST PUSH1 0x1 PUSH1 0x20 DUP2 SWAP1 MSTORE PUSH1 0x0 SWAP2 DUP3 MSTORE PUSH1 0x40 SWAP1 SWAP2 KECCAK256 DUP1 SLOAD SWAP2 DUP2 ADD DUP1 SLOAD PUSH2 0xB08 SWAP1 PUSH2 0x10E2 JUMP JUMPDEST DUP1 PUSH1 0x1F ADD PUSH1 0x20 DUP1 SWAP2 DIV MUL PUSH1 0x20 ADD PUSH1 0x40 MLOAD SWAP1 DUP2 ADD PUSH1 0x40 MSTORE DUP1 SWAP3 SWAP2 SWAP1 DUP2 DUP2 MSTORE PUSH1 0x20 ADD DUP3 DUP1 SLOAD PUSH2 0xB34 SWAP1 PUSH2 0x10E2 JUMP JUMPDEST DUP1 ISZERO PUSH2 0xB81 JUMPI DUP1 PUSH1 0x1F LT PUSH2 0xB56 JUMPI PUSH2 0x100 DUP1 DUP4 SLOAD DIV MUL DUP4 MSTORE SWAP2 PUSH1 0x20 ADD SWAP2 PUSH2 0xB81 JUMP JUMPDEST DUP3 ADD SWAP2 SWAP1 PUSH1 0x0 MSTORE PUSH1 0x20 PUSH1 0x0 KECCAK256 SWAP1 JUMPDEST DUP2 SLOAD DUP2 MSTORE SWAP1 PUSH1 0x1 ADD SWAP1 PUSH1 0x20 ADD DUP1 DUP4 GT PUSH2 0xB64 JUMPI DUP3 SWAP1 SUB PUSH1 0x1F AND DUP3 ADD SWAP2 JUMPDEST POP POP POP POP POP SWAP1 DUP1 PUSH1 0x2 ADD PUSH1 0x0 SWAP1 SLOAD SWAP1 PUSH2 0x100 EXP SWAP1 DIV PUSH1 0xFF AND SWAP1 DUP1 PUSH1 0x3 ADD PUSH1 0x40 MLOAD DUP1 PUSH1 0x60 ADD PUSH1 0x40 MSTORE SWAP1 DUP2 PUSH1 0x0 DUP3 ADD SLOAD DUP2 MSTORE PUSH1 0x20 ADD PUSH1 0x1 DUP3 ADD DUP1 SLOAD PUSH2 0xBC3 SWAP1 PUSH2 0x10E2 JUMP JUMPDEST DUP1 PUSH1 0x1F ADD PUSH1 0x20 DUP1 SWAP2 DIV MUL PUSH1 0x20 ADD PUSH1 0x40 MLOAD SWAP1 DUP2 ADD PUSH1 0x40 MSTORE DUP1 SWAP3 SWAP2 SWAP1 DUP2 DUP2 MSTORE PUSH1 0x20 ADD DUP3 DUP1 SLOAD PUSH2 0xBEF SWAP1 PUSH2 0x10E2 JUMP JUMPDEST DUP1 ISZERO PUSH2 0xC3C JUMPI DUP1 PUSH1 0x1F LT PUSH2 0xC11 JUMPI PUSH2 0x100 DUP1 DUP4 SLOAD DIV MUL DUP4 MSTORE SWAP2 PUSH1 0x20 ADD SWAP2 PUSH2 0xC3C JUMP JUMPDEST DUP3 ADD SWAP2 SWAP1 PUSH1 0x0 MSTORE PUSH1 0x20 PUSH1 0x0 KECCAK256 SWAP1 JUMPDEST DUP2 SLOAD DUP2 MSTORE SWAP1 PUSH1 0x1 ADD SWAP1 PUSH1 0x20 ADD DUP1 DUP4 GT PUSH2 0xC1F JUMPI DUP3 SWAP1 SUB PUSH1 0x1F AND DUP3 ADD SWAP2 JUMPDEST POP POP POP POP POP DUP2 MSTORE PUSH1 0x20 ADD PUSH1 0x2 DUP3 ADD SLOAD DUP2 MSTORE POP POP SWAP1 DUP1 PUSH1 0x6 ADD PUSH1 0x40 MLOAD DUP1 PUSH1 0x60 ADD PUSH1 0x40 MSTORE SWAP1 DUP2 PUSH1 0x0 DUP3 ADD SLOAD DUP2 MSTORE PUSH1 0x20 ADD PUSH1 0x1 DUP3 ADD DUP1 SLOAD PUSH2 0xC79 SWAP1 PUSH2 0x10E2 JUMP JUMPDEST DUP1 PUSH1 0x1F ADD PUSH1 0x20 DUP1 SWAP2 DIV MUL PUSH1 0x20 ADD PUSH1 0x40 MLOAD SWAP1 DUP2 ADD PUSH1 0x40 MSTORE DUP1 SWAP3 SWAP2 SWAP1 DUP2 DUP2 MSTORE PUSH1 0x20 ADD DUP3 DUP1 SLOAD PUSH2 0xCA5 SWAP1 PUSH2 0x10E2 JUMP JUMPDEST DUP1 ISZERO PUSH2 0xCF2 JUMPI DUP1 PUSH1 0x1F LT PUSH2 0xCC7 JUMPI PUSH2 0x100 DUP1 DUP4 SLOAD DIV MUL DUP4 MSTORE SWAP2 PUSH1 0x20 ADD SWAP2 PUSH2 0xCF2 JUMP JUMPDEST DUP3 ADD SWAP2 SWAP1 PUSH1 0x0 MSTORE PUSH1 0x20 PUSH1 0x0 KECCAK256 SWAP1 JUMPDEST DUP2 SLOAD DUP2 MSTORE SWAP1 PUSH1 0x1 ADD SWAP1 PUSH1 0x20 ADD DUP1 DUP4 GT PUSH2 0xCD5 JUMPI DUP3 SWAP1 SUB PUSH1 0x1F AND DUP3 ADD SWAP2 JUMPDEST POP POP POP POP POP DUP2 MSTORE PUSH1 0x20 ADD PUSH1 0x2 DUP3 ADD SLOAD DUP2 MSTORE POP POP SWAP1 POP DUP6 JUMP JUMPDEST PUSH1 0x0 DUP1 PUSH1 0x40 DUP4 DUP6 SUB SLT ISZERO PUSH2 0xD1D JUMPI PUSH1 0x0 DUP1 REVERT JUMPDEST POP POP DUP1 CALLDATALOAD SWAP3 PUSH1 0x20 SWAP1 SWAP2 ADD CALLDATALOAD SWAP2 POP JUMP JUMPDEST PUSH1 0x0 PUSH1 0x20 DUP3 DUP5 SUB SLT ISZERO PUSH2 0xD3E JUMPI PUSH1 0x0 DUP1 REVERT JUMPDEST POP CALLDATALOAD SWAP2 SWAP1 POP JUMP JUMPDEST PUSH4 0x4E487B71 PUSH1 0xE0 SHL PUSH1 0x0 MSTORE PUSH1 0x41 PUSH1 0x4 MSTORE PUSH1 0x24 PUSH1 0x0 REVERT JUMPDEST PUSH1 0x40 MLOAD PUSH1 0xA0 DUP2 ADD PUSH8 0xFFFFFFFFFFFFFFFF DUP2 GT DUP3 DUP3 LT OR ISZERO PUSH2 0xD7E JUMPI PUSH2 0xD7E PUSH2 0xD45 JUMP JUMPDEST PUSH1 0x40 MSTORE SWAP1 JUMP JUMPDEST PUSH1 0x0 PUSH1 0x80 DUP3 DUP5 SUB SLT ISZERO PUSH2 0xD96 JUMPI PUSH1 0x0 DUP1 REVERT JUMPDEST PUSH1 0x40 MLOAD PUSH1 0x80 DUP2 ADD DUP2 DUP2 LT PUSH8 0xFFFFFFFFFFFFFFFF DUP3 GT OR ISZERO PUSH2 0xDB9 JUMPI PUSH2 0xDB9 PUSH2 0xD45 JUMP JUMPDEST DUP1 PUSH1 0x40 MSTORE POP DUP3 CALLDATALOAD DUP2 MSTORE PUSH1 0x20 DUP4 ADD CALLDATALOAD PUSH1 0x20 DUP3 ADD MSTORE PUSH1 0x40 DUP4 ADD CALLDATALOAD PUSH1 0x40 DUP3 ADD MSTORE PUSH1 0x60 DUP4 ADD CALLDATALOAD PUSH1 0x1 PUSH1 0x1 PUSH1 0xA0 SHL SUB DUP2 AND DUP2 EQ PUSH2 0xDF0 JUMPI PUSH1 0x0 DUP1 REVERT JUMPDEST PUSH1 0x60 DUP3 ADD MSTORE SWAP4 SWAP3 POP POP POP JUMP JUMPDEST PUSH1 0x0 DUP3 PUSH1 0x1F DUP4 ADD SLT PUSH2 0xE0D JUMPI PUSH1 0x0 DUP1 REVERT JUMPDEST DUP2 CALLDATALOAD PUSH8 0xFFFFFFFFFFFFFFFF DUP1 DUP3 GT ISZERO PUSH2 0xE28 JUMPI PUSH2 0xE28 PUSH2 0xD45 JUMP JUMPDEST PUSH1 0x40 MLOAD PUSH1 0x1F DUP4 ADD PUSH1 0x1F NOT SWAP1 DUP2 AND PUSH1 0x3F ADD AND DUP2 ADD SWAP1 DUP3 DUP3 GT DUP2 DUP4 LT OR ISZERO PUSH2 0xE50 JUMPI PUSH2 0xE50 PUSH2 0xD45 JUMP JUMPDEST DUP2 PUSH1 0x40 MSTORE DUP4 DUP2 MSTORE DUP7 PUSH1 0x20 DUP6 DUP9 ADD ADD GT ISZERO PUSH2 0xE69 JUMPI PUSH1 0x0 DUP1 REVERT JUMPDEST DUP4 PUSH1 0x20 DUP8 ADD PUSH1 0x20 DUP4 ADD CALLDATACOPY PUSH1 0x0 PUSH1 0x20 DUP6 DUP4 ADD ADD MSTORE DUP1 SWAP5 POP POP POP POP POP SWAP3 SWAP2 POP POP JUMP JUMPDEST DUP1 CALLDATALOAD DUP1 ISZERO ISZERO DUP2 EQ PUSH2 0xE99 JUMPI PUSH1 0x0 DUP1 REVERT JUMPDEST SWAP2 SWAP1 POP JUMP JUMPDEST PUSH1 0x0 PUSH1 0x60 DUP3 DUP5 SUB SLT ISZERO PUSH2 0xEB0 JUMPI PUSH1 0x0 DUP1 REVERT JUMPDEST PUSH1 0x40 MLOAD PUSH1 0x60 DUP2 ADD PUSH8 0xFFFFFFFFFFFFFFFF DUP3 DUP3 LT DUP2 DUP4 GT OR ISZERO PUSH2 0xED4 JUMPI PUSH2 0xED4 PUSH2 0xD45 JUMP JUMPDEST DUP2 PUSH1 0x40 MSTORE DUP3 SWAP4 POP DUP5 CALLDATALOAD DUP4 MSTORE PUSH1 0x20 DUP6 ADD CALLDATALOAD SWAP2 POP DUP1 DUP3 GT ISZERO PUSH2 0xEF3 JUMPI PUSH1 0x0 DUP1 REVERT JUMPDEST POP PUSH2 0xF00 DUP6 DUP3 DUP7 ADD PUSH2 0xDFC JUMP JUMPDEST PUSH1 0x20 DUP4 ADD MSTORE POP PUSH1 0x40 DUP4 ADD CALLDATALOAD PUSH1 0x40 DUP3 ADD MSTORE POP SWAP3 SWAP2 POP POP JUMP JUMPDEST PUSH1 0x0 PUSH1 0x20 DUP3 DUP5 SUB SLT ISZERO PUSH2 0xF29 JUMPI PUSH1 0x0 DUP1 REVERT JUMPDEST DUP2 CALLDATALOAD PUSH8 0xFFFFFFFFFFFFFFFF DUP1 DUP3 GT ISZERO PUSH2 0xF41 JUMPI PUSH1 0x0 DUP1 REVERT JUMPDEST SWAP1 DUP4 ADD SWAP1 PUSH1 0xA0 DUP3 DUP7 SUB SLT ISZERO PUSH2 0xF55 JUMPI PUSH1 0x0 DUP1 REVERT JUMPDEST PUSH2 0xF5D PUSH2 0xD5B JUMP JUMPDEST DUP3 CALLDATALOAD DUP2 MSTORE PUSH1 0x20 DUP4 ADD CALLDATALOAD DUP3 DUP2 GT ISZERO PUSH2 0xF73 JUMPI PUSH1 0x0 DUP1 REVERT JUMPDEST PUSH2 0xF7F DUP8 DUP3 DUP7 ADD PUSH2 0xDFC JUMP JUMPDEST PUSH1 0x20 DUP4 ADD MSTORE POP PUSH2 0xF91 PUSH1 0x40 DUP5 ADD PUSH2 0xE89 JUMP JUMPDEST PUSH1 0x40 DUP3 ADD MSTORE PUSH1 0x60 DUP4 ADD CALLDATALOAD DUP3 DUP2 GT ISZERO PUSH2 0xFA8 JUMPI PUSH1 0x0 DUP1 REVERT JUMPDEST PUSH2 0xFB4 DUP8 DUP3 DUP7 ADD PUSH2 0xE9E JUMP JUMPDEST PUSH1 0x60 DUP4 ADD MSTORE POP PUSH1 0x80 DUP4 ADD CALLDATALOAD DUP3 DUP2 GT ISZERO PUSH2 0xFCC JUMPI PUSH1 0x0 DUP1 REVERT JUMPDEST PUSH2 0xFD8 DUP8 DUP3 DUP7 ADD PUSH2 0xE9E JUMP JUMPDEST PUSH1 0x80 DUP4 ADD MSTORE POP SWAP6 SWAP5 POP POP POP POP POP JUMP JUMPDEST PUSH1 0x0 DUP2 MLOAD DUP1 DUP5 MSTORE PUSH1 0x0 JUMPDEST DUP2 DUP2 LT ISZERO PUSH2 0x100D JUMPI PUSH1 0x20 DUP2 DUP6 ADD DUP2 ADD MLOAD DUP7 DUP4 ADD DUP3 ADD MSTORE ADD PUSH2 0xFF1 JUMP JUMPDEST POP PUSH1 0x0 PUSH1 0x20 DUP3 DUP7 ADD ADD MSTORE PUSH1 0x20 PUSH1 0x1F NOT PUSH1 0x1F DUP4 ADD AND DUP6 ADD ADD SWAP2 POP POP SWAP3 SWAP2 POP POP JUMP JUMPDEST DUP1 MLOAD DUP3 MSTORE PUSH1 0x0 PUSH1 0x20 DUP3 ADD MLOAD PUSH1 0x60 PUSH1 0x20 DUP6 ADD MSTORE PUSH2 0x104C PUSH1 0x60 DUP6 ADD DUP3 PUSH2 0xFE7 JUMP JUMPDEST PUSH1 0x40 SWAP4 DUP5 ADD MLOAD SWAP5 SWAP1 SWAP4 ADD SWAP4 SWAP1 SWAP4 MSTORE POP SWAP2 SWAP1 POP JUMP JUMPDEST DUP6 DUP2 MSTORE PUSH1 0xA0 PUSH1 0x20 DUP3 ADD MSTORE PUSH1 0x0 PUSH2 0x1079 PUSH1 0xA0 DUP4 ADD DUP8 PUSH2 0xFE7 JUMP JUMPDEST DUP6 ISZERO ISZERO PUSH1 0x40 DUP5 ADD MSTORE DUP3 DUP2 SUB PUSH1 0x60 DUP5 ADD MSTORE PUSH2 0x1093 DUP2 DUP7 PUSH2 0x102D JUMP JUMPDEST SWAP1 POP DUP3 DUP2 SUB PUSH1 0x80 DUP5 ADD MSTORE PUSH2 0x10A7 DUP2 DUP6 PUSH2 0x102D JUMP JUMPDEST SWAP9 SWAP8 POP POP POP POP POP POP POP POP JUMP JUMPDEST PUSH4 0x4E487B71 PUSH1 0xE0 SHL PUSH1 0x0 MSTORE PUSH1 0x11 PUSH1 0x4 MSTORE PUSH1 0x24 PUSH1 0x0 REVERT JUMPDEST DUP1 DUP3 ADD DUP1 DUP3 GT ISZERO PUSH2 0x10DC JUMPI PUSH2 0x10DC PUSH2 0x10B3 JUMP JUMPDEST SWAP3 SWAP2 POP POP JUMP JUMPDEST PUSH1 0x1 DUP2 DUP2 SHR SWAP1 DUP3 AND DUP1 PUSH2 0x10F6 JUMPI PUSH1 0x7F DUP3 AND SWAP2 POP JUMPDEST PUSH1 0x20 DUP3 LT DUP2 SUB PUSH2 0x1116 JUMPI PUSH4 0x4E487B71 PUSH1 0xE0 SHL PUSH1 0x0 MSTORE PUSH1 0x22 PUSH1 0x4 MSTORE PUSH1 0x24 PUSH1 0x0 REVERT JUMPDEST POP SWAP2 SWAP1 POP JUMP JUMPDEST PUSH1 0x0 DUP2 SLOAD PUSH2 0x1129 DUP2 PUSH2 0x10E2 JUMP JUMPDEST DUP1 DUP6 MSTORE PUSH1 0x20 PUSH1 0x1 DUP4 DUP2 AND DUP1 ISZERO PUSH2 0x1146 JUMPI PUSH1 0x1 DUP2 EQ PUSH2 0x1160 JUMPI PUSH2 0x118E JUMP JUMPDEST PUSH1 0xFF NOT DUP6 AND DUP9 DUP5 ADD MSTORE DUP4 ISZERO ISZERO PUSH1 0x5 SHL DUP9 ADD DUP4 ADD SWAP6 POP PUSH2 0x118E JUMP JUMPDEST DUP7 PUSH1 0x0 MSTORE DUP3 PUSH1 0x0 KECCAK256 PUSH1 0x0 JUMPDEST DUP6 DUP2 LT ISZERO PUSH2 0x1186 JUMPI DUP2 SLOAD DUP11 DUP3 ADD DUP7 ADD MSTORE SWAP1 DUP4 ADD SWAP1 DUP5 ADD PUSH2 0x116B JUMP JUMPDEST DUP10 ADD DUP5 ADD SWAP7 POP POP JUMPDEST POP POP POP POP POP SWAP3 SWAP2 POP POP JUMP JUMPDEST DUP1 SLOAD DUP3 MSTORE PUSH1 0x60 PUSH1 0x20 DUP4 ADD MSTORE PUSH1 0x0 PUSH2 0x11B6 PUSH1 0x60 DUP5 ADD PUSH1 0x1 DUP5 ADD PUSH2 0x111C JUMP JUMPDEST PUSH1 0x2 DUP4 ADD SLOAD PUSH1 0x40 DUP6 ADD MSTORE DUP1 SWAP2 POP POP SWAP3 SWAP2 POP POP JUMP JUMPDEST DUP3 DUP2 MSTORE PUSH1 0x40 PUSH1 0x20 DUP3 ADD MSTORE DUP2 SLOAD PUSH1 0x40 DUP3 ADD MSTORE PUSH1 0xA0 PUSH1 0x60 DUP3 ADD MSTORE PUSH1 0x0 PUSH2 0x11F4 PUSH1 0xE0 DUP4 ADD PUSH1 0x1 DUP6 ADD PUSH2 0x111C JUMP JUMPDEST PUSH1 0xFF PUSH1 0x2 DUP6 ADD SLOAD AND ISZERO ISZERO PUSH1 0x80 DUP5 ADD MSTORE PUSH1 0x3F NOT DUP1 DUP5 DUP4 SUB ADD PUSH1 0xA0 DUP6 ADD MSTORE PUSH2 0x121D DUP3 PUSH1 0x3 DUP8 ADD PUSH2 0x1199 JUMP JUMPDEST SWAP2 POP DUP1 DUP5 DUP4 SUB ADD PUSH1 0xC0 DUP6 ADD MSTORE POP PUSH2 0x1237 DUP2 PUSH1 0x6 DUP7 ADD PUSH2 0x1199 JUMP JUMPDEST SWAP6 SWAP5 POP POP POP POP POP JUMP JUMPDEST PUSH1 0x1F DUP3 GT ISZERO PUSH2 0x128A JUMPI PUSH1 0x0 DUP2 DUP2 MSTORE PUSH1 0x20 DUP2 KECCAK256 PUSH1 0x1F DUP6 ADD PUSH1 0x5 SHR DUP2 ADD PUSH1 0x20 DUP7 LT ISZERO PUSH2 0x1267 JUMPI POP DUP1 JUMPDEST PUSH1 0x1F DUP6 ADD PUSH1 0x5 SHR DUP3 ADD SWAP2 POP JUMPDEST DUP2 DUP2 LT ISZERO PUSH2 0x1286 JUMPI DUP3 DUP2 SSTORE PUSH1 0x1 ADD PUSH2 0x1273 JUMP JUMPDEST POP POP POP JUMPDEST POP POP POP JUMP JUMPDEST DUP2 MLOAD PUSH8 0xFFFFFFFFFFFFFFFF DUP2 GT ISZERO PUSH2 0x12A9 JUMPI PUSH2 0x12A9 PUSH2 0xD45 JUMP JUMPDEST PUSH2 0x12BD DUP2 PUSH2 0x12B7 DUP5 SLOAD PUSH2 0x10E2 JUMP JUMPDEST DUP5 PUSH2 0x1240 JUMP JUMPDEST PUSH1 0x20 DUP1 PUSH1 0x1F DUP4 GT PUSH1 0x1 DUP2 EQ PUSH2 0x12F2 JUMPI PUSH1 0x0 DUP5 ISZERO PUSH2 0x12DA JUMPI POP DUP6 DUP4 ADD MLOAD JUMPDEST PUSH1 0x0 NOT PUSH1 0x3 DUP7 SWAP1 SHL SHR NOT AND PUSH1 0x1 DUP6 SWAP1 SHL OR DUP6 SSTORE PUSH2 0x1286 JUMP JUMPDEST PUSH1 0x0 DUP6 DUP2 MSTORE PUSH1 0x20 DUP2 KECCAK256 PUSH1 0x1F NOT DUP7 AND SWAP2 JUMPDEST DUP3 DUP2 LT ISZERO PUSH2 0x1321 JUMPI DUP9 DUP7 ADD MLOAD DUP3 SSTORE SWAP5 DUP5 ADD SWAP5 PUSH1 0x1 SWAP1 SWAP2 ADD SWAP1 DUP5 ADD PUSH2 0x1302 JUMP JUMPDEST POP DUP6 DUP3 LT ISZERO PUSH2 0x133F JUMPI DUP8 DUP6 ADD MLOAD PUSH1 0x0 NOT PUSH1 0x3 DUP9 SWAP1 SHL PUSH1 0xF8 AND SHR NOT AND DUP2 SSTORE JUMPDEST POP POP POP POP POP PUSH1 0x1 SWAP1 DUP2 SHL ADD SWAP1 SSTORE POP JUMP JUMPDEST DUP3 DUP2 MSTORE PUSH1 0x40 PUSH1 0x20 DUP3 ADD MSTORE DUP2 MLOAD PUSH1 0x40 DUP3 ADD MSTORE PUSH1 0x0 PUSH1 0x20 DUP4 ADD MLOAD PUSH1 0xA0 PUSH1 0x60 DUP5 ADD MSTORE PUSH2 0x137B PUSH1 0xE0 DUP5 ADD DUP3 PUSH2 0xFE7 JUMP JUMPDEST SWAP1 POP PUSH1 0x40 DUP5 ADD MLOAD ISZERO ISZERO PUSH1 0x80 DUP5 ADD MSTORE PUSH1 0x60 DUP5 ADD MLOAD PUSH1 0x3F NOT DUP1 DUP6 DUP5 SUB ADD PUSH1 0xA0 DUP7 ADD MSTORE PUSH2 0x13A5 DUP4 DUP4 PUSH2 0x102D JUMP JUMPDEST SWAP3 POP PUSH1 0x80 DUP7 ADD MLOAD SWAP2 POP DUP1 DUP6 DUP5 SUB ADD PUSH1 0xC0 DUP7 ADD MSTORE POP PUSH2 0x13C3 DUP3 DUP3 PUSH2 0x102D JUMP JUMPDEST SWAP7 SWAP6 POP POP POP POP POP POP JUMP JUMPDEST PUSH4 0x4E487B71 PUSH1 0xE0 SHL PUSH1 0x0 MSTORE PUSH1 0x32 PUSH1 0x4 MSTORE PUSH1 0x24 PUSH1 0x0 REVERT JUMPDEST DUP1 DUP3 MUL DUP2 ISZERO DUP3 DUP3 DIV DUP5 EQ OR PUSH2 0x10DC JUMPI PUSH2 0x10DC PUSH2 0x10B3 JUMP JUMPDEST PUSH1 0x0 PUSH1 0x1 DUP3 ADD PUSH2 0x140C JUMPI PUSH2 0x140C PUSH2 0x10B3 JUMP JUMPDEST POP PUSH1 0x1 ADD SWAP1 JUMP INVALID LOG2 PUSH5 0x6970667358 0x22 SLT KECCAK256 0xC5 0xFC MOD CALLCODE SWAP15 DELEGATECALL 0xE8 DUP8 0xEF 0xC2 0xBF 0xB2 0x24 TIMESTAMP 0x2B 0xBD 0xDA SWAP1 GASPRICE PUSH27 0x701BCEE251967A26BFA36F1164736F6C6343000814003300000000 "},"methodIdentifiers":{"betCounterByBettingId(uint256)":"83ca33c8","bets(uint256,uint256)":"6a09f6be","betting(uint256)":"eadc56d2","bettingCounter()":"41ed605f","closeBet(uint256,uint256)":"d38d75ae","createBet((uint256,uint256,uint256,address))":"8a38d6e9","createBetting((uint256,string,bool,(uint256,string,uint256),(uint256,string,uint256)))":"99c21d6d","owner()":"8da5cb5b","winners(uint256,uint256)":"0efc8865"}}}}}