{"contracts/cardhelper.sol":{"CardHelper":{"abi":[{"inputs":[{"internalType":"address","name":"sender","type":"address"},{"internalType":"uint256","name":"balance","type":"uint256"},{"internalType":"uint256","name":"needed","type":"uint256"},{"internalType":"uint256","name":"tokenId","type":"uint256"}],"name":"ERC1155InsufficientBalance","type":"error"},{"inputs":[{"internalType":"address","name":"approver","type":"address"}],"name":"ERC1155InvalidApprover","type":"error"},{"inputs":[{"internalType":"uint256","name":"idsLength","type":"uint256"},{"internalType":"uint256","name":"valuesLength","type":"uint256"}],"name":"ERC1155InvalidArrayLength","type":"error"},{"inputs":[{"internalType":"address","name":"operator","type":"address"}],"name":"ERC1155InvalidOperator","type":"error"},{"inputs":[{"internalType":"address","name":"receiver","type":"address"}],"name":"ERC1155InvalidReceiver","type":"error"},{"inputs":[{"internalType":"address","name":"sender","type":"address"}],"name":"ERC1155InvalidSender","type":"error"},{"inputs":[{"internalType":"address","name":"operator","type":"address"},{"internalType":"address","name":"owner","type":"address"}],"name":"ERC1155MissingApprovalForAll","type":"error"},{"inputs":[{"internalType":"address","name":"owner","type":"address"}],"name":"OwnableInvalidOwner","type":"error"},{"inputs":[{"internalType":"address","name":"account","type":"address"}],"name":"OwnableUnauthorizedAccount","type":"error"},{"anonymous":false,"inputs":[{"indexed":true,"internalType":"address","name":"account","type":"address"},{"indexed":true,"internalType":"address","name":"operator","type":"address"},{"indexed":false,"internalType":"bool","name":"approved","type":"bool"}],"name":"ApprovalForAll","type":"event"},{"anonymous":false,"inputs":[{"indexed":false,"internalType":"uint256","name":"newCardIdMax","type":"uint256"}],"name":"CardIdMaxChanged","type":"event"},{"anonymous":false,"inputs":[{"indexed":true,"internalType":"address","name":"previousOwner","type":"address"},{"indexed":true,"internalType":"address","name":"newOwner","type":"address"}],"name":"OwnershipTransferred","type":"event"},{"anonymous":false,"inputs":[{"indexed":true,"internalType":"address","name":"operator","type":"address"},{"indexed":true,"internalType":"address","name":"from","type":"address"},{"indexed":true,"internalType":"address","name":"to","type":"address"},{"indexed":false,"internalType":"uint256[]","name":"ids","type":"uint256[]"},{"indexed":false,"internalType":"uint256[]","name":"values","type":"uint256[]"}],"name":"TransferBatch","type":"event"},{"anonymous":false,"inputs":[{"indexed":true,"internalType":"address","name":"operator","type":"address"},{"indexed":true,"internalType":"address","name":"from","type":"address"},{"indexed":true,"internalType":"address","name":"to","type":"address"},{"indexed":false,"internalType":"uint256","name":"id","type":"uint256"},{"indexed":false,"internalType":"uint256","name":"value","type":"uint256"}],"name":"TransferSingle","type":"event"},{"anonymous":false,"inputs":[{"indexed":false,"internalType":"string","name":"value","type":"string"},{"indexed":true,"internalType":"uint256","name":"id","type":"uint256"}],"name":"URI","type":"event"},{"inputs":[{"internalType":"address","name":"account","type":"address"},{"internalType":"uint256","name":"id","type":"uint256"}],"name":"balanceOf","outputs":[{"internalType":"uint256","name":"","type":"uint256"}],"stateMutability":"view","type":"function"},{"inputs":[{"internalType":"address[]","name":"accounts","type":"address[]"},{"internalType":"uint256[]","name":"ids","type":"uint256[]"}],"name":"balanceOfBatch","outputs":[{"internalType":"uint256[]","name":"","type":"uint256[]"}],"stateMutability":"view","type":"function"},{"inputs":[{"internalType":"address","name":"_from","type":"address"},{"internalType":"uint256","name":"_id","type":"uint256"},{"internalType":"uint256","name":"_value","type":"uint256"}],"name":"burn","outputs":[],"stateMutability":"nonpayable","type":"function"},{"inputs":[],"name":"cardIdMax","outputs":[{"internalType":"uint256","name":"","type":"uint256"}],"stateMutability":"view","type":"function"},{"inputs":[{"internalType":"uint256","name":"","type":"uint256"},{"internalType":"address","name":"","type":"address"}],"name":"cardIdToOwnerToAmount","outputs":[{"internalType":"uint256","name":"","type":"uint256"}],"stateMutability":"view","type":"function"},{"inputs":[{"internalType":"uint256","name":"","type":"uint256"},{"internalType":"uint256","name":"","type":"uint256"}],"name":"cardIdToOwners","outputs":[{"internalType":"address","name":"","type":"address"}],"stateMutability":"view","type":"function"},{"inputs":[{"internalType":"uint256","name":"_cardIdMax","type":"uint256"}],"name":"changeCardIdMax","outputs":[],"stateMutability":"nonpayable","type":"function"},{"inputs":[{"internalType":"uint256","name":"id","type":"uint256"}],"name":"exists","outputs":[{"internalType":"bool","name":"","type":"bool"}],"stateMutability":"view","type":"function"},{"inputs":[{"internalType":"address","name":"_from","type":"address"}],"name":"getAllBalance","outputs":[{"internalType":"uint256[]","name":"","type":"uint256[]"}],"stateMutability":"view","type":"function"},{"inputs":[{"internalType":"uint256","name":"_id","type":"uint256"},{"internalType":"address","name":"_from","type":"address"}],"name":"getBalanceOf","outputs":[{"internalType":"uint256","name":"","type":"uint256"}],"stateMutability":"view","type":"function"},{"inputs":[],"name":"getCardIdMax","outputs":[{"internalType":"uint256","name":"","type":"uint256"}],"stateMutability":"view","type":"function"},{"inputs":[{"internalType":"address","name":"account","type":"address"},{"internalType":"address","name":"operator","type":"address"}],"name":"isApprovedForAll","outputs":[{"internalType":"bool","name":"","type":"bool"}],"stateMutability":"view","type":"function"},{"inputs":[{"internalType":"address","name":"_account","type":"address"},{"internalType":"uint256","name":"_id","type":"uint256"},{"internalType":"uint256","name":"_amount","type":"uint256"},{"internalType":"bytes","name":"_data","type":"bytes"}],"name":"mint","outputs":[],"stateMutability":"nonpayable","type":"function"},{"inputs":[{"internalType":"address","name":"_to","type":"address"},{"internalType":"uint256[]","name":"_ids","type":"uint256[]"},{"internalType":"uint256[]","name":"_amounts","type":"uint256[]"},{"internalType":"bytes","name":"_data","type":"bytes"}],"name":"mintBatch","outputs":[],"stateMutability":"nonpayable","type":"function"},{"inputs":[],"name":"nonce","outputs":[{"internalType":"uint256","name":"","type":"uint256"}],"stateMutability":"view","type":"function"},{"inputs":[],"name":"openPack","outputs":[],"stateMutability":"payable","type":"function"},{"inputs":[],"name":"owner","outputs":[{"internalType":"address","name":"","type":"address"}],"stateMutability":"view","type":"function"},{"inputs":[],"name":"renounceOwnership","outputs":[],"stateMutability":"nonpayable","type":"function"},{"inputs":[{"internalType":"address","name":"from","type":"address"},{"internalType":"address","name":"to","type":"address"},{"internalType":"uint256[]","name":"ids","type":"uint256[]"},{"internalType":"uint256[]","name":"values","type":"uint256[]"},{"internalType":"bytes","name":"data","type":"bytes"}],"name":"safeBatchTransferFrom","outputs":[],"stateMutability":"nonpayable","type":"function"},{"inputs":[{"internalType":"address","name":"from","type":"address"},{"internalType":"address","name":"to","type":"address"},{"internalType":"uint256","name":"id","type":"uint256"},{"internalType":"uint256","name":"value","type":"uint256"},{"internalType":"bytes","name":"data","type":"bytes"}],"name":"safeTransferFrom","outputs":[],"stateMutability":"nonpayable","type":"function"},{"inputs":[{"internalType":"address","name":"operator","type":"address"},{"internalType":"bool","name":"approved","type":"bool"}],"name":"setApprovalForAll","outputs":[],"stateMutability":"nonpayable","type":"function"},{"inputs":[{"internalType":"string","name":"_newuri","type":"string"}],"name":"setURI","outputs":[],"stateMutability":"nonpayable","type":"function"},{"inputs":[{"internalType":"bytes4","name":"interfaceId","type":"bytes4"}],"name":"supportsInterface","outputs":[{"internalType":"bool","name":"","type":"bool"}],"stateMutability":"view","type":"function"},{"inputs":[{"internalType":"uint256","name":"_tokenId","type":"uint256"}],"name":"tokenURI","outputs":[{"internalType":"string","name":"","type":"string"}],"stateMutability":"pure","type":"function"},{"inputs":[],"name":"totalSupply","outputs":[{"internalType":"uint256","name":"","type":"uint256"}],"stateMutability":"view","type":"function"},{"inputs":[{"internalType":"uint256","name":"id","type":"uint256"}],"name":"totalSupply","outputs":[{"internalType":"uint256","name":"","type":"uint256"}],"stateMutability":"view","type":"function"},{"inputs":[{"internalType":"address","name":"newOwner","type":"address"}],"name":"transferOwnership","outputs":[],"stateMutability":"nonpayable","type":"function"},{"inputs":[{"internalType":"uint256","name":"","type":"uint256"}],"name":"uri","outputs":[{"internalType":"string","name":"","type":"string"}],"stateMutability":"view","type":"function"}],"evm":{"bytecode":{"linkReferences":{},"object":"6080604052600960065560006007553480156200001b57600080fd5b5033604051806060016040528060298152602001620025ab60299139620000428162000084565b506001600160a01b0381166200007257604051631e4fbdf760e01b81526000600482015260240160405180910390fd5b6200007d8162000096565b5062000259565b60026200009282826200018d565b5050565b600580546001600160a01b038381166001600160a01b0319831681179093556040519116919082907f8be0079c531659141344cd1fd0a4f28419497f9722a3daafe3b4186f6b6457e090600090a35050565b634e487b7160e01b600052604160045260246000fd5b600181811c908216806200011357607f821691505b6020821081036200013457634e487b7160e01b600052602260045260246000fd5b50919050565b601f8211156200018857600081815260208120601f850160051c81016020861015620001635750805b601f850160051c820191505b8181101562000184578281556001016200016f565b5050505b505050565b81516001600160401b03811115620001a957620001a9620000e8565b620001c181620001ba8454620000fe565b846200013a565b602080601f831160018114620001f95760008415620001e05750858301515b600019600386901b1c1916600185901b17855562000184565b600085815260208120601f198616915b828110156200022a5788860151825594840194600190910190840162000209565b5085821015620002495787850151600019600388901b60f8161c191681555b5050505050600190811b01905550565b61234280620002696000396000f3fe6080604052600436106101b55760003560e01c8063731133e9116100ec578063bfa0af6d1161008a578063e999426711610064578063e999426714610507578063f242432a1461053f578063f2fde38b1461055f578063f5298aca1461057f57600080fd5b8063bfa0af6d1461047e578063c87b56dd1461049e578063e985e9c5146104be57600080fd5b80639347fb3d116100c65780639347fb3d146103fb578063a22cb4651461041b578063affed0e01461043b578063bd85b0391461045157600080fd5b8063731133e9146103a75780638da5cb5b146103c75780638da7722a146103e557600080fd5b80632eb2c2d6116101595780634673f332116101335780634673f332146103215780634e1273f4146103365780634f558e7914610363578063715018a61461039257600080fd5b80632eb2c2d6146102c157806334303187146102e15780633c4ea3851461031957600080fd5b806302fe53051161019557806302fe53051461023f5780630e89341c1461025f57806318160ddd1461028c5780631f7fdffa146102a157600080fd5b806266fd0d146101ba578062fdd58e146101dc57806301ffc9a71461020f575b600080fd5b3480156101c657600080fd5b506101da6101d5366004611903565b61059f565b005b3480156101e857600080fd5b506101fc6101f7366004611933565b6105e2565b6040519081526020015b60405180910390f35b34801561021b57600080fd5b5061022f61022a366004611973565b61060a565b6040519015158152602001610206565b34801561024b57600080fd5b506101da61025a366004611a2f565b6106a5565b34801561026b57600080fd5b5061027f61027a366004611903565b6106b9565b6040516102069190611ad0565b34801561029857600080fd5b506004546101fc565b3480156102ad57600080fd5b506101da6102bc366004611b92565b61074d565b3480156102cd57600080fd5b506101da6102dc366004611c2b565b610767565b3480156102ed57600080fd5b506103016102fc366004611cd5565b6107f2565b6040516001600160a01b039091168152602001610206565b6101da61082a565b34801561032d57600080fd5b506006546101fc565b34801561034257600080fd5b50610356610351366004611cf7565b61090e565b6040516102069190611df2565b34801561036f57600080fd5b5061022f61037e366004611903565b600090815260036020526040902054151590565b34801561039e57600080fd5b506101da6109e3565b3480156103b357600080fd5b506101da6103c2366004611e05565b6109f7565b3480156103d357600080fd5b506005546001600160a01b0316610301565b3480156103f157600080fd5b506101fc60065481565b34801561040757600080fd5b50610356610416366004611e5a565b610a0b565b34801561042757600080fd5b506101da610436366004611e75565b610ac0565b34801561044757600080fd5b506101fc60075481565b34801561045d57600080fd5b506101fc61046c366004611903565b60009081526003602052604090205490565b34801561048a57600080fd5b506101fc610499366004611eb1565b610acf565b3480156104aa57600080fd5b5061027f6104b9366004611903565b610ae2565b3480156104ca57600080fd5b5061022f6104d9366004611edd565b6001600160a01b03918216600090815260016020908152604080832093909416825291909152205460ff1690565b34801561051357600080fd5b506101fc610522366004611eb1565b600860209081526000928352604080842090915290825290205481565b34801561054b57600080fd5b506101da61055a366004611f07565b610b13565b34801561056b57600080fd5b506101da61057a366004611e5a565b610b91565b34801561058b57600080fd5b506101da61059a366004611f6c565b610be5565b6105a7610bf5565b60068190556040518181527f2ca7491c41b198f60823c9da02ca440dca6bfb5d6cd4ae0df705cc35de252fb39060200160405180910390a150565b6000818152602081815260408083206001600160a01b03861684529091529020545b92915050565b60006001600160e01b031982167fd9b67a2600000000000000000000000000000000000000000000000000000000148061066d57506001600160e01b031982167f0e89341c00000000000000000000000000000000000000000000000000000000145b8061060457507f01ffc9a7000000000000000000000000000000000000000000000000000000006001600160e01b0319831614610604565b6106ad610bf5565b6106b681610c3b565b50565b6060600280546106c890611f9f565b80601f01602080910402602001604051908101604052809291908181526020018280546106f490611f9f565b80156107415780601f1061071657610100808354040283529160200191610741565b820191906000526020600020905b81548152906001019060200180831161072457829003601f168201915b50505050509050919050565b610755610bf5565b61076184848484610c47565b50505050565b336001600160a01b03861681148015906107a757506001600160a01b0380871660009081526001602090815260408083209385168352929052205460ff16155b156107dd5760405163711bec9160e11b81526001600160a01b038083166004830152871660248201526044015b60405180910390fd5b6107ea8686868686610c7f565b505050505050565b6009602052816000526040600020818154811061080e57600080fd5b6000918252602090912001546001600160a01b03169150829050565b3464e8d4a51000146108be576040517f08c379a000000000000000000000000000000000000000000000000000000000815260206004820152602d60248201527f596f75206e65656420746f2070617920302e303030303031206574686572207460448201527f6f206f70656e2061207061636b0000000000000000000000000000000000000060648201526084016107d4565b60006108c8610cdf565b905060006108d582610d30565b905060006108e1610d75565b905060006108ee82610dc5565b905060006108fc8483611fef565b905061090781610e02565b5050505050565b6060815183511461093f5781518351604051635b05999160e01b8152600481019290925260248201526044016107d4565b6000835167ffffffffffffffff81111561095b5761095b611990565b604051908082528060200260200182016040528015610984578160200160208202803683370190505b50905060005b84518110156109db576020808202860101516109ae906020808402870101516105e2565b8282815181106109c0576109c0612002565b60209081029190910101526109d481612018565b905061098a565b509392505050565b6109eb610bf5565b6109f56000610f08565b565b6109ff610bf5565b61076184848484610f67565b6060600060065467ffffffffffffffff811115610a2a57610a2a611990565b604051908082528060200260200182016040528015610a53578160200160208202803683370190505b50905060015b6006548111610ab9576000610a6e85836105e2565b1115610aa757610a7e84826105e2565b82610a8a600184612031565b81518110610a9a57610a9a612002565b6020026020010181815250505b80610ab181612018565b915050610a59565b5092915050565b610acb338383610fc4565b5050565b6000610adb82846105e2565b9392505050565b6060610aed82611074565b604051602001610afd9190612044565b6040516020818303038152906040529050919050565b336001600160a01b0386168114801590610b5357506001600160a01b0380871660009081526001602090815260408083209385168352929052205460ff16155b15610b845760405163711bec9160e11b81526001600160a01b038083166004830152871660248201526044016107d4565b6107ea8686868686611114565b610b99610bf5565b6001600160a01b038116610bdc576040517f1e4fbdf7000000000000000000000000000000000000000000000000000000008152600060048201526024016107d4565b6106b681610f08565b610bf08383836111a2565b505050565b6005546001600160a01b031633146109f5576040517f118cdaa70000000000000000000000000000000000000000000000000000000081523360048201526024016107d4565b6002610acb82826120f5565b6001600160a01b038416610c7157604051632bfa23e760e11b8152600060048201526024016107d4565b610761600085858585611206565b6001600160a01b038416610ca957604051632bfa23e760e11b8152600060048201526024016107d4565b6001600160a01b038516610cd257604051626a0d4560e21b8152600060048201526024016107d4565b6109078585858585611206565b604080514260208201526bffffffffffffffffffffffff193360601b169181019190915244605482015260009081906074015b60408051601f19818403018152919052805160209091012092915050565b60006014610d3f6064846121cb565b1015610d4d57506002919050565b6032610d5a6064846121cb565b1015610d6857506001919050565b506000919050565b919050565b6007805460009182610d8683612018565b9091555050600754604080514260208201526bffffffffffffffffffffffff193360601b16918101919091526054810191909152600090607401610d12565b600060026003600654610dd891906121df565b610de290846121cb565b610ded906001611fef565b610df89060036121f3565b6106049190612031565b610e1e3382600160405180602001604052806000815250610f67565b6000818152600860209081526040808320338452909152902054610e43906001611259565b60008281526008602090815260408083203384529091528120919091555b600082815260096020526040902054811015610eca576000828152600960205260409020805433919083908110610e9a57610e9a612002565b6000918252602090912001546001600160a01b031603610eb8575050565b80610ec281612018565b915050610e61565b50600090815260096020908152604082208054600181018255908352912001805473ffffffffffffffffffffffffffffffffffffffff191633179055565b600580546001600160a01b0383811673ffffffffffffffffffffffffffffffffffffffff19831681179093556040519116919082907f8be0079c531659141344cd1fd0a4f28419497f9722a3daafe3b4186f6b6457e090600090a35050565b6001600160a01b038416610f9157604051632bfa23e760e11b8152600060048201526024016107d4565b604080516001808252602082018690528183019081526060820185905260808201909252906107ea600087848487611206565b6001600160a01b038216611007576040517fced3e100000000000000000000000000000000000000000000000000000000008152600060048201526024016107d4565b6001600160a01b03838116600081815260016020908152604080832094871680845294825291829020805460ff191686151590811790915591519182527f17307eab39ab6107e8899845ad3d59bd9653f200f220920489ca2b5937696c31910160405180910390a3505050565b6060600061108183611278565b600101905060008167ffffffffffffffff8111156110a1576110a1611990565b6040519080825280601f01601f1916602001820160405280156110cb576020820181803683370190505b5090508181016020015b600019017f3031323334353637383961626364656600000000000000000000000000000000600a86061a8153600a85049450846110d557509392505050565b6001600160a01b03841661113e57604051632bfa23e760e11b8152600060048201526024016107d4565b6001600160a01b03851661116757604051626a0d4560e21b8152600060048201526024016107d4565b604080516001808252602082018690528183019081526060820185905260808201909252906111998787848487611206565b50505050505050565b6001600160a01b0383166111cb57604051626a0d4560e21b8152600060048201526024016107d4565b604080516001808252602082018590528183019081526060820184905260a08201909252600060808201818152919291610907918791859085905b6112128585858561135a565b6001600160a01b03841615610907578251339060010361124b5760208481015190840151611244838989858589611366565b50506107ea565b6107ea81878787878761148a565b6000806112668385611fef565b905083811015610adb57610adb61220a565b6000807a184f03e93ff9f4daa797ed6e38ed64bf6a1f01000000000000000083106112c1577a184f03e93ff9f4daa797ed6e38ed64bf6a1f010000000000000000830492506040015b6d04ee2d6d415b85acef810000000083106112ed576d04ee2d6d415b85acef8100000000830492506020015b662386f26fc10000831061130b57662386f26fc10000830492506010015b6305f5e1008310611323576305f5e100830492506008015b612710831061133757612710830492506004015b60648310611349576064830492506002015b600a83106106045760010192915050565b61076184848484611573565b6001600160a01b0384163b156107ea5760405163f23a6e6160e01b81526001600160a01b0385169063f23a6e61906113aa9089908990889088908890600401612220565b6020604051808303816000875af19250505080156113e5575060408051601f3d908101601f191682019092526113e291810190612263565b60015b61144e573d808015611413576040519150601f19603f3d011682016040523d82523d6000602084013e611418565b606091505b50805160000361144657604051632bfa23e760e11b81526001600160a01b03861660048201526024016107d4565b805181602001fd5b6001600160e01b0319811663f23a6e6160e01b1461119957604051632bfa23e760e11b81526001600160a01b03861660048201526024016107d4565b6001600160a01b0384163b156107ea5760405163bc197c8160e01b81526001600160a01b0385169063bc197c81906114ce9089908990889088908890600401612280565b6020604051808303816000875af1925050508015611509575060408051601f3d908101601f1916820190925261150691810190612263565b60015b611537573d808015611413576040519150601f19603f3d011682016040523d82523d6000602084013e611418565b6001600160e01b0319811663bc197c8160e01b1461119957604051632bfa23e760e11b81526001600160a01b03861660048201526024016107d4565b61157f848484846116cd565b6001600160a01b038416611632576000805b83518110156116185760008382815181106115ae576115ae612002565b6020026020010151905080600360008785815181106115cf576115cf612002565b6020026020010151815260200190815260200160002060008282546115f49190611fef565b9091555061160490508184611fef565b9250508061161190612018565b9050611591565b50806004600082825461162b9190611fef565b9091555050505b6001600160a01b038316610761576000805b83518110156116bc57600083828151811061166157611661612002565b60200260200101519050806003600087858151811061168257611682612002565b6020026020010151815260200190815260200160002060008282540392505081905550808301925050806116b590612018565b9050611644565b506004805491909103905550505050565b80518251146116fc5781518151604051635b05999160e01b8152600481019290925260248201526044016107d4565b3360005b8351811015611824576020818102858101820151908501909101516001600160a01b038816156117cc576000828152602081815260408083206001600160a01b038c168452909152902054818110156117a5576040517f03dee4c50000000000000000000000000000000000000000000000000000000081526001600160a01b038a1660048201526024810182905260448101839052606481018490526084016107d4565b6000838152602081815260408083206001600160a01b038d16845290915290209082900390555b6001600160a01b03871615611811576000828152602081815260408083206001600160a01b038b1684529091528120805483929061180b908490611fef565b90915550505b50508061181d90612018565b9050611700565b5082516001036118a55760208301516000906020840151909150856001600160a01b0316876001600160a01b0316846001600160a01b03167fc3d58168c5ae7397731d063d5bbf3d657854427343f4c083240f7aacaa2d0f628585604051611896929190918252602082015260400190565b60405180910390a45050610907565b836001600160a01b0316856001600160a01b0316826001600160a01b03167f4a39dc06d4c0dbc64b70af90fd698a233a518aa5d07e595d983b8c0526c8f7fb86866040516118f49291906122de565b60405180910390a45050505050565b60006020828403121561191557600080fd5b5035919050565b80356001600160a01b0381168114610d7057600080fd5b6000806040838503121561194657600080fd5b61194f8361191c565b946020939093013593505050565b6001600160e01b0319811681146106b657600080fd5b60006020828403121561198557600080fd5b8135610adb8161195d565b634e487b7160e01b600052604160045260246000fd5b604051601f8201601f1916810167ffffffffffffffff811182821017156119cf576119cf611990565b604052919050565b600067ffffffffffffffff8311156119f1576119f1611990565b611a04601f8401601f19166020016119a6565b9050828152838383011115611a1857600080fd5b828260208301376000602084830101529392505050565b600060208284031215611a4157600080fd5b813567ffffffffffffffff811115611a5857600080fd5b8201601f81018413611a6957600080fd5b611a78848235602084016119d7565b949350505050565b60005b83811015611a9b578181015183820152602001611a83565b50506000910152565b60008151808452611abc816020860160208601611a80565b601f01601f19169290920160200192915050565b602081526000610adb6020830184611aa4565b600067ffffffffffffffff821115611afd57611afd611990565b5060051b60200190565b600082601f830112611b1857600080fd5b81356020611b2d611b2883611ae3565b6119a6565b82815260059290921b84018101918181019086841115611b4c57600080fd5b8286015b84811015611b675780358352918301918301611b50565b509695505050505050565b600082601f830112611b8357600080fd5b610adb838335602085016119d7565b60008060008060808587031215611ba857600080fd5b611bb18561191c565b9350602085013567ffffffffffffffff80821115611bce57600080fd5b611bda88838901611b07565b94506040870135915080821115611bf057600080fd5b611bfc88838901611b07565b93506060870135915080821115611c1257600080fd5b50611c1f87828801611b72565b91505092959194509250565b600080600080600060a08688031215611c4357600080fd5b611c4c8661191c565b9450611c5a6020870161191c565b9350604086013567ffffffffffffffff80821115611c7757600080fd5b611c8389838a01611b07565b94506060880135915080821115611c9957600080fd5b611ca589838a01611b07565b93506080880135915080821115611cbb57600080fd5b50611cc888828901611b72565b9150509295509295909350565b60008060408385031215611ce857600080fd5b50508035926020909101359150565b60008060408385031215611d0a57600080fd5b823567ffffffffffffffff80821115611d2257600080fd5b818501915085601f830112611d3657600080fd5b81356020611d46611b2883611ae3565b82815260059290921b84018101918181019089841115611d6557600080fd5b948201945b83861015611d8a57611d7b8661191c565b82529482019490820190611d6a565b96505086013592505080821115611da057600080fd5b50611dad85828601611b07565b9150509250929050565b600081518084526020808501945080840160005b83811015611de757815187529582019590820190600101611dcb565b509495945050505050565b602081526000610adb6020830184611db7565b60008060008060808587031215611e1b57600080fd5b611e248561191c565b93506020850135925060408501359150606085013567ffffffffffffffff811115611e4e57600080fd5b611c1f87828801611b72565b600060208284031215611e6c57600080fd5b610adb8261191c565b60008060408385031215611e8857600080fd5b611e918361191c565b915060208301358015158114611ea657600080fd5b809150509250929050565b60008060408385031215611ec457600080fd5b82359150611ed46020840161191c565b90509250929050565b60008060408385031215611ef057600080fd5b611ef98361191c565b9150611ed46020840161191c565b600080600080600060a08688031215611f1f57600080fd5b611f288661191c565b9450611f366020870161191c565b93506040860135925060608601359150608086013567ffffffffffffffff811115611f6057600080fd5b611cc888828901611b72565b600080600060608486031215611f8157600080fd5b611f8a8461191c565b95602085013595506040909401359392505050565b600181811c90821680611fb357607f821691505b602082108103611fd357634e487b7160e01b600052602260045260246000fd5b50919050565b634e487b7160e01b600052601160045260246000fd5b8082018082111561060457610604611fd9565b634e487b7160e01b600052603260045260246000fd5b60006001820161202a5761202a611fd9565b5060010190565b8181038181111561060457610604611fd9565b7f687474703a2f2f35312e33382e3139302e3133343a313135362f6170692f636181527f7264732f000000000000000000000000000000000000000000000000000000006020820152600082516120a2816024850160208701611a80565b9190910160240192915050565b601f821115610bf057600081815260208120601f850160051c810160208610156120d65750805b601f850160051c820191505b818110156107ea578281556001016120e2565b815167ffffffffffffffff81111561210f5761210f611990565b6121238161211d8454611f9f565b846120af565b602080601f83116001811461215857600084156121405750858301515b600019600386901b1c1916600185901b1785556107ea565b600085815260208120601f198616915b8281101561218757888601518255948401946001909101908401612168565b50858210156121a55787850151600019600388901b60f8161c191681555b5050505050600190811b01905550565b634e487b7160e01b600052601260045260246000fd5b6000826121da576121da6121b5565b500690565b6000826121ee576121ee6121b5565b500490565b808202811582820484141761060457610604611fd9565b634e487b7160e01b600052600160045260246000fd5b60006001600160a01b03808816835280871660208401525084604083015283606083015260a0608083015261225860a0830184611aa4565b979650505050505050565b60006020828403121561227557600080fd5b8151610adb8161195d565b60006001600160a01b03808816835280871660208401525060a060408301526122ac60a0830186611db7565b82810360608401526122be8186611db7565b905082810360808401526122d28185611aa4565b98975050505050505050565b6040815260006122f16040830185611db7565b82810360208401526123038185611db7565b9594505050505056fea264697066735822122076cfadb62111763ed9434055718300f1d8db8d8d0ee4c912ee2877839a67cd1364736f6c63430008140033687474703a2f2f35312e33382e3139302e3133343a313135352f63617264732f7b69647d2e6a736f6e","opcodes":"PUSH1 0x80 PUSH1 0x40 MSTORE PUSH1 0x9 PUSH1 0x6 SSTORE PUSH1 0x0 PUSH1 0x7 SSTORE CALLVALUE DUP1 ISZERO PUSH3 0x1B JUMPI PUSH1 0x0 DUP1 REVERT JUMPDEST POP CALLER PUSH1 0x40 MLOAD DUP1 PUSH1 0x60 ADD PUSH1 0x40 MSTORE DUP1 PUSH1 0x29 DUP2 MSTORE PUSH1 0x20 ADD PUSH3 0x25AB PUSH1 0x29 SWAP2 CODECOPY PUSH3 0x42 DUP2 PUSH3 0x84 JUMP JUMPDEST POP PUSH1 0x1 PUSH1 0x1 PUSH1 0xA0 SHL SUB DUP2 AND PUSH3 0x72 JUMPI PUSH1 0x40 MLOAD PUSH4 0x1E4FBDF7 PUSH1 0xE0 SHL DUP2 MSTORE PUSH1 0x0 PUSH1 0x4 DUP3 ADD MSTORE PUSH1 0x24 ADD PUSH1 0x40 MLOAD DUP1 SWAP2 SUB SWAP1 REVERT JUMPDEST PUSH3 0x7D DUP2 PUSH3 0x96 JUMP JUMPDEST POP PUSH3 0x259 JUMP JUMPDEST PUSH1 0x2 PUSH3 0x92 DUP3 DUP3 PUSH3 0x18D JUMP JUMPDEST POP POP JUMP JUMPDEST PUSH1 0x5 DUP1 SLOAD PUSH1 0x1 PUSH1 0x1 PUSH1 0xA0 SHL SUB DUP4 DUP2 AND PUSH1 0x1 PUSH1 0x1 PUSH1 0xA0 SHL SUB NOT DUP4 AND DUP2 OR SWAP1 SWAP4 SSTORE PUSH1 0x40 MLOAD SWAP2 AND SWAP2 SWAP1 DUP3 SWAP1 PUSH32 0x8BE0079C531659141344CD1FD0A4F28419497F9722A3DAAFE3B4186F6B6457E0 SWAP1 PUSH1 0x0 SWAP1 LOG3 POP POP JUMP JUMPDEST PUSH4 0x4E487B71 PUSH1 0xE0 SHL PUSH1 0x0 MSTORE PUSH1 0x41 PUSH1 0x4 MSTORE PUSH1 0x24 PUSH1 0x0 REVERT JUMPDEST PUSH1 0x1 DUP2 DUP2 SHR SWAP1 DUP3 AND DUP1 PUSH3 0x113 JUMPI PUSH1 0x7F DUP3 AND SWAP2 POP JUMPDEST PUSH1 0x20 DUP3 LT DUP2 SUB PUSH3 0x134 JUMPI PUSH4 0x4E487B71 PUSH1 0xE0 SHL PUSH1 0x0 MSTORE PUSH1 0x22 PUSH1 0x4 MSTORE PUSH1 0x24 PUSH1 0x0 REVERT JUMPDEST POP SWAP2 SWAP1 POP JUMP JUMPDEST PUSH1 0x1F DUP3 GT ISZERO PUSH3 0x188 JUMPI PUSH1 0x0 DUP2 DUP2 MSTORE PUSH1 0x20 DUP2 KECCAK256 PUSH1 0x1F DUP6 ADD PUSH1 0x5 SHR DUP2 ADD PUSH1 0x20 DUP7 LT ISZERO PUSH3 0x163 JUMPI POP DUP1 JUMPDEST PUSH1 0x1F DUP6 ADD PUSH1 0x5 SHR DUP3 ADD SWAP2 POP JUMPDEST DUP2 DUP2 LT ISZERO PUSH3 0x184 JUMPI DUP3 DUP2 SSTORE PUSH1 0x1 ADD PUSH3 0x16F JUMP JUMPDEST POP POP POP JUMPDEST POP POP POP JUMP JUMPDEST DUP2 MLOAD PUSH1 0x1 PUSH1 0x1 PUSH1 0x40 SHL SUB DUP2 GT ISZERO PUSH3 0x1A9 JUMPI PUSH3 0x1A9 PUSH3 0xE8 JUMP JUMPDEST PUSH3 0x1C1 DUP2 PUSH3 0x1BA DUP5 SLOAD PUSH3 0xFE JUMP JUMPDEST DUP5 PUSH3 0x13A JUMP JUMPDEST PUSH1 0x20 DUP1 PUSH1 0x1F DUP4 GT PUSH1 0x1 DUP2 EQ PUSH3 0x1F9 JUMPI PUSH1 0x0 DUP5 ISZERO PUSH3 0x1E0 JUMPI POP DUP6 DUP4 ADD MLOAD JUMPDEST PUSH1 0x0 NOT PUSH1 0x3 DUP7 SWAP1 SHL SHR NOT AND PUSH1 0x1 DUP6 SWAP1 SHL OR DUP6 SSTORE PUSH3 0x184 JUMP JUMPDEST PUSH1 0x0 DUP6 DUP2 MSTORE PUSH1 0x20 DUP2 KECCAK256 PUSH1 0x1F NOT DUP7 AND SWAP2 JUMPDEST DUP3 DUP2 LT ISZERO PUSH3 0x22A JUMPI DUP9 DUP7 ADD MLOAD DUP3 SSTORE SWAP5 DUP5 ADD SWAP5 PUSH1 0x1 SWAP1 SWAP2 ADD SWAP1 DUP5 ADD PUSH3 0x209 JUMP JUMPDEST POP DUP6 DUP3 LT ISZERO PUSH3 0x249 JUMPI DUP8 DUP6 ADD MLOAD PUSH1 0x0 NOT PUSH1 0x3 DUP9 SWAP1 SHL PUSH1 0xF8 AND SHR NOT AND DUP2 SSTORE JUMPDEST POP POP POP POP POP PUSH1 0x1 SWAP1 DUP2 SHL ADD SWAP1 SSTORE POP JUMP JUMPDEST PUSH2 0x2342 DUP1 PUSH3 0x269 PUSH1 0x0 CODECOPY PUSH1 0x0 RETURN INVALID PUSH1 0x80 PUSH1 0x40 MSTORE PUSH1 0x4 CALLDATASIZE LT PUSH2 0x1B5 JUMPI PUSH1 0x0 CALLDATALOAD PUSH1 0xE0 SHR DUP1 PUSH4 0x731133E9 GT PUSH2 0xEC JUMPI DUP1 PUSH4 0xBFA0AF6D GT PUSH2 0x8A JUMPI DUP1 PUSH4 0xE9994267 GT PUSH2 0x64 JUMPI DUP1 PUSH4 0xE9994267 EQ PUSH2 0x507 JUMPI DUP1 PUSH4 0xF242432A EQ PUSH2 0x53F JUMPI DUP1 PUSH4 0xF2FDE38B EQ PUSH2 0x55F JUMPI DUP1 PUSH4 0xF5298ACA EQ PUSH2 0x57F JUMPI PUSH1 0x0 DUP1 REVERT JUMPDEST DUP1 PUSH4 0xBFA0AF6D EQ PUSH2 0x47E JUMPI DUP1 PUSH4 0xC87B56DD EQ PUSH2 0x49E JUMPI DUP1 PUSH4 0xE985E9C5 EQ PUSH2 0x4BE JUMPI PUSH1 0x0 DUP1 REVERT JUMPDEST DUP1 PUSH4 0x9347FB3D GT PUSH2 0xC6 JUMPI DUP1 PUSH4 0x9347FB3D EQ PUSH2 0x3FB JUMPI DUP1 PUSH4 0xA22CB465 EQ PUSH2 0x41B JUMPI DUP1 PUSH4 0xAFFED0E0 EQ PUSH2 0x43B JUMPI DUP1 PUSH4 0xBD85B039 EQ PUSH2 0x451 JUMPI PUSH1 0x0 DUP1 REVERT JUMPDEST DUP1 PUSH4 0x731133E9 EQ PUSH2 0x3A7 JUMPI DUP1 PUSH4 0x8DA5CB5B EQ PUSH2 0x3C7 JUMPI DUP1 PUSH4 0x8DA7722A EQ PUSH2 0x3E5 JUMPI PUSH1 0x0 DUP1 REVERT JUMPDEST DUP1 PUSH4 0x2EB2C2D6 GT PUSH2 0x159 JUMPI DUP1 PUSH4 0x4673F332 GT PUSH2 0x133 JUMPI DUP1 PUSH4 0x4673F332 EQ PUSH2 0x321 JUMPI DUP1 PUSH4 0x4E1273F4 EQ PUSH2 0x336 JUMPI DUP1 PUSH4 0x4F558E79 EQ PUSH2 0x363 JUMPI DUP1 PUSH4 0x715018A6 EQ PUSH2 0x392 JUMPI PUSH1 0x0 DUP1 REVERT JUMPDEST DUP1 PUSH4 0x2EB2C2D6 EQ PUSH2 0x2C1 JUMPI DUP1 PUSH4 0x34303187 EQ PUSH2 0x2E1 JUMPI DUP1 PUSH4 0x3C4EA385 EQ PUSH2 0x319 JUMPI PUSH1 0x0 DUP1 REVERT JUMPDEST DUP1 PUSH4 0x2FE5305 GT PUSH2 0x195 JUMPI DUP1 PUSH4 0x2FE5305 EQ PUSH2 0x23F JUMPI DUP1 PUSH4 0xE89341C EQ PUSH2 0x25F JUMPI DUP1 PUSH4 0x18160DDD EQ PUSH2 0x28C JUMPI DUP1 PUSH4 0x1F7FDFFA EQ PUSH2 0x2A1 JUMPI PUSH1 0x0 DUP1 REVERT JUMPDEST DUP1 PUSH3 0x66FD0D EQ PUSH2 0x1BA JUMPI DUP1 PUSH3 0xFDD58E EQ PUSH2 0x1DC JUMPI DUP1 PUSH4 0x1FFC9A7 EQ PUSH2 0x20F JUMPI JUMPDEST PUSH1 0x0 DUP1 REVERT JUMPDEST CALLVALUE DUP1 ISZERO PUSH2 0x1C6 JUMPI PUSH1 0x0 DUP1 REVERT JUMPDEST POP PUSH2 0x1DA PUSH2 0x1D5 CALLDATASIZE PUSH1 0x4 PUSH2 0x1903 JUMP JUMPDEST PUSH2 0x59F JUMP JUMPDEST STOP JUMPDEST CALLVALUE DUP1 ISZERO PUSH2 0x1E8 JUMPI PUSH1 0x0 DUP1 REVERT JUMPDEST POP PUSH2 0x1FC PUSH2 0x1F7 CALLDATASIZE PUSH1 0x4 PUSH2 0x1933 JUMP JUMPDEST PUSH2 0x5E2 JUMP JUMPDEST PUSH1 0x40 MLOAD SWAP1 DUP2 MSTORE PUSH1 0x20 ADD JUMPDEST PUSH1 0x40 MLOAD DUP1 SWAP2 SUB SWAP1 RETURN JUMPDEST CALLVALUE DUP1 ISZERO PUSH2 0x21B JUMPI PUSH1 0x0 DUP1 REVERT JUMPDEST POP PUSH2 0x22F PUSH2 0x22A CALLDATASIZE PUSH1 0x4 PUSH2 0x1973 JUMP JUMPDEST PUSH2 0x60A JUMP JUMPDEST PUSH1 0x40 MLOAD SWAP1 ISZERO ISZERO DUP2 MSTORE PUSH1 0x20 ADD PUSH2 0x206 JUMP JUMPDEST CALLVALUE DUP1 ISZERO PUSH2 0x24B JUMPI PUSH1 0x0 DUP1 REVERT JUMPDEST POP PUSH2 0x1DA PUSH2 0x25A CALLDATASIZE PUSH1 0x4 PUSH2 0x1A2F JUMP JUMPDEST PUSH2 0x6A5 JUMP JUMPDEST CALLVALUE DUP1 ISZERO PUSH2 0x26B JUMPI PUSH1 0x0 DUP1 REVERT JUMPDEST POP PUSH2 0x27F PUSH2 0x27A CALLDATASIZE PUSH1 0x4 PUSH2 0x1903 JUMP JUMPDEST PUSH2 0x6B9 JUMP JUMPDEST PUSH1 0x40 MLOAD PUSH2 0x206 SWAP2 SWAP1 PUSH2 0x1AD0 JUMP JUMPDEST CALLVALUE DUP1 ISZERO PUSH2 0x298 JUMPI PUSH1 0x0 DUP1 REVERT JUMPDEST POP PUSH1 0x4 SLOAD PUSH2 0x1FC JUMP JUMPDEST CALLVALUE DUP1 ISZERO PUSH2 0x2AD JUMPI PUSH1 0x0 DUP1 REVERT JUMPDEST POP PUSH2 0x1DA PUSH2 0x2BC CALLDATASIZE PUSH1 0x4 PUSH2 0x1B92 JUMP JUMPDEST PUSH2 0x74D JUMP JUMPDEST CALLVALUE DUP1 ISZERO PUSH2 0x2CD JUMPI PUSH1 0x0 DUP1 REVERT JUMPDEST POP PUSH2 0x1DA PUSH2 0x2DC CALLDATASIZE PUSH1 0x4 PUSH2 0x1C2B JUMP JUMPDEST PUSH2 0x767 JUMP JUMPDEST CALLVALUE DUP1 ISZERO PUSH2 0x2ED JUMPI PUSH1 0x0 DUP1 REVERT JUMPDEST POP PUSH2 0x301 PUSH2 0x2FC CALLDATASIZE PUSH1 0x4 PUSH2 0x1CD5 JUMP JUMPDEST PUSH2 0x7F2 JUMP JUMPDEST PUSH1 0x40 MLOAD PUSH1 0x1 PUSH1 0x1 PUSH1 0xA0 SHL SUB SWAP1 SWAP2 AND DUP2 MSTORE PUSH1 0x20 ADD PUSH2 0x206 JUMP JUMPDEST PUSH2 0x1DA PUSH2 0x82A JUMP JUMPDEST CALLVALUE DUP1 ISZERO PUSH2 0x32D JUMPI PUSH1 0x0 DUP1 REVERT JUMPDEST POP PUSH1 0x6 SLOAD PUSH2 0x1FC JUMP JUMPDEST CALLVALUE DUP1 ISZERO PUSH2 0x342 JUMPI PUSH1 0x0 DUP1 REVERT JUMPDEST POP PUSH2 0x356 PUSH2 0x351 CALLDATASIZE PUSH1 0x4 PUSH2 0x1CF7 JUMP JUMPDEST PUSH2 0x90E JUMP JUMPDEST PUSH1 0x40 MLOAD PUSH2 0x206 SWAP2 SWAP1 PUSH2 0x1DF2 JUMP JUMPDEST CALLVALUE DUP1 ISZERO PUSH2 0x36F JUMPI PUSH1 0x0 DUP1 REVERT JUMPDEST POP PUSH2 0x22F PUSH2 0x37E CALLDATASIZE PUSH1 0x4 PUSH2 0x1903 JUMP JUMPDEST PUSH1 0x0 SWAP1 DUP2 MSTORE PUSH1 0x3 PUSH1 0x20 MSTORE PUSH1 0x40 SWAP1 KECCAK256 SLOAD ISZERO ISZERO SWAP1 JUMP JUMPDEST CALLVALUE DUP1 ISZERO PUSH2 0x39E JUMPI PUSH1 0x0 DUP1 REVERT JUMPDEST POP PUSH2 0x1DA PUSH2 0x9E3 JUMP JUMPDEST CALLVALUE DUP1 ISZERO PUSH2 0x3B3 JUMPI PUSH1 0x0 DUP1 REVERT JUMPDEST POP PUSH2 0x1DA PUSH2 0x3C2 CALLDATASIZE PUSH1 0x4 PUSH2 0x1E05 JUMP JUMPDEST PUSH2 0x9F7 JUMP JUMPDEST CALLVALUE DUP1 ISZERO PUSH2 0x3D3 JUMPI PUSH1 0x0 DUP1 REVERT JUMPDEST POP PUSH1 0x5 SLOAD PUSH1 0x1 PUSH1 0x1 PUSH1 0xA0 SHL SUB AND PUSH2 0x301 JUMP JUMPDEST CALLVALUE DUP1 ISZERO PUSH2 0x3F1 JUMPI PUSH1 0x0 DUP1 REVERT JUMPDEST POP PUSH2 0x1FC PUSH1 0x6 SLOAD DUP2 JUMP JUMPDEST CALLVALUE DUP1 ISZERO PUSH2 0x407 JUMPI PUSH1 0x0 DUP1 REVERT JUMPDEST POP PUSH2 0x356 PUSH2 0x416 CALLDATASIZE PUSH1 0x4 PUSH2 0x1E5A JUMP JUMPDEST PUSH2 0xA0B JUMP JUMPDEST CALLVALUE DUP1 ISZERO PUSH2 0x427 JUMPI PUSH1 0x0 DUP1 REVERT JUMPDEST POP PUSH2 0x1DA PUSH2 0x436 CALLDATASIZE PUSH1 0x4 PUSH2 0x1E75 JUMP JUMPDEST PUSH2 0xAC0 JUMP JUMPDEST CALLVALUE DUP1 ISZERO PUSH2 0x447 JUMPI PUSH1 0x0 DUP1 REVERT JUMPDEST POP PUSH2 0x1FC PUSH1 0x7 SLOAD DUP2 JUMP JUMPDEST CALLVALUE DUP1 ISZERO PUSH2 0x45D JUMPI PUSH1 0x0 DUP1 REVERT JUMPDEST POP PUSH2 0x1FC PUSH2 0x46C CALLDATASIZE PUSH1 0x4 PUSH2 0x1903 JUMP JUMPDEST PUSH1 0x0 SWAP1 DUP2 MSTORE PUSH1 0x3 PUSH1 0x20 MSTORE PUSH1 0x40 SWAP1 KECCAK256 SLOAD SWAP1 JUMP JUMPDEST CALLVALUE DUP1 ISZERO PUSH2 0x48A JUMPI PUSH1 0x0 DUP1 REVERT JUMPDEST POP PUSH2 0x1FC PUSH2 0x499 CALLDATASIZE PUSH1 0x4 PUSH2 0x1EB1 JUMP JUMPDEST PUSH2 0xACF JUMP JUMPDEST CALLVALUE DUP1 ISZERO PUSH2 0x4AA JUMPI PUSH1 0x0 DUP1 REVERT JUMPDEST POP PUSH2 0x27F PUSH2 0x4B9 CALLDATASIZE PUSH1 0x4 PUSH2 0x1903 JUMP JUMPDEST PUSH2 0xAE2 JUMP JUMPDEST CALLVALUE DUP1 ISZERO PUSH2 0x4CA JUMPI PUSH1 0x0 DUP1 REVERT JUMPDEST POP PUSH2 0x22F PUSH2 0x4D9 CALLDATASIZE PUSH1 0x4 PUSH2 0x1EDD JUMP JUMPDEST PUSH1 0x1 PUSH1 0x1 PUSH1 0xA0 SHL SUB SWAP2 DUP3 AND PUSH1 0x0 SWAP1 DUP2 MSTORE PUSH1 0x1 PUSH1 0x20 SWAP1 DUP2 MSTORE PUSH1 0x40 DUP1 DUP4 KECCAK256 SWAP4 SWAP1 SWAP5 AND DUP3 MSTORE SWAP2 SWAP1 SWAP2 MSTORE KECCAK256 SLOAD PUSH1 0xFF AND SWAP1 JUMP JUMPDEST CALLVALUE DUP1 ISZERO PUSH2 0x513 JUMPI PUSH1 0x0 DUP1 REVERT JUMPDEST POP PUSH2 0x1FC PUSH2 0x522 CALLDATASIZE PUSH1 0x4 PUSH2 0x1EB1 JUMP JUMPDEST PUSH1 0x8 PUSH1 0x20 SWAP1 DUP2 MSTORE PUSH1 0x0 SWAP3 DUP4 MSTORE PUSH1 0x40 DUP1 DUP5 KECCAK256 SWAP1 SWAP2 MSTORE SWAP1 DUP3 MSTORE SWAP1 KECCAK256 SLOAD DUP2 JUMP JUMPDEST CALLVALUE DUP1 ISZERO PUSH2 0x54B JUMPI PUSH1 0x0 DUP1 REVERT JUMPDEST POP PUSH2 0x1DA PUSH2 0x55A CALLDATASIZE PUSH1 0x4 PUSH2 0x1F07 JUMP JUMPDEST PUSH2 0xB13 JUMP JUMPDEST CALLVALUE DUP1 ISZERO PUSH2 0x56B JUMPI PUSH1 0x0 DUP1 REVERT JUMPDEST POP PUSH2 0x1DA PUSH2 0x57A CALLDATASIZE PUSH1 0x4 PUSH2 0x1E5A JUMP JUMPDEST PUSH2 0xB91 JUMP JUMPDEST CALLVALUE DUP1 ISZERO PUSH2 0x58B JUMPI PUSH1 0x0 DUP1 REVERT JUMPDEST POP PUSH2 0x1DA PUSH2 0x59A CALLDATASIZE PUSH1 0x4 PUSH2 0x1F6C JUMP JUMPDEST PUSH2 0xBE5 JUMP JUMPDEST PUSH2 0x5A7 PUSH2 0xBF5 JUMP JUMPDEST PUSH1 0x6 DUP2 SWAP1 SSTORE PUSH1 0x40 MLOAD DUP2 DUP2 MSTORE PUSH32 0x2CA7491C41B198F60823C9DA02CA440DCA6BFB5D6CD4AE0DF705CC35DE252FB3 SWAP1 PUSH1 0x20 ADD PUSH1 0x40 MLOAD DUP1 SWAP2 SUB SWAP1 LOG1 POP JUMP JUMPDEST PUSH1 0x0 DUP2 DUP2 MSTORE PUSH1 0x20 DUP2 DUP2 MSTORE PUSH1 0x40 DUP1 DUP4 KECCAK256 PUSH1 0x1 PUSH1 0x1 PUSH1 0xA0 SHL SUB DUP7 AND DUP5 MSTORE SWAP1 SWAP2 MSTORE SWAP1 KECCAK256 SLOAD JUMPDEST SWAP3 SWAP2 POP POP JUMP JUMPDEST PUSH1 0x0 PUSH1 0x1 PUSH1 0x1 PUSH1 0xE0 SHL SUB NOT DUP3 AND PUSH32 0xD9B67A2600000000000000000000000000000000000000000000000000000000 EQ DUP1 PUSH2 0x66D JUMPI POP PUSH1 0x1 PUSH1 0x1 PUSH1 0xE0 SHL SUB NOT DUP3 AND PUSH32 0xE89341C00000000000000000000000000000000000000000000000000000000 EQ JUMPDEST DUP1 PUSH2 0x604 JUMPI POP PUSH32 0x1FFC9A700000000000000000000000000000000000000000000000000000000 PUSH1 0x1 PUSH1 0x1 PUSH1 0xE0 SHL SUB NOT DUP4 AND EQ PUSH2 0x604 JUMP JUMPDEST PUSH2 0x6AD PUSH2 0xBF5 JUMP JUMPDEST PUSH2 0x6B6 DUP2 PUSH2 0xC3B JUMP JUMPDEST POP JUMP JUMPDEST PUSH1 0x60 PUSH1 0x2 DUP1 SLOAD PUSH2 0x6C8 SWAP1 PUSH2 0x1F9F JUMP JUMPDEST DUP1 PUSH1 0x1F ADD PUSH1 0x20 DUP1 SWAP2 DIV MUL PUSH1 0x20 ADD PUSH1 0x40 MLOAD SWAP1 DUP2 ADD PUSH1 0x40 MSTORE DUP1 SWAP3 SWAP2 SWAP1 DUP2 DUP2 MSTORE PUSH1 0x20 ADD DUP3 DUP1 SLOAD PUSH2 0x6F4 SWAP1 PUSH2 0x1F9F JUMP JUMPDEST DUP1 ISZERO PUSH2 0x741 JUMPI DUP1 PUSH1 0x1F LT PUSH2 0x716 JUMPI PUSH2 0x100 DUP1 DUP4 SLOAD DIV MUL DUP4 MSTORE SWAP2 PUSH1 0x20 ADD SWAP2 PUSH2 0x741 JUMP JUMPDEST DUP3 ADD SWAP2 SWAP1 PUSH1 0x0 MSTORE PUSH1 0x20 PUSH1 0x0 KECCAK256 SWAP1 JUMPDEST DUP2 SLOAD DUP2 MSTORE SWAP1 PUSH1 0x1 ADD SWAP1 PUSH1 0x20 ADD DUP1 DUP4 GT PUSH2 0x724 JUMPI DUP3 SWAP1 SUB PUSH1 0x1F AND DUP3 ADD SWAP2 JUMPDEST POP POP POP POP POP SWAP1 POP SWAP2 SWAP1 POP JUMP JUMPDEST PUSH2 0x755 PUSH2 0xBF5 JUMP JUMPDEST PUSH2 0x761 DUP5 DUP5 DUP5 DUP5 PUSH2 0xC47 JUMP JUMPDEST POP POP POP POP JUMP JUMPDEST CALLER PUSH1 0x1 PUSH1 0x1 PUSH1 0xA0 SHL SUB DUP7 AND DUP2 EQ DUP1 ISZERO SWAP1 PUSH2 0x7A7 JUMPI POP PUSH1 0x1 PUSH1 0x1 PUSH1 0xA0 SHL SUB DUP1 DUP8 AND PUSH1 0x0 SWAP1 DUP2 MSTORE PUSH1 0x1 PUSH1 0x20 SWAP1 DUP2 MSTORE PUSH1 0x40 DUP1 DUP4 KECCAK256 SWAP4 DUP6 AND DUP4 MSTORE SWAP3 SWAP1 MSTORE KECCAK256 SLOAD PUSH1 0xFF AND ISZERO JUMPDEST ISZERO PUSH2 0x7DD JUMPI PUSH1 0x40 MLOAD PUSH4 0x711BEC91 PUSH1 0xE1 SHL DUP2 MSTORE PUSH1 0x1 PUSH1 0x1 PUSH1 0xA0 SHL SUB DUP1 DUP4 AND PUSH1 0x4 DUP4 ADD MSTORE DUP8 AND PUSH1 0x24 DUP3 ADD MSTORE PUSH1 0x44 ADD JUMPDEST PUSH1 0x40 MLOAD DUP1 SWAP2 SUB SWAP1 REVERT JUMPDEST PUSH2 0x7EA DUP7 DUP7 DUP7 DUP7 DUP7 PUSH2 0xC7F JUMP JUMPDEST POP POP POP POP POP POP JUMP JUMPDEST PUSH1 0x9 PUSH1 0x20 MSTORE DUP2 PUSH1 0x0 MSTORE PUSH1 0x40 PUSH1 0x0 KECCAK256 DUP2 DUP2 SLOAD DUP2 LT PUSH2 0x80E JUMPI PUSH1 0x0 DUP1 REVERT JUMPDEST PUSH1 0x0 SWAP2 DUP3 MSTORE PUSH1 0x20 SWAP1 SWAP2 KECCAK256 ADD SLOAD PUSH1 0x1 PUSH1 0x1 PUSH1 0xA0 SHL SUB AND SWAP2 POP DUP3 SWAP1 POP JUMP JUMPDEST CALLVALUE PUSH5 0xE8D4A51000 EQ PUSH2 0x8BE JUMPI PUSH1 0x40 MLOAD PUSH32 0x8C379A000000000000000000000000000000000000000000000000000000000 DUP2 MSTORE PUSH1 0x20 PUSH1 0x4 DUP3 ADD MSTORE PUSH1 0x2D PUSH1 0x24 DUP3 ADD MSTORE PUSH32 0x596F75206E65656420746F2070617920302E3030303030312065746865722074 PUSH1 0x44 DUP3 ADD MSTORE PUSH32 0x6F206F70656E2061207061636B00000000000000000000000000000000000000 PUSH1 0x64 DUP3 ADD MSTORE PUSH1 0x84 ADD PUSH2 0x7D4 JUMP JUMPDEST PUSH1 0x0 PUSH2 0x8C8 PUSH2 0xCDF JUMP JUMPDEST SWAP1 POP PUSH1 0x0 PUSH2 0x8D5 DUP3 PUSH2 0xD30 JUMP JUMPDEST SWAP1 POP PUSH1 0x0 PUSH2 0x8E1 PUSH2 0xD75 JUMP JUMPDEST SWAP1 POP PUSH1 0x0 PUSH2 0x8EE DUP3 PUSH2 0xDC5 JUMP JUMPDEST SWAP1 POP PUSH1 0x0 PUSH2 0x8FC DUP5 DUP4 PUSH2 0x1FEF JUMP JUMPDEST SWAP1 POP PUSH2 0x907 DUP2 PUSH2 0xE02 JUMP JUMPDEST POP POP POP POP POP JUMP JUMPDEST PUSH1 0x60 DUP2 MLOAD DUP4 MLOAD EQ PUSH2 0x93F JUMPI DUP2 MLOAD DUP4 MLOAD PUSH1 0x40 MLOAD PUSH4 0x5B059991 PUSH1 0xE0 SHL DUP2 MSTORE PUSH1 0x4 DUP2 ADD SWAP3 SWAP1 SWAP3 MSTORE PUSH1 0x24 DUP3 ADD MSTORE PUSH1 0x44 ADD PUSH2 0x7D4 JUMP JUMPDEST PUSH1 0x0 DUP4 MLOAD PUSH8 0xFFFFFFFFFFFFFFFF DUP2 GT ISZERO PUSH2 0x95B JUMPI PUSH2 0x95B PUSH2 0x1990 JUMP JUMPDEST PUSH1 0x40 MLOAD SWAP1 DUP1 DUP3 MSTORE DUP1 PUSH1 0x20 MUL PUSH1 0x20 ADD DUP3 ADD PUSH1 0x40 MSTORE DUP1 ISZERO PUSH2 0x984 JUMPI DUP2 PUSH1 0x20 ADD PUSH1 0x20 DUP3 MUL DUP1 CALLDATASIZE DUP4 CALLDATACOPY ADD SWAP1 POP JUMPDEST POP SWAP1 POP PUSH1 0x0 JUMPDEST DUP5 MLOAD DUP2 LT ISZERO PUSH2 0x9DB JUMPI PUSH1 0x20 DUP1 DUP3 MUL DUP7 ADD ADD MLOAD PUSH2 0x9AE SWAP1 PUSH1 0x20 DUP1 DUP5 MUL DUP8 ADD ADD MLOAD PUSH2 0x5E2 JUMP JUMPDEST DUP3 DUP3 DUP2 MLOAD DUP2 LT PUSH2 0x9C0 JUMPI PUSH2 0x9C0 PUSH2 0x2002 JUMP JUMPDEST PUSH1 0x20 SWAP1 DUP2 MUL SWAP2 SWAP1 SWAP2 ADD ADD MSTORE PUSH2 0x9D4 DUP2 PUSH2 0x2018 JUMP JUMPDEST SWAP1 POP PUSH2 0x98A JUMP JUMPDEST POP SWAP4 SWAP3 POP POP POP JUMP JUMPDEST PUSH2 0x9EB PUSH2 0xBF5 JUMP JUMPDEST PUSH2 0x9F5 PUSH1 0x0 PUSH2 0xF08 JUMP JUMPDEST JUMP JUMPDEST PUSH2 0x9FF PUSH2 0xBF5 JUMP JUMPDEST PUSH2 0x761 DUP5 DUP5 DUP5 DUP5 PUSH2 0xF67 JUMP JUMPDEST PUSH1 0x60 PUSH1 0x0 PUSH1 0x6 SLOAD PUSH8 0xFFFFFFFFFFFFFFFF DUP2 GT ISZERO PUSH2 0xA2A JUMPI PUSH2 0xA2A PUSH2 0x1990 JUMP JUMPDEST PUSH1 0x40 MLOAD SWAP1 DUP1 DUP3 MSTORE DUP1 PUSH1 0x20 MUL PUSH1 0x20 ADD DUP3 ADD PUSH1 0x40 MSTORE DUP1 ISZERO PUSH2 0xA53 JUMPI DUP2 PUSH1 0x20 ADD PUSH1 0x20 DUP3 MUL DUP1 CALLDATASIZE DUP4 CALLDATACOPY ADD SWAP1 POP JUMPDEST POP SWAP1 POP PUSH1 0x1 JUMPDEST PUSH1 0x6 SLOAD DUP2 GT PUSH2 0xAB9 JUMPI PUSH1 0x0 PUSH2 0xA6E DUP6 DUP4 PUSH2 0x5E2 JUMP JUMPDEST GT ISZERO PUSH2 0xAA7 JUMPI PUSH2 0xA7E DUP5 DUP3 PUSH2 0x5E2 JUMP JUMPDEST DUP3 PUSH2 0xA8A PUSH1 0x1 DUP5 PUSH2 0x2031 JUMP JUMPDEST DUP2 MLOAD DUP2 LT PUSH2 0xA9A JUMPI PUSH2 0xA9A PUSH2 0x2002 JUMP JUMPDEST PUSH1 0x20 MUL PUSH1 0x20 ADD ADD DUP2 DUP2 MSTORE POP POP JUMPDEST DUP1 PUSH2 0xAB1 DUP2 PUSH2 0x2018 JUMP JUMPDEST SWAP2 POP POP PUSH2 0xA59 JUMP JUMPDEST POP SWAP3 SWAP2 POP POP JUMP JUMPDEST PUSH2 0xACB CALLER DUP4 DUP4 PUSH2 0xFC4 JUMP JUMPDEST POP POP JUMP JUMPDEST PUSH1 0x0 PUSH2 0xADB DUP3 DUP5 PUSH2 0x5E2 JUMP JUMPDEST SWAP4 SWAP3 POP POP POP JUMP JUMPDEST PUSH1 0x60 PUSH2 0xAED DUP3 PUSH2 0x1074 JUMP JUMPDEST PUSH1 0x40 MLOAD PUSH1 0x20 ADD PUSH2 0xAFD SWAP2 SWAP1 PUSH2 0x2044 JUMP JUMPDEST PUSH1 0x40 MLOAD PUSH1 0x20 DUP2 DUP4 SUB SUB DUP2 MSTORE SWAP1 PUSH1 0x40 MSTORE SWAP1 POP SWAP2 SWAP1 POP JUMP JUMPDEST CALLER PUSH1 0x1 PUSH1 0x1 PUSH1 0xA0 SHL SUB DUP7 AND DUP2 EQ DUP1 ISZERO SWAP1 PUSH2 0xB53 JUMPI POP PUSH1 0x1 PUSH1 0x1 PUSH1 0xA0 SHL SUB DUP1 DUP8 AND PUSH1 0x0 SWAP1 DUP2 MSTORE PUSH1 0x1 PUSH1 0x20 SWAP1 DUP2 MSTORE PUSH1 0x40 DUP1 DUP4 KECCAK256 SWAP4 DUP6 AND DUP4 MSTORE SWAP3 SWAP1 MSTORE KECCAK256 SLOAD PUSH1 0xFF AND ISZERO JUMPDEST ISZERO PUSH2 0xB84 JUMPI PUSH1 0x40 MLOAD PUSH4 0x711BEC91 PUSH1 0xE1 SHL DUP2 MSTORE PUSH1 0x1 PUSH1 0x1 PUSH1 0xA0 SHL SUB DUP1 DUP4 AND PUSH1 0x4 DUP4 ADD MSTORE DUP8 AND PUSH1 0x24 DUP3 ADD MSTORE PUSH1 0x44 ADD PUSH2 0x7D4 JUMP JUMPDEST PUSH2 0x7EA DUP7 DUP7 DUP7 DUP7 DUP7 PUSH2 0x1114 JUMP JUMPDEST PUSH2 0xB99 PUSH2 0xBF5 JUMP JUMPDEST PUSH1 0x1 PUSH1 0x1 PUSH1 0xA0 SHL SUB DUP2 AND PUSH2 0xBDC JUMPI PUSH1 0x40 MLOAD PUSH32 0x1E4FBDF700000000000000000000000000000000000000000000000000000000 DUP2 MSTORE PUSH1 0x0 PUSH1 0x4 DUP3 ADD MSTORE PUSH1 0x24 ADD PUSH2 0x7D4 JUMP JUMPDEST PUSH2 0x6B6 DUP2 PUSH2 0xF08 JUMP JUMPDEST PUSH2 0xBF0 DUP4 DUP4 DUP4 PUSH2 0x11A2 JUMP JUMPDEST POP POP POP JUMP JUMPDEST PUSH1 0x5 SLOAD PUSH1 0x1 PUSH1 0x1 PUSH1 0xA0 SHL SUB AND CALLER EQ PUSH2 0x9F5 JUMPI PUSH1 0x40 MLOAD PUSH32 0x118CDAA700000000000000000000000000000000000000000000000000000000 DUP2 MSTORE CALLER PUSH1 0x4 DUP3 ADD MSTORE PUSH1 0x24 ADD PUSH2 0x7D4 JUMP JUMPDEST PUSH1 0x2 PUSH2 0xACB DUP3 DUP3 PUSH2 0x20F5 JUMP JUMPDEST PUSH1 0x1 PUSH1 0x1 PUSH1 0xA0 SHL SUB DUP5 AND PUSH2 0xC71 JUMPI PUSH1 0x40 MLOAD PUSH4 0x2BFA23E7 PUSH1 0xE1 SHL DUP2 MSTORE PUSH1 0x0 PUSH1 0x4 DUP3 ADD MSTORE PUSH1 0x24 ADD PUSH2 0x7D4 JUMP JUMPDEST PUSH2 0x761 PUSH1 0x0 DUP6 DUP6 DUP6 DUP6 PUSH2 0x1206 JUMP JUMPDEST PUSH1 0x1 PUSH1 0x1 PUSH1 0xA0 SHL SUB DUP5 AND PUSH2 0xCA9 JUMPI PUSH1 0x40 MLOAD PUSH4 0x2BFA23E7 PUSH1 0xE1 SHL DUP2 MSTORE PUSH1 0x0 PUSH1 0x4 DUP3 ADD MSTORE PUSH1 0x24 ADD PUSH2 0x7D4 JUMP JUMPDEST PUSH1 0x1 PUSH1 0x1 PUSH1 0xA0 SHL SUB DUP6 AND PUSH2 0xCD2 JUMPI PUSH1 0x40 MLOAD PUSH3 0x6A0D45 PUSH1 0xE2 SHL DUP2 MSTORE PUSH1 0x0 PUSH1 0x4 DUP3 ADD MSTORE PUSH1 0x24 ADD PUSH2 0x7D4 JUMP JUMPDEST PUSH2 0x907 DUP6 DUP6 DUP6 DUP6 DUP6 PUSH2 0x1206 JUMP JUMPDEST PUSH1 0x40 DUP1 MLOAD TIMESTAMP PUSH1 0x20 DUP3 ADD MSTORE PUSH12 0xFFFFFFFFFFFFFFFFFFFFFFFF NOT CALLER PUSH1 0x60 SHL AND SWAP2 DUP2 ADD SWAP2 SWAP1 SWAP2 MSTORE PREVRANDAO PUSH1 0x54 DUP3 ADD MSTORE PUSH1 0x0 SWAP1 DUP2 SWAP1 PUSH1 0x74 ADD JUMPDEST PUSH1 0x40 DUP1 MLOAD PUSH1 0x1F NOT DUP2 DUP5 SUB ADD DUP2 MSTORE SWAP2 SWAP1 MSTORE DUP1 MLOAD PUSH1 0x20 SWAP1 SWAP2 ADD KECCAK256 SWAP3 SWAP2 POP POP JUMP JUMPDEST PUSH1 0x0 PUSH1 0x14 PUSH2 0xD3F PUSH1 0x64 DUP5 PUSH2 0x21CB JUMP JUMPDEST LT ISZERO PUSH2 0xD4D JUMPI POP PUSH1 0x2 SWAP2 SWAP1 POP JUMP JUMPDEST PUSH1 0x32 PUSH2 0xD5A PUSH1 0x64 DUP5 PUSH2 0x21CB JUMP JUMPDEST LT ISZERO PUSH2 0xD68 JUMPI POP PUSH1 0x1 SWAP2 SWAP1 POP JUMP JUMPDEST POP PUSH1 0x0 SWAP2 SWAP1 POP JUMP JUMPDEST SWAP2 SWAP1 POP JUMP JUMPDEST PUSH1 0x7 DUP1 SLOAD PUSH1 0x0 SWAP2 DUP3 PUSH2 0xD86 DUP4 PUSH2 0x2018 JUMP JUMPDEST SWAP1 SWAP2 SSTORE POP POP PUSH1 0x7 SLOAD PUSH1 0x40 DUP1 MLOAD TIMESTAMP PUSH1 0x20 DUP3 ADD MSTORE PUSH12 0xFFFFFFFFFFFFFFFFFFFFFFFF NOT CALLER PUSH1 0x60 SHL AND SWAP2 DUP2 ADD SWAP2 SWAP1 SWAP2 MSTORE PUSH1 0x54 DUP2 ADD SWAP2 SWAP1 SWAP2 MSTORE PUSH1 0x0 SWAP1 PUSH1 0x74 ADD PUSH2 0xD12 JUMP JUMPDEST PUSH1 0x0 PUSH1 0x2 PUSH1 0x3 PUSH1 0x6 SLOAD PUSH2 0xDD8 SWAP2 SWAP1 PUSH2 0x21DF JUMP JUMPDEST PUSH2 0xDE2 SWAP1 DUP5 PUSH2 0x21CB JUMP JUMPDEST PUSH2 0xDED SWAP1 PUSH1 0x1 PUSH2 0x1FEF JUMP JUMPDEST PUSH2 0xDF8 SWAP1 PUSH1 0x3 PUSH2 0x21F3 JUMP JUMPDEST PUSH2 0x604 SWAP2 SWAP1 PUSH2 0x2031 JUMP JUMPDEST PUSH2 0xE1E CALLER DUP3 PUSH1 0x1 PUSH1 0x40 MLOAD DUP1 PUSH1 0x20 ADD PUSH1 0x40 MSTORE DUP1 PUSH1 0x0 DUP2 MSTORE POP PUSH2 0xF67 JUMP JUMPDEST PUSH1 0x0 DUP2 DUP2 MSTORE PUSH1 0x8 PUSH1 0x20 SWAP1 DUP2 MSTORE PUSH1 0x40 DUP1 DUP4 KECCAK256 CALLER DUP5 MSTORE SWAP1 SWAP2 MSTORE SWAP1 KECCAK256 SLOAD PUSH2 0xE43 SWAP1 PUSH1 0x1 PUSH2 0x1259 JUMP JUMPDEST PUSH1 0x0 DUP3 DUP2 MSTORE PUSH1 0x8 PUSH1 0x20 SWAP1 DUP2 MSTORE PUSH1 0x40 DUP1 DUP4 KECCAK256 CALLER DUP5 MSTORE SWAP1 SWAP2 MSTORE DUP2 KECCAK256 SWAP2 SWAP1 SWAP2 SSTORE JUMPDEST PUSH1 0x0 DUP3 DUP2 MSTORE PUSH1 0x9 PUSH1 0x20 MSTORE PUSH1 0x40 SWAP1 KECCAK256 SLOAD DUP2 LT ISZERO PUSH2 0xECA JUMPI PUSH1 0x0 DUP3 DUP2 MSTORE PUSH1 0x9 PUSH1 0x20 MSTORE PUSH1 0x40 SWAP1 KECCAK256 DUP1 SLOAD CALLER SWAP2 SWAP1 DUP4 SWAP1 DUP2 LT PUSH2 0xE9A JUMPI PUSH2 0xE9A PUSH2 0x2002 JUMP JUMPDEST PUSH1 0x0 SWAP2 DUP3 MSTORE PUSH1 0x20 SWAP1 SWAP2 KECCAK256 ADD SLOAD PUSH1 0x1 PUSH1 0x1 PUSH1 0xA0 SHL SUB AND SUB PUSH2 0xEB8 JUMPI POP POP JUMP JUMPDEST DUP1 PUSH2 0xEC2 DUP2 PUSH2 0x2018 JUMP JUMPDEST SWAP2 POP POP PUSH2 0xE61 JUMP JUMPDEST POP PUSH1 0x0 SWAP1 DUP2 MSTORE PUSH1 0x9 PUSH1 0x20 SWAP1 DUP2 MSTORE PUSH1 0x40 DUP3 KECCAK256 DUP1 SLOAD PUSH1 0x1 DUP2 ADD DUP3 SSTORE SWAP1 DUP4 MSTORE SWAP2 KECCAK256 ADD DUP1 SLOAD PUSH20 0xFFFFFFFFFFFFFFFFFFFFFFFFFFFFFFFFFFFFFFFF NOT AND CALLER OR SWAP1 SSTORE JUMP JUMPDEST PUSH1 0x5 DUP1 SLOAD PUSH1 0x1 PUSH1 0x1 PUSH1 0xA0 SHL SUB DUP4 DUP2 AND PUSH20 0xFFFFFFFFFFFFFFFFFFFFFFFFFFFFFFFFFFFFFFFF NOT DUP4 AND DUP2 OR SWAP1 SWAP4 SSTORE PUSH1 0x40 MLOAD SWAP2 AND SWAP2 SWAP1 DUP3 SWAP1 PUSH32 0x8BE0079C531659141344CD1FD0A4F28419497F9722A3DAAFE3B4186F6B6457E0 SWAP1 PUSH1 0x0 SWAP1 LOG3 POP POP JUMP JUMPDEST PUSH1 0x1 PUSH1 0x1 PUSH1 0xA0 SHL SUB DUP5 AND PUSH2 0xF91 JUMPI PUSH1 0x40 MLOAD PUSH4 0x2BFA23E7 PUSH1 0xE1 SHL DUP2 MSTORE PUSH1 0x0 PUSH1 0x4 DUP3 ADD MSTORE PUSH1 0x24 ADD PUSH2 0x7D4 JUMP JUMPDEST PUSH1 0x40 DUP1 MLOAD PUSH1 0x1 DUP1 DUP3 MSTORE PUSH1 0x20 DUP3 ADD DUP7 SWAP1 MSTORE DUP2 DUP4 ADD SWAP1 DUP2 MSTORE PUSH1 0x60 DUP3 ADD DUP6 SWAP1 MSTORE PUSH1 0x80 DUP3 ADD SWAP1 SWAP3 MSTORE SWAP1 PUSH2 0x7EA PUSH1 0x0 DUP8 DUP5 DUP5 DUP8 PUSH2 0x1206 JUMP JUMPDEST PUSH1 0x1 PUSH1 0x1 PUSH1 0xA0 SHL SUB DUP3 AND PUSH2 0x1007 JUMPI PUSH1 0x40 MLOAD PUSH32 0xCED3E10000000000000000000000000000000000000000000000000000000000 DUP2 MSTORE PUSH1 0x0 PUSH1 0x4 DUP3 ADD MSTORE PUSH1 0x24 ADD PUSH2 0x7D4 JUMP JUMPDEST PUSH1 0x1 PUSH1 0x1 PUSH1 0xA0 SHL SUB DUP4 DUP2 AND PUSH1 0x0 DUP2 DUP2 MSTORE PUSH1 0x1 PUSH1 0x20 SWAP1 DUP2 MSTORE PUSH1 0x40 DUP1 DUP4 KECCAK256 SWAP5 DUP8 AND DUP1 DUP5 MSTORE SWAP5 DUP3 MSTORE SWAP2 DUP3 SWAP1 KECCAK256 DUP1 SLOAD PUSH1 0xFF NOT AND DUP7 ISZERO ISZERO SWAP1 DUP2 OR SWAP1 SWAP2 SSTORE SWAP2 MLOAD SWAP2 DUP3 MSTORE PUSH32 0x17307EAB39AB6107E8899845AD3D59BD9653F200F220920489CA2B5937696C31 SWAP2 ADD PUSH1 0x40 MLOAD DUP1 SWAP2 SUB SWAP1 LOG3 POP POP POP JUMP JUMPDEST PUSH1 0x60 PUSH1 0x0 PUSH2 0x1081 DUP4 PUSH2 0x1278 JUMP JUMPDEST PUSH1 0x1 ADD SWAP1 POP PUSH1 0x0 DUP2 PUSH8 0xFFFFFFFFFFFFFFFF DUP2 GT ISZERO PUSH2 0x10A1 JUMPI PUSH2 0x10A1 PUSH2 0x1990 JUMP JUMPDEST PUSH1 0x40 MLOAD SWAP1 DUP1 DUP3 MSTORE DUP1 PUSH1 0x1F ADD PUSH1 0x1F NOT AND PUSH1 0x20 ADD DUP3 ADD PUSH1 0x40 MSTORE DUP1 ISZERO PUSH2 0x10CB JUMPI PUSH1 0x20 DUP3 ADD DUP2 DUP1 CALLDATASIZE DUP4 CALLDATACOPY ADD SWAP1 POP JUMPDEST POP SWAP1 POP DUP2 DUP2 ADD PUSH1 0x20 ADD JUMPDEST PUSH1 0x0 NOT ADD PUSH32 0x3031323334353637383961626364656600000000000000000000000000000000 PUSH1 0xA DUP7 MOD BYTE DUP2 MSTORE8 PUSH1 0xA DUP6 DIV SWAP5 POP DUP5 PUSH2 0x10D5 JUMPI POP SWAP4 SWAP3 POP POP POP JUMP JUMPDEST PUSH1 0x1 PUSH1 0x1 PUSH1 0xA0 SHL SUB DUP5 AND PUSH2 0x113E JUMPI PUSH1 0x40 MLOAD PUSH4 0x2BFA23E7 PUSH1 0xE1 SHL DUP2 MSTORE PUSH1 0x0 PUSH1 0x4 DUP3 ADD MSTORE PUSH1 0x24 ADD PUSH2 0x7D4 JUMP JUMPDEST PUSH1 0x1 PUSH1 0x1 PUSH1 0xA0 SHL SUB DUP6 AND PUSH2 0x1167 JUMPI PUSH1 0x40 MLOAD PUSH3 0x6A0D45 PUSH1 0xE2 SHL DUP2 MSTORE PUSH1 0x0 PUSH1 0x4 DUP3 ADD MSTORE PUSH1 0x24 ADD PUSH2 0x7D4 JUMP JUMPDEST PUSH1 0x40 DUP1 MLOAD PUSH1 0x1 DUP1 DUP3 MSTORE PUSH1 0x20 DUP3 ADD DUP7 SWAP1 MSTORE DUP2 DUP4 ADD SWAP1 DUP2 MSTORE PUSH1 0x60 DUP3 ADD DUP6 SWAP1 MSTORE PUSH1 0x80 DUP3 ADD SWAP1 SWAP3 MSTORE SWAP1 PUSH2 0x1199 DUP8 DUP8 DUP5 DUP5 DUP8 PUSH2 0x1206 JUMP JUMPDEST POP POP POP POP POP POP POP JUMP JUMPDEST PUSH1 0x1 PUSH1 0x1 PUSH1 0xA0 SHL SUB DUP4 AND PUSH2 0x11CB JUMPI PUSH1 0x40 MLOAD PUSH3 0x6A0D45 PUSH1 0xE2 SHL DUP2 MSTORE PUSH1 0x0 PUSH1 0x4 DUP3 ADD MSTORE PUSH1 0x24 ADD PUSH2 0x7D4 JUMP JUMPDEST PUSH1 0x40 DUP1 MLOAD PUSH1 0x1 DUP1 DUP3 MSTORE PUSH1 0x20 DUP3 ADD DUP6 SWAP1 MSTORE DUP2 DUP4 ADD SWAP1 DUP2 MSTORE PUSH1 0x60 DUP3 ADD DUP5 SWAP1 MSTORE PUSH1 0xA0 DUP3 ADD SWAP1 SWAP3 MSTORE PUSH1 0x0 PUSH1 0x80 DUP3 ADD DUP2 DUP2 MSTORE SWAP2 SWAP3 SWAP2 PUSH2 0x907 SWAP2 DUP8 SWAP2 DUP6 SWAP1 DUP6 SWAP1 JUMPDEST PUSH2 0x1212 DUP6 DUP6 DUP6 DUP6 PUSH2 0x135A JUMP JUMPDEST PUSH1 0x1 PUSH1 0x1 PUSH1 0xA0 SHL SUB DUP5 AND ISZERO PUSH2 0x907 JUMPI DUP3 MLOAD CALLER SWAP1 PUSH1 0x1 SUB PUSH2 0x124B JUMPI PUSH1 0x20 DUP5 DUP2 ADD MLOAD SWAP1 DUP5 ADD MLOAD PUSH2 0x1244 DUP4 DUP10 DUP10 DUP6 DUP6 DUP10 PUSH2 0x1366 JUMP JUMPDEST POP POP PUSH2 0x7EA JUMP JUMPDEST PUSH2 0x7EA DUP2 DUP8 DUP8 DUP8 DUP8 DUP8 PUSH2 0x148A JUMP JUMPDEST PUSH1 0x0 DUP1 PUSH2 0x1266 DUP4 DUP6 PUSH2 0x1FEF JUMP JUMPDEST SWAP1 POP DUP4 DUP2 LT ISZERO PUSH2 0xADB JUMPI PUSH2 0xADB PUSH2 0x220A JUMP JUMPDEST PUSH1 0x0 DUP1 PUSH27 0x184F03E93FF9F4DAA797ED6E38ED64BF6A1F010000000000000000 DUP4 LT PUSH2 0x12C1 JUMPI PUSH27 0x184F03E93FF9F4DAA797ED6E38ED64BF6A1F010000000000000000 DUP4 DIV SWAP3 POP PUSH1 0x40 ADD JUMPDEST PUSH14 0x4EE2D6D415B85ACEF8100000000 DUP4 LT PUSH2 0x12ED JUMPI PUSH14 0x4EE2D6D415B85ACEF8100000000 DUP4 DIV SWAP3 POP PUSH1 0x20 ADD JUMPDEST PUSH7 0x2386F26FC10000 DUP4 LT PUSH2 0x130B JUMPI PUSH7 0x2386F26FC10000 DUP4 DIV SWAP3 POP PUSH1 0x10 ADD JUMPDEST PUSH4 0x5F5E100 DUP4 LT PUSH2 0x1323 JUMPI PUSH4 0x5F5E100 DUP4 DIV SWAP3 POP PUSH1 0x8 ADD JUMPDEST PUSH2 0x2710 DUP4 LT PUSH2 0x1337 JUMPI PUSH2 0x2710 DUP4 DIV SWAP3 POP PUSH1 0x4 ADD JUMPDEST PUSH1 0x64 DUP4 LT PUSH2 0x1349 JUMPI PUSH1 0x64 DUP4 DIV SWAP3 POP PUSH1 0x2 ADD JUMPDEST PUSH1 0xA DUP4 LT PUSH2 0x604 JUMPI PUSH1 0x1 ADD SWAP3 SWAP2 POP POP JUMP JUMPDEST PUSH2 0x761 DUP5 DUP5 DUP5 DUP5 PUSH2 0x1573 JUMP JUMPDEST PUSH1 0x1 PUSH1 0x1 PUSH1 0xA0 SHL SUB DUP5 AND EXTCODESIZE ISZERO PUSH2 0x7EA JUMPI PUSH1 0x40 MLOAD PUSH4 0xF23A6E61 PUSH1 0xE0 SHL DUP2 MSTORE PUSH1 0x1 PUSH1 0x1 PUSH1 0xA0 SHL SUB DUP6 AND SWAP1 PUSH4 0xF23A6E61 SWAP1 PUSH2 0x13AA SWAP1 DUP10 SWAP1 DUP10 SWAP1 DUP9 SWAP1 DUP9 SWAP1 DUP9 SWAP1 PUSH1 0x4 ADD PUSH2 0x2220 JUMP JUMPDEST PUSH1 0x20 PUSH1 0x40 MLOAD DUP1 DUP4 SUB DUP2 PUSH1 0x0 DUP8 GAS CALL SWAP3 POP POP POP DUP1 ISZERO PUSH2 0x13E5 JUMPI POP PUSH1 0x40 DUP1 MLOAD PUSH1 0x1F RETURNDATASIZE SWAP1 DUP2 ADD PUSH1 0x1F NOT AND DUP3 ADD SWAP1 SWAP3 MSTORE PUSH2 0x13E2 SWAP2 DUP2 ADD SWAP1 PUSH2 0x2263 JUMP JUMPDEST PUSH1 0x1 JUMPDEST PUSH2 0x144E JUMPI RETURNDATASIZE DUP1 DUP1 ISZERO PUSH2 0x1413 JUMPI PUSH1 0x40 MLOAD SWAP2 POP PUSH1 0x1F NOT PUSH1 0x3F RETURNDATASIZE ADD AND DUP3 ADD PUSH1 0x40 MSTORE RETURNDATASIZE DUP3 MSTORE RETURNDATASIZE PUSH1 0x0 PUSH1 0x20 DUP5 ADD RETURNDATACOPY PUSH2 0x1418 JUMP JUMPDEST PUSH1 0x60 SWAP2 POP JUMPDEST POP DUP1 MLOAD PUSH1 0x0 SUB PUSH2 0x1446 JUMPI PUSH1 0x40 MLOAD PUSH4 0x2BFA23E7 PUSH1 0xE1 SHL DUP2 MSTORE PUSH1 0x1 PUSH1 0x1 PUSH1 0xA0 SHL SUB DUP7 AND PUSH1 0x4 DUP3 ADD MSTORE PUSH1 0x24 ADD PUSH2 0x7D4 JUMP JUMPDEST DUP1 MLOAD DUP2 PUSH1 0x20 ADD REVERT JUMPDEST PUSH1 0x1 PUSH1 0x1 PUSH1 0xE0 SHL SUB NOT DUP2 AND PUSH4 0xF23A6E61 PUSH1 0xE0 SHL EQ PUSH2 0x1199 JUMPI PUSH1 0x40 MLOAD PUSH4 0x2BFA23E7 PUSH1 0xE1 SHL DUP2 MSTORE PUSH1 0x1 PUSH1 0x1 PUSH1 0xA0 SHL SUB DUP7 AND PUSH1 0x4 DUP3 ADD MSTORE PUSH1 0x24 ADD PUSH2 0x7D4 JUMP JUMPDEST PUSH1 0x1 PUSH1 0x1 PUSH1 0xA0 SHL SUB DUP5 AND EXTCODESIZE ISZERO PUSH2 0x7EA JUMPI PUSH1 0x40 MLOAD PUSH4 0xBC197C81 PUSH1 0xE0 SHL DUP2 MSTORE PUSH1 0x1 PUSH1 0x1 PUSH1 0xA0 SHL SUB DUP6 AND SWAP1 PUSH4 0xBC197C81 SWAP1 PUSH2 0x14CE SWAP1 DUP10 SWAP1 DUP10 SWAP1 DUP9 SWAP1 DUP9 SWAP1 DUP9 SWAP1 PUSH1 0x4 ADD PUSH2 0x2280 JUMP JUMPDEST PUSH1 0x20 PUSH1 0x40 MLOAD DUP1 DUP4 SUB DUP2 PUSH1 0x0 DUP8 GAS CALL SWAP3 POP POP POP DUP1 ISZERO PUSH2 0x1509 JUMPI POP PUSH1 0x40 DUP1 MLOAD PUSH1 0x1F RETURNDATASIZE SWAP1 DUP2 ADD PUSH1 0x1F NOT AND DUP3 ADD SWAP1 SWAP3 MSTORE PUSH2 0x1506 SWAP2 DUP2 ADD SWAP1 PUSH2 0x2263 JUMP JUMPDEST PUSH1 0x1 JUMPDEST PUSH2 0x1537 JUMPI RETURNDATASIZE DUP1 DUP1 ISZERO PUSH2 0x1413 JUMPI PUSH1 0x40 MLOAD SWAP2 POP PUSH1 0x1F NOT PUSH1 0x3F RETURNDATASIZE ADD AND DUP3 ADD PUSH1 0x40 MSTORE RETURNDATASIZE DUP3 MSTORE RETURNDATASIZE PUSH1 0x0 PUSH1 0x20 DUP5 ADD RETURNDATACOPY PUSH2 0x1418 JUMP JUMPDEST PUSH1 0x1 PUSH1 0x1 PUSH1 0xE0 SHL SUB NOT DUP2 AND PUSH4 0xBC197C81 PUSH1 0xE0 SHL EQ PUSH2 0x1199 JUMPI PUSH1 0x40 MLOAD PUSH4 0x2BFA23E7 PUSH1 0xE1 SHL DUP2 MSTORE PUSH1 0x1 PUSH1 0x1 PUSH1 0xA0 SHL SUB DUP7 AND PUSH1 0x4 DUP3 ADD MSTORE PUSH1 0x24 ADD PUSH2 0x7D4 JUMP JUMPDEST PUSH2 0x157F DUP5 DUP5 DUP5 DUP5 PUSH2 0x16CD JUMP JUMPDEST PUSH1 0x1 PUSH1 0x1 PUSH1 0xA0 SHL SUB DUP5 AND PUSH2 0x1632 JUMPI PUSH1 0x0 DUP1 JUMPDEST DUP4 MLOAD DUP2 LT ISZERO PUSH2 0x1618 JUMPI PUSH1 0x0 DUP4 DUP3 DUP2 MLOAD DUP2 LT PUSH2 0x15AE JUMPI PUSH2 0x15AE PUSH2 0x2002 JUMP JUMPDEST PUSH1 0x20 MUL PUSH1 0x20 ADD ADD MLOAD SWAP1 POP DUP1 PUSH1 0x3 PUSH1 0x0 DUP8 DUP6 DUP2 MLOAD DUP2 LT PUSH2 0x15CF JUMPI PUSH2 0x15CF PUSH2 0x2002 JUMP JUMPDEST PUSH1 0x20 MUL PUSH1 0x20 ADD ADD MLOAD DUP2 MSTORE PUSH1 0x20 ADD SWAP1 DUP2 MSTORE PUSH1 0x20 ADD PUSH1 0x0 KECCAK256 PUSH1 0x0 DUP3 DUP3 SLOAD PUSH2 0x15F4 SWAP2 SWAP1 PUSH2 0x1FEF JUMP JUMPDEST SWAP1 SWAP2 SSTORE POP PUSH2 0x1604 SWAP1 POP DUP2 DUP5 PUSH2 0x1FEF JUMP JUMPDEST SWAP3 POP POP DUP1 PUSH2 0x1611 SWAP1 PUSH2 0x2018 JUMP JUMPDEST SWAP1 POP PUSH2 0x1591 JUMP JUMPDEST POP DUP1 PUSH1 0x4 PUSH1 0x0 DUP3 DUP3 SLOAD PUSH2 0x162B SWAP2 SWAP1 PUSH2 0x1FEF JUMP JUMPDEST SWAP1 SWAP2 SSTORE POP POP POP JUMPDEST PUSH1 0x1 PUSH1 0x1 PUSH1 0xA0 SHL SUB DUP4 AND PUSH2 0x761 JUMPI PUSH1 0x0 DUP1 JUMPDEST DUP4 MLOAD DUP2 LT ISZERO PUSH2 0x16BC JUMPI PUSH1 0x0 DUP4 DUP3 DUP2 MLOAD DUP2 LT PUSH2 0x1661 JUMPI PUSH2 0x1661 PUSH2 0x2002 JUMP JUMPDEST PUSH1 0x20 MUL PUSH1 0x20 ADD ADD MLOAD SWAP1 POP DUP1 PUSH1 0x3 PUSH1 0x0 DUP8 DUP6 DUP2 MLOAD DUP2 LT PUSH2 0x1682 JUMPI PUSH2 0x1682 PUSH2 0x2002 JUMP JUMPDEST PUSH1 0x20 MUL PUSH1 0x20 ADD ADD MLOAD DUP2 MSTORE PUSH1 0x20 ADD SWAP1 DUP2 MSTORE PUSH1 0x20 ADD PUSH1 0x0 KECCAK256 PUSH1 0x0 DUP3 DUP3 SLOAD SUB SWAP3 POP POP DUP2 SWAP1 SSTORE POP DUP1 DUP4 ADD SWAP3 POP POP DUP1 PUSH2 0x16B5 SWAP1 PUSH2 0x2018 JUMP JUMPDEST SWAP1 POP PUSH2 0x1644 JUMP JUMPDEST POP PUSH1 0x4 DUP1 SLOAD SWAP2 SWAP1 SWAP2 SUB SWAP1 SSTORE POP POP POP POP JUMP JUMPDEST DUP1 MLOAD DUP3 MLOAD EQ PUSH2 0x16FC JUMPI DUP2 MLOAD DUP2 MLOAD PUSH1 0x40 MLOAD PUSH4 0x5B059991 PUSH1 0xE0 SHL DUP2 MSTORE PUSH1 0x4 DUP2 ADD SWAP3 SWAP1 SWAP3 MSTORE PUSH1 0x24 DUP3 ADD MSTORE PUSH1 0x44 ADD PUSH2 0x7D4 JUMP JUMPDEST CALLER PUSH1 0x0 JUMPDEST DUP4 MLOAD DUP2 LT ISZERO PUSH2 0x1824 JUMPI PUSH1 0x20 DUP2 DUP2 MUL DUP6 DUP2 ADD DUP3 ADD MLOAD SWAP1 DUP6 ADD SWAP1 SWAP2 ADD MLOAD PUSH1 0x1 PUSH1 0x1 PUSH1 0xA0 SHL SUB DUP9 AND ISZERO PUSH2 0x17CC JUMPI PUSH1 0x0 DUP3 DUP2 MSTORE PUSH1 0x20 DUP2 DUP2 MSTORE PUSH1 0x40 DUP1 DUP4 KECCAK256 PUSH1 0x1 PUSH1 0x1 PUSH1 0xA0 SHL SUB DUP13 AND DUP5 MSTORE SWAP1 SWAP2 MSTORE SWAP1 KECCAK256 SLOAD DUP2 DUP2 LT ISZERO PUSH2 0x17A5 JUMPI PUSH1 0x40 MLOAD PUSH32 0x3DEE4C500000000000000000000000000000000000000000000000000000000 DUP2 MSTORE PUSH1 0x1 PUSH1 0x1 PUSH1 0xA0 SHL SUB DUP11 AND PUSH1 0x4 DUP3 ADD MSTORE PUSH1 0x24 DUP2 ADD DUP3 SWAP1 MSTORE PUSH1 0x44 DUP2 ADD DUP4 SWAP1 MSTORE PUSH1 0x64 DUP2 ADD DUP5 SWAP1 MSTORE PUSH1 0x84 ADD PUSH2 0x7D4 JUMP JUMPDEST PUSH1 0x0 DUP4 DUP2 MSTORE PUSH1 0x20 DUP2 DUP2 MSTORE PUSH1 0x40 DUP1 DUP4 KECCAK256 PUSH1 0x1 PUSH1 0x1 PUSH1 0xA0 SHL SUB DUP14 AND DUP5 MSTORE SWAP1 SWAP2 MSTORE SWAP1 KECCAK256 SWAP1 DUP3 SWAP1 SUB SWAP1 SSTORE JUMPDEST PUSH1 0x1 PUSH1 0x1 PUSH1 0xA0 SHL SUB DUP8 AND ISZERO PUSH2 0x1811 JUMPI PUSH1 0x0 DUP3 DUP2 MSTORE PUSH1 0x20 DUP2 DUP2 MSTORE PUSH1 0x40 DUP1 DUP4 KECCAK256 PUSH1 0x1 PUSH1 0x1 PUSH1 0xA0 SHL SUB DUP12 AND DUP5 MSTORE SWAP1 SWAP2 MSTORE DUP2 KECCAK256 DUP1 SLOAD DUP4 SWAP3 SWAP1 PUSH2 0x180B SWAP1 DUP5 SWAP1 PUSH2 0x1FEF JUMP JUMPDEST SWAP1 SWAP2 SSTORE POP POP JUMPDEST POP POP DUP1 PUSH2 0x181D SWAP1 PUSH2 0x2018 JUMP JUMPDEST SWAP1 POP PUSH2 0x1700 JUMP JUMPDEST POP DUP3 MLOAD PUSH1 0x1 SUB PUSH2 0x18A5 JUMPI PUSH1 0x20 DUP4 ADD MLOAD PUSH1 0x0 SWAP1 PUSH1 0x20 DUP5 ADD MLOAD SWAP1 SWAP2 POP DUP6 PUSH1 0x1 PUSH1 0x1 PUSH1 0xA0 SHL SUB AND DUP8 PUSH1 0x1 PUSH1 0x1 PUSH1 0xA0 SHL SUB AND DUP5 PUSH1 0x1 PUSH1 0x1 PUSH1 0xA0 SHL SUB AND PUSH32 0xC3D58168C5AE7397731D063D5BBF3D657854427343F4C083240F7AACAA2D0F62 DUP6 DUP6 PUSH1 0x40 MLOAD PUSH2 0x1896 SWAP3 SWAP2 SWAP1 SWAP2 DUP3 MSTORE PUSH1 0x20 DUP3 ADD MSTORE PUSH1 0x40 ADD SWAP1 JUMP JUMPDEST PUSH1 0x40 MLOAD DUP1 SWAP2 SUB SWAP1 LOG4 POP POP PUSH2 0x907 JUMP JUMPDEST DUP4 PUSH1 0x1 PUSH1 0x1 PUSH1 0xA0 SHL SUB AND DUP6 PUSH1 0x1 PUSH1 0x1 PUSH1 0xA0 SHL SUB AND DUP3 PUSH1 0x1 PUSH1 0x1 PUSH1 0xA0 SHL SUB AND PUSH32 0x4A39DC06D4C0DBC64B70AF90FD698A233A518AA5D07E595D983B8C0526C8F7FB DUP7 DUP7 PUSH1 0x40 MLOAD PUSH2 0x18F4 SWAP3 SWAP2 SWAP1 PUSH2 0x22DE JUMP JUMPDEST PUSH1 0x40 MLOAD DUP1 SWAP2 SUB SWAP1 LOG4 POP POP POP POP POP JUMP JUMPDEST PUSH1 0x0 PUSH1 0x20 DUP3 DUP5 SUB SLT ISZERO PUSH2 0x1915 JUMPI PUSH1 0x0 DUP1 REVERT JUMPDEST POP CALLDATALOAD SWAP2 SWAP1 POP JUMP JUMPDEST DUP1 CALLDATALOAD PUSH1 0x1 PUSH1 0x1 PUSH1 0xA0 SHL SUB DUP2 AND DUP2 EQ PUSH2 0xD70 JUMPI PUSH1 0x0 DUP1 REVERT JUMPDEST PUSH1 0x0 DUP1 PUSH1 0x40 DUP4 DUP6 SUB SLT ISZERO PUSH2 0x1946 JUMPI PUSH1 0x0 DUP1 REVERT JUMPDEST PUSH2 0x194F DUP4 PUSH2 0x191C JUMP JUMPDEST SWAP5 PUSH1 0x20 SWAP4 SWAP1 SWAP4 ADD CALLDATALOAD SWAP4 POP POP POP JUMP JUMPDEST PUSH1 0x1 PUSH1 0x1 PUSH1 0xE0 SHL SUB NOT DUP2 AND DUP2 EQ PUSH2 0x6B6 JUMPI PUSH1 0x0 DUP1 REVERT JUMPDEST PUSH1 0x0 PUSH1 0x20 DUP3 DUP5 SUB SLT ISZERO PUSH2 0x1985 JUMPI PUSH1 0x0 DUP1 REVERT JUMPDEST DUP2 CALLDATALOAD PUSH2 0xADB DUP2 PUSH2 0x195D JUMP JUMPDEST PUSH4 0x4E487B71 PUSH1 0xE0 SHL PUSH1 0x0 MSTORE PUSH1 0x41 PUSH1 0x4 MSTORE PUSH1 0x24 PUSH1 0x0 REVERT JUMPDEST PUSH1 0x40 MLOAD PUSH1 0x1F DUP3 ADD PUSH1 0x1F NOT AND DUP2 ADD PUSH8 0xFFFFFFFFFFFFFFFF DUP2 GT DUP3 DUP3 LT OR ISZERO PUSH2 0x19CF JUMPI PUSH2 0x19CF PUSH2 0x1990 JUMP JUMPDEST PUSH1 0x40 MSTORE SWAP2 SWAP1 POP JUMP JUMPDEST PUSH1 0x0 PUSH8 0xFFFFFFFFFFFFFFFF DUP4 GT ISZERO PUSH2 0x19F1 JUMPI PUSH2 0x19F1 PUSH2 0x1990 JUMP JUMPDEST PUSH2 0x1A04 PUSH1 0x1F DUP5 ADD PUSH1 0x1F NOT AND PUSH1 0x20 ADD PUSH2 0x19A6 JUMP JUMPDEST SWAP1 POP DUP3 DUP2 MSTORE DUP4 DUP4 DUP4 ADD GT ISZERO PUSH2 0x1A18 JUMPI PUSH1 0x0 DUP1 REVERT JUMPDEST DUP3 DUP3 PUSH1 0x20 DUP4 ADD CALLDATACOPY PUSH1 0x0 PUSH1 0x20 DUP5 DUP4 ADD ADD MSTORE SWAP4 SWAP3 POP POP POP JUMP JUMPDEST PUSH1 0x0 PUSH1 0x20 DUP3 DUP5 SUB SLT ISZERO PUSH2 0x1A41 JUMPI PUSH1 0x0 DUP1 REVERT JUMPDEST DUP2 CALLDATALOAD PUSH8 0xFFFFFFFFFFFFFFFF DUP2 GT ISZERO PUSH2 0x1A58 JUMPI PUSH1 0x0 DUP1 REVERT JUMPDEST DUP3 ADD PUSH1 0x1F DUP2 ADD DUP5 SGT PUSH2 0x1A69 JUMPI PUSH1 0x0 DUP1 REVERT JUMPDEST PUSH2 0x1A78 DUP5 DUP3 CALLDATALOAD PUSH1 0x20 DUP5 ADD PUSH2 0x19D7 JUMP JUMPDEST SWAP5 SWAP4 POP POP POP POP JUMP JUMPDEST PUSH1 0x0 JUMPDEST DUP4 DUP2 LT ISZERO PUSH2 0x1A9B JUMPI DUP2 DUP2 ADD MLOAD DUP4 DUP3 ADD MSTORE PUSH1 0x20 ADD PUSH2 0x1A83 JUMP JUMPDEST POP POP PUSH1 0x0 SWAP2 ADD MSTORE JUMP JUMPDEST PUSH1 0x0 DUP2 MLOAD DUP1 DUP5 MSTORE PUSH2 0x1ABC DUP2 PUSH1 0x20 DUP7 ADD PUSH1 0x20 DUP7 ADD PUSH2 0x1A80 JUMP JUMPDEST PUSH1 0x1F ADD PUSH1 0x1F NOT AND SWAP3 SWAP1 SWAP3 ADD PUSH1 0x20 ADD SWAP3 SWAP2 POP POP JUMP JUMPDEST PUSH1 0x20 DUP2 MSTORE PUSH1 0x0 PUSH2 0xADB PUSH1 0x20 DUP4 ADD DUP5 PUSH2 0x1AA4 JUMP JUMPDEST PUSH1 0x0 PUSH8 0xFFFFFFFFFFFFFFFF DUP3 GT ISZERO PUSH2 0x1AFD JUMPI PUSH2 0x1AFD PUSH2 0x1990 JUMP JUMPDEST POP PUSH1 0x5 SHL PUSH1 0x20 ADD SWAP1 JUMP JUMPDEST PUSH1 0x0 DUP3 PUSH1 0x1F DUP4 ADD SLT PUSH2 0x1B18 JUMPI PUSH1 0x0 DUP1 REVERT JUMPDEST DUP2 CALLDATALOAD PUSH1 0x20 PUSH2 0x1B2D PUSH2 0x1B28 DUP4 PUSH2 0x1AE3 JUMP JUMPDEST PUSH2 0x19A6 JUMP JUMPDEST DUP3 DUP2 MSTORE PUSH1 0x5 SWAP3 SWAP1 SWAP3 SHL DUP5 ADD DUP2 ADD SWAP2 DUP2 DUP2 ADD SWAP1 DUP7 DUP5 GT ISZERO PUSH2 0x1B4C JUMPI PUSH1 0x0 DUP1 REVERT JUMPDEST DUP3 DUP7 ADD JUMPDEST DUP5 DUP2 LT ISZERO PUSH2 0x1B67 JUMPI DUP1 CALLDATALOAD DUP4 MSTORE SWAP2 DUP4 ADD SWAP2 DUP4 ADD PUSH2 0x1B50 JUMP JUMPDEST POP SWAP7 SWAP6 POP POP POP POP POP POP JUMP JUMPDEST PUSH1 0x0 DUP3 PUSH1 0x1F DUP4 ADD SLT PUSH2 0x1B83 JUMPI PUSH1 0x0 DUP1 REVERT JUMPDEST PUSH2 0xADB DUP4 DUP4 CALLDATALOAD PUSH1 0x20 DUP6 ADD PUSH2 0x19D7 JUMP JUMPDEST PUSH1 0x0 DUP1 PUSH1 0x0 DUP1 PUSH1 0x80 DUP6 DUP8 SUB SLT ISZERO PUSH2 0x1BA8 JUMPI PUSH1 0x0 DUP1 REVERT JUMPDEST PUSH2 0x1BB1 DUP6 PUSH2 0x191C JUMP JUMPDEST SWAP4 POP PUSH1 0x20 DUP6 ADD CALLDATALOAD PUSH8 0xFFFFFFFFFFFFFFFF DUP1 DUP3 GT ISZERO PUSH2 0x1BCE JUMPI PUSH1 0x0 DUP1 REVERT JUMPDEST PUSH2 0x1BDA DUP9 DUP4 DUP10 ADD PUSH2 0x1B07 JUMP JUMPDEST SWAP5 POP PUSH1 0x40 DUP8 ADD CALLDATALOAD SWAP2 POP DUP1 DUP3 GT ISZERO PUSH2 0x1BF0 JUMPI PUSH1 0x0 DUP1 REVERT JUMPDEST PUSH2 0x1BFC DUP9 DUP4 DUP10 ADD PUSH2 0x1B07 JUMP JUMPDEST SWAP4 POP PUSH1 0x60 DUP8 ADD CALLDATALOAD SWAP2 POP DUP1 DUP3 GT ISZERO PUSH2 0x1C12 JUMPI PUSH1 0x0 DUP1 REVERT JUMPDEST POP PUSH2 0x1C1F DUP8 DUP3 DUP9 ADD PUSH2 0x1B72 JUMP JUMPDEST SWAP2 POP POP SWAP3 SWAP6 SWAP2 SWAP5 POP SWAP3 POP JUMP JUMPDEST PUSH1 0x0 DUP1 PUSH1 0x0 DUP1 PUSH1 0x0 PUSH1 0xA0 DUP7 DUP9 SUB SLT ISZERO PUSH2 0x1C43 JUMPI PUSH1 0x0 DUP1 REVERT JUMPDEST PUSH2 0x1C4C DUP7 PUSH2 0x191C JUMP JUMPDEST SWAP5 POP PUSH2 0x1C5A PUSH1 0x20 DUP8 ADD PUSH2 0x191C JUMP JUMPDEST SWAP4 POP PUSH1 0x40 DUP7 ADD CALLDATALOAD PUSH8 0xFFFFFFFFFFFFFFFF DUP1 DUP3 GT ISZERO PUSH2 0x1C77 JUMPI PUSH1 0x0 DUP1 REVERT JUMPDEST PUSH2 0x1C83 DUP10 DUP4 DUP11 ADD PUSH2 0x1B07 JUMP JUMPDEST SWAP5 POP PUSH1 0x60 DUP9 ADD CALLDATALOAD SWAP2 POP DUP1 DUP3 GT ISZERO PUSH2 0x1C99 JUMPI PUSH1 0x0 DUP1 REVERT JUMPDEST PUSH2 0x1CA5 DUP10 DUP4 DUP11 ADD PUSH2 0x1B07 JUMP JUMPDEST SWAP4 POP PUSH1 0x80 DUP9 ADD CALLDATALOAD SWAP2 POP DUP1 DUP3 GT ISZERO PUSH2 0x1CBB JUMPI PUSH1 0x0 DUP1 REVERT JUMPDEST POP PUSH2 0x1CC8 DUP9 DUP3 DUP10 ADD PUSH2 0x1B72 JUMP JUMPDEST SWAP2 POP POP SWAP3 SWAP6 POP SWAP3 SWAP6 SWAP1 SWAP4 POP JUMP JUMPDEST PUSH1 0x0 DUP1 PUSH1 0x40 DUP4 DUP6 SUB SLT ISZERO PUSH2 0x1CE8 JUMPI PUSH1 0x0 DUP1 REVERT JUMPDEST POP POP DUP1 CALLDATALOAD SWAP3 PUSH1 0x20 SWAP1 SWAP2 ADD CALLDATALOAD SWAP2 POP JUMP JUMPDEST PUSH1 0x0 DUP1 PUSH1 0x40 DUP4 DUP6 SUB SLT ISZERO PUSH2 0x1D0A JUMPI PUSH1 0x0 DUP1 REVERT JUMPDEST DUP3 CALLDATALOAD PUSH8 0xFFFFFFFFFFFFFFFF DUP1 DUP3 GT ISZERO PUSH2 0x1D22 JUMPI PUSH1 0x0 DUP1 REVERT JUMPDEST DUP2 DUP6 ADD SWAP2 POP DUP6 PUSH1 0x1F DUP4 ADD SLT PUSH2 0x1D36 JUMPI PUSH1 0x0 DUP1 REVERT JUMPDEST DUP2 CALLDATALOAD PUSH1 0x20 PUSH2 0x1D46 PUSH2 0x1B28 DUP4 PUSH2 0x1AE3 JUMP JUMPDEST DUP3 DUP2 MSTORE PUSH1 0x5 SWAP3 SWAP1 SWAP3 SHL DUP5 ADD DUP2 ADD SWAP2 DUP2 DUP2 ADD SWAP1 DUP10 DUP5 GT ISZERO PUSH2 0x1D65 JUMPI PUSH1 0x0 DUP1 REVERT JUMPDEST SWAP5 DUP3 ADD SWAP5 JUMPDEST DUP4 DUP7 LT ISZERO PUSH2 0x1D8A JUMPI PUSH2 0x1D7B DUP7 PUSH2 0x191C JUMP JUMPDEST DUP3 MSTORE SWAP5 DUP3 ADD SWAP5 SWAP1 DUP3 ADD SWAP1 PUSH2 0x1D6A JUMP JUMPDEST SWAP7 POP POP DUP7 ADD CALLDATALOAD SWAP3 POP POP DUP1 DUP3 GT ISZERO PUSH2 0x1DA0 JUMPI PUSH1 0x0 DUP1 REVERT JUMPDEST POP PUSH2 0x1DAD DUP6 DUP3 DUP7 ADD PUSH2 0x1B07 JUMP JUMPDEST SWAP2 POP POP SWAP3 POP SWAP3 SWAP1 POP JUMP JUMPDEST PUSH1 0x0 DUP2 MLOAD DUP1 DUP5 MSTORE PUSH1 0x20 DUP1 DUP6 ADD SWAP5 POP DUP1 DUP5 ADD PUSH1 0x0 JUMPDEST DUP4 DUP2 LT ISZERO PUSH2 0x1DE7 JUMPI DUP2 MLOAD DUP8 MSTORE SWAP6 DUP3 ADD SWAP6 SWAP1 DUP3 ADD SWAP1 PUSH1 0x1 ADD PUSH2 0x1DCB JUMP JUMPDEST POP SWAP5 SWAP6 SWAP5 POP POP POP POP POP JUMP JUMPDEST PUSH1 0x20 DUP2 MSTORE PUSH1 0x0 PUSH2 0xADB PUSH1 0x20 DUP4 ADD DUP5 PUSH2 0x1DB7 JUMP JUMPDEST PUSH1 0x0 DUP1 PUSH1 0x0 DUP1 PUSH1 0x80 DUP6 DUP8 SUB SLT ISZERO PUSH2 0x1E1B JUMPI PUSH1 0x0 DUP1 REVERT JUMPDEST PUSH2 0x1E24 DUP6 PUSH2 0x191C JUMP JUMPDEST SWAP4 POP PUSH1 0x20 DUP6 ADD CALLDATALOAD SWAP3 POP PUSH1 0x40 DUP6 ADD CALLDATALOAD SWAP2 POP PUSH1 0x60 DUP6 ADD CALLDATALOAD PUSH8 0xFFFFFFFFFFFFFFFF DUP2 GT ISZERO PUSH2 0x1E4E JUMPI PUSH1 0x0 DUP1 REVERT JUMPDEST PUSH2 0x1C1F DUP8 DUP3 DUP9 ADD PUSH2 0x1B72 JUMP JUMPDEST PUSH1 0x0 PUSH1 0x20 DUP3 DUP5 SUB SLT ISZERO PUSH2 0x1E6C JUMPI PUSH1 0x0 DUP1 REVERT JUMPDEST PUSH2 0xADB DUP3 PUSH2 0x191C JUMP JUMPDEST PUSH1 0x0 DUP1 PUSH1 0x40 DUP4 DUP6 SUB SLT ISZERO PUSH2 0x1E88 JUMPI PUSH1 0x0 DUP1 REVERT JUMPDEST PUSH2 0x1E91 DUP4 PUSH2 0x191C JUMP JUMPDEST SWAP2 POP PUSH1 0x20 DUP4 ADD CALLDATALOAD DUP1 ISZERO ISZERO DUP2 EQ PUSH2 0x1EA6 JUMPI PUSH1 0x0 DUP1 REVERT JUMPDEST DUP1 SWAP2 POP POP SWAP3 POP SWAP3 SWAP1 POP JUMP JUMPDEST PUSH1 0x0 DUP1 PUSH1 0x40 DUP4 DUP6 SUB SLT ISZERO PUSH2 0x1EC4 JUMPI PUSH1 0x0 DUP1 REVERT JUMPDEST DUP3 CALLDATALOAD SWAP2 POP PUSH2 0x1ED4 PUSH1 0x20 DUP5 ADD PUSH2 0x191C JUMP JUMPDEST SWAP1 POP SWAP3 POP SWAP3 SWAP1 POP JUMP JUMPDEST PUSH1 0x0 DUP1 PUSH1 0x40 DUP4 DUP6 SUB SLT ISZERO PUSH2 0x1EF0 JUMPI PUSH1 0x0 DUP1 REVERT JUMPDEST PUSH2 0x1EF9 DUP4 PUSH2 0x191C JUMP JUMPDEST SWAP2 POP PUSH2 0x1ED4 PUSH1 0x20 DUP5 ADD PUSH2 0x191C JUMP JUMPDEST PUSH1 0x0 DUP1 PUSH1 0x0 DUP1 PUSH1 0x0 PUSH1 0xA0 DUP7 DUP9 SUB SLT ISZERO PUSH2 0x1F1F JUMPI PUSH1 0x0 DUP1 REVERT JUMPDEST PUSH2 0x1F28 DUP7 PUSH2 0x191C JUMP JUMPDEST SWAP5 POP PUSH2 0x1F36 PUSH1 0x20 DUP8 ADD PUSH2 0x191C JUMP JUMPDEST SWAP4 POP PUSH1 0x40 DUP7 ADD CALLDATALOAD SWAP3 POP PUSH1 0x60 DUP7 ADD CALLDATALOAD SWAP2 POP PUSH1 0x80 DUP7 ADD CALLDATALOAD PUSH8 0xFFFFFFFFFFFFFFFF DUP2 GT ISZERO PUSH2 0x1F60 JUMPI PUSH1 0x0 DUP1 REVERT JUMPDEST PUSH2 0x1CC8 DUP9 DUP3 DUP10 ADD PUSH2 0x1B72 JUMP JUMPDEST PUSH1 0x0 DUP1 PUSH1 0x0 PUSH1 0x60 DUP5 DUP7 SUB SLT ISZERO PUSH2 0x1F81 JUMPI PUSH1 0x0 DUP1 REVERT JUMPDEST PUSH2 0x1F8A DUP5 PUSH2 0x191C JUMP JUMPDEST SWAP6 PUSH1 0x20 DUP6 ADD CALLDATALOAD SWAP6 POP PUSH1 0x40 SWAP1 SWAP5 ADD CALLDATALOAD SWAP4 SWAP3 POP POP POP JUMP JUMPDEST PUSH1 0x1 DUP2 DUP2 SHR SWAP1 DUP3 AND DUP1 PUSH2 0x1FB3 JUMPI PUSH1 0x7F DUP3 AND SWAP2 POP JUMPDEST PUSH1 0x20 DUP3 LT DUP2 SUB PUSH2 0x1FD3 JUMPI PUSH4 0x4E487B71 PUSH1 0xE0 SHL PUSH1 0x0 MSTORE PUSH1 0x22 PUSH1 0x4 MSTORE PUSH1 0x24 PUSH1 0x0 REVERT JUMPDEST POP SWAP2 SWAP1 POP JUMP JUMPDEST PUSH4 0x4E487B71 PUSH1 0xE0 SHL PUSH1 0x0 MSTORE PUSH1 0x11 PUSH1 0x4 MSTORE PUSH1 0x24 PUSH1 0x0 REVERT JUMPDEST DUP1 DUP3 ADD DUP1 DUP3 GT ISZERO PUSH2 0x604 JUMPI PUSH2 0x604 PUSH2 0x1FD9 JUMP JUMPDEST PUSH4 0x4E487B71 PUSH1 0xE0 SHL PUSH1 0x0 MSTORE PUSH1 0x32 PUSH1 0x4 MSTORE PUSH1 0x24 PUSH1 0x0 REVERT JUMPDEST PUSH1 0x0 PUSH1 0x1 DUP3 ADD PUSH2 0x202A JUMPI PUSH2 0x202A PUSH2 0x1FD9 JUMP JUMPDEST POP PUSH1 0x1 ADD SWAP1 JUMP JUMPDEST DUP2 DUP2 SUB DUP2 DUP2 GT ISZERO PUSH2 0x604 JUMPI PUSH2 0x604 PUSH2 0x1FD9 JUMP JUMPDEST PUSH32 0x687474703A2F2F35312E33382E3139302E3133343A313135362F6170692F6361 DUP2 MSTORE PUSH32 0x7264732F00000000000000000000000000000000000000000000000000000000 PUSH1 0x20 DUP3 ADD MSTORE PUSH1 0x0 DUP3 MLOAD PUSH2 0x20A2 DUP2 PUSH1 0x24 DUP6 ADD PUSH1 0x20 DUP8 ADD PUSH2 0x1A80 JUMP JUMPDEST SWAP2 SWAP1 SWAP2 ADD PUSH1 0x24 ADD SWAP3 SWAP2 POP POP JUMP JUMPDEST PUSH1 0x1F DUP3 GT ISZERO PUSH2 0xBF0 JUMPI PUSH1 0x0 DUP2 DUP2 MSTORE PUSH1 0x20 DUP2 KECCAK256 PUSH1 0x1F DUP6 ADD PUSH1 0x5 SHR DUP2 ADD PUSH1 0x20 DUP7 LT ISZERO PUSH2 0x20D6 JUMPI POP DUP1 JUMPDEST PUSH1 0x1F DUP6 ADD PUSH1 0x5 SHR DUP3 ADD SWAP2 POP JUMPDEST DUP2 DUP2 LT ISZERO PUSH2 0x7EA JUMPI DUP3 DUP2 SSTORE PUSH1 0x1 ADD PUSH2 0x20E2 JUMP JUMPDEST DUP2 MLOAD PUSH8 0xFFFFFFFFFFFFFFFF DUP2 GT ISZERO PUSH2 0x210F JUMPI PUSH2 0x210F PUSH2 0x1990 JUMP JUMPDEST PUSH2 0x2123 DUP2 PUSH2 0x211D DUP5 SLOAD PUSH2 0x1F9F JUMP JUMPDEST DUP5 PUSH2 0x20AF JUMP JUMPDEST PUSH1 0x20 DUP1 PUSH1 0x1F DUP4 GT PUSH1 0x1 DUP2 EQ PUSH2 0x2158 JUMPI PUSH1 0x0 DUP5 ISZERO PUSH2 0x2140 JUMPI POP DUP6 DUP4 ADD MLOAD JUMPDEST PUSH1 0x0 NOT PUSH1 0x3 DUP7 SWAP1 SHL SHR NOT AND PUSH1 0x1 DUP6 SWAP1 SHL OR DUP6 SSTORE PUSH2 0x7EA JUMP JUMPDEST PUSH1 0x0 DUP6 DUP2 MSTORE PUSH1 0x20 DUP2 KECCAK256 PUSH1 0x1F NOT DUP7 AND SWAP2 JUMPDEST DUP3 DUP2 LT ISZERO PUSH2 0x2187 JUMPI DUP9 DUP7 ADD MLOAD DUP3 SSTORE SWAP5 DUP5 ADD SWAP5 PUSH1 0x1 SWAP1 SWAP2 ADD SWAP1 DUP5 ADD PUSH2 0x2168 JUMP JUMPDEST POP DUP6 DUP3 LT ISZERO PUSH2 0x21A5 JUMPI DUP8 DUP6 ADD MLOAD PUSH1 0x0 NOT PUSH1 0x3 DUP9 SWAP1 SHL PUSH1 0xF8 AND SHR NOT AND DUP2 SSTORE JUMPDEST POP POP POP POP POP PUSH1 0x1 SWAP1 DUP2 SHL ADD SWAP1 SSTORE POP JUMP JUMPDEST PUSH4 0x4E487B71 PUSH1 0xE0 SHL PUSH1 0x0 MSTORE PUSH1 0x12 PUSH1 0x4 MSTORE PUSH1 0x24 PUSH1 0x0 REVERT JUMPDEST PUSH1 0x0 DUP3 PUSH2 0x21DA JUMPI PUSH2 0x21DA PUSH2 0x21B5 JUMP JUMPDEST POP MOD SWAP1 JUMP JUMPDEST PUSH1 0x0 DUP3 PUSH2 0x21EE JUMPI PUSH2 0x21EE PUSH2 0x21B5 JUMP JUMPDEST POP DIV SWAP1 JUMP JUMPDEST DUP1 DUP3 MUL DUP2 ISZERO DUP3 DUP3 DIV DUP5 EQ OR PUSH2 0x604 JUMPI PUSH2 0x604 PUSH2 0x1FD9 JUMP JUMPDEST PUSH4 0x4E487B71 PUSH1 0xE0 SHL PUSH1 0x0 MSTORE PUSH1 0x1 PUSH1 0x4 MSTORE PUSH1 0x24 PUSH1 0x0 REVERT JUMPDEST PUSH1 0x0 PUSH1 0x1 PUSH1 0x1 PUSH1 0xA0 SHL SUB DUP1 DUP9 AND DUP4 MSTORE DUP1 DUP8 AND PUSH1 0x20 DUP5 ADD MSTORE POP DUP5 PUSH1 0x40 DUP4 ADD MSTORE DUP4 PUSH1 0x60 DUP4 ADD MSTORE PUSH1 0xA0 PUSH1 0x80 DUP4 ADD MSTORE PUSH2 0x2258 PUSH1 0xA0 DUP4 ADD DUP5 PUSH2 0x1AA4 JUMP JUMPDEST SWAP8 SWAP7 POP POP POP POP POP POP POP JUMP JUMPDEST PUSH1 0x0 PUSH1 0x20 DUP3 DUP5 SUB SLT ISZERO PUSH2 0x2275 JUMPI PUSH1 0x0 DUP1 REVERT JUMPDEST DUP2 MLOAD PUSH2 0xADB DUP2 PUSH2 0x195D JUMP JUMPDEST PUSH1 0x0 PUSH1 0x1 PUSH1 0x1 PUSH1 0xA0 SHL SUB DUP1 DUP9 AND DUP4 MSTORE DUP1 DUP8 AND PUSH1 0x20 DUP5 ADD MSTORE POP PUSH1 0xA0 PUSH1 0x40 DUP4 ADD MSTORE PUSH2 0x22AC PUSH1 0xA0 DUP4 ADD DUP7 PUSH2 0x1DB7 JUMP JUMPDEST DUP3 DUP2 SUB PUSH1 0x60 DUP5 ADD MSTORE PUSH2 0x22BE DUP2 DUP7 PUSH2 0x1DB7 JUMP JUMPDEST SWAP1 POP DUP3 DUP2 SUB PUSH1 0x80 DUP5 ADD MSTORE PUSH2 0x22D2 DUP2 DUP6 PUSH2 0x1AA4 JUMP JUMPDEST SWAP9 SWAP8 POP POP POP POP POP POP POP POP JUMP JUMPDEST PUSH1 0x40 DUP2 MSTORE PUSH1 0x0 PUSH2 0x22F1 PUSH1 0x40 DUP4 ADD DUP6 PUSH2 0x1DB7 JUMP JUMPDEST DUP3 DUP2 SUB PUSH1 0x20 DUP5 ADD MSTORE PUSH2 0x2303 DUP2 DUP6 PUSH2 0x1DB7 JUMP JUMPDEST SWAP6 SWAP5 POP POP POP POP POP JUMP INVALID LOG2 PUSH5 0x6970667358 0x22 SLT KECCAK256 PUSH23 0xCFADB62111763ED9434055718300F1D8DB8D8D0EE4C912 0xEE 0x28 PUSH24 0x839A67CD1364736F6C63430008140033687474703A2F2F35 BALANCE 0x2E CALLER CODESIZE 0x2E BALANCE CODECOPY ADDRESS 0x2E BALANCE CALLER CALLVALUE GASPRICE BALANCE BALANCE CALLDATALOAD CALLDATALOAD 0x2F PUSH4 0x61726473 0x2F PUSH28 0x69647D2E6A736F6E0000000000000000000000000000000000000000 "},"methodIdentifiers":{"balanceOf(address,uint256)":"00fdd58e","balanceOfBatch(address[],uint256[])":"4e1273f4","burn(address,uint256,uint256)":"f5298aca","cardIdMax()":"8da7722a","cardIdToOwnerToAmount(uint256,address)":"e9994267","cardIdToOwners(uint256,uint256)":"34303187","changeCardIdMax(uint256)":"0066fd0d","exists(uint256)":"4f558e79","getAllBalance(address)":"9347fb3d","getBalanceOf(uint256,address)":"bfa0af6d","getCardIdMax()":"4673f332","isApprovedForAll(address,address)":"e985e9c5","mint(address,uint256,uint256,bytes)":"731133e9","mintBatch(address,uint256[],uint256[],bytes)":"1f7fdffa","nonce()":"affed0e0","openPack()":"3c4ea385","owner()":"8da5cb5b","renounceOwnership()":"715018a6","safeBatchTransferFrom(address,address,uint256[],uint256[],bytes)":"2eb2c2d6","safeTransferFrom(address,address,uint256,uint256,bytes)":"f242432a","setApprovalForAll(address,bool)":"a22cb465","setURI(string)":"02fe5305","supportsInterface(bytes4)":"01ffc9a7","tokenURI(uint256)":"c87b56dd","totalSupply()":"18160ddd","totalSupply(uint256)":"bd85b039","transferOwnership(address)":"f2fde38b","uri(uint256)":"0e89341c"}}}}}