{"contracts/battleHelper.sol":{"BattleHelper":{"abi":[{"inputs":[{"internalType":"address","name":"sender","type":"address"},{"internalType":"uint256","name":"balance","type":"uint256"},{"internalType":"uint256","name":"needed","type":"uint256"},{"internalType":"uint256","name":"tokenId","type":"uint256"}],"name":"ERC1155InsufficientBalance","type":"error"},{"inputs":[{"internalType":"address","name":"approver","type":"address"}],"name":"ERC1155InvalidApprover","type":"error"},{"inputs":[{"internalType":"uint256","name":"idsLength","type":"uint256"},{"internalType":"uint256","name":"valuesLength","type":"uint256"}],"name":"ERC1155InvalidArrayLength","type":"error"},{"inputs":[{"internalType":"address","name":"operator","type":"address"}],"name":"ERC1155InvalidOperator","type":"error"},{"inputs":[{"internalType":"address","name":"receiver","type":"address"}],"name":"ERC1155InvalidReceiver","type":"error"},{"inputs":[{"internalType":"address","name":"sender","type":"address"}],"name":"ERC1155InvalidSender","type":"error"},{"inputs":[{"internalType":"address","name":"operator","type":"address"},{"internalType":"address","name":"owner","type":"address"}],"name":"ERC1155MissingApprovalForAll","type":"error"},{"inputs":[{"internalType":"address","name":"owner","type":"address"}],"name":"OwnableInvalidOwner","type":"error"},{"inputs":[{"internalType":"address","name":"account","type":"address"}],"name":"OwnableUnauthorizedAccount","type":"error"},{"anonymous":false,"inputs":[{"indexed":true,"internalType":"address","name":"account","type":"address"},{"indexed":true,"internalType":"address","name":"operator","type":"address"},{"indexed":false,"internalType":"bool","name":"approved","type":"bool"}],"name":"ApprovalForAll","type":"event"},{"anonymous":false,"inputs":[{"indexed":true,"internalType":"address","name":"_from","type":"address"},{"indexed":true,"internalType":"uint256","name":"_battleId","type":"uint256"},{"indexed":false,"internalType":"bool","name":"_res","type":"bool"}],"name":"BattleConfirmed","type":"event"},{"anonymous":false,"inputs":[{"indexed":false,"internalType":"address","name":"_winner","type":"address"},{"indexed":false,"internalType":"address","name":"_loser","type":"address"},{"indexed":true,"internalType":"uint256","name":"_battleId","type":"uint256"},{"indexed":false,"internalType":"bool","name":"_res","type":"bool"}],"name":"BattleDone","type":"event"},{"anonymous":false,"inputs":[{"indexed":true,"internalType":"uint256","name":"_battleId","type":"uint256"},{"indexed":false,"internalType":"bool","name":"_res","type":"bool"}],"name":"BattleDoneDraw","type":"event"},{"anonymous":false,"inputs":[{"indexed":true,"internalType":"address","name":"_from","type":"address"},{"indexed":true,"internalType":"uint256","name":"_cardId","type":"uint256"},{"indexed":true,"internalType":"uint256","name":"_battleId","type":"uint256"}],"name":"BattleInitiated","type":"event"},{"anonymous":false,"inputs":[{"indexed":true,"internalType":"address","name":"_from","type":"address"},{"indexed":true,"internalType":"uint256","name":"_cardId","type":"uint256"},{"indexed":true,"internalType":"uint256","name":"_battleId","type":"uint256"},{"indexed":false,"internalType":"bool","name":"_res","type":"bool"}],"name":"BattleSelected","type":"event"},{"anonymous":false,"inputs":[{"indexed":false,"internalType":"uint256","name":"newCardIdMax","type":"uint256"}],"name":"CardIdMaxChanged","type":"event"},{"anonymous":false,"inputs":[{"indexed":true,"internalType":"address","name":"previousOwner","type":"address"},{"indexed":true,"internalType":"address","name":"newOwner","type":"address"}],"name":"OwnershipTransferred","type":"event"},{"anonymous":false,"inputs":[{"indexed":true,"internalType":"address","name":"operator","type":"address"},{"indexed":true,"internalType":"address","name":"from","type":"address"},{"indexed":true,"internalType":"address","name":"to","type":"address"},{"indexed":false,"internalType":"uint256[]","name":"ids","type":"uint256[]"},{"indexed":false,"internalType":"uint256[]","name":"values","type":"uint256[]"}],"name":"TransferBatch","type":"event"},{"anonymous":false,"inputs":[{"indexed":true,"internalType":"address","name":"operator","type":"address"},{"indexed":true,"internalType":"address","name":"from","type":"address"},{"indexed":true,"internalType":"address","name":"to","type":"address"},{"indexed":false,"internalType":"uint256","name":"id","type":"uint256"},{"indexed":false,"internalType":"uint256","name":"value","type":"uint256"}],"name":"TransferSingle","type":"event"},{"anonymous":false,"inputs":[{"indexed":false,"internalType":"string","name":"value","type":"string"},{"indexed":true,"internalType":"uint256","name":"id","type":"uint256"}],"name":"URI","type":"event"},{"inputs":[{"internalType":"address","name":"","type":"address"},{"internalType":"uint256","name":"","type":"uint256"}],"name":"addressToCardInBattle","outputs":[{"internalType":"uint256","name":"","type":"uint256"}],"stateMutability":"view","type":"function"},{"inputs":[{"internalType":"address","name":"account","type":"address"},{"internalType":"uint256","name":"id","type":"uint256"}],"name":"balanceOf","outputs":[{"internalType":"uint256","name":"","type":"uint256"}],"stateMutability":"view","type":"function"},{"inputs":[{"internalType":"address[]","name":"accounts","type":"address[]"},{"internalType":"uint256[]","name":"ids","type":"uint256[]"}],"name":"balanceOfBatch","outputs":[{"internalType":"uint256[]","name":"","type":"uint256[]"}],"stateMutability":"view","type":"function"},{"inputs":[{"internalType":"uint256","name":"","type":"uint256"}],"name":"battles","outputs":[{"internalType":"address","name":"player1","type":"address"},{"internalType":"address","name":"player2","type":"address"},{"internalType":"uint256","name":"cardIdPlayer1","type":"uint256"},{"internalType":"uint256","name":"cardIdPlayer2","type":"uint256"},{"internalType":"uint256","name":"amountPlayer1","type":"uint256"},{"internalType":"uint256","name":"amountPlayer2","type":"uint256"},{"internalType":"address","name":"winner","type":"address"},{"internalType":"address","name":"loser","type":"address"},{"internalType":"bool","name":"draw","type":"bool"}],"stateMutability":"view","type":"function"},{"inputs":[{"internalType":"address","name":"_from","type":"address"},{"internalType":"uint256","name":"_id","type":"uint256"},{"internalType":"uint256","name":"_value","type":"uint256"}],"name":"burn","outputs":[],"stateMutability":"nonpayable","type":"function"},{"inputs":[],"name":"cardIdMax","outputs":[{"internalType":"uint256","name":"","type":"uint256"}],"stateMutability":"view","type":"function"},{"inputs":[{"internalType":"uint256","name":"","type":"uint256"},{"internalType":"address","name":"","type":"address"}],"name":"cardIdToOwnerToAmount","outputs":[{"internalType":"uint256","name":"","type":"uint256"}],"stateMutability":"view","type":"function"},{"inputs":[{"internalType":"uint256","name":"","type":"uint256"},{"internalType":"uint256","name":"","type":"uint256"}],"name":"cardIdToOwners","outputs":[{"internalType":"address","name":"","type":"address"}],"stateMutability":"view","type":"function"},{"inputs":[{"internalType":"uint256","name":"_cardIdMax","type":"uint256"}],"name":"changeCardIdMax","outputs":[],"stateMutability":"nonpayable","type":"function"},{"inputs":[{"internalType":"uint256","name":"_battleId","type":"uint256"},{"internalType":"uint256[]","name":"_stats","type":"uint256[]"}],"name":"confirmBattle","outputs":[],"stateMutability":"nonpayable","type":"function"},{"inputs":[{"internalType":"uint256","name":"_battleId","type":"uint256"}],"name":"doBattle","outputs":[],"stateMutability":"nonpayable","type":"function"},{"inputs":[{"internalType":"uint256","name":"id","type":"uint256"}],"name":"exists","outputs":[{"internalType":"bool","name":"","type":"bool"}],"stateMutability":"view","type":"function"},{"inputs":[{"internalType":"address","name":"_from","type":"address"}],"name":"getAllBalance","outputs":[{"internalType":"uint256[]","name":"","type":"uint256[]"}],"stateMutability":"view","type":"function"},{"inputs":[{"internalType":"uint256","name":"_id","type":"uint256"},{"internalType":"address","name":"_from","type":"address"}],"name":"getBalanceOf","outputs":[{"internalType":"uint256","name":"","type":"uint256"}],"stateMutability":"view","type":"function"},{"inputs":[],"name":"getCardIdMax","outputs":[{"internalType":"uint256","name":"","type":"uint256"}],"stateMutability":"view","type":"function"},{"inputs":[{"internalType":"uint256","name":"_cardId","type":"uint256"},{"internalType":"uint256","name":"_amountToPay","type":"uint256"}],"name":"initBattle","outputs":[],"stateMutability":"payable","type":"function"},{"inputs":[{"internalType":"address","name":"account","type":"address"},{"internalType":"address","name":"operator","type":"address"}],"name":"isApprovedForAll","outputs":[{"internalType":"bool","name":"","type":"bool"}],"stateMutability":"view","type":"function"},{"inputs":[{"internalType":"address","name":"_account","type":"address"},{"internalType":"uint256","name":"_id","type":"uint256"},{"internalType":"uint256","name":"_amount","type":"uint256"},{"internalType":"bytes","name":"_data","type":"bytes"}],"name":"mint","outputs":[],"stateMutability":"nonpayable","type":"function"},{"inputs":[{"internalType":"address","name":"_to","type":"address"},{"internalType":"uint256[]","name":"_ids","type":"uint256[]"},{"internalType":"uint256[]","name":"_amounts","type":"uint256[]"},{"internalType":"bytes","name":"_data","type":"bytes"}],"name":"mintBatch","outputs":[],"stateMutability":"nonpayable","type":"function"},{"inputs":[],"name":"nonce","outputs":[{"internalType":"uint256","name":"","type":"uint256"}],"stateMutability":"view","type":"function"},{"inputs":[],"name":"openPack","outputs":[],"stateMutability":"payable","type":"function"},{"inputs":[],"name":"owner","outputs":[{"internalType":"address","name":"","type":"address"}],"stateMutability":"view","type":"function"},{"inputs":[],"name":"renounceOwnership","outputs":[],"stateMutability":"nonpayable","type":"function"},{"inputs":[{"internalType":"address","name":"from","type":"address"},{"internalType":"address","name":"to","type":"address"},{"internalType":"uint256[]","name":"ids","type":"uint256[]"},{"internalType":"uint256[]","name":"values","type":"uint256[]"},{"internalType":"bytes","name":"data","type":"bytes"}],"name":"safeBatchTransferFrom","outputs":[],"stateMutability":"nonpayable","type":"function"},{"inputs":[{"internalType":"address","name":"from","type":"address"},{"internalType":"address","name":"to","type":"address"},{"internalType":"uint256","name":"id","type":"uint256"},{"internalType":"uint256","name":"value","type":"uint256"},{"internalType":"bytes","name":"data","type":"bytes"}],"name":"safeTransferFrom","outputs":[],"stateMutability":"nonpayable","type":"function"},{"inputs":[{"internalType":"uint256","name":"_cardId","type":"uint256"},{"internalType":"uint256","name":"_amountToPay","type":"uint256"},{"internalType":"uint256","name":"_battleId","type":"uint256"},{"internalType":"uint256[]","name":"_stats","type":"uint256[]"}],"name":"selectBattle","outputs":[],"stateMutability":"payable","type":"function"},{"inputs":[{"internalType":"address","name":"operator","type":"address"},{"internalType":"bool","name":"approved","type":"bool"}],"name":"setApprovalForAll","outputs":[],"stateMutability":"nonpayable","type":"function"},{"inputs":[{"internalType":"string","name":"_newuri","type":"string"}],"name":"setURI","outputs":[],"stateMutability":"nonpayable","type":"function"},{"inputs":[{"internalType":"bytes4","name":"interfaceId","type":"bytes4"}],"name":"supportsInterface","outputs":[{"internalType":"bool","name":"","type":"bool"}],"stateMutability":"view","type":"function"},{"inputs":[{"internalType":"uint256","name":"_tokenId","type":"uint256"}],"name":"tokenURI","outputs":[{"internalType":"string","name":"","type":"string"}],"stateMutability":"pure","type":"function"},{"inputs":[],"name":"totalSupply","outputs":[{"internalType":"uint256","name":"","type":"uint256"}],"stateMutability":"view","type":"function"},{"inputs":[{"internalType":"uint256","name":"id","type":"uint256"}],"name":"totalSupply","outputs":[{"internalType":"uint256","name":"","type":"uint256"}],"stateMutability":"view","type":"function"},{"inputs":[{"internalType":"address","name":"newOwner","type":"address"}],"name":"transferOwnership","outputs":[],"stateMutability":"nonpayable","type":"function"},{"inputs":[{"internalType":"uint256","name":"","type":"uint256"}],"name":"uri","outputs":[{"internalType":"string","name":"","type":"string"}],"stateMutability":"view","type":"function"}],"evm":{"bytecode":{"linkReferences":{},"object":"6080604052600960065560006007553480156200001b57600080fd5b50336040518060600160405280602981526020016200469a60299139620000428162000084565b506001600160a01b0381166200007257604051631e4fbdf760e01b81526000600482015260240160405180910390fd5b6200007d8162000096565b5062000259565b60026200009282826200018d565b5050565b600580546001600160a01b038381166001600160a01b0319831681179093556040519116919082907f8be0079c531659141344cd1fd0a4f28419497f9722a3daafe3b4186f6b6457e090600090a35050565b634e487b7160e01b600052604160045260246000fd5b600181811c908216806200011357607f821691505b6020821081036200013457634e487b7160e01b600052602260045260246000fd5b50919050565b601f8211156200018857600081815260208120601f850160051c81016020861015620001635750805b601f850160051c820191505b8181101562000184578281556001016200016f565b5050505b505050565b81516001600160401b03811115620001a957620001a9620000e8565b620001c181620001ba8454620000fe565b846200013a565b602080601f831160018114620001f95760008415620001e05750858301515b600019600386901b1c1916600185901b17855562000184565b600085815260208120601f198616915b828110156200022a5788860151825594840194600190910190840162000209565b5085821015620002495787850151600019600388901b60f8161c191681555b5050505050600190811b01905550565b61443180620002696000396000f3fe6080604052600436106102175760003560e01c8063777d45fd1161011d578063bfa0af6d116100b0578063efee7c3b1161007f578063f242432a11610064578063f242432a146106b4578063f2fde38b146106d4578063f5298aca146106f457600080fd5b8063efee7c3b14610669578063efefb0dd1461067c57600080fd5b8063bfa0af6d146105a8578063c87b56dd146105c8578063e985e9c5146105e8578063e99942671461063157600080fd5b8063a22cb465116100ec578063a22cb46514610532578063afeef48f14610552578063affed0e014610565578063bd85b0391461057b57600080fd5b8063777d45fd146104be5780638da5cb5b146104de5780638da7722a146104fc5780639347fb3d1461051257600080fd5b80632eb2c2d6116101b05780634e1273f41161017f578063606d2e9611610164578063606d2e9614610414578063715018a614610489578063731133e91461049e57600080fd5b80634e1273f4146103b85780634f558e79146103e557600080fd5b80632eb2c2d61461034357806334303187146103635780633c4ea3851461039b5780634673f332146103a357600080fd5b80630e89341c116101ec5780630e89341c146102c157806318160ddd146102ee5780631f7fdffa14610303578063273431901461032357600080fd5b806266fd0d1461021c578062fdd58e1461023e57806301ffc9a71461027157806302fe5305146102a1575b600080fd5b34801561022857600080fd5b5061023c61023736600461396f565b610714565b005b34801561024a57600080fd5b5061025e61025936600461399f565b610757565b6040519081526020015b60405180910390f35b34801561027d57600080fd5b5061029161028c3660046139df565b61077f565b6040519015158152602001610268565b3480156102ad57600080fd5b5061023c6102bc366004613a9b565b61081a565b3480156102cd57600080fd5b506102e16102dc36600461396f565b61082e565b6040516102689190613b34565b3480156102fa57600080fd5b5060045461025e565b34801561030f57600080fd5b5061023c61031e366004613bf6565b6108c2565b34801561032f57600080fd5b5061023c61033e366004613c8f565b6108dc565b34801561034f57600080fd5b5061023c61035e366004613cd6565b610b5e565b34801561036f57600080fd5b5061038361037e366004613d80565b610be4565b6040516001600160a01b039091168152602001610268565b61023c610c1c565b3480156103af57600080fd5b5060065461025e565b3480156103c457600080fd5b506103d86103d3366004613da2565b610ce6565b6040516102689190613e93565b3480156103f157600080fd5b5061029161040036600461396f565b600090815260036020526040902054151590565b34801561042057600080fd5b5061043461042f36600461396f565b610dbb565b604080516001600160a01b039a8b168152988a1660208a01528801969096526060870194909452608086019290925260a0850152841660c084015290921660e082015290151561010082015261012001610268565b34801561049557600080fd5b5061023c610e2f565b3480156104aa57600080fd5b5061023c6104b9366004613ea6565b610e43565b3480156104ca57600080fd5b5061023c6104d936600461396f565b610e57565b3480156104ea57600080fd5b506005546001600160a01b0316610383565b34801561050857600080fd5b5061025e60065481565b34801561051e57600080fd5b506103d861052d366004613efb565b6113de565b34801561053e57600080fd5b5061023c61054d366004613f16565b611493565b61023c610560366004613f52565b6114a2565b34801561057157600080fd5b5061025e60075481565b34801561058757600080fd5b5061025e61059636600461396f565b60009081526003602052604090205490565b3480156105b457600080fd5b5061025e6105c3366004613fa0565b611802565b3480156105d457600080fd5b506102e16105e336600461396f565b611815565b3480156105f457600080fd5b50610291610603366004613fcc565b6001600160a01b03918216600090815260016020908152604080832093909416825291909152205460ff1690565b34801561063d57600080fd5b5061025e61064c366004613fa0565b600860209081526000928352604080842090915290825290205481565b61023c610677366004613d80565b611846565b34801561068857600080fd5b5061025e61069736600461399f565b600a60209081526000928352604080842090915290825290205481565b3480156106c057600080fd5b5061023c6106cf366004613ff6565b6119e0565b3480156106e057600080fd5b5061023c6106ef366004613efb565b611a5e565b34801561070057600080fd5b5061023c61070f36600461405b565b611ab2565b61071c611ac2565b60068190556040518181527f2ca7491c41b198f60823c9da02ca440dca6bfb5d6cd4ae0df705cc35de252fb39060200160405180910390a150565b6000818152602081815260408083206001600160a01b03861684529091529020545b92915050565b60006001600160e01b031982167fd9b67a260000000000000000000000000000000000000000000000000000000014806107e257506001600160e01b031982167f0e89341c00000000000000000000000000000000000000000000000000000000145b8061077957507f01ffc9a7000000000000000000000000000000000000000000000000000000006001600160e01b0319831614610779565b610822611ac2565b61082b81611b08565b50565b60606002805461083d9061408e565b80601f01602080910402602001604051908101604052809291908181526020018280546108699061408e565b80156108b65780601f1061088b576101008083540402835291602001916108b6565b820191906000526020600020905b81548152906001019060200180831161089957829003601f168201915b50505050509050919050565b6108ca611ac2565b6108d684848484611b14565b50505050565b6000821180156108ee5750600b548211155b61093f5760405162461bcd60e51b815260206004820152601960248201527f5468697320626174746c6520646f65736e27742065786973740000000000000060448201526064015b60405180910390fd5b33600b61094d6001856140de565b8154811061095d5761095d6140f1565b60009182526020909120600a90910201546001600160a01b0316146109c45760405162461bcd60e51b815260206004820152601f60248201527f596f7520617265206e6f742070617274206f66207468697320626174746c65006044820152606401610936565b6000600b6109d36001856140de565b815481106109e3576109e36140f1565b600091825260209091206001600a9092020101546001600160a01b031603610a4d5760405162461bcd60e51b815260206004820152601760248201527f5468697320626174746c65206973206e6f742066756c6c0000000000000000006044820152606401610936565b8051600314610a9e5760405162461bcd60e51b815260206004820152601860248201527f596f75206e65656420746f2073656e64203320737461747300000000000000006044820152606401610936565b6000610aaa8383611b4c565b905080610b1f5760405162461bcd60e51b815260206004820152603360248201527f536f6d657468696e672077656e742077726f6e6720647572696e67207468652060448201527f626174746c6520636f6e6669726d6174696f6e000000000000000000000000006064820152608401610936565b6040518115158152839033907feff7f2d84d13f104dba859fb7ab16a085a258d198826b26aa0d89a2f9ac5bc1d906020015b60405180910390a3505050565b336001600160a01b0386168114801590610b9e57506001600160a01b0380871660009081526001602090815260408083209385168352929052205460ff16155b15610bcf5760405163711bec9160e11b81526001600160a01b03808316600483015287166024820152604401610936565b610bdc8686868686611ddd565b505050505050565b60096020528160005260406000208181548110610c0057600080fd5b6000918252602090912001546001600160a01b03169150829050565b3464e8d4a5100014610c965760405162461bcd60e51b815260206004820152602d60248201527f596f75206e65656420746f2070617920302e303030303031206574686572207460448201527f6f206f70656e2061207061636b000000000000000000000000000000000000006064820152608401610936565b6000610ca0611e3d565b90506000610cad82611e8e565b90506000610cb9611ed3565b90506000610cc682611f23565b90506000610cd48483614107565b9050610cdf81611f60565b5050505050565b60608151835114610d175781518351604051635b05999160e01b815260048101929092526024820152604401610936565b6000835167ffffffffffffffff811115610d3357610d336139fc565b604051908082528060200260200182016040528015610d5c578160200160208202803683370190505b50905060005b8451811015610db357602080820286010151610d8690602080840287010151610757565b828281518110610d9857610d986140f1565b6020908102919091010152610dac8161411a565b9050610d62565b509392505050565b600b8181548110610dcb57600080fd5b60009182526020909120600a9091020180546001820154600283015460038401546004850154600586015460088701546009909701546001600160a01b0396871698509486169693959294919390929081169190811690600160a01b900460ff1689565b610e37611ac2565b610e416000612059565b565b610e4b611ac2565b6108d6848484846120ab565b600081118015610e695750600b548111155b610eb55760405162461bcd60e51b815260206004820152601960248201527f5468697320626174746c6520646f65736e2774206578697374000000000000006044820152606401610936565b33600b610ec36001846140de565b81548110610ed357610ed36140f1565b60009182526020909120600a90910201546001600160a01b031614610f3a5760405162461bcd60e51b815260206004820152601f60248201527f596f7520617265206e6f742070617274206f66207468697320626174746c65006044820152606401610936565b6000600b610f496001846140de565b81548110610f5957610f596140f1565b600091825260209091206001600a9092020101546001600160a01b031603610fc35760405162461bcd60e51b815260206004820152601760248201527f5468697320626174746c65206973206e6f742066756c6c0000000000000000006044820152606401610936565b6000600b610fd26001846140de565b81548110610fe257610fe26140f1565b600091825260209091206008600a9092020101546001600160a01b03161461104c5760405162461bcd60e51b815260206004820152601b60248201527f5468697320626174746c6520697320616c726561647920646f6e6500000000006044820152606401610936565b600b6110596001836140de565b81548110611069576110696140f1565b60009182526020909120600a9091020160090154600160a01b900460ff16156110d45760405162461bcd60e51b815260206004820152601b60248201527f5468697320626174746c6520697320616c726561647920646f6e6500000000006044820152606401610936565b60006110df82612108565b9050806111545760405162461bcd60e51b815260206004820152602660248201527f536f6d657468696e672077656e742077726f6e6720647572696e67207468652060448201527f626174746c6500000000000000000000000000000000000000000000000000006064820152608401610936565b6000600b6111636001856140de565b81548110611173576111736140f1565b60009182526020918290206040805161016081018252600a90930290910180546001600160a01b039081168452600182015416838501526002810154838301526003810154606084015260048101546080840152600581015460a08401526006810180548351818702810187019094528084529394919360c08601939283018282801561121f57602002820191906000526020600020905b81548152602001906001019080831161120b575b505050505081526020016007820180548060200260200160405190810160405280929190818152602001828054801561127757602002820191906000526020600020905b815481526020019060010190808311611263575b505050918352505060088201546001600160a01b0390811660208301526009909201549182166040820152600160a01b90910460ff1615156060909101526101408101519091501561130457827f89aca0360a8e6579f9b4a53b0406d026b2f7a9e5b0bc133d2c1013f220d696f8836040516112f7911515815260200190565b60405180910390a2505050565b6101008101516001600160a01b03166113855760405162461bcd60e51b815260206004820152603f60248201527f536f6d657468696e672077656e742077726f6e6720647572696e67207468652060448201527f626174746c6520286e6f74206472617720616e64206e6f2077696e6e657229006064820152608401610936565b610100810151610120820151604080516001600160a01b0393841681529290911660208301528315159082015283907f73b75fe4a38b6c1172654d3174302c242d6b3d69c0d892d7f27a7934d6d9794a906060016112f7565b6060600060065467ffffffffffffffff8111156113fd576113fd6139fc565b604051908082528060200260200182016040528015611426578160200160208202803683370190505b50905060015b600654811161148c5760006114418583610757565b111561147a576114518482610757565b8261145d6001846140de565b8151811061146d5761146d6140f1565b6020026020010181815250505b806114848161411a565b91505061142c565b5092915050565b61149e33838361258c565b5050565b600034116114f25760405162461bcd60e51b815260206004820152601660248201527f596f75206e65656420746f2073656e64206574686572000000000000000000006044820152606401610936565b82341461154b5760405162461bcd60e51b815260206004820152602160248201527f596f75206e65656420746f2073656e642074686520657861637420616d6f756e6044820152601d60fa1b6064820152608401610936565b60008411801561155d57506006548411155b61156657600080fd5b336000818152600a60209081526040808320888452909152812054909161158d9087610757565b61159791906140de565b116115fa5760405162461bcd60e51b815260206004820152602d60248201527f596f7520646f6e2774206861766520656e6f75677468206f662074686973206360448201526c61726420617661696c61626c6560981b6064820152608401610936565b60008211801561160c5750600b548211155b6116585760405162461bcd60e51b815260206004820152601960248201527f5468697320626174746c6520646f65736e2774206578697374000000000000006044820152606401610936565b6000600b6116676001856140de565b81548110611677576116776140f1565b600091825260209091206001600a9092020101546001600160a01b0316146116e15760405162461bcd60e51b815260206004820152601b60248201527f5468697320626174746c6520697320616c72656164792066756c6c00000000006044820152606401610936565b80516003146117325760405162461bcd60e51b815260206004820152601860248201527f596f75206e65656420746f2073656e64203320737461747300000000000000006044820152606401610936565b600061173f858484612634565b9050806117b45760405162461bcd60e51b815260206004820152603060248201527f536f6d657468696e672077656e742077726f6e6720647572696e67207468652060448201527f626174746c652073656c656374696f6e000000000000000000000000000000006064820152608401610936565b8285336001600160a01b03167fc559b3ccc5ecb04f988f93dc34629f418006013c2e2d95352ea77e50c3f21f76846040516117f3911515815260200190565b60405180910390a45050505050565b600061180e8284610757565b9392505050565b60606118208261291d565b6040516020016118309190614133565b6040516020818303038152906040529050919050565b600034116118965760405162461bcd60e51b815260206004820152601660248201527f596f75206e65656420746f2073656e64206574686572000000000000000000006044820152606401610936565b8034146118ef5760405162461bcd60e51b815260206004820152602160248201527f596f75206e65656420746f2073656e642074686520657861637420616d6f756e6044820152601d60fa1b6064820152608401610936565b60008211801561190157506006548211155b61190a57600080fd5b336000818152600a6020908152604080832086845290915281205490916119319085610757565b61193b91906140de565b1161199e5760405162461bcd60e51b815260206004820152602d60248201527f596f7520646f6e2774206861766520656e6f75677468206f662074686973206360448201526c61726420617661696c61626c6560981b6064820152608401610936565b60006119a9836129bd565b6040519091508190849033907f7d449fa6e54154e0708080fd25570c187f5f5a38662c42a2324d966ec07b926f90600090a4505050565b336001600160a01b0386168114801590611a2057506001600160a01b0380871660009081526001602090815260408083209385168352929052205460ff16155b15611a515760405163711bec9160e11b81526001600160a01b03808316600483015287166024820152604401610936565b610bdc8686868686612c43565b611a66611ac2565b6001600160a01b038116611aa9576040517f1e4fbdf700000000000000000000000000000000000000000000000000000000815260006004820152602401610936565b61082b81612059565b611abd838383612cd1565b505050565b6005546001600160a01b03163314610e41576040517f118cdaa7000000000000000000000000000000000000000000000000000000008152336004820152602401610936565b600261149e82826141e4565b6001600160a01b038416611b3e57604051632bfa23e760e11b815260006004820152602401610936565b6108d6600085858585612d35565b600080600b611b5c6001866140de565b81548110611b6c57611b6c6140f1565b60009182526020918290206040805161016081018252600a90930290910180546001600160a01b039081168452600182015416838501526002810154838301526003810154606084015260048101546080840152600581015460a08401526006810180548351818702810187019094528084529394919360c086019392830182828015611c1857602002820191906000526020600020905b815481526020019060010190808311611c04575b5050505050815260200160078201805480602002602001604051908101604052809291908181526020018280548015611c7057602002820191906000526020600020905b815481526020019060010190808311611c5c575b505050918352505060088201546001600160a01b0390811660208301526009909201549182166040820152600160a01b90910460ff16151560609091015260c08101849052905080600b611cc56001876140de565b81548110611cd557611cd56140f1565b60009182526020918290208351600a9092020180546001600160a01b039283166001600160a01b0319918216178255848401516001830180549190941691161790915560408301516002820155606083015160038201556080830151600482015560a0830151600582015560c083015180519192611d5b9260068501929091019061390f565b5060e08201518051611d7791600784019160209091019061390f565b506101008201516008820180546001600160a01b0319166001600160a01b039283161790556101208301516009909201805461014090940151929091166001600160a81b031990931692909217600160a01b911515919091021790555060019392505050565b6001600160a01b038416611e0757604051632bfa23e760e11b815260006004820152602401610936565b6001600160a01b038516611e3057604051626a0d4560e21b815260006004820152602401610936565b610cdf8585858585612d35565b604080514260208201526bffffffffffffffffffffffff193360601b169181019190915244605482015260009081906074015b60408051601f19818403018152919052805160209091012092915050565b60006014611e9d6064846142ba565b1015611eab57506002919050565b6032611eb86064846142ba565b1015611ec657506001919050565b506000919050565b919050565b6007805460009182611ee48361411a565b9091555050600754604080514260208201526bffffffffffffffffffffffff193360601b16918101919091526054810191909152600090607401611e70565b600060026003600654611f3691906142ce565b611f4090846142ba565b611f4b906001614107565b611f569060036142e2565b61077991906140de565b611f7c33826001604051806020016040528060008152506120ab565b6000818152600860209081526040808320338452909152902054611fa1906001612d88565b60008281526008602090815260408083203384529091528120919091555b600082815260096020526040902054811015612028576000828152600960205260409020805433919083908110611ff857611ff86140f1565b6000918252602090912001546001600160a01b031603612016575050565b806120208161411a565b915050611fbf565b5060009081526009602090815260408220805460018101825590835291200180546001600160a01b03191633179055565b600580546001600160a01b038381166001600160a01b0319831681179093556040519116919082907f8be0079c531659141344cd1fd0a4f28419497f9722a3daafe3b4186f6b6457e090600090a35050565b6001600160a01b0384166120d557604051632bfa23e760e11b815260006004820152602401610936565b60408051600180825260208201869052818301908152606082018590526080820190925290610bdc600087848487612d35565b600080600b6121186001856140de565b81548110612128576121286140f1565b60009182526020918290206040805161016081018252600a90930290910180546001600160a01b039081168452600182015416838501526002810154838301526003810154606084015260048101546080840152600581015460a08401526006810180548351818702810187019094528084529394919360c0860193928301828280156121d457602002820191906000526020600020905b8154815260200190600101908083116121c0575b505050505081526020016007820180548060200260200160405190810160405280929190818152602001828054801561222c57602002820191906000526020600020905b815481526020019060010190808311612218575b505050918352505060088201546001600160a01b039081166020830152600990920154918216604080830191909152600160a01b90920460ff16151560609182015260c083015160e08401519284015191840151608085015160a0860151959650919490919060008080805b6003811015612347578881815181106122b3576122b36140f1565b60200260200101518a82815181106122cd576122cd6140f1565b602002602001015111156122ed57836122e58161411a565b945050612335565b8881815181106122ff576122ff6140f1565b60200260200101518a8281518110612319576123196140f1565b6020026020010151101561233557826123318161411a565b9350505b8061233f8161411a565b915050612298565b5081831115612376575088516001600160a01b039081166101008b015260208a0151166101208a015285612562565b818310156123a4575060208901516001600160a01b039081166101008b01528951166101208a015284612562565b60006101008b018190526101208b0181905260016101408c01528a516040516001600160a01b03909116916108fc881502918891818181858888f193505050501580156123f5573d6000803e3d6000fd5b5089602001516001600160a01b03166108fc859081150290604051600060405180830381858888f19350505050158015612433573d6000803e3d6000fd5b5089600b61244260018f6140de565b81548110612452576124526140f1565b60009182526020918290208351600a9092020180546001600160a01b039283166001600160a01b0319918216178255848401516001830180549190941691161790915560408301516002820155606083015160038201556080830151600482015560a0830151600582015560c0830151805191926124d89260068501929091019061390f565b5060e082015180516124f491600784019160209091019061390f565b506101008201516008820180546001600160a01b0319166001600160a01b039283161790556101208301516009909201805461014090940151929091166001600160a81b031990931692909217600160a01b911515919091021790555060019b9a5050505050505050505050565b600061256e8686612d88565b905061257b8d8284612da7565b9d9c50505050505050505050505050565b6001600160a01b0382166125cf576040517fced3e10000000000000000000000000000000000000000000000000000000000815260006004820152602401610936565b6001600160a01b03838116600081815260016020908152604080832094871680845294825291829020805460ff191686151590811790915591519182527f17307eab39ab6107e8899845ad3d59bd9653f200f220920489ca2b5937696c319101610b51565b336000908152600a6020908152604080832086845290915281205461265a906001612d88565b336000908152600a60209081526040808320888452909152812091909155600b6126856001866140de565b81548110612695576126956140f1565b60009182526020918290206040805161016081018252600a90930290910180546001600160a01b039081168452600182015416838501526002810154838301526003810154606084015260048101546080840152600581015460a08401526006810180548351818702810187019094528084529394919360c08601939283018282801561274157602002820191906000526020600020905b81548152602001906001019080831161272d575b505050505081526020016007820180548060200260200160405190810160405280929190818152602001828054801561279957602002820191906000526020600020905b815481526020019060010190808311612785575b505050918352505060088201546001600160a01b039081166020808401919091526009909301549081166040830152600160a01b900460ff161515606091820152339183019190915281018690523460a082015260e08101849052905080600b6128046001876140de565b81548110612814576128146140f1565b60009182526020918290208351600a9092020180546001600160a01b039283166001600160a01b0319918216178255848401516001830180549190941691161790915560408301516002820155606083015160038201556080830151600482015560a0830151600582015560c08301518051919261289a9260068501929091019061390f565b5060e082015180516128b691600784019160209091019061390f565b506101008201516008820180546001600160a01b0319166001600160a01b039283161790556101208301516009909201805461014090940151929091166001600160a81b031990931692909217600160a01b91151591909102179055506001949350505050565b6060600061292a8361322a565b600101905060008167ffffffffffffffff81111561294a5761294a6139fc565b6040519080825280601f01601f191660200182016040528015612974576020820181803683370190505b5090508181016020015b600019017f3031323334353637383961626364656600000000000000000000000000000000600a86061a8153600a850494508461297e57509392505050565b336000908152600a602090815260408083208484529091528120546129e3906001612d88565b336000818152600a6020818152604080842088855282528084209590955584516101608101865293845283810183815284860188815260608601858152346080880190815260a0880187815289518881528087018b5260c08a019081528a51898152808801909b5260e08a019a909a52610100890188905261012089018890526101408901889052600b8054600181018255985288517f0175b7a638427703f0dbe7bb9bbf987a2551717b34e79f33b5b1008d1fa01db99890970297880180546001600160a01b03199081166001600160a01b03998a1617825595517f0175b7a638427703f0dbe7bb9bbf987a2551717b34e79f33b5b1008d1fa01dba8a01805490971698169790971790945591517f0175b7a638427703f0dbe7bb9bbf987a2551717b34e79f33b5b1008d1fa01dbb870155517f0175b7a638427703f0dbe7bb9bbf987a2551717b34e79f33b5b1008d1fa01dbc860155517f0175b7a638427703f0dbe7bb9bbf987a2551717b34e79f33b5b1008d1fa01dbd850155517f0175b7a638427703f0dbe7bb9bbf987a2551717b34e79f33b5b1008d1fa01dbe84015593518051939485949293612bc1937f0175b7a638427703f0dbe7bb9bbf987a2551717b34e79f33b5b1008d1fa01dbf909101929091019061390f565b5060e08201518051612bdd91600784019160209091019061390f565b506101008201516008820180546001600160a01b0319166001600160a01b039283161790556101208301516009909201805461014090940151929091166001600160a81b031990931692909217600160a01b911515919091021790555050600b54919050565b6001600160a01b038416612c6d57604051632bfa23e760e11b815260006004820152602401610936565b6001600160a01b038516612c9657604051626a0d4560e21b815260006004820152602401610936565b60408051600180825260208201869052818301908152606082018590526080820190925290612cc88787848487612d35565b50505050505050565b6001600160a01b038316612cfa57604051626a0d4560e21b815260006004820152602401610936565b604080516001808252602082018590528183019081526060820184905260a08201909252600060808201818152919291610cdf918791859085905b612d418585858561330c565b6001600160a01b03841615610cdf5782513390600103612d7a5760208481015190840151612d73838989858589613318565b5050610bdc565b610bdc81878787878761343c565b600080612d958385614107565b90508381101561180e5761180e6142f9565b600080600b612db76001876140de565b81548110612dc757612dc76140f1565b60009182526020918290206040805161016081018252600a90930290910180546001600160a01b039081168452600182015416838501526002810154838301526003810154606084015260048101546080840152600581015460a08401526006810180548351818702810187019094528084529394919360c086019392830182828015612e7357602002820191906000526020600020905b815481526020019060010190808311612e5f575b5050505050815260200160078201805480602002602001604051908101604052809291908181526020018280548015612ecb57602002820191906000526020600020905b815481526020019060010190808311612eb7575b505050918352505060088201546001600160a01b0390811660208301526009909201549182166040820152600160a01b90910460ff16151560609091015290506000612f236064612f1d87600a613525565b9061355d565b90506000805b600086815260096020526040902054811015612fb357600086815260086020908152604080832060099092528220805483919085908110612f6c57612f6c6140f1565b60009182526020808320909101546001600160a01b031683528201929092526040019020549050612f9d8382612d88565b9250508080612fab9061411a565b915050612f29565b506000612fc0838361355d565b905060005b6000878152600960205260409020548110156130b357600087815260086020908152604080832060099092528220805483919085908110613008576130086140f1565b60009182526020808320909101546001600160a01b0316835282019290925260400181205491506130398483613525565b60008a81526009602052604090208054919250908490811061305d5761305d6140f1565b60009182526020822001546040516001600160a01b039091169183156108fc02918491818181858888f1935050505015801561309d573d6000803e3d6000fd5b50505080806130ab9061411a565b915050612fc5565b5060006130c08885613572565b6101008601516040519192506001600160a01b03169082156108fc029083906000818181858888f193505050501580156130fe573d6000803e3d6000fd5b5084600b61310d60018c6140de565b8154811061311d5761311d6140f1565b60009182526020918290208351600a9092020180546001600160a01b039283166001600160a01b0319918216178255848401516001830180549190941691161790915560408301516002820155606083015160038201556080830151600482015560a0830151600582015560c0830151805191926131a39260068501929091019061390f565b5060e082015180516131bf91600784019160209091019061390f565b506101008201516008820180546001600160a01b0319166001600160a01b039283161790556101208301516009909201805461014090940151929091166001600160a81b031990931692909217600160a01b9115159190910217905550600198975050505050505050565b6000807a184f03e93ff9f4daa797ed6e38ed64bf6a1f0100000000000000008310613273577a184f03e93ff9f4daa797ed6e38ed64bf6a1f010000000000000000830492506040015b6d04ee2d6d415b85acef8100000000831061329f576d04ee2d6d415b85acef8100000000830492506020015b662386f26fc1000083106132bd57662386f26fc10000830492506010015b6305f5e10083106132d5576305f5e100830492506008015b61271083106132e957612710830492506004015b606483106132fb576064830492506002015b600a83106107795760010192915050565b6108d68484848461358e565b6001600160a01b0384163b15610bdc5760405163f23a6e6160e01b81526001600160a01b0385169063f23a6e619061335c908990899088908890889060040161430f565b6020604051808303816000875af1925050508015613397575060408051601f3d908101601f1916820190925261339491810190614352565b60015b613400573d8080156133c5576040519150601f19603f3d011682016040523d82523d6000602084013e6133ca565b606091505b5080516000036133f857604051632bfa23e760e11b81526001600160a01b0386166004820152602401610936565b805181602001fd5b6001600160e01b0319811663f23a6e6160e01b14612cc857604051632bfa23e760e11b81526001600160a01b0386166004820152602401610936565b6001600160a01b0384163b15610bdc5760405163bc197c8160e01b81526001600160a01b0385169063bc197c8190613480908990899088908890889060040161436f565b6020604051808303816000875af19250505080156134bb575060408051601f3d908101601f191682019092526134b891810190614352565b60015b6134e9573d8080156133c5576040519150601f19603f3d011682016040523d82523d6000602084013e6133ca565b6001600160e01b0319811663bc197c8160e01b14612cc857604051632bfa23e760e11b81526001600160a01b0386166004820152602401610936565b60008260000361353757506000610779565b600061354383856142e2565b90508261355085836142ce565b1461180e5761180e6142f9565b60008061356a83856142ce565b949350505050565b600082821115613584576135846142f9565b61180e82846140de565b61359a848484846136e8565b6001600160a01b03841661364d576000805b83518110156136335760008382815181106135c9576135c96140f1565b6020026020010151905080600360008785815181106135ea576135ea6140f1565b60200260200101518152602001908152602001600020600082825461360f9190614107565b9091555061361f90508184614107565b9250508061362c9061411a565b90506135ac565b5080600460008282546136469190614107565b9091555050505b6001600160a01b0383166108d6576000805b83518110156136d757600083828151811061367c5761367c6140f1565b60200260200101519050806003600087858151811061369d5761369d6140f1565b6020026020010151815260200190815260200160002060008282540392505081905550808301925050806136d09061411a565b905061365f565b506004805491909103905550505050565b80518251146137175781518151604051635b05999160e01b815260048101929092526024820152604401610936565b3360005b835181101561383f576020818102858101820151908501909101516001600160a01b038816156137e7576000828152602081815260408083206001600160a01b038c168452909152902054818110156137c0576040517f03dee4c50000000000000000000000000000000000000000000000000000000081526001600160a01b038a166004820152602481018290526044810183905260648101849052608401610936565b6000838152602081815260408083206001600160a01b038d16845290915290209082900390555b6001600160a01b0387161561382c576000828152602081815260408083206001600160a01b038b16845290915281208054839290613826908490614107565b90915550505b5050806138389061411a565b905061371b565b5082516001036138c05760208301516000906020840151909150856001600160a01b0316876001600160a01b0316846001600160a01b03167fc3d58168c5ae7397731d063d5bbf3d657854427343f4c083240f7aacaa2d0f6285856040516138b1929190918252602082015260400190565b60405180910390a45050610cdf565b836001600160a01b0316856001600160a01b0316826001600160a01b03167f4a39dc06d4c0dbc64b70af90fd698a233a518aa5d07e595d983b8c0526c8f7fb86866040516117f39291906143cd565b82805482825590600052602060002090810192821561394a579160200282015b8281111561394a57825182559160200191906001019061392f565b5061395692915061395a565b5090565b5b80821115613956576000815560010161395b565b60006020828403121561398157600080fd5b5035919050565b80356001600160a01b0381168114611ece57600080fd5b600080604083850312156139b257600080fd5b6139bb83613988565b946020939093013593505050565b6001600160e01b03198116811461082b57600080fd5b6000602082840312156139f157600080fd5b813561180e816139c9565b634e487b7160e01b600052604160045260246000fd5b604051601f8201601f1916810167ffffffffffffffff81118282101715613a3b57613a3b6139fc565b604052919050565b600067ffffffffffffffff831115613a5d57613a5d6139fc565b613a70601f8401601f1916602001613a12565b9050828152838383011115613a8457600080fd5b828260208301376000602084830101529392505050565b600060208284031215613aad57600080fd5b813567ffffffffffffffff811115613ac457600080fd5b8201601f81018413613ad557600080fd5b61356a84823560208401613a43565b60005b83811015613aff578181015183820152602001613ae7565b50506000910152565b60008151808452613b20816020860160208601613ae4565b601f01601f19169290920160200192915050565b60208152600061180e6020830184613b08565b600067ffffffffffffffff821115613b6157613b616139fc565b5060051b60200190565b600082601f830112613b7c57600080fd5b81356020613b91613b8c83613b47565b613a12565b82815260059290921b84018101918181019086841115613bb057600080fd5b8286015b84811015613bcb5780358352918301918301613bb4565b509695505050505050565b600082601f830112613be757600080fd5b61180e83833560208501613a43565b60008060008060808587031215613c0c57600080fd5b613c1585613988565b9350602085013567ffffffffffffffff80821115613c3257600080fd5b613c3e88838901613b6b565b94506040870135915080821115613c5457600080fd5b613c6088838901613b6b565b93506060870135915080821115613c7657600080fd5b50613c8387828801613bd6565b91505092959194509250565b60008060408385031215613ca257600080fd5b82359150602083013567ffffffffffffffff811115613cc057600080fd5b613ccc85828601613b6b565b9150509250929050565b600080600080600060a08688031215613cee57600080fd5b613cf786613988565b9450613d0560208701613988565b9350604086013567ffffffffffffffff80821115613d2257600080fd5b613d2e89838a01613b6b565b94506060880135915080821115613d4457600080fd5b613d5089838a01613b6b565b93506080880135915080821115613d6657600080fd5b50613d7388828901613bd6565b9150509295509295909350565b60008060408385031215613d9357600080fd5b50508035926020909101359150565b60008060408385031215613db557600080fd5b823567ffffffffffffffff80821115613dcd57600080fd5b818501915085601f830112613de157600080fd5b81356020613df1613b8c83613b47565b82815260059290921b84018101918181019089841115613e1057600080fd5b948201945b83861015613e3557613e2686613988565b82529482019490820190613e15565b96505086013592505080821115613e4b57600080fd5b50613ccc85828601613b6b565b600081518084526020808501945080840160005b83811015613e8857815187529582019590820190600101613e6c565b509495945050505050565b60208152600061180e6020830184613e58565b60008060008060808587031215613ebc57600080fd5b613ec585613988565b93506020850135925060408501359150606085013567ffffffffffffffff811115613eef57600080fd5b613c8387828801613bd6565b600060208284031215613f0d57600080fd5b61180e82613988565b60008060408385031215613f2957600080fd5b613f3283613988565b915060208301358015158114613f4757600080fd5b809150509250929050565b60008060008060808587031215613f6857600080fd5b843593506020850135925060408501359150606085013567ffffffffffffffff811115613f9457600080fd5b613c8387828801613b6b565b60008060408385031215613fb357600080fd5b82359150613fc360208401613988565b90509250929050565b60008060408385031215613fdf57600080fd5b613fe883613988565b9150613fc360208401613988565b600080600080600060a0868803121561400e57600080fd5b61401786613988565b945061402560208701613988565b93506040860135925060608601359150608086013567ffffffffffffffff81111561404f57600080fd5b613d7388828901613bd6565b60008060006060848603121561407057600080fd5b61407984613988565b95602085013595506040909401359392505050565b600181811c908216806140a257607f821691505b6020821081036140c257634e487b7160e01b600052602260045260246000fd5b50919050565b634e487b7160e01b600052601160045260246000fd5b81810381811115610779576107796140c8565b634e487b7160e01b600052603260045260246000fd5b80820180821115610779576107796140c8565b60006001820161412c5761412c6140c8565b5060010190565b7f687474703a2f2f35312e33382e3139302e3133343a313135362f6170692f636181527f7264732f00000000000000000000000000000000000000000000000000000000602082015260008251614191816024850160208701613ae4565b9190910160240192915050565b601f821115611abd57600081815260208120601f850160051c810160208610156141c55750805b601f850160051c820191505b81811015610bdc578281556001016141d1565b815167ffffffffffffffff8111156141fe576141fe6139fc565b6142128161420c845461408e565b8461419e565b602080601f831160018114614247576000841561422f5750858301515b600019600386901b1c1916600185901b178555610bdc565b600085815260208120601f198616915b8281101561427657888601518255948401946001909101908401614257565b50858210156142945787850151600019600388901b60f8161c191681555b5050505050600190811b01905550565b634e487b7160e01b600052601260045260246000fd5b6000826142c9576142c96142a4565b500690565b6000826142dd576142dd6142a4565b500490565b8082028115828204841417610779576107796140c8565b634e487b7160e01b600052600160045260246000fd5b60006001600160a01b03808816835280871660208401525084604083015283606083015260a0608083015261434760a0830184613b08565b979650505050505050565b60006020828403121561436457600080fd5b815161180e816139c9565b60006001600160a01b03808816835280871660208401525060a0604083015261439b60a0830186613e58565b82810360608401526143ad8186613e58565b905082810360808401526143c18185613b08565b98975050505050505050565b6040815260006143e06040830185613e58565b82810360208401526143f28185613e58565b9594505050505056fea264697066735822122027819d89baa6874a4bba7168abafbb46eea22a44a243d8f69348043469190d2a64736f6c63430008140033687474703a2f2f35312e33382e3139302e3133343a313135352f63617264732f7b69647d2e6a736f6e","opcodes":"PUSH1 0x80 PUSH1 0x40 MSTORE PUSH1 0x9 PUSH1 0x6 SSTORE PUSH1 0x0 PUSH1 0x7 SSTORE CALLVALUE DUP1 ISZERO PUSH3 0x1B JUMPI PUSH1 0x0 DUP1 REVERT JUMPDEST POP CALLER PUSH1 0x40 MLOAD DUP1 PUSH1 0x60 ADD PUSH1 0x40 MSTORE DUP1 PUSH1 0x29 DUP2 MSTORE PUSH1 0x20 ADD PUSH3 0x469A PUSH1 0x29 SWAP2 CODECOPY PUSH3 0x42 DUP2 PUSH3 0x84 JUMP JUMPDEST POP PUSH1 0x1 PUSH1 0x1 PUSH1 0xA0 SHL SUB DUP2 AND PUSH3 0x72 JUMPI PUSH1 0x40 MLOAD PUSH4 0x1E4FBDF7 PUSH1 0xE0 SHL DUP2 MSTORE PUSH1 0x0 PUSH1 0x4 DUP3 ADD MSTORE PUSH1 0x24 ADD PUSH1 0x40 MLOAD DUP1 SWAP2 SUB SWAP1 REVERT JUMPDEST PUSH3 0x7D DUP2 PUSH3 0x96 JUMP JUMPDEST POP PUSH3 0x259 JUMP JUMPDEST PUSH1 0x2 PUSH3 0x92 DUP3 DUP3 PUSH3 0x18D JUMP JUMPDEST POP POP JUMP JUMPDEST PUSH1 0x5 DUP1 SLOAD PUSH1 0x1 PUSH1 0x1 PUSH1 0xA0 SHL SUB DUP4 DUP2 AND PUSH1 0x1 PUSH1 0x1 PUSH1 0xA0 SHL SUB NOT DUP4 AND DUP2 OR SWAP1 SWAP4 SSTORE PUSH1 0x40 MLOAD SWAP2 AND SWAP2 SWAP1 DUP3 SWAP1 PUSH32 0x8BE0079C531659141344CD1FD0A4F28419497F9722A3DAAFE3B4186F6B6457E0 SWAP1 PUSH1 0x0 SWAP1 LOG3 POP POP JUMP JUMPDEST PUSH4 0x4E487B71 PUSH1 0xE0 SHL PUSH1 0x0 MSTORE PUSH1 0x41 PUSH1 0x4 MSTORE PUSH1 0x24 PUSH1 0x0 REVERT JUMPDEST PUSH1 0x1 DUP2 DUP2 SHR SWAP1 DUP3 AND DUP1 PUSH3 0x113 JUMPI PUSH1 0x7F DUP3 AND SWAP2 POP JUMPDEST PUSH1 0x20 DUP3 LT DUP2 SUB PUSH3 0x134 JUMPI PUSH4 0x4E487B71 PUSH1 0xE0 SHL PUSH1 0x0 MSTORE PUSH1 0x22 PUSH1 0x4 MSTORE PUSH1 0x24 PUSH1 0x0 REVERT JUMPDEST POP SWAP2 SWAP1 POP JUMP JUMPDEST PUSH1 0x1F DUP3 GT ISZERO PUSH3 0x188 JUMPI PUSH1 0x0 DUP2 DUP2 MSTORE PUSH1 0x20 DUP2 KECCAK256 PUSH1 0x1F DUP6 ADD PUSH1 0x5 SHR DUP2 ADD PUSH1 0x20 DUP7 LT ISZERO PUSH3 0x163 JUMPI POP DUP1 JUMPDEST PUSH1 0x1F DUP6 ADD PUSH1 0x5 SHR DUP3 ADD SWAP2 POP JUMPDEST DUP2 DUP2 LT ISZERO PUSH3 0x184 JUMPI DUP3 DUP2 SSTORE PUSH1 0x1 ADD PUSH3 0x16F JUMP JUMPDEST POP POP POP JUMPDEST POP POP POP JUMP JUMPDEST DUP2 MLOAD PUSH1 0x1 PUSH1 0x1 PUSH1 0x40 SHL SUB DUP2 GT ISZERO PUSH3 0x1A9 JUMPI PUSH3 0x1A9 PUSH3 0xE8 JUMP JUMPDEST PUSH3 0x1C1 DUP2 PUSH3 0x1BA DUP5 SLOAD PUSH3 0xFE JUMP JUMPDEST DUP5 PUSH3 0x13A JUMP JUMPDEST PUSH1 0x20 DUP1 PUSH1 0x1F DUP4 GT PUSH1 0x1 DUP2 EQ PUSH3 0x1F9 JUMPI PUSH1 0x0 DUP5 ISZERO PUSH3 0x1E0 JUMPI POP DUP6 DUP4 ADD MLOAD JUMPDEST PUSH1 0x0 NOT PUSH1 0x3 DUP7 SWAP1 SHL SHR NOT AND PUSH1 0x1 DUP6 SWAP1 SHL OR DUP6 SSTORE PUSH3 0x184 JUMP JUMPDEST PUSH1 0x0 DUP6 DUP2 MSTORE PUSH1 0x20 DUP2 KECCAK256 PUSH1 0x1F NOT DUP7 AND SWAP2 JUMPDEST DUP3 DUP2 LT ISZERO PUSH3 0x22A JUMPI DUP9 DUP7 ADD MLOAD DUP3 SSTORE SWAP5 DUP5 ADD SWAP5 PUSH1 0x1 SWAP1 SWAP2 ADD SWAP1 DUP5 ADD PUSH3 0x209 JUMP JUMPDEST POP DUP6 DUP3 LT ISZERO PUSH3 0x249 JUMPI DUP8 DUP6 ADD MLOAD PUSH1 0x0 NOT PUSH1 0x3 DUP9 SWAP1 SHL PUSH1 0xF8 AND SHR NOT AND DUP2 SSTORE JUMPDEST POP POP POP POP POP PUSH1 0x1 SWAP1 DUP2 SHL ADD SWAP1 SSTORE POP JUMP JUMPDEST PUSH2 0x4431 DUP1 PUSH3 0x269 PUSH1 0x0 CODECOPY PUSH1 0x0 RETURN INVALID PUSH1 0x80 PUSH1 0x40 MSTORE PUSH1 0x4 CALLDATASIZE LT PUSH2 0x217 JUMPI PUSH1 0x0 CALLDATALOAD PUSH1 0xE0 SHR DUP1 PUSH4 0x777D45FD GT PUSH2 0x11D JUMPI DUP1 PUSH4 0xBFA0AF6D GT PUSH2 0xB0 JUMPI DUP1 PUSH4 0xEFEE7C3B GT PUSH2 0x7F JUMPI DUP1 PUSH4 0xF242432A GT PUSH2 0x64 JUMPI DUP1 PUSH4 0xF242432A EQ PUSH2 0x6B4 JUMPI DUP1 PUSH4 0xF2FDE38B EQ PUSH2 0x6D4 JUMPI DUP1 PUSH4 0xF5298ACA EQ PUSH2 0x6F4 JUMPI PUSH1 0x0 DUP1 REVERT JUMPDEST DUP1 PUSH4 0xEFEE7C3B EQ PUSH2 0x669 JUMPI DUP1 PUSH4 0xEFEFB0DD EQ PUSH2 0x67C JUMPI PUSH1 0x0 DUP1 REVERT JUMPDEST DUP1 PUSH4 0xBFA0AF6D EQ PUSH2 0x5A8 JUMPI DUP1 PUSH4 0xC87B56DD EQ PUSH2 0x5C8 JUMPI DUP1 PUSH4 0xE985E9C5 EQ PUSH2 0x5E8 JUMPI DUP1 PUSH4 0xE9994267 EQ PUSH2 0x631 JUMPI PUSH1 0x0 DUP1 REVERT JUMPDEST DUP1 PUSH4 0xA22CB465 GT PUSH2 0xEC JUMPI DUP1 PUSH4 0xA22CB465 EQ PUSH2 0x532 JUMPI DUP1 PUSH4 0xAFEEF48F EQ PUSH2 0x552 JUMPI DUP1 PUSH4 0xAFFED0E0 EQ PUSH2 0x565 JUMPI DUP1 PUSH4 0xBD85B039 EQ PUSH2 0x57B JUMPI PUSH1 0x0 DUP1 REVERT JUMPDEST DUP1 PUSH4 0x777D45FD EQ PUSH2 0x4BE JUMPI DUP1 PUSH4 0x8DA5CB5B EQ PUSH2 0x4DE JUMPI DUP1 PUSH4 0x8DA7722A EQ PUSH2 0x4FC JUMPI DUP1 PUSH4 0x9347FB3D EQ PUSH2 0x512 JUMPI PUSH1 0x0 DUP1 REVERT JUMPDEST DUP1 PUSH4 0x2EB2C2D6 GT PUSH2 0x1B0 JUMPI DUP1 PUSH4 0x4E1273F4 GT PUSH2 0x17F JUMPI DUP1 PUSH4 0x606D2E96 GT PUSH2 0x164 JUMPI DUP1 PUSH4 0x606D2E96 EQ PUSH2 0x414 JUMPI DUP1 PUSH4 0x715018A6 EQ PUSH2 0x489 JUMPI DUP1 PUSH4 0x731133E9 EQ PUSH2 0x49E JUMPI PUSH1 0x0 DUP1 REVERT JUMPDEST DUP1 PUSH4 0x4E1273F4 EQ PUSH2 0x3B8 JUMPI DUP1 PUSH4 0x4F558E79 EQ PUSH2 0x3E5 JUMPI PUSH1 0x0 DUP1 REVERT JUMPDEST DUP1 PUSH4 0x2EB2C2D6 EQ PUSH2 0x343 JUMPI DUP1 PUSH4 0x34303187 EQ PUSH2 0x363 JUMPI DUP1 PUSH4 0x3C4EA385 EQ PUSH2 0x39B JUMPI DUP1 PUSH4 0x4673F332 EQ PUSH2 0x3A3 JUMPI PUSH1 0x0 DUP1 REVERT JUMPDEST DUP1 PUSH4 0xE89341C GT PUSH2 0x1EC JUMPI DUP1 PUSH4 0xE89341C EQ PUSH2 0x2C1 JUMPI DUP1 PUSH4 0x18160DDD EQ PUSH2 0x2EE JUMPI DUP1 PUSH4 0x1F7FDFFA EQ PUSH2 0x303 JUMPI DUP1 PUSH4 0x27343190 EQ PUSH2 0x323 JUMPI PUSH1 0x0 DUP1 REVERT JUMPDEST DUP1 PUSH3 0x66FD0D EQ PUSH2 0x21C JUMPI DUP1 PUSH3 0xFDD58E EQ PUSH2 0x23E JUMPI DUP1 PUSH4 0x1FFC9A7 EQ PUSH2 0x271 JUMPI DUP1 PUSH4 0x2FE5305 EQ PUSH2 0x2A1 JUMPI JUMPDEST PUSH1 0x0 DUP1 REVERT JUMPDEST CALLVALUE DUP1 ISZERO PUSH2 0x228 JUMPI PUSH1 0x0 DUP1 REVERT JUMPDEST POP PUSH2 0x23C PUSH2 0x237 CALLDATASIZE PUSH1 0x4 PUSH2 0x396F JUMP JUMPDEST PUSH2 0x714 JUMP JUMPDEST STOP JUMPDEST CALLVALUE DUP1 ISZERO PUSH2 0x24A JUMPI PUSH1 0x0 DUP1 REVERT JUMPDEST POP PUSH2 0x25E PUSH2 0x259 CALLDATASIZE PUSH1 0x4 PUSH2 0x399F JUMP JUMPDEST PUSH2 0x757 JUMP JUMPDEST PUSH1 0x40 MLOAD SWAP1 DUP2 MSTORE PUSH1 0x20 ADD JUMPDEST PUSH1 0x40 MLOAD DUP1 SWAP2 SUB SWAP1 RETURN JUMPDEST CALLVALUE DUP1 ISZERO PUSH2 0x27D JUMPI PUSH1 0x0 DUP1 REVERT JUMPDEST POP PUSH2 0x291 PUSH2 0x28C CALLDATASIZE PUSH1 0x4 PUSH2 0x39DF JUMP JUMPDEST PUSH2 0x77F JUMP JUMPDEST PUSH1 0x40 MLOAD SWAP1 ISZERO ISZERO DUP2 MSTORE PUSH1 0x20 ADD PUSH2 0x268 JUMP JUMPDEST CALLVALUE DUP1 ISZERO PUSH2 0x2AD JUMPI PUSH1 0x0 DUP1 REVERT JUMPDEST POP PUSH2 0x23C PUSH2 0x2BC CALLDATASIZE PUSH1 0x4 PUSH2 0x3A9B JUMP JUMPDEST PUSH2 0x81A JUMP JUMPDEST CALLVALUE DUP1 ISZERO PUSH2 0x2CD JUMPI PUSH1 0x0 DUP1 REVERT JUMPDEST POP PUSH2 0x2E1 PUSH2 0x2DC CALLDATASIZE PUSH1 0x4 PUSH2 0x396F JUMP JUMPDEST PUSH2 0x82E JUMP JUMPDEST PUSH1 0x40 MLOAD PUSH2 0x268 SWAP2 SWAP1 PUSH2 0x3B34 JUMP JUMPDEST CALLVALUE DUP1 ISZERO PUSH2 0x2FA JUMPI PUSH1 0x0 DUP1 REVERT JUMPDEST POP PUSH1 0x4 SLOAD PUSH2 0x25E JUMP JUMPDEST CALLVALUE DUP1 ISZERO PUSH2 0x30F JUMPI PUSH1 0x0 DUP1 REVERT JUMPDEST POP PUSH2 0x23C PUSH2 0x31E CALLDATASIZE PUSH1 0x4 PUSH2 0x3BF6 JUMP JUMPDEST PUSH2 0x8C2 JUMP JUMPDEST CALLVALUE DUP1 ISZERO PUSH2 0x32F JUMPI PUSH1 0x0 DUP1 REVERT JUMPDEST POP PUSH2 0x23C PUSH2 0x33E CALLDATASIZE PUSH1 0x4 PUSH2 0x3C8F JUMP JUMPDEST PUSH2 0x8DC JUMP JUMPDEST CALLVALUE DUP1 ISZERO PUSH2 0x34F JUMPI PUSH1 0x0 DUP1 REVERT JUMPDEST POP PUSH2 0x23C PUSH2 0x35E CALLDATASIZE PUSH1 0x4 PUSH2 0x3CD6 JUMP JUMPDEST PUSH2 0xB5E JUMP JUMPDEST CALLVALUE DUP1 ISZERO PUSH2 0x36F JUMPI PUSH1 0x0 DUP1 REVERT JUMPDEST POP PUSH2 0x383 PUSH2 0x37E CALLDATASIZE PUSH1 0x4 PUSH2 0x3D80 JUMP JUMPDEST PUSH2 0xBE4 JUMP JUMPDEST PUSH1 0x40 MLOAD PUSH1 0x1 PUSH1 0x1 PUSH1 0xA0 SHL SUB SWAP1 SWAP2 AND DUP2 MSTORE PUSH1 0x20 ADD PUSH2 0x268 JUMP JUMPDEST PUSH2 0x23C PUSH2 0xC1C JUMP JUMPDEST CALLVALUE DUP1 ISZERO PUSH2 0x3AF JUMPI PUSH1 0x0 DUP1 REVERT JUMPDEST POP PUSH1 0x6 SLOAD PUSH2 0x25E JUMP JUMPDEST CALLVALUE DUP1 ISZERO PUSH2 0x3C4 JUMPI PUSH1 0x0 DUP1 REVERT JUMPDEST POP PUSH2 0x3D8 PUSH2 0x3D3 CALLDATASIZE PUSH1 0x4 PUSH2 0x3DA2 JUMP JUMPDEST PUSH2 0xCE6 JUMP JUMPDEST PUSH1 0x40 MLOAD PUSH2 0x268 SWAP2 SWAP1 PUSH2 0x3E93 JUMP JUMPDEST CALLVALUE DUP1 ISZERO PUSH2 0x3F1 JUMPI PUSH1 0x0 DUP1 REVERT JUMPDEST POP PUSH2 0x291 PUSH2 0x400 CALLDATASIZE PUSH1 0x4 PUSH2 0x396F JUMP JUMPDEST PUSH1 0x0 SWAP1 DUP2 MSTORE PUSH1 0x3 PUSH1 0x20 MSTORE PUSH1 0x40 SWAP1 KECCAK256 SLOAD ISZERO ISZERO SWAP1 JUMP JUMPDEST CALLVALUE DUP1 ISZERO PUSH2 0x420 JUMPI PUSH1 0x0 DUP1 REVERT JUMPDEST POP PUSH2 0x434 PUSH2 0x42F CALLDATASIZE PUSH1 0x4 PUSH2 0x396F JUMP JUMPDEST PUSH2 0xDBB JUMP JUMPDEST PUSH1 0x40 DUP1 MLOAD PUSH1 0x1 PUSH1 0x1 PUSH1 0xA0 SHL SUB SWAP11 DUP12 AND DUP2 MSTORE SWAP9 DUP11 AND PUSH1 0x20 DUP11 ADD MSTORE DUP9 ADD SWAP7 SWAP1 SWAP7 MSTORE PUSH1 0x60 DUP8 ADD SWAP5 SWAP1 SWAP5 MSTORE PUSH1 0x80 DUP7 ADD SWAP3 SWAP1 SWAP3 MSTORE PUSH1 0xA0 DUP6 ADD MSTORE DUP5 AND PUSH1 0xC0 DUP5 ADD MSTORE SWAP1 SWAP3 AND PUSH1 0xE0 DUP3 ADD MSTORE SWAP1 ISZERO ISZERO PUSH2 0x100 DUP3 ADD MSTORE PUSH2 0x120 ADD PUSH2 0x268 JUMP JUMPDEST CALLVALUE DUP1 ISZERO PUSH2 0x495 JUMPI PUSH1 0x0 DUP1 REVERT JUMPDEST POP PUSH2 0x23C PUSH2 0xE2F JUMP JUMPDEST CALLVALUE DUP1 ISZERO PUSH2 0x4AA JUMPI PUSH1 0x0 DUP1 REVERT JUMPDEST POP PUSH2 0x23C PUSH2 0x4B9 CALLDATASIZE PUSH1 0x4 PUSH2 0x3EA6 JUMP JUMPDEST PUSH2 0xE43 JUMP JUMPDEST CALLVALUE DUP1 ISZERO PUSH2 0x4CA JUMPI PUSH1 0x0 DUP1 REVERT JUMPDEST POP PUSH2 0x23C PUSH2 0x4D9 CALLDATASIZE PUSH1 0x4 PUSH2 0x396F JUMP JUMPDEST PUSH2 0xE57 JUMP JUMPDEST CALLVALUE DUP1 ISZERO PUSH2 0x4EA JUMPI PUSH1 0x0 DUP1 REVERT JUMPDEST POP PUSH1 0x5 SLOAD PUSH1 0x1 PUSH1 0x1 PUSH1 0xA0 SHL SUB AND PUSH2 0x383 JUMP JUMPDEST CALLVALUE DUP1 ISZERO PUSH2 0x508 JUMPI PUSH1 0x0 DUP1 REVERT JUMPDEST POP PUSH2 0x25E PUSH1 0x6 SLOAD DUP2 JUMP JUMPDEST CALLVALUE DUP1 ISZERO PUSH2 0x51E JUMPI PUSH1 0x0 DUP1 REVERT JUMPDEST POP PUSH2 0x3D8 PUSH2 0x52D CALLDATASIZE PUSH1 0x4 PUSH2 0x3EFB JUMP JUMPDEST PUSH2 0x13DE JUMP JUMPDEST CALLVALUE DUP1 ISZERO PUSH2 0x53E JUMPI PUSH1 0x0 DUP1 REVERT JUMPDEST POP PUSH2 0x23C PUSH2 0x54D CALLDATASIZE PUSH1 0x4 PUSH2 0x3F16 JUMP JUMPDEST PUSH2 0x1493 JUMP JUMPDEST PUSH2 0x23C PUSH2 0x560 CALLDATASIZE PUSH1 0x4 PUSH2 0x3F52 JUMP JUMPDEST PUSH2 0x14A2 JUMP JUMPDEST CALLVALUE DUP1 ISZERO PUSH2 0x571 JUMPI PUSH1 0x0 DUP1 REVERT JUMPDEST POP PUSH2 0x25E PUSH1 0x7 SLOAD DUP2 JUMP JUMPDEST CALLVALUE DUP1 ISZERO PUSH2 0x587 JUMPI PUSH1 0x0 DUP1 REVERT JUMPDEST POP PUSH2 0x25E PUSH2 0x596 CALLDATASIZE PUSH1 0x4 PUSH2 0x396F JUMP JUMPDEST PUSH1 0x0 SWAP1 DUP2 MSTORE PUSH1 0x3 PUSH1 0x20 MSTORE PUSH1 0x40 SWAP1 KECCAK256 SLOAD SWAP1 JUMP JUMPDEST CALLVALUE DUP1 ISZERO PUSH2 0x5B4 JUMPI PUSH1 0x0 DUP1 REVERT JUMPDEST POP PUSH2 0x25E PUSH2 0x5C3 CALLDATASIZE PUSH1 0x4 PUSH2 0x3FA0 JUMP JUMPDEST PUSH2 0x1802 JUMP JUMPDEST CALLVALUE DUP1 ISZERO PUSH2 0x5D4 JUMPI PUSH1 0x0 DUP1 REVERT JUMPDEST POP PUSH2 0x2E1 PUSH2 0x5E3 CALLDATASIZE PUSH1 0x4 PUSH2 0x396F JUMP JUMPDEST PUSH2 0x1815 JUMP JUMPDEST CALLVALUE DUP1 ISZERO PUSH2 0x5F4 JUMPI PUSH1 0x0 DUP1 REVERT JUMPDEST POP PUSH2 0x291 PUSH2 0x603 CALLDATASIZE PUSH1 0x4 PUSH2 0x3FCC JUMP JUMPDEST PUSH1 0x1 PUSH1 0x1 PUSH1 0xA0 SHL SUB SWAP2 DUP3 AND PUSH1 0x0 SWAP1 DUP2 MSTORE PUSH1 0x1 PUSH1 0x20 SWAP1 DUP2 MSTORE PUSH1 0x40 DUP1 DUP4 KECCAK256 SWAP4 SWAP1 SWAP5 AND DUP3 MSTORE SWAP2 SWAP1 SWAP2 MSTORE KECCAK256 SLOAD PUSH1 0xFF AND SWAP1 JUMP JUMPDEST CALLVALUE DUP1 ISZERO PUSH2 0x63D JUMPI PUSH1 0x0 DUP1 REVERT JUMPDEST POP PUSH2 0x25E PUSH2 0x64C CALLDATASIZE PUSH1 0x4 PUSH2 0x3FA0 JUMP JUMPDEST PUSH1 0x8 PUSH1 0x20 SWAP1 DUP2 MSTORE PUSH1 0x0 SWAP3 DUP4 MSTORE PUSH1 0x40 DUP1 DUP5 KECCAK256 SWAP1 SWAP2 MSTORE SWAP1 DUP3 MSTORE SWAP1 KECCAK256 SLOAD DUP2 JUMP JUMPDEST PUSH2 0x23C PUSH2 0x677 CALLDATASIZE PUSH1 0x4 PUSH2 0x3D80 JUMP JUMPDEST PUSH2 0x1846 JUMP JUMPDEST CALLVALUE DUP1 ISZERO PUSH2 0x688 JUMPI PUSH1 0x0 DUP1 REVERT JUMPDEST POP PUSH2 0x25E PUSH2 0x697 CALLDATASIZE PUSH1 0x4 PUSH2 0x399F JUMP JUMPDEST PUSH1 0xA PUSH1 0x20 SWAP1 DUP2 MSTORE PUSH1 0x0 SWAP3 DUP4 MSTORE PUSH1 0x40 DUP1 DUP5 KECCAK256 SWAP1 SWAP2 MSTORE SWAP1 DUP3 MSTORE SWAP1 KECCAK256 SLOAD DUP2 JUMP JUMPDEST CALLVALUE DUP1 ISZERO PUSH2 0x6C0 JUMPI PUSH1 0x0 DUP1 REVERT JUMPDEST POP PUSH2 0x23C PUSH2 0x6CF CALLDATASIZE PUSH1 0x4 PUSH2 0x3FF6 JUMP JUMPDEST PUSH2 0x19E0 JUMP JUMPDEST CALLVALUE DUP1 ISZERO PUSH2 0x6E0 JUMPI PUSH1 0x0 DUP1 REVERT JUMPDEST POP PUSH2 0x23C PUSH2 0x6EF CALLDATASIZE PUSH1 0x4 PUSH2 0x3EFB JUMP JUMPDEST PUSH2 0x1A5E JUMP JUMPDEST CALLVALUE DUP1 ISZERO PUSH2 0x700 JUMPI PUSH1 0x0 DUP1 REVERT JUMPDEST POP PUSH2 0x23C PUSH2 0x70F CALLDATASIZE PUSH1 0x4 PUSH2 0x405B JUMP JUMPDEST PUSH2 0x1AB2 JUMP JUMPDEST PUSH2 0x71C PUSH2 0x1AC2 JUMP JUMPDEST PUSH1 0x6 DUP2 SWAP1 SSTORE PUSH1 0x40 MLOAD DUP2 DUP2 MSTORE PUSH32 0x2CA7491C41B198F60823C9DA02CA440DCA6BFB5D6CD4AE0DF705CC35DE252FB3 SWAP1 PUSH1 0x20 ADD PUSH1 0x40 MLOAD DUP1 SWAP2 SUB SWAP1 LOG1 POP JUMP JUMPDEST PUSH1 0x0 DUP2 DUP2 MSTORE PUSH1 0x20 DUP2 DUP2 MSTORE PUSH1 0x40 DUP1 DUP4 KECCAK256 PUSH1 0x1 PUSH1 0x1 PUSH1 0xA0 SHL SUB DUP7 AND DUP5 MSTORE SWAP1 SWAP2 MSTORE SWAP1 KECCAK256 SLOAD JUMPDEST SWAP3 SWAP2 POP POP JUMP JUMPDEST PUSH1 0x0 PUSH1 0x1 PUSH1 0x1 PUSH1 0xE0 SHL SUB NOT DUP3 AND PUSH32 0xD9B67A2600000000000000000000000000000000000000000000000000000000 EQ DUP1 PUSH2 0x7E2 JUMPI POP PUSH1 0x1 PUSH1 0x1 PUSH1 0xE0 SHL SUB NOT DUP3 AND PUSH32 0xE89341C00000000000000000000000000000000000000000000000000000000 EQ JUMPDEST DUP1 PUSH2 0x779 JUMPI POP PUSH32 0x1FFC9A700000000000000000000000000000000000000000000000000000000 PUSH1 0x1 PUSH1 0x1 PUSH1 0xE0 SHL SUB NOT DUP4 AND EQ PUSH2 0x779 JUMP JUMPDEST PUSH2 0x822 PUSH2 0x1AC2 JUMP JUMPDEST PUSH2 0x82B DUP2 PUSH2 0x1B08 JUMP JUMPDEST POP JUMP JUMPDEST PUSH1 0x60 PUSH1 0x2 DUP1 SLOAD PUSH2 0x83D SWAP1 PUSH2 0x408E JUMP JUMPDEST DUP1 PUSH1 0x1F ADD PUSH1 0x20 DUP1 SWAP2 DIV MUL PUSH1 0x20 ADD PUSH1 0x40 MLOAD SWAP1 DUP2 ADD PUSH1 0x40 MSTORE DUP1 SWAP3 SWAP2 SWAP1 DUP2 DUP2 MSTORE PUSH1 0x20 ADD DUP3 DUP1 SLOAD PUSH2 0x869 SWAP1 PUSH2 0x408E JUMP JUMPDEST DUP1 ISZERO PUSH2 0x8B6 JUMPI DUP1 PUSH1 0x1F LT PUSH2 0x88B JUMPI PUSH2 0x100 DUP1 DUP4 SLOAD DIV MUL DUP4 MSTORE SWAP2 PUSH1 0x20 ADD SWAP2 PUSH2 0x8B6 JUMP JUMPDEST DUP3 ADD SWAP2 SWAP1 PUSH1 0x0 MSTORE PUSH1 0x20 PUSH1 0x0 KECCAK256 SWAP1 JUMPDEST DUP2 SLOAD DUP2 MSTORE SWAP1 PUSH1 0x1 ADD SWAP1 PUSH1 0x20 ADD DUP1 DUP4 GT PUSH2 0x899 JUMPI DUP3 SWAP1 SUB PUSH1 0x1F AND DUP3 ADD SWAP2 JUMPDEST POP POP POP POP POP SWAP1 POP SWAP2 SWAP1 POP JUMP JUMPDEST PUSH2 0x8CA PUSH2 0x1AC2 JUMP JUMPDEST PUSH2 0x8D6 DUP5 DUP5 DUP5 DUP5 PUSH2 0x1B14 JUMP JUMPDEST POP POP POP POP JUMP JUMPDEST PUSH1 0x0 DUP3 GT DUP1 ISZERO PUSH2 0x8EE JUMPI POP PUSH1 0xB SLOAD DUP3 GT ISZERO JUMPDEST PUSH2 0x93F JUMPI PUSH1 0x40 MLOAD PUSH3 0x461BCD PUSH1 0xE5 SHL DUP2 MSTORE PUSH1 0x20 PUSH1 0x4 DUP3 ADD MSTORE PUSH1 0x19 PUSH1 0x24 DUP3 ADD MSTORE PUSH32 0x5468697320626174746C6520646F65736E277420657869737400000000000000 PUSH1 0x44 DUP3 ADD MSTORE PUSH1 0x64 ADD JUMPDEST PUSH1 0x40 MLOAD DUP1 SWAP2 SUB SWAP1 REVERT JUMPDEST CALLER PUSH1 0xB PUSH2 0x94D PUSH1 0x1 DUP6 PUSH2 0x40DE JUMP JUMPDEST DUP2 SLOAD DUP2 LT PUSH2 0x95D JUMPI PUSH2 0x95D PUSH2 0x40F1 JUMP JUMPDEST PUSH1 0x0 SWAP2 DUP3 MSTORE PUSH1 0x20 SWAP1 SWAP2 KECCAK256 PUSH1 0xA SWAP1 SWAP2 MUL ADD SLOAD PUSH1 0x1 PUSH1 0x1 PUSH1 0xA0 SHL SUB AND EQ PUSH2 0x9C4 JUMPI PUSH1 0x40 MLOAD PUSH3 0x461BCD PUSH1 0xE5 SHL DUP2 MSTORE PUSH1 0x20 PUSH1 0x4 DUP3 ADD MSTORE PUSH1 0x1F PUSH1 0x24 DUP3 ADD MSTORE PUSH32 0x596F7520617265206E6F742070617274206F66207468697320626174746C6500 PUSH1 0x44 DUP3 ADD MSTORE PUSH1 0x64 ADD PUSH2 0x936 JUMP JUMPDEST PUSH1 0x0 PUSH1 0xB PUSH2 0x9D3 PUSH1 0x1 DUP6 PUSH2 0x40DE JUMP JUMPDEST DUP2 SLOAD DUP2 LT PUSH2 0x9E3 JUMPI PUSH2 0x9E3 PUSH2 0x40F1 JUMP JUMPDEST PUSH1 0x0 SWAP2 DUP3 MSTORE PUSH1 0x20 SWAP1 SWAP2 KECCAK256 PUSH1 0x1 PUSH1 0xA SWAP1 SWAP3 MUL ADD ADD SLOAD PUSH1 0x1 PUSH1 0x1 PUSH1 0xA0 SHL SUB AND SUB PUSH2 0xA4D JUMPI PUSH1 0x40 MLOAD PUSH3 0x461BCD PUSH1 0xE5 SHL DUP2 MSTORE PUSH1 0x20 PUSH1 0x4 DUP3 ADD MSTORE PUSH1 0x17 PUSH1 0x24 DUP3 ADD MSTORE PUSH32 0x5468697320626174746C65206973206E6F742066756C6C000000000000000000 PUSH1 0x44 DUP3 ADD MSTORE PUSH1 0x64 ADD PUSH2 0x936 JUMP JUMPDEST DUP1 MLOAD PUSH1 0x3 EQ PUSH2 0xA9E JUMPI PUSH1 0x40 MLOAD PUSH3 0x461BCD PUSH1 0xE5 SHL DUP2 MSTORE PUSH1 0x20 PUSH1 0x4 DUP3 ADD MSTORE PUSH1 0x18 PUSH1 0x24 DUP3 ADD MSTORE PUSH32 0x596F75206E65656420746F2073656E6420332073746174730000000000000000 PUSH1 0x44 DUP3 ADD MSTORE PUSH1 0x64 ADD PUSH2 0x936 JUMP JUMPDEST PUSH1 0x0 PUSH2 0xAAA DUP4 DUP4 PUSH2 0x1B4C JUMP JUMPDEST SWAP1 POP DUP1 PUSH2 0xB1F JUMPI PUSH1 0x40 MLOAD PUSH3 0x461BCD PUSH1 0xE5 SHL DUP2 MSTORE PUSH1 0x20 PUSH1 0x4 DUP3 ADD MSTORE PUSH1 0x33 PUSH1 0x24 DUP3 ADD MSTORE PUSH32 0x536F6D657468696E672077656E742077726F6E6720647572696E672074686520 PUSH1 0x44 DUP3 ADD MSTORE PUSH32 0x626174746C6520636F6E6669726D6174696F6E00000000000000000000000000 PUSH1 0x64 DUP3 ADD MSTORE PUSH1 0x84 ADD PUSH2 0x936 JUMP JUMPDEST PUSH1 0x40 MLOAD DUP2 ISZERO ISZERO DUP2 MSTORE DUP4 SWAP1 CALLER SWAP1 PUSH32 0xEFF7F2D84D13F104DBA859FB7AB16A085A258D198826B26AA0D89A2F9AC5BC1D SWAP1 PUSH1 0x20 ADD JUMPDEST PUSH1 0x40 MLOAD DUP1 SWAP2 SUB SWAP1 LOG3 POP POP POP JUMP JUMPDEST CALLER PUSH1 0x1 PUSH1 0x1 PUSH1 0xA0 SHL SUB DUP7 AND DUP2 EQ DUP1 ISZERO SWAP1 PUSH2 0xB9E JUMPI POP PUSH1 0x1 PUSH1 0x1 PUSH1 0xA0 SHL SUB DUP1 DUP8 AND PUSH1 0x0 SWAP1 DUP2 MSTORE PUSH1 0x1 PUSH1 0x20 SWAP1 DUP2 MSTORE PUSH1 0x40 DUP1 DUP4 KECCAK256 SWAP4 DUP6 AND DUP4 MSTORE SWAP3 SWAP1 MSTORE KECCAK256 SLOAD PUSH1 0xFF AND ISZERO JUMPDEST ISZERO PUSH2 0xBCF JUMPI PUSH1 0x40 MLOAD PUSH4 0x711BEC91 PUSH1 0xE1 SHL DUP2 MSTORE PUSH1 0x1 PUSH1 0x1 PUSH1 0xA0 SHL SUB DUP1 DUP4 AND PUSH1 0x4 DUP4 ADD MSTORE DUP8 AND PUSH1 0x24 DUP3 ADD MSTORE PUSH1 0x44 ADD PUSH2 0x936 JUMP JUMPDEST PUSH2 0xBDC DUP7 DUP7 DUP7 DUP7 DUP7 PUSH2 0x1DDD JUMP JUMPDEST POP POP POP POP POP POP JUMP JUMPDEST PUSH1 0x9 PUSH1 0x20 MSTORE DUP2 PUSH1 0x0 MSTORE PUSH1 0x40 PUSH1 0x0 KECCAK256 DUP2 DUP2 SLOAD DUP2 LT PUSH2 0xC00 JUMPI PUSH1 0x0 DUP1 REVERT JUMPDEST PUSH1 0x0 SWAP2 DUP3 MSTORE PUSH1 0x20 SWAP1 SWAP2 KECCAK256 ADD SLOAD PUSH1 0x1 PUSH1 0x1 PUSH1 0xA0 SHL SUB AND SWAP2 POP DUP3 SWAP1 POP JUMP JUMPDEST CALLVALUE PUSH5 0xE8D4A51000 EQ PUSH2 0xC96 JUMPI PUSH1 0x40 MLOAD PUSH3 0x461BCD PUSH1 0xE5 SHL DUP2 MSTORE PUSH1 0x20 PUSH1 0x4 DUP3 ADD MSTORE PUSH1 0x2D PUSH1 0x24 DUP3 ADD MSTORE PUSH32 0x596F75206E65656420746F2070617920302E3030303030312065746865722074 PUSH1 0x44 DUP3 ADD MSTORE PUSH32 0x6F206F70656E2061207061636B00000000000000000000000000000000000000 PUSH1 0x64 DUP3 ADD MSTORE PUSH1 0x84 ADD PUSH2 0x936 JUMP JUMPDEST PUSH1 0x0 PUSH2 0xCA0 PUSH2 0x1E3D JUMP JUMPDEST SWAP1 POP PUSH1 0x0 PUSH2 0xCAD DUP3 PUSH2 0x1E8E JUMP JUMPDEST SWAP1 POP PUSH1 0x0 PUSH2 0xCB9 PUSH2 0x1ED3 JUMP JUMPDEST SWAP1 POP PUSH1 0x0 PUSH2 0xCC6 DUP3 PUSH2 0x1F23 JUMP JUMPDEST SWAP1 POP PUSH1 0x0 PUSH2 0xCD4 DUP5 DUP4 PUSH2 0x4107 JUMP JUMPDEST SWAP1 POP PUSH2 0xCDF DUP2 PUSH2 0x1F60 JUMP JUMPDEST POP POP POP POP POP JUMP JUMPDEST PUSH1 0x60 DUP2 MLOAD DUP4 MLOAD EQ PUSH2 0xD17 JUMPI DUP2 MLOAD DUP4 MLOAD PUSH1 0x40 MLOAD PUSH4 0x5B059991 PUSH1 0xE0 SHL DUP2 MSTORE PUSH1 0x4 DUP2 ADD SWAP3 SWAP1 SWAP3 MSTORE PUSH1 0x24 DUP3 ADD MSTORE PUSH1 0x44 ADD PUSH2 0x936 JUMP JUMPDEST PUSH1 0x0 DUP4 MLOAD PUSH8 0xFFFFFFFFFFFFFFFF DUP2 GT ISZERO PUSH2 0xD33 JUMPI PUSH2 0xD33 PUSH2 0x39FC JUMP JUMPDEST PUSH1 0x40 MLOAD SWAP1 DUP1 DUP3 MSTORE DUP1 PUSH1 0x20 MUL PUSH1 0x20 ADD DUP3 ADD PUSH1 0x40 MSTORE DUP1 ISZERO PUSH2 0xD5C JUMPI DUP2 PUSH1 0x20 ADD PUSH1 0x20 DUP3 MUL DUP1 CALLDATASIZE DUP4 CALLDATACOPY ADD SWAP1 POP JUMPDEST POP SWAP1 POP PUSH1 0x0 JUMPDEST DUP5 MLOAD DUP2 LT ISZERO PUSH2 0xDB3 JUMPI PUSH1 0x20 DUP1 DUP3 MUL DUP7 ADD ADD MLOAD PUSH2 0xD86 SWAP1 PUSH1 0x20 DUP1 DUP5 MUL DUP8 ADD ADD MLOAD PUSH2 0x757 JUMP JUMPDEST DUP3 DUP3 DUP2 MLOAD DUP2 LT PUSH2 0xD98 JUMPI PUSH2 0xD98 PUSH2 0x40F1 JUMP JUMPDEST PUSH1 0x20 SWAP1 DUP2 MUL SWAP2 SWAP1 SWAP2 ADD ADD MSTORE PUSH2 0xDAC DUP2 PUSH2 0x411A JUMP JUMPDEST SWAP1 POP PUSH2 0xD62 JUMP JUMPDEST POP SWAP4 SWAP3 POP POP POP JUMP JUMPDEST PUSH1 0xB DUP2 DUP2 SLOAD DUP2 LT PUSH2 0xDCB JUMPI PUSH1 0x0 DUP1 REVERT JUMPDEST PUSH1 0x0 SWAP2 DUP3 MSTORE PUSH1 0x20 SWAP1 SWAP2 KECCAK256 PUSH1 0xA SWAP1 SWAP2 MUL ADD DUP1 SLOAD PUSH1 0x1 DUP3 ADD SLOAD PUSH1 0x2 DUP4 ADD SLOAD PUSH1 0x3 DUP5 ADD SLOAD PUSH1 0x4 DUP6 ADD SLOAD PUSH1 0x5 DUP7 ADD SLOAD PUSH1 0x8 DUP8 ADD SLOAD PUSH1 0x9 SWAP1 SWAP8 ADD SLOAD PUSH1 0x1 PUSH1 0x1 PUSH1 0xA0 SHL SUB SWAP7 DUP8 AND SWAP9 POP SWAP5 DUP7 AND SWAP7 SWAP4 SWAP6 SWAP3 SWAP5 SWAP2 SWAP4 SWAP1 SWAP3 SWAP1 DUP2 AND SWAP2 SWAP1 DUP2 AND SWAP1 PUSH1 0x1 PUSH1 0xA0 SHL SWAP1 DIV PUSH1 0xFF AND DUP10 JUMP JUMPDEST PUSH2 0xE37 PUSH2 0x1AC2 JUMP JUMPDEST PUSH2 0xE41 PUSH1 0x0 PUSH2 0x2059 JUMP JUMPDEST JUMP JUMPDEST PUSH2 0xE4B PUSH2 0x1AC2 JUMP JUMPDEST PUSH2 0x8D6 DUP5 DUP5 DUP5 DUP5 PUSH2 0x20AB JUMP JUMPDEST PUSH1 0x0 DUP2 GT DUP1 ISZERO PUSH2 0xE69 JUMPI POP PUSH1 0xB SLOAD DUP2 GT ISZERO JUMPDEST PUSH2 0xEB5 JUMPI PUSH1 0x40 MLOAD PUSH3 0x461BCD PUSH1 0xE5 SHL DUP2 MSTORE PUSH1 0x20 PUSH1 0x4 DUP3 ADD MSTORE PUSH1 0x19 PUSH1 0x24 DUP3 ADD MSTORE PUSH32 0x5468697320626174746C6520646F65736E277420657869737400000000000000 PUSH1 0x44 DUP3 ADD MSTORE PUSH1 0x64 ADD PUSH2 0x936 JUMP JUMPDEST CALLER PUSH1 0xB PUSH2 0xEC3 PUSH1 0x1 DUP5 PUSH2 0x40DE JUMP JUMPDEST DUP2 SLOAD DUP2 LT PUSH2 0xED3 JUMPI PUSH2 0xED3 PUSH2 0x40F1 JUMP JUMPDEST PUSH1 0x0 SWAP2 DUP3 MSTORE PUSH1 0x20 SWAP1 SWAP2 KECCAK256 PUSH1 0xA SWAP1 SWAP2 MUL ADD SLOAD PUSH1 0x1 PUSH1 0x1 PUSH1 0xA0 SHL SUB AND EQ PUSH2 0xF3A JUMPI PUSH1 0x40 MLOAD PUSH3 0x461BCD PUSH1 0xE5 SHL DUP2 MSTORE PUSH1 0x20 PUSH1 0x4 DUP3 ADD MSTORE PUSH1 0x1F PUSH1 0x24 DUP3 ADD MSTORE PUSH32 0x596F7520617265206E6F742070617274206F66207468697320626174746C6500 PUSH1 0x44 DUP3 ADD MSTORE PUSH1 0x64 ADD PUSH2 0x936 JUMP JUMPDEST PUSH1 0x0 PUSH1 0xB PUSH2 0xF49 PUSH1 0x1 DUP5 PUSH2 0x40DE JUMP JUMPDEST DUP2 SLOAD DUP2 LT PUSH2 0xF59 JUMPI PUSH2 0xF59 PUSH2 0x40F1 JUMP JUMPDEST PUSH1 0x0 SWAP2 DUP3 MSTORE PUSH1 0x20 SWAP1 SWAP2 KECCAK256 PUSH1 0x1 PUSH1 0xA SWAP1 SWAP3 MUL ADD ADD SLOAD PUSH1 0x1 PUSH1 0x1 PUSH1 0xA0 SHL SUB AND SUB PUSH2 0xFC3 JUMPI PUSH1 0x40 MLOAD PUSH3 0x461BCD PUSH1 0xE5 SHL DUP2 MSTORE PUSH1 0x20 PUSH1 0x4 DUP3 ADD MSTORE PUSH1 0x17 PUSH1 0x24 DUP3 ADD MSTORE PUSH32 0x5468697320626174746C65206973206E6F742066756C6C000000000000000000 PUSH1 0x44 DUP3 ADD MSTORE PUSH1 0x64 ADD PUSH2 0x936 JUMP JUMPDEST PUSH1 0x0 PUSH1 0xB PUSH2 0xFD2 PUSH1 0x1 DUP5 PUSH2 0x40DE JUMP JUMPDEST DUP2 SLOAD DUP2 LT PUSH2 0xFE2 JUMPI PUSH2 0xFE2 PUSH2 0x40F1 JUMP JUMPDEST PUSH1 0x0 SWAP2 DUP3 MSTORE PUSH1 0x20 SWAP1 SWAP2 KECCAK256 PUSH1 0x8 PUSH1 0xA SWAP1 SWAP3 MUL ADD ADD SLOAD PUSH1 0x1 PUSH1 0x1 PUSH1 0xA0 SHL SUB AND EQ PUSH2 0x104C JUMPI PUSH1 0x40 MLOAD PUSH3 0x461BCD PUSH1 0xE5 SHL DUP2 MSTORE PUSH1 0x20 PUSH1 0x4 DUP3 ADD MSTORE PUSH1 0x1B PUSH1 0x24 DUP3 ADD MSTORE PUSH32 0x5468697320626174746C6520697320616C726561647920646F6E650000000000 PUSH1 0x44 DUP3 ADD MSTORE PUSH1 0x64 ADD PUSH2 0x936 JUMP JUMPDEST PUSH1 0xB PUSH2 0x1059 PUSH1 0x1 DUP4 PUSH2 0x40DE JUMP JUMPDEST DUP2 SLOAD DUP2 LT PUSH2 0x1069 JUMPI PUSH2 0x1069 PUSH2 0x40F1 JUMP JUMPDEST PUSH1 0x0 SWAP2 DUP3 MSTORE PUSH1 0x20 SWAP1 SWAP2 KECCAK256 PUSH1 0xA SWAP1 SWAP2 MUL ADD PUSH1 0x9 ADD SLOAD PUSH1 0x1 PUSH1 0xA0 SHL SWAP1 DIV PUSH1 0xFF AND ISZERO PUSH2 0x10D4 JUMPI PUSH1 0x40 MLOAD PUSH3 0x461BCD PUSH1 0xE5 SHL DUP2 MSTORE PUSH1 0x20 PUSH1 0x4 DUP3 ADD MSTORE PUSH1 0x1B PUSH1 0x24 DUP3 ADD MSTORE PUSH32 0x5468697320626174746C6520697320616C726561647920646F6E650000000000 PUSH1 0x44 DUP3 ADD MSTORE PUSH1 0x64 ADD PUSH2 0x936 JUMP JUMPDEST PUSH1 0x0 PUSH2 0x10DF DUP3 PUSH2 0x2108 JUMP JUMPDEST SWAP1 POP DUP1 PUSH2 0x1154 JUMPI PUSH1 0x40 MLOAD PUSH3 0x461BCD PUSH1 0xE5 SHL DUP2 MSTORE PUSH1 0x20 PUSH1 0x4 DUP3 ADD MSTORE PUSH1 0x26 PUSH1 0x24 DUP3 ADD MSTORE PUSH32 0x536F6D657468696E672077656E742077726F6E6720647572696E672074686520 PUSH1 0x44 DUP3 ADD MSTORE PUSH32 0x626174746C650000000000000000000000000000000000000000000000000000 PUSH1 0x64 DUP3 ADD MSTORE PUSH1 0x84 ADD PUSH2 0x936 JUMP JUMPDEST PUSH1 0x0 PUSH1 0xB PUSH2 0x1163 PUSH1 0x1 DUP6 PUSH2 0x40DE JUMP JUMPDEST DUP2 SLOAD DUP2 LT PUSH2 0x1173 JUMPI PUSH2 0x1173 PUSH2 0x40F1 JUMP JUMPDEST PUSH1 0x0 SWAP2 DUP3 MSTORE PUSH1 0x20 SWAP2 DUP3 SWAP1 KECCAK256 PUSH1 0x40 DUP1 MLOAD PUSH2 0x160 DUP2 ADD DUP3 MSTORE PUSH1 0xA SWAP1 SWAP4 MUL SWAP1 SWAP2 ADD DUP1 SLOAD PUSH1 0x1 PUSH1 0x1 PUSH1 0xA0 SHL SUB SWAP1 DUP2 AND DUP5 MSTORE PUSH1 0x1 DUP3 ADD SLOAD AND DUP4 DUP6 ADD MSTORE PUSH1 0x2 DUP2 ADD SLOAD DUP4 DUP4 ADD MSTORE PUSH1 0x3 DUP2 ADD SLOAD PUSH1 0x60 DUP5 ADD MSTORE PUSH1 0x4 DUP2 ADD SLOAD PUSH1 0x80 DUP5 ADD MSTORE PUSH1 0x5 DUP2 ADD SLOAD PUSH1 0xA0 DUP5 ADD MSTORE PUSH1 0x6 DUP2 ADD DUP1 SLOAD DUP4 MLOAD DUP2 DUP8 MUL DUP2 ADD DUP8 ADD SWAP1 SWAP5 MSTORE DUP1 DUP5 MSTORE SWAP4 SWAP5 SWAP2 SWAP4 PUSH1 0xC0 DUP7 ADD SWAP4 SWAP3 DUP4 ADD DUP3 DUP3 DUP1 ISZERO PUSH2 0x121F JUMPI PUSH1 0x20 MUL DUP3 ADD SWAP2 SWAP1 PUSH1 0x0 MSTORE PUSH1 0x20 PUSH1 0x0 KECCAK256 SWAP1 JUMPDEST DUP2 SLOAD DUP2 MSTORE PUSH1 0x20 ADD SWAP1 PUSH1 0x1 ADD SWAP1 DUP1 DUP4 GT PUSH2 0x120B JUMPI JUMPDEST POP POP POP POP POP DUP2 MSTORE PUSH1 0x20 ADD PUSH1 0x7 DUP3 ADD DUP1 SLOAD DUP1 PUSH1 0x20 MUL PUSH1 0x20 ADD PUSH1 0x40 MLOAD SWAP1 DUP2 ADD PUSH1 0x40 MSTORE DUP1 SWAP3 SWAP2 SWAP1 DUP2 DUP2 MSTORE PUSH1 0x20 ADD DUP3 DUP1 SLOAD DUP1 ISZERO PUSH2 0x1277 JUMPI PUSH1 0x20 MUL DUP3 ADD SWAP2 SWAP1 PUSH1 0x0 MSTORE PUSH1 0x20 PUSH1 0x0 KECCAK256 SWAP1 JUMPDEST DUP2 SLOAD DUP2 MSTORE PUSH1 0x20 ADD SWAP1 PUSH1 0x1 ADD SWAP1 DUP1 DUP4 GT PUSH2 0x1263 JUMPI JUMPDEST POP POP POP SWAP2 DUP4 MSTORE POP POP PUSH1 0x8 DUP3 ADD SLOAD PUSH1 0x1 PUSH1 0x1 PUSH1 0xA0 SHL SUB SWAP1 DUP2 AND PUSH1 0x20 DUP4 ADD MSTORE PUSH1 0x9 SWAP1 SWAP3 ADD SLOAD SWAP2 DUP3 AND PUSH1 0x40 DUP3 ADD MSTORE PUSH1 0x1 PUSH1 0xA0 SHL SWAP1 SWAP2 DIV PUSH1 0xFF AND ISZERO ISZERO PUSH1 0x60 SWAP1 SWAP2 ADD MSTORE PUSH2 0x140 DUP2 ADD MLOAD SWAP1 SWAP2 POP ISZERO PUSH2 0x1304 JUMPI DUP3 PUSH32 0x89ACA0360A8E6579F9B4A53B0406D026B2F7A9E5B0BC133D2C1013F220D696F8 DUP4 PUSH1 0x40 MLOAD PUSH2 0x12F7 SWAP2 ISZERO ISZERO DUP2 MSTORE PUSH1 0x20 ADD SWAP1 JUMP JUMPDEST PUSH1 0x40 MLOAD DUP1 SWAP2 SUB SWAP1 LOG2 POP POP POP JUMP JUMPDEST PUSH2 0x100 DUP2 ADD MLOAD PUSH1 0x1 PUSH1 0x1 PUSH1 0xA0 SHL SUB AND PUSH2 0x1385 JUMPI PUSH1 0x40 MLOAD PUSH3 0x461BCD PUSH1 0xE5 SHL DUP2 MSTORE PUSH1 0x20 PUSH1 0x4 DUP3 ADD MSTORE PUSH1 0x3F PUSH1 0x24 DUP3 ADD MSTORE PUSH32 0x536F6D657468696E672077656E742077726F6E6720647572696E672074686520 PUSH1 0x44 DUP3 ADD MSTORE PUSH32 0x626174746C6520286E6F74206472617720616E64206E6F2077696E6E65722900 PUSH1 0x64 DUP3 ADD MSTORE PUSH1 0x84 ADD PUSH2 0x936 JUMP JUMPDEST PUSH2 0x100 DUP2 ADD MLOAD PUSH2 0x120 DUP3 ADD MLOAD PUSH1 0x40 DUP1 MLOAD PUSH1 0x1 PUSH1 0x1 PUSH1 0xA0 SHL SUB SWAP4 DUP5 AND DUP2 MSTORE SWAP3 SWAP1 SWAP2 AND PUSH1 0x20 DUP4 ADD MSTORE DUP4 ISZERO ISZERO SWAP1 DUP3 ADD MSTORE DUP4 SWAP1 PUSH32 0x73B75FE4A38B6C1172654D3174302C242D6B3D69C0D892D7F27A7934D6D9794A SWAP1 PUSH1 0x60 ADD PUSH2 0x12F7 JUMP JUMPDEST PUSH1 0x60 PUSH1 0x0 PUSH1 0x6 SLOAD PUSH8 0xFFFFFFFFFFFFFFFF DUP2 GT ISZERO PUSH2 0x13FD JUMPI PUSH2 0x13FD PUSH2 0x39FC JUMP JUMPDEST PUSH1 0x40 MLOAD SWAP1 DUP1 DUP3 MSTORE DUP1 PUSH1 0x20 MUL PUSH1 0x20 ADD DUP3 ADD PUSH1 0x40 MSTORE DUP1 ISZERO PUSH2 0x1426 JUMPI DUP2 PUSH1 0x20 ADD PUSH1 0x20 DUP3 MUL DUP1 CALLDATASIZE DUP4 CALLDATACOPY ADD SWAP1 POP JUMPDEST POP SWAP1 POP PUSH1 0x1 JUMPDEST PUSH1 0x6 SLOAD DUP2 GT PUSH2 0x148C JUMPI PUSH1 0x0 PUSH2 0x1441 DUP6 DUP4 PUSH2 0x757 JUMP JUMPDEST GT ISZERO PUSH2 0x147A JUMPI PUSH2 0x1451 DUP5 DUP3 PUSH2 0x757 JUMP JUMPDEST DUP3 PUSH2 0x145D PUSH1 0x1 DUP5 PUSH2 0x40DE JUMP JUMPDEST DUP2 MLOAD DUP2 LT PUSH2 0x146D JUMPI PUSH2 0x146D PUSH2 0x40F1 JUMP JUMPDEST PUSH1 0x20 MUL PUSH1 0x20 ADD ADD DUP2 DUP2 MSTORE POP POP JUMPDEST DUP1 PUSH2 0x1484 DUP2 PUSH2 0x411A JUMP JUMPDEST SWAP2 POP POP PUSH2 0x142C JUMP JUMPDEST POP SWAP3 SWAP2 POP POP JUMP JUMPDEST PUSH2 0x149E CALLER DUP4 DUP4 PUSH2 0x258C JUMP JUMPDEST POP POP JUMP JUMPDEST PUSH1 0x0 CALLVALUE GT PUSH2 0x14F2 JUMPI PUSH1 0x40 MLOAD PUSH3 0x461BCD PUSH1 0xE5 SHL DUP2 MSTORE PUSH1 0x20 PUSH1 0x4 DUP3 ADD MSTORE PUSH1 0x16 PUSH1 0x24 DUP3 ADD MSTORE PUSH32 0x596F75206E65656420746F2073656E6420657468657200000000000000000000 PUSH1 0x44 DUP3 ADD MSTORE PUSH1 0x64 ADD PUSH2 0x936 JUMP JUMPDEST DUP3 CALLVALUE EQ PUSH2 0x154B JUMPI PUSH1 0x40 MLOAD PUSH3 0x461BCD PUSH1 0xE5 SHL DUP2 MSTORE PUSH1 0x20 PUSH1 0x4 DUP3 ADD MSTORE PUSH1 0x21 PUSH1 0x24 DUP3 ADD MSTORE PUSH32 0x596F75206E65656420746F2073656E642074686520657861637420616D6F756E PUSH1 0x44 DUP3 ADD MSTORE PUSH1 0x1D PUSH1 0xFA SHL PUSH1 0x64 DUP3 ADD MSTORE PUSH1 0x84 ADD PUSH2 0x936 JUMP JUMPDEST PUSH1 0x0 DUP5 GT DUP1 ISZERO PUSH2 0x155D JUMPI POP PUSH1 0x6 SLOAD DUP5 GT ISZERO JUMPDEST PUSH2 0x1566 JUMPI PUSH1 0x0 DUP1 REVERT JUMPDEST CALLER PUSH1 0x0 DUP2 DUP2 MSTORE PUSH1 0xA PUSH1 0x20 SWAP1 DUP2 MSTORE PUSH1 0x40 DUP1 DUP4 KECCAK256 DUP9 DUP5 MSTORE SWAP1 SWAP2 MSTORE DUP2 KECCAK256 SLOAD SWAP1 SWAP2 PUSH2 0x158D SWAP1 DUP8 PUSH2 0x757 JUMP JUMPDEST PUSH2 0x1597 SWAP2 SWAP1 PUSH2 0x40DE JUMP JUMPDEST GT PUSH2 0x15FA JUMPI PUSH1 0x40 MLOAD PUSH3 0x461BCD PUSH1 0xE5 SHL DUP2 MSTORE PUSH1 0x20 PUSH1 0x4 DUP3 ADD MSTORE PUSH1 0x2D PUSH1 0x24 DUP3 ADD MSTORE PUSH32 0x596F7520646F6E2774206861766520656E6F75677468206F6620746869732063 PUSH1 0x44 DUP3 ADD MSTORE PUSH13 0x61726420617661696C61626C65 PUSH1 0x98 SHL PUSH1 0x64 DUP3 ADD MSTORE PUSH1 0x84 ADD PUSH2 0x936 JUMP JUMPDEST PUSH1 0x0 DUP3 GT DUP1 ISZERO PUSH2 0x160C JUMPI POP PUSH1 0xB SLOAD DUP3 GT ISZERO JUMPDEST PUSH2 0x1658 JUMPI PUSH1 0x40 MLOAD PUSH3 0x461BCD PUSH1 0xE5 SHL DUP2 MSTORE PUSH1 0x20 PUSH1 0x4 DUP3 ADD MSTORE PUSH1 0x19 PUSH1 0x24 DUP3 ADD MSTORE PUSH32 0x5468697320626174746C6520646F65736E277420657869737400000000000000 PUSH1 0x44 DUP3 ADD MSTORE PUSH1 0x64 ADD PUSH2 0x936 JUMP JUMPDEST PUSH1 0x0 PUSH1 0xB PUSH2 0x1667 PUSH1 0x1 DUP6 PUSH2 0x40DE JUMP JUMPDEST DUP2 SLOAD DUP2 LT PUSH2 0x1677 JUMPI PUSH2 0x1677 PUSH2 0x40F1 JUMP JUMPDEST PUSH1 0x0 SWAP2 DUP3 MSTORE PUSH1 0x20 SWAP1 SWAP2 KECCAK256 PUSH1 0x1 PUSH1 0xA SWAP1 SWAP3 MUL ADD ADD SLOAD PUSH1 0x1 PUSH1 0x1 PUSH1 0xA0 SHL SUB AND EQ PUSH2 0x16E1 JUMPI PUSH1 0x40 MLOAD PUSH3 0x461BCD PUSH1 0xE5 SHL DUP2 MSTORE PUSH1 0x20 PUSH1 0x4 DUP3 ADD MSTORE PUSH1 0x1B PUSH1 0x24 DUP3 ADD MSTORE PUSH32 0x5468697320626174746C6520697320616C72656164792066756C6C0000000000 PUSH1 0x44 DUP3 ADD MSTORE PUSH1 0x64 ADD PUSH2 0x936 JUMP JUMPDEST DUP1 MLOAD PUSH1 0x3 EQ PUSH2 0x1732 JUMPI PUSH1 0x40 MLOAD PUSH3 0x461BCD PUSH1 0xE5 SHL DUP2 MSTORE PUSH1 0x20 PUSH1 0x4 DUP3 ADD MSTORE PUSH1 0x18 PUSH1 0x24 DUP3 ADD MSTORE PUSH32 0x596F75206E65656420746F2073656E6420332073746174730000000000000000 PUSH1 0x44 DUP3 ADD MSTORE PUSH1 0x64 ADD PUSH2 0x936 JUMP JUMPDEST PUSH1 0x0 PUSH2 0x173F DUP6 DUP5 DUP5 PUSH2 0x2634 JUMP JUMPDEST SWAP1 POP DUP1 PUSH2 0x17B4 JUMPI PUSH1 0x40 MLOAD PUSH3 0x461BCD PUSH1 0xE5 SHL DUP2 MSTORE PUSH1 0x20 PUSH1 0x4 DUP3 ADD MSTORE PUSH1 0x30 PUSH1 0x24 DUP3 ADD MSTORE PUSH32 0x536F6D657468696E672077656E742077726F6E6720647572696E672074686520 PUSH1 0x44 DUP3 ADD MSTORE PUSH32 0x626174746C652073656C656374696F6E00000000000000000000000000000000 PUSH1 0x64 DUP3 ADD MSTORE PUSH1 0x84 ADD PUSH2 0x936 JUMP JUMPDEST DUP3 DUP6 CALLER PUSH1 0x1 PUSH1 0x1 PUSH1 0xA0 SHL SUB AND PUSH32 0xC559B3CCC5ECB04F988F93DC34629F418006013C2E2D95352EA77E50C3F21F76 DUP5 PUSH1 0x40 MLOAD PUSH2 0x17F3 SWAP2 ISZERO ISZERO DUP2 MSTORE PUSH1 0x20 ADD SWAP1 JUMP JUMPDEST PUSH1 0x40 MLOAD DUP1 SWAP2 SUB SWAP1 LOG4 POP POP POP POP POP JUMP JUMPDEST PUSH1 0x0 PUSH2 0x180E DUP3 DUP5 PUSH2 0x757 JUMP JUMPDEST SWAP4 SWAP3 POP POP POP JUMP JUMPDEST PUSH1 0x60 PUSH2 0x1820 DUP3 PUSH2 0x291D JUMP JUMPDEST PUSH1 0x40 MLOAD PUSH1 0x20 ADD PUSH2 0x1830 SWAP2 SWAP1 PUSH2 0x4133 JUMP JUMPDEST PUSH1 0x40 MLOAD PUSH1 0x20 DUP2 DUP4 SUB SUB DUP2 MSTORE SWAP1 PUSH1 0x40 MSTORE SWAP1 POP SWAP2 SWAP1 POP JUMP JUMPDEST PUSH1 0x0 CALLVALUE GT PUSH2 0x1896 JUMPI PUSH1 0x40 MLOAD PUSH3 0x461BCD PUSH1 0xE5 SHL DUP2 MSTORE PUSH1 0x20 PUSH1 0x4 DUP3 ADD MSTORE PUSH1 0x16 PUSH1 0x24 DUP3 ADD MSTORE PUSH32 0x596F75206E65656420746F2073656E6420657468657200000000000000000000 PUSH1 0x44 DUP3 ADD MSTORE PUSH1 0x64 ADD PUSH2 0x936 JUMP JUMPDEST DUP1 CALLVALUE EQ PUSH2 0x18EF JUMPI PUSH1 0x40 MLOAD PUSH3 0x461BCD PUSH1 0xE5 SHL DUP2 MSTORE PUSH1 0x20 PUSH1 0x4 DUP3 ADD MSTORE PUSH1 0x21 PUSH1 0x24 DUP3 ADD MSTORE PUSH32 0x596F75206E65656420746F2073656E642074686520657861637420616D6F756E PUSH1 0x44 DUP3 ADD MSTORE PUSH1 0x1D PUSH1 0xFA SHL PUSH1 0x64 DUP3 ADD MSTORE PUSH1 0x84 ADD PUSH2 0x936 JUMP JUMPDEST PUSH1 0x0 DUP3 GT DUP1 ISZERO PUSH2 0x1901 JUMPI POP PUSH1 0x6 SLOAD DUP3 GT ISZERO JUMPDEST PUSH2 0x190A JUMPI PUSH1 0x0 DUP1 REVERT JUMPDEST CALLER PUSH1 0x0 DUP2 DUP2 MSTORE PUSH1 0xA PUSH1 0x20 SWAP1 DUP2 MSTORE PUSH1 0x40 DUP1 DUP4 KECCAK256 DUP7 DUP5 MSTORE SWAP1 SWAP2 MSTORE DUP2 KECCAK256 SLOAD SWAP1 SWAP2 PUSH2 0x1931 SWAP1 DUP6 PUSH2 0x757 JUMP JUMPDEST PUSH2 0x193B SWAP2 SWAP1 PUSH2 0x40DE JUMP JUMPDEST GT PUSH2 0x199E JUMPI PUSH1 0x40 MLOAD PUSH3 0x461BCD PUSH1 0xE5 SHL DUP2 MSTORE PUSH1 0x20 PUSH1 0x4 DUP3 ADD MSTORE PUSH1 0x2D PUSH1 0x24 DUP3 ADD MSTORE PUSH32 0x596F7520646F6E2774206861766520656E6F75677468206F6620746869732063 PUSH1 0x44 DUP3 ADD MSTORE PUSH13 0x61726420617661696C61626C65 PUSH1 0x98 SHL PUSH1 0x64 DUP3 ADD MSTORE PUSH1 0x84 ADD PUSH2 0x936 JUMP JUMPDEST PUSH1 0x0 PUSH2 0x19A9 DUP4 PUSH2 0x29BD JUMP JUMPDEST PUSH1 0x40 MLOAD SWAP1 SWAP2 POP DUP2 SWAP1 DUP5 SWAP1 CALLER SWAP1 PUSH32 0x7D449FA6E54154E0708080FD25570C187F5F5A38662C42A2324D966EC07B926F SWAP1 PUSH1 0x0 SWAP1 LOG4 POP POP POP JUMP JUMPDEST CALLER PUSH1 0x1 PUSH1 0x1 PUSH1 0xA0 SHL SUB DUP7 AND DUP2 EQ DUP1 ISZERO SWAP1 PUSH2 0x1A20 JUMPI POP PUSH1 0x1 PUSH1 0x1 PUSH1 0xA0 SHL SUB DUP1 DUP8 AND PUSH1 0x0 SWAP1 DUP2 MSTORE PUSH1 0x1 PUSH1 0x20 SWAP1 DUP2 MSTORE PUSH1 0x40 DUP1 DUP4 KECCAK256 SWAP4 DUP6 AND DUP4 MSTORE SWAP3 SWAP1 MSTORE KECCAK256 SLOAD PUSH1 0xFF AND ISZERO JUMPDEST ISZERO PUSH2 0x1A51 JUMPI PUSH1 0x40 MLOAD PUSH4 0x711BEC91 PUSH1 0xE1 SHL DUP2 MSTORE PUSH1 0x1 PUSH1 0x1 PUSH1 0xA0 SHL SUB DUP1 DUP4 AND PUSH1 0x4 DUP4 ADD MSTORE DUP8 AND PUSH1 0x24 DUP3 ADD MSTORE PUSH1 0x44 ADD PUSH2 0x936 JUMP JUMPDEST PUSH2 0xBDC DUP7 DUP7 DUP7 DUP7 DUP7 PUSH2 0x2C43 JUMP JUMPDEST PUSH2 0x1A66 PUSH2 0x1AC2 JUMP JUMPDEST PUSH1 0x1 PUSH1 0x1 PUSH1 0xA0 SHL SUB DUP2 AND PUSH2 0x1AA9 JUMPI PUSH1 0x40 MLOAD PUSH32 0x1E4FBDF700000000000000000000000000000000000000000000000000000000 DUP2 MSTORE PUSH1 0x0 PUSH1 0x4 DUP3 ADD MSTORE PUSH1 0x24 ADD PUSH2 0x936 JUMP JUMPDEST PUSH2 0x82B DUP2 PUSH2 0x2059 JUMP JUMPDEST PUSH2 0x1ABD DUP4 DUP4 DUP4 PUSH2 0x2CD1 JUMP JUMPDEST POP POP POP JUMP JUMPDEST PUSH1 0x5 SLOAD PUSH1 0x1 PUSH1 0x1 PUSH1 0xA0 SHL SUB AND CALLER EQ PUSH2 0xE41 JUMPI PUSH1 0x40 MLOAD PUSH32 0x118CDAA700000000000000000000000000000000000000000000000000000000 DUP2 MSTORE CALLER PUSH1 0x4 DUP3 ADD MSTORE PUSH1 0x24 ADD PUSH2 0x936 JUMP JUMPDEST PUSH1 0x2 PUSH2 0x149E DUP3 DUP3 PUSH2 0x41E4 JUMP JUMPDEST PUSH1 0x1 PUSH1 0x1 PUSH1 0xA0 SHL SUB DUP5 AND PUSH2 0x1B3E JUMPI PUSH1 0x40 MLOAD PUSH4 0x2BFA23E7 PUSH1 0xE1 SHL DUP2 MSTORE PUSH1 0x0 PUSH1 0x4 DUP3 ADD MSTORE PUSH1 0x24 ADD PUSH2 0x936 JUMP JUMPDEST PUSH2 0x8D6 PUSH1 0x0 DUP6 DUP6 DUP6 DUP6 PUSH2 0x2D35 JUMP JUMPDEST PUSH1 0x0 DUP1 PUSH1 0xB PUSH2 0x1B5C PUSH1 0x1 DUP7 PUSH2 0x40DE JUMP JUMPDEST DUP2 SLOAD DUP2 LT PUSH2 0x1B6C JUMPI PUSH2 0x1B6C PUSH2 0x40F1 JUMP JUMPDEST PUSH1 0x0 SWAP2 DUP3 MSTORE PUSH1 0x20 SWAP2 DUP3 SWAP1 KECCAK256 PUSH1 0x40 DUP1 MLOAD PUSH2 0x160 DUP2 ADD DUP3 MSTORE PUSH1 0xA SWAP1 SWAP4 MUL SWAP1 SWAP2 ADD DUP1 SLOAD PUSH1 0x1 PUSH1 0x1 PUSH1 0xA0 SHL SUB SWAP1 DUP2 AND DUP5 MSTORE PUSH1 0x1 DUP3 ADD SLOAD AND DUP4 DUP6 ADD MSTORE PUSH1 0x2 DUP2 ADD SLOAD DUP4 DUP4 ADD MSTORE PUSH1 0x3 DUP2 ADD SLOAD PUSH1 0x60 DUP5 ADD MSTORE PUSH1 0x4 DUP2 ADD SLOAD PUSH1 0x80 DUP5 ADD MSTORE PUSH1 0x5 DUP2 ADD SLOAD PUSH1 0xA0 DUP5 ADD MSTORE PUSH1 0x6 DUP2 ADD DUP1 SLOAD DUP4 MLOAD DUP2 DUP8 MUL DUP2 ADD DUP8 ADD SWAP1 SWAP5 MSTORE DUP1 DUP5 MSTORE SWAP4 SWAP5 SWAP2 SWAP4 PUSH1 0xC0 DUP7 ADD SWAP4 SWAP3 DUP4 ADD DUP3 DUP3 DUP1 ISZERO PUSH2 0x1C18 JUMPI PUSH1 0x20 MUL DUP3 ADD SWAP2 SWAP1 PUSH1 0x0 MSTORE PUSH1 0x20 PUSH1 0x0 KECCAK256 SWAP1 JUMPDEST DUP2 SLOAD DUP2 MSTORE PUSH1 0x20 ADD SWAP1 PUSH1 0x1 ADD SWAP1 DUP1 DUP4 GT PUSH2 0x1C04 JUMPI JUMPDEST POP POP POP POP POP DUP2 MSTORE PUSH1 0x20 ADD PUSH1 0x7 DUP3 ADD DUP1 SLOAD DUP1 PUSH1 0x20 MUL PUSH1 0x20 ADD PUSH1 0x40 MLOAD SWAP1 DUP2 ADD PUSH1 0x40 MSTORE DUP1 SWAP3 SWAP2 SWAP1 DUP2 DUP2 MSTORE PUSH1 0x20 ADD DUP3 DUP1 SLOAD DUP1 ISZERO PUSH2 0x1C70 JUMPI PUSH1 0x20 MUL DUP3 ADD SWAP2 SWAP1 PUSH1 0x0 MSTORE PUSH1 0x20 PUSH1 0x0 KECCAK256 SWAP1 JUMPDEST DUP2 SLOAD DUP2 MSTORE PUSH1 0x20 ADD SWAP1 PUSH1 0x1 ADD SWAP1 DUP1 DUP4 GT PUSH2 0x1C5C JUMPI JUMPDEST POP POP POP SWAP2 DUP4 MSTORE POP POP PUSH1 0x8 DUP3 ADD SLOAD PUSH1 0x1 PUSH1 0x1 PUSH1 0xA0 SHL SUB SWAP1 DUP2 AND PUSH1 0x20 DUP4 ADD MSTORE PUSH1 0x9 SWAP1 SWAP3 ADD SLOAD SWAP2 DUP3 AND PUSH1 0x40 DUP3 ADD MSTORE PUSH1 0x1 PUSH1 0xA0 SHL SWAP1 SWAP2 DIV PUSH1 0xFF AND ISZERO ISZERO PUSH1 0x60 SWAP1 SWAP2 ADD MSTORE PUSH1 0xC0 DUP2 ADD DUP5 SWAP1 MSTORE SWAP1 POP DUP1 PUSH1 0xB PUSH2 0x1CC5 PUSH1 0x1 DUP8 PUSH2 0x40DE JUMP JUMPDEST DUP2 SLOAD DUP2 LT PUSH2 0x1CD5 JUMPI PUSH2 0x1CD5 PUSH2 0x40F1 JUMP JUMPDEST PUSH1 0x0 SWAP2 DUP3 MSTORE PUSH1 0x20 SWAP2 DUP3 SWAP1 KECCAK256 DUP4 MLOAD PUSH1 0xA SWAP1 SWAP3 MUL ADD DUP1 SLOAD PUSH1 0x1 PUSH1 0x1 PUSH1 0xA0 SHL SUB SWAP3 DUP4 AND PUSH1 0x1 PUSH1 0x1 PUSH1 0xA0 SHL SUB NOT SWAP2 DUP3 AND OR DUP3 SSTORE DUP5 DUP5 ADD MLOAD PUSH1 0x1 DUP4 ADD DUP1 SLOAD SWAP2 SWAP1 SWAP5 AND SWAP2 AND OR SWAP1 SWAP2 SSTORE PUSH1 0x40 DUP4 ADD MLOAD PUSH1 0x2 DUP3 ADD SSTORE PUSH1 0x60 DUP4 ADD MLOAD PUSH1 0x3 DUP3 ADD SSTORE PUSH1 0x80 DUP4 ADD MLOAD PUSH1 0x4 DUP3 ADD SSTORE PUSH1 0xA0 DUP4 ADD MLOAD PUSH1 0x5 DUP3 ADD SSTORE PUSH1 0xC0 DUP4 ADD MLOAD DUP1 MLOAD SWAP2 SWAP3 PUSH2 0x1D5B SWAP3 PUSH1 0x6 DUP6 ADD SWAP3 SWAP1 SWAP2 ADD SWAP1 PUSH2 0x390F JUMP JUMPDEST POP PUSH1 0xE0 DUP3 ADD MLOAD DUP1 MLOAD PUSH2 0x1D77 SWAP2 PUSH1 0x7 DUP5 ADD SWAP2 PUSH1 0x20 SWAP1 SWAP2 ADD SWAP1 PUSH2 0x390F JUMP JUMPDEST POP PUSH2 0x100 DUP3 ADD MLOAD PUSH1 0x8 DUP3 ADD DUP1 SLOAD PUSH1 0x1 PUSH1 0x1 PUSH1 0xA0 SHL SUB NOT AND PUSH1 0x1 PUSH1 0x1 PUSH1 0xA0 SHL SUB SWAP3 DUP4 AND OR SWAP1 SSTORE PUSH2 0x120 DUP4 ADD MLOAD PUSH1 0x9 SWAP1 SWAP3 ADD DUP1 SLOAD PUSH2 0x140 SWAP1 SWAP5 ADD MLOAD SWAP3 SWAP1 SWAP2 AND PUSH1 0x1 PUSH1 0x1 PUSH1 0xA8 SHL SUB NOT SWAP1 SWAP4 AND SWAP3 SWAP1 SWAP3 OR PUSH1 0x1 PUSH1 0xA0 SHL SWAP2 ISZERO ISZERO SWAP2 SWAP1 SWAP2 MUL OR SWAP1 SSTORE POP PUSH1 0x1 SWAP4 SWAP3 POP POP POP JUMP JUMPDEST PUSH1 0x1 PUSH1 0x1 PUSH1 0xA0 SHL SUB DUP5 AND PUSH2 0x1E07 JUMPI PUSH1 0x40 MLOAD PUSH4 0x2BFA23E7 PUSH1 0xE1 SHL DUP2 MSTORE PUSH1 0x0 PUSH1 0x4 DUP3 ADD MSTORE PUSH1 0x24 ADD PUSH2 0x936 JUMP JUMPDEST PUSH1 0x1 PUSH1 0x1 PUSH1 0xA0 SHL SUB DUP6 AND PUSH2 0x1E30 JUMPI PUSH1 0x40 MLOAD PUSH3 0x6A0D45 PUSH1 0xE2 SHL DUP2 MSTORE PUSH1 0x0 PUSH1 0x4 DUP3 ADD MSTORE PUSH1 0x24 ADD PUSH2 0x936 JUMP JUMPDEST PUSH2 0xCDF DUP6 DUP6 DUP6 DUP6 DUP6 PUSH2 0x2D35 JUMP JUMPDEST PUSH1 0x40 DUP1 MLOAD TIMESTAMP PUSH1 0x20 DUP3 ADD MSTORE PUSH12 0xFFFFFFFFFFFFFFFFFFFFFFFF NOT CALLER PUSH1 0x60 SHL AND SWAP2 DUP2 ADD SWAP2 SWAP1 SWAP2 MSTORE PREVRANDAO PUSH1 0x54 DUP3 ADD MSTORE PUSH1 0x0 SWAP1 DUP2 SWAP1 PUSH1 0x74 ADD JUMPDEST PUSH1 0x40 DUP1 MLOAD PUSH1 0x1F NOT DUP2 DUP5 SUB ADD DUP2 MSTORE SWAP2 SWAP1 MSTORE DUP1 MLOAD PUSH1 0x20 SWAP1 SWAP2 ADD KECCAK256 SWAP3 SWAP2 POP POP JUMP JUMPDEST PUSH1 0x0 PUSH1 0x14 PUSH2 0x1E9D PUSH1 0x64 DUP5 PUSH2 0x42BA JUMP JUMPDEST LT ISZERO PUSH2 0x1EAB JUMPI POP PUSH1 0x2 SWAP2 SWAP1 POP JUMP JUMPDEST PUSH1 0x32 PUSH2 0x1EB8 PUSH1 0x64 DUP5 PUSH2 0x42BA JUMP JUMPDEST LT ISZERO PUSH2 0x1EC6 JUMPI POP PUSH1 0x1 SWAP2 SWAP1 POP JUMP JUMPDEST POP PUSH1 0x0 SWAP2 SWAP1 POP JUMP JUMPDEST SWAP2 SWAP1 POP JUMP JUMPDEST PUSH1 0x7 DUP1 SLOAD PUSH1 0x0 SWAP2 DUP3 PUSH2 0x1EE4 DUP4 PUSH2 0x411A JUMP JUMPDEST SWAP1 SWAP2 SSTORE POP POP PUSH1 0x7 SLOAD PUSH1 0x40 DUP1 MLOAD TIMESTAMP PUSH1 0x20 DUP3 ADD MSTORE PUSH12 0xFFFFFFFFFFFFFFFFFFFFFFFF NOT CALLER PUSH1 0x60 SHL AND SWAP2 DUP2 ADD SWAP2 SWAP1 SWAP2 MSTORE PUSH1 0x54 DUP2 ADD SWAP2 SWAP1 SWAP2 MSTORE PUSH1 0x0 SWAP1 PUSH1 0x74 ADD PUSH2 0x1E70 JUMP JUMPDEST PUSH1 0x0 PUSH1 0x2 PUSH1 0x3 PUSH1 0x6 SLOAD PUSH2 0x1F36 SWAP2 SWAP1 PUSH2 0x42CE JUMP JUMPDEST PUSH2 0x1F40 SWAP1 DUP5 PUSH2 0x42BA JUMP JUMPDEST PUSH2 0x1F4B SWAP1 PUSH1 0x1 PUSH2 0x4107 JUMP JUMPDEST PUSH2 0x1F56 SWAP1 PUSH1 0x3 PUSH2 0x42E2 JUMP JUMPDEST PUSH2 0x779 SWAP2 SWAP1 PUSH2 0x40DE JUMP JUMPDEST PUSH2 0x1F7C CALLER DUP3 PUSH1 0x1 PUSH1 0x40 MLOAD DUP1 PUSH1 0x20 ADD PUSH1 0x40 MSTORE DUP1 PUSH1 0x0 DUP2 MSTORE POP PUSH2 0x20AB JUMP JUMPDEST PUSH1 0x0 DUP2 DUP2 MSTORE PUSH1 0x8 PUSH1 0x20 SWAP1 DUP2 MSTORE PUSH1 0x40 DUP1 DUP4 KECCAK256 CALLER DUP5 MSTORE SWAP1 SWAP2 MSTORE SWAP1 KECCAK256 SLOAD PUSH2 0x1FA1 SWAP1 PUSH1 0x1 PUSH2 0x2D88 JUMP JUMPDEST PUSH1 0x0 DUP3 DUP2 MSTORE PUSH1 0x8 PUSH1 0x20 SWAP1 DUP2 MSTORE PUSH1 0x40 DUP1 DUP4 KECCAK256 CALLER DUP5 MSTORE SWAP1 SWAP2 MSTORE DUP2 KECCAK256 SWAP2 SWAP1 SWAP2 SSTORE JUMPDEST PUSH1 0x0 DUP3 DUP2 MSTORE PUSH1 0x9 PUSH1 0x20 MSTORE PUSH1 0x40 SWAP1 KECCAK256 SLOAD DUP2 LT ISZERO PUSH2 0x2028 JUMPI PUSH1 0x0 DUP3 DUP2 MSTORE PUSH1 0x9 PUSH1 0x20 MSTORE PUSH1 0x40 SWAP1 KECCAK256 DUP1 SLOAD CALLER SWAP2 SWAP1 DUP4 SWAP1 DUP2 LT PUSH2 0x1FF8 JUMPI PUSH2 0x1FF8 PUSH2 0x40F1 JUMP JUMPDEST PUSH1 0x0 SWAP2 DUP3 MSTORE PUSH1 0x20 SWAP1 SWAP2 KECCAK256 ADD SLOAD PUSH1 0x1 PUSH1 0x1 PUSH1 0xA0 SHL SUB AND SUB PUSH2 0x2016 JUMPI POP POP JUMP JUMPDEST DUP1 PUSH2 0x2020 DUP2 PUSH2 0x411A JUMP JUMPDEST SWAP2 POP POP PUSH2 0x1FBF JUMP JUMPDEST POP PUSH1 0x0 SWAP1 DUP2 MSTORE PUSH1 0x9 PUSH1 0x20 SWAP1 DUP2 MSTORE PUSH1 0x40 DUP3 KECCAK256 DUP1 SLOAD PUSH1 0x1 DUP2 ADD DUP3 SSTORE SWAP1 DUP4 MSTORE SWAP2 KECCAK256 ADD DUP1 SLOAD PUSH1 0x1 PUSH1 0x1 PUSH1 0xA0 SHL SUB NOT AND CALLER OR SWAP1 SSTORE JUMP JUMPDEST PUSH1 0x5 DUP1 SLOAD PUSH1 0x1 PUSH1 0x1 PUSH1 0xA0 SHL SUB DUP4 DUP2 AND PUSH1 0x1 PUSH1 0x1 PUSH1 0xA0 SHL SUB NOT DUP4 AND DUP2 OR SWAP1 SWAP4 SSTORE PUSH1 0x40 MLOAD SWAP2 AND SWAP2 SWAP1 DUP3 SWAP1 PUSH32 0x8BE0079C531659141344CD1FD0A4F28419497F9722A3DAAFE3B4186F6B6457E0 SWAP1 PUSH1 0x0 SWAP1 LOG3 POP POP JUMP JUMPDEST PUSH1 0x1 PUSH1 0x1 PUSH1 0xA0 SHL SUB DUP5 AND PUSH2 0x20D5 JUMPI PUSH1 0x40 MLOAD PUSH4 0x2BFA23E7 PUSH1 0xE1 SHL DUP2 MSTORE PUSH1 0x0 PUSH1 0x4 DUP3 ADD MSTORE PUSH1 0x24 ADD PUSH2 0x936 JUMP JUMPDEST PUSH1 0x40 DUP1 MLOAD PUSH1 0x1 DUP1 DUP3 MSTORE PUSH1 0x20 DUP3 ADD DUP7 SWAP1 MSTORE DUP2 DUP4 ADD SWAP1 DUP2 MSTORE PUSH1 0x60 DUP3 ADD DUP6 SWAP1 MSTORE PUSH1 0x80 DUP3 ADD SWAP1 SWAP3 MSTORE SWAP1 PUSH2 0xBDC PUSH1 0x0 DUP8 DUP5 DUP5 DUP8 PUSH2 0x2D35 JUMP JUMPDEST PUSH1 0x0 DUP1 PUSH1 0xB PUSH2 0x2118 PUSH1 0x1 DUP6 PUSH2 0x40DE JUMP JUMPDEST DUP2 SLOAD DUP2 LT PUSH2 0x2128 JUMPI PUSH2 0x2128 PUSH2 0x40F1 JUMP JUMPDEST PUSH1 0x0 SWAP2 DUP3 MSTORE PUSH1 0x20 SWAP2 DUP3 SWAP1 KECCAK256 PUSH1 0x40 DUP1 MLOAD PUSH2 0x160 DUP2 ADD DUP3 MSTORE PUSH1 0xA SWAP1 SWAP4 MUL SWAP1 SWAP2 ADD DUP1 SLOAD PUSH1 0x1 PUSH1 0x1 PUSH1 0xA0 SHL SUB SWAP1 DUP2 AND DUP5 MSTORE PUSH1 0x1 DUP3 ADD SLOAD AND DUP4 DUP6 ADD MSTORE PUSH1 0x2 DUP2 ADD SLOAD DUP4 DUP4 ADD MSTORE PUSH1 0x3 DUP2 ADD SLOAD PUSH1 0x60 DUP5 ADD MSTORE PUSH1 0x4 DUP2 ADD SLOAD PUSH1 0x80 DUP5 ADD MSTORE PUSH1 0x5 DUP2 ADD SLOAD PUSH1 0xA0 DUP5 ADD MSTORE PUSH1 0x6 DUP2 ADD DUP1 SLOAD DUP4 MLOAD DUP2 DUP8 MUL DUP2 ADD DUP8 ADD SWAP1 SWAP5 MSTORE DUP1 DUP5 MSTORE SWAP4 SWAP5 SWAP2 SWAP4 PUSH1 0xC0 DUP7 ADD SWAP4 SWAP3 DUP4 ADD DUP3 DUP3 DUP1 ISZERO PUSH2 0x21D4 JUMPI PUSH1 0x20 MUL DUP3 ADD SWAP2 SWAP1 PUSH1 0x0 MSTORE PUSH1 0x20 PUSH1 0x0 KECCAK256 SWAP1 JUMPDEST DUP2 SLOAD DUP2 MSTORE PUSH1 0x20 ADD SWAP1 PUSH1 0x1 ADD SWAP1 DUP1 DUP4 GT PUSH2 0x21C0 JUMPI JUMPDEST POP POP POP POP POP DUP2 MSTORE PUSH1 0x20 ADD PUSH1 0x7 DUP3 ADD DUP1 SLOAD DUP1 PUSH1 0x20 MUL PUSH1 0x20 ADD PUSH1 0x40 MLOAD SWAP1 DUP2 ADD PUSH1 0x40 MSTORE DUP1 SWAP3 SWAP2 SWAP1 DUP2 DUP2 MSTORE PUSH1 0x20 ADD DUP3 DUP1 SLOAD DUP1 ISZERO PUSH2 0x222C JUMPI PUSH1 0x20 MUL DUP3 ADD SWAP2 SWAP1 PUSH1 0x0 MSTORE PUSH1 0x20 PUSH1 0x0 KECCAK256 SWAP1 JUMPDEST DUP2 SLOAD DUP2 MSTORE PUSH1 0x20 ADD SWAP1 PUSH1 0x1 ADD SWAP1 DUP1 DUP4 GT PUSH2 0x2218 JUMPI JUMPDEST POP POP POP SWAP2 DUP4 MSTORE POP POP PUSH1 0x8 DUP3 ADD SLOAD PUSH1 0x1 PUSH1 0x1 PUSH1 0xA0 SHL SUB SWAP1 DUP2 AND PUSH1 0x20 DUP4 ADD MSTORE PUSH1 0x9 SWAP1 SWAP3 ADD SLOAD SWAP2 DUP3 AND PUSH1 0x40 DUP1 DUP4 ADD SWAP2 SWAP1 SWAP2 MSTORE PUSH1 0x1 PUSH1 0xA0 SHL SWAP1 SWAP3 DIV PUSH1 0xFF AND ISZERO ISZERO PUSH1 0x60 SWAP2 DUP3 ADD MSTORE PUSH1 0xC0 DUP4 ADD MLOAD PUSH1 0xE0 DUP5 ADD MLOAD SWAP3 DUP5 ADD MLOAD SWAP2 DUP5 ADD MLOAD PUSH1 0x80 DUP6 ADD MLOAD PUSH1 0xA0 DUP7 ADD MLOAD SWAP6 SWAP7 POP SWAP2 SWAP5 SWAP1 SWAP2 SWAP1 PUSH1 0x0 DUP1 DUP1 DUP1 JUMPDEST PUSH1 0x3 DUP2 LT ISZERO PUSH2 0x2347 JUMPI DUP9 DUP2 DUP2 MLOAD DUP2 LT PUSH2 0x22B3 JUMPI PUSH2 0x22B3 PUSH2 0x40F1 JUMP JUMPDEST PUSH1 0x20 MUL PUSH1 0x20 ADD ADD MLOAD DUP11 DUP3 DUP2 MLOAD DUP2 LT PUSH2 0x22CD JUMPI PUSH2 0x22CD PUSH2 0x40F1 JUMP JUMPDEST PUSH1 0x20 MUL PUSH1 0x20 ADD ADD MLOAD GT ISZERO PUSH2 0x22ED JUMPI DUP4 PUSH2 0x22E5 DUP2 PUSH2 0x411A JUMP JUMPDEST SWAP5 POP POP PUSH2 0x2335 JUMP JUMPDEST DUP9 DUP2 DUP2 MLOAD DUP2 LT PUSH2 0x22FF JUMPI PUSH2 0x22FF PUSH2 0x40F1 JUMP JUMPDEST PUSH1 0x20 MUL PUSH1 0x20 ADD ADD MLOAD DUP11 DUP3 DUP2 MLOAD DUP2 LT PUSH2 0x2319 JUMPI PUSH2 0x2319 PUSH2 0x40F1 JUMP JUMPDEST PUSH1 0x20 MUL PUSH1 0x20 ADD ADD MLOAD LT ISZERO PUSH2 0x2335 JUMPI DUP3 PUSH2 0x2331 DUP2 PUSH2 0x411A JUMP JUMPDEST SWAP4 POP POP JUMPDEST DUP1 PUSH2 0x233F DUP2 PUSH2 0x411A JUMP JUMPDEST SWAP2 POP POP PUSH2 0x2298 JUMP JUMPDEST POP DUP2 DUP4 GT ISZERO PUSH2 0x2376 JUMPI POP DUP9 MLOAD PUSH1 0x1 PUSH1 0x1 PUSH1 0xA0 SHL SUB SWAP1 DUP2 AND PUSH2 0x100 DUP12 ADD MSTORE PUSH1 0x20 DUP11 ADD MLOAD AND PUSH2 0x120 DUP11 ADD MSTORE DUP6 PUSH2 0x2562 JUMP JUMPDEST DUP2 DUP4 LT ISZERO PUSH2 0x23A4 JUMPI POP PUSH1 0x20 DUP10 ADD MLOAD PUSH1 0x1 PUSH1 0x1 PUSH1 0xA0 SHL SUB SWAP1 DUP2 AND PUSH2 0x100 DUP12 ADD MSTORE DUP10 MLOAD AND PUSH2 0x120 DUP11 ADD MSTORE DUP5 PUSH2 0x2562 JUMP JUMPDEST PUSH1 0x0 PUSH2 0x100 DUP12 ADD DUP2 SWAP1 MSTORE PUSH2 0x120 DUP12 ADD DUP2 SWAP1 MSTORE PUSH1 0x1 PUSH2 0x140 DUP13 ADD MSTORE DUP11 MLOAD PUSH1 0x40 MLOAD PUSH1 0x1 PUSH1 0x1 PUSH1 0xA0 SHL SUB SWAP1 SWAP2 AND SWAP2 PUSH2 0x8FC DUP9 ISZERO MUL SWAP2 DUP9 SWAP2 DUP2 DUP2 DUP2 DUP6 DUP9 DUP9 CALL SWAP4 POP POP POP POP ISZERO DUP1 ISZERO PUSH2 0x23F5 JUMPI RETURNDATASIZE PUSH1 0x0 DUP1 RETURNDATACOPY RETURNDATASIZE PUSH1 0x0 REVERT JUMPDEST POP DUP10 PUSH1 0x20 ADD MLOAD PUSH1 0x1 PUSH1 0x1 PUSH1 0xA0 SHL SUB AND PUSH2 0x8FC DUP6 SWAP1 DUP2 ISZERO MUL SWAP1 PUSH1 0x40 MLOAD PUSH1 0x0 PUSH1 0x40 MLOAD DUP1 DUP4 SUB DUP2 DUP6 DUP9 DUP9 CALL SWAP4 POP POP POP POP ISZERO DUP1 ISZERO PUSH2 0x2433 JUMPI RETURNDATASIZE PUSH1 0x0 DUP1 RETURNDATACOPY RETURNDATASIZE PUSH1 0x0 REVERT JUMPDEST POP DUP10 PUSH1 0xB PUSH2 0x2442 PUSH1 0x1 DUP16 PUSH2 0x40DE JUMP JUMPDEST DUP2 SLOAD DUP2 LT PUSH2 0x2452 JUMPI PUSH2 0x2452 PUSH2 0x40F1 JUMP JUMPDEST PUSH1 0x0 SWAP2 DUP3 MSTORE PUSH1 0x20 SWAP2 DUP3 SWAP1 KECCAK256 DUP4 MLOAD PUSH1 0xA SWAP1 SWAP3 MUL ADD DUP1 SLOAD PUSH1 0x1 PUSH1 0x1 PUSH1 0xA0 SHL SUB SWAP3 DUP4 AND PUSH1 0x1 PUSH1 0x1 PUSH1 0xA0 SHL SUB NOT SWAP2 DUP3 AND OR DUP3 SSTORE DUP5 DUP5 ADD MLOAD PUSH1 0x1 DUP4 ADD DUP1 SLOAD SWAP2 SWAP1 SWAP5 AND SWAP2 AND OR SWAP1 SWAP2 SSTORE PUSH1 0x40 DUP4 ADD MLOAD PUSH1 0x2 DUP3 ADD SSTORE PUSH1 0x60 DUP4 ADD MLOAD PUSH1 0x3 DUP3 ADD SSTORE PUSH1 0x80 DUP4 ADD MLOAD PUSH1 0x4 DUP3 ADD SSTORE PUSH1 0xA0 DUP4 ADD MLOAD PUSH1 0x5 DUP3 ADD SSTORE PUSH1 0xC0 DUP4 ADD MLOAD DUP1 MLOAD SWAP2 SWAP3 PUSH2 0x24D8 SWAP3 PUSH1 0x6 DUP6 ADD SWAP3 SWAP1 SWAP2 ADD SWAP1 PUSH2 0x390F JUMP JUMPDEST POP PUSH1 0xE0 DUP3 ADD MLOAD DUP1 MLOAD PUSH2 0x24F4 SWAP2 PUSH1 0x7 DUP5 ADD SWAP2 PUSH1 0x20 SWAP1 SWAP2 ADD SWAP1 PUSH2 0x390F JUMP JUMPDEST POP PUSH2 0x100 DUP3 ADD MLOAD PUSH1 0x8 DUP3 ADD DUP1 SLOAD PUSH1 0x1 PUSH1 0x1 PUSH1 0xA0 SHL SUB NOT AND PUSH1 0x1 PUSH1 0x1 PUSH1 0xA0 SHL SUB SWAP3 DUP4 AND OR SWAP1 SSTORE PUSH2 0x120 DUP4 ADD MLOAD PUSH1 0x9 SWAP1 SWAP3 ADD DUP1 SLOAD PUSH2 0x140 SWAP1 SWAP5 ADD MLOAD SWAP3 SWAP1 SWAP2 AND PUSH1 0x1 PUSH1 0x1 PUSH1 0xA8 SHL SUB NOT SWAP1 SWAP4 AND SWAP3 SWAP1 SWAP3 OR PUSH1 0x1 PUSH1 0xA0 SHL SWAP2 ISZERO ISZERO SWAP2 SWAP1 SWAP2 MUL OR SWAP1 SSTORE POP PUSH1 0x1 SWAP12 SWAP11 POP POP POP POP POP POP POP POP POP POP POP JUMP JUMPDEST PUSH1 0x0 PUSH2 0x256E DUP7 DUP7 PUSH2 0x2D88 JUMP JUMPDEST SWAP1 POP PUSH2 0x257B DUP14 DUP3 DUP5 PUSH2 0x2DA7 JUMP JUMPDEST SWAP14 SWAP13 POP POP POP POP POP POP POP POP POP POP POP POP POP JUMP JUMPDEST PUSH1 0x1 PUSH1 0x1 PUSH1 0xA0 SHL SUB DUP3 AND PUSH2 0x25CF JUMPI PUSH1 0x40 MLOAD PUSH32 0xCED3E10000000000000000000000000000000000000000000000000000000000 DUP2 MSTORE PUSH1 0x0 PUSH1 0x4 DUP3 ADD MSTORE PUSH1 0x24 ADD PUSH2 0x936 JUMP JUMPDEST PUSH1 0x1 PUSH1 0x1 PUSH1 0xA0 SHL SUB DUP4 DUP2 AND PUSH1 0x0 DUP2 DUP2 MSTORE PUSH1 0x1 PUSH1 0x20 SWAP1 DUP2 MSTORE PUSH1 0x40 DUP1 DUP4 KECCAK256 SWAP5 DUP8 AND DUP1 DUP5 MSTORE SWAP5 DUP3 MSTORE SWAP2 DUP3 SWAP1 KECCAK256 DUP1 SLOAD PUSH1 0xFF NOT AND DUP7 ISZERO ISZERO SWAP1 DUP2 OR SWAP1 SWAP2 SSTORE SWAP2 MLOAD SWAP2 DUP3 MSTORE PUSH32 0x17307EAB39AB6107E8899845AD3D59BD9653F200F220920489CA2B5937696C31 SWAP2 ADD PUSH2 0xB51 JUMP JUMPDEST CALLER PUSH1 0x0 SWAP1 DUP2 MSTORE PUSH1 0xA PUSH1 0x20 SWAP1 DUP2 MSTORE PUSH1 0x40 DUP1 DUP4 KECCAK256 DUP7 DUP5 MSTORE SWAP1 SWAP2 MSTORE DUP2 KECCAK256 SLOAD PUSH2 0x265A SWAP1 PUSH1 0x1 PUSH2 0x2D88 JUMP JUMPDEST CALLER PUSH1 0x0 SWAP1 DUP2 MSTORE PUSH1 0xA PUSH1 0x20 SWAP1 DUP2 MSTORE PUSH1 0x40 DUP1 DUP4 KECCAK256 DUP9 DUP5 MSTORE SWAP1 SWAP2 MSTORE DUP2 KECCAK256 SWAP2 SWAP1 SWAP2 SSTORE PUSH1 0xB PUSH2 0x2685 PUSH1 0x1 DUP7 PUSH2 0x40DE JUMP JUMPDEST DUP2 SLOAD DUP2 LT PUSH2 0x2695 JUMPI PUSH2 0x2695 PUSH2 0x40F1 JUMP JUMPDEST PUSH1 0x0 SWAP2 DUP3 MSTORE PUSH1 0x20 SWAP2 DUP3 SWAP1 KECCAK256 PUSH1 0x40 DUP1 MLOAD PUSH2 0x160 DUP2 ADD DUP3 MSTORE PUSH1 0xA SWAP1 SWAP4 MUL SWAP1 SWAP2 ADD DUP1 SLOAD PUSH1 0x1 PUSH1 0x1 PUSH1 0xA0 SHL SUB SWAP1 DUP2 AND DUP5 MSTORE PUSH1 0x1 DUP3 ADD SLOAD AND DUP4 DUP6 ADD MSTORE PUSH1 0x2 DUP2 ADD SLOAD DUP4 DUP4 ADD MSTORE PUSH1 0x3 DUP2 ADD SLOAD PUSH1 0x60 DUP5 ADD MSTORE PUSH1 0x4 DUP2 ADD SLOAD PUSH1 0x80 DUP5 ADD MSTORE PUSH1 0x5 DUP2 ADD SLOAD PUSH1 0xA0 DUP5 ADD MSTORE PUSH1 0x6 DUP2 ADD DUP1 SLOAD DUP4 MLOAD DUP2 DUP8 MUL DUP2 ADD DUP8 ADD SWAP1 SWAP5 MSTORE DUP1 DUP5 MSTORE SWAP4 SWAP5 SWAP2 SWAP4 PUSH1 0xC0 DUP7 ADD SWAP4 SWAP3 DUP4 ADD DUP3 DUP3 DUP1 ISZERO PUSH2 0x2741 JUMPI PUSH1 0x20 MUL DUP3 ADD SWAP2 SWAP1 PUSH1 0x0 MSTORE PUSH1 0x20 PUSH1 0x0 KECCAK256 SWAP1 JUMPDEST DUP2 SLOAD DUP2 MSTORE PUSH1 0x20 ADD SWAP1 PUSH1 0x1 ADD SWAP1 DUP1 DUP4 GT PUSH2 0x272D JUMPI JUMPDEST POP POP POP POP POP DUP2 MSTORE PUSH1 0x20 ADD PUSH1 0x7 DUP3 ADD DUP1 SLOAD DUP1 PUSH1 0x20 MUL PUSH1 0x20 ADD PUSH1 0x40 MLOAD SWAP1 DUP2 ADD PUSH1 0x40 MSTORE DUP1 SWAP3 SWAP2 SWAP1 DUP2 DUP2 MSTORE PUSH1 0x20 ADD DUP3 DUP1 SLOAD DUP1 ISZERO PUSH2 0x2799 JUMPI PUSH1 0x20 MUL DUP3 ADD SWAP2 SWAP1 PUSH1 0x0 MSTORE PUSH1 0x20 PUSH1 0x0 KECCAK256 SWAP1 JUMPDEST DUP2 SLOAD DUP2 MSTORE PUSH1 0x20 ADD SWAP1 PUSH1 0x1 ADD SWAP1 DUP1 DUP4 GT PUSH2 0x2785 JUMPI JUMPDEST POP POP POP SWAP2 DUP4 MSTORE POP POP PUSH1 0x8 DUP3 ADD SLOAD PUSH1 0x1 PUSH1 0x1 PUSH1 0xA0 SHL SUB SWAP1 DUP2 AND PUSH1 0x20 DUP1 DUP5 ADD SWAP2 SWAP1 SWAP2 MSTORE PUSH1 0x9 SWAP1 SWAP4 ADD SLOAD SWAP1 DUP2 AND PUSH1 0x40 DUP4 ADD MSTORE PUSH1 0x1 PUSH1 0xA0 SHL SWAP1 DIV PUSH1 0xFF AND ISZERO ISZERO PUSH1 0x60 SWAP2 DUP3 ADD MSTORE CALLER SWAP2 DUP4 ADD SWAP2 SWAP1 SWAP2 MSTORE DUP2 ADD DUP7 SWAP1 MSTORE CALLVALUE PUSH1 0xA0 DUP3 ADD MSTORE PUSH1 0xE0 DUP2 ADD DUP5 SWAP1 MSTORE SWAP1 POP DUP1 PUSH1 0xB PUSH2 0x2804 PUSH1 0x1 DUP8 PUSH2 0x40DE JUMP JUMPDEST DUP2 SLOAD DUP2 LT PUSH2 0x2814 JUMPI PUSH2 0x2814 PUSH2 0x40F1 JUMP JUMPDEST PUSH1 0x0 SWAP2 DUP3 MSTORE PUSH1 0x20 SWAP2 DUP3 SWAP1 KECCAK256 DUP4 MLOAD PUSH1 0xA SWAP1 SWAP3 MUL ADD DUP1 SLOAD PUSH1 0x1 PUSH1 0x1 PUSH1 0xA0 SHL SUB SWAP3 DUP4 AND PUSH1 0x1 PUSH1 0x1 PUSH1 0xA0 SHL SUB NOT SWAP2 DUP3 AND OR DUP3 SSTORE DUP5 DUP5 ADD MLOAD PUSH1 0x1 DUP4 ADD DUP1 SLOAD SWAP2 SWAP1 SWAP5 AND SWAP2 AND OR SWAP1 SWAP2 SSTORE PUSH1 0x40 DUP4 ADD MLOAD PUSH1 0x2 DUP3 ADD SSTORE PUSH1 0x60 DUP4 ADD MLOAD PUSH1 0x3 DUP3 ADD SSTORE PUSH1 0x80 DUP4 ADD MLOAD PUSH1 0x4 DUP3 ADD SSTORE PUSH1 0xA0 DUP4 ADD MLOAD PUSH1 0x5 DUP3 ADD SSTORE PUSH1 0xC0 DUP4 ADD MLOAD DUP1 MLOAD SWAP2 SWAP3 PUSH2 0x289A SWAP3 PUSH1 0x6 DUP6 ADD SWAP3 SWAP1 SWAP2 ADD SWAP1 PUSH2 0x390F JUMP JUMPDEST POP PUSH1 0xE0 DUP3 ADD MLOAD DUP1 MLOAD PUSH2 0x28B6 SWAP2 PUSH1 0x7 DUP5 ADD SWAP2 PUSH1 0x20 SWAP1 SWAP2 ADD SWAP1 PUSH2 0x390F JUMP JUMPDEST POP PUSH2 0x100 DUP3 ADD MLOAD PUSH1 0x8 DUP3 ADD DUP1 SLOAD PUSH1 0x1 PUSH1 0x1 PUSH1 0xA0 SHL SUB NOT AND PUSH1 0x1 PUSH1 0x1 PUSH1 0xA0 SHL SUB SWAP3 DUP4 AND OR SWAP1 SSTORE PUSH2 0x120 DUP4 ADD MLOAD PUSH1 0x9 SWAP1 SWAP3 ADD DUP1 SLOAD PUSH2 0x140 SWAP1 SWAP5 ADD MLOAD SWAP3 SWAP1 SWAP2 AND PUSH1 0x1 PUSH1 0x1 PUSH1 0xA8 SHL SUB NOT SWAP1 SWAP4 AND SWAP3 SWAP1 SWAP3 OR PUSH1 0x1 PUSH1 0xA0 SHL SWAP2 ISZERO ISZERO SWAP2 SWAP1 SWAP2 MUL OR SWAP1 SSTORE POP PUSH1 0x1 SWAP5 SWAP4 POP POP POP POP JUMP JUMPDEST PUSH1 0x60 PUSH1 0x0 PUSH2 0x292A DUP4 PUSH2 0x322A JUMP JUMPDEST PUSH1 0x1 ADD SWAP1 POP PUSH1 0x0 DUP2 PUSH8 0xFFFFFFFFFFFFFFFF DUP2 GT ISZERO PUSH2 0x294A JUMPI PUSH2 0x294A PUSH2 0x39FC JUMP JUMPDEST PUSH1 0x40 MLOAD SWAP1 DUP1 DUP3 MSTORE DUP1 PUSH1 0x1F ADD PUSH1 0x1F NOT AND PUSH1 0x20 ADD DUP3 ADD PUSH1 0x40 MSTORE DUP1 ISZERO PUSH2 0x2974 JUMPI PUSH1 0x20 DUP3 ADD DUP2 DUP1 CALLDATASIZE DUP4 CALLDATACOPY ADD SWAP1 POP JUMPDEST POP SWAP1 POP DUP2 DUP2 ADD PUSH1 0x20 ADD JUMPDEST PUSH1 0x0 NOT ADD PUSH32 0x3031323334353637383961626364656600000000000000000000000000000000 PUSH1 0xA DUP7 MOD BYTE DUP2 MSTORE8 PUSH1 0xA DUP6 DIV SWAP5 POP DUP5 PUSH2 0x297E JUMPI POP SWAP4 SWAP3 POP POP POP JUMP JUMPDEST CALLER PUSH1 0x0 SWAP1 DUP2 MSTORE PUSH1 0xA PUSH1 0x20 SWAP1 DUP2 MSTORE PUSH1 0x40 DUP1 DUP4 KECCAK256 DUP5 DUP5 MSTORE SWAP1 SWAP2 MSTORE DUP2 KECCAK256 SLOAD PUSH2 0x29E3 SWAP1 PUSH1 0x1 PUSH2 0x2D88 JUMP JUMPDEST CALLER PUSH1 0x0 DUP2 DUP2 MSTORE PUSH1 0xA PUSH1 0x20 DUP2 DUP2 MSTORE PUSH1 0x40 DUP1 DUP5 KECCAK256 DUP9 DUP6 MSTORE DUP3 MSTORE DUP1 DUP5 KECCAK256 SWAP6 SWAP1 SWAP6 SSTORE DUP5 MLOAD PUSH2 0x160 DUP2 ADD DUP7 MSTORE SWAP4 DUP5 MSTORE DUP4 DUP2 ADD DUP4 DUP2 MSTORE DUP5 DUP7 ADD DUP9 DUP2 MSTORE PUSH1 0x60 DUP7 ADD DUP6 DUP2 MSTORE CALLVALUE PUSH1 0x80 DUP9 ADD SWAP1 DUP2 MSTORE PUSH1 0xA0 DUP9 ADD DUP8 DUP2 MSTORE DUP10 MLOAD DUP9 DUP2 MSTORE DUP1 DUP8 ADD DUP12 MSTORE PUSH1 0xC0 DUP11 ADD SWAP1 DUP2 MSTORE DUP11 MLOAD DUP10 DUP2 MSTORE DUP1 DUP9 ADD SWAP1 SWAP12 MSTORE PUSH1 0xE0 DUP11 ADD SWAP11 SWAP1 SWAP11 MSTORE PUSH2 0x100 DUP10 ADD DUP9 SWAP1 MSTORE PUSH2 0x120 DUP10 ADD DUP9 SWAP1 MSTORE PUSH2 0x140 DUP10 ADD DUP9 SWAP1 MSTORE PUSH1 0xB DUP1 SLOAD PUSH1 0x1 DUP2 ADD DUP3 SSTORE SWAP9 MSTORE DUP9 MLOAD PUSH32 0x175B7A638427703F0DBE7BB9BBF987A2551717B34E79F33B5B1008D1FA01DB9 SWAP9 SWAP1 SWAP8 MUL SWAP8 DUP9 ADD DUP1 SLOAD PUSH1 0x1 PUSH1 0x1 PUSH1 0xA0 SHL SUB NOT SWAP1 DUP2 AND PUSH1 0x1 PUSH1 0x1 PUSH1 0xA0 SHL SUB SWAP10 DUP11 AND OR DUP3 SSTORE SWAP6 MLOAD PUSH32 0x175B7A638427703F0DBE7BB9BBF987A2551717B34E79F33B5B1008D1FA01DBA DUP11 ADD DUP1 SLOAD SWAP1 SWAP8 AND SWAP9 AND SWAP8 SWAP1 SWAP8 OR SWAP1 SWAP5 SSTORE SWAP2 MLOAD PUSH32 0x175B7A638427703F0DBE7BB9BBF987A2551717B34E79F33B5B1008D1FA01DBB DUP8 ADD SSTORE MLOAD PUSH32 0x175B7A638427703F0DBE7BB9BBF987A2551717B34E79F33B5B1008D1FA01DBC DUP7 ADD SSTORE MLOAD PUSH32 0x175B7A638427703F0DBE7BB9BBF987A2551717B34E79F33B5B1008D1FA01DBD DUP6 ADD SSTORE MLOAD PUSH32 0x175B7A638427703F0DBE7BB9BBF987A2551717B34E79F33B5B1008D1FA01DBE DUP5 ADD SSTORE SWAP4 MLOAD DUP1 MLOAD SWAP4 SWAP5 DUP6 SWAP5 SWAP3 SWAP4 PUSH2 0x2BC1 SWAP4 PUSH32 0x175B7A638427703F0DBE7BB9BBF987A2551717B34E79F33B5B1008D1FA01DBF SWAP1 SWAP2 ADD SWAP3 SWAP1 SWAP2 ADD SWAP1 PUSH2 0x390F JUMP JUMPDEST POP PUSH1 0xE0 DUP3 ADD MLOAD DUP1 MLOAD PUSH2 0x2BDD SWAP2 PUSH1 0x7 DUP5 ADD SWAP2 PUSH1 0x20 SWAP1 SWAP2 ADD SWAP1 PUSH2 0x390F JUMP JUMPDEST POP PUSH2 0x100 DUP3 ADD MLOAD PUSH1 0x8 DUP3 ADD DUP1 SLOAD PUSH1 0x1 PUSH1 0x1 PUSH1 0xA0 SHL SUB NOT AND PUSH1 0x1 PUSH1 0x1 PUSH1 0xA0 SHL SUB SWAP3 DUP4 AND OR SWAP1 SSTORE PUSH2 0x120 DUP4 ADD MLOAD PUSH1 0x9 SWAP1 SWAP3 ADD DUP1 SLOAD PUSH2 0x140 SWAP1 SWAP5 ADD MLOAD SWAP3 SWAP1 SWAP2 AND PUSH1 0x1 PUSH1 0x1 PUSH1 0xA8 SHL SUB NOT SWAP1 SWAP4 AND SWAP3 SWAP1 SWAP3 OR PUSH1 0x1 PUSH1 0xA0 SHL SWAP2 ISZERO ISZERO SWAP2 SWAP1 SWAP2 MUL OR SWAP1 SSTORE POP POP PUSH1 0xB SLOAD SWAP2 SWAP1 POP JUMP JUMPDEST PUSH1 0x1 PUSH1 0x1 PUSH1 0xA0 SHL SUB DUP5 AND PUSH2 0x2C6D JUMPI PUSH1 0x40 MLOAD PUSH4 0x2BFA23E7 PUSH1 0xE1 SHL DUP2 MSTORE PUSH1 0x0 PUSH1 0x4 DUP3 ADD MSTORE PUSH1 0x24 ADD PUSH2 0x936 JUMP JUMPDEST PUSH1 0x1 PUSH1 0x1 PUSH1 0xA0 SHL SUB DUP6 AND PUSH2 0x2C96 JUMPI PUSH1 0x40 MLOAD PUSH3 0x6A0D45 PUSH1 0xE2 SHL DUP2 MSTORE PUSH1 0x0 PUSH1 0x4 DUP3 ADD MSTORE PUSH1 0x24 ADD PUSH2 0x936 JUMP JUMPDEST PUSH1 0x40 DUP1 MLOAD PUSH1 0x1 DUP1 DUP3 MSTORE PUSH1 0x20 DUP3 ADD DUP7 SWAP1 MSTORE DUP2 DUP4 ADD SWAP1 DUP2 MSTORE PUSH1 0x60 DUP3 ADD DUP6 SWAP1 MSTORE PUSH1 0x80 DUP3 ADD SWAP1 SWAP3 MSTORE SWAP1 PUSH2 0x2CC8 DUP8 DUP8 DUP5 DUP5 DUP8 PUSH2 0x2D35 JUMP JUMPDEST POP POP POP POP POP POP POP JUMP JUMPDEST PUSH1 0x1 PUSH1 0x1 PUSH1 0xA0 SHL SUB DUP4 AND PUSH2 0x2CFA JUMPI PUSH1 0x40 MLOAD PUSH3 0x6A0D45 PUSH1 0xE2 SHL DUP2 MSTORE PUSH1 0x0 PUSH1 0x4 DUP3 ADD MSTORE PUSH1 0x24 ADD PUSH2 0x936 JUMP JUMPDEST PUSH1 0x40 DUP1 MLOAD PUSH1 0x1 DUP1 DUP3 MSTORE PUSH1 0x20 DUP3 ADD DUP6 SWAP1 MSTORE DUP2 DUP4 ADD SWAP1 DUP2 MSTORE PUSH1 0x60 DUP3 ADD DUP5 SWAP1 MSTORE PUSH1 0xA0 DUP3 ADD SWAP1 SWAP3 MSTORE PUSH1 0x0 PUSH1 0x80 DUP3 ADD DUP2 DUP2 MSTORE SWAP2 SWAP3 SWAP2 PUSH2 0xCDF SWAP2 DUP8 SWAP2 DUP6 SWAP1 DUP6 SWAP1 JUMPDEST PUSH2 0x2D41 DUP6 DUP6 DUP6 DUP6 PUSH2 0x330C JUMP JUMPDEST PUSH1 0x1 PUSH1 0x1 PUSH1 0xA0 SHL SUB DUP5 AND ISZERO PUSH2 0xCDF JUMPI DUP3 MLOAD CALLER SWAP1 PUSH1 0x1 SUB PUSH2 0x2D7A JUMPI PUSH1 0x20 DUP5 DUP2 ADD MLOAD SWAP1 DUP5 ADD MLOAD PUSH2 0x2D73 DUP4 DUP10 DUP10 DUP6 DUP6 DUP10 PUSH2 0x3318 JUMP JUMPDEST POP POP PUSH2 0xBDC JUMP JUMPDEST PUSH2 0xBDC DUP2 DUP8 DUP8 DUP8 DUP8 DUP8 PUSH2 0x343C JUMP JUMPDEST PUSH1 0x0 DUP1 PUSH2 0x2D95 DUP4 DUP6 PUSH2 0x4107 JUMP JUMPDEST SWAP1 POP DUP4 DUP2 LT ISZERO PUSH2 0x180E JUMPI PUSH2 0x180E PUSH2 0x42F9 JUMP JUMPDEST PUSH1 0x0 DUP1 PUSH1 0xB PUSH2 0x2DB7 PUSH1 0x1 DUP8 PUSH2 0x40DE JUMP JUMPDEST DUP2 SLOAD DUP2 LT PUSH2 0x2DC7 JUMPI PUSH2 0x2DC7 PUSH2 0x40F1 JUMP JUMPDEST PUSH1 0x0 SWAP2 DUP3 MSTORE PUSH1 0x20 SWAP2 DUP3 SWAP1 KECCAK256 PUSH1 0x40 DUP1 MLOAD PUSH2 0x160 DUP2 ADD DUP3 MSTORE PUSH1 0xA SWAP1 SWAP4 MUL SWAP1 SWAP2 ADD DUP1 SLOAD PUSH1 0x1 PUSH1 0x1 PUSH1 0xA0 SHL SUB SWAP1 DUP2 AND DUP5 MSTORE PUSH1 0x1 DUP3 ADD SLOAD AND DUP4 DUP6 ADD MSTORE PUSH1 0x2 DUP2 ADD SLOAD DUP4 DUP4 ADD MSTORE PUSH1 0x3 DUP2 ADD SLOAD PUSH1 0x60 DUP5 ADD MSTORE PUSH1 0x4 DUP2 ADD SLOAD PUSH1 0x80 DUP5 ADD MSTORE PUSH1 0x5 DUP2 ADD SLOAD PUSH1 0xA0 DUP5 ADD MSTORE PUSH1 0x6 DUP2 ADD DUP1 SLOAD DUP4 MLOAD DUP2 DUP8 MUL DUP2 ADD DUP8 ADD SWAP1 SWAP5 MSTORE DUP1 DUP5 MSTORE SWAP4 SWAP5 SWAP2 SWAP4 PUSH1 0xC0 DUP7 ADD SWAP4 SWAP3 DUP4 ADD DUP3 DUP3 DUP1 ISZERO PUSH2 0x2E73 JUMPI PUSH1 0x20 MUL DUP3 ADD SWAP2 SWAP1 PUSH1 0x0 MSTORE PUSH1 0x20 PUSH1 0x0 KECCAK256 SWAP1 JUMPDEST DUP2 SLOAD DUP2 MSTORE PUSH1 0x20 ADD SWAP1 PUSH1 0x1 ADD SWAP1 DUP1 DUP4 GT PUSH2 0x2E5F JUMPI JUMPDEST POP POP POP POP POP DUP2 MSTORE PUSH1 0x20 ADD PUSH1 0x7 DUP3 ADD DUP1 SLOAD DUP1 PUSH1 0x20 MUL PUSH1 0x20 ADD PUSH1 0x40 MLOAD SWAP1 DUP2 ADD PUSH1 0x40 MSTORE DUP1 SWAP3 SWAP2 SWAP1 DUP2 DUP2 MSTORE PUSH1 0x20 ADD DUP3 DUP1 SLOAD DUP1 ISZERO PUSH2 0x2ECB JUMPI PUSH1 0x20 MUL DUP3 ADD SWAP2 SWAP1 PUSH1 0x0 MSTORE PUSH1 0x20 PUSH1 0x0 KECCAK256 SWAP1 JUMPDEST DUP2 SLOAD DUP2 MSTORE PUSH1 0x20 ADD SWAP1 PUSH1 0x1 ADD SWAP1 DUP1 DUP4 GT PUSH2 0x2EB7 JUMPI JUMPDEST POP POP POP SWAP2 DUP4 MSTORE POP POP PUSH1 0x8 DUP3 ADD SLOAD PUSH1 0x1 PUSH1 0x1 PUSH1 0xA0 SHL SUB SWAP1 DUP2 AND PUSH1 0x20 DUP4 ADD MSTORE PUSH1 0x9 SWAP1 SWAP3 ADD SLOAD SWAP2 DUP3 AND PUSH1 0x40 DUP3 ADD MSTORE PUSH1 0x1 PUSH1 0xA0 SHL SWAP1 SWAP2 DIV PUSH1 0xFF AND ISZERO ISZERO PUSH1 0x60 SWAP1 SWAP2 ADD MSTORE SWAP1 POP PUSH1 0x0 PUSH2 0x2F23 PUSH1 0x64 PUSH2 0x2F1D DUP8 PUSH1 0xA PUSH2 0x3525 JUMP JUMPDEST SWAP1 PUSH2 0x355D JUMP JUMPDEST SWAP1 POP PUSH1 0x0 DUP1 JUMPDEST PUSH1 0x0 DUP7 DUP2 MSTORE PUSH1 0x9 PUSH1 0x20 MSTORE PUSH1 0x40 SWAP1 KECCAK256 SLOAD DUP2 LT ISZERO PUSH2 0x2FB3 JUMPI PUSH1 0x0 DUP7 DUP2 MSTORE PUSH1 0x8 PUSH1 0x20 SWAP1 DUP2 MSTORE PUSH1 0x40 DUP1 DUP4 KECCAK256 PUSH1 0x9 SWAP1 SWAP3 MSTORE DUP3 KECCAK256 DUP1 SLOAD DUP4 SWAP2 SWAP1 DUP6 SWAP1 DUP2 LT PUSH2 0x2F6C JUMPI PUSH2 0x2F6C PUSH2 0x40F1 JUMP JUMPDEST PUSH1 0x0 SWAP2 DUP3 MSTORE PUSH1 0x20 DUP1 DUP4 KECCAK256 SWAP1 SWAP2 ADD SLOAD PUSH1 0x1 PUSH1 0x1 PUSH1 0xA0 SHL SUB AND DUP4 MSTORE DUP3 ADD SWAP3 SWAP1 SWAP3 MSTORE PUSH1 0x40 ADD SWAP1 KECCAK256 SLOAD SWAP1 POP PUSH2 0x2F9D DUP4 DUP3 PUSH2 0x2D88 JUMP JUMPDEST SWAP3 POP POP DUP1 DUP1 PUSH2 0x2FAB SWAP1 PUSH2 0x411A JUMP JUMPDEST SWAP2 POP POP PUSH2 0x2F29 JUMP JUMPDEST POP PUSH1 0x0 PUSH2 0x2FC0 DUP4 DUP4 PUSH2 0x355D JUMP JUMPDEST SWAP1 POP PUSH1 0x0 JUMPDEST PUSH1 0x0 DUP8 DUP2 MSTORE PUSH1 0x9 PUSH1 0x20 MSTORE PUSH1 0x40 SWAP1 KECCAK256 SLOAD DUP2 LT ISZERO PUSH2 0x30B3 JUMPI PUSH1 0x0 DUP8 DUP2 MSTORE PUSH1 0x8 PUSH1 0x20 SWAP1 DUP2 MSTORE PUSH1 0x40 DUP1 DUP4 KECCAK256 PUSH1 0x9 SWAP1 SWAP3 MSTORE DUP3 KECCAK256 DUP1 SLOAD DUP4 SWAP2 SWAP1 DUP6 SWAP1 DUP2 LT PUSH2 0x3008 JUMPI PUSH2 0x3008 PUSH2 0x40F1 JUMP JUMPDEST PUSH1 0x0 SWAP2 DUP3 MSTORE PUSH1 0x20 DUP1 DUP4 KECCAK256 SWAP1 SWAP2 ADD SLOAD PUSH1 0x1 PUSH1 0x1 PUSH1 0xA0 SHL SUB AND DUP4 MSTORE DUP3 ADD SWAP3 SWAP1 SWAP3 MSTORE PUSH1 0x40 ADD DUP2 KECCAK256 SLOAD SWAP2 POP PUSH2 0x3039 DUP5 DUP4 PUSH2 0x3525 JUMP JUMPDEST PUSH1 0x0 DUP11 DUP2 MSTORE PUSH1 0x9 PUSH1 0x20 MSTORE PUSH1 0x40 SWAP1 KECCAK256 DUP1 SLOAD SWAP2 SWAP3 POP SWAP1 DUP5 SWAP1 DUP2 LT PUSH2 0x305D JUMPI PUSH2 0x305D PUSH2 0x40F1 JUMP JUMPDEST PUSH1 0x0 SWAP2 DUP3 MSTORE PUSH1 0x20 DUP3 KECCAK256 ADD SLOAD PUSH1 0x40 MLOAD PUSH1 0x1 PUSH1 0x1 PUSH1 0xA0 SHL SUB SWAP1 SWAP2 AND SWAP2 DUP4 ISZERO PUSH2 0x8FC MUL SWAP2 DUP5 SWAP2 DUP2 DUP2 DUP2 DUP6 DUP9 DUP9 CALL SWAP4 POP POP POP POP ISZERO DUP1 ISZERO PUSH2 0x309D JUMPI RETURNDATASIZE PUSH1 0x0 DUP1 RETURNDATACOPY RETURNDATASIZE PUSH1 0x0 REVERT JUMPDEST POP POP POP DUP1 DUP1 PUSH2 0x30AB SWAP1 PUSH2 0x411A JUMP JUMPDEST SWAP2 POP POP PUSH2 0x2FC5 JUMP JUMPDEST POP PUSH1 0x0 PUSH2 0x30C0 DUP9 DUP6 PUSH2 0x3572 JUMP JUMPDEST PUSH2 0x100 DUP7 ADD MLOAD PUSH1 0x40 MLOAD SWAP2 SWAP3 POP PUSH1 0x1 PUSH1 0x1 PUSH1 0xA0 SHL SUB AND SWAP1 DUP3 ISZERO PUSH2 0x8FC MUL SWAP1 DUP4 SWAP1 PUSH1 0x0 DUP2 DUP2 DUP2 DUP6 DUP9 DUP9 CALL SWAP4 POP POP POP POP ISZERO DUP1 ISZERO PUSH2 0x30FE JUMPI RETURNDATASIZE PUSH1 0x0 DUP1 RETURNDATACOPY RETURNDATASIZE PUSH1 0x0 REVERT JUMPDEST POP DUP5 PUSH1 0xB PUSH2 0x310D PUSH1 0x1 DUP13 PUSH2 0x40DE JUMP JUMPDEST DUP2 SLOAD DUP2 LT PUSH2 0x311D JUMPI PUSH2 0x311D PUSH2 0x40F1 JUMP JUMPDEST PUSH1 0x0 SWAP2 DUP3 MSTORE PUSH1 0x20 SWAP2 DUP3 SWAP1 KECCAK256 DUP4 MLOAD PUSH1 0xA SWAP1 SWAP3 MUL ADD DUP1 SLOAD PUSH1 0x1 PUSH1 0x1 PUSH1 0xA0 SHL SUB SWAP3 DUP4 AND PUSH1 0x1 PUSH1 0x1 PUSH1 0xA0 SHL SUB NOT SWAP2 DUP3 AND OR DUP3 SSTORE DUP5 DUP5 ADD MLOAD PUSH1 0x1 DUP4 ADD DUP1 SLOAD SWAP2 SWAP1 SWAP5 AND SWAP2 AND OR SWAP1 SWAP2 SSTORE PUSH1 0x40 DUP4 ADD MLOAD PUSH1 0x2 DUP3 ADD SSTORE PUSH1 0x60 DUP4 ADD MLOAD PUSH1 0x3 DUP3 ADD SSTORE PUSH1 0x80 DUP4 ADD MLOAD PUSH1 0x4 DUP3 ADD SSTORE PUSH1 0xA0 DUP4 ADD MLOAD PUSH1 0x5 DUP3 ADD SSTORE PUSH1 0xC0 DUP4 ADD MLOAD DUP1 MLOAD SWAP2 SWAP3 PUSH2 0x31A3 SWAP3 PUSH1 0x6 DUP6 ADD SWAP3 SWAP1 SWAP2 ADD SWAP1 PUSH2 0x390F JUMP JUMPDEST POP PUSH1 0xE0 DUP3 ADD MLOAD DUP1 MLOAD PUSH2 0x31BF SWAP2 PUSH1 0x7 DUP5 ADD SWAP2 PUSH1 0x20 SWAP1 SWAP2 ADD SWAP1 PUSH2 0x390F JUMP JUMPDEST POP PUSH2 0x100 DUP3 ADD MLOAD PUSH1 0x8 DUP3 ADD DUP1 SLOAD PUSH1 0x1 PUSH1 0x1 PUSH1 0xA0 SHL SUB NOT AND PUSH1 0x1 PUSH1 0x1 PUSH1 0xA0 SHL SUB SWAP3 DUP4 AND OR SWAP1 SSTORE PUSH2 0x120 DUP4 ADD MLOAD PUSH1 0x9 SWAP1 SWAP3 ADD DUP1 SLOAD PUSH2 0x140 SWAP1 SWAP5 ADD MLOAD SWAP3 SWAP1 SWAP2 AND PUSH1 0x1 PUSH1 0x1 PUSH1 0xA8 SHL SUB NOT SWAP1 SWAP4 AND SWAP3 SWAP1 SWAP3 OR PUSH1 0x1 PUSH1 0xA0 SHL SWAP2 ISZERO ISZERO SWAP2 SWAP1 SWAP2 MUL OR SWAP1 SSTORE POP PUSH1 0x1 SWAP9 SWAP8 POP POP POP POP POP POP POP POP JUMP JUMPDEST PUSH1 0x0 DUP1 PUSH27 0x184F03E93FF9F4DAA797ED6E38ED64BF6A1F010000000000000000 DUP4 LT PUSH2 0x3273 JUMPI PUSH27 0x184F03E93FF9F4DAA797ED6E38ED64BF6A1F010000000000000000 DUP4 DIV SWAP3 POP PUSH1 0x40 ADD JUMPDEST PUSH14 0x4EE2D6D415B85ACEF8100000000 DUP4 LT PUSH2 0x329F JUMPI PUSH14 0x4EE2D6D415B85ACEF8100000000 DUP4 DIV SWAP3 POP PUSH1 0x20 ADD JUMPDEST PUSH7 0x2386F26FC10000 DUP4 LT PUSH2 0x32BD JUMPI PUSH7 0x2386F26FC10000 DUP4 DIV SWAP3 POP PUSH1 0x10 ADD JUMPDEST PUSH4 0x5F5E100 DUP4 LT PUSH2 0x32D5 JUMPI PUSH4 0x5F5E100 DUP4 DIV SWAP3 POP PUSH1 0x8 ADD JUMPDEST PUSH2 0x2710 DUP4 LT PUSH2 0x32E9 JUMPI PUSH2 0x2710 DUP4 DIV SWAP3 POP PUSH1 0x4 ADD JUMPDEST PUSH1 0x64 DUP4 LT PUSH2 0x32FB JUMPI PUSH1 0x64 DUP4 DIV SWAP3 POP PUSH1 0x2 ADD JUMPDEST PUSH1 0xA DUP4 LT PUSH2 0x779 JUMPI PUSH1 0x1 ADD SWAP3 SWAP2 POP POP JUMP JUMPDEST PUSH2 0x8D6 DUP5 DUP5 DUP5 DUP5 PUSH2 0x358E JUMP JUMPDEST PUSH1 0x1 PUSH1 0x1 PUSH1 0xA0 SHL SUB DUP5 AND EXTCODESIZE ISZERO PUSH2 0xBDC JUMPI PUSH1 0x40 MLOAD PUSH4 0xF23A6E61 PUSH1 0xE0 SHL DUP2 MSTORE PUSH1 0x1 PUSH1 0x1 PUSH1 0xA0 SHL SUB DUP6 AND SWAP1 PUSH4 0xF23A6E61 SWAP1 PUSH2 0x335C SWAP1 DUP10 SWAP1 DUP10 SWAP1 DUP9 SWAP1 DUP9 SWAP1 DUP9 SWAP1 PUSH1 0x4 ADD PUSH2 0x430F JUMP JUMPDEST PUSH1 0x20 PUSH1 0x40 MLOAD DUP1 DUP4 SUB DUP2 PUSH1 0x0 DUP8 GAS CALL SWAP3 POP POP POP DUP1 ISZERO PUSH2 0x3397 JUMPI POP PUSH1 0x40 DUP1 MLOAD PUSH1 0x1F RETURNDATASIZE SWAP1 DUP2 ADD PUSH1 0x1F NOT AND DUP3 ADD SWAP1 SWAP3 MSTORE PUSH2 0x3394 SWAP2 DUP2 ADD SWAP1 PUSH2 0x4352 JUMP JUMPDEST PUSH1 0x1 JUMPDEST PUSH2 0x3400 JUMPI RETURNDATASIZE DUP1 DUP1 ISZERO PUSH2 0x33C5 JUMPI PUSH1 0x40 MLOAD SWAP2 POP PUSH1 0x1F NOT PUSH1 0x3F RETURNDATASIZE ADD AND DUP3 ADD PUSH1 0x40 MSTORE RETURNDATASIZE DUP3 MSTORE RETURNDATASIZE PUSH1 0x0 PUSH1 0x20 DUP5 ADD RETURNDATACOPY PUSH2 0x33CA JUMP JUMPDEST PUSH1 0x60 SWAP2 POP JUMPDEST POP DUP1 MLOAD PUSH1 0x0 SUB PUSH2 0x33F8 JUMPI PUSH1 0x40 MLOAD PUSH4 0x2BFA23E7 PUSH1 0xE1 SHL DUP2 MSTORE PUSH1 0x1 PUSH1 0x1 PUSH1 0xA0 SHL SUB DUP7 AND PUSH1 0x4 DUP3 ADD MSTORE PUSH1 0x24 ADD PUSH2 0x936 JUMP JUMPDEST DUP1 MLOAD DUP2 PUSH1 0x20 ADD REVERT JUMPDEST PUSH1 0x1 PUSH1 0x1 PUSH1 0xE0 SHL SUB NOT DUP2 AND PUSH4 0xF23A6E61 PUSH1 0xE0 SHL EQ PUSH2 0x2CC8 JUMPI PUSH1 0x40 MLOAD PUSH4 0x2BFA23E7 PUSH1 0xE1 SHL DUP2 MSTORE PUSH1 0x1 PUSH1 0x1 PUSH1 0xA0 SHL SUB DUP7 AND PUSH1 0x4 DUP3 ADD MSTORE PUSH1 0x24 ADD PUSH2 0x936 JUMP JUMPDEST PUSH1 0x1 PUSH1 0x1 PUSH1 0xA0 SHL SUB DUP5 AND EXTCODESIZE ISZERO PUSH2 0xBDC JUMPI PUSH1 0x40 MLOAD PUSH4 0xBC197C81 PUSH1 0xE0 SHL DUP2 MSTORE PUSH1 0x1 PUSH1 0x1 PUSH1 0xA0 SHL SUB DUP6 AND SWAP1 PUSH4 0xBC197C81 SWAP1 PUSH2 0x3480 SWAP1 DUP10 SWAP1 DUP10 SWAP1 DUP9 SWAP1 DUP9 SWAP1 DUP9 SWAP1 PUSH1 0x4 ADD PUSH2 0x436F JUMP JUMPDEST PUSH1 0x20 PUSH1 0x40 MLOAD DUP1 DUP4 SUB DUP2 PUSH1 0x0 DUP8 GAS CALL SWAP3 POP POP POP DUP1 ISZERO PUSH2 0x34BB JUMPI POP PUSH1 0x40 DUP1 MLOAD PUSH1 0x1F RETURNDATASIZE SWAP1 DUP2 ADD PUSH1 0x1F NOT AND DUP3 ADD SWAP1 SWAP3 MSTORE PUSH2 0x34B8 SWAP2 DUP2 ADD SWAP1 PUSH2 0x4352 JUMP JUMPDEST PUSH1 0x1 JUMPDEST PUSH2 0x34E9 JUMPI RETURNDATASIZE DUP1 DUP1 ISZERO PUSH2 0x33C5 JUMPI PUSH1 0x40 MLOAD SWAP2 POP PUSH1 0x1F NOT PUSH1 0x3F RETURNDATASIZE ADD AND DUP3 ADD PUSH1 0x40 MSTORE RETURNDATASIZE DUP3 MSTORE RETURNDATASIZE PUSH1 0x0 PUSH1 0x20 DUP5 ADD RETURNDATACOPY PUSH2 0x33CA JUMP JUMPDEST PUSH1 0x1 PUSH1 0x1 PUSH1 0xE0 SHL SUB NOT DUP2 AND PUSH4 0xBC197C81 PUSH1 0xE0 SHL EQ PUSH2 0x2CC8 JUMPI PUSH1 0x40 MLOAD PUSH4 0x2BFA23E7 PUSH1 0xE1 SHL DUP2 MSTORE PUSH1 0x1 PUSH1 0x1 PUSH1 0xA0 SHL SUB DUP7 AND PUSH1 0x4 DUP3 ADD MSTORE PUSH1 0x24 ADD PUSH2 0x936 JUMP JUMPDEST PUSH1 0x0 DUP3 PUSH1 0x0 SUB PUSH2 0x3537 JUMPI POP PUSH1 0x0 PUSH2 0x779 JUMP JUMPDEST PUSH1 0x0 PUSH2 0x3543 DUP4 DUP6 PUSH2 0x42E2 JUMP JUMPDEST SWAP1 POP DUP3 PUSH2 0x3550 DUP6 DUP4 PUSH2 0x42CE JUMP JUMPDEST EQ PUSH2 0x180E JUMPI PUSH2 0x180E PUSH2 0x42F9 JUMP JUMPDEST PUSH1 0x0 DUP1 PUSH2 0x356A DUP4 DUP6 PUSH2 0x42CE JUMP JUMPDEST SWAP5 SWAP4 POP POP POP POP JUMP JUMPDEST PUSH1 0x0 DUP3 DUP3 GT ISZERO PUSH2 0x3584 JUMPI PUSH2 0x3584 PUSH2 0x42F9 JUMP JUMPDEST PUSH2 0x180E DUP3 DUP5 PUSH2 0x40DE JUMP JUMPDEST PUSH2 0x359A DUP5 DUP5 DUP5 DUP5 PUSH2 0x36E8 JUMP JUMPDEST PUSH1 0x1 PUSH1 0x1 PUSH1 0xA0 SHL SUB DUP5 AND PUSH2 0x364D JUMPI PUSH1 0x0 DUP1 JUMPDEST DUP4 MLOAD DUP2 LT ISZERO PUSH2 0x3633 JUMPI PUSH1 0x0 DUP4 DUP3 DUP2 MLOAD DUP2 LT PUSH2 0x35C9 JUMPI PUSH2 0x35C9 PUSH2 0x40F1 JUMP JUMPDEST PUSH1 0x20 MUL PUSH1 0x20 ADD ADD MLOAD SWAP1 POP DUP1 PUSH1 0x3 PUSH1 0x0 DUP8 DUP6 DUP2 MLOAD DUP2 LT PUSH2 0x35EA JUMPI PUSH2 0x35EA PUSH2 0x40F1 JUMP JUMPDEST PUSH1 0x20 MUL PUSH1 0x20 ADD ADD MLOAD DUP2 MSTORE PUSH1 0x20 ADD SWAP1 DUP2 MSTORE PUSH1 0x20 ADD PUSH1 0x0 KECCAK256 PUSH1 0x0 DUP3 DUP3 SLOAD PUSH2 0x360F SWAP2 SWAP1 PUSH2 0x4107 JUMP JUMPDEST SWAP1 SWAP2 SSTORE POP PUSH2 0x361F SWAP1 POP DUP2 DUP5 PUSH2 0x4107 JUMP JUMPDEST SWAP3 POP POP DUP1 PUSH2 0x362C SWAP1 PUSH2 0x411A JUMP JUMPDEST SWAP1 POP PUSH2 0x35AC JUMP JUMPDEST POP DUP1 PUSH1 0x4 PUSH1 0x0 DUP3 DUP3 SLOAD PUSH2 0x3646 SWAP2 SWAP1 PUSH2 0x4107 JUMP JUMPDEST SWAP1 SWAP2 SSTORE POP POP POP JUMPDEST PUSH1 0x1 PUSH1 0x1 PUSH1 0xA0 SHL SUB DUP4 AND PUSH2 0x8D6 JUMPI PUSH1 0x0 DUP1 JUMPDEST DUP4 MLOAD DUP2 LT ISZERO PUSH2 0x36D7 JUMPI PUSH1 0x0 DUP4 DUP3 DUP2 MLOAD DUP2 LT PUSH2 0x367C JUMPI PUSH2 0x367C PUSH2 0x40F1 JUMP JUMPDEST PUSH1 0x20 MUL PUSH1 0x20 ADD ADD MLOAD SWAP1 POP DUP1 PUSH1 0x3 PUSH1 0x0 DUP8 DUP6 DUP2 MLOAD DUP2 LT PUSH2 0x369D JUMPI PUSH2 0x369D PUSH2 0x40F1 JUMP JUMPDEST PUSH1 0x20 MUL PUSH1 0x20 ADD ADD MLOAD DUP2 MSTORE PUSH1 0x20 ADD SWAP1 DUP2 MSTORE PUSH1 0x20 ADD PUSH1 0x0 KECCAK256 PUSH1 0x0 DUP3 DUP3 SLOAD SUB SWAP3 POP POP DUP2 SWAP1 SSTORE POP DUP1 DUP4 ADD SWAP3 POP POP DUP1 PUSH2 0x36D0 SWAP1 PUSH2 0x411A JUMP JUMPDEST SWAP1 POP PUSH2 0x365F JUMP JUMPDEST POP PUSH1 0x4 DUP1 SLOAD SWAP2 SWAP1 SWAP2 SUB SWAP1 SSTORE POP POP POP POP JUMP JUMPDEST DUP1 MLOAD DUP3 MLOAD EQ PUSH2 0x3717 JUMPI DUP2 MLOAD DUP2 MLOAD PUSH1 0x40 MLOAD PUSH4 0x5B059991 PUSH1 0xE0 SHL DUP2 MSTORE PUSH1 0x4 DUP2 ADD SWAP3 SWAP1 SWAP3 MSTORE PUSH1 0x24 DUP3 ADD MSTORE PUSH1 0x44 ADD PUSH2 0x936 JUMP JUMPDEST CALLER PUSH1 0x0 JUMPDEST DUP4 MLOAD DUP2 LT ISZERO PUSH2 0x383F JUMPI PUSH1 0x20 DUP2 DUP2 MUL DUP6 DUP2 ADD DUP3 ADD MLOAD SWAP1 DUP6 ADD SWAP1 SWAP2 ADD MLOAD PUSH1 0x1 PUSH1 0x1 PUSH1 0xA0 SHL SUB DUP9 AND ISZERO PUSH2 0x37E7 JUMPI PUSH1 0x0 DUP3 DUP2 MSTORE PUSH1 0x20 DUP2 DUP2 MSTORE PUSH1 0x40 DUP1 DUP4 KECCAK256 PUSH1 0x1 PUSH1 0x1 PUSH1 0xA0 SHL SUB DUP13 AND DUP5 MSTORE SWAP1 SWAP2 MSTORE SWAP1 KECCAK256 SLOAD DUP2 DUP2 LT ISZERO PUSH2 0x37C0 JUMPI PUSH1 0x40 MLOAD PUSH32 0x3DEE4C500000000000000000000000000000000000000000000000000000000 DUP2 MSTORE PUSH1 0x1 PUSH1 0x1 PUSH1 0xA0 SHL SUB DUP11 AND PUSH1 0x4 DUP3 ADD MSTORE PUSH1 0x24 DUP2 ADD DUP3 SWAP1 MSTORE PUSH1 0x44 DUP2 ADD DUP4 SWAP1 MSTORE PUSH1 0x64 DUP2 ADD DUP5 SWAP1 MSTORE PUSH1 0x84 ADD PUSH2 0x936 JUMP JUMPDEST PUSH1 0x0 DUP4 DUP2 MSTORE PUSH1 0x20 DUP2 DUP2 MSTORE PUSH1 0x40 DUP1 DUP4 KECCAK256 PUSH1 0x1 PUSH1 0x1 PUSH1 0xA0 SHL SUB DUP14 AND DUP5 MSTORE SWAP1 SWAP2 MSTORE SWAP1 KECCAK256 SWAP1 DUP3 SWAP1 SUB SWAP1 SSTORE JUMPDEST PUSH1 0x1 PUSH1 0x1 PUSH1 0xA0 SHL SUB DUP8 AND ISZERO PUSH2 0x382C JUMPI PUSH1 0x0 DUP3 DUP2 MSTORE PUSH1 0x20 DUP2 DUP2 MSTORE PUSH1 0x40 DUP1 DUP4 KECCAK256 PUSH1 0x1 PUSH1 0x1 PUSH1 0xA0 SHL SUB DUP12 AND DUP5 MSTORE SWAP1 SWAP2 MSTORE DUP2 KECCAK256 DUP1 SLOAD DUP4 SWAP3 SWAP1 PUSH2 0x3826 SWAP1 DUP5 SWAP1 PUSH2 0x4107 JUMP JUMPDEST SWAP1 SWAP2 SSTORE POP POP JUMPDEST POP POP DUP1 PUSH2 0x3838 SWAP1 PUSH2 0x411A JUMP JUMPDEST SWAP1 POP PUSH2 0x371B JUMP JUMPDEST POP DUP3 MLOAD PUSH1 0x1 SUB PUSH2 0x38C0 JUMPI PUSH1 0x20 DUP4 ADD MLOAD PUSH1 0x0 SWAP1 PUSH1 0x20 DUP5 ADD MLOAD SWAP1 SWAP2 POP DUP6 PUSH1 0x1 PUSH1 0x1 PUSH1 0xA0 SHL SUB AND DUP8 PUSH1 0x1 PUSH1 0x1 PUSH1 0xA0 SHL SUB AND DUP5 PUSH1 0x1 PUSH1 0x1 PUSH1 0xA0 SHL SUB AND PUSH32 0xC3D58168C5AE7397731D063D5BBF3D657854427343F4C083240F7AACAA2D0F62 DUP6 DUP6 PUSH1 0x40 MLOAD PUSH2 0x38B1 SWAP3 SWAP2 SWAP1 SWAP2 DUP3 MSTORE PUSH1 0x20 DUP3 ADD MSTORE PUSH1 0x40 ADD SWAP1 JUMP JUMPDEST PUSH1 0x40 MLOAD DUP1 SWAP2 SUB SWAP1 LOG4 POP POP PUSH2 0xCDF JUMP JUMPDEST DUP4 PUSH1 0x1 PUSH1 0x1 PUSH1 0xA0 SHL SUB AND DUP6 PUSH1 0x1 PUSH1 0x1 PUSH1 0xA0 SHL SUB AND DUP3 PUSH1 0x1 PUSH1 0x1 PUSH1 0xA0 SHL SUB AND PUSH32 0x4A39DC06D4C0DBC64B70AF90FD698A233A518AA5D07E595D983B8C0526C8F7FB DUP7 DUP7 PUSH1 0x40 MLOAD PUSH2 0x17F3 SWAP3 SWAP2 SWAP1 PUSH2 0x43CD JUMP JUMPDEST DUP3 DUP1 SLOAD DUP3 DUP3 SSTORE SWAP1 PUSH1 0x0 MSTORE PUSH1 0x20 PUSH1 0x0 KECCAK256 SWAP1 DUP2 ADD SWAP3 DUP3 ISZERO PUSH2 0x394A JUMPI SWAP2 PUSH1 0x20 MUL DUP3 ADD JUMPDEST DUP3 DUP2 GT ISZERO PUSH2 0x394A JUMPI DUP3 MLOAD DUP3 SSTORE SWAP2 PUSH1 0x20 ADD SWAP2 SWAP1 PUSH1 0x1 ADD SWAP1 PUSH2 0x392F JUMP JUMPDEST POP PUSH2 0x3956 SWAP3 SWAP2 POP PUSH2 0x395A JUMP JUMPDEST POP SWAP1 JUMP JUMPDEST JUMPDEST DUP1 DUP3 GT ISZERO PUSH2 0x3956 JUMPI PUSH1 0x0 DUP2 SSTORE PUSH1 0x1 ADD PUSH2 0x395B JUMP JUMPDEST PUSH1 0x0 PUSH1 0x20 DUP3 DUP5 SUB SLT ISZERO PUSH2 0x3981 JUMPI PUSH1 0x0 DUP1 REVERT JUMPDEST POP CALLDATALOAD SWAP2 SWAP1 POP JUMP JUMPDEST DUP1 CALLDATALOAD PUSH1 0x1 PUSH1 0x1 PUSH1 0xA0 SHL SUB DUP2 AND DUP2 EQ PUSH2 0x1ECE JUMPI PUSH1 0x0 DUP1 REVERT JUMPDEST PUSH1 0x0 DUP1 PUSH1 0x40 DUP4 DUP6 SUB SLT ISZERO PUSH2 0x39B2 JUMPI PUSH1 0x0 DUP1 REVERT JUMPDEST PUSH2 0x39BB DUP4 PUSH2 0x3988 JUMP JUMPDEST SWAP5 PUSH1 0x20 SWAP4 SWAP1 SWAP4 ADD CALLDATALOAD SWAP4 POP POP POP JUMP JUMPDEST PUSH1 0x1 PUSH1 0x1 PUSH1 0xE0 SHL SUB NOT DUP2 AND DUP2 EQ PUSH2 0x82B JUMPI PUSH1 0x0 DUP1 REVERT JUMPDEST PUSH1 0x0 PUSH1 0x20 DUP3 DUP5 SUB SLT ISZERO PUSH2 0x39F1 JUMPI PUSH1 0x0 DUP1 REVERT JUMPDEST DUP2 CALLDATALOAD PUSH2 0x180E DUP2 PUSH2 0x39C9 JUMP JUMPDEST PUSH4 0x4E487B71 PUSH1 0xE0 SHL PUSH1 0x0 MSTORE PUSH1 0x41 PUSH1 0x4 MSTORE PUSH1 0x24 PUSH1 0x0 REVERT JUMPDEST PUSH1 0x40 MLOAD PUSH1 0x1F DUP3 ADD PUSH1 0x1F NOT AND DUP2 ADD PUSH8 0xFFFFFFFFFFFFFFFF DUP2 GT DUP3 DUP3 LT OR ISZERO PUSH2 0x3A3B JUMPI PUSH2 0x3A3B PUSH2 0x39FC JUMP JUMPDEST PUSH1 0x40 MSTORE SWAP2 SWAP1 POP JUMP JUMPDEST PUSH1 0x0 PUSH8 0xFFFFFFFFFFFFFFFF DUP4 GT ISZERO PUSH2 0x3A5D JUMPI PUSH2 0x3A5D PUSH2 0x39FC JUMP JUMPDEST PUSH2 0x3A70 PUSH1 0x1F DUP5 ADD PUSH1 0x1F NOT AND PUSH1 0x20 ADD PUSH2 0x3A12 JUMP JUMPDEST SWAP1 POP DUP3 DUP2 MSTORE DUP4 DUP4 DUP4 ADD GT ISZERO PUSH2 0x3A84 JUMPI PUSH1 0x0 DUP1 REVERT JUMPDEST DUP3 DUP3 PUSH1 0x20 DUP4 ADD CALLDATACOPY PUSH1 0x0 PUSH1 0x20 DUP5 DUP4 ADD ADD MSTORE SWAP4 SWAP3 POP POP POP JUMP JUMPDEST PUSH1 0x0 PUSH1 0x20 DUP3 DUP5 SUB SLT ISZERO PUSH2 0x3AAD JUMPI PUSH1 0x0 DUP1 REVERT JUMPDEST DUP2 CALLDATALOAD PUSH8 0xFFFFFFFFFFFFFFFF DUP2 GT ISZERO PUSH2 0x3AC4 JUMPI PUSH1 0x0 DUP1 REVERT JUMPDEST DUP3 ADD PUSH1 0x1F DUP2 ADD DUP5 SGT PUSH2 0x3AD5 JUMPI PUSH1 0x0 DUP1 REVERT JUMPDEST PUSH2 0x356A DUP5 DUP3 CALLDATALOAD PUSH1 0x20 DUP5 ADD PUSH2 0x3A43 JUMP JUMPDEST PUSH1 0x0 JUMPDEST DUP4 DUP2 LT ISZERO PUSH2 0x3AFF JUMPI DUP2 DUP2 ADD MLOAD DUP4 DUP3 ADD MSTORE PUSH1 0x20 ADD PUSH2 0x3AE7 JUMP JUMPDEST POP POP PUSH1 0x0 SWAP2 ADD MSTORE JUMP JUMPDEST PUSH1 0x0 DUP2 MLOAD DUP1 DUP5 MSTORE PUSH2 0x3B20 DUP2 PUSH1 0x20 DUP7 ADD PUSH1 0x20 DUP7 ADD PUSH2 0x3AE4 JUMP JUMPDEST PUSH1 0x1F ADD PUSH1 0x1F NOT AND SWAP3 SWAP1 SWAP3 ADD PUSH1 0x20 ADD SWAP3 SWAP2 POP POP JUMP JUMPDEST PUSH1 0x20 DUP2 MSTORE PUSH1 0x0 PUSH2 0x180E PUSH1 0x20 DUP4 ADD DUP5 PUSH2 0x3B08 JUMP JUMPDEST PUSH1 0x0 PUSH8 0xFFFFFFFFFFFFFFFF DUP3 GT ISZERO PUSH2 0x3B61 JUMPI PUSH2 0x3B61 PUSH2 0x39FC JUMP JUMPDEST POP PUSH1 0x5 SHL PUSH1 0x20 ADD SWAP1 JUMP JUMPDEST PUSH1 0x0 DUP3 PUSH1 0x1F DUP4 ADD SLT PUSH2 0x3B7C JUMPI PUSH1 0x0 DUP1 REVERT JUMPDEST DUP2 CALLDATALOAD PUSH1 0x20 PUSH2 0x3B91 PUSH2 0x3B8C DUP4 PUSH2 0x3B47 JUMP JUMPDEST PUSH2 0x3A12 JUMP JUMPDEST DUP3 DUP2 MSTORE PUSH1 0x5 SWAP3 SWAP1 SWAP3 SHL DUP5 ADD DUP2 ADD SWAP2 DUP2 DUP2 ADD SWAP1 DUP7 DUP5 GT ISZERO PUSH2 0x3BB0 JUMPI PUSH1 0x0 DUP1 REVERT JUMPDEST DUP3 DUP7 ADD JUMPDEST DUP5 DUP2 LT ISZERO PUSH2 0x3BCB JUMPI DUP1 CALLDATALOAD DUP4 MSTORE SWAP2 DUP4 ADD SWAP2 DUP4 ADD PUSH2 0x3BB4 JUMP JUMPDEST POP SWAP7 SWAP6 POP POP POP POP POP POP JUMP JUMPDEST PUSH1 0x0 DUP3 PUSH1 0x1F DUP4 ADD SLT PUSH2 0x3BE7 JUMPI PUSH1 0x0 DUP1 REVERT JUMPDEST PUSH2 0x180E DUP4 DUP4 CALLDATALOAD PUSH1 0x20 DUP6 ADD PUSH2 0x3A43 JUMP JUMPDEST PUSH1 0x0 DUP1 PUSH1 0x0 DUP1 PUSH1 0x80 DUP6 DUP8 SUB SLT ISZERO PUSH2 0x3C0C JUMPI PUSH1 0x0 DUP1 REVERT JUMPDEST PUSH2 0x3C15 DUP6 PUSH2 0x3988 JUMP JUMPDEST SWAP4 POP PUSH1 0x20 DUP6 ADD CALLDATALOAD PUSH8 0xFFFFFFFFFFFFFFFF DUP1 DUP3 GT ISZERO PUSH2 0x3C32 JUMPI PUSH1 0x0 DUP1 REVERT JUMPDEST PUSH2 0x3C3E DUP9 DUP4 DUP10 ADD PUSH2 0x3B6B JUMP JUMPDEST SWAP5 POP PUSH1 0x40 DUP8 ADD CALLDATALOAD SWAP2 POP DUP1 DUP3 GT ISZERO PUSH2 0x3C54 JUMPI PUSH1 0x0 DUP1 REVERT JUMPDEST PUSH2 0x3C60 DUP9 DUP4 DUP10 ADD PUSH2 0x3B6B JUMP JUMPDEST SWAP4 POP PUSH1 0x60 DUP8 ADD CALLDATALOAD SWAP2 POP DUP1 DUP3 GT ISZERO PUSH2 0x3C76 JUMPI PUSH1 0x0 DUP1 REVERT JUMPDEST POP PUSH2 0x3C83 DUP8 DUP3 DUP9 ADD PUSH2 0x3BD6 JUMP JUMPDEST SWAP2 POP POP SWAP3 SWAP6 SWAP2 SWAP5 POP SWAP3 POP JUMP JUMPDEST PUSH1 0x0 DUP1 PUSH1 0x40 DUP4 DUP6 SUB SLT ISZERO PUSH2 0x3CA2 JUMPI PUSH1 0x0 DUP1 REVERT JUMPDEST DUP3 CALLDATALOAD SWAP2 POP PUSH1 0x20 DUP4 ADD CALLDATALOAD PUSH8 0xFFFFFFFFFFFFFFFF DUP2 GT ISZERO PUSH2 0x3CC0 JUMPI PUSH1 0x0 DUP1 REVERT JUMPDEST PUSH2 0x3CCC DUP6 DUP3 DUP7 ADD PUSH2 0x3B6B JUMP JUMPDEST SWAP2 POP POP SWAP3 POP SWAP3 SWAP1 POP JUMP JUMPDEST PUSH1 0x0 DUP1 PUSH1 0x0 DUP1 PUSH1 0x0 PUSH1 0xA0 DUP7 DUP9 SUB SLT ISZERO PUSH2 0x3CEE JUMPI PUSH1 0x0 DUP1 REVERT JUMPDEST PUSH2 0x3CF7 DUP7 PUSH2 0x3988 JUMP JUMPDEST SWAP5 POP PUSH2 0x3D05 PUSH1 0x20 DUP8 ADD PUSH2 0x3988 JUMP JUMPDEST SWAP4 POP PUSH1 0x40 DUP7 ADD CALLDATALOAD PUSH8 0xFFFFFFFFFFFFFFFF DUP1 DUP3 GT ISZERO PUSH2 0x3D22 JUMPI PUSH1 0x0 DUP1 REVERT JUMPDEST PUSH2 0x3D2E DUP10 DUP4 DUP11 ADD PUSH2 0x3B6B JUMP JUMPDEST SWAP5 POP PUSH1 0x60 DUP9 ADD CALLDATALOAD SWAP2 POP DUP1 DUP3 GT ISZERO PUSH2 0x3D44 JUMPI PUSH1 0x0 DUP1 REVERT JUMPDEST PUSH2 0x3D50 DUP10 DUP4 DUP11 ADD PUSH2 0x3B6B JUMP JUMPDEST SWAP4 POP PUSH1 0x80 DUP9 ADD CALLDATALOAD SWAP2 POP DUP1 DUP3 GT ISZERO PUSH2 0x3D66 JUMPI PUSH1 0x0 DUP1 REVERT JUMPDEST POP PUSH2 0x3D73 DUP9 DUP3 DUP10 ADD PUSH2 0x3BD6 JUMP JUMPDEST SWAP2 POP POP SWAP3 SWAP6 POP SWAP3 SWAP6 SWAP1 SWAP4 POP JUMP JUMPDEST PUSH1 0x0 DUP1 PUSH1 0x40 DUP4 DUP6 SUB SLT ISZERO PUSH2 0x3D93 JUMPI PUSH1 0x0 DUP1 REVERT JUMPDEST POP POP DUP1 CALLDATALOAD SWAP3 PUSH1 0x20 SWAP1 SWAP2 ADD CALLDATALOAD SWAP2 POP JUMP JUMPDEST PUSH1 0x0 DUP1 PUSH1 0x40 DUP4 DUP6 SUB SLT ISZERO PUSH2 0x3DB5 JUMPI PUSH1 0x0 DUP1 REVERT JUMPDEST DUP3 CALLDATALOAD PUSH8 0xFFFFFFFFFFFFFFFF DUP1 DUP3 GT ISZERO PUSH2 0x3DCD JUMPI PUSH1 0x0 DUP1 REVERT JUMPDEST DUP2 DUP6 ADD SWAP2 POP DUP6 PUSH1 0x1F DUP4 ADD SLT PUSH2 0x3DE1 JUMPI PUSH1 0x0 DUP1 REVERT JUMPDEST DUP2 CALLDATALOAD PUSH1 0x20 PUSH2 0x3DF1 PUSH2 0x3B8C DUP4 PUSH2 0x3B47 JUMP JUMPDEST DUP3 DUP2 MSTORE PUSH1 0x5 SWAP3 SWAP1 SWAP3 SHL DUP5 ADD DUP2 ADD SWAP2 DUP2 DUP2 ADD SWAP1 DUP10 DUP5 GT ISZERO PUSH2 0x3E10 JUMPI PUSH1 0x0 DUP1 REVERT JUMPDEST SWAP5 DUP3 ADD SWAP5 JUMPDEST DUP4 DUP7 LT ISZERO PUSH2 0x3E35 JUMPI PUSH2 0x3E26 DUP7 PUSH2 0x3988 JUMP JUMPDEST DUP3 MSTORE SWAP5 DUP3 ADD SWAP5 SWAP1 DUP3 ADD SWAP1 PUSH2 0x3E15 JUMP JUMPDEST SWAP7 POP POP DUP7 ADD CALLDATALOAD SWAP3 POP POP DUP1 DUP3 GT ISZERO PUSH2 0x3E4B JUMPI PUSH1 0x0 DUP1 REVERT JUMPDEST POP PUSH2 0x3CCC DUP6 DUP3 DUP7 ADD PUSH2 0x3B6B JUMP JUMPDEST PUSH1 0x0 DUP2 MLOAD DUP1 DUP5 MSTORE PUSH1 0x20 DUP1 DUP6 ADD SWAP5 POP DUP1 DUP5 ADD PUSH1 0x0 JUMPDEST DUP4 DUP2 LT ISZERO PUSH2 0x3E88 JUMPI DUP2 MLOAD DUP8 MSTORE SWAP6 DUP3 ADD SWAP6 SWAP1 DUP3 ADD SWAP1 PUSH1 0x1 ADD PUSH2 0x3E6C JUMP JUMPDEST POP SWAP5 SWAP6 SWAP5 POP POP POP POP POP JUMP JUMPDEST PUSH1 0x20 DUP2 MSTORE PUSH1 0x0 PUSH2 0x180E PUSH1 0x20 DUP4 ADD DUP5 PUSH2 0x3E58 JUMP JUMPDEST PUSH1 0x0 DUP1 PUSH1 0x0 DUP1 PUSH1 0x80 DUP6 DUP8 SUB SLT ISZERO PUSH2 0x3EBC JUMPI PUSH1 0x0 DUP1 REVERT JUMPDEST PUSH2 0x3EC5 DUP6 PUSH2 0x3988 JUMP JUMPDEST SWAP4 POP PUSH1 0x20 DUP6 ADD CALLDATALOAD SWAP3 POP PUSH1 0x40 DUP6 ADD CALLDATALOAD SWAP2 POP PUSH1 0x60 DUP6 ADD CALLDATALOAD PUSH8 0xFFFFFFFFFFFFFFFF DUP2 GT ISZERO PUSH2 0x3EEF JUMPI PUSH1 0x0 DUP1 REVERT JUMPDEST PUSH2 0x3C83 DUP8 DUP3 DUP9 ADD PUSH2 0x3BD6 JUMP JUMPDEST PUSH1 0x0 PUSH1 0x20 DUP3 DUP5 SUB SLT ISZERO PUSH2 0x3F0D JUMPI PUSH1 0x0 DUP1 REVERT JUMPDEST PUSH2 0x180E DUP3 PUSH2 0x3988 JUMP JUMPDEST PUSH1 0x0 DUP1 PUSH1 0x40 DUP4 DUP6 SUB SLT ISZERO PUSH2 0x3F29 JUMPI PUSH1 0x0 DUP1 REVERT JUMPDEST PUSH2 0x3F32 DUP4 PUSH2 0x3988 JUMP JUMPDEST SWAP2 POP PUSH1 0x20 DUP4 ADD CALLDATALOAD DUP1 ISZERO ISZERO DUP2 EQ PUSH2 0x3F47 JUMPI PUSH1 0x0 DUP1 REVERT JUMPDEST DUP1 SWAP2 POP POP SWAP3 POP SWAP3 SWAP1 POP JUMP JUMPDEST PUSH1 0x0 DUP1 PUSH1 0x0 DUP1 PUSH1 0x80 DUP6 DUP8 SUB SLT ISZERO PUSH2 0x3F68 JUMPI PUSH1 0x0 DUP1 REVERT JUMPDEST DUP5 CALLDATALOAD SWAP4 POP PUSH1 0x20 DUP6 ADD CALLDATALOAD SWAP3 POP PUSH1 0x40 DUP6 ADD CALLDATALOAD SWAP2 POP PUSH1 0x60 DUP6 ADD CALLDATALOAD PUSH8 0xFFFFFFFFFFFFFFFF DUP2 GT ISZERO PUSH2 0x3F94 JUMPI PUSH1 0x0 DUP1 REVERT JUMPDEST PUSH2 0x3C83 DUP8 DUP3 DUP9 ADD PUSH2 0x3B6B JUMP JUMPDEST PUSH1 0x0 DUP1 PUSH1 0x40 DUP4 DUP6 SUB SLT ISZERO PUSH2 0x3FB3 JUMPI PUSH1 0x0 DUP1 REVERT JUMPDEST DUP3 CALLDATALOAD SWAP2 POP PUSH2 0x3FC3 PUSH1 0x20 DUP5 ADD PUSH2 0x3988 JUMP JUMPDEST SWAP1 POP SWAP3 POP SWAP3 SWAP1 POP JUMP JUMPDEST PUSH1 0x0 DUP1 PUSH1 0x40 DUP4 DUP6 SUB SLT ISZERO PUSH2 0x3FDF JUMPI PUSH1 0x0 DUP1 REVERT JUMPDEST PUSH2 0x3FE8 DUP4 PUSH2 0x3988 JUMP JUMPDEST SWAP2 POP PUSH2 0x3FC3 PUSH1 0x20 DUP5 ADD PUSH2 0x3988 JUMP JUMPDEST PUSH1 0x0 DUP1 PUSH1 0x0 DUP1 PUSH1 0x0 PUSH1 0xA0 DUP7 DUP9 SUB SLT ISZERO PUSH2 0x400E JUMPI PUSH1 0x0 DUP1 REVERT JUMPDEST PUSH2 0x4017 DUP7 PUSH2 0x3988 JUMP JUMPDEST SWAP5 POP PUSH2 0x4025 PUSH1 0x20 DUP8 ADD PUSH2 0x3988 JUMP JUMPDEST SWAP4 POP PUSH1 0x40 DUP7 ADD CALLDATALOAD SWAP3 POP PUSH1 0x60 DUP7 ADD CALLDATALOAD SWAP2 POP PUSH1 0x80 DUP7 ADD CALLDATALOAD PUSH8 0xFFFFFFFFFFFFFFFF DUP2 GT ISZERO PUSH2 0x404F JUMPI PUSH1 0x0 DUP1 REVERT JUMPDEST PUSH2 0x3D73 DUP9 DUP3 DUP10 ADD PUSH2 0x3BD6 JUMP JUMPDEST PUSH1 0x0 DUP1 PUSH1 0x0 PUSH1 0x60 DUP5 DUP7 SUB SLT ISZERO PUSH2 0x4070 JUMPI PUSH1 0x0 DUP1 REVERT JUMPDEST PUSH2 0x4079 DUP5 PUSH2 0x3988 JUMP JUMPDEST SWAP6 PUSH1 0x20 DUP6 ADD CALLDATALOAD SWAP6 POP PUSH1 0x40 SWAP1 SWAP5 ADD CALLDATALOAD SWAP4 SWAP3 POP POP POP JUMP JUMPDEST PUSH1 0x1 DUP2 DUP2 SHR SWAP1 DUP3 AND DUP1 PUSH2 0x40A2 JUMPI PUSH1 0x7F DUP3 AND SWAP2 POP JUMPDEST PUSH1 0x20 DUP3 LT DUP2 SUB PUSH2 0x40C2 JUMPI PUSH4 0x4E487B71 PUSH1 0xE0 SHL PUSH1 0x0 MSTORE PUSH1 0x22 PUSH1 0x4 MSTORE PUSH1 0x24 PUSH1 0x0 REVERT JUMPDEST POP SWAP2 SWAP1 POP JUMP JUMPDEST PUSH4 0x4E487B71 PUSH1 0xE0 SHL PUSH1 0x0 MSTORE PUSH1 0x11 PUSH1 0x4 MSTORE PUSH1 0x24 PUSH1 0x0 REVERT JUMPDEST DUP2 DUP2 SUB DUP2 DUP2 GT ISZERO PUSH2 0x779 JUMPI PUSH2 0x779 PUSH2 0x40C8 JUMP JUMPDEST PUSH4 0x4E487B71 PUSH1 0xE0 SHL PUSH1 0x0 MSTORE PUSH1 0x32 PUSH1 0x4 MSTORE PUSH1 0x24 PUSH1 0x0 REVERT JUMPDEST DUP1 DUP3 ADD DUP1 DUP3 GT ISZERO PUSH2 0x779 JUMPI PUSH2 0x779 PUSH2 0x40C8 JUMP JUMPDEST PUSH1 0x0 PUSH1 0x1 DUP3 ADD PUSH2 0x412C JUMPI PUSH2 0x412C PUSH2 0x40C8 JUMP JUMPDEST POP PUSH1 0x1 ADD SWAP1 JUMP JUMPDEST PUSH32 0x687474703A2F2F35312E33382E3139302E3133343A313135362F6170692F6361 DUP2 MSTORE PUSH32 0x7264732F00000000000000000000000000000000000000000000000000000000 PUSH1 0x20 DUP3 ADD MSTORE PUSH1 0x0 DUP3 MLOAD PUSH2 0x4191 DUP2 PUSH1 0x24 DUP6 ADD PUSH1 0x20 DUP8 ADD PUSH2 0x3AE4 JUMP JUMPDEST SWAP2 SWAP1 SWAP2 ADD PUSH1 0x24 ADD SWAP3 SWAP2 POP POP JUMP JUMPDEST PUSH1 0x1F DUP3 GT ISZERO PUSH2 0x1ABD JUMPI PUSH1 0x0 DUP2 DUP2 MSTORE PUSH1 0x20 DUP2 KECCAK256 PUSH1 0x1F DUP6 ADD PUSH1 0x5 SHR DUP2 ADD PUSH1 0x20 DUP7 LT ISZERO PUSH2 0x41C5 JUMPI POP DUP1 JUMPDEST PUSH1 0x1F DUP6 ADD PUSH1 0x5 SHR DUP3 ADD SWAP2 POP JUMPDEST DUP2 DUP2 LT ISZERO PUSH2 0xBDC JUMPI DUP3 DUP2 SSTORE PUSH1 0x1 ADD PUSH2 0x41D1 JUMP JUMPDEST DUP2 MLOAD PUSH8 0xFFFFFFFFFFFFFFFF DUP2 GT ISZERO PUSH2 0x41FE JUMPI PUSH2 0x41FE PUSH2 0x39FC JUMP JUMPDEST PUSH2 0x4212 DUP2 PUSH2 0x420C DUP5 SLOAD PUSH2 0x408E JUMP JUMPDEST DUP5 PUSH2 0x419E JUMP JUMPDEST PUSH1 0x20 DUP1 PUSH1 0x1F DUP4 GT PUSH1 0x1 DUP2 EQ PUSH2 0x4247 JUMPI PUSH1 0x0 DUP5 ISZERO PUSH2 0x422F JUMPI POP DUP6 DUP4 ADD MLOAD JUMPDEST PUSH1 0x0 NOT PUSH1 0x3 DUP7 SWAP1 SHL SHR NOT AND PUSH1 0x1 DUP6 SWAP1 SHL OR DUP6 SSTORE PUSH2 0xBDC JUMP JUMPDEST PUSH1 0x0 DUP6 DUP2 MSTORE PUSH1 0x20 DUP2 KECCAK256 PUSH1 0x1F NOT DUP7 AND SWAP2 JUMPDEST DUP3 DUP2 LT ISZERO PUSH2 0x4276 JUMPI DUP9 DUP7 ADD MLOAD DUP3 SSTORE SWAP5 DUP5 ADD SWAP5 PUSH1 0x1 SWAP1 SWAP2 ADD SWAP1 DUP5 ADD PUSH2 0x4257 JUMP JUMPDEST POP DUP6 DUP3 LT ISZERO PUSH2 0x4294 JUMPI DUP8 DUP6 ADD MLOAD PUSH1 0x0 NOT PUSH1 0x3 DUP9 SWAP1 SHL PUSH1 0xF8 AND SHR NOT AND DUP2 SSTORE JUMPDEST POP POP POP POP POP PUSH1 0x1 SWAP1 DUP2 SHL ADD SWAP1 SSTORE POP JUMP JUMPDEST PUSH4 0x4E487B71 PUSH1 0xE0 SHL PUSH1 0x0 MSTORE PUSH1 0x12 PUSH1 0x4 MSTORE PUSH1 0x24 PUSH1 0x0 REVERT JUMPDEST PUSH1 0x0 DUP3 PUSH2 0x42C9 JUMPI PUSH2 0x42C9 PUSH2 0x42A4 JUMP JUMPDEST POP MOD SWAP1 JUMP JUMPDEST PUSH1 0x0 DUP3 PUSH2 0x42DD JUMPI PUSH2 0x42DD PUSH2 0x42A4 JUMP JUMPDEST POP DIV SWAP1 JUMP JUMPDEST DUP1 DUP3 MUL DUP2 ISZERO DUP3 DUP3 DIV DUP5 EQ OR PUSH2 0x779 JUMPI PUSH2 0x779 PUSH2 0x40C8 JUMP JUMPDEST PUSH4 0x4E487B71 PUSH1 0xE0 SHL PUSH1 0x0 MSTORE PUSH1 0x1 PUSH1 0x4 MSTORE PUSH1 0x24 PUSH1 0x0 REVERT JUMPDEST PUSH1 0x0 PUSH1 0x1 PUSH1 0x1 PUSH1 0xA0 SHL SUB DUP1 DUP9 AND DUP4 MSTORE DUP1 DUP8 AND PUSH1 0x20 DUP5 ADD MSTORE POP DUP5 PUSH1 0x40 DUP4 ADD MSTORE DUP4 PUSH1 0x60 DUP4 ADD MSTORE PUSH1 0xA0 PUSH1 0x80 DUP4 ADD MSTORE PUSH2 0x4347 PUSH1 0xA0 DUP4 ADD DUP5 PUSH2 0x3B08 JUMP JUMPDEST SWAP8 SWAP7 POP POP POP POP POP POP POP JUMP JUMPDEST PUSH1 0x0 PUSH1 0x20 DUP3 DUP5 SUB SLT ISZERO PUSH2 0x4364 JUMPI PUSH1 0x0 DUP1 REVERT JUMPDEST DUP2 MLOAD PUSH2 0x180E DUP2 PUSH2 0x39C9 JUMP JUMPDEST PUSH1 0x0 PUSH1 0x1 PUSH1 0x1 PUSH1 0xA0 SHL SUB DUP1 DUP9 AND DUP4 MSTORE DUP1 DUP8 AND PUSH1 0x20 DUP5 ADD MSTORE POP PUSH1 0xA0 PUSH1 0x40 DUP4 ADD MSTORE PUSH2 0x439B PUSH1 0xA0 DUP4 ADD DUP7 PUSH2 0x3E58 JUMP JUMPDEST DUP3 DUP2 SUB PUSH1 0x60 DUP5 ADD MSTORE PUSH2 0x43AD DUP2 DUP7 PUSH2 0x3E58 JUMP JUMPDEST SWAP1 POP DUP3 DUP2 SUB PUSH1 0x80 DUP5 ADD MSTORE PUSH2 0x43C1 DUP2 DUP6 PUSH2 0x3B08 JUMP JUMPDEST SWAP9 SWAP8 POP POP POP POP POP POP POP POP JUMP JUMPDEST PUSH1 0x40 DUP2 MSTORE PUSH1 0x0 PUSH2 0x43E0 PUSH1 0x40 DUP4 ADD DUP6 PUSH2 0x3E58 JUMP JUMPDEST DUP3 DUP2 SUB PUSH1 0x20 DUP5 ADD MSTORE PUSH2 0x43F2 DUP2 DUP6 PUSH2 0x3E58 JUMP JUMPDEST SWAP6 SWAP5 POP POP POP POP POP JUMP INVALID LOG2 PUSH5 0x6970667358 0x22 SLT KECCAK256 0x27 DUP2 SWAP14 DUP10 0xBA 0xA6 DUP8 0x4A 0x4B 0xBA PUSH18 0x68ABAFBB46EEA22A44A243D8F69348043469 NOT 0xD 0x2A PUSH5 0x736F6C6343 STOP ADDMOD EQ STOP CALLER PUSH9 0x7474703A2F2F35312E CALLER CODESIZE 0x2E BALANCE CODECOPY ADDRESS 0x2E BALANCE CALLER CALLVALUE GASPRICE BALANCE BALANCE CALLDATALOAD CALLDATALOAD 0x2F PUSH4 0x61726473 0x2F PUSH28 0x69647D2E6A736F6E0000000000000000000000000000000000000000 "},"methodIdentifiers":{"addressToCardInBattle(address,uint256)":"efefb0dd","balanceOf(address,uint256)":"00fdd58e","balanceOfBatch(address[],uint256[])":"4e1273f4","battles(uint256)":"606d2e96","burn(address,uint256,uint256)":"f5298aca","cardIdMax()":"8da7722a","cardIdToOwnerToAmount(uint256,address)":"e9994267","cardIdToOwners(uint256,uint256)":"34303187","changeCardIdMax(uint256)":"0066fd0d","confirmBattle(uint256,uint256[])":"27343190","doBattle(uint256)":"777d45fd","exists(uint256)":"4f558e79","getAllBalance(address)":"9347fb3d","getBalanceOf(uint256,address)":"bfa0af6d","getCardIdMax()":"4673f332","initBattle(uint256,uint256)":"efee7c3b","isApprovedForAll(address,address)":"e985e9c5","mint(address,uint256,uint256,bytes)":"731133e9","mintBatch(address,uint256[],uint256[],bytes)":"1f7fdffa","nonce()":"affed0e0","openPack()":"3c4ea385","owner()":"8da5cb5b","renounceOwnership()":"715018a6","safeBatchTransferFrom(address,address,uint256[],uint256[],bytes)":"2eb2c2d6","safeTransferFrom(address,address,uint256,uint256,bytes)":"f242432a","selectBattle(uint256,uint256,uint256,uint256[])":"afeef48f","setApprovalForAll(address,bool)":"a22cb465","setURI(string)":"02fe5305","supportsInterface(bytes4)":"01ffc9a7","tokenURI(uint256)":"c87b56dd","totalSupply()":"18160ddd","totalSupply(uint256)":"bd85b039","transferOwnership(address)":"f2fde38b","uri(uint256)":"0e89341c"}}}}}