{
  "_format": "hh-sol-artifact-1",
  "contractName": "CardFactory",
  "sourceName": "contracts/card.sol",
  "abi": [
    {
      "inputs": [],
      "stateMutability": "nonpayable",
      "type": "constructor"
    },
    {
      "inputs": [
        {
          "internalType": "address",
          "name": "sender",
          "type": "address"
        },
        {
          "internalType": "uint256",
          "name": "balance",
          "type": "uint256"
        },
        {
          "internalType": "uint256",
          "name": "needed",
          "type": "uint256"
        },
        {
          "internalType": "uint256",
          "name": "tokenId",
          "type": "uint256"
        }
      ],
      "name": "ERC1155InsufficientBalance",
      "type": "error"
    },
    {
      "inputs": [
        {
          "internalType": "address",
          "name": "approver",
          "type": "address"
        }
      ],
      "name": "ERC1155InvalidApprover",
      "type": "error"
    },
    {
      "inputs": [
        {
          "internalType": "uint256",
          "name": "idsLength",
          "type": "uint256"
        },
        {
          "internalType": "uint256",
          "name": "valuesLength",
          "type": "uint256"
        }
      ],
      "name": "ERC1155InvalidArrayLength",
      "type": "error"
    },
    {
      "inputs": [
        {
          "internalType": "address",
          "name": "operator",
          "type": "address"
        }
      ],
      "name": "ERC1155InvalidOperator",
      "type": "error"
    },
    {
      "inputs": [
        {
          "internalType": "address",
          "name": "receiver",
          "type": "address"
        }
      ],
      "name": "ERC1155InvalidReceiver",
      "type": "error"
    },
    {
      "inputs": [
        {
          "internalType": "address",
          "name": "sender",
          "type": "address"
        }
      ],
      "name": "ERC1155InvalidSender",
      "type": "error"
    },
    {
      "inputs": [
        {
          "internalType": "address",
          "name": "operator",
          "type": "address"
        },
        {
          "internalType": "address",
          "name": "owner",
          "type": "address"
        }
      ],
      "name": "ERC1155MissingApprovalForAll",
      "type": "error"
    },
    {
      "inputs": [
        {
          "internalType": "address",
          "name": "owner",
          "type": "address"
        }
      ],
      "name": "OwnableInvalidOwner",
      "type": "error"
    },
    {
      "inputs": [
        {
          "internalType": "address",
          "name": "account",
          "type": "address"
        }
      ],
      "name": "OwnableUnauthorizedAccount",
      "type": "error"
    },
    {
      "anonymous": false,
      "inputs": [
        {
          "indexed": true,
          "internalType": "address",
          "name": "account",
          "type": "address"
        },
        {
          "indexed": true,
          "internalType": "address",
          "name": "operator",
          "type": "address"
        },
        {
          "indexed": false,
          "internalType": "bool",
          "name": "approved",
          "type": "bool"
        }
      ],
      "name": "ApprovalForAll",
      "type": "event"
    },
    {
      "anonymous": false,
      "inputs": [
        {
          "indexed": false,
          "internalType": "uint256",
          "name": "newCardIdMax",
          "type": "uint256"
        }
      ],
      "name": "CardIdMaxChanged",
      "type": "event"
    },
    {
      "anonymous": false,
      "inputs": [
        {
          "indexed": true,
          "internalType": "address",
          "name": "previousOwner",
          "type": "address"
        },
        {
          "indexed": true,
          "internalType": "address",
          "name": "newOwner",
          "type": "address"
        }
      ],
      "name": "OwnershipTransferred",
      "type": "event"
    },
    {
      "anonymous": false,
      "inputs": [
        {
          "indexed": true,
          "internalType": "address",
          "name": "operator",
          "type": "address"
        },
        {
          "indexed": true,
          "internalType": "address",
          "name": "from",
          "type": "address"
        },
        {
          "indexed": true,
          "internalType": "address",
          "name": "to",
          "type": "address"
        },
        {
          "indexed": false,
          "internalType": "uint256[]",
          "name": "ids",
          "type": "uint256[]"
        },
        {
          "indexed": false,
          "internalType": "uint256[]",
          "name": "values",
          "type": "uint256[]"
        }
      ],
      "name": "TransferBatch",
      "type": "event"
    },
    {
      "anonymous": false,
      "inputs": [
        {
          "indexed": true,
          "internalType": "address",
          "name": "operator",
          "type": "address"
        },
        {
          "indexed": true,
          "internalType": "address",
          "name": "from",
          "type": "address"
        },
        {
          "indexed": true,
          "internalType": "address",
          "name": "to",
          "type": "address"
        },
        {
          "indexed": false,
          "internalType": "uint256",
          "name": "id",
          "type": "uint256"
        },
        {
          "indexed": false,
          "internalType": "uint256",
          "name": "value",
          "type": "uint256"
        }
      ],
      "name": "TransferSingle",
      "type": "event"
    },
    {
      "anonymous": false,
      "inputs": [
        {
          "indexed": false,
          "internalType": "string",
          "name": "value",
          "type": "string"
        },
        {
          "indexed": true,
          "internalType": "uint256",
          "name": "id",
          "type": "uint256"
        }
      ],
      "name": "URI",
      "type": "event"
    },
    {
      "inputs": [
        {
          "internalType": "address",
          "name": "account",
          "type": "address"
        },
        {
          "internalType": "uint256",
          "name": "id",
          "type": "uint256"
        }
      ],
      "name": "balanceOf",
      "outputs": [
        {
          "internalType": "uint256",
          "name": "",
          "type": "uint256"
        }
      ],
      "stateMutability": "view",
      "type": "function"
    },
    {
      "inputs": [
        {
          "internalType": "address[]",
          "name": "accounts",
          "type": "address[]"
        },
        {
          "internalType": "uint256[]",
          "name": "ids",
          "type": "uint256[]"
        }
      ],
      "name": "balanceOfBatch",
      "outputs": [
        {
          "internalType": "uint256[]",
          "name": "",
          "type": "uint256[]"
        }
      ],
      "stateMutability": "view",
      "type": "function"
    },
    {
      "inputs": [],
      "name": "cardIdMax",
      "outputs": [
        {
          "internalType": "uint256",
          "name": "",
          "type": "uint256"
        }
      ],
      "stateMutability": "view",
      "type": "function"
    },
    {
      "inputs": [
        {
          "internalType": "uint256",
          "name": "",
          "type": "uint256"
        },
        {
          "internalType": "address",
          "name": "",
          "type": "address"
        }
      ],
      "name": "cardIdToOwnerToAmount",
      "outputs": [
        {
          "internalType": "uint256",
          "name": "",
          "type": "uint256"
        }
      ],
      "stateMutability": "view",
      "type": "function"
    },
    {
      "inputs": [
        {
          "internalType": "uint256",
          "name": "",
          "type": "uint256"
        },
        {
          "internalType": "uint256",
          "name": "",
          "type": "uint256"
        }
      ],
      "name": "cardIdToOwners",
      "outputs": [
        {
          "internalType": "address",
          "name": "",
          "type": "address"
        }
      ],
      "stateMutability": "view",
      "type": "function"
    },
    {
      "inputs": [
        {
          "internalType": "uint256",
          "name": "id",
          "type": "uint256"
        }
      ],
      "name": "exists",
      "outputs": [
        {
          "internalType": "bool",
          "name": "",
          "type": "bool"
        }
      ],
      "stateMutability": "view",
      "type": "function"
    },
    {
      "inputs": [
        {
          "internalType": "address",
          "name": "account",
          "type": "address"
        },
        {
          "internalType": "address",
          "name": "operator",
          "type": "address"
        }
      ],
      "name": "isApprovedForAll",
      "outputs": [
        {
          "internalType": "bool",
          "name": "",
          "type": "bool"
        }
      ],
      "stateMutability": "view",
      "type": "function"
    },
    {
      "inputs": [],
      "name": "nonce",
      "outputs": [
        {
          "internalType": "uint256",
          "name": "",
          "type": "uint256"
        }
      ],
      "stateMutability": "view",
      "type": "function"
    },
    {
      "inputs": [],
      "name": "owner",
      "outputs": [
        {
          "internalType": "address",
          "name": "",
          "type": "address"
        }
      ],
      "stateMutability": "view",
      "type": "function"
    },
    {
      "inputs": [],
      "name": "renounceOwnership",
      "outputs": [],
      "stateMutability": "nonpayable",
      "type": "function"
    },
    {
      "inputs": [
        {
          "internalType": "address",
          "name": "from",
          "type": "address"
        },
        {
          "internalType": "address",
          "name": "to",
          "type": "address"
        },
        {
          "internalType": "uint256[]",
          "name": "ids",
          "type": "uint256[]"
        },
        {
          "internalType": "uint256[]",
          "name": "values",
          "type": "uint256[]"
        },
        {
          "internalType": "bytes",
          "name": "data",
          "type": "bytes"
        }
      ],
      "name": "safeBatchTransferFrom",
      "outputs": [],
      "stateMutability": "nonpayable",
      "type": "function"
    },
    {
      "inputs": [
        {
          "internalType": "address",
          "name": "from",
          "type": "address"
        },
        {
          "internalType": "address",
          "name": "to",
          "type": "address"
        },
        {
          "internalType": "uint256",
          "name": "id",
          "type": "uint256"
        },
        {
          "internalType": "uint256",
          "name": "value",
          "type": "uint256"
        },
        {
          "internalType": "bytes",
          "name": "data",
          "type": "bytes"
        }
      ],
      "name": "safeTransferFrom",
      "outputs": [],
      "stateMutability": "nonpayable",
      "type": "function"
    },
    {
      "inputs": [
        {
          "internalType": "address",
          "name": "operator",
          "type": "address"
        },
        {
          "internalType": "bool",
          "name": "approved",
          "type": "bool"
        }
      ],
      "name": "setApprovalForAll",
      "outputs": [],
      "stateMutability": "nonpayable",
      "type": "function"
    },
    {
      "inputs": [
        {
          "internalType": "bytes4",
          "name": "interfaceId",
          "type": "bytes4"
        }
      ],
      "name": "supportsInterface",
      "outputs": [
        {
          "internalType": "bool",
          "name": "",
          "type": "bool"
        }
      ],
      "stateMutability": "view",
      "type": "function"
    },
    {
      "inputs": [],
      "name": "totalSupply",
      "outputs": [
        {
          "internalType": "uint256",
          "name": "",
          "type": "uint256"
        }
      ],
      "stateMutability": "view",
      "type": "function"
    },
    {
      "inputs": [
        {
          "internalType": "uint256",
          "name": "id",
          "type": "uint256"
        }
      ],
      "name": "totalSupply",
      "outputs": [
        {
          "internalType": "uint256",
          "name": "",
          "type": "uint256"
        }
      ],
      "stateMutability": "view",
      "type": "function"
    },
    {
      "inputs": [
        {
          "internalType": "address",
          "name": "newOwner",
          "type": "address"
        }
      ],
      "name": "transferOwnership",
      "outputs": [],
      "stateMutability": "nonpayable",
      "type": "function"
    },
    {
      "inputs": [
        {
          "internalType": "uint256",
          "name": "",
          "type": "uint256"
        }
      ],
      "name": "uri",
      "outputs": [
        {
          "internalType": "string",
          "name": "",
          "type": "string"
        }
      ],
      "stateMutability": "view",
      "type": "function"
    }
  ],
  "bytecode": "0x6080604052600960065560006007553480156200001b57600080fd5b50336040518060600160405280602981526020016200189760299139620000428162000084565b506001600160a01b0381166200007257604051631e4fbdf760e01b81526000600482015260240160405180910390fd5b6200007d8162000096565b5062000259565b60026200009282826200018d565b5050565b600580546001600160a01b038381166001600160a01b0319831681179093556040519116919082907f8be0079c531659141344cd1fd0a4f28419497f9722a3daafe3b4186f6b6457e090600090a35050565b634e487b7160e01b600052604160045260246000fd5b600181811c908216806200011357607f821691505b6020821081036200013457634e487b7160e01b600052602260045260246000fd5b50919050565b601f8211156200018857600081815260208120601f850160051c81016020861015620001635750805b601f850160051c820191505b8181101562000184578281556001016200016f565b5050505b505050565b81516001600160401b03811115620001a957620001a9620000e8565b620001c181620001ba8454620000fe565b846200013a565b602080601f831160018114620001f95760008415620001e05750858301515b600019600386901b1c1916600185901b17855562000184565b600085815260208120601f198616915b828110156200022a5788860151825594840194600190910190840162000209565b5085821015620002495787850151600019600388901b60f8161c191681555b5050505050600190811b01905550565b61162e80620002696000396000f3fe608060405234801561001057600080fd5b50600436106101355760003560e01c80638da5cb5b116100b2578063bd85b03911610081578063e999426711610066578063e9994267146102c7578063f242432a146102f2578063f2fde38b1461030557600080fd5b8063bd85b0391461026b578063e985e9c51461028b57600080fd5b80638da5cb5b146102355780638da7722a14610246578063a22cb4651461024f578063affed0e01461026257600080fd5b80632eb2c2d6116101095780634e1273f4116100ee5780634e1273f4146101eb5780634f558e791461020b578063715018a61461022d57600080fd5b80632eb2c2d6146101ab57806334303187146101c057600080fd5b8062fdd58e1461013a57806301ffc9a7146101605780630e89341c1461018357806318160ddd146101a3575b600080fd5b61014d610148366004610f72565b610318565b6040519081526020015b60405180910390f35b61017361016e366004610fb2565b610340565b6040519015158152602001610157565b610196610191366004610fd6565b6103db565b6040516101579190611035565b60045461014d565b6101be6101b936600461118e565b61046f565b005b6101d36101ce366004611238565b6104fa565b6040516001600160a01b039091168152602001610157565b6101fe6101f936600461125a565b610532565b6040516101579190611355565b610173610219366004610fd6565b600090815260036020526040902054151590565b6101be610607565b6005546001600160a01b03166101d3565b61014d60065481565b6101be61025d366004611368565b61061b565b61014d60075481565b61014d610279366004610fd6565b60009081526003602052604090205490565b6101736102993660046113a4565b6001600160a01b03918216600090815260016020908152604080832093909416825291909152205460ff1690565b61014d6102d53660046113d7565b600860209081526000928352604080842090915290825290205481565b6101be6103003660046113fa565b61062a565b6101be61031336600461145f565b6106a8565b6000818152602081815260408083206001600160a01b03861684529091529020545b92915050565b60006001600160e01b031982167fd9b67a260000000000000000000000000000000000000000000000000000000014806103a357506001600160e01b031982167f0e89341c00000000000000000000000000000000000000000000000000000000145b8061033a57507f01ffc9a7000000000000000000000000000000000000000000000000000000006001600160e01b031983161461033a565b6060600280546103ea9061147a565b80601f01602080910402602001604051908101604052809291908181526020018280546104169061147a565b80156104635780601f1061043857610100808354040283529160200191610463565b820191906000526020600020905b81548152906001019060200180831161044657829003601f168201915b50505050509050919050565b336001600160a01b03861681148015906104af57506001600160a01b0380871660009081526001602090815260408083209385168352929052205460ff16155b156104e55760405163711bec9160e11b81526001600160a01b038083166004830152871660248201526044015b60405180910390fd5b6104f286868686866106ff565b505050505050565b6009602052816000526040600020818154811061051657600080fd5b6000918252602090912001546001600160a01b03169150829050565b606081518351146105635781518351604051635b05999160e01b8152600481019290925260248201526044016104dc565b6000835167ffffffffffffffff81111561057f5761057f611048565b6040519080825280602002602001820160405280156105a8578160200160208202803683370190505b50905060005b84518110156105ff576020808202860101516105d290602080840287010151610318565b8282815181106105e4576105e46114b4565b60209081029190910101526105f8816114e0565b90506105ae565b509392505050565b61060f610766565b61061960006107ac565b565b610626338383610816565b5050565b336001600160a01b038616811480159061066a57506001600160a01b0380871660009081526001602090815260408083209385168352929052205460ff16155b1561069b5760405163711bec9160e11b81526001600160a01b038083166004830152871660248201526044016104dc565b6104f286868686866108c6565b6106b0610766565b6001600160a01b0381166106f3576040517f1e4fbdf7000000000000000000000000000000000000000000000000000000008152600060048201526024016104dc565b6106fc816107ac565b50565b6001600160a01b03841661072957604051632bfa23e760e11b8152600060048201526024016104dc565b6001600160a01b03851661075257604051626a0d4560e21b8152600060048201526024016104dc565b61075f8585858585610954565b5050505050565b6005546001600160a01b03163314610619576040517f118cdaa70000000000000000000000000000000000000000000000000000000081523360048201526024016104dc565b600580546001600160a01b038381167fffffffffffffffffffffffff0000000000000000000000000000000000000000831681179093556040519116919082907f8be0079c531659141344cd1fd0a4f28419497f9722a3daafe3b4186f6b6457e090600090a35050565b6001600160a01b038216610859576040517fced3e100000000000000000000000000000000000000000000000000000000008152600060048201526024016104dc565b6001600160a01b03838116600081815260016020908152604080832094871680845294825291829020805460ff191686151590811790915591519182527f17307eab39ab6107e8899845ad3d59bd9653f200f220920489ca2b5937696c31910160405180910390a3505050565b6001600160a01b0384166108f057604051632bfa23e760e11b8152600060048201526024016104dc565b6001600160a01b03851661091957604051626a0d4560e21b8152600060048201526024016104dc565b6040805160018082526020820186905281830190815260608201859052608082019092529061094b8787848487610954565b50505050505050565b610960858585856109a7565b6001600160a01b0384161561075f578251339060010361099957602084810151908401516109928389898585896109b9565b50506104f2565b6104f2818787878787610add565b6109b384848484610bc6565b50505050565b6001600160a01b0384163b156104f25760405163f23a6e6160e01b81526001600160a01b0385169063f23a6e61906109fd90899089908890889088906004016114f9565b6020604051808303816000875af1925050508015610a38575060408051601f3d908101601f19168201909252610a359181019061153c565b60015b610aa1573d808015610a66576040519150601f19603f3d011682016040523d82523d6000602084013e610a6b565b606091505b508051600003610a9957604051632bfa23e760e11b81526001600160a01b03861660048201526024016104dc565b805181602001fd5b6001600160e01b0319811663f23a6e6160e01b1461094b57604051632bfa23e760e11b81526001600160a01b03861660048201526024016104dc565b6001600160a01b0384163b156104f25760405163bc197c8160e01b81526001600160a01b0385169063bc197c8190610b219089908990889088908890600401611559565b6020604051808303816000875af1925050508015610b5c575060408051601f3d908101601f19168201909252610b599181019061153c565b60015b610b8a573d808015610a66576040519150601f19603f3d011682016040523d82523d6000602084013e610a6b565b6001600160e01b0319811663bc197c8160e01b1461094b57604051632bfa23e760e11b81526001600160a01b03861660048201526024016104dc565b610bd284848484610d20565b6001600160a01b038416610c85576000805b8351811015610c6b576000838281518110610c0157610c016114b4565b602002602001015190508060036000878581518110610c2257610c226114b4565b602002602001015181526020019081526020016000206000828254610c4791906115b7565b90915550610c57905081846115b7565b92505080610c64906114e0565b9050610be4565b508060046000828254610c7e91906115b7565b9091555050505b6001600160a01b0383166109b3576000805b8351811015610d0f576000838281518110610cb457610cb46114b4565b602002602001015190508060036000878581518110610cd557610cd56114b4565b602002602001015181526020019081526020016000206000828254039250508190555080830192505080610d08906114e0565b9050610c97565b506004805491909103905550505050565b8051825114610d4f5781518151604051635b05999160e01b8152600481019290925260248201526044016104dc565b3360005b8351811015610e77576020818102858101820151908501909101516001600160a01b03881615610e1f576000828152602081815260408083206001600160a01b038c16845290915290205481811015610df8576040517f03dee4c50000000000000000000000000000000000000000000000000000000081526001600160a01b038a1660048201526024810182905260448101839052606481018490526084016104dc565b6000838152602081815260408083206001600160a01b038d16845290915290209082900390555b6001600160a01b03871615610e64576000828152602081815260408083206001600160a01b038b16845290915281208054839290610e5e9084906115b7565b90915550505b505080610e70906114e0565b9050610d53565b508251600103610ef85760208301516000906020840151909150856001600160a01b0316876001600160a01b0316846001600160a01b03167fc3d58168c5ae7397731d063d5bbf3d657854427343f4c083240f7aacaa2d0f628585604051610ee9929190918252602082015260400190565b60405180910390a4505061075f565b836001600160a01b0316856001600160a01b0316826001600160a01b03167f4a39dc06d4c0dbc64b70af90fd698a233a518aa5d07e595d983b8c0526c8f7fb8686604051610f479291906115ca565b60405180910390a45050505050565b80356001600160a01b0381168114610f6d57600080fd5b919050565b60008060408385031215610f8557600080fd5b610f8e83610f56565b946020939093013593505050565b6001600160e01b0319811681146106fc57600080fd5b600060208284031215610fc457600080fd5b8135610fcf81610f9c565b9392505050565b600060208284031215610fe857600080fd5b5035919050565b6000815180845260005b8181101561101557602081850181015186830182015201610ff9565b506000602082860101526020601f19601f83011685010191505092915050565b602081526000610fcf6020830184610fef565b634e487b7160e01b600052604160045260246000fd5b604051601f8201601f1916810167ffffffffffffffff8111828210171561108757611087611048565b604052919050565b600067ffffffffffffffff8211156110a9576110a9611048565b5060051b60200190565b600082601f8301126110c457600080fd5b813560206110d96110d48361108f565b61105e565b82815260059290921b840181019181810190868411156110f857600080fd5b8286015b8481101561111357803583529183019183016110fc565b509695505050505050565b600082601f83011261112f57600080fd5b813567ffffffffffffffff81111561114957611149611048565b61115c601f8201601f191660200161105e565b81815284602083860101111561117157600080fd5b816020850160208301376000918101602001919091529392505050565b600080600080600060a086880312156111a657600080fd5b6111af86610f56565b94506111bd60208701610f56565b9350604086013567ffffffffffffffff808211156111da57600080fd5b6111e689838a016110b3565b945060608801359150808211156111fc57600080fd5b61120889838a016110b3565b9350608088013591508082111561121e57600080fd5b5061122b8882890161111e565b9150509295509295909350565b6000806040838503121561124b57600080fd5b50508035926020909101359150565b6000806040838503121561126d57600080fd5b823567ffffffffffffffff8082111561128557600080fd5b818501915085601f83011261129957600080fd5b813560206112a96110d48361108f565b82815260059290921b840181019181810190898411156112c857600080fd5b948201945b838610156112ed576112de86610f56565b825294820194908201906112cd565b9650508601359250508082111561130357600080fd5b50611310858286016110b3565b9150509250929050565b600081518084526020808501945080840160005b8381101561134a5781518752958201959082019060010161132e565b509495945050505050565b602081526000610fcf602083018461131a565b6000806040838503121561137b57600080fd5b61138483610f56565b91506020830135801515811461139957600080fd5b809150509250929050565b600080604083850312156113b757600080fd5b6113c083610f56565b91506113ce60208401610f56565b90509250929050565b600080604083850312156113ea57600080fd5b823591506113ce60208401610f56565b600080600080600060a0868803121561141257600080fd5b61141b86610f56565b945061142960208701610f56565b93506040860135925060608601359150608086013567ffffffffffffffff81111561145357600080fd5b61122b8882890161111e565b60006020828403121561147157600080fd5b610fcf82610f56565b600181811c9082168061148e57607f821691505b6020821081036114ae57634e487b7160e01b600052602260045260246000fd5b50919050565b634e487b7160e01b600052603260045260246000fd5b634e487b7160e01b600052601160045260246000fd5b6000600182016114f2576114f26114ca565b5060010190565b60006001600160a01b03808816835280871660208401525084604083015283606083015260a0608083015261153160a0830184610fef565b979650505050505050565b60006020828403121561154e57600080fd5b8151610fcf81610f9c565b60006001600160a01b03808816835280871660208401525060a0604083015261158560a083018661131a565b8281036060840152611597818661131a565b905082810360808401526115ab8185610fef565b98975050505050505050565b8082018082111561033a5761033a6114ca565b6040815260006115dd604083018561131a565b82810360208401526115ef818561131a565b9594505050505056fea26469706673582212201335d7f5512e784cb88c291d5a601e4ab73e25b03c6454295866eb137f51649964736f6c63430008140033687474703a2f2f35312e33382e3139302e3133343a313135352f63617264732f7b69647d2e6a736f6e",
  "linkReferences": {},
  "deployedLinkReferences": {}
}