{
  "_format": "hh-sol-artifact-1",
  "contractName": "BettingESport",
  "sourceName": "contracts/betting_e_sport.sol",
  "abi": [
    {
      "inputs": [],
      "stateMutability": "nonpayable",
      "type": "constructor"
    },
    {
      "anonymous": false,
      "inputs": [
        {
          "indexed": true,
          "internalType": "address",
          "name": "player",
          "type": "address"
        },
        {
          "indexed": false,
          "internalType": "uint256",
          "name": "amount",
          "type": "uint256"
        },
        {
          "components": [
            {
              "internalType": "uint256",
              "name": "id",
              "type": "uint256"
            },
            {
              "internalType": "string",
              "name": "name",
              "type": "string"
            },
            {
              "internalType": "bool",
              "name": "isFinished",
              "type": "bool"
            },
            {
              "components": [
                {
                  "internalType": "uint256",
                  "name": "id",
                  "type": "uint256"
                },
                {
                  "internalType": "string",
                  "name": "name",
                  "type": "string"
                },
                {
                  "internalType": "uint256",
                  "name": "value",
                  "type": "uint256"
                }
              ],
              "internalType": "struct BettingESport.Team",
              "name": "firstTeam",
              "type": "tuple"
            },
            {
              "components": [
                {
                  "internalType": "uint256",
                  "name": "id",
                  "type": "uint256"
                },
                {
                  "internalType": "string",
                  "name": "name",
                  "type": "string"
                },
                {
                  "internalType": "uint256",
                  "name": "value",
                  "type": "uint256"
                }
              ],
              "internalType": "struct BettingESport.Team",
              "name": "secondTeam",
              "type": "tuple"
            }
          ],
          "indexed": false,
          "internalType": "struct BettingESport.Betting",
          "name": "betting",
          "type": "tuple"
        }
      ],
      "name": "BetPlaced",
      "type": "event"
    },
    {
      "anonymous": false,
      "inputs": [
        {
          "indexed": true,
          "internalType": "address",
          "name": "player",
          "type": "address"
        },
        {
          "indexed": false,
          "internalType": "uint256",
          "name": "amount",
          "type": "uint256"
        }
      ],
      "name": "BetWinner",
      "type": "event"
    },
    {
      "inputs": [],
      "name": "betCounter",
      "outputs": [
        {
          "internalType": "uint256",
          "name": "",
          "type": "uint256"
        }
      ],
      "stateMutability": "view",
      "type": "function"
    },
    {
      "inputs": [
        {
          "internalType": "uint256",
          "name": "",
          "type": "uint256"
        }
      ],
      "name": "bets",
      "outputs": [
        {
          "internalType": "uint256",
          "name": "amount",
          "type": "uint256"
        },
        {
          "internalType": "uint256",
          "name": "bettingId",
          "type": "uint256"
        },
        {
          "internalType": "uint256",
          "name": "teamId",
          "type": "uint256"
        },
        {
          "internalType": "address payable",
          "name": "player",
          "type": "address"
        }
      ],
      "stateMutability": "view",
      "type": "function"
    },
    {
      "inputs": [
        {
          "internalType": "uint256",
          "name": "",
          "type": "uint256"
        }
      ],
      "name": "betting",
      "outputs": [
        {
          "internalType": "uint256",
          "name": "id",
          "type": "uint256"
        },
        {
          "internalType": "string",
          "name": "name",
          "type": "string"
        },
        {
          "internalType": "bool",
          "name": "isFinished",
          "type": "bool"
        },
        {
          "components": [
            {
              "internalType": "uint256",
              "name": "id",
              "type": "uint256"
            },
            {
              "internalType": "string",
              "name": "name",
              "type": "string"
            },
            {
              "internalType": "uint256",
              "name": "value",
              "type": "uint256"
            }
          ],
          "internalType": "struct BettingESport.Team",
          "name": "firstTeam",
          "type": "tuple"
        },
        {
          "components": [
            {
              "internalType": "uint256",
              "name": "id",
              "type": "uint256"
            },
            {
              "internalType": "string",
              "name": "name",
              "type": "string"
            },
            {
              "internalType": "uint256",
              "name": "value",
              "type": "uint256"
            }
          ],
          "internalType": "struct BettingESport.Team",
          "name": "secondTeam",
          "type": "tuple"
        }
      ],
      "stateMutability": "view",
      "type": "function"
    },
    {
      "inputs": [
        {
          "components": [
            {
              "internalType": "uint256",
              "name": "amount",
              "type": "uint256"
            },
            {
              "internalType": "uint256",
              "name": "bettingId",
              "type": "uint256"
            },
            {
              "internalType": "uint256",
              "name": "teamId",
              "type": "uint256"
            },
            {
              "internalType": "address payable",
              "name": "player",
              "type": "address"
            }
          ],
          "internalType": "struct BettingESport.Bet",
          "name": "bet",
          "type": "tuple"
        }
      ],
      "name": "createBet",
      "outputs": [],
      "stateMutability": "nonpayable",
      "type": "function"
    },
    {
      "inputs": [
        {
          "components": [
            {
              "internalType": "uint256",
              "name": "id",
              "type": "uint256"
            },
            {
              "internalType": "string",
              "name": "name",
              "type": "string"
            },
            {
              "internalType": "bool",
              "name": "isFinished",
              "type": "bool"
            },
            {
              "components": [
                {
                  "internalType": "uint256",
                  "name": "id",
                  "type": "uint256"
                },
                {
                  "internalType": "string",
                  "name": "name",
                  "type": "string"
                },
                {
                  "internalType": "uint256",
                  "name": "value",
                  "type": "uint256"
                }
              ],
              "internalType": "struct BettingESport.Team",
              "name": "firstTeam",
              "type": "tuple"
            },
            {
              "components": [
                {
                  "internalType": "uint256",
                  "name": "id",
                  "type": "uint256"
                },
                {
                  "internalType": "string",
                  "name": "name",
                  "type": "string"
                },
                {
                  "internalType": "uint256",
                  "name": "value",
                  "type": "uint256"
                }
              ],
              "internalType": "struct BettingESport.Team",
              "name": "secondTeam",
              "type": "tuple"
            }
          ],
          "internalType": "struct BettingESport.Betting",
          "name": "newBetting",
          "type": "tuple"
        }
      ],
      "name": "createBetting",
      "outputs": [],
      "stateMutability": "nonpayable",
      "type": "function"
    },
    {
      "inputs": [],
      "name": "owner",
      "outputs": [
        {
          "internalType": "address",
          "name": "",
          "type": "address"
        }
      ],
      "stateMutability": "view",
      "type": "function"
    }
  ],
  "bytecode": "0x608060405234801561001057600080fd5b50336000806101000a81548173ffffffffffffffffffffffffffffffffffffffff021916908373ffffffffffffffffffffffffffffffffffffffff160217905550611888806100606000396000f3fe608060405234801561001057600080fd5b50600436106100625760003560e01c806322af00fa146100675780638a38d6e91461009a5780638da5cb5b146100b657806399c21d6d146100d4578063a416f5ab146100f0578063eadc56d21461010e575b600080fd5b610081600480360381019061007c9190610a39565b610142565b6040516100919493929190610ab6565b60405180910390f35b6100b460048036038101906100af9190610c35565b610192565b005b6100be610437565b6040516100cb9190610c83565b60405180910390f35b6100ee60048036038101906100e99190610ef0565b61045b565b005b6100f861071b565b6040516101059190610f39565b60405180910390f35b61012860048036038101906101239190610a39565b610721565b604051610139959493929190611094565b60405180910390f35b60026020528060005260406000206000915090508060000154908060010154908060020154908060030160009054906101000a900473ffffffffffffffffffffffffffffffffffffffff16905084565b60008160000151116101d9576040517f08c379a00000000000000000000000000000000000000000000000000000000081526004016101d09061116e565b60405180910390fd5b606481600001511115610221576040517f08c379a0000000000000000000000000000000000000000000000000000000008152600401610218906111da565b60405180910390fd5b6000816020015111801561023b5750600354816020015111155b61027a576040517f08c379a000000000000000000000000000000000000000000000000000000000815260040161027190611246565b60405180910390fd5b6000600160008360200151815260200190815260200160002090508060020160009054906101000a900460ff16156102e7576040517f08c379a00000000000000000000000000000000000000000000000000000000081526004016102de906112b2565b60405180910390fd5b600060405180608001604052808460000151815260200184602001518152602001846040015181526020013373ffffffffffffffffffffffffffffffffffffffff16815250905081600301600001548160400151141561036857806000015182600301600201600082825461035c9190611301565b925050819055506103de565b8160060160000154816040015114156103a25780600001518260060160020160008282546103969190611301565b925050819055506103dd565b6040517f08c379a00000000000000000000000000000000000000000000000000000000081526004016103d4906113a3565b60405180910390fd5b5b3373ffffffffffffffffffffffffffffffffffffffff167f2b13ae2cd26321180d3ef66e9a9d6518d66f1077e4fbf84bdf6bda6dc65343d182600001518460405161042a929190611620565b60405180910390a2505050565b60008054906101000a900473ffffffffffffffffffffffffffffffffffffffff1681565b60008054906101000a900473ffffffffffffffffffffffffffffffffffffffff1673ffffffffffffffffffffffffffffffffffffffff163373ffffffffffffffffffffffffffffffffffffffff16146104e9576040517f08c379a00000000000000000000000000000000000000000000000000000000081526004016104e0906116c2565b60405180910390fd5b600081602001515111610531576040517f08c379a00000000000000000000000000000000000000000000000000000000081526004016105289061172e565b60405180910390fd5b6001600360008282546105449190611301565b925050819055506000600160035461055c9190611301565b90506000600260035461056f9190611301565b905060006040518060a00160405280600354815260200185602001518152602001600015158152602001604051806060016040528086815260200187606001516020015181526020016000815250815260200160405180606001604052808581526020018760800151602001518152602001600081525081525090508060016000600354815260200190815260200160002060008201518160000155602082015181600101908051906020019061062792919061094c565b5060408201518160020160006101000a81548160ff02191690831515021790555060608201518160030160008201518160000155602082015181600101908051906020019061067792919061094c565b506040820151816002015550506080820151816006016000820151816000015560208201518160010190805190602001906106b392919061094c565b506040820151816002015550509050503373ffffffffffffffffffffffffffffffffffffffff167f2b13ae2cd26321180d3ef66e9a9d6518d66f1077e4fbf84bdf6bda6dc65343d16003548360405161070d929190611822565b60405180910390a250505050565b60035481565b600160205280600052604060002060009150905080600001549080600101805461074a90611423565b80601f016020809104026020016040519081016040528092919081815260200182805461077690611423565b80156107c35780601f10610798576101008083540402835291602001916107c3565b820191906000526020600020905b8154815290600101906020018083116107a657829003601f168201915b5050505050908060020160009054906101000a900460ff1690806003016040518060600160405290816000820154815260200160018201805461080590611423565b80601f016020809104026020016040519081016040528092919081815260200182805461083190611423565b801561087e5780601f106108535761010080835404028352916020019161087e565b820191906000526020600020905b81548152906001019060200180831161086157829003601f168201915b505050505081526020016002820154815250509080600601604051806060016040529081600082015481526020016001820180546108bb90611423565b80601f01602080910402602001604051908101604052809291908181526020018280546108e790611423565b80156109345780601f1061090957610100808354040283529160200191610934565b820191906000526020600020905b81548152906001019060200180831161091757829003601f168201915b50505050508152602001600282015481525050905085565b82805461095890611423565b90600052602060002090601f01602090048101928261097a57600085556109c1565b82601f1061099357805160ff19168380011785556109c1565b828001600101855582156109c1579182015b828111156109c05782518255916020019190600101906109a5565b5b5090506109ce91906109d2565b5090565b5b808211156109eb5760008160009055506001016109d3565b5090565b6000604051905090565b600080fd5b600080fd5b6000819050919050565b610a1681610a03565b8114610a2157600080fd5b50565b600081359050610a3381610a0d565b92915050565b600060208284031215610a4f57610a4e6109f9565b5b6000610a5d84828501610a24565b91505092915050565b610a6f81610a03565b82525050565b600073ffffffffffffffffffffffffffffffffffffffff82169050919050565b6000610aa082610a75565b9050919050565b610ab081610a95565b82525050565b6000608082019050610acb6000830187610a66565b610ad86020830186610a66565b610ae56040830185610a66565b610af26060830184610aa7565b95945050505050565b600080fd5b6000601f19601f8301169050919050565b7f4e487b7100000000000000000000000000000000000000000000000000000000600052604160045260246000fd5b610b4982610b00565b810181811067ffffffffffffffff82111715610b6857610b67610b11565b5b80604052505050565b6000610b7b6109ef565b9050610b878282610b40565b919050565b600080fd5b610b9a81610a95565b8114610ba557600080fd5b50565b600081359050610bb781610b91565b92915050565b600060808284031215610bd357610bd2610afb565b5b610bdd6080610b71565b90506000610bed84828501610a24565b6000830152506020610c0184828501610a24565b6020830152506040610c1584828501610a24565b6040830152506060610c2984828501610ba8565b60608301525092915050565b600060808284031215610c4b57610c4a6109f9565b5b6000610c5984828501610bbd565b91505092915050565b6000610c6d82610a75565b9050919050565b610c7d81610c62565b82525050565b6000602082019050610c986000830184610c74565b92915050565b600080fd5b600080fd5b600067ffffffffffffffff821115610cc357610cc2610b11565b5b610ccc82610b00565b9050602081019050919050565b82818337600083830152505050565b6000610cfb610cf684610ca8565b610b71565b905082815260208101848484011115610d1757610d16610ca3565b5b610d22848285610cd9565b509392505050565b600082601f830112610d3f57610d3e610c9e565b5b8135610d4f848260208601610ce8565b91505092915050565b60008115159050919050565b610d6d81610d58565b8114610d7857600080fd5b50565b600081359050610d8a81610d64565b92915050565b600060608284031215610da657610da5610afb565b5b610db06060610b71565b90506000610dc084828501610a24565b600083015250602082013567ffffffffffffffff811115610de457610de3610b8c565b5b610df084828501610d2a565b6020830152506040610e0484828501610a24565b60408301525092915050565b600060a08284031215610e2657610e25610afb565b5b610e3060a0610b71565b90506000610e4084828501610a24565b600083015250602082013567ffffffffffffffff811115610e6457610e63610b8c565b5b610e7084828501610d2a565b6020830152506040610e8484828501610d7b565b604083015250606082013567ffffffffffffffff811115610ea857610ea7610b8c565b5b610eb484828501610d90565b606083015250608082013567ffffffffffffffff811115610ed857610ed7610b8c565b5b610ee484828501610d90565b60808301525092915050565b600060208284031215610f0657610f056109f9565b5b600082013567ffffffffffffffff811115610f2457610f236109fe565b5b610f3084828501610e10565b91505092915050565b6000602082019050610f4e6000830184610a66565b92915050565b600081519050919050565b600082825260208201905092915050565b60005b83811015610f8e578082015181840152602081019050610f73565b83811115610f9d576000848401525b50505050565b6000610fae82610f54565b610fb88185610f5f565b9350610fc8818560208601610f70565b610fd181610b00565b840191505092915050565b610fe581610d58565b82525050565b610ff481610a03565b82525050565b600082825260208201905092915050565b600061101682610f54565b6110208185610ffa565b9350611030818560208601610f70565b61103981610b00565b840191505092915050565b600060608301600083015161105c6000860182610feb565b5060208301518482036020860152611074828261100b565b91505060408301516110896040860182610feb565b508091505092915050565b600060a0820190506110a96000830188610a66565b81810360208301526110bb8187610fa3565b90506110ca6040830186610fdc565b81810360608301526110dc8185611044565b905081810360808301526110f08184611044565b90509695505050505050565b7f42657420616d6f756e74206d7573742062652067726561746572207468616e2060008201527f3000000000000000000000000000000000000000000000000000000000000000602082015250565b6000611158602183610f5f565b9150611163826110fc565b604082019050919050565b600060208201905081810360008301526111878161114b565b9050919050565b7f42657420616d6f756e74206d757374206265206c657373207468616e20313030600082015250565b60006111c4602083610f5f565b91506111cf8261118e565b602082019050919050565b600060208201905081810360008301526111f3816111b7565b9050919050565b7f426574206d7573742062652076616c6964000000000000000000000000000000600082015250565b6000611230601183610f5f565b915061123b826111fa565b602082019050919050565b6000602082019050818103600083015261125f81611223565b9050919050565b7f426574206d757374206265206f70656e00000000000000000000000000000000600082015250565b600061129c601083610f5f565b91506112a782611266565b602082019050919050565b600060208201905081810360008301526112cb8161128f565b9050919050565b7f4e487b7100000000000000000000000000000000000000000000000000000000600052601160045260246000fd5b600061130c82610a03565b915061131783610a03565b9250827fffffffffffffffffffffffffffffffffffffffffffffffffffffffffffffffff0382111561134c5761134b6112d2565b5b828201905092915050565b7f5465616d206d7573742062652076616c69640000000000000000000000000000600082015250565b600061138d601283610f5f565b915061139882611357565b602082019050919050565b600060208201905081810360008301526113bc81611380565b9050919050565b60008160001c9050919050565b6000819050919050565b60006113ed6113e8836113c3565b6113d0565b9050919050565b7f4e487b7100000000000000000000000000000000000000000000000000000000600052602260045260246000fd5b6000600282049050600182168061143b57607f821691505b6020821081141561144f5761144e6113f4565b5b50919050565b60008190508160005260206000209050919050565b6000815461147781611423565b6114818186610ffa565b9450600182166000811461149c57600181146114ae576114e1565b60ff19831686526020860193506114e1565b6114b785611455565b60005b838110156114d9578154818901526001820191506020810190506114ba565b808801955050505b50505092915050565b600060ff82169050919050565b600061150a611505836113c3565b6114ea565b9050919050565b61151a81610d58565b82525050565b6000606083016000808401549050611537816113da565b6115446000870182610feb565b5060018401858303602087015261155b838261146a565b9250506002840154905061156e816113da565b61157b6040870182610feb565b50819250505092915050565b600060a08301600080840154905061159e816113da565b6115ab6000870182610feb565b506001840185830360208701526115c2838261146a565b925050600284015490506115d5816114f7565b6115e26040870182611511565b506003840185830360608701526115f98382611520565b9250506006840185830360808701526116128382611520565b925050819250505092915050565b60006040820190506116356000830185610a66565b81810360208301526116478184611587565b90509392505050565b7f5365756c206c652070726f70726965746169726520706575742065666665637460008201527f756572206365747465206f7065726174696f6e00000000000000000000000000602082015250565b60006116ac603383610f5f565b91506116b782611650565b604082019050919050565b600060208201905081810360008301526116db8161169f565b9050919050565b7f426574206e616d652063616e6e6f7420626520656d7074790000000000000000600082015250565b6000611718601883610f5f565b9150611723826116e2565b602082019050919050565b600060208201905081810360008301526117478161170b565b9050919050565b60006060830160008301516117666000860182610feb565b506020830151848203602086015261177e828261100b565b91505060408301516117936040860182610feb565b508091505092915050565b600060a0830160008301516117b66000860182610feb565b50602083015184820360208601526117ce828261100b565b91505060408301516117e36040860182611511565b50606083015184820360608601526117fb828261174e565b91505060808301518482036080860152611815828261174e565b9150508091505092915050565b60006040820190506118376000830185610a66565b8181036020830152611849818461179e565b9050939250505056fea264697066735822122098cafa9fffb65634a8d043924a3f18dc69b755702f658203ccb1c9597859130f64736f6c63430008090033",
  "linkReferences": {},
  "deployedLinkReferences": {}
}