{
  "_format": "hh-sol-artifact-1",
  "contractName": "BettingESport",
  "sourceName": "contracts/betting_e_sport.sol",
  "abi": [
    {
      "inputs": [],
      "stateMutability": "nonpayable",
      "type": "constructor"
    },
    {
      "anonymous": false,
      "inputs": [
        {
          "indexed": true,
          "internalType": "address",
          "name": "player",
          "type": "address"
        },
        {
          "indexed": false,
          "internalType": "uint256",
          "name": "amount",
          "type": "uint256"
        },
        {
          "components": [
            {
              "internalType": "uint256",
              "name": "id",
              "type": "uint256"
            },
            {
              "internalType": "string",
              "name": "name",
              "type": "string"
            },
            {
              "internalType": "bool",
              "name": "isFinished",
              "type": "bool"
            },
            {
              "components": [
                {
                  "internalType": "uint256",
                  "name": "id",
                  "type": "uint256"
                },
                {
                  "internalType": "string",
                  "name": "name",
                  "type": "string"
                },
                {
                  "internalType": "uint256",
                  "name": "value",
                  "type": "uint256"
                }
              ],
              "internalType": "struct BettingESport.Team",
              "name": "firstTeam",
              "type": "tuple"
            },
            {
              "components": [
                {
                  "internalType": "uint256",
                  "name": "id",
                  "type": "uint256"
                },
                {
                  "internalType": "string",
                  "name": "name",
                  "type": "string"
                },
                {
                  "internalType": "uint256",
                  "name": "value",
                  "type": "uint256"
                }
              ],
              "internalType": "struct BettingESport.Team",
              "name": "secondTeam",
              "type": "tuple"
            }
          ],
          "indexed": false,
          "internalType": "struct BettingESport.Betting",
          "name": "betting",
          "type": "tuple"
        }
      ],
      "name": "BetPlaced",
      "type": "event"
    },
    {
      "anonymous": false,
      "inputs": [
        {
          "indexed": true,
          "internalType": "address",
          "name": "player",
          "type": "address"
        },
        {
          "indexed": false,
          "internalType": "uint256",
          "name": "amount",
          "type": "uint256"
        }
      ],
      "name": "BetWinner",
      "type": "event"
    },
    {
      "inputs": [
        {
          "internalType": "uint256",
          "name": "",
          "type": "uint256"
        }
      ],
      "name": "betCounterByBettingId",
      "outputs": [
        {
          "internalType": "uint256",
          "name": "",
          "type": "uint256"
        }
      ],
      "stateMutability": "view",
      "type": "function"
    },
    {
      "inputs": [
        {
          "internalType": "uint256",
          "name": "",
          "type": "uint256"
        },
        {
          "internalType": "uint256",
          "name": "",
          "type": "uint256"
        }
      ],
      "name": "bets",
      "outputs": [
        {
          "internalType": "uint256",
          "name": "amount",
          "type": "uint256"
        },
        {
          "internalType": "uint256",
          "name": "bettingId",
          "type": "uint256"
        },
        {
          "internalType": "uint256",
          "name": "teamId",
          "type": "uint256"
        },
        {
          "internalType": "address payable",
          "name": "player",
          "type": "address"
        }
      ],
      "stateMutability": "view",
      "type": "function"
    },
    {
      "inputs": [
        {
          "internalType": "uint256",
          "name": "",
          "type": "uint256"
        }
      ],
      "name": "betting",
      "outputs": [
        {
          "internalType": "uint256",
          "name": "id",
          "type": "uint256"
        },
        {
          "internalType": "string",
          "name": "name",
          "type": "string"
        },
        {
          "internalType": "bool",
          "name": "isFinished",
          "type": "bool"
        },
        {
          "components": [
            {
              "internalType": "uint256",
              "name": "id",
              "type": "uint256"
            },
            {
              "internalType": "string",
              "name": "name",
              "type": "string"
            },
            {
              "internalType": "uint256",
              "name": "value",
              "type": "uint256"
            }
          ],
          "internalType": "struct BettingESport.Team",
          "name": "firstTeam",
          "type": "tuple"
        },
        {
          "components": [
            {
              "internalType": "uint256",
              "name": "id",
              "type": "uint256"
            },
            {
              "internalType": "string",
              "name": "name",
              "type": "string"
            },
            {
              "internalType": "uint256",
              "name": "value",
              "type": "uint256"
            }
          ],
          "internalType": "struct BettingESport.Team",
          "name": "secondTeam",
          "type": "tuple"
        }
      ],
      "stateMutability": "view",
      "type": "function"
    },
    {
      "inputs": [],
      "name": "bettingCounter",
      "outputs": [
        {
          "internalType": "uint256",
          "name": "",
          "type": "uint256"
        }
      ],
      "stateMutability": "view",
      "type": "function"
    },
    {
      "inputs": [
        {
          "internalType": "uint256",
          "name": "bettingId",
          "type": "uint256"
        },
        {
          "internalType": "uint256",
          "name": "winnerTeamId",
          "type": "uint256"
        }
      ],
      "name": "closeBet",
      "outputs": [],
      "stateMutability": "nonpayable",
      "type": "function"
    },
    {
      "inputs": [
        {
          "components": [
            {
              "internalType": "uint256",
              "name": "amount",
              "type": "uint256"
            },
            {
              "internalType": "uint256",
              "name": "bettingId",
              "type": "uint256"
            },
            {
              "internalType": "uint256",
              "name": "teamId",
              "type": "uint256"
            },
            {
              "internalType": "address payable",
              "name": "player",
              "type": "address"
            }
          ],
          "internalType": "struct BettingESport.Bet",
          "name": "bet",
          "type": "tuple"
        }
      ],
      "name": "createBet",
      "outputs": [],
      "stateMutability": "nonpayable",
      "type": "function"
    },
    {
      "inputs": [
        {
          "components": [
            {
              "internalType": "uint256",
              "name": "id",
              "type": "uint256"
            },
            {
              "internalType": "string",
              "name": "name",
              "type": "string"
            },
            {
              "internalType": "bool",
              "name": "isFinished",
              "type": "bool"
            },
            {
              "components": [
                {
                  "internalType": "uint256",
                  "name": "id",
                  "type": "uint256"
                },
                {
                  "internalType": "string",
                  "name": "name",
                  "type": "string"
                },
                {
                  "internalType": "uint256",
                  "name": "value",
                  "type": "uint256"
                }
              ],
              "internalType": "struct BettingESport.Team",
              "name": "firstTeam",
              "type": "tuple"
            },
            {
              "components": [
                {
                  "internalType": "uint256",
                  "name": "id",
                  "type": "uint256"
                },
                {
                  "internalType": "string",
                  "name": "name",
                  "type": "string"
                },
                {
                  "internalType": "uint256",
                  "name": "value",
                  "type": "uint256"
                }
              ],
              "internalType": "struct BettingESport.Team",
              "name": "secondTeam",
              "type": "tuple"
            }
          ],
          "internalType": "struct BettingESport.Betting",
          "name": "newBetting",
          "type": "tuple"
        }
      ],
      "name": "createBetting",
      "outputs": [],
      "stateMutability": "nonpayable",
      "type": "function"
    },
    {
      "inputs": [],
      "name": "owner",
      "outputs": [
        {
          "internalType": "address",
          "name": "",
          "type": "address"
        }
      ],
      "stateMutability": "view",
      "type": "function"
    },
    {
      "inputs": [
        {
          "internalType": "uint256",
          "name": "",
          "type": "uint256"
        },
        {
          "internalType": "uint256",
          "name": "",
          "type": "uint256"
        }
      ],
      "name": "winners",
      "outputs": [
        {
          "internalType": "uint256",
          "name": "id",
          "type": "uint256"
        },
        {
          "internalType": "uint256",
          "name": "bettingId",
          "type": "uint256"
        },
        {
          "internalType": "address payable",
          "name": "player",
          "type": "address"
        },
        {
          "internalType": "uint256",
          "name": "amount",
          "type": "uint256"
        }
      ],
      "stateMutability": "view",
      "type": "function"
    }
  ],
  "bytecode": "0x608060405234801561001057600080fd5b50600080546001600160a01b03191633179055611449806100326000396000f3fe608060405234801561001057600080fd5b50600436106100a35760003560e01c80638a38d6e91161007657806399c21d6d1161005b57806399c21d6d146101a6578063d38d75ae146101b9578063eadc56d2146101cc57600080fd5b80638a38d6e9146101665780638da5cb5b1461017b57600080fd5b80630efc8865146100a857806341ed605f146100f35780636a09f6be1461010a57806383ca33c814610146575b600080fd5b6100bb6100b6366004610d0a565b6101f0565b6040516100ea949392919093845260208401929092526001600160a01b03166040830152606082015260800190565b60405180910390f35b6100fc60045481565b6040519081526020016100ea565b61011d610118366004610d0a565b610242565b604080519485526020850193909352918301526001600160a01b031660608201526080016100ea565b6100fc610154366004610d2c565b60056020526000908152604090205481565b610179610174366004610d84565b610291565b005b60005461018e906001600160a01b031681565b6040516001600160a01b0390911681526020016100ea565b6101796101b4366004610f17565b6105ce565b6101796101c7366004610d0a565b61082c565b6101df6101da366004610d2c565b610ae7565b6040516100ea959493929190611060565b6003602052816000526040600020818154811061020c57600080fd5b6000918252602090912060049091020180546001820154600283015460039093015491945092506001600160a01b039091169084565b6002602052816000526040600020818154811061025e57600080fd5b6000918252602090912060049091020180546001820154600283015460039093015491945092506001600160a01b031684565b805161030a5760405162461bcd60e51b815260206004820152602160248201527f42657420616d6f756e74206d7573742062652067726561746572207468616e2060448201527f300000000000000000000000000000000000000000000000000000000000000060648201526084015b60405180910390fd5b80516064101561035c5760405162461bcd60e51b815260206004820181905260248201527f42657420616d6f756e74206d757374206265206c657373207468616e203130306044820152606401610301565b600081602001511180156103765750600454816020015111155b6103c25760405162461bcd60e51b815260206004820152601160248201527f426574206d7573742062652076616c69640000000000000000000000000000006044820152606401610301565b6020808201516000908152600190915260409020600281015460ff161561042b5760405162461bcd60e51b815260206004820152601060248201527f426574206d757374206265206f70656e000000000000000000000000000000006044820152606401610301565b60016005600084602001518152602001908152602001600020600082825461045391906110c9565b9091555050604080516080810182528351815260208085018051828401908152868501518486019081526060808901516001600160a01b0390811691870191825293516000908152600280875297812080546001808201835591835296909120875160049097020195865592519285019290925551948301859055516003928301805473ffffffffffffffffffffffffffffffffffffffff19169190921617905583015490910361051f5780516005830180546000906105149084906110c9565b9091555061058c9050565b60068201546040820151036105445780516008830180546000906105149084906110c9565b60405162461bcd60e51b815260206004820152601260248201527f5465616d206d7573742062652076616c696400000000000000000000000000006044820152606401610301565b805160405133917f2b13ae2cd26321180d3ef66e9a9d6518d66f1077e4fbf84bdf6bda6dc65343d1916105c1919086906111ca565b60405180910390a2505050565b6000546001600160a01b0316331461064e5760405162461bcd60e51b815260206004820152603360248201527f5365756c206c652070726f70726965746169726520706575742065666665637460448201527f756572206365747465206f7065726174696f6e000000000000000000000000006064820152608401610301565b6000816020015151116106a35760405162461bcd60e51b815260206004820152601860248201527f426574206e616d652063616e6e6f7420626520656d70747900000000000000006044820152606401610301565b6001600460008282546106b691906110c9565b90915550506004546000906106cc9060016110c9565b9050600060045460026106df91906110c9565b6040805160a08101825260045480825260208781015181840190815260008486018190528551606081810188528a8252808c01518501518286015281880183905280870191909152865190810187528781526080808c01518501518286015281880183905286015292835260019182905293909120825181559251939450909283929182019061076f908261128f565b50604082015160028201805460ff19169115159190911790556060820151805160038301908155602082015160048401906107aa908261128f565b50604091909101516002909101556080820151805160068301908155602082015160078401906107da908261128f565b5060409182015160029091015560045490513393507f2b13ae2cd26321180d3ef66e9a9d6518d66f1077e4fbf84bdf6bda6dc65343d1925061081e9190859061134f565b60405180910390a250505050565b6000546001600160a01b031633146108ac5760405162461bcd60e51b815260206004820152603360248201527f5365756c206c652070726f70726965746169726520706575742065666665637460448201527f756572206365747465206f7065726174696f6e000000000000000000000000006064820152608401610301565b6000828152600160205260409020600281015460ff161561090f5760405162461bcd60e51b815260206004820152601060248201527f426574206d757374206265206f70656e000000000000000000000000000000006044820152606401610301565b60038101548214806109245750600681015482145b6109705760405162461bcd60e51b815260206004820152601260248201527f5465616d206d7573742062652076616c696400000000000000000000000000006044820152606401610301565b60028101805460ff1916600117905560005b600084815260056020526040902054811015610ae15760008481526002602052604081208054839081106109b8576109b86113cd565b906000526020600020906004020190508481600101541480156109de5750838160020154145b15610ace578054604080516080810182528781526020810188905260038401546001600160a01b03169181019190915260009060608101610a208460026113e3565b9052600088815260036020818152604080842080546001808201835591865294839020865160049096020194855585830151908501558481015160028501805473ffffffffffffffffffffffffffffffffffffffff19166001600160a01b039283161790556060860151948401949094559187015491518681529394509116917f8d2c6d37c285a57a4ff7093110a7c5fc6fe036d276818dd21e1edf369273458d910160405180910390a250505b5080610ad9816113fa565b915050610982565b50505050565b600160208190526000918252604090912080549181018054610b08906110e2565b80601f0160208091040260200160405190810160405280929190818152602001828054610b34906110e2565b8015610b815780601f10610b5657610100808354040283529160200191610b81565b820191906000526020600020905b815481529060010190602001808311610b6457829003601f168201915b5050505050908060020160009054906101000a900460ff16908060030160405180606001604052908160008201548152602001600182018054610bc3906110e2565b80601f0160208091040260200160405190810160405280929190818152602001828054610bef906110e2565b8015610c3c5780601f10610c1157610100808354040283529160200191610c3c565b820191906000526020600020905b815481529060010190602001808311610c1f57829003601f168201915b50505050508152602001600282015481525050908060060160405180606001604052908160008201548152602001600182018054610c79906110e2565b80601f0160208091040260200160405190810160405280929190818152602001828054610ca5906110e2565b8015610cf25780601f10610cc757610100808354040283529160200191610cf2565b820191906000526020600020905b815481529060010190602001808311610cd557829003601f168201915b50505050508152602001600282015481525050905085565b60008060408385031215610d1d57600080fd5b50508035926020909101359150565b600060208284031215610d3e57600080fd5b5035919050565b634e487b7160e01b600052604160045260246000fd5b60405160a0810167ffffffffffffffff81118282101715610d7e57610d7e610d45565b60405290565b600060808284031215610d9657600080fd5b6040516080810181811067ffffffffffffffff82111715610db957610db9610d45565b806040525082358152602083013560208201526040830135604082015260608301356001600160a01b0381168114610df057600080fd5b60608201529392505050565b600082601f830112610e0d57600080fd5b813567ffffffffffffffff80821115610e2857610e28610d45565b604051601f8301601f19908116603f01168101908282118183101715610e5057610e50610d45565b81604052838152866020858801011115610e6957600080fd5b836020870160208301376000602085830101528094505050505092915050565b80358015158114610e9957600080fd5b919050565b600060608284031215610eb057600080fd5b6040516060810167ffffffffffffffff8282108183111715610ed457610ed4610d45565b81604052829350843583526020850135915080821115610ef357600080fd5b50610f0085828601610dfc565b602083015250604083013560408201525092915050565b600060208284031215610f2957600080fd5b813567ffffffffffffffff80821115610f4157600080fd5b9083019060a08286031215610f5557600080fd5b610f5d610d5b565b82358152602083013582811115610f7357600080fd5b610f7f87828601610dfc565b602083015250610f9160408401610e89565b6040820152606083013582811115610fa857600080fd5b610fb487828601610e9e565b606083015250608083013582811115610fcc57600080fd5b610fd887828601610e9e565b60808301525095945050505050565b6000815180845260005b8181101561100d57602081850181015186830182015201610ff1565b506000602082860101526020601f19601f83011685010191505092915050565b80518252600060208201516060602085015261104c6060850182610fe7565b604093840151949093019390935250919050565b85815260a06020820152600061107960a0830187610fe7565b85151560408401528281036060840152611093818661102d565b905082810360808401526110a7818561102d565b98975050505050505050565b634e487b7160e01b600052601160045260246000fd5b808201808211156110dc576110dc6110b3565b92915050565b600181811c908216806110f657607f821691505b60208210810361111657634e487b7160e01b600052602260045260246000fd5b50919050565b60008154611129816110e2565b80855260206001838116801561114657600181146111605761118e565b60ff1985168884015283151560051b88018301955061118e565b866000528260002060005b858110156111865781548a820186015290830190840161116b565b890184019650505b505050505092915050565b805482526060602083015260006111b6606084016001840161111c565b600283015460408501528091505092915050565b828152604060208201528154604082015260a0606082015260006111f460e083016001850161111c565b60ff60028501541615156080840152603f19808483030160a085015261121d8260038701611199565b9150808483030160c0850152506112378160068601611199565b95945050505050565b601f82111561128a57600081815260208120601f850160051c810160208610156112675750805b601f850160051c820191505b8181101561128657828155600101611273565b5050505b505050565b815167ffffffffffffffff8111156112a9576112a9610d45565b6112bd816112b784546110e2565b84611240565b602080601f8311600181146112f257600084156112da5750858301515b600019600386901b1c1916600185901b178555611286565b600085815260208120601f198616915b8281101561132157888601518255948401946001909101908401611302565b508582101561133f5787850151600019600388901b60f8161c191681555b5050505050600190811b01905550565b82815260406020820152815160408201526000602083015160a0606084015261137b60e0840182610fe7565b90506040840151151560808401526060840151603f19808584030160a08601526113a5838361102d565b925060808601519150808584030160c0860152506113c3828261102d565b9695505050505050565b634e487b7160e01b600052603260045260246000fd5b80820281158282048414176110dc576110dc6110b3565b60006001820161140c5761140c6110b3565b506001019056fea2646970667358221220c5fc06f29ef4e887efc2bfb224422bbdda903a7a701bcee251967a26bfa36f1164736f6c63430008140033",
  "linkReferences": {},
  "deployedLinkReferences": {}
}