{
  "_format": "hh-sol-artifact-1",
  "contractName": "BettingESport",
  "sourceName": "contracts/betting_e_sport.sol",
  "abi": [
    {
      "inputs": [],
      "stateMutability": "nonpayable",
      "type": "constructor"
    },
    {
      "anonymous": false,
      "inputs": [
        {
          "indexed": true,
          "internalType": "address",
          "name": "player",
          "type": "address"
        },
        {
          "indexed": false,
          "internalType": "uint256",
          "name": "amount",
          "type": "uint256"
        },
        {
          "components": [
            {
              "internalType": "uint256",
              "name": "id",
              "type": "uint256"
            },
            {
              "internalType": "string",
              "name": "name",
              "type": "string"
            },
            {
              "internalType": "bool",
              "name": "isFinished",
              "type": "bool"
            },
            {
              "components": [
                {
                  "internalType": "uint256",
                  "name": "id",
                  "type": "uint256"
                },
                {
                  "internalType": "string",
                  "name": "name",
                  "type": "string"
                },
                {
                  "internalType": "uint256",
                  "name": "value",
                  "type": "uint256"
                }
              ],
              "internalType": "struct BettingESport.Team",
              "name": "firstTeam",
              "type": "tuple"
            },
            {
              "components": [
                {
                  "internalType": "uint256",
                  "name": "id",
                  "type": "uint256"
                },
                {
                  "internalType": "string",
                  "name": "name",
                  "type": "string"
                },
                {
                  "internalType": "uint256",
                  "name": "value",
                  "type": "uint256"
                }
              ],
              "internalType": "struct BettingESport.Team",
              "name": "secondTeam",
              "type": "tuple"
            }
          ],
          "indexed": false,
          "internalType": "struct BettingESport.Betting",
          "name": "betting",
          "type": "tuple"
        }
      ],
      "name": "BetPlaced",
      "type": "event"
    },
    {
      "anonymous": false,
      "inputs": [
        {
          "indexed": true,
          "internalType": "address",
          "name": "player",
          "type": "address"
        },
        {
          "indexed": false,
          "internalType": "uint256",
          "name": "amount",
          "type": "uint256"
        }
      ],
      "name": "BetWinner",
      "type": "event"
    },
    {
      "inputs": [
        {
          "internalType": "uint256",
          "name": "",
          "type": "uint256"
        }
      ],
      "name": "betCounterByBettingId",
      "outputs": [
        {
          "internalType": "uint256",
          "name": "",
          "type": "uint256"
        }
      ],
      "stateMutability": "view",
      "type": "function"
    },
    {
      "inputs": [
        {
          "internalType": "uint256",
          "name": "",
          "type": "uint256"
        },
        {
          "internalType": "uint256",
          "name": "",
          "type": "uint256"
        }
      ],
      "name": "bets",
      "outputs": [
        {
          "internalType": "uint256",
          "name": "amount",
          "type": "uint256"
        },
        {
          "internalType": "uint256",
          "name": "bettingId",
          "type": "uint256"
        },
        {
          "internalType": "uint256",
          "name": "teamId",
          "type": "uint256"
        },
        {
          "internalType": "address payable",
          "name": "player",
          "type": "address"
        }
      ],
      "stateMutability": "view",
      "type": "function"
    },
    {
      "inputs": [
        {
          "internalType": "uint256",
          "name": "",
          "type": "uint256"
        }
      ],
      "name": "betting",
      "outputs": [
        {
          "internalType": "uint256",
          "name": "id",
          "type": "uint256"
        },
        {
          "internalType": "string",
          "name": "name",
          "type": "string"
        },
        {
          "internalType": "bool",
          "name": "isFinished",
          "type": "bool"
        },
        {
          "components": [
            {
              "internalType": "uint256",
              "name": "id",
              "type": "uint256"
            },
            {
              "internalType": "string",
              "name": "name",
              "type": "string"
            },
            {
              "internalType": "uint256",
              "name": "value",
              "type": "uint256"
            }
          ],
          "internalType": "struct BettingESport.Team",
          "name": "firstTeam",
          "type": "tuple"
        },
        {
          "components": [
            {
              "internalType": "uint256",
              "name": "id",
              "type": "uint256"
            },
            {
              "internalType": "string",
              "name": "name",
              "type": "string"
            },
            {
              "internalType": "uint256",
              "name": "value",
              "type": "uint256"
            }
          ],
          "internalType": "struct BettingESport.Team",
          "name": "secondTeam",
          "type": "tuple"
        }
      ],
      "stateMutability": "view",
      "type": "function"
    },
    {
      "inputs": [],
      "name": "bettingCounter",
      "outputs": [
        {
          "internalType": "uint256",
          "name": "",
          "type": "uint256"
        }
      ],
      "stateMutability": "view",
      "type": "function"
    },
    {
      "inputs": [
        {
          "internalType": "uint256",
          "name": "bettingId",
          "type": "uint256"
        },
        {
          "internalType": "uint256",
          "name": "winnerTeamId",
          "type": "uint256"
        }
      ],
      "name": "closeBet",
      "outputs": [],
      "stateMutability": "nonpayable",
      "type": "function"
    },
    {
      "inputs": [
        {
          "components": [
            {
              "internalType": "uint256",
              "name": "amount",
              "type": "uint256"
            },
            {
              "internalType": "uint256",
              "name": "bettingId",
              "type": "uint256"
            },
            {
              "internalType": "uint256",
              "name": "teamId",
              "type": "uint256"
            },
            {
              "internalType": "address payable",
              "name": "player",
              "type": "address"
            }
          ],
          "internalType": "struct BettingESport.Bet",
          "name": "bet",
          "type": "tuple"
        }
      ],
      "name": "createBet",
      "outputs": [],
      "stateMutability": "nonpayable",
      "type": "function"
    },
    {
      "inputs": [
        {
          "components": [
            {
              "internalType": "uint256",
              "name": "id",
              "type": "uint256"
            },
            {
              "internalType": "string",
              "name": "name",
              "type": "string"
            },
            {
              "internalType": "bool",
              "name": "isFinished",
              "type": "bool"
            },
            {
              "components": [
                {
                  "internalType": "uint256",
                  "name": "id",
                  "type": "uint256"
                },
                {
                  "internalType": "string",
                  "name": "name",
                  "type": "string"
                },
                {
                  "internalType": "uint256",
                  "name": "value",
                  "type": "uint256"
                }
              ],
              "internalType": "struct BettingESport.Team",
              "name": "firstTeam",
              "type": "tuple"
            },
            {
              "components": [
                {
                  "internalType": "uint256",
                  "name": "id",
                  "type": "uint256"
                },
                {
                  "internalType": "string",
                  "name": "name",
                  "type": "string"
                },
                {
                  "internalType": "uint256",
                  "name": "value",
                  "type": "uint256"
                }
              ],
              "internalType": "struct BettingESport.Team",
              "name": "secondTeam",
              "type": "tuple"
            }
          ],
          "internalType": "struct BettingESport.Betting",
          "name": "newBetting",
          "type": "tuple"
        }
      ],
      "name": "createBetting",
      "outputs": [],
      "stateMutability": "nonpayable",
      "type": "function"
    },
    {
      "inputs": [],
      "name": "owner",
      "outputs": [
        {
          "internalType": "address",
          "name": "",
          "type": "address"
        }
      ],
      "stateMutability": "view",
      "type": "function"
    },
    {
      "inputs": [
        {
          "internalType": "uint256",
          "name": "",
          "type": "uint256"
        },
        {
          "internalType": "uint256",
          "name": "",
          "type": "uint256"
        }
      ],
      "name": "winners",
      "outputs": [
        {
          "internalType": "uint256",
          "name": "id",
          "type": "uint256"
        },
        {
          "internalType": "uint256",
          "name": "bettingId",
          "type": "uint256"
        },
        {
          "internalType": "address payable",
          "name": "player",
          "type": "address"
        },
        {
          "internalType": "uint256",
          "name": "amount",
          "type": "uint256"
        }
      ],
      "stateMutability": "view",
      "type": "function"
    }
  ],
  "bytecode": "0x608060405234801561001057600080fd5b50336000806101000a81548173ffffffffffffffffffffffffffffffffffffffff021916908373ffffffffffffffffffffffffffffffffffffffff160217905550611f91806100606000396000f3fe608060405234801561001057600080fd5b50600436106100935760003560e01c80638a38d6e9116100665780638a38d6e91461014c5780638da5cb5b1461016857806399c21d6d14610186578063d38d75ae146101a2578063eadc56d2146101be57610093565b80630efc88651461009857806341ed605f146100cb5780636a09f6be146100e957806383ca33c81461011c575b600080fd5b6100b260048036038101906100ad9190610feb565b6101f2565b6040516100c2949392919061107b565b60405180910390f35b6100d361025f565b6040516100e091906110c0565b60405180910390f35b61010360048036038101906100fe9190610feb565b610265565b60405161011394939291906110db565b60405180910390f35b61013660048036038101906101319190611120565b6102d2565b60405161014391906110c0565b60405180910390f35b61016660048036038101906101619190611287565b6102ea565b005b61017061066a565b60405161017d91906112d5565b60405180910390f35b6101a0600480360381019061019b9190611542565b61068e565b005b6101bc60048036038101906101b79190610feb565b61094e565b005b6101d860048036038101906101d39190611120565b610cd3565b6040516101e99594939291906116cb565b60405180910390f35b6003602052816000526040600020818154811061020e57600080fd5b9060005260206000209060040201600091509150508060000154908060010154908060020160009054906101000a900473ffffffffffffffffffffffffffffffffffffffff16908060030154905084565b60045481565b6002602052816000526040600020818154811061028157600080fd5b9060005260206000209060040201600091509150508060000154908060010154908060020154908060030160009054906101000a900473ffffffffffffffffffffffffffffffffffffffff16905084565b60056020528060005260406000206000915090505481565b6000816000015111610331576040517f08c379a0000000000000000000000000000000000000000000000000000000008152600401610328906117a5565b60405180910390fd5b606481600001511115610379576040517f08c379a000000000000000000000000000000000000000000000000000000000815260040161037090611811565b60405180910390fd5b600081602001511180156103935750600454816020015111155b6103d2576040517f08c379a00000000000000000000000000000000000000000000000000000000081526004016103c99061187d565b60405180910390fd5b6000600160008360200151815260200190815260200160002090508060020160009054906101000a900460ff161561043f576040517f08c379a0000000000000000000000000000000000000000000000000000000008152600401610436906118e9565b60405180910390fd5b6001600560008460200151815260200190815260200160002060008282546104679190611938565b9250508190555060006040518060800160405280846000015181526020018460200151815260200184604001518152602001846060015173ffffffffffffffffffffffffffffffffffffffff168152509050600260008460200151815260200190815260200160002081908060018154018082558091505060019003906000526020600020906004020160009091909190915060008201518160000155602082015181600101556040820151816002015560608201518160030160006101000a81548173ffffffffffffffffffffffffffffffffffffffff021916908373ffffffffffffffffffffffffffffffffffffffff160217905550505081600301600001548160400151141561059b57806000015182600301600201600082825461058f9190611938565b92505081905550610611565b8160060160000154816040015114156105d55780600001518260060160020160008282546105c99190611938565b92505081905550610610565b6040517f08c379a0000000000000000000000000000000000000000000000000000000008152600401610607906119da565b60405180910390fd5b5b3373ffffffffffffffffffffffffffffffffffffffff167f2b13ae2cd26321180d3ef66e9a9d6518d66f1077e4fbf84bdf6bda6dc65343d182600001518460405161065d929190611c57565b60405180910390a2505050565b60008054906101000a900473ffffffffffffffffffffffffffffffffffffffff1681565b60008054906101000a900473ffffffffffffffffffffffffffffffffffffffff1673ffffffffffffffffffffffffffffffffffffffff163373ffffffffffffffffffffffffffffffffffffffff161461071c576040517f08c379a000000000000000000000000000000000000000000000000000000000815260040161071390611cf9565b60405180910390fd5b600081602001515111610764576040517f08c379a000000000000000000000000000000000000000000000000000000000815260040161075b90611d65565b60405180910390fd5b6001600460008282546107779190611938565b925050819055506000600160045461078f9190611938565b9050600060026004546107a29190611938565b905060006040518060a00160405280600454815260200185602001518152602001600015158152602001604051806060016040528086815260200187606001516020015181526020016000815250815260200160405180606001604052808581526020018760800151602001518152602001600081525081525090508060016000600454815260200190815260200160002060008201518160000155602082015181600101908051906020019061085a929190610efe565b5060408201518160020160006101000a81548160ff0219169083151502179055506060820151816003016000820151816000015560208201518160010190805190602001906108aa929190610efe565b506040820151816002015550506080820151816006016000820151816000015560208201518160010190805190602001906108e6929190610efe565b506040820151816002015550509050503373ffffffffffffffffffffffffffffffffffffffff167f2b13ae2cd26321180d3ef66e9a9d6518d66f1077e4fbf84bdf6bda6dc65343d160045483604051610940929190611e59565b60405180910390a250505050565b60008054906101000a900473ffffffffffffffffffffffffffffffffffffffff1673ffffffffffffffffffffffffffffffffffffffff163373ffffffffffffffffffffffffffffffffffffffff16146109dc576040517f08c379a00000000000000000000000000000000000000000000000000000000081526004016109d390611cf9565b60405180910390fd5b60006001600084815260200190815260200160002090508060020160009054906101000a900460ff1615610a45576040517f08c379a0000000000000000000000000000000000000000000000000000000008152600401610a3c906118e9565b60405180910390fd5b8060030160000154821480610a605750806006016000015482145b610a9f576040517f08c379a0000000000000000000000000000000000000000000000000000000008152600401610a96906119da565b60405180910390fd5b60018160020160006101000a81548160ff02191690831515021790555060005b6005600085815260200190815260200160002054811015610ccd576000600260008681526020019081526020016000208281548110610b0157610b00611e89565b5b90600052602060002090600402019050848160010154148015610b275750838160020154145b15610cb957600081600001549050600060405180608001604052808881526020018881526020018460030160009054906101000a900473ffffffffffffffffffffffffffffffffffffffff1673ffffffffffffffffffffffffffffffffffffffff168152602001600284610b9b9190611eb8565b815250905060036000888152602001908152602001600020819080600181540180825580915050600190039060005260206000209060040201600090919091909150600082015181600001556020820151816001015560408201518160020160006101000a81548173ffffffffffffffffffffffffffffffffffffffff021916908373ffffffffffffffffffffffffffffffffffffffff1602179055506060820151816003015550508260030160009054906101000a900473ffffffffffffffffffffffffffffffffffffffff1673ffffffffffffffffffffffffffffffffffffffff167f8d2c6d37c285a57a4ff7093110a7c5fc6fe036d276818dd21e1edf369273458d83604051610cae91906110c0565b60405180910390a250505b508080610cc590611f12565b915050610abf565b50505050565b6001602052806000526040600020600091509050806000015490806001018054610cfc90611a5a565b80601f0160208091040260200160405190810160405280929190818152602001828054610d2890611a5a565b8015610d755780601f10610d4a57610100808354040283529160200191610d75565b820191906000526020600020905b815481529060010190602001808311610d5857829003601f168201915b5050505050908060020160009054906101000a900460ff16908060030160405180606001604052908160008201548152602001600182018054610db790611a5a565b80601f0160208091040260200160405190810160405280929190818152602001828054610de390611a5a565b8015610e305780601f10610e0557610100808354040283529160200191610e30565b820191906000526020600020905b815481529060010190602001808311610e1357829003601f168201915b50505050508152602001600282015481525050908060060160405180606001604052908160008201548152602001600182018054610e6d90611a5a565b80601f0160208091040260200160405190810160405280929190818152602001828054610e9990611a5a565b8015610ee65780601f10610ebb57610100808354040283529160200191610ee6565b820191906000526020600020905b815481529060010190602001808311610ec957829003601f168201915b50505050508152602001600282015481525050905085565b828054610f0a90611a5a565b90600052602060002090601f016020900481019282610f2c5760008555610f73565b82601f10610f4557805160ff1916838001178555610f73565b82800160010185558215610f73579182015b82811115610f72578251825591602001919060010190610f57565b5b509050610f809190610f84565b5090565b5b80821115610f9d576000816000905550600101610f85565b5090565b6000604051905090565b600080fd5b600080fd5b6000819050919050565b610fc881610fb5565b8114610fd357600080fd5b50565b600081359050610fe581610fbf565b92915050565b6000806040838503121561100257611001610fab565b5b600061101085828601610fd6565b925050602061102185828601610fd6565b9150509250929050565b61103481610fb5565b82525050565b600073ffffffffffffffffffffffffffffffffffffffff82169050919050565b60006110658261103a565b9050919050565b6110758161105a565b82525050565b6000608082019050611090600083018761102b565b61109d602083018661102b565b6110aa604083018561106c565b6110b7606083018461102b565b95945050505050565b60006020820190506110d5600083018461102b565b92915050565b60006080820190506110f0600083018761102b565b6110fd602083018661102b565b61110a604083018561102b565b611117606083018461106c565b95945050505050565b60006020828403121561113657611135610fab565b5b600061114484828501610fd6565b91505092915050565b600080fd5b6000601f19601f8301169050919050565b7f4e487b7100000000000000000000000000000000000000000000000000000000600052604160045260246000fd5b61119b82611152565b810181811067ffffffffffffffff821117156111ba576111b9611163565b5b80604052505050565b60006111cd610fa1565b90506111d98282611192565b919050565b600080fd5b6111ec8161105a565b81146111f757600080fd5b50565b600081359050611209816111e3565b92915050565b6000608082840312156112255761122461114d565b5b61122f60806111c3565b9050600061123f84828501610fd6565b600083015250602061125384828501610fd6565b602083015250604061126784828501610fd6565b604083015250606061127b848285016111fa565b60608301525092915050565b60006080828403121561129d5761129c610fab565b5b60006112ab8482850161120f565b91505092915050565b60006112bf8261103a565b9050919050565b6112cf816112b4565b82525050565b60006020820190506112ea60008301846112c6565b92915050565b600080fd5b600080fd5b600067ffffffffffffffff82111561131557611314611163565b5b61131e82611152565b9050602081019050919050565b82818337600083830152505050565b600061134d611348846112fa565b6111c3565b905082815260208101848484011115611369576113686112f5565b5b61137484828561132b565b509392505050565b600082601f830112611391576113906112f0565b5b81356113a184826020860161133a565b91505092915050565b60008115159050919050565b6113bf816113aa565b81146113ca57600080fd5b50565b6000813590506113dc816113b6565b92915050565b6000606082840312156113f8576113f761114d565b5b61140260606111c3565b9050600061141284828501610fd6565b600083015250602082013567ffffffffffffffff811115611436576114356111de565b5b6114428482850161137c565b602083015250604061145684828501610fd6565b60408301525092915050565b600060a082840312156114785761147761114d565b5b61148260a06111c3565b9050600061149284828501610fd6565b600083015250602082013567ffffffffffffffff8111156114b6576114b56111de565b5b6114c28482850161137c565b60208301525060406114d6848285016113cd565b604083015250606082013567ffffffffffffffff8111156114fa576114f96111de565b5b611506848285016113e2565b606083015250608082013567ffffffffffffffff81111561152a576115296111de565b5b611536848285016113e2565b60808301525092915050565b60006020828403121561155857611557610fab565b5b600082013567ffffffffffffffff81111561157657611575610fb0565b5b61158284828501611462565b91505092915050565b600081519050919050565b600082825260208201905092915050565b60005b838110156115c55780820151818401526020810190506115aa565b838111156115d4576000848401525b50505050565b60006115e58261158b565b6115ef8185611596565b93506115ff8185602086016115a7565b61160881611152565b840191505092915050565b61161c816113aa565b82525050565b61162b81610fb5565b82525050565b600082825260208201905092915050565b600061164d8261158b565b6116578185611631565b93506116678185602086016115a7565b61167081611152565b840191505092915050565b60006060830160008301516116936000860182611622565b50602083015184820360208601526116ab8282611642565b91505060408301516116c06040860182611622565b508091505092915050565b600060a0820190506116e0600083018861102b565b81810360208301526116f281876115da565b90506117016040830186611613565b8181036060830152611713818561167b565b90508181036080830152611727818461167b565b90509695505050505050565b7f42657420616d6f756e74206d7573742062652067726561746572207468616e2060008201527f3000000000000000000000000000000000000000000000000000000000000000602082015250565b600061178f602183611596565b915061179a82611733565b604082019050919050565b600060208201905081810360008301526117be81611782565b9050919050565b7f42657420616d6f756e74206d757374206265206c657373207468616e20313030600082015250565b60006117fb602083611596565b9150611806826117c5565b602082019050919050565b6000602082019050818103600083015261182a816117ee565b9050919050565b7f426574206d7573742062652076616c6964000000000000000000000000000000600082015250565b6000611867601183611596565b915061187282611831565b602082019050919050565b600060208201905081810360008301526118968161185a565b9050919050565b7f426574206d757374206265206f70656e00000000000000000000000000000000600082015250565b60006118d3601083611596565b91506118de8261189d565b602082019050919050565b60006020820190508181036000830152611902816118c6565b9050919050565b7f4e487b7100000000000000000000000000000000000000000000000000000000600052601160045260246000fd5b600061194382610fb5565b915061194e83610fb5565b9250827fffffffffffffffffffffffffffffffffffffffffffffffffffffffffffffffff0382111561198357611982611909565b5b828201905092915050565b7f5465616d206d7573742062652076616c69640000000000000000000000000000600082015250565b60006119c4601283611596565b91506119cf8261198e565b602082019050919050565b600060208201905081810360008301526119f3816119b7565b9050919050565b60008160001c9050919050565b6000819050919050565b6000611a24611a1f836119fa565b611a07565b9050919050565b7f4e487b7100000000000000000000000000000000000000000000000000000000600052602260045260246000fd5b60006002820490506001821680611a7257607f821691505b60208210811415611a8657611a85611a2b565b5b50919050565b60008190508160005260206000209050919050565b60008154611aae81611a5a565b611ab88186611631565b94506001821660008114611ad35760018114611ae557611b18565b60ff1983168652602086019350611b18565b611aee85611a8c565b60005b83811015611b1057815481890152600182019150602081019050611af1565b808801955050505b50505092915050565b600060ff82169050919050565b6000611b41611b3c836119fa565b611b21565b9050919050565b611b51816113aa565b82525050565b6000606083016000808401549050611b6e81611a11565b611b7b6000870182611622565b50600184018583036020870152611b928382611aa1565b92505060028401549050611ba581611a11565b611bb26040870182611622565b50819250505092915050565b600060a083016000808401549050611bd581611a11565b611be26000870182611622565b50600184018583036020870152611bf98382611aa1565b92505060028401549050611c0c81611b2e565b611c196040870182611b48565b50600384018583036060870152611c308382611b57565b925050600684018583036080870152611c498382611b57565b925050819250505092915050565b6000604082019050611c6c600083018561102b565b8181036020830152611c7e8184611bbe565b90509392505050565b7f5365756c206c652070726f70726965746169726520706575742065666665637460008201527f756572206365747465206f7065726174696f6e00000000000000000000000000602082015250565b6000611ce3603383611596565b9150611cee82611c87565b604082019050919050565b60006020820190508181036000830152611d1281611cd6565b9050919050565b7f426574206e616d652063616e6e6f7420626520656d7074790000000000000000600082015250565b6000611d4f601883611596565b9150611d5a82611d19565b602082019050919050565b60006020820190508181036000830152611d7e81611d42565b9050919050565b6000606083016000830151611d9d6000860182611622565b5060208301518482036020860152611db58282611642565b9150506040830151611dca6040860182611622565b508091505092915050565b600060a083016000830151611ded6000860182611622565b5060208301518482036020860152611e058282611642565b9150506040830151611e1a6040860182611b48565b5060608301518482036060860152611e328282611d85565b91505060808301518482036080860152611e4c8282611d85565b9150508091505092915050565b6000604082019050611e6e600083018561102b565b8181036020830152611e808184611dd5565b90509392505050565b7f4e487b7100000000000000000000000000000000000000000000000000000000600052603260045260246000fd5b6000611ec382610fb5565b9150611ece83610fb5565b9250817fffffffffffffffffffffffffffffffffffffffffffffffffffffffffffffffff0483118215151615611f0757611f06611909565b5b828202905092915050565b6000611f1d82610fb5565b91507fffffffffffffffffffffffffffffffffffffffffffffffffffffffffffffffff821415611f5057611f4f611909565b5b60018201905091905056fea2646970667358221220352662533bf945f1eb72411d7578cd23c900009f2bbc1d71e4432108eb482b9764736f6c63430008090033",
  "linkReferences": {},
  "deployedLinkReferences": {}
}