{
  "_format": "hh-sol-artifact-1",
  "contractName": "BettingESport",
  "sourceName": "contracts/betting_e_sport.sol",
  "abi": [
    {
      "inputs": [],
      "stateMutability": "nonpayable",
      "type": "constructor"
    },
    {
      "anonymous": false,
      "inputs": [
        {
          "indexed": true,
          "internalType": "address",
          "name": "player",
          "type": "address"
        },
        {
          "indexed": false,
          "internalType": "uint256",
          "name": "amount",
          "type": "uint256"
        }
      ],
      "name": "BetPlaced",
      "type": "event"
    },
    {
      "anonymous": false,
      "inputs": [
        {
          "indexed": true,
          "internalType": "address",
          "name": "player",
          "type": "address"
        },
        {
          "indexed": false,
          "internalType": "uint256",
          "name": "amount",
          "type": "uint256"
        }
      ],
      "name": "BetWinner",
      "type": "event"
    },
    {
      "inputs": [
        {
          "internalType": "address",
          "name": "",
          "type": "address"
        }
      ],
      "name": "balances",
      "outputs": [
        {
          "internalType": "uint256",
          "name": "",
          "type": "uint256"
        }
      ],
      "stateMutability": "view",
      "type": "function"
    },
    {
      "inputs": [
        {
          "internalType": "address",
          "name": "",
          "type": "address"
        }
      ],
      "name": "bets",
      "outputs": [
        {
          "internalType": "uint256",
          "name": "",
          "type": "uint256"
        }
      ],
      "stateMutability": "view",
      "type": "function"
    },
    {
      "inputs": [],
      "name": "bettingOpen",
      "outputs": [
        {
          "internalType": "bool",
          "name": "",
          "type": "bool"
        }
      ],
      "stateMutability": "view",
      "type": "function"
    },
    {
      "inputs": [],
      "name": "closeBetting",
      "outputs": [],
      "stateMutability": "nonpayable",
      "type": "function"
    },
    {
      "inputs": [
        {
          "internalType": "address payable",
          "name": "winner",
          "type": "address"
        }
      ],
      "name": "distributePrizes",
      "outputs": [],
      "stateMutability": "nonpayable",
      "type": "function"
    },
    {
      "inputs": [],
      "name": "owner",
      "outputs": [
        {
          "internalType": "address",
          "name": "",
          "type": "address"
        }
      ],
      "stateMutability": "view",
      "type": "function"
    },
    {
      "inputs": [],
      "name": "placeBet",
      "outputs": [],
      "stateMutability": "payable",
      "type": "function"
    },
    {
      "inputs": [
        {
          "internalType": "uint256",
          "name": "",
          "type": "uint256"
        }
      ],
      "name": "players",
      "outputs": [
        {
          "internalType": "address",
          "name": "",
          "type": "address"
        }
      ],
      "stateMutability": "view",
      "type": "function"
    },
    {
      "inputs": [],
      "name": "withdrawFunds",
      "outputs": [],
      "stateMutability": "nonpayable",
      "type": "function"
    }
  ],
  "bytecode": "0x60806040526001600460006101000a81548160ff02191690831515021790555034801561002b57600080fd5b50336000806101000a81548173ffffffffffffffffffffffffffffffffffffffff021916908373ffffffffffffffffffffffffffffffffffffffff16021790555061103b8061007b6000396000f3fe6080604052600436106100865760003560e01c80634d002546116100595780634d0025461461012157806389a78f1a1461014a5780638da5cb5b14610187578063f71d96cb146101b2578063f90f4560146101ef57610086565b806315ac534d1461008b57806315b19770146100a257806324600fc3146100cd57806327e235e3146100e4575b600080fd5b34801561009757600080fd5b506100a06101f9565b005b3480156100ae57600080fd5b506100b76102a4565b6040516100c49190610976565b60405180910390f35b3480156100d957600080fd5b506100e26102b7565b005b3480156100f057600080fd5b5061010b600480360381019061010691906109f4565b6103cd565b6040516101189190610a3a565b60405180910390f35b34801561012d57600080fd5b5061014860048036038101906101439190610a93565b6103e5565b005b34801561015657600080fd5b50610171600480360381019061016c91906109f4565b6106ef565b60405161017e9190610a3a565b60405180910390f35b34801561019357600080fd5b5061019c610707565b6040516101a99190610acf565b60405180910390f35b3480156101be57600080fd5b506101d960048036038101906101d49190610b16565b61072b565b6040516101e69190610acf565b60405180910390f35b6101f761076a565b005b60008054906101000a900473ffffffffffffffffffffffffffffffffffffffff1673ffffffffffffffffffffffffffffffffffffffff163373ffffffffffffffffffffffffffffffffffffffff1614610287576040517f08c379a000000000000000000000000000000000000000000000000000000000815260040161027e90610bc6565b60405180910390fd5b6000600460006101000a81548160ff021916908315150217905550565b600460009054906101000a900460ff1681565b6000600160003373ffffffffffffffffffffffffffffffffffffffff1673ffffffffffffffffffffffffffffffffffffffff1681526020019081526020016000205490506000811161033e576040517f08c379a000000000000000000000000000000000000000000000000000000000815260040161033590610c32565b60405180910390fd5b6000600160003373ffffffffffffffffffffffffffffffffffffffff1673ffffffffffffffffffffffffffffffffffffffff168152602001908152602001600020819055503373ffffffffffffffffffffffffffffffffffffffff166108fc829081150290604051600060405180830381858888f193505050501580156103c9573d6000803e3d6000fd5b5050565b60016020528060005260406000206000915090505481565b60008054906101000a900473ffffffffffffffffffffffffffffffffffffffff1673ffffffffffffffffffffffffffffffffffffffff163373ffffffffffffffffffffffffffffffffffffffff1614610473576040517f08c379a000000000000000000000000000000000000000000000000000000000815260040161046a90610bc6565b60405180910390fd5b600460009054906101000a900460ff16156104c3576040517f08c379a00000000000000000000000000000000000000000000000000000000081526004016104ba90610cc4565b60405180910390fd5b6000600260008373ffffffffffffffffffffffffffffffffffffffff1673ffffffffffffffffffffffffffffffffffffffff1681526020019081526020016000205411610545576040517f08c379a000000000000000000000000000000000000000000000000000000000815260040161053c90610d30565b60405180910390fd5b6000805b6003805490508110156105f457600260006003838154811061056e5761056d610d50565b5b9060005260206000200160009054906101000a900473ffffffffffffffffffffffffffffffffffffffff1673ffffffffffffffffffffffffffffffffffffffff1673ffffffffffffffffffffffffffffffffffffffff16815260200190815260200160002054826105df9190610dae565b915080806105ec90610e04565b915050610549565b50600047905060008282600260008773ffffffffffffffffffffffffffffffffffffffff1673ffffffffffffffffffffffffffffffffffffffff168152602001908152602001600020546106489190610e4d565b6106529190610ed6565b90508373ffffffffffffffffffffffffffffffffffffffff166108fc829081150290604051600060405180830381858888f1935050505015801561069a573d6000803e3d6000fd5b508373ffffffffffffffffffffffffffffffffffffffff167f8d2c6d37c285a57a4ff7093110a7c5fc6fe036d276818dd21e1edf369273458d826040516106e19190610a3a565b60405180910390a250505050565b60026020528060005260406000206000915090505481565b60008054906101000a900473ffffffffffffffffffffffffffffffffffffffff1681565b6003818154811061073b57600080fd5b906000526020600020016000915054906101000a900473ffffffffffffffffffffffffffffffffffffffff1681565b600460009054906101000a900460ff166107b9576040517f08c379a00000000000000000000000000000000000000000000000000000000081526004016107b090610f53565b60405180910390fd5b600034116107fc576040517f08c379a00000000000000000000000000000000000000000000000000000000081526004016107f390610fe5565b60405180910390fd5b34600160003373ffffffffffffffffffffffffffffffffffffffff1673ffffffffffffffffffffffffffffffffffffffff168152602001908152602001600020600082825461084b9190610dae565b9250508190555034600260003373ffffffffffffffffffffffffffffffffffffffff1673ffffffffffffffffffffffffffffffffffffffff16815260200190815260200160002060008282546108a19190610dae565b925050819055506003339080600181540180825580915050600190039060005260206000200160009091909190916101000a81548173ffffffffffffffffffffffffffffffffffffffff021916908373ffffffffffffffffffffffffffffffffffffffff1602179055503373ffffffffffffffffffffffffffffffffffffffff167f43e08d78302cdf9c94e1ffd293c2a3696139ee41cf3199b6f5eed9c7f6cc6090346040516109519190610a3a565b60405180910390a2565b60008115159050919050565b6109708161095b565b82525050565b600060208201905061098b6000830184610967565b92915050565b600080fd5b600073ffffffffffffffffffffffffffffffffffffffff82169050919050565b60006109c182610996565b9050919050565b6109d1816109b6565b81146109dc57600080fd5b50565b6000813590506109ee816109c8565b92915050565b600060208284031215610a0a57610a09610991565b5b6000610a18848285016109df565b91505092915050565b6000819050919050565b610a3481610a21565b82525050565b6000602082019050610a4f6000830184610a2b565b92915050565b6000610a6082610996565b9050919050565b610a7081610a55565b8114610a7b57600080fd5b50565b600081359050610a8d81610a67565b92915050565b600060208284031215610aa957610aa8610991565b5b6000610ab784828501610a7e565b91505092915050565b610ac9816109b6565b82525050565b6000602082019050610ae46000830184610ac0565b92915050565b610af381610a21565b8114610afe57600080fd5b50565b600081359050610b1081610aea565b92915050565b600060208284031215610b2c57610b2b610991565b5b6000610b3a84828501610b01565b91505092915050565b600082825260208201905092915050565b7f5365756c206c652070726f70726965746169726520706575742065666665637460008201527f756572206365747465206f7065726174696f6e00000000000000000000000000602082015250565b6000610bb0603383610b43565b9150610bbb82610b54565b604082019050919050565b60006020820190508181036000830152610bdf81610ba3565b9050919050565b7f417563756e20666f6e647320646973706f6e69626c6573000000000000000000600082015250565b6000610c1c601783610b43565b9150610c2782610be6565b602082019050919050565b60006020820190508181036000830152610c4b81610c0f565b9050919050565b7f4c6120706572696f6465206465207061726973206e276573742070617320656e60008201527f636f7265207465726d696e656500000000000000000000000000000000000000602082015250565b6000610cae602d83610b43565b9150610cb982610c52565b604082019050919050565b60006020820190508181036000830152610cdd81610ca1565b9050919050565b7f4c65206761676e616e74206e2761207061732066616974206465207061726900600082015250565b6000610d1a601f83610b43565b9150610d2582610ce4565b602082019050919050565b60006020820190508181036000830152610d4981610d0d565b9050919050565b7f4e487b7100000000000000000000000000000000000000000000000000000000600052603260045260246000fd5b7f4e487b7100000000000000000000000000000000000000000000000000000000600052601160045260246000fd5b6000610db982610a21565b9150610dc483610a21565b9250827fffffffffffffffffffffffffffffffffffffffffffffffffffffffffffffffff03821115610df957610df8610d7f565b5b828201905092915050565b6000610e0f82610a21565b91507fffffffffffffffffffffffffffffffffffffffffffffffffffffffffffffffff821415610e4257610e41610d7f565b5b600182019050919050565b6000610e5882610a21565b9150610e6383610a21565b9250817fffffffffffffffffffffffffffffffffffffffffffffffffffffffffffffffff0483118215151615610e9c57610e9b610d7f565b5b828202905092915050565b7f4e487b7100000000000000000000000000000000000000000000000000000000600052601260045260246000fd5b6000610ee182610a21565b9150610eec83610a21565b925082610efc57610efb610ea7565b5b828204905092915050565b7f4c6120706572696f646520646520706172697320657374207465726d696e6565600082015250565b6000610f3d602083610b43565b9150610f4882610f07565b602082019050919050565b60006020820190508181036000830152610f6c81610f30565b9050919050565b7f4c65206d6f6e74616e74206475207061726920646f697420657472652073757060008201527f6572696575722061207a65726f00000000000000000000000000000000000000602082015250565b6000610fcf602d83610b43565b9150610fda82610f73565b604082019050919050565b60006020820190508181036000830152610ffe81610fc2565b905091905056fea264697066735822122005d01738e70150e55ae7a38a3ebc66ce8f73972145211f9e3c3fdcaba2baf29b64736f6c63430008090033",
  "linkReferences": {},
  "deployedLinkReferences": {}
}