{
  "_format": "hh-sol-artifact-1",
  "contractName": "BettingESport",
  "sourceName": "contracts/betting_e_sport.sol",
  "abi": [
    {
      "inputs": [],
      "stateMutability": "nonpayable",
      "type": "constructor"
    },
    {
      "anonymous": false,
      "inputs": [
        {
          "indexed": true,
          "internalType": "address",
          "name": "player",
          "type": "address"
        },
        {
          "indexed": false,
          "internalType": "uint256",
          "name": "amount",
          "type": "uint256"
        },
        {
          "components": [
            {
              "internalType": "uint256",
              "name": "id",
              "type": "uint256"
            },
            {
              "internalType": "string",
              "name": "name",
              "type": "string"
            },
            {
              "internalType": "bool",
              "name": "isFinished",
              "type": "bool"
            },
            {
              "components": [
                {
                  "internalType": "uint256",
                  "name": "id",
                  "type": "uint256"
                },
                {
                  "internalType": "string",
                  "name": "name",
                  "type": "string"
                },
                {
                  "internalType": "uint256",
                  "name": "score",
                  "type": "uint256"
                }
              ],
              "internalType": "struct BettingESport.Team",
              "name": "firstTeam",
              "type": "tuple"
            },
            {
              "components": [
                {
                  "internalType": "uint256",
                  "name": "id",
                  "type": "uint256"
                },
                {
                  "internalType": "string",
                  "name": "name",
                  "type": "string"
                },
                {
                  "internalType": "uint256",
                  "name": "score",
                  "type": "uint256"
                }
              ],
              "internalType": "struct BettingESport.Team",
              "name": "secondTeam",
              "type": "tuple"
            }
          ],
          "indexed": false,
          "internalType": "struct BettingESport.Betting",
          "name": "betting",
          "type": "tuple"
        }
      ],
      "name": "BetPlaced",
      "type": "event"
    },
    {
      "anonymous": false,
      "inputs": [
        {
          "indexed": true,
          "internalType": "address",
          "name": "player",
          "type": "address"
        },
        {
          "indexed": false,
          "internalType": "uint256",
          "name": "amount",
          "type": "uint256"
        }
      ],
      "name": "BetWinner",
      "type": "event"
    },
    {
      "inputs": [],
      "name": "betCounter",
      "outputs": [
        {
          "internalType": "uint256",
          "name": "",
          "type": "uint256"
        }
      ],
      "stateMutability": "view",
      "type": "function"
    },
    {
      "inputs": [
        {
          "internalType": "uint256",
          "name": "",
          "type": "uint256"
        }
      ],
      "name": "betting",
      "outputs": [
        {
          "internalType": "uint256",
          "name": "id",
          "type": "uint256"
        },
        {
          "internalType": "string",
          "name": "name",
          "type": "string"
        },
        {
          "internalType": "bool",
          "name": "isFinished",
          "type": "bool"
        },
        {
          "components": [
            {
              "internalType": "uint256",
              "name": "id",
              "type": "uint256"
            },
            {
              "internalType": "string",
              "name": "name",
              "type": "string"
            },
            {
              "internalType": "uint256",
              "name": "score",
              "type": "uint256"
            }
          ],
          "internalType": "struct BettingESport.Team",
          "name": "firstTeam",
          "type": "tuple"
        },
        {
          "components": [
            {
              "internalType": "uint256",
              "name": "id",
              "type": "uint256"
            },
            {
              "internalType": "string",
              "name": "name",
              "type": "string"
            },
            {
              "internalType": "uint256",
              "name": "score",
              "type": "uint256"
            }
          ],
          "internalType": "struct BettingESport.Team",
          "name": "secondTeam",
          "type": "tuple"
        }
      ],
      "stateMutability": "view",
      "type": "function"
    },
    {
      "inputs": [
        {
          "components": [
            {
              "internalType": "uint256",
              "name": "id",
              "type": "uint256"
            },
            {
              "internalType": "string",
              "name": "name",
              "type": "string"
            },
            {
              "internalType": "bool",
              "name": "isFinished",
              "type": "bool"
            },
            {
              "components": [
                {
                  "internalType": "uint256",
                  "name": "id",
                  "type": "uint256"
                },
                {
                  "internalType": "string",
                  "name": "name",
                  "type": "string"
                },
                {
                  "internalType": "uint256",
                  "name": "score",
                  "type": "uint256"
                }
              ],
              "internalType": "struct BettingESport.Team",
              "name": "firstTeam",
              "type": "tuple"
            },
            {
              "components": [
                {
                  "internalType": "uint256",
                  "name": "id",
                  "type": "uint256"
                },
                {
                  "internalType": "string",
                  "name": "name",
                  "type": "string"
                },
                {
                  "internalType": "uint256",
                  "name": "score",
                  "type": "uint256"
                }
              ],
              "internalType": "struct BettingESport.Team",
              "name": "secondTeam",
              "type": "tuple"
            }
          ],
          "internalType": "struct BettingESport.Betting",
          "name": "newBetting",
          "type": "tuple"
        }
      ],
      "name": "createBetting",
      "outputs": [],
      "stateMutability": "nonpayable",
      "type": "function"
    },
    {
      "inputs": [],
      "name": "getAllBetting",
      "outputs": [
        {
          "components": [
            {
              "internalType": "uint256",
              "name": "id",
              "type": "uint256"
            },
            {
              "internalType": "string",
              "name": "name",
              "type": "string"
            },
            {
              "internalType": "bool",
              "name": "isFinished",
              "type": "bool"
            },
            {
              "components": [
                {
                  "internalType": "uint256",
                  "name": "id",
                  "type": "uint256"
                },
                {
                  "internalType": "string",
                  "name": "name",
                  "type": "string"
                },
                {
                  "internalType": "uint256",
                  "name": "score",
                  "type": "uint256"
                }
              ],
              "internalType": "struct BettingESport.Team",
              "name": "firstTeam",
              "type": "tuple"
            },
            {
              "components": [
                {
                  "internalType": "uint256",
                  "name": "id",
                  "type": "uint256"
                },
                {
                  "internalType": "string",
                  "name": "name",
                  "type": "string"
                },
                {
                  "internalType": "uint256",
                  "name": "score",
                  "type": "uint256"
                }
              ],
              "internalType": "struct BettingESport.Team",
              "name": "secondTeam",
              "type": "tuple"
            }
          ],
          "internalType": "struct BettingESport.Betting[]",
          "name": "",
          "type": "tuple[]"
        }
      ],
      "stateMutability": "view",
      "type": "function"
    },
    {
      "inputs": [],
      "name": "owner",
      "outputs": [
        {
          "internalType": "address",
          "name": "",
          "type": "address"
        }
      ],
      "stateMutability": "view",
      "type": "function"
    }
  ],
  "bytecode": "0x608060405234801561001057600080fd5b50336000806101000a81548173ffffffffffffffffffffffffffffffffffffffff021916908373ffffffffffffffffffffffffffffffffffffffff16021790555061159b806100606000396000f3fe608060405234801561001057600080fd5b50600436106100575760003560e01c80638da5cb5b1461005c57806399c21d6d1461007a578063a416f5ab14610096578063ba15eeb1146100b4578063eadc56d2146100d2575b600080fd5b610064610106565b6040516100719190610a8d565b60405180910390f35b610094600480360381019061008f9190610dda565b61012a565b005b61009e610423565b6040516100ab9190610e32565b60405180910390f35b6100bc610429565b6040516100c99190611089565b60405180910390f35b6100ec60048036038101906100e791906110ab565b610720565b6040516100fd959493929190611181565b60405180910390f35b60008054906101000a900473ffffffffffffffffffffffffffffffffffffffff1681565b60008054906101000a900473ffffffffffffffffffffffffffffffffffffffff1673ffffffffffffffffffffffffffffffffffffffff163373ffffffffffffffffffffffffffffffffffffffff16146101b8576040517f08c379a00000000000000000000000000000000000000000000000000000000081526004016101af9061125b565b60405180910390fd5b806080015160000151816060015160000151141561020b576040517f08c379a0000000000000000000000000000000000000000000000000000000008152600401610202906112c7565b60405180910390fd5b600081602001515111610253576040517f08c379a000000000000000000000000000000000000000000000000000000000815260040161024a90611333565b60405180910390fd5b6002600081548092919061026690611382565b919050555060006040518060a0016040528060025481526020018360200151815260200160001515815260200160405180606001604052808560600151600001518152602001856060015160200151815260200160008152508152602001604051806060016040528085608001516000015181526020018560800151602001518152602001600081525081525090508060016000600254815260200190815260200160002060008201518160000155602082015181600101908051906020019061033192919061094b565b5060408201518160020160006101000a81548160ff02191690831515021790555060608201518160030160008201518160000155602082015181600101908051906020019061038192919061094b565b506040820151816002015550506080820151816006016000820151816000015560208201518160010190805190602001906103bd92919061094b565b506040820151816002015550509050503373ffffffffffffffffffffffffffffffffffffffff167f2b13ae2cd26321180d3ef66e9a9d6518d66f1077e4fbf84bdf6bda6dc65343d16002548360405161041792919061144f565b60405180910390a25050565b60025481565b6060600060025467ffffffffffffffff81111561044957610448610ad2565b5b60405190808252806020026020018201604052801561048257816020015b61046f6109d1565b8152602001906001900390816104675790505b50905060005b60025481101561071857600160006001836104a3919061147f565b81526020019081526020016000206040518060a0016040529081600082015481526020016001820180546104d690611504565b80601f016020809104026020016040519081016040528092919081815260200182805461050290611504565b801561054f5780601f106105245761010080835404028352916020019161054f565b820191906000526020600020905b81548152906001019060200180831161053257829003601f168201915b505050505081526020016002820160009054906101000a900460ff16151515158152602001600382016040518060600160405290816000820154815260200160018201805461059d90611504565b80601f01602080910402602001604051908101604052809291908181526020018280546105c990611504565b80156106165780601f106105eb57610100808354040283529160200191610616565b820191906000526020600020905b8154815290600101906020018083116105f957829003601f168201915b505050505081526020016002820154815250508152602001600682016040518060600160405290816000820154815260200160018201805461065790611504565b80601f016020809104026020016040519081016040528092919081815260200182805461068390611504565b80156106d05780601f106106a5576101008083540402835291602001916106d0565b820191906000526020600020905b8154815290600101906020018083116106b357829003601f168201915b50505050508152602001600282015481525050815250508282815181106106fa576106f9611536565b5b6020026020010181905250808061071090611382565b915050610488565b508091505090565b600160205280600052604060002060009150905080600001549080600101805461074990611504565b80601f016020809104026020016040519081016040528092919081815260200182805461077590611504565b80156107c25780601f10610797576101008083540402835291602001916107c2565b820191906000526020600020905b8154815290600101906020018083116107a557829003601f168201915b5050505050908060020160009054906101000a900460ff1690806003016040518060600160405290816000820154815260200160018201805461080490611504565b80601f016020809104026020016040519081016040528092919081815260200182805461083090611504565b801561087d5780601f106108525761010080835404028352916020019161087d565b820191906000526020600020905b81548152906001019060200180831161086057829003601f168201915b505050505081526020016002820154815250509080600601604051806060016040529081600082015481526020016001820180546108ba90611504565b80601f01602080910402602001604051908101604052809291908181526020018280546108e690611504565b80156109335780601f1061090857610100808354040283529160200191610933565b820191906000526020600020905b81548152906001019060200180831161091657829003601f168201915b50505050508152602001600282015481525050905085565b82805461095790611504565b90600052602060002090601f01602090048101928261097957600085556109c0565b82601f1061099257805160ff19168380011785556109c0565b828001600101855582156109c0579182015b828111156109bf5782518255916020019190600101906109a4565b5b5090506109cd9190610a0e565b5090565b6040518060a0016040528060008152602001606081526020016000151581526020016109fb610a2b565b8152602001610a08610a2b565b81525090565b5b80821115610a27576000816000905550600101610a0f565b5090565b60405180606001604052806000815260200160608152602001600081525090565b600073ffffffffffffffffffffffffffffffffffffffff82169050919050565b6000610a7782610a4c565b9050919050565b610a8781610a6c565b82525050565b6000602082019050610aa26000830184610a7e565b92915050565b6000604051905090565b600080fd5b600080fd5b600080fd5b6000601f19601f8301169050919050565b7f4e487b7100000000000000000000000000000000000000000000000000000000600052604160045260246000fd5b610b0a82610ac1565b810181811067ffffffffffffffff82111715610b2957610b28610ad2565b5b80604052505050565b6000610b3c610aa8565b9050610b488282610b01565b919050565b600080fd5b6000819050919050565b610b6581610b52565b8114610b7057600080fd5b50565b600081359050610b8281610b5c565b92915050565b600080fd5b600080fd5b600067ffffffffffffffff821115610bad57610bac610ad2565b5b610bb682610ac1565b9050602081019050919050565b82818337600083830152505050565b6000610be5610be084610b92565b610b32565b905082815260208101848484011115610c0157610c00610b8d565b5b610c0c848285610bc3565b509392505050565b600082601f830112610c2957610c28610b88565b5b8135610c39848260208601610bd2565b91505092915050565b60008115159050919050565b610c5781610c42565b8114610c6257600080fd5b50565b600081359050610c7481610c4e565b92915050565b600060608284031215610c9057610c8f610abc565b5b610c9a6060610b32565b90506000610caa84828501610b73565b600083015250602082013567ffffffffffffffff811115610cce57610ccd610b4d565b5b610cda84828501610c14565b6020830152506040610cee84828501610b73565b60408301525092915050565b600060a08284031215610d1057610d0f610abc565b5b610d1a60a0610b32565b90506000610d2a84828501610b73565b600083015250602082013567ffffffffffffffff811115610d4e57610d4d610b4d565b5b610d5a84828501610c14565b6020830152506040610d6e84828501610c65565b604083015250606082013567ffffffffffffffff811115610d9257610d91610b4d565b5b610d9e84828501610c7a565b606083015250608082013567ffffffffffffffff811115610dc257610dc1610b4d565b5b610dce84828501610c7a565b60808301525092915050565b600060208284031215610df057610def610ab2565b5b600082013567ffffffffffffffff811115610e0e57610e0d610ab7565b5b610e1a84828501610cfa565b91505092915050565b610e2c81610b52565b82525050565b6000602082019050610e476000830184610e23565b92915050565b600081519050919050565b600082825260208201905092915050565b6000819050602082019050919050565b610e8281610b52565b82525050565b600081519050919050565b600082825260208201905092915050565b60005b83811015610ec2578082015181840152602081019050610ea7565b83811115610ed1576000848401525b50505050565b6000610ee282610e88565b610eec8185610e93565b9350610efc818560208601610ea4565b610f0581610ac1565b840191505092915050565b610f1981610c42565b82525050565b6000606083016000830151610f376000860182610e79565b5060208301518482036020860152610f4f8282610ed7565b9150506040830151610f646040860182610e79565b508091505092915050565b600060a083016000830151610f876000860182610e79565b5060208301518482036020860152610f9f8282610ed7565b9150506040830151610fb46040860182610f10565b5060608301518482036060860152610fcc8282610f1f565b91505060808301518482036080860152610fe68282610f1f565b9150508091505092915050565b6000610fff8383610f6f565b905092915050565b6000602082019050919050565b600061101f82610e4d565b6110298185610e58565b93508360208202850161103b85610e69565b8060005b8581101561107757848403895281516110588582610ff3565b945061106383611007565b925060208a0199505060018101905061103f565b50829750879550505050505092915050565b600060208201905081810360008301526110a38184611014565b905092915050565b6000602082840312156110c1576110c0610ab2565b5b60006110cf84828501610b73565b91505092915050565b600082825260208201905092915050565b60006110f482610e88565b6110fe81856110d8565b935061110e818560208601610ea4565b61111781610ac1565b840191505092915050565b61112b81610c42565b82525050565b60006060830160008301516111496000860182610e79565b50602083015184820360208601526111618282610ed7565b91505060408301516111766040860182610e79565b508091505092915050565b600060a0820190506111966000830188610e23565b81810360208301526111a881876110e9565b90506111b76040830186611122565b81810360608301526111c98185611131565b905081810360808301526111dd8184611131565b90509695505050505050565b7f5365756c206c652070726f70726965746169726520706575742065666665637460008201527f756572206365747465206f7065726174696f6e00000000000000000000000000602082015250565b60006112456033836110d8565b9150611250826111e9565b604082019050919050565b6000602082019050818103600083015261127481611238565b9050919050565b7f5465616d20494473206d75737420626520756e69717565000000000000000000600082015250565b60006112b16017836110d8565b91506112bc8261127b565b602082019050919050565b600060208201905081810360008301526112e0816112a4565b9050919050565b7f426574206e616d652063616e6e6f7420626520656d7074790000000000000000600082015250565b600061131d6018836110d8565b9150611328826112e7565b602082019050919050565b6000602082019050818103600083015261134c81611310565b9050919050565b7f4e487b7100000000000000000000000000000000000000000000000000000000600052601160045260246000fd5b600061138d82610b52565b91507fffffffffffffffffffffffffffffffffffffffffffffffffffffffffffffffff8214156113c0576113bf611353565b5b600182019050919050565b600060a0830160008301516113e36000860182610e79565b50602083015184820360208601526113fb8282610ed7565b91505060408301516114106040860182610f10565b50606083015184820360608601526114288282610f1f565b915050608083015184820360808601526114428282610f1f565b9150508091505092915050565b60006040820190506114646000830185610e23565b818103602083015261147681846113cb565b90509392505050565b600061148a82610b52565b915061149583610b52565b9250827fffffffffffffffffffffffffffffffffffffffffffffffffffffffffffffffff038211156114ca576114c9611353565b5b828201905092915050565b7f4e487b7100000000000000000000000000000000000000000000000000000000600052602260045260246000fd5b6000600282049050600182168061151c57607f821691505b602082108114156115305761152f6114d5565b5b50919050565b7f4e487b7100000000000000000000000000000000000000000000000000000000600052603260045260246000fdfea2646970667358221220600dab48a49a71550dca57d13a5882ddbaf52f95fd813abc0a14f78ce4ca6bc564736f6c63430008090033",
  "linkReferences": {},
  "deployedLinkReferences": {}
}