{
  "_format": "hh-sol-artifact-1",
  "contractName": "CardHelper",
  "sourceName": "contracts/cardhelper.sol",
  "abi": [
    {
      "inputs": [
        {
          "internalType": "address",
          "name": "sender",
          "type": "address"
        },
        {
          "internalType": "uint256",
          "name": "balance",
          "type": "uint256"
        },
        {
          "internalType": "uint256",
          "name": "needed",
          "type": "uint256"
        },
        {
          "internalType": "uint256",
          "name": "tokenId",
          "type": "uint256"
        }
      ],
      "name": "ERC1155InsufficientBalance",
      "type": "error"
    },
    {
      "inputs": [
        {
          "internalType": "address",
          "name": "approver",
          "type": "address"
        }
      ],
      "name": "ERC1155InvalidApprover",
      "type": "error"
    },
    {
      "inputs": [
        {
          "internalType": "uint256",
          "name": "idsLength",
          "type": "uint256"
        },
        {
          "internalType": "uint256",
          "name": "valuesLength",
          "type": "uint256"
        }
      ],
      "name": "ERC1155InvalidArrayLength",
      "type": "error"
    },
    {
      "inputs": [
        {
          "internalType": "address",
          "name": "operator",
          "type": "address"
        }
      ],
      "name": "ERC1155InvalidOperator",
      "type": "error"
    },
    {
      "inputs": [
        {
          "internalType": "address",
          "name": "receiver",
          "type": "address"
        }
      ],
      "name": "ERC1155InvalidReceiver",
      "type": "error"
    },
    {
      "inputs": [
        {
          "internalType": "address",
          "name": "sender",
          "type": "address"
        }
      ],
      "name": "ERC1155InvalidSender",
      "type": "error"
    },
    {
      "inputs": [
        {
          "internalType": "address",
          "name": "operator",
          "type": "address"
        },
        {
          "internalType": "address",
          "name": "owner",
          "type": "address"
        }
      ],
      "name": "ERC1155MissingApprovalForAll",
      "type": "error"
    },
    {
      "inputs": [
        {
          "internalType": "address",
          "name": "owner",
          "type": "address"
        }
      ],
      "name": "OwnableInvalidOwner",
      "type": "error"
    },
    {
      "inputs": [
        {
          "internalType": "address",
          "name": "account",
          "type": "address"
        }
      ],
      "name": "OwnableUnauthorizedAccount",
      "type": "error"
    },
    {
      "anonymous": false,
      "inputs": [
        {
          "indexed": true,
          "internalType": "address",
          "name": "account",
          "type": "address"
        },
        {
          "indexed": true,
          "internalType": "address",
          "name": "operator",
          "type": "address"
        },
        {
          "indexed": false,
          "internalType": "bool",
          "name": "approved",
          "type": "bool"
        }
      ],
      "name": "ApprovalForAll",
      "type": "event"
    },
    {
      "anonymous": false,
      "inputs": [
        {
          "indexed": false,
          "internalType": "uint256",
          "name": "newCardIdMax",
          "type": "uint256"
        }
      ],
      "name": "CardIdMaxChanged",
      "type": "event"
    },
    {
      "anonymous": false,
      "inputs": [
        {
          "indexed": true,
          "internalType": "address",
          "name": "previousOwner",
          "type": "address"
        },
        {
          "indexed": true,
          "internalType": "address",
          "name": "newOwner",
          "type": "address"
        }
      ],
      "name": "OwnershipTransferred",
      "type": "event"
    },
    {
      "anonymous": false,
      "inputs": [
        {
          "indexed": true,
          "internalType": "address",
          "name": "operator",
          "type": "address"
        },
        {
          "indexed": true,
          "internalType": "address",
          "name": "from",
          "type": "address"
        },
        {
          "indexed": true,
          "internalType": "address",
          "name": "to",
          "type": "address"
        },
        {
          "indexed": false,
          "internalType": "uint256[]",
          "name": "ids",
          "type": "uint256[]"
        },
        {
          "indexed": false,
          "internalType": "uint256[]",
          "name": "values",
          "type": "uint256[]"
        }
      ],
      "name": "TransferBatch",
      "type": "event"
    },
    {
      "anonymous": false,
      "inputs": [
        {
          "indexed": true,
          "internalType": "address",
          "name": "operator",
          "type": "address"
        },
        {
          "indexed": true,
          "internalType": "address",
          "name": "from",
          "type": "address"
        },
        {
          "indexed": true,
          "internalType": "address",
          "name": "to",
          "type": "address"
        },
        {
          "indexed": false,
          "internalType": "uint256",
          "name": "id",
          "type": "uint256"
        },
        {
          "indexed": false,
          "internalType": "uint256",
          "name": "value",
          "type": "uint256"
        }
      ],
      "name": "TransferSingle",
      "type": "event"
    },
    {
      "anonymous": false,
      "inputs": [
        {
          "indexed": false,
          "internalType": "string",
          "name": "value",
          "type": "string"
        },
        {
          "indexed": true,
          "internalType": "uint256",
          "name": "id",
          "type": "uint256"
        }
      ],
      "name": "URI",
      "type": "event"
    },
    {
      "inputs": [
        {
          "internalType": "address",
          "name": "account",
          "type": "address"
        },
        {
          "internalType": "uint256",
          "name": "id",
          "type": "uint256"
        }
      ],
      "name": "balanceOf",
      "outputs": [
        {
          "internalType": "uint256",
          "name": "",
          "type": "uint256"
        }
      ],
      "stateMutability": "view",
      "type": "function"
    },
    {
      "inputs": [
        {
          "internalType": "address[]",
          "name": "accounts",
          "type": "address[]"
        },
        {
          "internalType": "uint256[]",
          "name": "ids",
          "type": "uint256[]"
        }
      ],
      "name": "balanceOfBatch",
      "outputs": [
        {
          "internalType": "uint256[]",
          "name": "",
          "type": "uint256[]"
        }
      ],
      "stateMutability": "view",
      "type": "function"
    },
    {
      "inputs": [
        {
          "internalType": "address",
          "name": "_from",
          "type": "address"
        },
        {
          "internalType": "uint256",
          "name": "_id",
          "type": "uint256"
        },
        {
          "internalType": "uint256",
          "name": "_value",
          "type": "uint256"
        }
      ],
      "name": "burn",
      "outputs": [],
      "stateMutability": "nonpayable",
      "type": "function"
    },
    {
      "inputs": [],
      "name": "cardIdMax",
      "outputs": [
        {
          "internalType": "uint256",
          "name": "",
          "type": "uint256"
        }
      ],
      "stateMutability": "view",
      "type": "function"
    },
    {
      "inputs": [
        {
          "internalType": "uint256",
          "name": "",
          "type": "uint256"
        },
        {
          "internalType": "address",
          "name": "",
          "type": "address"
        }
      ],
      "name": "cardIdToOwnerToAmount",
      "outputs": [
        {
          "internalType": "uint256",
          "name": "",
          "type": "uint256"
        }
      ],
      "stateMutability": "view",
      "type": "function"
    },
    {
      "inputs": [
        {
          "internalType": "uint256",
          "name": "",
          "type": "uint256"
        },
        {
          "internalType": "uint256",
          "name": "",
          "type": "uint256"
        }
      ],
      "name": "cardIdToOwners",
      "outputs": [
        {
          "internalType": "address",
          "name": "",
          "type": "address"
        }
      ],
      "stateMutability": "view",
      "type": "function"
    },
    {
      "inputs": [
        {
          "internalType": "uint256",
          "name": "_cardIdMax",
          "type": "uint256"
        }
      ],
      "name": "changeCardIdMax",
      "outputs": [],
      "stateMutability": "nonpayable",
      "type": "function"
    },
    {
      "inputs": [
        {
          "internalType": "uint256",
          "name": "id",
          "type": "uint256"
        }
      ],
      "name": "exists",
      "outputs": [
        {
          "internalType": "bool",
          "name": "",
          "type": "bool"
        }
      ],
      "stateMutability": "view",
      "type": "function"
    },
    {
      "inputs": [
        {
          "internalType": "address",
          "name": "_from",
          "type": "address"
        }
      ],
      "name": "getAllBalance",
      "outputs": [
        {
          "internalType": "uint256[]",
          "name": "",
          "type": "uint256[]"
        }
      ],
      "stateMutability": "view",
      "type": "function"
    },
    {
      "inputs": [
        {
          "internalType": "uint256",
          "name": "_id",
          "type": "uint256"
        },
        {
          "internalType": "address",
          "name": "_from",
          "type": "address"
        }
      ],
      "name": "getBalanceOf",
      "outputs": [
        {
          "internalType": "uint256",
          "name": "",
          "type": "uint256"
        }
      ],
      "stateMutability": "view",
      "type": "function"
    },
    {
      "inputs": [],
      "name": "getCardIdMax",
      "outputs": [
        {
          "internalType": "uint256",
          "name": "",
          "type": "uint256"
        }
      ],
      "stateMutability": "view",
      "type": "function"
    },
    {
      "inputs": [
        {
          "internalType": "address",
          "name": "account",
          "type": "address"
        },
        {
          "internalType": "address",
          "name": "operator",
          "type": "address"
        }
      ],
      "name": "isApprovedForAll",
      "outputs": [
        {
          "internalType": "bool",
          "name": "",
          "type": "bool"
        }
      ],
      "stateMutability": "view",
      "type": "function"
    },
    {
      "inputs": [
        {
          "internalType": "address",
          "name": "_account",
          "type": "address"
        },
        {
          "internalType": "uint256",
          "name": "_id",
          "type": "uint256"
        },
        {
          "internalType": "uint256",
          "name": "_amount",
          "type": "uint256"
        },
        {
          "internalType": "bytes",
          "name": "_data",
          "type": "bytes"
        }
      ],
      "name": "mint",
      "outputs": [],
      "stateMutability": "nonpayable",
      "type": "function"
    },
    {
      "inputs": [
        {
          "internalType": "address",
          "name": "_to",
          "type": "address"
        },
        {
          "internalType": "uint256[]",
          "name": "_ids",
          "type": "uint256[]"
        },
        {
          "internalType": "uint256[]",
          "name": "_amounts",
          "type": "uint256[]"
        },
        {
          "internalType": "bytes",
          "name": "_data",
          "type": "bytes"
        }
      ],
      "name": "mintBatch",
      "outputs": [],
      "stateMutability": "nonpayable",
      "type": "function"
    },
    {
      "inputs": [],
      "name": "nonce",
      "outputs": [
        {
          "internalType": "uint256",
          "name": "",
          "type": "uint256"
        }
      ],
      "stateMutability": "view",
      "type": "function"
    },
    {
      "inputs": [],
      "name": "openPack",
      "outputs": [],
      "stateMutability": "payable",
      "type": "function"
    },
    {
      "inputs": [],
      "name": "owner",
      "outputs": [
        {
          "internalType": "address",
          "name": "",
          "type": "address"
        }
      ],
      "stateMutability": "view",
      "type": "function"
    },
    {
      "inputs": [],
      "name": "renounceOwnership",
      "outputs": [],
      "stateMutability": "nonpayable",
      "type": "function"
    },
    {
      "inputs": [
        {
          "internalType": "address",
          "name": "from",
          "type": "address"
        },
        {
          "internalType": "address",
          "name": "to",
          "type": "address"
        },
        {
          "internalType": "uint256[]",
          "name": "ids",
          "type": "uint256[]"
        },
        {
          "internalType": "uint256[]",
          "name": "values",
          "type": "uint256[]"
        },
        {
          "internalType": "bytes",
          "name": "data",
          "type": "bytes"
        }
      ],
      "name": "safeBatchTransferFrom",
      "outputs": [],
      "stateMutability": "nonpayable",
      "type": "function"
    },
    {
      "inputs": [
        {
          "internalType": "address",
          "name": "from",
          "type": "address"
        },
        {
          "internalType": "address",
          "name": "to",
          "type": "address"
        },
        {
          "internalType": "uint256",
          "name": "id",
          "type": "uint256"
        },
        {
          "internalType": "uint256",
          "name": "value",
          "type": "uint256"
        },
        {
          "internalType": "bytes",
          "name": "data",
          "type": "bytes"
        }
      ],
      "name": "safeTransferFrom",
      "outputs": [],
      "stateMutability": "nonpayable",
      "type": "function"
    },
    {
      "inputs": [
        {
          "internalType": "address",
          "name": "operator",
          "type": "address"
        },
        {
          "internalType": "bool",
          "name": "approved",
          "type": "bool"
        }
      ],
      "name": "setApprovalForAll",
      "outputs": [],
      "stateMutability": "nonpayable",
      "type": "function"
    },
    {
      "inputs": [
        {
          "internalType": "string",
          "name": "_newuri",
          "type": "string"
        }
      ],
      "name": "setURI",
      "outputs": [],
      "stateMutability": "nonpayable",
      "type": "function"
    },
    {
      "inputs": [
        {
          "internalType": "bytes4",
          "name": "interfaceId",
          "type": "bytes4"
        }
      ],
      "name": "supportsInterface",
      "outputs": [
        {
          "internalType": "bool",
          "name": "",
          "type": "bool"
        }
      ],
      "stateMutability": "view",
      "type": "function"
    },
    {
      "inputs": [],
      "name": "totalSupply",
      "outputs": [
        {
          "internalType": "uint256",
          "name": "",
          "type": "uint256"
        }
      ],
      "stateMutability": "view",
      "type": "function"
    },
    {
      "inputs": [
        {
          "internalType": "uint256",
          "name": "id",
          "type": "uint256"
        }
      ],
      "name": "totalSupply",
      "outputs": [
        {
          "internalType": "uint256",
          "name": "",
          "type": "uint256"
        }
      ],
      "stateMutability": "view",
      "type": "function"
    },
    {
      "inputs": [
        {
          "internalType": "address",
          "name": "newOwner",
          "type": "address"
        }
      ],
      "name": "transferOwnership",
      "outputs": [],
      "stateMutability": "nonpayable",
      "type": "function"
    },
    {
      "inputs": [
        {
          "internalType": "uint256",
          "name": "",
          "type": "uint256"
        }
      ],
      "name": "uri",
      "outputs": [
        {
          "internalType": "string",
          "name": "",
          "type": "string"
        }
      ],
      "stateMutability": "view",
      "type": "function"
    }
  ],
  "bytecode": "0x6080604052600960065560006007553480156200001b57600080fd5b50336040518060600160405280602981526020016200235860299139620000428162000084565b506001600160a01b0381166200007257604051631e4fbdf760e01b81526000600482015260240160405180910390fd5b6200007d8162000096565b5062000259565b60026200009282826200018d565b5050565b600580546001600160a01b038381166001600160a01b0319831681179093556040519116919082907f8be0079c531659141344cd1fd0a4f28419497f9722a3daafe3b4186f6b6457e090600090a35050565b634e487b7160e01b600052604160045260246000fd5b600181811c908216806200011357607f821691505b6020821081036200013457634e487b7160e01b600052602260045260246000fd5b50919050565b601f8211156200018857600081815260208120601f850160051c81016020861015620001635750805b601f850160051c820191505b8181101562000184578281556001016200016f565b5050505b505050565b81516001600160401b03811115620001a957620001a9620000e8565b620001c181620001ba8454620000fe565b846200013a565b602080601f831160018114620001f95760008415620001e05750858301515b600019600386901b1c1916600185901b17855562000184565b600085815260208120601f198616915b828110156200022a5788860151825594840194600190910190840162000209565b5085821015620002495787850151600019600388901b60f8161c191681555b5050505050600190811b01905550565b6120ef80620002696000396000f3fe6080604052600436106101aa5760003560e01c8063715018a6116100ec578063bd85b0391161008a578063e999426711610064578063e9994267146104dc578063f242432a14610514578063f2fde38b14610534578063f5298aca1461055457600080fd5b8063bd85b03914610446578063bfa0af6d14610473578063e985e9c51461049357600080fd5b80638da7722a116100c65780638da7722a146103da5780639347fb3d146103f0578063a22cb46514610410578063affed0e01461043057600080fd5b8063715018a614610387578063731133e91461039c5780638da5cb5b146103bc57600080fd5b80631f7fdffa116101595780633c4ea385116101335780633c4ea3851461030e5780634673f332146103165780634e1273f41461032b5780634f558e791461035857600080fd5b80631f7fdffa146102965780632eb2c2d6146102b657806334303187146102d657600080fd5b806302fe53051161018a57806302fe5305146102345780630e89341c1461025457806318160ddd1461028157600080fd5b806266fd0d146101af578062fdd58e146101d157806301ffc9a714610204575b600080fd5b3480156101bb57600080fd5b506101cf6101ca366004611725565b610574565b005b3480156101dd57600080fd5b506101f16101ec366004611755565b6105b7565b6040519081526020015b60405180910390f35b34801561021057600080fd5b5061022461021f366004611795565b6105df565b60405190151581526020016101fb565b34801561024057600080fd5b506101cf61024f366004611851565b61067a565b34801561026057600080fd5b5061027461026f366004611725565b61068e565b6040516101fb91906118e8565b34801561028d57600080fd5b506004546101f1565b3480156102a257600080fd5b506101cf6102b13660046119aa565b610722565b3480156102c257600080fd5b506101cf6102d1366004611a43565b61073c565b3480156102e257600080fd5b506102f66102f1366004611aed565b6107c7565b6040516001600160a01b0390911681526020016101fb565b6101cf6107ff565b34801561032257600080fd5b506006546101f1565b34801561033757600080fd5b5061034b610346366004611b0f565b6108e3565b6040516101fb9190611c0a565b34801561036457600080fd5b50610224610373366004611725565b600090815260036020526040902054151590565b34801561039357600080fd5b506101cf6109b8565b3480156103a857600080fd5b506101cf6103b7366004611c1d565b6109cc565b3480156103c857600080fd5b506005546001600160a01b03166102f6565b3480156103e657600080fd5b506101f160065481565b3480156103fc57600080fd5b5061034b61040b366004611c72565b6109e0565b34801561041c57600080fd5b506101cf61042b366004611c8d565b610a95565b34801561043c57600080fd5b506101f160075481565b34801561045257600080fd5b506101f1610461366004611725565b60009081526003602052604090205490565b34801561047f57600080fd5b506101f161048e366004611cc9565b610aa4565b34801561049f57600080fd5b506102246104ae366004611cf5565b6001600160a01b03918216600090815260016020908152604080832093909416825291909152205460ff1690565b3480156104e857600080fd5b506101f16104f7366004611cc9565b600860209081526000928352604080842090915290825290205481565b34801561052057600080fd5b506101cf61052f366004611d1f565b610ab7565b34801561054057600080fd5b506101cf61054f366004611c72565b610b35565b34801561056057600080fd5b506101cf61056f366004611d84565b610b89565b61057c610b99565b60068190556040518181527f2ca7491c41b198f60823c9da02ca440dca6bfb5d6cd4ae0df705cc35de252fb39060200160405180910390a150565b6000818152602081815260408083206001600160a01b03861684529091529020545b92915050565b60006001600160e01b031982167fd9b67a2600000000000000000000000000000000000000000000000000000000148061064257506001600160e01b031982167f0e89341c00000000000000000000000000000000000000000000000000000000145b806105d957507f01ffc9a7000000000000000000000000000000000000000000000000000000006001600160e01b03198316146105d9565b610682610b99565b61068b81610bdf565b50565b60606002805461069d90611db7565b80601f01602080910402602001604051908101604052809291908181526020018280546106c990611db7565b80156107165780601f106106eb57610100808354040283529160200191610716565b820191906000526020600020905b8154815290600101906020018083116106f957829003601f168201915b50505050509050919050565b61072a610b99565b61073684848484610beb565b50505050565b336001600160a01b038616811480159061077c57506001600160a01b0380871660009081526001602090815260408083209385168352929052205460ff16155b156107b25760405163711bec9160e11b81526001600160a01b038083166004830152871660248201526044015b60405180910390fd5b6107bf8686868686610c23565b505050505050565b600960205281600052604060002081815481106107e357600080fd5b6000918252602090912001546001600160a01b03169150829050565b3464e8d4a5100014610893576040517f08c379a000000000000000000000000000000000000000000000000000000000815260206004820152602d60248201527f596f75206e65656420746f2070617920302e303030303031206574686572207460448201527f6f206f70656e2061207061636b0000000000000000000000000000000000000060648201526084016107a9565b600061089d610c83565b905060006108aa82610cd4565b905060006108b6610d19565b905060006108c382610d69565b905060006108d18483611e07565b90506108dc81610da6565b5050505050565b606081518351146109145781518351604051635b05999160e01b8152600481019290925260248201526044016107a9565b6000835167ffffffffffffffff811115610930576109306117b2565b604051908082528060200260200182016040528015610959578160200160208202803683370190505b50905060005b84518110156109b057602080820286010151610983906020808402870101516105b7565b82828151811061099557610995611e1a565b60209081029190910101526109a981611e30565b905061095f565b509392505050565b6109c0610b99565b6109ca6000610eac565b565b6109d4610b99565b61073684848484610f0b565b6060600060065467ffffffffffffffff8111156109ff576109ff6117b2565b604051908082528060200260200182016040528015610a28578160200160208202803683370190505b50905060015b6006548111610a8e576000610a4385836105b7565b1115610a7c57610a5384826105b7565b82610a5f600184611e49565b81518110610a6f57610a6f611e1a565b6020026020010181815250505b80610a8681611e30565b915050610a2e565b5092915050565b610aa0338383610f68565b5050565b6000610ab082846105b7565b9392505050565b336001600160a01b0386168114801590610af757506001600160a01b0380871660009081526001602090815260408083209385168352929052205460ff16155b15610b285760405163711bec9160e11b81526001600160a01b038083166004830152871660248201526044016107a9565b6107bf8686868686611018565b610b3d610b99565b6001600160a01b038116610b80576040517f1e4fbdf7000000000000000000000000000000000000000000000000000000008152600060048201526024016107a9565b61068b81610eac565b610b948383836110a6565b505050565b6005546001600160a01b031633146109ca576040517f118cdaa70000000000000000000000000000000000000000000000000000000081523360048201526024016107a9565b6002610aa08282611ea2565b6001600160a01b038416610c1557604051632bfa23e760e11b8152600060048201526024016107a9565b61073660008585858561110a565b6001600160a01b038416610c4d57604051632bfa23e760e11b8152600060048201526024016107a9565b6001600160a01b038516610c7657604051626a0d4560e21b8152600060048201526024016107a9565b6108dc858585858561110a565b604080514260208201526bffffffffffffffffffffffff193360601b169181019190915244605482015260009081906074015b60408051601f19818403018152919052805160209091012092915050565b60006014610ce3606484611f78565b1015610cf157506002919050565b6032610cfe606484611f78565b1015610d0c57506001919050565b506000919050565b919050565b6007805460009182610d2a83611e30565b9091555050600754604080514260208201526bffffffffffffffffffffffff193360601b16918101919091526054810191909152600090607401610cb6565b600060026003600654610d7c9190611f8c565b610d869084611f78565b610d91906001611e07565b610d9c906003611fa0565b6105d99190611e49565b610dc23382600160405180602001604052806000815250610f0b565b6000818152600860209081526040808320338452909152902054610de790600161115d565b60008281526008602090815260408083203384529091528120919091555b600082815260096020526040902054811015610e6e576000828152600960205260409020805433919083908110610e3e57610e3e611e1a565b6000918252602090912001546001600160a01b031603610e5c575050565b80610e6681611e30565b915050610e05565b50600090815260096020908152604082208054600181018255908352912001805473ffffffffffffffffffffffffffffffffffffffff191633179055565b600580546001600160a01b0383811673ffffffffffffffffffffffffffffffffffffffff19831681179093556040519116919082907f8be0079c531659141344cd1fd0a4f28419497f9722a3daafe3b4186f6b6457e090600090a35050565b6001600160a01b038416610f3557604051632bfa23e760e11b8152600060048201526024016107a9565b604080516001808252602082018690528183019081526060820185905260808201909252906107bf60008784848761110a565b6001600160a01b038216610fab576040517fced3e100000000000000000000000000000000000000000000000000000000008152600060048201526024016107a9565b6001600160a01b03838116600081815260016020908152604080832094871680845294825291829020805460ff191686151590811790915591519182527f17307eab39ab6107e8899845ad3d59bd9653f200f220920489ca2b5937696c31910160405180910390a3505050565b6001600160a01b03841661104257604051632bfa23e760e11b8152600060048201526024016107a9565b6001600160a01b03851661106b57604051626a0d4560e21b8152600060048201526024016107a9565b6040805160018082526020820186905281830190815260608201859052608082019092529061109d878784848761110a565b50505050505050565b6001600160a01b0383166110cf57604051626a0d4560e21b8152600060048201526024016107a9565b604080516001808252602082018590528183019081526060820184905260a082019092526000608082018181529192916108dc918791859085905b6111168585858561117c565b6001600160a01b038416156108dc578251339060010361114f5760208481015190840151611148838989858589611188565b50506107bf565b6107bf8187878787876112ac565b60008061116a8385611e07565b905083811015610ab057610ab0611fb7565b61073684848484611395565b6001600160a01b0384163b156107bf5760405163f23a6e6160e01b81526001600160a01b0385169063f23a6e61906111cc9089908990889088908890600401611fcd565b6020604051808303816000875af1925050508015611207575060408051601f3d908101601f1916820190925261120491810190612010565b60015b611270573d808015611235576040519150601f19603f3d011682016040523d82523d6000602084013e61123a565b606091505b50805160000361126857604051632bfa23e760e11b81526001600160a01b03861660048201526024016107a9565b805181602001fd5b6001600160e01b0319811663f23a6e6160e01b1461109d57604051632bfa23e760e11b81526001600160a01b03861660048201526024016107a9565b6001600160a01b0384163b156107bf5760405163bc197c8160e01b81526001600160a01b0385169063bc197c81906112f0908990899088908890889060040161202d565b6020604051808303816000875af192505050801561132b575060408051601f3d908101601f1916820190925261132891810190612010565b60015b611359573d808015611235576040519150601f19603f3d011682016040523d82523d6000602084013e61123a565b6001600160e01b0319811663bc197c8160e01b1461109d57604051632bfa23e760e11b81526001600160a01b03861660048201526024016107a9565b6113a1848484846114ef565b6001600160a01b038416611454576000805b835181101561143a5760008382815181106113d0576113d0611e1a565b6020026020010151905080600360008785815181106113f1576113f1611e1a565b6020026020010151815260200190815260200160002060008282546114169190611e07565b9091555061142690508184611e07565b9250508061143390611e30565b90506113b3565b50806004600082825461144d9190611e07565b9091555050505b6001600160a01b038316610736576000805b83518110156114de57600083828151811061148357611483611e1a565b6020026020010151905080600360008785815181106114a4576114a4611e1a565b6020026020010151815260200190815260200160002060008282540392505081905550808301925050806114d790611e30565b9050611466565b506004805491909103905550505050565b805182511461151e5781518151604051635b05999160e01b8152600481019290925260248201526044016107a9565b3360005b8351811015611646576020818102858101820151908501909101516001600160a01b038816156115ee576000828152602081815260408083206001600160a01b038c168452909152902054818110156115c7576040517f03dee4c50000000000000000000000000000000000000000000000000000000081526001600160a01b038a1660048201526024810182905260448101839052606481018490526084016107a9565b6000838152602081815260408083206001600160a01b038d16845290915290209082900390555b6001600160a01b03871615611633576000828152602081815260408083206001600160a01b038b1684529091528120805483929061162d908490611e07565b90915550505b50508061163f90611e30565b9050611522565b5082516001036116c75760208301516000906020840151909150856001600160a01b0316876001600160a01b0316846001600160a01b03167fc3d58168c5ae7397731d063d5bbf3d657854427343f4c083240f7aacaa2d0f6285856040516116b8929190918252602082015260400190565b60405180910390a450506108dc565b836001600160a01b0316856001600160a01b0316826001600160a01b03167f4a39dc06d4c0dbc64b70af90fd698a233a518aa5d07e595d983b8c0526c8f7fb868660405161171692919061208b565b60405180910390a45050505050565b60006020828403121561173757600080fd5b5035919050565b80356001600160a01b0381168114610d1457600080fd5b6000806040838503121561176857600080fd5b6117718361173e565b946020939093013593505050565b6001600160e01b03198116811461068b57600080fd5b6000602082840312156117a757600080fd5b8135610ab08161177f565b634e487b7160e01b600052604160045260246000fd5b604051601f8201601f1916810167ffffffffffffffff811182821017156117f1576117f16117b2565b604052919050565b600067ffffffffffffffff831115611813576118136117b2565b611826601f8401601f19166020016117c8565b905082815283838301111561183a57600080fd5b828260208301376000602084830101529392505050565b60006020828403121561186357600080fd5b813567ffffffffffffffff81111561187a57600080fd5b8201601f8101841361188b57600080fd5b61189a848235602084016117f9565b949350505050565b6000815180845260005b818110156118c8576020818501810151868301820152016118ac565b506000602082860101526020601f19601f83011685010191505092915050565b602081526000610ab060208301846118a2565b600067ffffffffffffffff821115611915576119156117b2565b5060051b60200190565b600082601f83011261193057600080fd5b81356020611945611940836118fb565b6117c8565b82815260059290921b8401810191818101908684111561196457600080fd5b8286015b8481101561197f5780358352918301918301611968565b509695505050505050565b600082601f83011261199b57600080fd5b610ab0838335602085016117f9565b600080600080608085870312156119c057600080fd5b6119c98561173e565b9350602085013567ffffffffffffffff808211156119e657600080fd5b6119f28883890161191f565b94506040870135915080821115611a0857600080fd5b611a148883890161191f565b93506060870135915080821115611a2a57600080fd5b50611a378782880161198a565b91505092959194509250565b600080600080600060a08688031215611a5b57600080fd5b611a648661173e565b9450611a726020870161173e565b9350604086013567ffffffffffffffff80821115611a8f57600080fd5b611a9b89838a0161191f565b94506060880135915080821115611ab157600080fd5b611abd89838a0161191f565b93506080880135915080821115611ad357600080fd5b50611ae08882890161198a565b9150509295509295909350565b60008060408385031215611b0057600080fd5b50508035926020909101359150565b60008060408385031215611b2257600080fd5b823567ffffffffffffffff80821115611b3a57600080fd5b818501915085601f830112611b4e57600080fd5b81356020611b5e611940836118fb565b82815260059290921b84018101918181019089841115611b7d57600080fd5b948201945b83861015611ba257611b938661173e565b82529482019490820190611b82565b96505086013592505080821115611bb857600080fd5b50611bc58582860161191f565b9150509250929050565b600081518084526020808501945080840160005b83811015611bff57815187529582019590820190600101611be3565b509495945050505050565b602081526000610ab06020830184611bcf565b60008060008060808587031215611c3357600080fd5b611c3c8561173e565b93506020850135925060408501359150606085013567ffffffffffffffff811115611c6657600080fd5b611a378782880161198a565b600060208284031215611c8457600080fd5b610ab08261173e565b60008060408385031215611ca057600080fd5b611ca98361173e565b915060208301358015158114611cbe57600080fd5b809150509250929050565b60008060408385031215611cdc57600080fd5b82359150611cec6020840161173e565b90509250929050565b60008060408385031215611d0857600080fd5b611d118361173e565b9150611cec6020840161173e565b600080600080600060a08688031215611d3757600080fd5b611d408661173e565b9450611d4e6020870161173e565b93506040860135925060608601359150608086013567ffffffffffffffff811115611d7857600080fd5b611ae08882890161198a565b600080600060608486031215611d9957600080fd5b611da28461173e565b95602085013595506040909401359392505050565b600181811c90821680611dcb57607f821691505b602082108103611deb57634e487b7160e01b600052602260045260246000fd5b50919050565b634e487b7160e01b600052601160045260246000fd5b808201808211156105d9576105d9611df1565b634e487b7160e01b600052603260045260246000fd5b600060018201611e4257611e42611df1565b5060010190565b818103818111156105d9576105d9611df1565b601f821115610b9457600081815260208120601f850160051c81016020861015611e835750805b601f850160051c820191505b818110156107bf57828155600101611e8f565b815167ffffffffffffffff811115611ebc57611ebc6117b2565b611ed081611eca8454611db7565b84611e5c565b602080601f831160018114611f055760008415611eed5750858301515b600019600386901b1c1916600185901b1785556107bf565b600085815260208120601f198616915b82811015611f3457888601518255948401946001909101908401611f15565b5085821015611f525787850151600019600388901b60f8161c191681555b5050505050600190811b01905550565b634e487b7160e01b600052601260045260246000fd5b600082611f8757611f87611f62565b500690565b600082611f9b57611f9b611f62565b500490565b80820281158282048414176105d9576105d9611df1565b634e487b7160e01b600052600160045260246000fd5b60006001600160a01b03808816835280871660208401525084604083015283606083015260a0608083015261200560a08301846118a2565b979650505050505050565b60006020828403121561202257600080fd5b8151610ab08161177f565b60006001600160a01b03808816835280871660208401525060a0604083015261205960a0830186611bcf565b828103606084015261206b8186611bcf565b9050828103608084015261207f81856118a2565b98975050505050505050565b60408152600061209e6040830185611bcf565b82810360208401526120b08185611bcf565b9594505050505056fea264697066735822122031999071ac288f3305e2cb20461af342945d8baeafef8d7d79556bbb9d518c1f64736f6c63430008140033687474703a2f2f35312e33382e3139302e3133343a313135352f63617264732f7b69647d2e6a736f6e",
  "linkReferences": {},
  "deployedLinkReferences": {}
}