{
  "_format": "hh-sol-artifact-1",
  "contractName": "Battle",
  "sourceName": "contracts/battle.sol",
  "abi": [
    {
      "inputs": [
        {
          "internalType": "address",
          "name": "sender",
          "type": "address"
        },
        {
          "internalType": "uint256",
          "name": "balance",
          "type": "uint256"
        },
        {
          "internalType": "uint256",
          "name": "needed",
          "type": "uint256"
        },
        {
          "internalType": "uint256",
          "name": "tokenId",
          "type": "uint256"
        }
      ],
      "name": "ERC1155InsufficientBalance",
      "type": "error"
    },
    {
      "inputs": [
        {
          "internalType": "address",
          "name": "approver",
          "type": "address"
        }
      ],
      "name": "ERC1155InvalidApprover",
      "type": "error"
    },
    {
      "inputs": [
        {
          "internalType": "uint256",
          "name": "idsLength",
          "type": "uint256"
        },
        {
          "internalType": "uint256",
          "name": "valuesLength",
          "type": "uint256"
        }
      ],
      "name": "ERC1155InvalidArrayLength",
      "type": "error"
    },
    {
      "inputs": [
        {
          "internalType": "address",
          "name": "operator",
          "type": "address"
        }
      ],
      "name": "ERC1155InvalidOperator",
      "type": "error"
    },
    {
      "inputs": [
        {
          "internalType": "address",
          "name": "receiver",
          "type": "address"
        }
      ],
      "name": "ERC1155InvalidReceiver",
      "type": "error"
    },
    {
      "inputs": [
        {
          "internalType": "address",
          "name": "sender",
          "type": "address"
        }
      ],
      "name": "ERC1155InvalidSender",
      "type": "error"
    },
    {
      "inputs": [
        {
          "internalType": "address",
          "name": "operator",
          "type": "address"
        },
        {
          "internalType": "address",
          "name": "owner",
          "type": "address"
        }
      ],
      "name": "ERC1155MissingApprovalForAll",
      "type": "error"
    },
    {
      "inputs": [
        {
          "internalType": "address",
          "name": "owner",
          "type": "address"
        }
      ],
      "name": "OwnableInvalidOwner",
      "type": "error"
    },
    {
      "inputs": [
        {
          "internalType": "address",
          "name": "account",
          "type": "address"
        }
      ],
      "name": "OwnableUnauthorizedAccount",
      "type": "error"
    },
    {
      "anonymous": false,
      "inputs": [
        {
          "indexed": true,
          "internalType": "address",
          "name": "account",
          "type": "address"
        },
        {
          "indexed": true,
          "internalType": "address",
          "name": "operator",
          "type": "address"
        },
        {
          "indexed": false,
          "internalType": "bool",
          "name": "approved",
          "type": "bool"
        }
      ],
      "name": "ApprovalForAll",
      "type": "event"
    },
    {
      "anonymous": false,
      "inputs": [
        {
          "indexed": false,
          "internalType": "uint256",
          "name": "newCardIdMax",
          "type": "uint256"
        }
      ],
      "name": "CardIdMaxChanged",
      "type": "event"
    },
    {
      "anonymous": false,
      "inputs": [
        {
          "indexed": true,
          "internalType": "address",
          "name": "previousOwner",
          "type": "address"
        },
        {
          "indexed": true,
          "internalType": "address",
          "name": "newOwner",
          "type": "address"
        }
      ],
      "name": "OwnershipTransferred",
      "type": "event"
    },
    {
      "anonymous": false,
      "inputs": [
        {
          "indexed": true,
          "internalType": "address",
          "name": "operator",
          "type": "address"
        },
        {
          "indexed": true,
          "internalType": "address",
          "name": "from",
          "type": "address"
        },
        {
          "indexed": true,
          "internalType": "address",
          "name": "to",
          "type": "address"
        },
        {
          "indexed": false,
          "internalType": "uint256[]",
          "name": "ids",
          "type": "uint256[]"
        },
        {
          "indexed": false,
          "internalType": "uint256[]",
          "name": "values",
          "type": "uint256[]"
        }
      ],
      "name": "TransferBatch",
      "type": "event"
    },
    {
      "anonymous": false,
      "inputs": [
        {
          "indexed": true,
          "internalType": "address",
          "name": "operator",
          "type": "address"
        },
        {
          "indexed": true,
          "internalType": "address",
          "name": "from",
          "type": "address"
        },
        {
          "indexed": true,
          "internalType": "address",
          "name": "to",
          "type": "address"
        },
        {
          "indexed": false,
          "internalType": "uint256",
          "name": "id",
          "type": "uint256"
        },
        {
          "indexed": false,
          "internalType": "uint256",
          "name": "value",
          "type": "uint256"
        }
      ],
      "name": "TransferSingle",
      "type": "event"
    },
    {
      "anonymous": false,
      "inputs": [
        {
          "indexed": false,
          "internalType": "string",
          "name": "value",
          "type": "string"
        },
        {
          "indexed": true,
          "internalType": "uint256",
          "name": "id",
          "type": "uint256"
        }
      ],
      "name": "URI",
      "type": "event"
    },
    {
      "inputs": [
        {
          "internalType": "address",
          "name": "",
          "type": "address"
        },
        {
          "internalType": "uint256",
          "name": "",
          "type": "uint256"
        }
      ],
      "name": "addressToCardInBattle",
      "outputs": [
        {
          "internalType": "uint256",
          "name": "",
          "type": "uint256"
        }
      ],
      "stateMutability": "view",
      "type": "function"
    },
    {
      "inputs": [
        {
          "internalType": "address",
          "name": "account",
          "type": "address"
        },
        {
          "internalType": "uint256",
          "name": "id",
          "type": "uint256"
        }
      ],
      "name": "balanceOf",
      "outputs": [
        {
          "internalType": "uint256",
          "name": "",
          "type": "uint256"
        }
      ],
      "stateMutability": "view",
      "type": "function"
    },
    {
      "inputs": [
        {
          "internalType": "address[]",
          "name": "accounts",
          "type": "address[]"
        },
        {
          "internalType": "uint256[]",
          "name": "ids",
          "type": "uint256[]"
        }
      ],
      "name": "balanceOfBatch",
      "outputs": [
        {
          "internalType": "uint256[]",
          "name": "",
          "type": "uint256[]"
        }
      ],
      "stateMutability": "view",
      "type": "function"
    },
    {
      "inputs": [
        {
          "internalType": "uint256",
          "name": "",
          "type": "uint256"
        }
      ],
      "name": "battles",
      "outputs": [
        {
          "internalType": "uint256",
          "name": "battleId",
          "type": "uint256"
        },
        {
          "internalType": "address",
          "name": "player1",
          "type": "address"
        },
        {
          "internalType": "address",
          "name": "player2",
          "type": "address"
        },
        {
          "internalType": "uint256",
          "name": "cardIdPlayer1",
          "type": "uint256"
        },
        {
          "internalType": "uint256",
          "name": "cardIdPlayer2",
          "type": "uint256"
        },
        {
          "internalType": "uint256",
          "name": "amountPlayer1",
          "type": "uint256"
        },
        {
          "internalType": "uint256",
          "name": "amountPlayer2",
          "type": "uint256"
        },
        {
          "internalType": "address",
          "name": "winner",
          "type": "address"
        },
        {
          "internalType": "address",
          "name": "loser",
          "type": "address"
        },
        {
          "internalType": "bool",
          "name": "draw",
          "type": "bool"
        },
        {
          "internalType": "string",
          "name": "status",
          "type": "string"
        }
      ],
      "stateMutability": "view",
      "type": "function"
    },
    {
      "inputs": [
        {
          "internalType": "address",
          "name": "_from",
          "type": "address"
        },
        {
          "internalType": "uint256",
          "name": "_id",
          "type": "uint256"
        },
        {
          "internalType": "uint256",
          "name": "_value",
          "type": "uint256"
        }
      ],
      "name": "burn",
      "outputs": [],
      "stateMutability": "nonpayable",
      "type": "function"
    },
    {
      "inputs": [],
      "name": "cardIdMax",
      "outputs": [
        {
          "internalType": "uint256",
          "name": "",
          "type": "uint256"
        }
      ],
      "stateMutability": "view",
      "type": "function"
    },
    {
      "inputs": [
        {
          "internalType": "uint256",
          "name": "",
          "type": "uint256"
        },
        {
          "internalType": "address",
          "name": "",
          "type": "address"
        }
      ],
      "name": "cardIdToOwnerToAmount",
      "outputs": [
        {
          "internalType": "uint256",
          "name": "",
          "type": "uint256"
        }
      ],
      "stateMutability": "view",
      "type": "function"
    },
    {
      "inputs": [
        {
          "internalType": "uint256",
          "name": "",
          "type": "uint256"
        },
        {
          "internalType": "uint256",
          "name": "",
          "type": "uint256"
        }
      ],
      "name": "cardIdToOwners",
      "outputs": [
        {
          "internalType": "address",
          "name": "",
          "type": "address"
        }
      ],
      "stateMutability": "view",
      "type": "function"
    },
    {
      "inputs": [
        {
          "internalType": "uint256",
          "name": "_cardIdMax",
          "type": "uint256"
        }
      ],
      "name": "changeCardIdMax",
      "outputs": [],
      "stateMutability": "nonpayable",
      "type": "function"
    },
    {
      "inputs": [
        {
          "internalType": "uint256",
          "name": "id",
          "type": "uint256"
        }
      ],
      "name": "exists",
      "outputs": [
        {
          "internalType": "bool",
          "name": "",
          "type": "bool"
        }
      ],
      "stateMutability": "view",
      "type": "function"
    },
    {
      "inputs": [
        {
          "internalType": "address",
          "name": "_from",
          "type": "address"
        }
      ],
      "name": "getAllBalance",
      "outputs": [
        {
          "internalType": "uint256[]",
          "name": "",
          "type": "uint256[]"
        }
      ],
      "stateMutability": "view",
      "type": "function"
    },
    {
      "inputs": [
        {
          "internalType": "uint256",
          "name": "_id",
          "type": "uint256"
        },
        {
          "internalType": "address",
          "name": "_from",
          "type": "address"
        }
      ],
      "name": "getBalanceOf",
      "outputs": [
        {
          "internalType": "uint256",
          "name": "",
          "type": "uint256"
        }
      ],
      "stateMutability": "view",
      "type": "function"
    },
    {
      "inputs": [],
      "name": "getCardIdMax",
      "outputs": [
        {
          "internalType": "uint256",
          "name": "",
          "type": "uint256"
        }
      ],
      "stateMutability": "view",
      "type": "function"
    },
    {
      "inputs": [
        {
          "internalType": "address",
          "name": "account",
          "type": "address"
        },
        {
          "internalType": "address",
          "name": "operator",
          "type": "address"
        }
      ],
      "name": "isApprovedForAll",
      "outputs": [
        {
          "internalType": "bool",
          "name": "",
          "type": "bool"
        }
      ],
      "stateMutability": "view",
      "type": "function"
    },
    {
      "inputs": [
        {
          "internalType": "address",
          "name": "_account",
          "type": "address"
        },
        {
          "internalType": "uint256",
          "name": "_id",
          "type": "uint256"
        },
        {
          "internalType": "uint256",
          "name": "_amount",
          "type": "uint256"
        },
        {
          "internalType": "bytes",
          "name": "_data",
          "type": "bytes"
        }
      ],
      "name": "mint",
      "outputs": [],
      "stateMutability": "nonpayable",
      "type": "function"
    },
    {
      "inputs": [
        {
          "internalType": "address",
          "name": "_to",
          "type": "address"
        },
        {
          "internalType": "uint256[]",
          "name": "_ids",
          "type": "uint256[]"
        },
        {
          "internalType": "uint256[]",
          "name": "_amounts",
          "type": "uint256[]"
        },
        {
          "internalType": "bytes",
          "name": "_data",
          "type": "bytes"
        }
      ],
      "name": "mintBatch",
      "outputs": [],
      "stateMutability": "nonpayable",
      "type": "function"
    },
    {
      "inputs": [],
      "name": "nonce",
      "outputs": [
        {
          "internalType": "uint256",
          "name": "",
          "type": "uint256"
        }
      ],
      "stateMutability": "view",
      "type": "function"
    },
    {
      "inputs": [],
      "name": "openPack",
      "outputs": [],
      "stateMutability": "payable",
      "type": "function"
    },
    {
      "inputs": [],
      "name": "owner",
      "outputs": [
        {
          "internalType": "address",
          "name": "",
          "type": "address"
        }
      ],
      "stateMutability": "view",
      "type": "function"
    },
    {
      "inputs": [],
      "name": "renounceOwnership",
      "outputs": [],
      "stateMutability": "nonpayable",
      "type": "function"
    },
    {
      "inputs": [
        {
          "internalType": "address",
          "name": "from",
          "type": "address"
        },
        {
          "internalType": "address",
          "name": "to",
          "type": "address"
        },
        {
          "internalType": "uint256[]",
          "name": "ids",
          "type": "uint256[]"
        },
        {
          "internalType": "uint256[]",
          "name": "values",
          "type": "uint256[]"
        },
        {
          "internalType": "bytes",
          "name": "data",
          "type": "bytes"
        }
      ],
      "name": "safeBatchTransferFrom",
      "outputs": [],
      "stateMutability": "nonpayable",
      "type": "function"
    },
    {
      "inputs": [
        {
          "internalType": "address",
          "name": "from",
          "type": "address"
        },
        {
          "internalType": "address",
          "name": "to",
          "type": "address"
        },
        {
          "internalType": "uint256",
          "name": "id",
          "type": "uint256"
        },
        {
          "internalType": "uint256",
          "name": "value",
          "type": "uint256"
        },
        {
          "internalType": "bytes",
          "name": "data",
          "type": "bytes"
        }
      ],
      "name": "safeTransferFrom",
      "outputs": [],
      "stateMutability": "nonpayable",
      "type": "function"
    },
    {
      "inputs": [
        {
          "internalType": "address",
          "name": "operator",
          "type": "address"
        },
        {
          "internalType": "bool",
          "name": "approved",
          "type": "bool"
        }
      ],
      "name": "setApprovalForAll",
      "outputs": [],
      "stateMutability": "nonpayable",
      "type": "function"
    },
    {
      "inputs": [
        {
          "internalType": "string",
          "name": "_newuri",
          "type": "string"
        }
      ],
      "name": "setURI",
      "outputs": [],
      "stateMutability": "nonpayable",
      "type": "function"
    },
    {
      "inputs": [
        {
          "internalType": "bytes4",
          "name": "interfaceId",
          "type": "bytes4"
        }
      ],
      "name": "supportsInterface",
      "outputs": [
        {
          "internalType": "bool",
          "name": "",
          "type": "bool"
        }
      ],
      "stateMutability": "view",
      "type": "function"
    },
    {
      "inputs": [],
      "name": "totalSupply",
      "outputs": [
        {
          "internalType": "uint256",
          "name": "",
          "type": "uint256"
        }
      ],
      "stateMutability": "view",
      "type": "function"
    },
    {
      "inputs": [
        {
          "internalType": "uint256",
          "name": "id",
          "type": "uint256"
        }
      ],
      "name": "totalSupply",
      "outputs": [
        {
          "internalType": "uint256",
          "name": "",
          "type": "uint256"
        }
      ],
      "stateMutability": "view",
      "type": "function"
    },
    {
      "inputs": [
        {
          "internalType": "address",
          "name": "newOwner",
          "type": "address"
        }
      ],
      "name": "transferOwnership",
      "outputs": [],
      "stateMutability": "nonpayable",
      "type": "function"
    },
    {
      "inputs": [
        {
          "internalType": "uint256",
          "name": "",
          "type": "uint256"
        }
      ],
      "name": "uri",
      "outputs": [
        {
          "internalType": "string",
          "name": "",
          "type": "string"
        }
      ],
      "stateMutability": "view",
      "type": "function"
    }
  ],
  "bytecode": "0x6080604052600960065560006007553480156200001b57600080fd5b50336040518060600160405280602981526020016200257260299139620000428162000084565b506001600160a01b0381166200007257604051631e4fbdf760e01b81526000600482015260240160405180910390fd5b6200007d8162000096565b5062000259565b60026200009282826200018d565b5050565b600580546001600160a01b038381166001600160a01b0319831681179093556040519116919082907f8be0079c531659141344cd1fd0a4f28419497f9722a3daafe3b4186f6b6457e090600090a35050565b634e487b7160e01b600052604160045260246000fd5b600181811c908216806200011357607f821691505b6020821081036200013457634e487b7160e01b600052602260045260246000fd5b50919050565b601f8211156200018857600081815260208120601f850160051c81016020861015620001635750805b601f850160051c820191505b8181101562000184578281556001016200016f565b5050505b505050565b81516001600160401b03811115620001a957620001a9620000e8565b620001c181620001ba8454620000fe565b846200013a565b602080601f831160018114620001f95760008415620001e05750858301515b600019600386901b1c1916600185901b17855562000184565b600085815260208120601f198616915b828110156200022a5788860151825594840194600190910190840162000209565b5085821015620002495787850151600019600388901b60f8161c191681555b5050505050600190811b01905550565b61230980620002696000396000f3fe6080604052600436106101c05760003560e01c8063715018a6116100f7578063bd85b03911610095578063efefb0dd11610064578063efefb0dd14610561578063f242432a14610599578063f2fde38b146105b9578063f5298aca146105d957600080fd5b8063bd85b03914610493578063bfa0af6d146104c0578063e985e9c5146104e0578063e99942671461052957600080fd5b80638da7722a116100d15780638da7722a146104275780639347fb3d1461043d578063a22cb4651461045d578063affed0e01461047d57600080fd5b8063715018a6146103d4578063731133e9146103e95780638da5cb5b1461040957600080fd5b80632eb2c2d6116101645780634673f3321161013e5780634673f3321461032c5780634e1273f4146103415780634f558e791461036e578063606d2e961461039d57600080fd5b80632eb2c2d6146102cc57806334303187146102ec5780633c4ea3851461032457600080fd5b806302fe5305116101a057806302fe53051461024a5780630e89341c1461026a57806318160ddd146102975780631f7fdffa146102ac57600080fd5b806266fd0d146101c5578062fdd58e146101e757806301ffc9a71461021a575b600080fd5b3480156101d157600080fd5b506101e56101e03660046118c7565b6105f9565b005b3480156101f357600080fd5b506102076102023660046118f7565b61063c565b6040519081526020015b60405180910390f35b34801561022657600080fd5b5061023a610235366004611937565b610664565b6040519015158152602001610211565b34801561025657600080fd5b506101e56102653660046119f3565b6106ff565b34801561027657600080fd5b5061028a6102853660046118c7565b610713565b6040516102119190611a8a565b3480156102a357600080fd5b50600454610207565b3480156102b857600080fd5b506101e56102c7366004611b4c565b6107a7565b3480156102d857600080fd5b506101e56102e7366004611be5565b6107c1565b3480156102f857600080fd5b5061030c610307366004611c8f565b61084c565b6040516001600160a01b039091168152602001610211565b6101e5610884565b34801561033857600080fd5b50600654610207565b34801561034d57600080fd5b5061036161035c366004611cb1565b610968565b6040516102119190611dac565b34801561037a57600080fd5b5061023a6103893660046118c7565b600090815260036020526040902054151590565b3480156103a957600080fd5b506103bd6103b83660046118c7565b610a3d565b6040516102119b9a99989796959493929190611dbf565b3480156103e057600080fd5b506101e5610b5a565b3480156103f557600080fd5b506101e5610404366004611e37565b610b6e565b34801561041557600080fd5b506005546001600160a01b031661030c565b34801561043357600080fd5b5061020760065481565b34801561044957600080fd5b50610361610458366004611e8c565b610b82565b34801561046957600080fd5b506101e5610478366004611ea7565b610c37565b34801561048957600080fd5b5061020760075481565b34801561049f57600080fd5b506102076104ae3660046118c7565b60009081526003602052604090205490565b3480156104cc57600080fd5b506102076104db366004611ee3565b610c46565b3480156104ec57600080fd5b5061023a6104fb366004611f0f565b6001600160a01b03918216600090815260016020908152604080832093909416825291909152205460ff1690565b34801561053557600080fd5b50610207610544366004611ee3565b600860209081526000928352604080842090915290825290205481565b34801561056d57600080fd5b5061020761057c3660046118f7565b600a60209081526000928352604080842090915290825290205481565b3480156105a557600080fd5b506101e56105b4366004611f39565b610c59565b3480156105c557600080fd5b506101e56105d4366004611e8c565b610cd7565b3480156105e557600080fd5b506101e56105f4366004611f9e565b610d2b565b610601610d3b565b60068190556040518181527f2ca7491c41b198f60823c9da02ca440dca6bfb5d6cd4ae0df705cc35de252fb39060200160405180910390a150565b6000818152602081815260408083206001600160a01b03861684529091529020545b92915050565b60006001600160e01b031982167fd9b67a260000000000000000000000000000000000000000000000000000000014806106c757506001600160e01b031982167f0e89341c00000000000000000000000000000000000000000000000000000000145b8061065e57507f01ffc9a7000000000000000000000000000000000000000000000000000000006001600160e01b031983161461065e565b610707610d3b565b61071081610d81565b50565b60606002805461072290611fd1565b80601f016020809104026020016040519081016040528092919081815260200182805461074e90611fd1565b801561079b5780601f106107705761010080835404028352916020019161079b565b820191906000526020600020905b81548152906001019060200180831161077e57829003601f168201915b50505050509050919050565b6107af610d3b565b6107bb84848484610d8d565b50505050565b336001600160a01b038616811480159061080157506001600160a01b0380871660009081526001602090815260408083209385168352929052205460ff16155b156108375760405163711bec9160e11b81526001600160a01b038083166004830152871660248201526044015b60405180910390fd5b6108448686868686610dc5565b505050505050565b6009602052816000526040600020818154811061086857600080fd5b6000918252602090912001546001600160a01b03169150829050565b3464e8d4a5100014610918576040517f08c379a000000000000000000000000000000000000000000000000000000000815260206004820152602d60248201527f596f75206e65656420746f2070617920302e303030303031206574686572207460448201527f6f206f70656e2061207061636b00000000000000000000000000000000000000606482015260840161082e565b6000610922610e25565b9050600061092f82610e76565b9050600061093b610ebb565b9050600061094882610f0b565b905060006109568483612021565b905061096181610f48565b5050505050565b606081518351146109995781518351604051635b05999160e01b81526004810192909252602482015260440161082e565b6000835167ffffffffffffffff8111156109b5576109b5611954565b6040519080825280602002602001820160405280156109de578160200160208202803683370190505b50905060005b8451811015610a3557602080820286010151610a089060208084028701015161063c565b828281518110610a1a57610a1a612034565b6020908102919091010152610a2e8161204a565b90506109e4565b509392505050565b600b8181548110610a4d57600080fd5b60009182526020909120600c9091020180546001820154600283015460038401546004850154600586015460068701546009880154600a890154600b8a018054999b506001600160a01b039889169a97891699969895979496939592831694928216937401000000000000000000000000000000000000000090920460ff169291610ad790611fd1565b80601f0160208091040260200160405190810160405280929190818152602001828054610b0390611fd1565b8015610b505780601f10610b2557610100808354040283529160200191610b50565b820191906000526020600020905b815481529060010190602001808311610b3357829003601f168201915b505050505090508b565b610b62610d3b565b610b6c600061104e565b565b610b76610d3b565b6107bb848484846110ad565b6060600060065467ffffffffffffffff811115610ba157610ba1611954565b604051908082528060200260200182016040528015610bca578160200160208202803683370190505b50905060015b6006548111610c30576000610be5858361063c565b1115610c1e57610bf5848261063c565b82610c01600184612063565b81518110610c1157610c11612034565b6020026020010181815250505b80610c288161204a565b915050610bd0565b5092915050565b610c4233838361110a565b5050565b6000610c52828461063c565b9392505050565b336001600160a01b0386168114801590610c9957506001600160a01b0380871660009081526001602090815260408083209385168352929052205460ff16155b15610cca5760405163711bec9160e11b81526001600160a01b0380831660048301528716602482015260440161082e565b61084486868686866111ba565b610cdf610d3b565b6001600160a01b038116610d22576040517f1e4fbdf70000000000000000000000000000000000000000000000000000000081526000600482015260240161082e565b6107108161104e565b610d36838383611248565b505050565b6005546001600160a01b03163314610b6c576040517f118cdaa700000000000000000000000000000000000000000000000000000000815233600482015260240161082e565b6002610c4282826120bc565b6001600160a01b038416610db757604051632bfa23e760e11b81526000600482015260240161082e565b6107bb6000858585856112ac565b6001600160a01b038416610def57604051632bfa23e760e11b81526000600482015260240161082e565b6001600160a01b038516610e1857604051626a0d4560e21b81526000600482015260240161082e565b61096185858585856112ac565b604080514260208201526bffffffffffffffffffffffff193360601b169181019190915244605482015260009081906074015b60408051601f19818403018152919052805160209091012092915050565b60006014610e85606484612192565b1015610e9357506002919050565b6032610ea0606484612192565b1015610eae57506001919050565b506000919050565b919050565b6007805460009182610ecc8361204a565b9091555050600754604080514260208201526bffffffffffffffffffffffff193360601b16918101919091526054810191909152600090607401610e58565b600060026003600654610f1e91906121a6565b610f289084612192565b610f33906001612021565b610f3e9060036121ba565b61065e9190612063565b610f6433826001604051806020016040528060008152506110ad565b6000818152600860209081526040808320338452909152902054610f899060016112ff565b60008281526008602090815260408083203384529091528120919091555b600082815260096020526040902054811015611010576000828152600960205260409020805433919083908110610fe057610fe0612034565b6000918252602090912001546001600160a01b031603610ffe575050565b806110088161204a565b915050610fa7565b50600090815260096020908152604082208054600181018255908352912001805473ffffffffffffffffffffffffffffffffffffffff191633179055565b600580546001600160a01b0383811673ffffffffffffffffffffffffffffffffffffffff19831681179093556040519116919082907f8be0079c531659141344cd1fd0a4f28419497f9722a3daafe3b4186f6b6457e090600090a35050565b6001600160a01b0384166110d757604051632bfa23e760e11b81526000600482015260240161082e565b604080516001808252602082018690528183019081526060820185905260808201909252906108446000878484876112ac565b6001600160a01b03821661114d576040517fced3e1000000000000000000000000000000000000000000000000000000000081526000600482015260240161082e565b6001600160a01b03838116600081815260016020908152604080832094871680845294825291829020805460ff191686151590811790915591519182527f17307eab39ab6107e8899845ad3d59bd9653f200f220920489ca2b5937696c31910160405180910390a3505050565b6001600160a01b0384166111e457604051632bfa23e760e11b81526000600482015260240161082e565b6001600160a01b03851661120d57604051626a0d4560e21b81526000600482015260240161082e565b6040805160018082526020820186905281830190815260608201859052608082019092529061123f87878484876112ac565b50505050505050565b6001600160a01b03831661127157604051626a0d4560e21b81526000600482015260240161082e565b604080516001808252602082018590528183019081526060820184905260a08201909252600060808201818152919291610961918791859085905b6112b88585858561131e565b6001600160a01b0384161561096157825133906001036112f157602084810151908401516112ea83898985858961132a565b5050610844565b61084481878787878761144e565b60008061130c8385612021565b905083811015610c5257610c526121d1565b6107bb84848484611537565b6001600160a01b0384163b156108445760405163f23a6e6160e01b81526001600160a01b0385169063f23a6e619061136e90899089908890889088906004016121e7565b6020604051808303816000875af19250505080156113a9575060408051601f3d908101601f191682019092526113a69181019061222a565b60015b611412573d8080156113d7576040519150601f19603f3d011682016040523d82523d6000602084013e6113dc565b606091505b50805160000361140a57604051632bfa23e760e11b81526001600160a01b038616600482015260240161082e565b805181602001fd5b6001600160e01b0319811663f23a6e6160e01b1461123f57604051632bfa23e760e11b81526001600160a01b038616600482015260240161082e565b6001600160a01b0384163b156108445760405163bc197c8160e01b81526001600160a01b0385169063bc197c81906114929089908990889088908890600401612247565b6020604051808303816000875af19250505080156114cd575060408051601f3d908101601f191682019092526114ca9181019061222a565b60015b6114fb573d8080156113d7576040519150601f19603f3d011682016040523d82523d6000602084013e6113dc565b6001600160e01b0319811663bc197c8160e01b1461123f57604051632bfa23e760e11b81526001600160a01b038616600482015260240161082e565b61154384848484611691565b6001600160a01b0384166115f6576000805b83518110156115dc57600083828151811061157257611572612034565b60200260200101519050806003600087858151811061159357611593612034565b6020026020010151815260200190815260200160002060008282546115b89190612021565b909155506115c890508184612021565b925050806115d59061204a565b9050611555565b5080600460008282546115ef9190612021565b9091555050505b6001600160a01b0383166107bb576000805b835181101561168057600083828151811061162557611625612034565b60200260200101519050806003600087858151811061164657611646612034565b6020026020010151815260200190815260200160002060008282540392505081905550808301925050806116799061204a565b9050611608565b506004805491909103905550505050565b80518251146116c05781518151604051635b05999160e01b81526004810192909252602482015260440161082e565b3360005b83518110156117e8576020818102858101820151908501909101516001600160a01b03881615611790576000828152602081815260408083206001600160a01b038c16845290915290205481811015611769576040517f03dee4c50000000000000000000000000000000000000000000000000000000081526001600160a01b038a16600482015260248101829052604481018390526064810184905260840161082e565b6000838152602081815260408083206001600160a01b038d16845290915290209082900390555b6001600160a01b038716156117d5576000828152602081815260408083206001600160a01b038b168452909152812080548392906117cf908490612021565b90915550505b5050806117e19061204a565b90506116c4565b5082516001036118695760208301516000906020840151909150856001600160a01b0316876001600160a01b0316846001600160a01b03167fc3d58168c5ae7397731d063d5bbf3d657854427343f4c083240f7aacaa2d0f62858560405161185a929190918252602082015260400190565b60405180910390a45050610961565b836001600160a01b0316856001600160a01b0316826001600160a01b03167f4a39dc06d4c0dbc64b70af90fd698a233a518aa5d07e595d983b8c0526c8f7fb86866040516118b89291906122a5565b60405180910390a45050505050565b6000602082840312156118d957600080fd5b5035919050565b80356001600160a01b0381168114610eb657600080fd5b6000806040838503121561190a57600080fd5b611913836118e0565b946020939093013593505050565b6001600160e01b03198116811461071057600080fd5b60006020828403121561194957600080fd5b8135610c5281611921565b634e487b7160e01b600052604160045260246000fd5b604051601f8201601f1916810167ffffffffffffffff8111828210171561199357611993611954565b604052919050565b600067ffffffffffffffff8311156119b5576119b5611954565b6119c8601f8401601f191660200161196a565b90508281528383830111156119dc57600080fd5b828260208301376000602084830101529392505050565b600060208284031215611a0557600080fd5b813567ffffffffffffffff811115611a1c57600080fd5b8201601f81018413611a2d57600080fd5b611a3c8482356020840161199b565b949350505050565b6000815180845260005b81811015611a6a57602081850181015186830182015201611a4e565b506000602082860101526020601f19601f83011685010191505092915050565b602081526000610c526020830184611a44565b600067ffffffffffffffff821115611ab757611ab7611954565b5060051b60200190565b600082601f830112611ad257600080fd5b81356020611ae7611ae283611a9d565b61196a565b82815260059290921b84018101918181019086841115611b0657600080fd5b8286015b84811015611b215780358352918301918301611b0a565b509695505050505050565b600082601f830112611b3d57600080fd5b610c528383356020850161199b565b60008060008060808587031215611b6257600080fd5b611b6b856118e0565b9350602085013567ffffffffffffffff80821115611b8857600080fd5b611b9488838901611ac1565b94506040870135915080821115611baa57600080fd5b611bb688838901611ac1565b93506060870135915080821115611bcc57600080fd5b50611bd987828801611b2c565b91505092959194509250565b600080600080600060a08688031215611bfd57600080fd5b611c06866118e0565b9450611c14602087016118e0565b9350604086013567ffffffffffffffff80821115611c3157600080fd5b611c3d89838a01611ac1565b94506060880135915080821115611c5357600080fd5b611c5f89838a01611ac1565b93506080880135915080821115611c7557600080fd5b50611c8288828901611b2c565b9150509295509295909350565b60008060408385031215611ca257600080fd5b50508035926020909101359150565b60008060408385031215611cc457600080fd5b823567ffffffffffffffff80821115611cdc57600080fd5b818501915085601f830112611cf057600080fd5b81356020611d00611ae283611a9d565b82815260059290921b84018101918181019089841115611d1f57600080fd5b948201945b83861015611d4457611d35866118e0565b82529482019490820190611d24565b96505086013592505080821115611d5a57600080fd5b50611d6785828601611ac1565b9150509250929050565b600081518084526020808501945080840160005b83811015611da157815187529582019590820190600101611d85565b509495945050505050565b602081526000610c526020830184611d71565b60006101608d83526001600160a01b03808e166020850152808d1660408501528b60608501528a60808501528960a08501528860c085015280881660e08501528087166101008501525084151561012084015280610140840152611e2581840185611a44565b9e9d5050505050505050505050505050565b60008060008060808587031215611e4d57600080fd5b611e56856118e0565b93506020850135925060408501359150606085013567ffffffffffffffff811115611e8057600080fd5b611bd987828801611b2c565b600060208284031215611e9e57600080fd5b610c52826118e0565b60008060408385031215611eba57600080fd5b611ec3836118e0565b915060208301358015158114611ed857600080fd5b809150509250929050565b60008060408385031215611ef657600080fd5b82359150611f06602084016118e0565b90509250929050565b60008060408385031215611f2257600080fd5b611f2b836118e0565b9150611f06602084016118e0565b600080600080600060a08688031215611f5157600080fd5b611f5a866118e0565b9450611f68602087016118e0565b93506040860135925060608601359150608086013567ffffffffffffffff811115611f9257600080fd5b611c8288828901611b2c565b600080600060608486031215611fb357600080fd5b611fbc846118e0565b95602085013595506040909401359392505050565b600181811c90821680611fe557607f821691505b60208210810361200557634e487b7160e01b600052602260045260246000fd5b50919050565b634e487b7160e01b600052601160045260246000fd5b8082018082111561065e5761065e61200b565b634e487b7160e01b600052603260045260246000fd5b60006001820161205c5761205c61200b565b5060010190565b8181038181111561065e5761065e61200b565b601f821115610d3657600081815260208120601f850160051c8101602086101561209d5750805b601f850160051c820191505b81811015610844578281556001016120a9565b815167ffffffffffffffff8111156120d6576120d6611954565b6120ea816120e48454611fd1565b84612076565b602080601f83116001811461211f57600084156121075750858301515b600019600386901b1c1916600185901b178555610844565b600085815260208120601f198616915b8281101561214e5788860151825594840194600190910190840161212f565b508582101561216c5787850151600019600388901b60f8161c191681555b5050505050600190811b01905550565b634e487b7160e01b600052601260045260246000fd5b6000826121a1576121a161217c565b500690565b6000826121b5576121b561217c565b500490565b808202811582820484141761065e5761065e61200b565b634e487b7160e01b600052600160045260246000fd5b60006001600160a01b03808816835280871660208401525084604083015283606083015260a0608083015261221f60a0830184611a44565b979650505050505050565b60006020828403121561223c57600080fd5b8151610c5281611921565b60006001600160a01b03808816835280871660208401525060a0604083015261227360a0830186611d71565b82810360608401526122858186611d71565b905082810360808401526122998185611a44565b98975050505050505050565b6040815260006122b86040830185611d71565b82810360208401526122ca8185611d71565b9594505050505056fea2646970667358221220ae65a1a681e321c85c79e98a5136500f4ba535576eec0b3f6794337a570fc5f064736f6c63430008140033687474703a2f2f35312e33382e3139302e3133343a313135352f63617264732f7b69647d2e6a736f6e",
  "linkReferences": {},
  "deployedLinkReferences": {}
}