{
  "_format": "hh-sol-artifact-1",
  "contractName": "Battle",
  "sourceName": "contracts/battle.sol",
  "abi": [
    {
      "inputs": [
        {
          "internalType": "address",
          "name": "sender",
          "type": "address"
        },
        {
          "internalType": "uint256",
          "name": "balance",
          "type": "uint256"
        },
        {
          "internalType": "uint256",
          "name": "needed",
          "type": "uint256"
        },
        {
          "internalType": "uint256",
          "name": "tokenId",
          "type": "uint256"
        }
      ],
      "name": "ERC1155InsufficientBalance",
      "type": "error"
    },
    {
      "inputs": [
        {
          "internalType": "address",
          "name": "approver",
          "type": "address"
        }
      ],
      "name": "ERC1155InvalidApprover",
      "type": "error"
    },
    {
      "inputs": [
        {
          "internalType": "uint256",
          "name": "idsLength",
          "type": "uint256"
        },
        {
          "internalType": "uint256",
          "name": "valuesLength",
          "type": "uint256"
        }
      ],
      "name": "ERC1155InvalidArrayLength",
      "type": "error"
    },
    {
      "inputs": [
        {
          "internalType": "address",
          "name": "operator",
          "type": "address"
        }
      ],
      "name": "ERC1155InvalidOperator",
      "type": "error"
    },
    {
      "inputs": [
        {
          "internalType": "address",
          "name": "receiver",
          "type": "address"
        }
      ],
      "name": "ERC1155InvalidReceiver",
      "type": "error"
    },
    {
      "inputs": [
        {
          "internalType": "address",
          "name": "sender",
          "type": "address"
        }
      ],
      "name": "ERC1155InvalidSender",
      "type": "error"
    },
    {
      "inputs": [
        {
          "internalType": "address",
          "name": "operator",
          "type": "address"
        },
        {
          "internalType": "address",
          "name": "owner",
          "type": "address"
        }
      ],
      "name": "ERC1155MissingApprovalForAll",
      "type": "error"
    },
    {
      "inputs": [
        {
          "internalType": "address",
          "name": "owner",
          "type": "address"
        }
      ],
      "name": "OwnableInvalidOwner",
      "type": "error"
    },
    {
      "inputs": [
        {
          "internalType": "address",
          "name": "account",
          "type": "address"
        }
      ],
      "name": "OwnableUnauthorizedAccount",
      "type": "error"
    },
    {
      "anonymous": false,
      "inputs": [
        {
          "indexed": true,
          "internalType": "address",
          "name": "account",
          "type": "address"
        },
        {
          "indexed": true,
          "internalType": "address",
          "name": "operator",
          "type": "address"
        },
        {
          "indexed": false,
          "internalType": "bool",
          "name": "approved",
          "type": "bool"
        }
      ],
      "name": "ApprovalForAll",
      "type": "event"
    },
    {
      "anonymous": false,
      "inputs": [
        {
          "indexed": false,
          "internalType": "uint256",
          "name": "newCardIdMax",
          "type": "uint256"
        }
      ],
      "name": "CardIdMaxChanged",
      "type": "event"
    },
    {
      "anonymous": false,
      "inputs": [
        {
          "indexed": true,
          "internalType": "address",
          "name": "previousOwner",
          "type": "address"
        },
        {
          "indexed": true,
          "internalType": "address",
          "name": "newOwner",
          "type": "address"
        }
      ],
      "name": "OwnershipTransferred",
      "type": "event"
    },
    {
      "anonymous": false,
      "inputs": [
        {
          "indexed": true,
          "internalType": "address",
          "name": "operator",
          "type": "address"
        },
        {
          "indexed": true,
          "internalType": "address",
          "name": "from",
          "type": "address"
        },
        {
          "indexed": true,
          "internalType": "address",
          "name": "to",
          "type": "address"
        },
        {
          "indexed": false,
          "internalType": "uint256[]",
          "name": "ids",
          "type": "uint256[]"
        },
        {
          "indexed": false,
          "internalType": "uint256[]",
          "name": "values",
          "type": "uint256[]"
        }
      ],
      "name": "TransferBatch",
      "type": "event"
    },
    {
      "anonymous": false,
      "inputs": [
        {
          "indexed": true,
          "internalType": "address",
          "name": "operator",
          "type": "address"
        },
        {
          "indexed": true,
          "internalType": "address",
          "name": "from",
          "type": "address"
        },
        {
          "indexed": true,
          "internalType": "address",
          "name": "to",
          "type": "address"
        },
        {
          "indexed": false,
          "internalType": "uint256",
          "name": "id",
          "type": "uint256"
        },
        {
          "indexed": false,
          "internalType": "uint256",
          "name": "value",
          "type": "uint256"
        }
      ],
      "name": "TransferSingle",
      "type": "event"
    },
    {
      "anonymous": false,
      "inputs": [
        {
          "indexed": false,
          "internalType": "string",
          "name": "value",
          "type": "string"
        },
        {
          "indexed": true,
          "internalType": "uint256",
          "name": "id",
          "type": "uint256"
        }
      ],
      "name": "URI",
      "type": "event"
    },
    {
      "inputs": [
        {
          "internalType": "address",
          "name": "",
          "type": "address"
        },
        {
          "internalType": "uint256",
          "name": "",
          "type": "uint256"
        }
      ],
      "name": "addressToCardInBattle",
      "outputs": [
        {
          "internalType": "uint256",
          "name": "",
          "type": "uint256"
        }
      ],
      "stateMutability": "view",
      "type": "function"
    },
    {
      "inputs": [
        {
          "internalType": "address",
          "name": "account",
          "type": "address"
        },
        {
          "internalType": "uint256",
          "name": "id",
          "type": "uint256"
        }
      ],
      "name": "balanceOf",
      "outputs": [
        {
          "internalType": "uint256",
          "name": "",
          "type": "uint256"
        }
      ],
      "stateMutability": "view",
      "type": "function"
    },
    {
      "inputs": [
        {
          "internalType": "address[]",
          "name": "accounts",
          "type": "address[]"
        },
        {
          "internalType": "uint256[]",
          "name": "ids",
          "type": "uint256[]"
        }
      ],
      "name": "balanceOfBatch",
      "outputs": [
        {
          "internalType": "uint256[]",
          "name": "",
          "type": "uint256[]"
        }
      ],
      "stateMutability": "view",
      "type": "function"
    },
    {
      "inputs": [
        {
          "internalType": "uint256",
          "name": "",
          "type": "uint256"
        }
      ],
      "name": "battles",
      "outputs": [
        {
          "internalType": "address",
          "name": "player1",
          "type": "address"
        },
        {
          "internalType": "address",
          "name": "player2",
          "type": "address"
        },
        {
          "internalType": "uint256",
          "name": "cardIdPlayer1",
          "type": "uint256"
        },
        {
          "internalType": "uint256",
          "name": "cardIdPlayer2",
          "type": "uint256"
        },
        {
          "internalType": "uint256",
          "name": "amountPlayer1",
          "type": "uint256"
        },
        {
          "internalType": "uint256",
          "name": "amountPlayer2",
          "type": "uint256"
        },
        {
          "internalType": "address",
          "name": "winner",
          "type": "address"
        },
        {
          "internalType": "address",
          "name": "loser",
          "type": "address"
        },
        {
          "internalType": "bool",
          "name": "draw",
          "type": "bool"
        },
        {
          "internalType": "string",
          "name": "status",
          "type": "string"
        }
      ],
      "stateMutability": "view",
      "type": "function"
    },
    {
      "inputs": [
        {
          "internalType": "address",
          "name": "_from",
          "type": "address"
        },
        {
          "internalType": "uint256",
          "name": "_id",
          "type": "uint256"
        },
        {
          "internalType": "uint256",
          "name": "_value",
          "type": "uint256"
        }
      ],
      "name": "burn",
      "outputs": [],
      "stateMutability": "nonpayable",
      "type": "function"
    },
    {
      "inputs": [],
      "name": "cardIdMax",
      "outputs": [
        {
          "internalType": "uint256",
          "name": "",
          "type": "uint256"
        }
      ],
      "stateMutability": "view",
      "type": "function"
    },
    {
      "inputs": [
        {
          "internalType": "uint256",
          "name": "",
          "type": "uint256"
        },
        {
          "internalType": "address",
          "name": "",
          "type": "address"
        }
      ],
      "name": "cardIdToOwnerToAmount",
      "outputs": [
        {
          "internalType": "uint256",
          "name": "",
          "type": "uint256"
        }
      ],
      "stateMutability": "view",
      "type": "function"
    },
    {
      "inputs": [
        {
          "internalType": "uint256",
          "name": "",
          "type": "uint256"
        },
        {
          "internalType": "uint256",
          "name": "",
          "type": "uint256"
        }
      ],
      "name": "cardIdToOwners",
      "outputs": [
        {
          "internalType": "address",
          "name": "",
          "type": "address"
        }
      ],
      "stateMutability": "view",
      "type": "function"
    },
    {
      "inputs": [
        {
          "internalType": "uint256",
          "name": "_cardIdMax",
          "type": "uint256"
        }
      ],
      "name": "changeCardIdMax",
      "outputs": [],
      "stateMutability": "nonpayable",
      "type": "function"
    },
    {
      "inputs": [
        {
          "internalType": "uint256",
          "name": "id",
          "type": "uint256"
        }
      ],
      "name": "exists",
      "outputs": [
        {
          "internalType": "bool",
          "name": "",
          "type": "bool"
        }
      ],
      "stateMutability": "view",
      "type": "function"
    },
    {
      "inputs": [
        {
          "internalType": "address",
          "name": "_from",
          "type": "address"
        }
      ],
      "name": "getAllBalance",
      "outputs": [
        {
          "internalType": "uint256[]",
          "name": "",
          "type": "uint256[]"
        }
      ],
      "stateMutability": "view",
      "type": "function"
    },
    {
      "inputs": [
        {
          "internalType": "uint256",
          "name": "_id",
          "type": "uint256"
        },
        {
          "internalType": "address",
          "name": "_from",
          "type": "address"
        }
      ],
      "name": "getBalanceOf",
      "outputs": [
        {
          "internalType": "uint256",
          "name": "",
          "type": "uint256"
        }
      ],
      "stateMutability": "view",
      "type": "function"
    },
    {
      "inputs": [],
      "name": "getCardIdMax",
      "outputs": [
        {
          "internalType": "uint256",
          "name": "",
          "type": "uint256"
        }
      ],
      "stateMutability": "view",
      "type": "function"
    },
    {
      "inputs": [
        {
          "internalType": "address",
          "name": "account",
          "type": "address"
        },
        {
          "internalType": "address",
          "name": "operator",
          "type": "address"
        }
      ],
      "name": "isApprovedForAll",
      "outputs": [
        {
          "internalType": "bool",
          "name": "",
          "type": "bool"
        }
      ],
      "stateMutability": "view",
      "type": "function"
    },
    {
      "inputs": [
        {
          "internalType": "address",
          "name": "_account",
          "type": "address"
        },
        {
          "internalType": "uint256",
          "name": "_id",
          "type": "uint256"
        },
        {
          "internalType": "uint256",
          "name": "_amount",
          "type": "uint256"
        },
        {
          "internalType": "bytes",
          "name": "_data",
          "type": "bytes"
        }
      ],
      "name": "mint",
      "outputs": [],
      "stateMutability": "nonpayable",
      "type": "function"
    },
    {
      "inputs": [
        {
          "internalType": "address",
          "name": "_to",
          "type": "address"
        },
        {
          "internalType": "uint256[]",
          "name": "_ids",
          "type": "uint256[]"
        },
        {
          "internalType": "uint256[]",
          "name": "_amounts",
          "type": "uint256[]"
        },
        {
          "internalType": "bytes",
          "name": "_data",
          "type": "bytes"
        }
      ],
      "name": "mintBatch",
      "outputs": [],
      "stateMutability": "nonpayable",
      "type": "function"
    },
    {
      "inputs": [],
      "name": "nonce",
      "outputs": [
        {
          "internalType": "uint256",
          "name": "",
          "type": "uint256"
        }
      ],
      "stateMutability": "view",
      "type": "function"
    },
    {
      "inputs": [],
      "name": "openPack",
      "outputs": [],
      "stateMutability": "payable",
      "type": "function"
    },
    {
      "inputs": [],
      "name": "owner",
      "outputs": [
        {
          "internalType": "address",
          "name": "",
          "type": "address"
        }
      ],
      "stateMutability": "view",
      "type": "function"
    },
    {
      "inputs": [],
      "name": "renounceOwnership",
      "outputs": [],
      "stateMutability": "nonpayable",
      "type": "function"
    },
    {
      "inputs": [
        {
          "internalType": "address",
          "name": "from",
          "type": "address"
        },
        {
          "internalType": "address",
          "name": "to",
          "type": "address"
        },
        {
          "internalType": "uint256[]",
          "name": "ids",
          "type": "uint256[]"
        },
        {
          "internalType": "uint256[]",
          "name": "values",
          "type": "uint256[]"
        },
        {
          "internalType": "bytes",
          "name": "data",
          "type": "bytes"
        }
      ],
      "name": "safeBatchTransferFrom",
      "outputs": [],
      "stateMutability": "nonpayable",
      "type": "function"
    },
    {
      "inputs": [
        {
          "internalType": "address",
          "name": "from",
          "type": "address"
        },
        {
          "internalType": "address",
          "name": "to",
          "type": "address"
        },
        {
          "internalType": "uint256",
          "name": "id",
          "type": "uint256"
        },
        {
          "internalType": "uint256",
          "name": "value",
          "type": "uint256"
        },
        {
          "internalType": "bytes",
          "name": "data",
          "type": "bytes"
        }
      ],
      "name": "safeTransferFrom",
      "outputs": [],
      "stateMutability": "nonpayable",
      "type": "function"
    },
    {
      "inputs": [
        {
          "internalType": "address",
          "name": "operator",
          "type": "address"
        },
        {
          "internalType": "bool",
          "name": "approved",
          "type": "bool"
        }
      ],
      "name": "setApprovalForAll",
      "outputs": [],
      "stateMutability": "nonpayable",
      "type": "function"
    },
    {
      "inputs": [
        {
          "internalType": "string",
          "name": "_newuri",
          "type": "string"
        }
      ],
      "name": "setURI",
      "outputs": [],
      "stateMutability": "nonpayable",
      "type": "function"
    },
    {
      "inputs": [
        {
          "internalType": "bytes4",
          "name": "interfaceId",
          "type": "bytes4"
        }
      ],
      "name": "supportsInterface",
      "outputs": [
        {
          "internalType": "bool",
          "name": "",
          "type": "bool"
        }
      ],
      "stateMutability": "view",
      "type": "function"
    },
    {
      "inputs": [],
      "name": "totalSupply",
      "outputs": [
        {
          "internalType": "uint256",
          "name": "",
          "type": "uint256"
        }
      ],
      "stateMutability": "view",
      "type": "function"
    },
    {
      "inputs": [
        {
          "internalType": "uint256",
          "name": "id",
          "type": "uint256"
        }
      ],
      "name": "totalSupply",
      "outputs": [
        {
          "internalType": "uint256",
          "name": "",
          "type": "uint256"
        }
      ],
      "stateMutability": "view",
      "type": "function"
    },
    {
      "inputs": [
        {
          "internalType": "address",
          "name": "newOwner",
          "type": "address"
        }
      ],
      "name": "transferOwnership",
      "outputs": [],
      "stateMutability": "nonpayable",
      "type": "function"
    },
    {
      "inputs": [
        {
          "internalType": "uint256",
          "name": "",
          "type": "uint256"
        }
      ],
      "name": "uri",
      "outputs": [
        {
          "internalType": "string",
          "name": "",
          "type": "string"
        }
      ],
      "stateMutability": "view",
      "type": "function"
    }
  ],
  "bytecode": "0x6080604052600960065560006007553480156200001b57600080fd5b50336040518060600160405280602981526020016200256160299139620000428162000084565b506001600160a01b0381166200007257604051631e4fbdf760e01b81526000600482015260240160405180910390fd5b6200007d8162000096565b5062000259565b60026200009282826200018d565b5050565b600580546001600160a01b038381166001600160a01b0319831681179093556040519116919082907f8be0079c531659141344cd1fd0a4f28419497f9722a3daafe3b4186f6b6457e090600090a35050565b634e487b7160e01b600052604160045260246000fd5b600181811c908216806200011357607f821691505b6020821081036200013457634e487b7160e01b600052602260045260246000fd5b50919050565b601f8211156200018857600081815260208120601f850160051c81016020861015620001635750805b601f850160051c820191505b8181101562000184578281556001016200016f565b5050505b505050565b81516001600160401b03811115620001a957620001a9620000e8565b620001c181620001ba8454620000fe565b846200013a565b602080601f831160018114620001f95760008415620001e05750858301515b600019600386901b1c1916600185901b17855562000184565b600085815260208120601f198616915b828110156200022a5788860151825594840194600190910190840162000209565b5085821015620002495787850151600019600388901b60f8161c191681555b5050505050600190811b01905550565b6122f880620002696000396000f3fe6080604052600436106101c05760003560e01c8063715018a6116100f7578063bd85b03911610095578063efefb0dd11610064578063efefb0dd14610560578063f242432a14610598578063f2fde38b146105b8578063f5298aca146105d857600080fd5b8063bd85b03914610492578063bfa0af6d146104bf578063e985e9c5146104df578063e99942671461052857600080fd5b80638da7722a116100d15780638da7722a146104265780639347fb3d1461043c578063a22cb4651461045c578063affed0e01461047c57600080fd5b8063715018a6146103d3578063731133e9146103e85780638da5cb5b1461040857600080fd5b80632eb2c2d6116101645780634673f3321161013e5780634673f3321461032c5780634e1273f4146103415780634f558e791461036e578063606d2e961461039d57600080fd5b80632eb2c2d6146102cc57806334303187146102ec5780633c4ea3851461032457600080fd5b806302fe5305116101a057806302fe53051461024a5780630e89341c1461026a57806318160ddd146102975780631f7fdffa146102ac57600080fd5b806266fd0d146101c5578062fdd58e146101e757806301ffc9a71461021a575b600080fd5b3480156101d157600080fd5b506101e56101e03660046118be565b6105f8565b005b3480156101f357600080fd5b506102076102023660046118ee565b61063b565b6040519081526020015b60405180910390f35b34801561022657600080fd5b5061023a61023536600461192e565b610663565b6040519015158152602001610211565b34801561025657600080fd5b506101e56102653660046119ea565b6106fe565b34801561027657600080fd5b5061028a6102853660046118be565b610712565b6040516102119190611a81565b3480156102a357600080fd5b50600454610207565b3480156102b857600080fd5b506101e56102c7366004611b43565b6107a6565b3480156102d857600080fd5b506101e56102e7366004611bdc565b6107c0565b3480156102f857600080fd5b5061030c610307366004611c86565b61084b565b6040516001600160a01b039091168152602001610211565b6101e5610883565b34801561033857600080fd5b50600654610207565b34801561034d57600080fd5b5061036161035c366004611ca8565b610967565b6040516102119190611da3565b34801561037a57600080fd5b5061023a6103893660046118be565b600090815260036020526040902054151590565b3480156103a957600080fd5b506103bd6103b83660046118be565b610a3c565b6040516102119a99989796959493929190611db6565b3480156103df57600080fd5b506101e5610b51565b3480156103f457600080fd5b506101e5610403366004611e26565b610b65565b34801561041457600080fd5b506005546001600160a01b031661030c565b34801561043257600080fd5b5061020760065481565b34801561044857600080fd5b50610361610457366004611e7b565b610b79565b34801561046857600080fd5b506101e5610477366004611e96565b610c2e565b34801561048857600080fd5b5061020760075481565b34801561049e57600080fd5b506102076104ad3660046118be565b60009081526003602052604090205490565b3480156104cb57600080fd5b506102076104da366004611ed2565b610c3d565b3480156104eb57600080fd5b5061023a6104fa366004611efe565b6001600160a01b03918216600090815260016020908152604080832093909416825291909152205460ff1690565b34801561053457600080fd5b50610207610543366004611ed2565b600860209081526000928352604080842090915290825290205481565b34801561056c57600080fd5b5061020761057b3660046118ee565b600a60209081526000928352604080842090915290825290205481565b3480156105a457600080fd5b506101e56105b3366004611f28565b610c50565b3480156105c457600080fd5b506101e56105d3366004611e7b565b610cce565b3480156105e457600080fd5b506101e56105f3366004611f8d565b610d22565b610600610d32565b60068190556040518181527f2ca7491c41b198f60823c9da02ca440dca6bfb5d6cd4ae0df705cc35de252fb39060200160405180910390a150565b6000818152602081815260408083206001600160a01b03861684529091529020545b92915050565b60006001600160e01b031982167fd9b67a260000000000000000000000000000000000000000000000000000000014806106c657506001600160e01b031982167f0e89341c00000000000000000000000000000000000000000000000000000000145b8061065d57507f01ffc9a7000000000000000000000000000000000000000000000000000000006001600160e01b031983161461065d565b610706610d32565b61070f81610d78565b50565b60606002805461072190611fc0565b80601f016020809104026020016040519081016040528092919081815260200182805461074d90611fc0565b801561079a5780601f1061076f5761010080835404028352916020019161079a565b820191906000526020600020905b81548152906001019060200180831161077d57829003601f168201915b50505050509050919050565b6107ae610d32565b6107ba84848484610d84565b50505050565b336001600160a01b038616811480159061080057506001600160a01b0380871660009081526001602090815260408083209385168352929052205460ff16155b156108365760405163711bec9160e11b81526001600160a01b038083166004830152871660248201526044015b60405180910390fd5b6108438686868686610dbc565b505050505050565b6009602052816000526040600020818154811061086757600080fd5b6000918252602090912001546001600160a01b03169150829050565b3464e8d4a5100014610917576040517f08c379a000000000000000000000000000000000000000000000000000000000815260206004820152602d60248201527f596f75206e65656420746f2070617920302e303030303031206574686572207460448201527f6f206f70656e2061207061636b00000000000000000000000000000000000000606482015260840161082d565b6000610921610e1c565b9050600061092e82610e6d565b9050600061093a610eb2565b9050600061094782610f02565b905060006109558483612010565b905061096081610f3f565b5050505050565b606081518351146109985781518351604051635b05999160e01b81526004810192909252602482015260440161082d565b6000835167ffffffffffffffff8111156109b4576109b461194b565b6040519080825280602002602001820160405280156109dd578160200160208202803683370190505b50905060005b8451811015610a3457602080820286010151610a079060208084028701015161063b565b828281518110610a1957610a19612023565b6020908102919091010152610a2d81612039565b90506109e3565b509392505050565b600b8181548110610a4c57600080fd5b60009182526020909120600b9091020180546001820154600283015460038401546004850154600586015460088701546009880154600a890180546001600160a01b03998a169b5097891699969895979496939592831694928216937401000000000000000000000000000000000000000090920460ff1692610ace90611fc0565b80601f0160208091040260200160405190810160405280929190818152602001828054610afa90611fc0565b8015610b475780601f10610b1c57610100808354040283529160200191610b47565b820191906000526020600020905b815481529060010190602001808311610b2a57829003601f168201915b505050505090508a565b610b59610d32565b610b636000611045565b565b610b6d610d32565b6107ba848484846110a4565b6060600060065467ffffffffffffffff811115610b9857610b9861194b565b604051908082528060200260200182016040528015610bc1578160200160208202803683370190505b50905060015b6006548111610c27576000610bdc858361063b565b1115610c1557610bec848261063b565b82610bf8600184612052565b81518110610c0857610c08612023565b6020026020010181815250505b80610c1f81612039565b915050610bc7565b5092915050565b610c39338383611101565b5050565b6000610c49828461063b565b9392505050565b336001600160a01b0386168114801590610c9057506001600160a01b0380871660009081526001602090815260408083209385168352929052205460ff16155b15610cc15760405163711bec9160e11b81526001600160a01b0380831660048301528716602482015260440161082d565b61084386868686866111b1565b610cd6610d32565b6001600160a01b038116610d19576040517f1e4fbdf70000000000000000000000000000000000000000000000000000000081526000600482015260240161082d565b61070f81611045565b610d2d83838361123f565b505050565b6005546001600160a01b03163314610b63576040517f118cdaa700000000000000000000000000000000000000000000000000000000815233600482015260240161082d565b6002610c3982826120ab565b6001600160a01b038416610dae57604051632bfa23e760e11b81526000600482015260240161082d565b6107ba6000858585856112a3565b6001600160a01b038416610de657604051632bfa23e760e11b81526000600482015260240161082d565b6001600160a01b038516610e0f57604051626a0d4560e21b81526000600482015260240161082d565b61096085858585856112a3565b604080514260208201526bffffffffffffffffffffffff193360601b169181019190915244605482015260009081906074015b60408051601f19818403018152919052805160209091012092915050565b60006014610e7c606484612181565b1015610e8a57506002919050565b6032610e97606484612181565b1015610ea557506001919050565b506000919050565b919050565b6007805460009182610ec383612039565b9091555050600754604080514260208201526bffffffffffffffffffffffff193360601b16918101919091526054810191909152600090607401610e4f565b600060026003600654610f159190612195565b610f1f9084612181565b610f2a906001612010565b610f359060036121a9565b61065d9190612052565b610f5b33826001604051806020016040528060008152506110a4565b6000818152600860209081526040808320338452909152902054610f809060016112f6565b60008281526008602090815260408083203384529091528120919091555b600082815260096020526040902054811015611007576000828152600960205260409020805433919083908110610fd757610fd7612023565b6000918252602090912001546001600160a01b031603610ff5575050565b80610fff81612039565b915050610f9e565b50600090815260096020908152604082208054600181018255908352912001805473ffffffffffffffffffffffffffffffffffffffff191633179055565b600580546001600160a01b0383811673ffffffffffffffffffffffffffffffffffffffff19831681179093556040519116919082907f8be0079c531659141344cd1fd0a4f28419497f9722a3daafe3b4186f6b6457e090600090a35050565b6001600160a01b0384166110ce57604051632bfa23e760e11b81526000600482015260240161082d565b604080516001808252602082018690528183019081526060820185905260808201909252906108436000878484876112a3565b6001600160a01b038216611144576040517fced3e1000000000000000000000000000000000000000000000000000000000081526000600482015260240161082d565b6001600160a01b03838116600081815260016020908152604080832094871680845294825291829020805460ff191686151590811790915591519182527f17307eab39ab6107e8899845ad3d59bd9653f200f220920489ca2b5937696c31910160405180910390a3505050565b6001600160a01b0384166111db57604051632bfa23e760e11b81526000600482015260240161082d565b6001600160a01b03851661120457604051626a0d4560e21b81526000600482015260240161082d565b6040805160018082526020820186905281830190815260608201859052608082019092529061123687878484876112a3565b50505050505050565b6001600160a01b03831661126857604051626a0d4560e21b81526000600482015260240161082d565b604080516001808252602082018590528183019081526060820184905260a08201909252600060808201818152919291610960918791859085905b6112af85858585611315565b6001600160a01b0384161561096057825133906001036112e857602084810151908401516112e1838989858589611321565b5050610843565b610843818787878787611445565b6000806113038385612010565b905083811015610c4957610c496121c0565b6107ba8484848461152e565b6001600160a01b0384163b156108435760405163f23a6e6160e01b81526001600160a01b0385169063f23a6e619061136590899089908890889088906004016121d6565b6020604051808303816000875af19250505080156113a0575060408051601f3d908101601f1916820190925261139d91810190612219565b60015b611409573d8080156113ce576040519150601f19603f3d011682016040523d82523d6000602084013e6113d3565b606091505b50805160000361140157604051632bfa23e760e11b81526001600160a01b038616600482015260240161082d565b805181602001fd5b6001600160e01b0319811663f23a6e6160e01b1461123657604051632bfa23e760e11b81526001600160a01b038616600482015260240161082d565b6001600160a01b0384163b156108435760405163bc197c8160e01b81526001600160a01b0385169063bc197c81906114899089908990889088908890600401612236565b6020604051808303816000875af19250505080156114c4575060408051601f3d908101601f191682019092526114c191810190612219565b60015b6114f2573d8080156113ce576040519150601f19603f3d011682016040523d82523d6000602084013e6113d3565b6001600160e01b0319811663bc197c8160e01b1461123657604051632bfa23e760e11b81526001600160a01b038616600482015260240161082d565b61153a84848484611688565b6001600160a01b0384166115ed576000805b83518110156115d357600083828151811061156957611569612023565b60200260200101519050806003600087858151811061158a5761158a612023565b6020026020010151815260200190815260200160002060008282546115af9190612010565b909155506115bf90508184612010565b925050806115cc90612039565b905061154c565b5080600460008282546115e69190612010565b9091555050505b6001600160a01b0383166107ba576000805b835181101561167757600083828151811061161c5761161c612023565b60200260200101519050806003600087858151811061163d5761163d612023565b60200260200101518152602001908152602001600020600082825403925050819055508083019250508061167090612039565b90506115ff565b506004805491909103905550505050565b80518251146116b75781518151604051635b05999160e01b81526004810192909252602482015260440161082d565b3360005b83518110156117df576020818102858101820151908501909101516001600160a01b03881615611787576000828152602081815260408083206001600160a01b038c16845290915290205481811015611760576040517f03dee4c50000000000000000000000000000000000000000000000000000000081526001600160a01b038a16600482015260248101829052604481018390526064810184905260840161082d565b6000838152602081815260408083206001600160a01b038d16845290915290209082900390555b6001600160a01b038716156117cc576000828152602081815260408083206001600160a01b038b168452909152812080548392906117c6908490612010565b90915550505b5050806117d890612039565b90506116bb565b5082516001036118605760208301516000906020840151909150856001600160a01b0316876001600160a01b0316846001600160a01b03167fc3d58168c5ae7397731d063d5bbf3d657854427343f4c083240f7aacaa2d0f628585604051611851929190918252602082015260400190565b60405180910390a45050610960565b836001600160a01b0316856001600160a01b0316826001600160a01b03167f4a39dc06d4c0dbc64b70af90fd698a233a518aa5d07e595d983b8c0526c8f7fb86866040516118af929190612294565b60405180910390a45050505050565b6000602082840312156118d057600080fd5b5035919050565b80356001600160a01b0381168114610ead57600080fd5b6000806040838503121561190157600080fd5b61190a836118d7565b946020939093013593505050565b6001600160e01b03198116811461070f57600080fd5b60006020828403121561194057600080fd5b8135610c4981611918565b634e487b7160e01b600052604160045260246000fd5b604051601f8201601f1916810167ffffffffffffffff8111828210171561198a5761198a61194b565b604052919050565b600067ffffffffffffffff8311156119ac576119ac61194b565b6119bf601f8401601f1916602001611961565b90508281528383830111156119d357600080fd5b828260208301376000602084830101529392505050565b6000602082840312156119fc57600080fd5b813567ffffffffffffffff811115611a1357600080fd5b8201601f81018413611a2457600080fd5b611a3384823560208401611992565b949350505050565b6000815180845260005b81811015611a6157602081850181015186830182015201611a45565b506000602082860101526020601f19601f83011685010191505092915050565b602081526000610c496020830184611a3b565b600067ffffffffffffffff821115611aae57611aae61194b565b5060051b60200190565b600082601f830112611ac957600080fd5b81356020611ade611ad983611a94565b611961565b82815260059290921b84018101918181019086841115611afd57600080fd5b8286015b84811015611b185780358352918301918301611b01565b509695505050505050565b600082601f830112611b3457600080fd5b610c4983833560208501611992565b60008060008060808587031215611b5957600080fd5b611b62856118d7565b9350602085013567ffffffffffffffff80821115611b7f57600080fd5b611b8b88838901611ab8565b94506040870135915080821115611ba157600080fd5b611bad88838901611ab8565b93506060870135915080821115611bc357600080fd5b50611bd087828801611b23565b91505092959194509250565b600080600080600060a08688031215611bf457600080fd5b611bfd866118d7565b9450611c0b602087016118d7565b9350604086013567ffffffffffffffff80821115611c2857600080fd5b611c3489838a01611ab8565b94506060880135915080821115611c4a57600080fd5b611c5689838a01611ab8565b93506080880135915080821115611c6c57600080fd5b50611c7988828901611b23565b9150509295509295909350565b60008060408385031215611c9957600080fd5b50508035926020909101359150565b60008060408385031215611cbb57600080fd5b823567ffffffffffffffff80821115611cd357600080fd5b818501915085601f830112611ce757600080fd5b81356020611cf7611ad983611a94565b82815260059290921b84018101918181019089841115611d1657600080fd5b948201945b83861015611d3b57611d2c866118d7565b82529482019490820190611d1b565b96505086013592505080821115611d5157600080fd5b50611d5e85828601611ab8565b9150509250929050565b600081518084526020808501945080840160005b83811015611d9857815187529582019590820190600101611d7c565b509495945050505050565b602081526000610c496020830184611d68565b60006101406001600160a01b03808e168452808d1660208501528b60408501528a60608501528960808501528860a085015280881660c085015280871660e08501525084151561010084015280610120840152611e1581840185611a3b565b9d9c50505050505050505050505050565b60008060008060808587031215611e3c57600080fd5b611e45856118d7565b93506020850135925060408501359150606085013567ffffffffffffffff811115611e6f57600080fd5b611bd087828801611b23565b600060208284031215611e8d57600080fd5b610c49826118d7565b60008060408385031215611ea957600080fd5b611eb2836118d7565b915060208301358015158114611ec757600080fd5b809150509250929050565b60008060408385031215611ee557600080fd5b82359150611ef5602084016118d7565b90509250929050565b60008060408385031215611f1157600080fd5b611f1a836118d7565b9150611ef5602084016118d7565b600080600080600060a08688031215611f4057600080fd5b611f49866118d7565b9450611f57602087016118d7565b93506040860135925060608601359150608086013567ffffffffffffffff811115611f8157600080fd5b611c7988828901611b23565b600080600060608486031215611fa257600080fd5b611fab846118d7565b95602085013595506040909401359392505050565b600181811c90821680611fd457607f821691505b602082108103611ff457634e487b7160e01b600052602260045260246000fd5b50919050565b634e487b7160e01b600052601160045260246000fd5b8082018082111561065d5761065d611ffa565b634e487b7160e01b600052603260045260246000fd5b60006001820161204b5761204b611ffa565b5060010190565b8181038181111561065d5761065d611ffa565b601f821115610d2d57600081815260208120601f850160051c8101602086101561208c5750805b601f850160051c820191505b8181101561084357828155600101612098565b815167ffffffffffffffff8111156120c5576120c561194b565b6120d9816120d38454611fc0565b84612065565b602080601f83116001811461210e57600084156120f65750858301515b600019600386901b1c1916600185901b178555610843565b600085815260208120601f198616915b8281101561213d5788860151825594840194600190910190840161211e565b508582101561215b5787850151600019600388901b60f8161c191681555b5050505050600190811b01905550565b634e487b7160e01b600052601260045260246000fd5b6000826121905761219061216b565b500690565b6000826121a4576121a461216b565b500490565b808202811582820484141761065d5761065d611ffa565b634e487b7160e01b600052600160045260246000fd5b60006001600160a01b03808816835280871660208401525084604083015283606083015260a0608083015261220e60a0830184611a3b565b979650505050505050565b60006020828403121561222b57600080fd5b8151610c4981611918565b60006001600160a01b03808816835280871660208401525060a0604083015261226260a0830186611d68565b82810360608401526122748186611d68565b905082810360808401526122888185611a3b565b98975050505050505050565b6040815260006122a76040830185611d68565b82810360208401526122b98185611d68565b9594505050505056fea264697066735822122069e4c56bf830677a35ea152281525b73a0714e9ce80d406c46fb6d66133f293764736f6c63430008140033687474703a2f2f35312e33382e3139302e3133343a313135352f63617264732f7b69647d2e6a736f6e",
  "linkReferences": {},
  "deployedLinkReferences": {}
}